{
	"Script/RunningChihuahuaShop.sol": {
		"ItemShop": {
			"abi": [
				{
					"inputs": [
						{
							"internalType": "address",
							"name": "_chhToken",
							"type": "address"
						},
						{
							"internalType": "address",
							"name": "_backendSigner",
							"type": "address"
						}
					],
					"stateMutability": "nonpayable",
					"type": "constructor"
				},
				{
					"inputs": [],
					"name": "ECDSAInvalidSignature",
					"type": "error"
				},
				{
					"inputs": [
						{
							"internalType": "uint256",
							"name": "length",
							"type": "uint256"
						}
					],
					"name": "ECDSAInvalidSignatureLength",
					"type": "error"
				},
				{
					"inputs": [
						{
							"internalType": "bytes32",
							"name": "s",
							"type": "bytes32"
						}
					],
					"name": "ECDSAInvalidSignatureS",
					"type": "error"
				},
				{
					"inputs": [
						{
							"internalType": "address",
							"name": "owner",
							"type": "address"
						}
					],
					"name": "OwnableInvalidOwner",
					"type": "error"
				},
				{
					"inputs": [
						{
							"internalType": "address",
							"name": "account",
							"type": "address"
						}
					],
					"name": "OwnableUnauthorizedAccount",
					"type": "error"
				},
				{
					"anonymous": false,
					"inputs": [
						{
							"indexed": true,
							"internalType": "address",
							"name": "user",
							"type": "address"
						},
						{
							"indexed": false,
							"internalType": "uint256",
							"name": "amount",
							"type": "uint256"
						},
						{
							"indexed": false,
							"internalType": "uint256",
							"name": "payAmount",
							"type": "uint256"
						}
					],
					"name": "ItemPurchased",
					"type": "event"
				},
				{
					"anonymous": false,
					"inputs": [
						{
							"indexed": true,
							"internalType": "address",
							"name": "previousOwner",
							"type": "address"
						},
						{
							"indexed": true,
							"internalType": "address",
							"name": "newOwner",
							"type": "address"
						}
					],
					"name": "OwnershipTransferred",
					"type": "event"
				},
				{
					"inputs": [],
					"name": "backendSigner",
					"outputs": [
						{
							"internalType": "address",
							"name": "",
							"type": "address"
						}
					],
					"stateMutability": "view",
					"type": "function"
				},
				{
					"inputs": [
						{
							"internalType": "uint256",
							"name": "amount",
							"type": "uint256"
						},
						{
							"internalType": "uint256",
							"name": "payAmount",
							"type": "uint256"
						},
						{
							"internalType": "bytes",
							"name": "signature",
							"type": "bytes"
						}
					],
					"name": "buyItem",
					"outputs": [],
					"stateMutability": "nonpayable",
					"type": "function"
				},
				{
					"inputs": [],
					"name": "chhToken",
					"outputs": [
						{
							"internalType": "contract IERC20",
							"name": "",
							"type": "address"
						}
					],
					"stateMutability": "view",
					"type": "function"
				},
				{
					"inputs": [],
					"name": "owner",
					"outputs": [
						{
							"internalType": "address",
							"name": "",
							"type": "address"
						}
					],
					"stateMutability": "view",
					"type": "function"
				},
				{
					"inputs": [],
					"name": "renounceOwnership",
					"outputs": [],
					"stateMutability": "nonpayable",
					"type": "function"
				},
				{
					"inputs": [
						{
							"internalType": "address",
							"name": "_newSigner",
							"type": "address"
						}
					],
					"name": "setBackendSigner",
					"outputs": [],
					"stateMutability": "nonpayable",
					"type": "function"
				},
				{
					"inputs": [
						{
							"internalType": "address",
							"name": "newOwner",
							"type": "address"
						}
					],
					"name": "transferOwnership",
					"outputs": [],
					"stateMutability": "nonpayable",
					"type": "function"
				},
				{
					"inputs": [
						{
							"internalType": "address",
							"name": "to",
							"type": "address"
						}
					],
					"name": "withdrawTokens",
					"outputs": [],
					"stateMutability": "nonpayable",
					"type": "function"
				}
			],
			"devdoc": {
				"details": "バックエンドの署名を使用してアイテムを販売するコントラクト",
				"errors": {
					"ECDSAInvalidSignature()": [
						{
							"details": "The signature derives the `address(0)`."
						}
					],
					"ECDSAInvalidSignatureLength(uint256)": [
						{
							"details": "The signature has an invalid length."
						}
					],
					"ECDSAInvalidSignatureS(bytes32)": [
						{
							"details": "The signature has an S value that is in the upper half order."
						}
					],
					"OwnableInvalidOwner(address)": [
						{
							"details": "The owner is not a valid owner account. (eg. `address(0)`)"
						}
					],
					"OwnableUnauthorizedAccount(address)": [
						{
							"details": "The caller account is not authorized to perform an operation."
						}
					]
				},
				"kind": "dev",
				"methods": {
					"buyItem(uint256,uint256,bytes)": {
						"details": "アイテムを購入する",
						"params": {
							"amount": "購入するアイテム数",
							"payAmount": "支払額 (wei)",
							"signature": "PHPバックエンドで生成された署名"
						}
					},
					"owner()": {
						"details": "Returns the address of the current owner."
					},
					"renounceOwnership()": {
						"details": "Leaves the contract without owner. It will not be possible to call `onlyOwner` functions. Can only be called by the current owner. NOTE: Renouncing ownership will leave the contract without an owner, thereby disabling any functionality that is only available to the owner."
					},
					"setBackendSigner(address)": {
						"details": "署名者を設定（オーナーのみ）"
					},
					"transferOwnership(address)": {
						"details": "Transfers ownership of the contract to a new account (`newOwner`). Can only be called by the current owner."
					},
					"withdrawTokens(address)": {
						"details": "売り上げトークンを回収（オーナーのみ）"
					}
				},
				"title": "ItemShop",
				"version": 1
			},
			"evm": {
				"assembly": "    /* \"Script/RunningChihuahuaShop.sol\":441:2801  contract ItemShop is Ownable {... */\n  mstore(0x40, 0x80)\n    /* \"Script/RunningChihuahuaShop.sol\":751:914  constructor(address _chhToken, address _backendSigner) Ownable(msg.sender) {... */\n  callvalue\n  dup1\n  iszero\n  tag_1\n  jumpi\n  revert(0x00, 0x00)\ntag_1:\n  pop\n  mload(0x40)\n  sub(codesize, bytecodeSize)\n  dup1\n  bytecodeSize\n  dup4\n  codecopy\n  dup2\n  dup2\n  add\n  0x40\n  mstore\n  dup2\n  add\n  swap1\n  tag_2\n  swap2\n  swap1\n  tag_3\n  jump\t// in\ntag_2:\n    /* \"Script/RunningChihuahuaShop.sol\":814:824  msg.sender */\n  caller\n    /* \"@openzeppelin/contracts/access/Ownable.sol\":1297:1298  0 */\n  0x00\n    /* \"@openzeppelin/contracts/access/Ownable.sol\":1273:1299  initialOwner == address(0) */\n  0xffffffffffffffffffffffffffffffffffffffff\n  and\n    /* \"@openzeppelin/contracts/access/Ownable.sol\":1273:1285  initialOwner */\n  dup2\n    /* \"@openzeppelin/contracts/access/Ownable.sol\":1273:1299  initialOwner == address(0) */\n  0xffffffffffffffffffffffffffffffffffffffff\n  and\n  sub\n    /* \"@openzeppelin/contracts/access/Ownable.sol\":1269:1364  if (initialOwner == address(0)) {... */\n  tag_7\n  jumpi\n    /* \"@openzeppelin/contracts/access/Ownable.sol\":1350:1351  0 */\n  0x00\n    /* \"@openzeppelin/contracts/access/Ownable.sol\":1322:1353  OwnableInvalidOwner(address(0)) */\n  mload(0x40)\n  0x1e4fbdf700000000000000000000000000000000000000000000000000000000\n  dup2\n  mstore\n  0x04\n  add\n  tag_8\n  swap2\n  swap1\n  tag_9\n  jump\t// in\ntag_8:\n  mload(0x40)\n  dup1\n  swap2\n  sub\n  swap1\n  revert\n    /* \"@openzeppelin/contracts/access/Ownable.sol\":1269:1364  if (initialOwner == address(0)) {... */\ntag_7:\n    /* \"@openzeppelin/contracts/access/Ownable.sol\":1373:1405  _transferOwnership(initialOwner) */\n  tag_10\n    /* \"@openzeppelin/contracts/access/Ownable.sol\":1392:1404  initialOwner */\n  dup2\n    /* \"@openzeppelin/contracts/access/Ownable.sol\":1373:1391  _transferOwnership */\n  shl(0x20, tag_11)\n    /* \"@openzeppelin/contracts/access/Ownable.sol\":1373:1405  _transferOwnership(initialOwner) */\n  0x20\n  shr\n  jump\t// in\ntag_10:\n    /* \"@openzeppelin/contracts/access/Ownable.sol\":1225:1412  constructor(address initialOwner) {... */\n  pop\n    /* \"Script/RunningChihuahuaShop.sol\":855:864  _chhToken */\n  dup2\n    /* \"Script/RunningChihuahuaShop.sol\":837:845  chhToken */\n  0x01\n  0x00\n    /* \"Script/RunningChihuahuaShop.sol\":837:865  chhToken = IERC20(_chhToken) */\n  0x0100\n  exp\n  dup2\n  sload\n  dup2\n  0xffffffffffffffffffffffffffffffffffffffff\n  mul\n  not\n  and\n  swap1\n  dup4\n  0xffffffffffffffffffffffffffffffffffffffff\n  and\n  mul\n  or\n  swap1\n  sstore\n  pop\n    /* \"Script/RunningChihuahuaShop.sol\":892:906  _backendSigner */\n  dup1\n    /* \"Script/RunningChihuahuaShop.sol\":876:889  backendSigner */\n  0x02\n  0x00\n    /* \"Script/RunningChihuahuaShop.sol\":876:906  backendSigner = _backendSigner */\n  0x0100\n  exp\n  dup2\n  sload\n  dup2\n  0xffffffffffffffffffffffffffffffffffffffff\n  mul\n  not\n  and\n  swap1\n  dup4\n  0xffffffffffffffffffffffffffffffffffffffff\n  and\n  mul\n  or\n  swap1\n  sstore\n  pop\n    /* \"Script/RunningChihuahuaShop.sol\":751:914  constructor(address _chhToken, address _backendSigner) Ownable(msg.sender) {... */\n  pop\n  pop\n    /* \"Script/RunningChihuahuaShop.sol\":441:2801  contract ItemShop is Ownable {... */\n  jump(tag_13)\n    /* \"@openzeppelin/contracts/access/Ownable.sol\":2912:3099  function _transferOwnership(address newOwner) internal virtual {... */\ntag_11:\n    /* \"@openzeppelin/contracts/access/Ownable.sol\":2985:3001  address oldOwner */\n  0x00\n    /* \"@openzeppelin/contracts/access/Ownable.sol\":3004:3010  _owner */\n  0x00\n  0x00\n  swap1\n  sload\n  swap1\n  0x0100\n  exp\n  swap1\n  div\n  0xffffffffffffffffffffffffffffffffffffffff\n  and\n    /* \"@openzeppelin/contracts/access/Ownable.sol\":2985:3010  address oldOwner = _owner */\n  swap1\n  pop\n    /* \"@openzeppelin/contracts/access/Ownable.sol\":3029:3037  newOwner */\n  dup2\n    /* \"@openzeppelin/contracts/access/Ownable.sol\":3020:3026  _owner */\n  0x00\n  0x00\n    /* \"@openzeppelin/contracts/access/Ownable.sol\":3020:3037  _owner = newOwner */\n  0x0100\n  exp\n  dup2\n  sload\n  dup2\n  0xffffffffffffffffffffffffffffffffffffffff\n  mul\n  not\n  and\n  swap1\n  dup4\n  0xffffffffffffffffffffffffffffffffffffffff\n  and\n  mul\n  or\n  swap1\n  sstore\n  pop\n    /* \"@openzeppelin/contracts/access/Ownable.sol\":3083:3091  newOwner */\n  dup2\n    /* \"@openzeppelin/contracts/access/Ownable.sol\":3052:3092  OwnershipTransferred(oldOwner, newOwner) */\n  0xffffffffffffffffffffffffffffffffffffffff\n  and\n    /* \"@openzeppelin/contracts/access/Ownable.sol\":3073:3081  oldOwner */\n  dup2\n    /* \"@openzeppelin/contracts/access/Ownable.sol\":3052:3092  OwnershipTransferred(oldOwner, newOwner) */\n  0xffffffffffffffffffffffffffffffffffffffff\n  and\n  0x8be0079c531659141344cd1fd0a4f28419497f9722a3daafe3b4186f6b6457e0\n  mload(0x40)\n  mload(0x40)\n  dup1\n  swap2\n  sub\n  swap1\n  log3\n    /* \"@openzeppelin/contracts/access/Ownable.sol\":2975:3099  {... */\n  pop\n    /* \"@openzeppelin/contracts/access/Ownable.sol\":2912:3099  function _transferOwnership(address newOwner) internal virtual {... */\n  pop\n  jump\t// out\n    /* \"#utility.yul\":88:205   */\ntag_16:\n    /* \"#utility.yul\":197:198   */\n  0x00\n    /* \"#utility.yul\":194:195   */\n  0x00\n    /* \"#utility.yul\":187:199   */\n  revert\n    /* \"#utility.yul\":334:460   */\ntag_18:\n    /* \"#utility.yul\":371:378   */\n  0x00\n    /* \"#utility.yul\":411:453   */\n  0xffffffffffffffffffffffffffffffffffffffff\n    /* \"#utility.yul\":404:409   */\n  dup3\n    /* \"#utility.yul\":400:454   */\n  and\n    /* \"#utility.yul\":389:454   */\n  swap1\n  pop\n    /* \"#utility.yul\":334:460   */\n  swap2\n  swap1\n  pop\n  jump\t// out\n    /* \"#utility.yul\":466:562   */\ntag_19:\n    /* \"#utility.yul\":503:510   */\n  0x00\n    /* \"#utility.yul\":532:556   */\n  tag_29\n    /* \"#utility.yul\":550:555   */\n  dup3\n    /* \"#utility.yul\":532:556   */\n  tag_18\n  jump\t// in\ntag_29:\n    /* \"#utility.yul\":521:556   */\n  swap1\n  pop\n    /* \"#utility.yul\":466:562   */\n  swap2\n  swap1\n  pop\n  jump\t// out\n    /* \"#utility.yul\":568:690   */\ntag_20:\n    /* \"#utility.yul\":641:665   */\n  tag_31\n    /* \"#utility.yul\":659:664   */\n  dup2\n    /* \"#utility.yul\":641:665   */\n  tag_19\n  jump\t// in\ntag_31:\n    /* \"#utility.yul\":634:639   */\n  dup2\n    /* \"#utility.yul\":631:666   */\n  eq\n    /* \"#utility.yul\":621:684   */\n  tag_32\n  jumpi\n    /* \"#utility.yul\":680:681   */\n  0x00\n    /* \"#utility.yul\":677:678   */\n  0x00\n    /* \"#utility.yul\":670:682   */\n  revert\n    /* \"#utility.yul\":621:684   */\ntag_32:\n    /* \"#utility.yul\":568:690   */\n  pop\n  jump\t// out\n    /* \"#utility.yul\":696:839   */\ntag_21:\n    /* \"#utility.yul\":753:758   */\n  0x00\n    /* \"#utility.yul\":784:790   */\n  dup2\n    /* \"#utility.yul\":778:791   */\n  mload\n    /* \"#utility.yul\":769:791   */\n  swap1\n  pop\n    /* \"#utility.yul\":800:833   */\n  tag_34\n    /* \"#utility.yul\":827:832   */\n  dup2\n    /* \"#utility.yul\":800:833   */\n  tag_20\n  jump\t// in\ntag_34:\n    /* \"#utility.yul\":696:839   */\n  swap3\n  swap2\n  pop\n  pop\n  jump\t// out\n    /* \"#utility.yul\":845:1352   */\ntag_3:\n    /* \"#utility.yul\":924:930   */\n  0x00\n    /* \"#utility.yul\":932:938   */\n  0x00\n    /* \"#utility.yul\":981:983   */\n  0x40\n    /* \"#utility.yul\":969:978   */\n  dup4\n    /* \"#utility.yul\":960:967   */\n  dup6\n    /* \"#utility.yul\":956:979   */\n  sub\n    /* \"#utility.yul\":952:984   */\n  slt\n    /* \"#utility.yul\":949:1068   */\n  iszero\n  tag_36\n  jumpi\n    /* \"#utility.yul\":987:1066   */\n  tag_37\n  tag_16\n  jump\t// in\ntag_37:\n    /* \"#utility.yul\":949:1068   */\ntag_36:\n    /* \"#utility.yul\":1107:1108   */\n  0x00\n    /* \"#utility.yul\":1132:1196   */\n  tag_38\n    /* \"#utility.yul\":1188:1195   */\n  dup6\n    /* \"#utility.yul\":1179:1185   */\n  dup3\n    /* \"#utility.yul\":1168:1177   */\n  dup7\n    /* \"#utility.yul\":1164:1186   */\n  add\n    /* \"#utility.yul\":1132:1196   */\n  tag_21\n  jump\t// in\ntag_38:\n    /* \"#utility.yul\":1122:1196   */\n  swap3\n  pop\n    /* \"#utility.yul\":1078:1206   */\n  pop\n    /* \"#utility.yul\":1245:1247   */\n  0x20\n    /* \"#utility.yul\":1271:1335   */\n  tag_39\n    /* \"#utility.yul\":1327:1334   */\n  dup6\n    /* \"#utility.yul\":1318:1324   */\n  dup3\n    /* \"#utility.yul\":1307:1316   */\n  dup7\n    /* \"#utility.yul\":1303:1325   */\n  add\n    /* \"#utility.yul\":1271:1335   */\n  tag_21\n  jump\t// in\ntag_39:\n    /* \"#utility.yul\":1261:1335   */\n  swap2\n  pop\n    /* \"#utility.yul\":1216:1345   */\n  pop\n    /* \"#utility.yul\":845:1352   */\n  swap3\n  pop\n  swap3\n  swap1\n  pop\n  jump\t// out\n    /* \"#utility.yul\":1358:1476   */\ntag_22:\n    /* \"#utility.yul\":1445:1469   */\n  tag_41\n    /* \"#utility.yul\":1463:1468   */\n  dup2\n    /* \"#utility.yul\":1445:1469   */\n  tag_19\n  jump\t// in\ntag_41:\n    /* \"#utility.yul\":1440:1443   */\n  dup3\n    /* \"#utility.yul\":1433:1470   */\n  mstore\n    /* \"#utility.yul\":1358:1476   */\n  pop\n  pop\n  jump\t// out\n    /* \"#utility.yul\":1482:1704   */\ntag_9:\n    /* \"#utility.yul\":1575:1579   */\n  0x00\n    /* \"#utility.yul\":1613:1615   */\n  0x20\n    /* \"#utility.yul\":1602:1611   */\n  dup3\n    /* \"#utility.yul\":1598:1616   */\n  add\n    /* \"#utility.yul\":1590:1616   */\n  swap1\n  pop\n    /* \"#utility.yul\":1626:1697   */\n  tag_43\n    /* \"#utility.yul\":1694:1695   */\n  0x00\n    /* \"#utility.yul\":1683:1692   */\n  dup4\n    /* \"#utility.yul\":1679:1696   */\n  add\n    /* \"#utility.yul\":1670:1676   */\n  dup5\n    /* \"#utility.yul\":1626:1697   */\n  tag_22\n  jump\t// in\ntag_43:\n    /* \"#utility.yul\":1482:1704   */\n  swap3\n  swap2\n  pop\n  pop\n  jump\t// out\n    /* \"Script/RunningChihuahuaShop.sol\":441:2801  contract ItemShop is Ownable {... */\ntag_13:\n  dataSize(sub_0)\n  dup1\n  dataOffset(sub_0)\n  0x00\n  codecopy\n  0x00\n  return\nstop\n\nsub_0: assembly {\n        /* \"Script/RunningChihuahuaShop.sol\":441:2801  contract ItemShop is Ownable {... */\n      mstore(0x40, 0x80)\n      callvalue\n      dup1\n      iszero\n      tag_1\n      jumpi\n      revert(0x00, 0x00)\n    tag_1:\n      pop\n      jumpi(tag_2, lt(calldatasize, 0x04))\n      shr(0xe0, calldataload(0x00))\n      dup1\n      0x715018a6\n      gt\n      tag_11\n      jumpi\n      dup1\n      0x715018a6\n      eq\n      tag_7\n      jumpi\n      dup1\n      0x8455d8d5\n      eq\n      tag_8\n      jumpi\n      dup1\n      0x8da5cb5b\n      eq\n      tag_9\n      jumpi\n      dup1\n      0xf2fde38b\n      eq\n      tag_10\n      jumpi\n      jump(tag_2)\n    tag_11:\n      dup1\n      0x3237c118\n      eq\n      tag_3\n      jumpi\n      dup1\n      0x36f95670\n      eq\n      tag_4\n      jumpi\n      dup1\n      0x49df728c\n      eq\n      tag_5\n      jumpi\n      dup1\n      0x65d65e86\n      eq\n      tag_6\n      jumpi\n    tag_2:\n      revert(0x00, 0x00)\n        /* \"Script/RunningChihuahuaShop.sol\":1335:2535  function buyItem(uint256 amount, uint256 payAmount, bytes calldata signature) external {... */\n    tag_3:\n      tag_12\n      0x04\n      dup1\n      calldatasize\n      sub\n      dup2\n      add\n      swap1\n      tag_13\n      swap2\n      swap1\n      tag_14\n      jump\t// in\n    tag_13:\n      tag_15\n      jump\t// in\n    tag_12:\n      stop\n        /* \"Script/RunningChihuahuaShop.sol\":996:1106  function setBackendSigner(address _newSigner) external onlyOwner {... */\n    tag_4:\n      tag_16\n      0x04\n      dup1\n      calldatasize\n      sub\n      dup2\n      add\n      swap1\n      tag_17\n      swap2\n      swap1\n      tag_18\n      jump\t// in\n    tag_17:\n      tag_19\n      jump\t// in\n    tag_16:\n      stop\n        /* \"Script/RunningChihuahuaShop.sol\":2632:2798  function withdrawTokens(address to) external onlyOwner {... */\n    tag_5:\n      tag_20\n      0x04\n      dup1\n      calldatasize\n      sub\n      dup2\n      add\n      swap1\n      tag_21\n      swap2\n      swap1\n      tag_18\n      jump\t// in\n    tag_21:\n      tag_22\n      jump\t// in\n    tag_20:\n      stop\n        /* \"Script/RunningChihuahuaShop.sol\":579:607  address public backendSigner */\n    tag_6:\n      tag_23\n      tag_24\n      jump\t// in\n    tag_23:\n      mload(0x40)\n      tag_25\n      swap2\n      swap1\n      tag_26\n      jump\t// in\n    tag_25:\n      mload(0x40)\n      dup1\n      swap2\n      sub\n      swap1\n      return\n        /* \"@openzeppelin/contracts/access/Ownable.sol\":2293:2394  function renounceOwnership() public virtual onlyOwner {... */\n    tag_7:\n      tag_27\n      tag_28\n      jump\t// in\n    tag_27:\n      stop\n        /* \"Script/RunningChihuahuaShop.sol\":550:572  IERC20 public chhToken */\n    tag_8:\n      tag_29\n      tag_30\n      jump\t// in\n    tag_29:\n      mload(0x40)\n      tag_31\n      swap2\n      swap1\n      tag_32\n      jump\t// in\n    tag_31:\n      mload(0x40)\n      dup1\n      swap2\n      sub\n      swap1\n      return\n        /* \"@openzeppelin/contracts/access/Ownable.sol\":1638:1723  function owner() public view virtual returns (address) {... */\n    tag_9:\n      tag_33\n      tag_34\n      jump\t// in\n    tag_33:\n      mload(0x40)\n      tag_35\n      swap2\n      swap1\n      tag_26\n      jump\t// in\n    tag_35:\n      mload(0x40)\n      dup1\n      swap2\n      sub\n      swap1\n      return\n        /* \"@openzeppelin/contracts/access/Ownable.sol\":2543:2758  function transferOwnership(address newOwner) public virtual onlyOwner {... */\n    tag_10:\n      tag_36\n      0x04\n      dup1\n      calldatasize\n      sub\n      dup2\n      add\n      swap1\n      tag_37\n      swap2\n      swap1\n      tag_18\n      jump\t// in\n    tag_37:\n      tag_38\n      jump\t// in\n    tag_36:\n      stop\n        /* \"Script/RunningChihuahuaShop.sol\":1335:2535  function buyItem(uint256 amount, uint256 payAmount, bytes calldata signature) external {... */\n    tag_15:\n        /* \"Script/RunningChihuahuaShop.sol\":1586:1598  bytes32 hash */\n      0x00\n        /* \"Script/RunningChihuahuaShop.sol\":1628:1638  msg.sender */\n      caller\n        /* \"Script/RunningChihuahuaShop.sol\":1640:1646  amount */\n      dup6\n        /* \"Script/RunningChihuahuaShop.sol\":1648:1657  payAmount */\n      dup6\n        /* \"Script/RunningChihuahuaShop.sol\":1611:1658  abi.encodePacked(msg.sender, amount, payAmount) */\n      add(0x20, mload(0x40))\n      tag_40\n      swap4\n      swap3\n      swap2\n      swap1\n      tag_41\n      jump\t// in\n    tag_40:\n      mload(0x40)\n      0x20\n      dup2\n      dup4\n      sub\n      sub\n      dup2\n      mstore\n      swap1\n      0x40\n      mstore\n        /* \"Script/RunningChihuahuaShop.sol\":1601:1659  keccak256(abi.encodePacked(msg.sender, amount, payAmount)) */\n      dup1\n      mload\n      swap1\n      0x20\n      add\n      keccak256\n        /* \"Script/RunningChihuahuaShop.sol\":1586:1659  bytes32 hash = keccak256(abi.encodePacked(msg.sender, amount, payAmount)) */\n      swap1\n      pop\n        /* \"Script/RunningChihuahuaShop.sol\":1740:1768  bytes32 ethSignedMessageHash */\n      0x00\n        /* \"Script/RunningChihuahuaShop.sol\":1771:1800  hash.toEthSignedMessageHash() */\n      tag_42\n        /* \"Script/RunningChihuahuaShop.sol\":1771:1775  hash */\n      dup3\n        /* \"Script/RunningChihuahuaShop.sol\":1771:1798  hash.toEthSignedMessageHash */\n      tag_43\n        /* \"Script/RunningChihuahuaShop.sol\":1771:1800  hash.toEthSignedMessageHash() */\n      jump\t// in\n    tag_42:\n        /* \"Script/RunningChihuahuaShop.sol\":1740:1800  bytes32 ethSignedMessageHash = hash.toEthSignedMessageHash() */\n      swap1\n      pop\n        /* \"Script/RunningChihuahuaShop.sol\":1870:1893  address recoveredSigner */\n      0x00\n        /* \"Script/RunningChihuahuaShop.sol\":1896:1935  ethSignedMessageHash.recover(signature) */\n      tag_44\n        /* \"Script/RunningChihuahuaShop.sol\":1925:1934  signature */\n      dup6\n      dup6\n        /* \"Script/RunningChihuahuaShop.sol\":1896:1935  ethSignedMessageHash.recover(signature) */\n      dup1\n      dup1\n      0x1f\n      add\n      0x20\n      dup1\n      swap2\n      div\n      mul\n      0x20\n      add\n      mload(0x40)\n      swap1\n      dup2\n      add\n      0x40\n      mstore\n      dup1\n      swap4\n      swap3\n      swap2\n      swap1\n      dup2\n      dup2\n      mstore\n      0x20\n      add\n      dup4\n      dup4\n      dup1\n      dup3\n      dup5\n      calldatacopy\n      0x00\n      dup2\n      dup5\n      add\n      mstore\n      not(0x1f)\n      0x1f\n      dup3\n      add\n      and\n      swap1\n      pop\n      dup1\n      dup4\n      add\n      swap3\n      pop\n      pop\n      pop\n      pop\n      pop\n      pop\n      pop\n        /* \"Script/RunningChihuahuaShop.sol\":1896:1916  ethSignedMessageHash */\n      dup4\n        /* \"Script/RunningChihuahuaShop.sol\":1896:1924  ethSignedMessageHash.recover */\n      tag_45\n      swap1\n        /* \"Script/RunningChihuahuaShop.sol\":1896:1935  ethSignedMessageHash.recover(signature) */\n      swap2\n      swap1\n      0xffffffff\n      and\n      jump\t// in\n    tag_44:\n        /* \"Script/RunningChihuahuaShop.sol\":1870:1935  address recoveredSigner = ethSignedMessageHash.recover(signature) */\n      swap1\n      pop\n        /* \"Script/RunningChihuahuaShop.sol\":2035:2048  backendSigner */\n      0x02\n      0x00\n      swap1\n      sload\n      swap1\n      0x0100\n      exp\n      swap1\n      div\n      0xffffffffffffffffffffffffffffffffffffffff\n      and\n        /* \"Script/RunningChihuahuaShop.sol\":2016:2048  recoveredSigner == backendSigner */\n      0xffffffffffffffffffffffffffffffffffffffff\n      and\n        /* \"Script/RunningChihuahuaShop.sol\":2016:2031  recoveredSigner */\n      dup2\n        /* \"Script/RunningChihuahuaShop.sol\":2016:2048  recoveredSigner == backendSigner */\n      0xffffffffffffffffffffffffffffffffffffffff\n      and\n      eq\n        /* \"Script/RunningChihuahuaShop.sol\":2008:2093  require(recoveredSigner == backendSigner, \"Invalid signature: Security check failed\") */\n      tag_46\n      jumpi\n      mload(0x40)\n      0x08c379a000000000000000000000000000000000000000000000000000000000\n      dup2\n      mstore\n      0x04\n      add\n      tag_47\n      swap1\n      tag_48\n      jump\t// in\n    tag_47:\n      mload(0x40)\n      dup1\n      swap2\n      sub\n      swap1\n      revert\n    tag_46:\n        /* \"Script/RunningChihuahuaShop.sol\":2188:2197  payAmount */\n      dup6\n        /* \"Script/RunningChihuahuaShop.sol\":2154:2162  chhToken */\n      0x01\n      0x00\n      swap1\n      sload\n      swap1\n      0x0100\n      exp\n      swap1\n      div\n      0xffffffffffffffffffffffffffffffffffffffff\n      and\n        /* \"Script/RunningChihuahuaShop.sol\":2154:2172  chhToken.balanceOf */\n      0xffffffffffffffffffffffffffffffffffffffff\n      and\n      0x70a08231\n        /* \"Script/RunningChihuahuaShop.sol\":2173:2183  msg.sender */\n      caller\n        /* \"Script/RunningChihuahuaShop.sol\":2154:2184  chhToken.balanceOf(msg.sender) */\n      mload(0x40)\n      dup3\n      0xffffffff\n      and\n      0xe0\n      shl\n      dup2\n      mstore\n      0x04\n      add\n      tag_49\n      swap2\n      swap1\n      tag_26\n      jump\t// in\n    tag_49:\n      0x20\n      mload(0x40)\n      dup1\n      dup4\n      sub\n      dup2\n      dup7\n      gas\n      staticcall\n      iszero\n      dup1\n      iszero\n      tag_51\n      jumpi\n      returndatacopy(0x00, 0x00, returndatasize)\n      revert(0x00, returndatasize)\n    tag_51:\n      pop\n      pop\n      pop\n      pop\n      mload(0x40)\n      returndatasize\n      not(0x1f)\n      0x1f\n      dup3\n      add\n      and\n      dup3\n      add\n      dup1\n      0x40\n      mstore\n      pop\n      dup2\n      add\n      swap1\n      tag_52\n      swap2\n      swap1\n      tag_53\n      jump\t// in\n    tag_52:\n        /* \"Script/RunningChihuahuaShop.sol\":2154:2197  chhToken.balanceOf(msg.sender) >= payAmount */\n      lt\n      iszero\n        /* \"Script/RunningChihuahuaShop.sol\":2146:2226  require(chhToken.balanceOf(msg.sender) >= payAmount, \"Insufficient CHH balance\") */\n      tag_54\n      jumpi\n      mload(0x40)\n      0x08c379a000000000000000000000000000000000000000000000000000000000\n      dup2\n      mstore\n      0x04\n      add\n      tag_55\n      swap1\n      tag_56\n      jump\t// in\n    tag_55:\n      mload(0x40)\n      dup1\n      swap2\n      sub\n      swap1\n      revert\n    tag_54:\n        /* \"Script/RunningChihuahuaShop.sol\":2294:2303  payAmount */\n      dup6\n        /* \"Script/RunningChihuahuaShop.sol\":2245:2253  chhToken */\n      0x01\n      0x00\n      swap1\n      sload\n      swap1\n      0x0100\n      exp\n      swap1\n      div\n      0xffffffffffffffffffffffffffffffffffffffff\n      and\n        /* \"Script/RunningChihuahuaShop.sol\":2245:2263  chhToken.allowance */\n      0xffffffffffffffffffffffffffffffffffffffff\n      and\n      0xdd62ed3e\n        /* \"Script/RunningChihuahuaShop.sol\":2264:2274  msg.sender */\n      caller\n        /* \"Script/RunningChihuahuaShop.sol\":2284:2288  this */\n      address\n        /* \"Script/RunningChihuahuaShop.sol\":2245:2290  chhToken.allowance(msg.sender, address(this)) */\n      mload(0x40)\n      dup4\n      0xffffffff\n      and\n      0xe0\n      shl\n      dup2\n      mstore\n      0x04\n      add\n      tag_57\n      swap3\n      swap2\n      swap1\n      tag_58\n      jump\t// in\n    tag_57:\n      0x20\n      mload(0x40)\n      dup1\n      dup4\n      sub\n      dup2\n      dup7\n      gas\n      staticcall\n      iszero\n      dup1\n      iszero\n      tag_60\n      jumpi\n      returndatacopy(0x00, 0x00, returndatasize)\n      revert(0x00, returndatasize)\n    tag_60:\n      pop\n      pop\n      pop\n      pop\n      mload(0x40)\n      returndatasize\n      not(0x1f)\n      0x1f\n      dup3\n      add\n      and\n      dup3\n      add\n      dup1\n      0x40\n      mstore\n      pop\n      dup2\n      add\n      swap1\n      tag_61\n      swap2\n      swap1\n      tag_53\n      jump\t// in\n    tag_61:\n        /* \"Script/RunningChihuahuaShop.sol\":2245:2303  chhToken.allowance(msg.sender, address(this)) >= payAmount */\n      lt\n      iszero\n        /* \"Script/RunningChihuahuaShop.sol\":2237:2326  require(chhToken.allowance(msg.sender, address(this)) >= payAmount, \"Token not approved\") */\n      tag_62\n      jumpi\n      mload(0x40)\n      0x08c379a000000000000000000000000000000000000000000000000000000000\n      dup2\n      mstore\n      0x04\n      add\n      tag_63\n      swap1\n      tag_64\n      jump\t// in\n    tag_63:\n      mload(0x40)\n      dup1\n      swap2\n      sub\n      swap1\n      revert\n    tag_62:\n        /* \"Script/RunningChihuahuaShop.sol\":2339:2351  bool success */\n      0x00\n        /* \"Script/RunningChihuahuaShop.sol\":2354:2362  chhToken */\n      0x01\n      0x00\n      swap1\n      sload\n      swap1\n      0x0100\n      exp\n      swap1\n      div\n      0xffffffffffffffffffffffffffffffffffffffff\n      and\n        /* \"Script/RunningChihuahuaShop.sol\":2354:2375  chhToken.transferFrom */\n      0xffffffffffffffffffffffffffffffffffffffff\n      and\n      0x23b872dd\n        /* \"Script/RunningChihuahuaShop.sol\":2376:2386  msg.sender */\n      caller\n        /* \"Script/RunningChihuahuaShop.sol\":2396:2400  this */\n      address\n        /* \"Script/RunningChihuahuaShop.sol\":2403:2412  payAmount */\n      dup11\n        /* \"Script/RunningChihuahuaShop.sol\":2354:2413  chhToken.transferFrom(msg.sender, address(this), payAmount) */\n      mload(0x40)\n      dup5\n      0xffffffff\n      and\n      0xe0\n      shl\n      dup2\n      mstore\n      0x04\n      add\n      tag_65\n      swap4\n      swap3\n      swap2\n      swap1\n      tag_66\n      jump\t// in\n    tag_65:\n      0x20\n      mload(0x40)\n      dup1\n      dup4\n      sub\n      dup2\n      0x00\n      dup8\n      gas\n      call\n      iszero\n      dup1\n      iszero\n      tag_68\n      jumpi\n      returndatacopy(0x00, 0x00, returndatasize)\n      revert(0x00, returndatasize)\n    tag_68:\n      pop\n      pop\n      pop\n      pop\n      mload(0x40)\n      returndatasize\n      not(0x1f)\n      0x1f\n      dup3\n      add\n      and\n      dup3\n      add\n      dup1\n      0x40\n      mstore\n      pop\n      dup2\n      add\n      swap1\n      tag_69\n      swap2\n      swap1\n      tag_70\n      jump\t// in\n    tag_69:\n        /* \"Script/RunningChihuahuaShop.sol\":2339:2413  bool success = chhToken.transferFrom(msg.sender, address(this), payAmount) */\n      swap1\n      pop\n        /* \"Script/RunningChihuahuaShop.sol\":2432:2439  success */\n      dup1\n        /* \"Script/RunningChihuahuaShop.sol\":2424:2465  require(success, \"Token transfer failed\") */\n      tag_71\n      jumpi\n      mload(0x40)\n      0x08c379a000000000000000000000000000000000000000000000000000000000\n      dup2\n      mstore\n      0x04\n      add\n      tag_72\n      swap1\n      tag_73\n      jump\t// in\n    tag_72:\n      mload(0x40)\n      dup1\n      swap2\n      sub\n      swap1\n      revert\n    tag_71:\n        /* \"Script/RunningChihuahuaShop.sol\":2497:2507  msg.sender */\n      caller\n        /* \"Script/RunningChihuahuaShop.sol\":2483:2527  ItemPurchased(msg.sender, amount, payAmount) */\n      0xffffffffffffffffffffffffffffffffffffffff\n      and\n      0x1452773cf753d0d7c71ed9990f7c7e2bdde4a2d08d187b3647953877e400488d\n        /* \"Script/RunningChihuahuaShop.sol\":2509:2515  amount */\n      dup10\n        /* \"Script/RunningChihuahuaShop.sol\":2517:2526  payAmount */\n      dup10\n        /* \"Script/RunningChihuahuaShop.sol\":2483:2527  ItemPurchased(msg.sender, amount, payAmount) */\n      mload(0x40)\n      tag_74\n      swap3\n      swap2\n      swap1\n      tag_75\n      jump\t// in\n    tag_74:\n      mload(0x40)\n      dup1\n      swap2\n      sub\n      swap1\n      log2\n        /* \"Script/RunningChihuahuaShop.sol\":1422:2535  {... */\n      pop\n      pop\n      pop\n      pop\n        /* \"Script/RunningChihuahuaShop.sol\":1335:2535  function buyItem(uint256 amount, uint256 payAmount, bytes calldata signature) external {... */\n      pop\n      pop\n      pop\n      pop\n      jump\t// out\n        /* \"Script/RunningChihuahuaShop.sol\":996:1106  function setBackendSigner(address _newSigner) external onlyOwner {... */\n    tag_19:\n        /* \"@openzeppelin/contracts/access/Ownable.sol\":1531:1544  _checkOwner() */\n      tag_77\n        /* \"@openzeppelin/contracts/access/Ownable.sol\":1531:1542  _checkOwner */\n      tag_78\n        /* \"@openzeppelin/contracts/access/Ownable.sol\":1531:1544  _checkOwner() */\n      jump\t// in\n    tag_77:\n        /* \"Script/RunningChihuahuaShop.sol\":1088:1098  _newSigner */\n      dup1\n        /* \"Script/RunningChihuahuaShop.sol\":1072:1085  backendSigner */\n      0x02\n      0x00\n        /* \"Script/RunningChihuahuaShop.sol\":1072:1098  backendSigner = _newSigner */\n      0x0100\n      exp\n      dup2\n      sload\n      dup2\n      0xffffffffffffffffffffffffffffffffffffffff\n      mul\n      not\n      and\n      swap1\n      dup4\n      0xffffffffffffffffffffffffffffffffffffffff\n      and\n      mul\n      or\n      swap1\n      sstore\n      pop\n        /* \"Script/RunningChihuahuaShop.sol\":996:1106  function setBackendSigner(address _newSigner) external onlyOwner {... */\n      pop\n      jump\t// out\n        /* \"Script/RunningChihuahuaShop.sol\":2632:2798  function withdrawTokens(address to) external onlyOwner {... */\n    tag_22:\n        /* \"@openzeppelin/contracts/access/Ownable.sol\":1531:1544  _checkOwner() */\n      tag_81\n        /* \"@openzeppelin/contracts/access/Ownable.sol\":1531:1542  _checkOwner */\n      tag_78\n        /* \"@openzeppelin/contracts/access/Ownable.sol\":1531:1544  _checkOwner() */\n      jump\t// in\n    tag_81:\n        /* \"Script/RunningChihuahuaShop.sol\":2698:2713  uint256 balance */\n      0x00\n        /* \"Script/RunningChihuahuaShop.sol\":2716:2724  chhToken */\n      0x01\n      0x00\n      swap1\n      sload\n      swap1\n      0x0100\n      exp\n      swap1\n      div\n      0xffffffffffffffffffffffffffffffffffffffff\n      and\n        /* \"Script/RunningChihuahuaShop.sol\":2716:2734  chhToken.balanceOf */\n      0xffffffffffffffffffffffffffffffffffffffff\n      and\n      0x70a08231\n        /* \"Script/RunningChihuahuaShop.sol\":2743:2747  this */\n      address\n        /* \"Script/RunningChihuahuaShop.sol\":2716:2749  chhToken.balanceOf(address(this)) */\n      mload(0x40)\n      dup3\n      0xffffffff\n      and\n      0xe0\n      shl\n      dup2\n      mstore\n      0x04\n      add\n      tag_83\n      swap2\n      swap1\n      tag_26\n      jump\t// in\n    tag_83:\n      0x20\n      mload(0x40)\n      dup1\n      dup4\n      sub\n      dup2\n      dup7\n      gas\n      staticcall\n      iszero\n      dup1\n      iszero\n      tag_85\n      jumpi\n      returndatacopy(0x00, 0x00, returndatasize)\n      revert(0x00, returndatasize)\n    tag_85:\n      pop\n      pop\n      pop\n      pop\n      mload(0x40)\n      returndatasize\n      not(0x1f)\n      0x1f\n      dup3\n      add\n      and\n      dup3\n      add\n      dup1\n      0x40\n      mstore\n      pop\n      dup2\n      add\n      swap1\n      tag_86\n      swap2\n      swap1\n      tag_53\n      jump\t// in\n    tag_86:\n        /* \"Script/RunningChihuahuaShop.sol\":2698:2749  uint256 balance = chhToken.balanceOf(address(this)) */\n      swap1\n      pop\n        /* \"Script/RunningChihuahuaShop.sol\":2760:2768  chhToken */\n      0x01\n      0x00\n      swap1\n      sload\n      swap1\n      0x0100\n      exp\n      swap1\n      div\n      0xffffffffffffffffffffffffffffffffffffffff\n      and\n        /* \"Script/RunningChihuahuaShop.sol\":2760:2777  chhToken.transfer */\n      0xffffffffffffffffffffffffffffffffffffffff\n      and\n      0xa9059cbb\n        /* \"Script/RunningChihuahuaShop.sol\":2778:2780  to */\n      dup4\n        /* \"Script/RunningChihuahuaShop.sol\":2782:2789  balance */\n      dup4\n        /* \"Script/RunningChihuahuaShop.sol\":2760:2790  chhToken.transfer(to, balance) */\n      mload(0x40)\n      dup4\n      0xffffffff\n      and\n      0xe0\n      shl\n      dup2\n      mstore\n      0x04\n      add\n      tag_87\n      swap3\n      swap2\n      swap1\n      tag_88\n      jump\t// in\n    tag_87:\n      0x20\n      mload(0x40)\n      dup1\n      dup4\n      sub\n      dup2\n      0x00\n      dup8\n      gas\n      call\n      iszero\n      dup1\n      iszero\n      tag_90\n      jumpi\n      returndatacopy(0x00, 0x00, returndatasize)\n      revert(0x00, returndatasize)\n    tag_90:\n      pop\n      pop\n      pop\n      pop\n      mload(0x40)\n      returndatasize\n      not(0x1f)\n      0x1f\n      dup3\n      add\n      and\n      dup3\n      add\n      dup1\n      0x40\n      mstore\n      pop\n      dup2\n      add\n      swap1\n      tag_91\n      swap2\n      swap1\n      tag_70\n      jump\t// in\n    tag_91:\n      pop\n        /* \"Script/RunningChihuahuaShop.sol\":2687:2798  {... */\n      pop\n        /* \"Script/RunningChihuahuaShop.sol\":2632:2798  function withdrawTokens(address to) external onlyOwner {... */\n      pop\n      jump\t// out\n        /* \"Script/RunningChihuahuaShop.sol\":579:607  address public backendSigner */\n    tag_24:\n      0x02\n      0x00\n      swap1\n      sload\n      swap1\n      0x0100\n      exp\n      swap1\n      div\n      0xffffffffffffffffffffffffffffffffffffffff\n      and\n      dup2\n      jump\t// out\n        /* \"@openzeppelin/contracts/access/Ownable.sol\":2293:2394  function renounceOwnership() public virtual onlyOwner {... */\n    tag_28:\n        /* \"@openzeppelin/contracts/access/Ownable.sol\":1531:1544  _checkOwner() */\n      tag_93\n        /* \"@openzeppelin/contracts/access/Ownable.sol\":1531:1542  _checkOwner */\n      tag_78\n        /* \"@openzeppelin/contracts/access/Ownable.sol\":1531:1544  _checkOwner() */\n      jump\t// in\n    tag_93:\n        /* \"@openzeppelin/contracts/access/Ownable.sol\":2357:2387  _transferOwnership(address(0)) */\n      tag_95\n        /* \"@openzeppelin/contracts/access/Ownable.sol\":2384:2385  0 */\n      0x00\n        /* \"@openzeppelin/contracts/access/Ownable.sol\":2357:2375  _transferOwnership */\n      tag_96\n        /* \"@openzeppelin/contracts/access/Ownable.sol\":2357:2387  _transferOwnership(address(0)) */\n      jump\t// in\n    tag_95:\n        /* \"@openzeppelin/contracts/access/Ownable.sol\":2293:2394  function renounceOwnership() public virtual onlyOwner {... */\n      jump\t// out\n        /* \"Script/RunningChihuahuaShop.sol\":550:572  IERC20 public chhToken */\n    tag_30:\n      0x01\n      0x00\n      swap1\n      sload\n      swap1\n      0x0100\n      exp\n      swap1\n      div\n      0xffffffffffffffffffffffffffffffffffffffff\n      and\n      dup2\n      jump\t// out\n        /* \"@openzeppelin/contracts/access/Ownable.sol\":1638:1723  function owner() public view virtual returns (address) {... */\n    tag_34:\n        /* \"@openzeppelin/contracts/access/Ownable.sol\":1684:1691  address */\n      0x00\n        /* \"@openzeppelin/contracts/access/Ownable.sol\":1710:1716  _owner */\n      0x00\n      0x00\n      swap1\n      sload\n      swap1\n      0x0100\n      exp\n      swap1\n      div\n      0xffffffffffffffffffffffffffffffffffffffff\n      and\n        /* \"@openzeppelin/contracts/access/Ownable.sol\":1703:1716  return _owner */\n      swap1\n      pop\n        /* \"@openzeppelin/contracts/access/Ownable.sol\":1638:1723  function owner() public view virtual returns (address) {... */\n      swap1\n      jump\t// out\n        /* \"@openzeppelin/contracts/access/Ownable.sol\":2543:2758  function transferOwnership(address newOwner) public virtual onlyOwner {... */\n    tag_38:\n        /* \"@openzeppelin/contracts/access/Ownable.sol\":1531:1544  _checkOwner() */\n      tag_99\n        /* \"@openzeppelin/contracts/access/Ownable.sol\":1531:1542  _checkOwner */\n      tag_78\n        /* \"@openzeppelin/contracts/access/Ownable.sol\":1531:1544  _checkOwner() */\n      jump\t// in\n    tag_99:\n        /* \"@openzeppelin/contracts/access/Ownable.sol\":2647:2648  0 */\n      0x00\n        /* \"@openzeppelin/contracts/access/Ownable.sol\":2627:2649  newOwner == address(0) */\n      0xffffffffffffffffffffffffffffffffffffffff\n      and\n        /* \"@openzeppelin/contracts/access/Ownable.sol\":2627:2635  newOwner */\n      dup2\n        /* \"@openzeppelin/contracts/access/Ownable.sol\":2627:2649  newOwner == address(0) */\n      0xffffffffffffffffffffffffffffffffffffffff\n      and\n      sub\n        /* \"@openzeppelin/contracts/access/Ownable.sol\":2623:2714  if (newOwner == address(0)) {... */\n      tag_101\n      jumpi\n        /* \"@openzeppelin/contracts/access/Ownable.sol\":2700:2701  0 */\n      0x00\n        /* \"@openzeppelin/contracts/access/Ownable.sol\":2672:2703  OwnableInvalidOwner(address(0)) */\n      mload(0x40)\n      0x1e4fbdf700000000000000000000000000000000000000000000000000000000\n      dup2\n      mstore\n      0x04\n      add\n      tag_102\n      swap2\n      swap1\n      tag_26\n      jump\t// in\n    tag_102:\n      mload(0x40)\n      dup1\n      swap2\n      sub\n      swap1\n      revert\n        /* \"@openzeppelin/contracts/access/Ownable.sol\":2623:2714  if (newOwner == address(0)) {... */\n    tag_101:\n        /* \"@openzeppelin/contracts/access/Ownable.sol\":2723:2751  _transferOwnership(newOwner) */\n      tag_103\n        /* \"@openzeppelin/contracts/access/Ownable.sol\":2742:2750  newOwner */\n      dup2\n        /* \"@openzeppelin/contracts/access/Ownable.sol\":2723:2741  _transferOwnership */\n      tag_96\n        /* \"@openzeppelin/contracts/access/Ownable.sol\":2723:2751  _transferOwnership(newOwner) */\n      jump\t// in\n    tag_103:\n        /* \"@openzeppelin/contracts/access/Ownable.sol\":2543:2758  function transferOwnership(address newOwner) public virtual onlyOwner {... */\n      pop\n      jump\t// out\n        /* \"@openzeppelin/contracts/utils/cryptography/MessageHashUtils.sol\":1247:1680  function toEthSignedMessageHash(bytes32 messageHash) internal pure returns (bytes32 digest) {... */\n    tag_43:\n        /* \"@openzeppelin/contracts/utils/cryptography/MessageHashUtils.sol\":1323:1337  bytes32 digest */\n      0x00\n        /* \"@openzeppelin/contracts/utils/cryptography/MessageHashUtils.sol\":1401:1435  \"\\x19Ethereum Signed Message:\\n32\" */\n      0x19457468657265756d205369676e6564204d6573736167653a0a333200000000\n        /* \"@openzeppelin/contracts/utils/cryptography/MessageHashUtils.sol\":1395:1399  0x00 */\n      0x00\n        /* \"@openzeppelin/contracts/utils/cryptography/MessageHashUtils.sol\":1388:1436  mstore(0x00, \"\\x19Ethereum Signed Message:\\n32\") */\n      mstore\n        /* \"@openzeppelin/contracts/utils/cryptography/MessageHashUtils.sol\":1503:1514  messageHash */\n      dup2\n        /* \"@openzeppelin/contracts/utils/cryptography/MessageHashUtils.sol\":1497:1501  0x1c */\n      0x1c\n        /* \"@openzeppelin/contracts/utils/cryptography/MessageHashUtils.sol\":1490:1515  mstore(0x1c, messageHash) */\n      mstore\n        /* \"@openzeppelin/contracts/utils/cryptography/MessageHashUtils.sol\":1595:1599  0x3c */\n      0x3c\n        /* \"@openzeppelin/contracts/utils/cryptography/MessageHashUtils.sol\":1589:1593  0x00 */\n      0x00\n        /* \"@openzeppelin/contracts/utils/cryptography/MessageHashUtils.sol\":1579:1600  keccak256(0x00, 0x3c) */\n      keccak256\n        /* \"@openzeppelin/contracts/utils/cryptography/MessageHashUtils.sol\":1569:1600  digest := keccak256(0x00, 0x3c) */\n      swap1\n      pop\n        /* \"@openzeppelin/contracts/utils/cryptography/MessageHashUtils.sol\":1247:1680  function toEthSignedMessageHash(bytes32 messageHash) internal pure returns (bytes32 digest) {... */\n      swap2\n      swap1\n      pop\n      jump\t// out\n        /* \"@openzeppelin/contracts/utils/cryptography/ECDSA.sol\":3714:3969  function recover(bytes32 hash, bytes memory signature) internal pure returns (address) {... */\n    tag_45:\n        /* \"@openzeppelin/contracts/utils/cryptography/ECDSA.sol\":3792:3799  address */\n      0x00\n        /* \"@openzeppelin/contracts/utils/cryptography/ECDSA.sol\":3812:3829  address recovered */\n      0x00\n        /* \"@openzeppelin/contracts/utils/cryptography/ECDSA.sol\":3831:3849  RecoverError error */\n      0x00\n        /* \"@openzeppelin/contracts/utils/cryptography/ECDSA.sol\":3851:3867  bytes32 errorArg */\n      0x00\n        /* \"@openzeppelin/contracts/utils/cryptography/ECDSA.sol\":3871:3898  tryRecover(hash, signature) */\n      tag_106\n        /* \"@openzeppelin/contracts/utils/cryptography/ECDSA.sol\":3882:3886  hash */\n      dup7\n        /* \"@openzeppelin/contracts/utils/cryptography/ECDSA.sol\":3888:3897  signature */\n      dup7\n        /* \"@openzeppelin/contracts/utils/cryptography/ECDSA.sol\":3871:3881  tryRecover */\n      tag_107\n        /* \"@openzeppelin/contracts/utils/cryptography/ECDSA.sol\":3871:3898  tryRecover(hash, signature) */\n      jump\t// in\n    tag_106:\n        /* \"@openzeppelin/contracts/utils/cryptography/ECDSA.sol\":3811:3898  (address recovered, RecoverError error, bytes32 errorArg) = tryRecover(hash, signature) */\n      swap3\n      pop\n      swap3\n      pop\n      swap3\n      pop\n        /* \"@openzeppelin/contracts/utils/cryptography/ECDSA.sol\":3908:3936  _throwError(error, errorArg) */\n      tag_108\n        /* \"@openzeppelin/contracts/utils/cryptography/ECDSA.sol\":3920:3925  error */\n      dup3\n        /* \"@openzeppelin/contracts/utils/cryptography/ECDSA.sol\":3927:3935  errorArg */\n      dup3\n        /* \"@openzeppelin/contracts/utils/cryptography/ECDSA.sol\":3908:3919  _throwError */\n      tag_109\n        /* \"@openzeppelin/contracts/utils/cryptography/ECDSA.sol\":3908:3936  _throwError(error, errorArg) */\n      jump\t// in\n    tag_108:\n        /* \"@openzeppelin/contracts/utils/cryptography/ECDSA.sol\":3953:3962  recovered */\n      dup3\n        /* \"@openzeppelin/contracts/utils/cryptography/ECDSA.sol\":3946:3962  return recovered */\n      swap4\n      pop\n      pop\n      pop\n      pop\n        /* \"@openzeppelin/contracts/utils/cryptography/ECDSA.sol\":3714:3969  function recover(bytes32 hash, bytes memory signature) internal pure returns (address) {... */\n      swap3\n      swap2\n      pop\n      pop\n      jump\t// out\n        /* \"@openzeppelin/contracts/access/Ownable.sol\":1796:1958  function _checkOwner() internal view virtual {... */\n    tag_78:\n        /* \"@openzeppelin/contracts/access/Ownable.sol\":1866:1878  _msgSender() */\n      tag_111\n        /* \"@openzeppelin/contracts/access/Ownable.sol\":1866:1876  _msgSender */\n      tag_112\n        /* \"@openzeppelin/contracts/access/Ownable.sol\":1866:1878  _msgSender() */\n      jump\t// in\n    tag_111:\n        /* \"@openzeppelin/contracts/access/Ownable.sol\":1855:1878  owner() != _msgSender() */\n      0xffffffffffffffffffffffffffffffffffffffff\n      and\n        /* \"@openzeppelin/contracts/access/Ownable.sol\":1855:1862  owner() */\n      tag_113\n        /* \"@openzeppelin/contracts/access/Ownable.sol\":1855:1860  owner */\n      tag_34\n        /* \"@openzeppelin/contracts/access/Ownable.sol\":1855:1862  owner() */\n      jump\t// in\n    tag_113:\n        /* \"@openzeppelin/contracts/access/Ownable.sol\":1855:1878  owner() != _msgSender() */\n      0xffffffffffffffffffffffffffffffffffffffff\n      and\n      eq\n        /* \"@openzeppelin/contracts/access/Ownable.sol\":1851:1952  if (owner() != _msgSender()) {... */\n      tag_114\n      jumpi\n        /* \"@openzeppelin/contracts/access/Ownable.sol\":1928:1940  _msgSender() */\n      tag_115\n        /* \"@openzeppelin/contracts/access/Ownable.sol\":1928:1938  _msgSender */\n      tag_112\n        /* \"@openzeppelin/contracts/access/Ownable.sol\":1928:1940  _msgSender() */\n      jump\t// in\n    tag_115:\n        /* \"@openzeppelin/contracts/access/Ownable.sol\":1901:1941  OwnableUnauthorizedAccount(_msgSender()) */\n      mload(0x40)\n      0x118cdaa700000000000000000000000000000000000000000000000000000000\n      dup2\n      mstore\n      0x04\n      add\n      tag_116\n      swap2\n      swap1\n      tag_26\n      jump\t// in\n    tag_116:\n      mload(0x40)\n      dup1\n      swap2\n      sub\n      swap1\n      revert\n        /* \"@openzeppelin/contracts/access/Ownable.sol\":1851:1952  if (owner() != _msgSender()) {... */\n    tag_114:\n        /* \"@openzeppelin/contracts/access/Ownable.sol\":1796:1958  function _checkOwner() internal view virtual {... */\n      jump\t// out\n        /* \"@openzeppelin/contracts/access/Ownable.sol\":2912:3099  function _transferOwnership(address newOwner) internal virtual {... */\n    tag_96:\n        /* \"@openzeppelin/contracts/access/Ownable.sol\":2985:3001  address oldOwner */\n      0x00\n        /* \"@openzeppelin/contracts/access/Ownable.sol\":3004:3010  _owner */\n      0x00\n      0x00\n      swap1\n      sload\n      swap1\n      0x0100\n      exp\n      swap1\n      div\n      0xffffffffffffffffffffffffffffffffffffffff\n      and\n        /* \"@openzeppelin/contracts/access/Ownable.sol\":2985:3010  address oldOwner = _owner */\n      swap1\n      pop\n        /* \"@openzeppelin/contracts/access/Ownable.sol\":3029:3037  newOwner */\n      dup2\n        /* \"@openzeppelin/contracts/access/Ownable.sol\":3020:3026  _owner */\n      0x00\n      0x00\n        /* \"@openzeppelin/contracts/access/Ownable.sol\":3020:3037  _owner = newOwner */\n      0x0100\n      exp\n      dup2\n      sload\n      dup2\n      0xffffffffffffffffffffffffffffffffffffffff\n      mul\n      not\n      and\n      swap1\n      dup4\n      0xffffffffffffffffffffffffffffffffffffffff\n      and\n      mul\n      or\n      swap1\n      sstore\n      pop\n        /* \"@openzeppelin/contracts/access/Ownable.sol\":3083:3091  newOwner */\n      dup2\n        /* \"@openzeppelin/contracts/access/Ownable.sol\":3052:3092  OwnershipTransferred(oldOwner, newOwner) */\n      0xffffffffffffffffffffffffffffffffffffffff\n      and\n        /* \"@openzeppelin/contracts/access/Ownable.sol\":3073:3081  oldOwner */\n      dup2\n        /* \"@openzeppelin/contracts/access/Ownable.sol\":3052:3092  OwnershipTransferred(oldOwner, newOwner) */\n      0xffffffffffffffffffffffffffffffffffffffff\n      and\n      0x8be0079c531659141344cd1fd0a4f28419497f9722a3daafe3b4186f6b6457e0\n      mload(0x40)\n      mload(0x40)\n      dup1\n      swap2\n      sub\n      swap1\n      log3\n        /* \"@openzeppelin/contracts/access/Ownable.sol\":2975:3099  {... */\n      pop\n        /* \"@openzeppelin/contracts/access/Ownable.sol\":2912:3099  function _transferOwnership(address newOwner) internal virtual {... */\n      pop\n      jump\t// out\n        /* \"@openzeppelin/contracts/utils/cryptography/ECDSA.sol\":2129:2907  function tryRecover(... */\n    tag_107:\n        /* \"@openzeppelin/contracts/utils/cryptography/ECDSA.sol\":2232:2249  address recovered */\n      0x00\n        /* \"@openzeppelin/contracts/utils/cryptography/ECDSA.sol\":2251:2267  RecoverError err */\n      0x00\n        /* \"@openzeppelin/contracts/utils/cryptography/ECDSA.sol\":2269:2283  bytes32 errArg */\n      0x00\n        /* \"@openzeppelin/contracts/utils/cryptography/ECDSA.sol\":2319:2321  65 */\n      0x41\n        /* \"@openzeppelin/contracts/utils/cryptography/ECDSA.sol\":2299:2308  signature */\n      dup5\n        /* \"@openzeppelin/contracts/utils/cryptography/ECDSA.sol\":2299:2315  signature.length */\n      mload\n        /* \"@openzeppelin/contracts/utils/cryptography/ECDSA.sol\":2299:2321  signature.length == 65 */\n      sub\n        /* \"@openzeppelin/contracts/utils/cryptography/ECDSA.sol\":2295:2901  if (signature.length == 65) {... */\n      tag_119\n      jumpi\n        /* \"@openzeppelin/contracts/utils/cryptography/ECDSA.sol\":2337:2346  bytes32 r */\n      0x00\n        /* \"@openzeppelin/contracts/utils/cryptography/ECDSA.sol\":2360:2369  bytes32 s */\n      0x00\n        /* \"@openzeppelin/contracts/utils/cryptography/ECDSA.sol\":2383:2390  uint8 v */\n      0x00\n        /* \"@openzeppelin/contracts/utils/cryptography/ECDSA.sol\":2604:2608  0x20 */\n      0x20\n        /* \"@openzeppelin/contracts/utils/cryptography/ECDSA.sol\":2593:2602  signature */\n      dup8\n        /* \"@openzeppelin/contracts/utils/cryptography/ECDSA.sol\":2589:2609  add(signature, 0x20) */\n      add\n        /* \"@openzeppelin/contracts/utils/cryptography/ECDSA.sol\":2583:2610  mload(add(signature, 0x20)) */\n      mload\n        /* \"@openzeppelin/contracts/utils/cryptography/ECDSA.sol\":2578:2610  r := mload(add(signature, 0x20)) */\n      swap3\n      pop\n        /* \"@openzeppelin/contracts/utils/cryptography/ECDSA.sol\":2653:2657  0x40 */\n      0x40\n        /* \"@openzeppelin/contracts/utils/cryptography/ECDSA.sol\":2642:2651  signature */\n      dup8\n        /* \"@openzeppelin/contracts/utils/cryptography/ECDSA.sol\":2638:2658  add(signature, 0x40) */\n      add\n        /* \"@openzeppelin/contracts/utils/cryptography/ECDSA.sol\":2632:2659  mload(add(signature, 0x40)) */\n      mload\n        /* \"@openzeppelin/contracts/utils/cryptography/ECDSA.sol\":2627:2659  s := mload(add(signature, 0x40)) */\n      swap2\n      pop\n        /* \"@openzeppelin/contracts/utils/cryptography/ECDSA.sol\":2710:2714  0x60 */\n      0x60\n        /* \"@openzeppelin/contracts/utils/cryptography/ECDSA.sol\":2699:2708  signature */\n      dup8\n        /* \"@openzeppelin/contracts/utils/cryptography/ECDSA.sol\":2695:2715  add(signature, 0x60) */\n      add\n        /* \"@openzeppelin/contracts/utils/cryptography/ECDSA.sol\":2689:2716  mload(add(signature, 0x60)) */\n      mload\n        /* \"@openzeppelin/contracts/utils/cryptography/ECDSA.sol\":2686:2687  0 */\n      0x00\n        /* \"@openzeppelin/contracts/utils/cryptography/ECDSA.sol\":2681:2717  byte(0, mload(add(signature, 0x60))) */\n      byte\n        /* \"@openzeppelin/contracts/utils/cryptography/ECDSA.sol\":2676:2717  v := byte(0, mload(add(signature, 0x60))) */\n      swap1\n      pop\n        /* \"@openzeppelin/contracts/utils/cryptography/ECDSA.sol\":2751:2776  tryRecover(hash, v, r, s) */\n      tag_120\n        /* \"@openzeppelin/contracts/utils/cryptography/ECDSA.sol\":2762:2766  hash */\n      dup9\n        /* \"@openzeppelin/contracts/utils/cryptography/ECDSA.sol\":2768:2769  v */\n      dup3\n        /* \"@openzeppelin/contracts/utils/cryptography/ECDSA.sol\":2771:2772  r */\n      dup6\n        /* \"@openzeppelin/contracts/utils/cryptography/ECDSA.sol\":2774:2775  s */\n      dup6\n        /* \"@openzeppelin/contracts/utils/cryptography/ECDSA.sol\":2751:2761  tryRecover */\n      tag_121\n        /* \"@openzeppelin/contracts/utils/cryptography/ECDSA.sol\":2751:2776  tryRecover(hash, v, r, s) */\n      jump\t// in\n    tag_120:\n        /* \"@openzeppelin/contracts/utils/cryptography/ECDSA.sol\":2744:2776  return tryRecover(hash, v, r, s) */\n      swap6\n      pop\n      swap6\n      pop\n      swap6\n      pop\n      pop\n      pop\n      pop\n      jump(tag_118)\n        /* \"@openzeppelin/contracts/utils/cryptography/ECDSA.sol\":2295:2901  if (signature.length == 65) {... */\n    tag_119:\n        /* \"@openzeppelin/contracts/utils/cryptography/ECDSA.sol\":2823:2824  0 */\n      0x00\n        /* \"@openzeppelin/contracts/utils/cryptography/ECDSA.sol\":2827:2862  RecoverError.InvalidSignatureLength */\n      0x02\n        /* \"@openzeppelin/contracts/utils/cryptography/ECDSA.sol\":2872:2881  signature */\n      dup6\n        /* \"@openzeppelin/contracts/utils/cryptography/ECDSA.sol\":2872:2888  signature.length */\n      mload\n        /* \"@openzeppelin/contracts/utils/cryptography/ECDSA.sol\":2864:2889  bytes32(signature.length) */\n      0x00\n      shl\n        /* \"@openzeppelin/contracts/utils/cryptography/ECDSA.sol\":2807:2890  return (address(0), RecoverError.InvalidSignatureLength, bytes32(signature.length)) */\n      swap3\n      pop\n      swap3\n      pop\n      swap3\n      pop\n        /* \"@openzeppelin/contracts/utils/cryptography/ECDSA.sol\":2129:2907  function tryRecover(... */\n    tag_118:\n      swap3\n      pop\n      swap3\n      pop\n      swap3\n      jump\t// out\n        /* \"@openzeppelin/contracts/utils/cryptography/ECDSA.sol\":7280:7812  function _throwError(RecoverError error, bytes32 errorArg) private pure {... */\n    tag_109:\n        /* \"@openzeppelin/contracts/utils/cryptography/ECDSA.sol\":7375:7395  RecoverError.NoError */\n      0x00\n        /* \"@openzeppelin/contracts/utils/cryptography/ECDSA.sol\":7366:7395  error == RecoverError.NoError */\n      0x03\n      dup2\n      gt\n      iszero\n      tag_124\n      jumpi\n      tag_125\n      tag_126\n      jump\t// in\n    tag_125:\n    tag_124:\n        /* \"@openzeppelin/contracts/utils/cryptography/ECDSA.sol\":7366:7371  error */\n      dup3\n        /* \"@openzeppelin/contracts/utils/cryptography/ECDSA.sol\":7366:7395  error == RecoverError.NoError */\n      0x03\n      dup2\n      gt\n      iszero\n      tag_127\n      jumpi\n      tag_128\n      tag_126\n      jump\t// in\n    tag_128:\n    tag_127:\n      sub\n        /* \"@openzeppelin/contracts/utils/cryptography/ECDSA.sol\":7362:7806  if (error == RecoverError.NoError) {... */\n      iszero\n        /* \"@openzeppelin/contracts/utils/cryptography/ECDSA.sol\":7411:7418  return; */\n      tag_123\n        /* \"@openzeppelin/contracts/utils/cryptography/ECDSA.sol\":7362:7806  if (error == RecoverError.NoError) {... */\n      jumpi\n        /* \"@openzeppelin/contracts/utils/cryptography/ECDSA.sol\":7471:7500  RecoverError.InvalidSignature */\n      0x01\n        /* \"@openzeppelin/contracts/utils/cryptography/ECDSA.sol\":7462:7500  error == RecoverError.InvalidSignature */\n      0x03\n      dup2\n      gt\n      iszero\n      tag_131\n      jumpi\n      tag_132\n      tag_126\n      jump\t// in\n    tag_132:\n    tag_131:\n        /* \"@openzeppelin/contracts/utils/cryptography/ECDSA.sol\":7462:7467  error */\n      dup3\n        /* \"@openzeppelin/contracts/utils/cryptography/ECDSA.sol\":7462:7500  error == RecoverError.InvalidSignature */\n      0x03\n      dup2\n      gt\n      iszero\n      tag_133\n      jumpi\n      tag_134\n      tag_126\n      jump\t// in\n    tag_134:\n    tag_133:\n      sub\n        /* \"@openzeppelin/contracts/utils/cryptography/ECDSA.sol\":7458:7806  if (error == RecoverError.InvalidSignature) {... */\n      tag_135\n      jumpi\n        /* \"@openzeppelin/contracts/utils/cryptography/ECDSA.sol\":7523:7546  ECDSAInvalidSignature() */\n      mload(0x40)\n      0xf645eedf00000000000000000000000000000000000000000000000000000000\n      dup2\n      mstore\n      0x04\n      add\n      mload(0x40)\n      dup1\n      swap2\n      sub\n      swap1\n      revert\n        /* \"@openzeppelin/contracts/utils/cryptography/ECDSA.sol\":7458:7806  if (error == RecoverError.InvalidSignature) {... */\n    tag_135:\n        /* \"@openzeppelin/contracts/utils/cryptography/ECDSA.sol\":7576:7611  RecoverError.InvalidSignatureLength */\n      0x02\n        /* \"@openzeppelin/contracts/utils/cryptography/ECDSA.sol\":7567:7611  error == RecoverError.InvalidSignatureLength */\n      0x03\n      dup2\n      gt\n      iszero\n      tag_137\n      jumpi\n      tag_138\n      tag_126\n      jump\t// in\n    tag_138:\n    tag_137:\n        /* \"@openzeppelin/contracts/utils/cryptography/ECDSA.sol\":7567:7572  error */\n      dup3\n        /* \"@openzeppelin/contracts/utils/cryptography/ECDSA.sol\":7567:7611  error == RecoverError.InvalidSignatureLength */\n      0x03\n      dup2\n      gt\n      iszero\n      tag_139\n      jumpi\n      tag_140\n      tag_126\n      jump\t// in\n    tag_140:\n    tag_139:\n      sub\n        /* \"@openzeppelin/contracts/utils/cryptography/ECDSA.sol\":7563:7806  if (error == RecoverError.InvalidSignatureLength) {... */\n      tag_141\n      jumpi\n        /* \"@openzeppelin/contracts/utils/cryptography/ECDSA.sol\":7670:7678  errorArg */\n      dup1\n        /* \"@openzeppelin/contracts/utils/cryptography/ECDSA.sol\":7662:7679  uint256(errorArg) */\n      0x00\n      shr\n        /* \"@openzeppelin/contracts/utils/cryptography/ECDSA.sol\":7634:7680  ECDSAInvalidSignatureLength(uint256(errorArg)) */\n      mload(0x40)\n      0xfce698f700000000000000000000000000000000000000000000000000000000\n      dup2\n      mstore\n      0x04\n      add\n      tag_142\n      swap2\n      swap1\n      tag_143\n      jump\t// in\n    tag_142:\n      mload(0x40)\n      dup1\n      swap2\n      sub\n      swap1\n      revert\n        /* \"@openzeppelin/contracts/utils/cryptography/ECDSA.sol\":7563:7806  if (error == RecoverError.InvalidSignatureLength) {... */\n    tag_141:\n        /* \"@openzeppelin/contracts/utils/cryptography/ECDSA.sol\":7710:7740  RecoverError.InvalidSignatureS */\n      0x03\n        /* \"@openzeppelin/contracts/utils/cryptography/ECDSA.sol\":7701:7740  error == RecoverError.InvalidSignatureS */\n      dup1\n      dup2\n      gt\n      iszero\n      tag_145\n      jumpi\n      tag_146\n      tag_126\n      jump\t// in\n    tag_146:\n    tag_145:\n        /* \"@openzeppelin/contracts/utils/cryptography/ECDSA.sol\":7701:7706  error */\n      dup3\n        /* \"@openzeppelin/contracts/utils/cryptography/ECDSA.sol\":7701:7740  error == RecoverError.InvalidSignatureS */\n      0x03\n      dup2\n      gt\n      iszero\n      tag_147\n      jumpi\n      tag_148\n      tag_126\n      jump\t// in\n    tag_148:\n    tag_147:\n      sub\n        /* \"@openzeppelin/contracts/utils/cryptography/ECDSA.sol\":7697:7806  if (error == RecoverError.InvalidSignatureS) {... */\n      tag_149\n      jumpi\n        /* \"@openzeppelin/contracts/utils/cryptography/ECDSA.sol\":7786:7794  errorArg */\n      dup1\n        /* \"@openzeppelin/contracts/utils/cryptography/ECDSA.sol\":7763:7795  ECDSAInvalidSignatureS(errorArg) */\n      mload(0x40)\n      0xd78bce0c00000000000000000000000000000000000000000000000000000000\n      dup2\n      mstore\n      0x04\n      add\n      tag_150\n      swap2\n      swap1\n      tag_151\n      jump\t// in\n    tag_150:\n      mload(0x40)\n      dup1\n      swap2\n      sub\n      swap1\n      revert\n        /* \"@openzeppelin/contracts/utils/cryptography/ECDSA.sol\":7697:7806  if (error == RecoverError.InvalidSignatureS) {... */\n    tag_149:\n        /* \"@openzeppelin/contracts/utils/cryptography/ECDSA.sol\":7280:7812  function _throwError(RecoverError error, bytes32 errorArg) private pure {... */\n    tag_123:\n      pop\n      pop\n      jump\t// out\n        /* \"@openzeppelin/contracts/utils/Context.sol\":656:752  function _msgSender() internal view virtual returns (address) {... */\n    tag_112:\n        /* \"@openzeppelin/contracts/utils/Context.sol\":709:716  address */\n      0x00\n        /* \"@openzeppelin/contracts/utils/Context.sol\":735:745  msg.sender */\n      caller\n        /* \"@openzeppelin/contracts/utils/Context.sol\":728:745  return msg.sender */\n      swap1\n      pop\n        /* \"@openzeppelin/contracts/utils/Context.sol\":656:752  function _msgSender() internal view virtual returns (address) {... */\n      swap1\n      jump\t// out\n        /* \"@openzeppelin/contracts/utils/cryptography/ECDSA.sol\":5203:6754  function tryRecover(... */\n    tag_121:\n        /* \"@openzeppelin/contracts/utils/cryptography/ECDSA.sol\":5329:5346  address recovered */\n      0x00\n        /* \"@openzeppelin/contracts/utils/cryptography/ECDSA.sol\":5348:5364  RecoverError err */\n      0x00\n        /* \"@openzeppelin/contracts/utils/cryptography/ECDSA.sol\":5366:5380  bytes32 errArg */\n      0x00\n        /* \"@openzeppelin/contracts/utils/cryptography/ECDSA.sol\":6283:6349  0x7FFFFFFFFFFFFFFFFFFFFFFFFFFFFFFF5D576E7357A4501DDFE92F46681B20A0 */\n      0x7fffffffffffffffffffffffffffffff5d576e7357a4501ddfe92f46681b20a0\n        /* \"@openzeppelin/contracts/utils/cryptography/ECDSA.sol\":6278:6279  s */\n      dup5\n        /* \"@openzeppelin/contracts/utils/cryptography/ECDSA.sol\":6270:6280  uint256(s) */\n      0x00\n      shr\n        /* \"@openzeppelin/contracts/utils/cryptography/ECDSA.sol\":6270:6349  uint256(s) > 0x7FFFFFFFFFFFFFFFFFFFFFFFFFFFFFFF5D576E7357A4501DDFE92F46681B20A0 */\n      gt\n        /* \"@openzeppelin/contracts/utils/cryptography/ECDSA.sol\":6266:6430  if (uint256(s) > 0x7FFFFFFFFFFFFFFFFFFFFFFFFFFFFFFF5D576E7357A4501DDFE92F46681B20A0) {... */\n      iszero\n      tag_154\n      jumpi\n        /* \"@openzeppelin/contracts/utils/cryptography/ECDSA.sol\":6381:6382  0 */\n      0x00\n        /* \"@openzeppelin/contracts/utils/cryptography/ECDSA.sol\":6385:6415  RecoverError.InvalidSignatureS */\n      0x03\n        /* \"@openzeppelin/contracts/utils/cryptography/ECDSA.sol\":6417:6418  s */\n      dup6\n        /* \"@openzeppelin/contracts/utils/cryptography/ECDSA.sol\":6365:6419  return (address(0), RecoverError.InvalidSignatureS, s) */\n      swap3\n      pop\n      swap3\n      pop\n      swap3\n      pop\n      jump(tag_153)\n        /* \"@openzeppelin/contracts/utils/cryptography/ECDSA.sol\":6266:6430  if (uint256(s) > 0x7FFFFFFFFFFFFFFFFFFFFFFFFFFFFFFF5D576E7357A4501DDFE92F46681B20A0) {... */\n    tag_154:\n        /* \"@openzeppelin/contracts/utils/cryptography/ECDSA.sol\":6524:6538  address signer */\n      0x00\n        /* \"@openzeppelin/contracts/utils/cryptography/ECDSA.sol\":6541:6565  ecrecover(hash, v, r, s) */\n      0x01\n        /* \"@openzeppelin/contracts/utils/cryptography/ECDSA.sol\":6551:6555  hash */\n      dup9\n        /* \"@openzeppelin/contracts/utils/cryptography/ECDSA.sol\":6557:6558  v */\n      dup9\n        /* \"@openzeppelin/contracts/utils/cryptography/ECDSA.sol\":6560:6561  r */\n      dup9\n        /* \"@openzeppelin/contracts/utils/cryptography/ECDSA.sol\":6563:6564  s */\n      dup9\n        /* \"@openzeppelin/contracts/utils/cryptography/ECDSA.sol\":6541:6565  ecrecover(hash, v, r, s) */\n      mload(0x40)\n      0x00\n      dup2\n      mstore\n      0x20\n      add\n      0x40\n      mstore\n      mload(0x40)\n      tag_155\n      swap5\n      swap4\n      swap3\n      swap2\n      swap1\n      tag_156\n      jump\t// in\n    tag_155:\n      0x20\n      mload(0x40)\n      0x20\n      dup2\n      sub\n      swap1\n      dup1\n      dup5\n      sub\n      swap1\n      dup6\n      gas\n      staticcall\n      iszero\n      dup1\n      iszero\n      tag_158\n      jumpi\n      returndatacopy(0x00, 0x00, returndatasize)\n      revert(0x00, returndatasize)\n    tag_158:\n      pop\n      pop\n      pop\n      mload(sub(mload(0x40), 0x20))\n        /* \"@openzeppelin/contracts/utils/cryptography/ECDSA.sol\":6524:6565  address signer = ecrecover(hash, v, r, s) */\n      swap1\n      pop\n        /* \"@openzeppelin/contracts/utils/cryptography/ECDSA.sol\":6597:6598  0 */\n      0x00\n        /* \"@openzeppelin/contracts/utils/cryptography/ECDSA.sol\":6579:6599  signer == address(0) */\n      0xffffffffffffffffffffffffffffffffffffffff\n      and\n        /* \"@openzeppelin/contracts/utils/cryptography/ECDSA.sol\":6579:6585  signer */\n      dup2\n        /* \"@openzeppelin/contracts/utils/cryptography/ECDSA.sol\":6579:6599  signer == address(0) */\n      0xffffffffffffffffffffffffffffffffffffffff\n      and\n      sub\n        /* \"@openzeppelin/contracts/utils/cryptography/ECDSA.sol\":6575:6688  if (signer == address(0)) {... */\n      tag_159\n      jumpi\n        /* \"@openzeppelin/contracts/utils/cryptography/ECDSA.sol\":6631:6632  0 */\n      0x00\n        /* \"@openzeppelin/contracts/utils/cryptography/ECDSA.sol\":6635:6664  RecoverError.InvalidSignature */\n      0x01\n        /* \"@openzeppelin/contracts/utils/cryptography/ECDSA.sol\":6674:6675  0 */\n      0x00\n        /* \"@openzeppelin/contracts/utils/cryptography/ECDSA.sol\":6666:6676  bytes32(0) */\n      0x00\n      shl\n        /* \"@openzeppelin/contracts/utils/cryptography/ECDSA.sol\":6615:6677  return (address(0), RecoverError.InvalidSignature, bytes32(0)) */\n      swap4\n      pop\n      swap4\n      pop\n      swap4\n      pop\n      pop\n      jump(tag_153)\n        /* \"@openzeppelin/contracts/utils/cryptography/ECDSA.sol\":6575:6688  if (signer == address(0)) {... */\n    tag_159:\n        /* \"@openzeppelin/contracts/utils/cryptography/ECDSA.sol\":6706:6712  signer */\n      dup1\n        /* \"@openzeppelin/contracts/utils/cryptography/ECDSA.sol\":6714:6734  RecoverError.NoError */\n      0x00\n        /* \"@openzeppelin/contracts/utils/cryptography/ECDSA.sol\":6744:6745  0 */\n      0x00\n        /* \"@openzeppelin/contracts/utils/cryptography/ECDSA.sol\":6736:6746  bytes32(0) */\n      0x00\n      shl\n        /* \"@openzeppelin/contracts/utils/cryptography/ECDSA.sol\":6698:6747  return (signer, RecoverError.NoError, bytes32(0)) */\n      swap4\n      pop\n      swap4\n      pop\n      swap4\n      pop\n      pop\n        /* \"@openzeppelin/contracts/utils/cryptography/ECDSA.sol\":5203:6754  function tryRecover(... */\n    tag_153:\n      swap5\n      pop\n      swap5\n      pop\n      swap5\n      swap2\n      pop\n      pop\n      jump\t// out\n        /* \"#utility.yul\":88:205   */\n    tag_161:\n        /* \"#utility.yul\":197:198   */\n      0x00\n        /* \"#utility.yul\":194:195   */\n      0x00\n        /* \"#utility.yul\":187:199   */\n      revert\n        /* \"#utility.yul\":211:328   */\n    tag_162:\n        /* \"#utility.yul\":320:321   */\n      0x00\n        /* \"#utility.yul\":317:318   */\n      0x00\n        /* \"#utility.yul\":310:322   */\n      revert\n        /* \"#utility.yul\":334:411   */\n    tag_163:\n        /* \"#utility.yul\":371:378   */\n      0x00\n        /* \"#utility.yul\":400:405   */\n      dup2\n        /* \"#utility.yul\":389:405   */\n      swap1\n      pop\n        /* \"#utility.yul\":334:411   */\n      swap2\n      swap1\n      pop\n      jump\t// out\n        /* \"#utility.yul\":417:539   */\n    tag_164:\n        /* \"#utility.yul\":490:514   */\n      tag_210\n        /* \"#utility.yul\":508:513   */\n      dup2\n        /* \"#utility.yul\":490:514   */\n      tag_163\n      jump\t// in\n    tag_210:\n        /* \"#utility.yul\":483:488   */\n      dup2\n        /* \"#utility.yul\":480:515   */\n      eq\n        /* \"#utility.yul\":470:533   */\n      tag_211\n      jumpi\n        /* \"#utility.yul\":529:530   */\n      0x00\n        /* \"#utility.yul\":526:527   */\n      0x00\n        /* \"#utility.yul\":519:531   */\n      revert\n        /* \"#utility.yul\":470:533   */\n    tag_211:\n        /* \"#utility.yul\":417:539   */\n      pop\n      jump\t// out\n        /* \"#utility.yul\":545:684   */\n    tag_165:\n        /* \"#utility.yul\":591:596   */\n      0x00\n        /* \"#utility.yul\":629:635   */\n      dup2\n        /* \"#utility.yul\":616:636   */\n      calldataload\n        /* \"#utility.yul\":607:636   */\n      swap1\n      pop\n        /* \"#utility.yul\":645:678   */\n      tag_213\n        /* \"#utility.yul\":672:677   */\n      dup2\n        /* \"#utility.yul\":645:678   */\n      tag_164\n      jump\t// in\n    tag_213:\n        /* \"#utility.yul\":545:684   */\n      swap3\n      swap2\n      pop\n      pop\n      jump\t// out\n        /* \"#utility.yul\":690:807   */\n    tag_166:\n        /* \"#utility.yul\":799:800   */\n      0x00\n        /* \"#utility.yul\":796:797   */\n      0x00\n        /* \"#utility.yul\":789:801   */\n      revert\n        /* \"#utility.yul\":813:930   */\n    tag_167:\n        /* \"#utility.yul\":922:923   */\n      0x00\n        /* \"#utility.yul\":919:920   */\n      0x00\n        /* \"#utility.yul\":912:924   */\n      revert\n        /* \"#utility.yul\":936:1053   */\n    tag_168:\n        /* \"#utility.yul\":1045:1046   */\n      0x00\n        /* \"#utility.yul\":1042:1043   */\n      0x00\n        /* \"#utility.yul\":1035:1047   */\n      revert\n        /* \"#utility.yul\":1072:1624   */\n    tag_169:\n        /* \"#utility.yul\":1129:1137   */\n      0x00\n        /* \"#utility.yul\":1139:1145   */\n      0x00\n        /* \"#utility.yul\":1189:1192   */\n      dup4\n        /* \"#utility.yul\":1182:1186   */\n      0x1f\n        /* \"#utility.yul\":1174:1180   */\n      dup5\n        /* \"#utility.yul\":1170:1187   */\n      add\n        /* \"#utility.yul\":1166:1193   */\n      slt\n        /* \"#utility.yul\":1156:1278   */\n      tag_218\n      jumpi\n        /* \"#utility.yul\":1197:1276   */\n      tag_219\n      tag_166\n      jump\t// in\n    tag_219:\n        /* \"#utility.yul\":1156:1278   */\n    tag_218:\n        /* \"#utility.yul\":1310:1316   */\n      dup3\n        /* \"#utility.yul\":1297:1317   */\n      calldataload\n        /* \"#utility.yul\":1287:1317   */\n      swap1\n      pop\n        /* \"#utility.yul\":1340:1358   */\n      0xffffffffffffffff\n        /* \"#utility.yul\":1332:1338   */\n      dup2\n        /* \"#utility.yul\":1329:1359   */\n      gt\n        /* \"#utility.yul\":1326:1443   */\n      iszero\n      tag_220\n      jumpi\n        /* \"#utility.yul\":1362:1441   */\n      tag_221\n      tag_167\n      jump\t// in\n    tag_221:\n        /* \"#utility.yul\":1326:1443   */\n    tag_220:\n        /* \"#utility.yul\":1476:1480   */\n      0x20\n        /* \"#utility.yul\":1468:1474   */\n      dup4\n        /* \"#utility.yul\":1464:1481   */\n      add\n        /* \"#utility.yul\":1452:1481   */\n      swap2\n      pop\n        /* \"#utility.yul\":1530:1533   */\n      dup4\n        /* \"#utility.yul\":1522:1526   */\n      0x01\n        /* \"#utility.yul\":1514:1520   */\n      dup3\n        /* \"#utility.yul\":1510:1527   */\n      mul\n        /* \"#utility.yul\":1500:1508   */\n      dup4\n        /* \"#utility.yul\":1496:1528   */\n      add\n        /* \"#utility.yul\":1493:1534   */\n      gt\n        /* \"#utility.yul\":1490:1618   */\n      iszero\n      tag_222\n      jumpi\n        /* \"#utility.yul\":1537:1616   */\n      tag_223\n      tag_168\n      jump\t// in\n    tag_223:\n        /* \"#utility.yul\":1490:1618   */\n    tag_222:\n        /* \"#utility.yul\":1072:1624   */\n      swap3\n      pop\n      swap3\n      swap1\n      pop\n      jump\t// out\n        /* \"#utility.yul\":1630:2447   */\n    tag_14:\n        /* \"#utility.yul\":1718:1724   */\n      0x00\n        /* \"#utility.yul\":1726:1732   */\n      0x00\n        /* \"#utility.yul\":1734:1740   */\n      0x00\n        /* \"#utility.yul\":1742:1748   */\n      0x00\n        /* \"#utility.yul\":1791:1793   */\n      0x60\n        /* \"#utility.yul\":1779:1788   */\n      dup6\n        /* \"#utility.yul\":1770:1777   */\n      dup8\n        /* \"#utility.yul\":1766:1789   */\n      sub\n        /* \"#utility.yul\":1762:1794   */\n      slt\n        /* \"#utility.yul\":1759:1878   */\n      iszero\n      tag_225\n      jumpi\n        /* \"#utility.yul\":1797:1876   */\n      tag_226\n      tag_161\n      jump\t// in\n    tag_226:\n        /* \"#utility.yul\":1759:1878   */\n    tag_225:\n        /* \"#utility.yul\":1917:1918   */\n      0x00\n        /* \"#utility.yul\":1942:1995   */\n      tag_227\n        /* \"#utility.yul\":1987:1994   */\n      dup8\n        /* \"#utility.yul\":1978:1984   */\n      dup3\n        /* \"#utility.yul\":1967:1976   */\n      dup9\n        /* \"#utility.yul\":1963:1985   */\n      add\n        /* \"#utility.yul\":1942:1995   */\n      tag_165\n      jump\t// in\n    tag_227:\n        /* \"#utility.yul\":1932:1995   */\n      swap5\n      pop\n        /* \"#utility.yul\":1888:2005   */\n      pop\n        /* \"#utility.yul\":2044:2046   */\n      0x20\n        /* \"#utility.yul\":2070:2123   */\n      tag_228\n        /* \"#utility.yul\":2115:2122   */\n      dup8\n        /* \"#utility.yul\":2106:2112   */\n      dup3\n        /* \"#utility.yul\":2095:2104   */\n      dup9\n        /* \"#utility.yul\":2091:2113   */\n      add\n        /* \"#utility.yul\":2070:2123   */\n      tag_165\n      jump\t// in\n    tag_228:\n        /* \"#utility.yul\":2060:2123   */\n      swap4\n      pop\n        /* \"#utility.yul\":2015:2133   */\n      pop\n        /* \"#utility.yul\":2200:2202   */\n      0x40\n        /* \"#utility.yul\":2189:2198   */\n      dup6\n        /* \"#utility.yul\":2185:2203   */\n      add\n        /* \"#utility.yul\":2172:2204   */\n      calldataload\n        /* \"#utility.yul\":2231:2249   */\n      0xffffffffffffffff\n        /* \"#utility.yul\":2223:2229   */\n      dup2\n        /* \"#utility.yul\":2220:2250   */\n      gt\n        /* \"#utility.yul\":2217:2334   */\n      iszero\n      tag_229\n      jumpi\n        /* \"#utility.yul\":2253:2332   */\n      tag_230\n      tag_162\n      jump\t// in\n    tag_230:\n        /* \"#utility.yul\":2217:2334   */\n    tag_229:\n        /* \"#utility.yul\":2366:2430   */\n      tag_231\n        /* \"#utility.yul\":2422:2429   */\n      dup8\n        /* \"#utility.yul\":2413:2419   */\n      dup3\n        /* \"#utility.yul\":2402:2411   */\n      dup9\n        /* \"#utility.yul\":2398:2420   */\n      add\n        /* \"#utility.yul\":2366:2430   */\n      tag_169\n      jump\t// in\n    tag_231:\n        /* \"#utility.yul\":2348:2430   */\n      swap3\n      pop\n      swap3\n      pop\n        /* \"#utility.yul\":2143:2440   */\n      pop\n        /* \"#utility.yul\":1630:2447   */\n      swap3\n      swap6\n      swap2\n      swap5\n      pop\n      swap3\n      pop\n      jump\t// out\n        /* \"#utility.yul\":2453:2579   */\n    tag_170:\n        /* \"#utility.yul\":2490:2497   */\n      0x00\n        /* \"#utility.yul\":2530:2572   */\n      0xffffffffffffffffffffffffffffffffffffffff\n        /* \"#utility.yul\":2523:2528   */\n      dup3\n        /* \"#utility.yul\":2519:2573   */\n      and\n        /* \"#utility.yul\":2508:2573   */\n      swap1\n      pop\n        /* \"#utility.yul\":2453:2579   */\n      swap2\n      swap1\n      pop\n      jump\t// out\n        /* \"#utility.yul\":2585:2681   */\n    tag_171:\n        /* \"#utility.yul\":2622:2629   */\n      0x00\n        /* \"#utility.yul\":2651:2675   */\n      tag_234\n        /* \"#utility.yul\":2669:2674   */\n      dup3\n        /* \"#utility.yul\":2651:2675   */\n      tag_170\n      jump\t// in\n    tag_234:\n        /* \"#utility.yul\":2640:2675   */\n      swap1\n      pop\n        /* \"#utility.yul\":2585:2681   */\n      swap2\n      swap1\n      pop\n      jump\t// out\n        /* \"#utility.yul\":2687:2809   */\n    tag_172:\n        /* \"#utility.yul\":2760:2784   */\n      tag_236\n        /* \"#utility.yul\":2778:2783   */\n      dup2\n        /* \"#utility.yul\":2760:2784   */\n      tag_171\n      jump\t// in\n    tag_236:\n        /* \"#utility.yul\":2753:2758   */\n      dup2\n        /* \"#utility.yul\":2750:2785   */\n      eq\n        /* \"#utility.yul\":2740:2803   */\n      tag_237\n      jumpi\n        /* \"#utility.yul\":2799:2800   */\n      0x00\n        /* \"#utility.yul\":2796:2797   */\n      0x00\n        /* \"#utility.yul\":2789:2801   */\n      revert\n        /* \"#utility.yul\":2740:2803   */\n    tag_237:\n        /* \"#utility.yul\":2687:2809   */\n      pop\n      jump\t// out\n        /* \"#utility.yul\":2815:2954   */\n    tag_173:\n        /* \"#utility.yul\":2861:2866   */\n      0x00\n        /* \"#utility.yul\":2899:2905   */\n      dup2\n        /* \"#utility.yul\":2886:2906   */\n      calldataload\n        /* \"#utility.yul\":2877:2906   */\n      swap1\n      pop\n        /* \"#utility.yul\":2915:2948   */\n      tag_239\n        /* \"#utility.yul\":2942:2947   */\n      dup2\n        /* \"#utility.yul\":2915:2948   */\n      tag_172\n      jump\t// in\n    tag_239:\n        /* \"#utility.yul\":2815:2954   */\n      swap3\n      swap2\n      pop\n      pop\n      jump\t// out\n        /* \"#utility.yul\":2960:3289   */\n    tag_18:\n        /* \"#utility.yul\":3019:3025   */\n      0x00\n        /* \"#utility.yul\":3068:3070   */\n      0x20\n        /* \"#utility.yul\":3056:3065   */\n      dup3\n        /* \"#utility.yul\":3047:3054   */\n      dup5\n        /* \"#utility.yul\":3043:3066   */\n      sub\n        /* \"#utility.yul\":3039:3071   */\n      slt\n        /* \"#utility.yul\":3036:3155   */\n      iszero\n      tag_241\n      jumpi\n        /* \"#utility.yul\":3074:3153   */\n      tag_242\n      tag_161\n      jump\t// in\n    tag_242:\n        /* \"#utility.yul\":3036:3155   */\n    tag_241:\n        /* \"#utility.yul\":3194:3195   */\n      0x00\n        /* \"#utility.yul\":3219:3272   */\n      tag_243\n        /* \"#utility.yul\":3264:3271   */\n      dup5\n        /* \"#utility.yul\":3255:3261   */\n      dup3\n        /* \"#utility.yul\":3244:3253   */\n      dup6\n        /* \"#utility.yul\":3240:3262   */\n      add\n        /* \"#utility.yul\":3219:3272   */\n      tag_173\n      jump\t// in\n    tag_243:\n        /* \"#utility.yul\":3209:3272   */\n      swap2\n      pop\n        /* \"#utility.yul\":3165:3282   */\n      pop\n        /* \"#utility.yul\":2960:3289   */\n      swap3\n      swap2\n      pop\n      pop\n      jump\t// out\n        /* \"#utility.yul\":3295:3413   */\n    tag_174:\n        /* \"#utility.yul\":3382:3406   */\n      tag_245\n        /* \"#utility.yul\":3400:3405   */\n      dup2\n        /* \"#utility.yul\":3382:3406   */\n      tag_171\n      jump\t// in\n    tag_245:\n        /* \"#utility.yul\":3377:3380   */\n      dup3\n        /* \"#utility.yul\":3370:3407   */\n      mstore\n        /* \"#utility.yul\":3295:3413   */\n      pop\n      pop\n      jump\t// out\n        /* \"#utility.yul\":3419:3641   */\n    tag_26:\n        /* \"#utility.yul\":3512:3516   */\n      0x00\n        /* \"#utility.yul\":3550:3552   */\n      0x20\n        /* \"#utility.yul\":3539:3548   */\n      dup3\n        /* \"#utility.yul\":3535:3553   */\n      add\n        /* \"#utility.yul\":3527:3553   */\n      swap1\n      pop\n        /* \"#utility.yul\":3563:3634   */\n      tag_247\n        /* \"#utility.yul\":3631:3632   */\n      0x00\n        /* \"#utility.yul\":3620:3629   */\n      dup4\n        /* \"#utility.yul\":3616:3633   */\n      add\n        /* \"#utility.yul\":3607:3613   */\n      dup5\n        /* \"#utility.yul\":3563:3634   */\n      tag_174\n      jump\t// in\n    tag_247:\n        /* \"#utility.yul\":3419:3641   */\n      swap3\n      swap2\n      pop\n      pop\n      jump\t// out\n        /* \"#utility.yul\":3647:3707   */\n    tag_175:\n        /* \"#utility.yul\":3675:3678   */\n      0x00\n        /* \"#utility.yul\":3696:3701   */\n      dup2\n        /* \"#utility.yul\":3689:3701   */\n      swap1\n      pop\n        /* \"#utility.yul\":3647:3707   */\n      swap2\n      swap1\n      pop\n      jump\t// out\n        /* \"#utility.yul\":3713:3855   */\n    tag_176:\n        /* \"#utility.yul\":3763:3772   */\n      0x00\n        /* \"#utility.yul\":3796:3849   */\n      tag_250\n        /* \"#utility.yul\":3814:3848   */\n      tag_251\n        /* \"#utility.yul\":3823:3847   */\n      tag_252\n        /* \"#utility.yul\":3841:3846   */\n      dup5\n        /* \"#utility.yul\":3823:3847   */\n      tag_170\n      jump\t// in\n    tag_252:\n        /* \"#utility.yul\":3814:3848   */\n      tag_175\n      jump\t// in\n    tag_251:\n        /* \"#utility.yul\":3796:3849   */\n      tag_170\n      jump\t// in\n    tag_250:\n        /* \"#utility.yul\":3783:3849   */\n      swap1\n      pop\n        /* \"#utility.yul\":3713:3855   */\n      swap2\n      swap1\n      pop\n      jump\t// out\n        /* \"#utility.yul\":3861:3987   */\n    tag_177:\n        /* \"#utility.yul\":3911:3920   */\n      0x00\n        /* \"#utility.yul\":3944:3981   */\n      tag_254\n        /* \"#utility.yul\":3975:3980   */\n      dup3\n        /* \"#utility.yul\":3944:3981   */\n      tag_176\n      jump\t// in\n    tag_254:\n        /* \"#utility.yul\":3931:3981   */\n      swap1\n      pop\n        /* \"#utility.yul\":3861:3987   */\n      swap2\n      swap1\n      pop\n      jump\t// out\n        /* \"#utility.yul\":3993:4133   */\n    tag_178:\n        /* \"#utility.yul\":4057:4066   */\n      0x00\n        /* \"#utility.yul\":4090:4127   */\n      tag_256\n        /* \"#utility.yul\":4121:4126   */\n      dup3\n        /* \"#utility.yul\":4090:4127   */\n      tag_177\n      jump\t// in\n    tag_256:\n        /* \"#utility.yul\":4077:4127   */\n      swap1\n      pop\n        /* \"#utility.yul\":3993:4133   */\n      swap2\n      swap1\n      pop\n      jump\t// out\n        /* \"#utility.yul\":4139:4298   */\n    tag_179:\n        /* \"#utility.yul\":4240:4291   */\n      tag_258\n        /* \"#utility.yul\":4285:4290   */\n      dup2\n        /* \"#utility.yul\":4240:4291   */\n      tag_178\n      jump\t// in\n    tag_258:\n        /* \"#utility.yul\":4235:4238   */\n      dup3\n        /* \"#utility.yul\":4228:4292   */\n      mstore\n        /* \"#utility.yul\":4139:4298   */\n      pop\n      pop\n      jump\t// out\n        /* \"#utility.yul\":4304:4554   */\n    tag_32:\n        /* \"#utility.yul\":4411:4415   */\n      0x00\n        /* \"#utility.yul\":4449:4451   */\n      0x20\n        /* \"#utility.yul\":4438:4447   */\n      dup3\n        /* \"#utility.yul\":4434:4452   */\n      add\n        /* \"#utility.yul\":4426:4452   */\n      swap1\n      pop\n        /* \"#utility.yul\":4462:4547   */\n      tag_260\n        /* \"#utility.yul\":4544:4545   */\n      0x00\n        /* \"#utility.yul\":4533:4542   */\n      dup4\n        /* \"#utility.yul\":4529:4546   */\n      add\n        /* \"#utility.yul\":4520:4526   */\n      dup5\n        /* \"#utility.yul\":4462:4547   */\n      tag_179\n      jump\t// in\n    tag_260:\n        /* \"#utility.yul\":4304:4554   */\n      swap3\n      swap2\n      pop\n      pop\n      jump\t// out\n        /* \"#utility.yul\":4560:4654   */\n    tag_180:\n        /* \"#utility.yul\":4593:4601   */\n      0x00\n        /* \"#utility.yul\":4641:4646   */\n      dup2\n        /* \"#utility.yul\":4637:4639   */\n      0x60\n        /* \"#utility.yul\":4633:4647   */\n      shl\n        /* \"#utility.yul\":4612:4647   */\n      swap1\n      pop\n        /* \"#utility.yul\":4560:4654   */\n      swap2\n      swap1\n      pop\n      jump\t// out\n        /* \"#utility.yul\":4660:4754   */\n    tag_181:\n        /* \"#utility.yul\":4699:4706   */\n      0x00\n        /* \"#utility.yul\":4728:4748   */\n      tag_263\n        /* \"#utility.yul\":4742:4747   */\n      dup3\n        /* \"#utility.yul\":4728:4748   */\n      tag_180\n      jump\t// in\n    tag_263:\n        /* \"#utility.yul\":4717:4748   */\n      swap1\n      pop\n        /* \"#utility.yul\":4660:4754   */\n      swap2\n      swap1\n      pop\n      jump\t// out\n        /* \"#utility.yul\":4760:4860   */\n    tag_182:\n        /* \"#utility.yul\":4799:4806   */\n      0x00\n        /* \"#utility.yul\":4828:4854   */\n      tag_265\n        /* \"#utility.yul\":4848:4853   */\n      dup3\n        /* \"#utility.yul\":4828:4854   */\n      tag_181\n      jump\t// in\n    tag_265:\n        /* \"#utility.yul\":4817:4854   */\n      swap1\n      pop\n        /* \"#utility.yul\":4760:4860   */\n      swap2\n      swap1\n      pop\n      jump\t// out\n        /* \"#utility.yul\":4866:5023   */\n    tag_183:\n        /* \"#utility.yul\":4971:5016   */\n      tag_267\n        /* \"#utility.yul\":4991:5015   */\n      tag_268\n        /* \"#utility.yul\":5009:5014   */\n      dup3\n        /* \"#utility.yul\":4991:5015   */\n      tag_171\n      jump\t// in\n    tag_268:\n        /* \"#utility.yul\":4971:5016   */\n      tag_182\n      jump\t// in\n    tag_267:\n        /* \"#utility.yul\":4966:4969   */\n      dup3\n        /* \"#utility.yul\":4959:5017   */\n      mstore\n        /* \"#utility.yul\":4866:5023   */\n      pop\n      pop\n      jump\t// out\n        /* \"#utility.yul\":5029:5108   */\n    tag_184:\n        /* \"#utility.yul\":5068:5075   */\n      0x00\n        /* \"#utility.yul\":5097:5102   */\n      dup2\n        /* \"#utility.yul\":5086:5102   */\n      swap1\n      pop\n        /* \"#utility.yul\":5029:5108   */\n      swap2\n      swap1\n      pop\n      jump\t// out\n        /* \"#utility.yul\":5114:5271   */\n    tag_185:\n        /* \"#utility.yul\":5219:5264   */\n      tag_271\n        /* \"#utility.yul\":5239:5263   */\n      tag_272\n        /* \"#utility.yul\":5257:5262   */\n      dup3\n        /* \"#utility.yul\":5239:5263   */\n      tag_163\n      jump\t// in\n    tag_272:\n        /* \"#utility.yul\":5219:5264   */\n      tag_184\n      jump\t// in\n    tag_271:\n        /* \"#utility.yul\":5214:5217   */\n      dup3\n        /* \"#utility.yul\":5207:5265   */\n      mstore\n        /* \"#utility.yul\":5114:5271   */\n      pop\n      pop\n      jump\t// out\n        /* \"#utility.yul\":5277:5815   */\n    tag_41:\n        /* \"#utility.yul\":5445:5448   */\n      0x00\n        /* \"#utility.yul\":5460:5535   */\n      tag_274\n        /* \"#utility.yul\":5531:5534   */\n      dup3\n        /* \"#utility.yul\":5522:5528   */\n      dup7\n        /* \"#utility.yul\":5460:5535   */\n      tag_183\n      jump\t// in\n    tag_274:\n        /* \"#utility.yul\":5560:5562   */\n      0x14\n        /* \"#utility.yul\":5555:5558   */\n      dup3\n        /* \"#utility.yul\":5551:5563   */\n      add\n        /* \"#utility.yul\":5544:5563   */\n      swap2\n      pop\n        /* \"#utility.yul\":5573:5648   */\n      tag_275\n        /* \"#utility.yul\":5644:5647   */\n      dup3\n        /* \"#utility.yul\":5635:5641   */\n      dup6\n        /* \"#utility.yul\":5573:5648   */\n      tag_185\n      jump\t// in\n    tag_275:\n        /* \"#utility.yul\":5673:5675   */\n      0x20\n        /* \"#utility.yul\":5668:5671   */\n      dup3\n        /* \"#utility.yul\":5664:5676   */\n      add\n        /* \"#utility.yul\":5657:5676   */\n      swap2\n      pop\n        /* \"#utility.yul\":5686:5761   */\n      tag_276\n        /* \"#utility.yul\":5757:5760   */\n      dup3\n        /* \"#utility.yul\":5748:5754   */\n      dup5\n        /* \"#utility.yul\":5686:5761   */\n      tag_185\n      jump\t// in\n    tag_276:\n        /* \"#utility.yul\":5786:5788   */\n      0x20\n        /* \"#utility.yul\":5781:5784   */\n      dup3\n        /* \"#utility.yul\":5777:5789   */\n      add\n        /* \"#utility.yul\":5770:5789   */\n      swap2\n      pop\n        /* \"#utility.yul\":5806:5809   */\n      dup2\n        /* \"#utility.yul\":5799:5809   */\n      swap1\n      pop\n        /* \"#utility.yul\":5277:5815   */\n      swap5\n      swap4\n      pop\n      pop\n      pop\n      pop\n      jump\t// out\n        /* \"#utility.yul\":5821:5990   */\n    tag_186:\n        /* \"#utility.yul\":5905:5916   */\n      0x00\n        /* \"#utility.yul\":5939:5945   */\n      dup3\n        /* \"#utility.yul\":5934:5937   */\n      dup3\n        /* \"#utility.yul\":5927:5946   */\n      mstore\n        /* \"#utility.yul\":5979:5983   */\n      0x20\n        /* \"#utility.yul\":5974:5977   */\n      dup3\n        /* \"#utility.yul\":5970:5984   */\n      add\n        /* \"#utility.yul\":5955:5984   */\n      swap1\n      pop\n        /* \"#utility.yul\":5821:5990   */\n      swap3\n      swap2\n      pop\n      pop\n      jump\t// out\n        /* \"#utility.yul\":5996:6223   */\n    tag_187:\n        /* \"#utility.yul\":6136:6170   */\n      0x496e76616c6964207369676e61747572653a2053656375726974792063686563\n        /* \"#utility.yul\":6132:6133   */\n      0x00\n        /* \"#utility.yul\":6124:6130   */\n      dup3\n        /* \"#utility.yul\":6120:6134   */\n      add\n        /* \"#utility.yul\":6113:6171   */\n      mstore\n        /* \"#utility.yul\":6205:6215   */\n      0x6b206661696c6564000000000000000000000000000000000000000000000000\n        /* \"#utility.yul\":6200:6202   */\n      0x20\n        /* \"#utility.yul\":6192:6198   */\n      dup3\n        /* \"#utility.yul\":6188:6203   */\n      add\n        /* \"#utility.yul\":6181:6216   */\n      mstore\n        /* \"#utility.yul\":5996:6223   */\n      pop\n      jump\t// out\n        /* \"#utility.yul\":6229:6595   */\n    tag_188:\n        /* \"#utility.yul\":6371:6374   */\n      0x00\n        /* \"#utility.yul\":6392:6459   */\n      tag_280\n        /* \"#utility.yul\":6456:6458   */\n      0x28\n        /* \"#utility.yul\":6451:6454   */\n      dup4\n        /* \"#utility.yul\":6392:6459   */\n      tag_186\n      jump\t// in\n    tag_280:\n        /* \"#utility.yul\":6385:6459   */\n      swap2\n      pop\n        /* \"#utility.yul\":6468:6561   */\n      tag_281\n        /* \"#utility.yul\":6557:6560   */\n      dup3\n        /* \"#utility.yul\":6468:6561   */\n      tag_187\n      jump\t// in\n    tag_281:\n        /* \"#utility.yul\":6586:6588   */\n      0x40\n        /* \"#utility.yul\":6581:6584   */\n      dup3\n        /* \"#utility.yul\":6577:6589   */\n      add\n        /* \"#utility.yul\":6570:6589   */\n      swap1\n      pop\n        /* \"#utility.yul\":6229:6595   */\n      swap2\n      swap1\n      pop\n      jump\t// out\n        /* \"#utility.yul\":6601:7020   */\n    tag_48:\n        /* \"#utility.yul\":6767:6771   */\n      0x00\n        /* \"#utility.yul\":6805:6807   */\n      0x20\n        /* \"#utility.yul\":6794:6803   */\n      dup3\n        /* \"#utility.yul\":6790:6808   */\n      add\n        /* \"#utility.yul\":6782:6808   */\n      swap1\n      pop\n        /* \"#utility.yul\":6854:6863   */\n      dup2\n        /* \"#utility.yul\":6848:6852   */\n      dup2\n        /* \"#utility.yul\":6844:6864   */\n      sub\n        /* \"#utility.yul\":6840:6841   */\n      0x00\n        /* \"#utility.yul\":6829:6838   */\n      dup4\n        /* \"#utility.yul\":6825:6842   */\n      add\n        /* \"#utility.yul\":6818:6865   */\n      mstore\n        /* \"#utility.yul\":6882:7013   */\n      tag_283\n        /* \"#utility.yul\":7008:7012   */\n      dup2\n        /* \"#utility.yul\":6882:7013   */\n      tag_188\n      jump\t// in\n    tag_283:\n        /* \"#utility.yul\":6874:7013   */\n      swap1\n      pop\n        /* \"#utility.yul\":6601:7020   */\n      swap2\n      swap1\n      pop\n      jump\t// out\n        /* \"#utility.yul\":7026:7169   */\n    tag_189:\n        /* \"#utility.yul\":7083:7088   */\n      0x00\n        /* \"#utility.yul\":7114:7120   */\n      dup2\n        /* \"#utility.yul\":7108:7121   */\n      mload\n        /* \"#utility.yul\":7099:7121   */\n      swap1\n      pop\n        /* \"#utility.yul\":7130:7163   */\n      tag_285\n        /* \"#utility.yul\":7157:7162   */\n      dup2\n        /* \"#utility.yul\":7130:7163   */\n      tag_164\n      jump\t// in\n    tag_285:\n        /* \"#utility.yul\":7026:7169   */\n      swap3\n      swap2\n      pop\n      pop\n      jump\t// out\n        /* \"#utility.yul\":7175:7526   */\n    tag_53:\n        /* \"#utility.yul\":7245:7251   */\n      0x00\n        /* \"#utility.yul\":7294:7296   */\n      0x20\n        /* \"#utility.yul\":7282:7291   */\n      dup3\n        /* \"#utility.yul\":7273:7280   */\n      dup5\n        /* \"#utility.yul\":7269:7292   */\n      sub\n        /* \"#utility.yul\":7265:7297   */\n      slt\n        /* \"#utility.yul\":7262:7381   */\n      iszero\n      tag_287\n      jumpi\n        /* \"#utility.yul\":7300:7379   */\n      tag_288\n      tag_161\n      jump\t// in\n    tag_288:\n        /* \"#utility.yul\":7262:7381   */\n    tag_287:\n        /* \"#utility.yul\":7420:7421   */\n      0x00\n        /* \"#utility.yul\":7445:7509   */\n      tag_289\n        /* \"#utility.yul\":7501:7508   */\n      dup5\n        /* \"#utility.yul\":7492:7498   */\n      dup3\n        /* \"#utility.yul\":7481:7490   */\n      dup6\n        /* \"#utility.yul\":7477:7499   */\n      add\n        /* \"#utility.yul\":7445:7509   */\n      tag_189\n      jump\t// in\n    tag_289:\n        /* \"#utility.yul\":7435:7509   */\n      swap2\n      pop\n        /* \"#utility.yul\":7391:7519   */\n      pop\n        /* \"#utility.yul\":7175:7526   */\n      swap3\n      swap2\n      pop\n      pop\n      jump\t// out\n        /* \"#utility.yul\":7532:7706   */\n    tag_190:\n        /* \"#utility.yul\":7672:7698   */\n      0x496e73756666696369656e74204348482062616c616e63650000000000000000\n        /* \"#utility.yul\":7668:7669   */\n      0x00\n        /* \"#utility.yul\":7660:7666   */\n      dup3\n        /* \"#utility.yul\":7656:7670   */\n      add\n        /* \"#utility.yul\":7649:7699   */\n      mstore\n        /* \"#utility.yul\":7532:7706   */\n      pop\n      jump\t// out\n        /* \"#utility.yul\":7712:8078   */\n    tag_191:\n        /* \"#utility.yul\":7854:7857   */\n      0x00\n        /* \"#utility.yul\":7875:7942   */\n      tag_292\n        /* \"#utility.yul\":7939:7941   */\n      0x18\n        /* \"#utility.yul\":7934:7937   */\n      dup4\n        /* \"#utility.yul\":7875:7942   */\n      tag_186\n      jump\t// in\n    tag_292:\n        /* \"#utility.yul\":7868:7942   */\n      swap2\n      pop\n        /* \"#utility.yul\":7951:8044   */\n      tag_293\n        /* \"#utility.yul\":8040:8043   */\n      dup3\n        /* \"#utility.yul\":7951:8044   */\n      tag_190\n      jump\t// in\n    tag_293:\n        /* \"#utility.yul\":8069:8071   */\n      0x20\n        /* \"#utility.yul\":8064:8067   */\n      dup3\n        /* \"#utility.yul\":8060:8072   */\n      add\n        /* \"#utility.yul\":8053:8072   */\n      swap1\n      pop\n        /* \"#utility.yul\":7712:8078   */\n      swap2\n      swap1\n      pop\n      jump\t// out\n        /* \"#utility.yul\":8084:8503   */\n    tag_56:\n        /* \"#utility.yul\":8250:8254   */\n      0x00\n        /* \"#utility.yul\":8288:8290   */\n      0x20\n        /* \"#utility.yul\":8277:8286   */\n      dup3\n        /* \"#utility.yul\":8273:8291   */\n      add\n        /* \"#utility.yul\":8265:8291   */\n      swap1\n      pop\n        /* \"#utility.yul\":8337:8346   */\n      dup2\n        /* \"#utility.yul\":8331:8335   */\n      dup2\n        /* \"#utility.yul\":8327:8347   */\n      sub\n        /* \"#utility.yul\":8323:8324   */\n      0x00\n        /* \"#utility.yul\":8312:8321   */\n      dup4\n        /* \"#utility.yul\":8308:8325   */\n      add\n        /* \"#utility.yul\":8301:8348   */\n      mstore\n        /* \"#utility.yul\":8365:8496   */\n      tag_295\n        /* \"#utility.yul\":8491:8495   */\n      dup2\n        /* \"#utility.yul\":8365:8496   */\n      tag_191\n      jump\t// in\n    tag_295:\n        /* \"#utility.yul\":8357:8496   */\n      swap1\n      pop\n        /* \"#utility.yul\":8084:8503   */\n      swap2\n      swap1\n      pop\n      jump\t// out\n        /* \"#utility.yul\":8509:8841   */\n    tag_58:\n        /* \"#utility.yul\":8630:8634   */\n      0x00\n        /* \"#utility.yul\":8668:8670   */\n      0x40\n        /* \"#utility.yul\":8657:8666   */\n      dup3\n        /* \"#utility.yul\":8653:8671   */\n      add\n        /* \"#utility.yul\":8645:8671   */\n      swap1\n      pop\n        /* \"#utility.yul\":8681:8752   */\n      tag_297\n        /* \"#utility.yul\":8749:8750   */\n      0x00\n        /* \"#utility.yul\":8738:8747   */\n      dup4\n        /* \"#utility.yul\":8734:8751   */\n      add\n        /* \"#utility.yul\":8725:8731   */\n      dup6\n        /* \"#utility.yul\":8681:8752   */\n      tag_174\n      jump\t// in\n    tag_297:\n        /* \"#utility.yul\":8762:8834   */\n      tag_298\n        /* \"#utility.yul\":8830:8832   */\n      0x20\n        /* \"#utility.yul\":8819:8828   */\n      dup4\n        /* \"#utility.yul\":8815:8833   */\n      add\n        /* \"#utility.yul\":8806:8812   */\n      dup5\n        /* \"#utility.yul\":8762:8834   */\n      tag_174\n      jump\t// in\n    tag_298:\n        /* \"#utility.yul\":8509:8841   */\n      swap4\n      swap3\n      pop\n      pop\n      pop\n      jump\t// out\n        /* \"#utility.yul\":8847:9015   */\n    tag_192:\n        /* \"#utility.yul\":8987:9007   */\n      0x546f6b656e206e6f7420617070726f7665640000000000000000000000000000\n        /* \"#utility.yul\":8983:8984   */\n      0x00\n        /* \"#utility.yul\":8975:8981   */\n      dup3\n        /* \"#utility.yul\":8971:8985   */\n      add\n        /* \"#utility.yul\":8964:9008   */\n      mstore\n        /* \"#utility.yul\":8847:9015   */\n      pop\n      jump\t// out\n        /* \"#utility.yul\":9021:9387   */\n    tag_193:\n        /* \"#utility.yul\":9163:9166   */\n      0x00\n        /* \"#utility.yul\":9184:9251   */\n      tag_301\n        /* \"#utility.yul\":9248:9250   */\n      0x12\n        /* \"#utility.yul\":9243:9246   */\n      dup4\n        /* \"#utility.yul\":9184:9251   */\n      tag_186\n      jump\t// in\n    tag_301:\n        /* \"#utility.yul\":9177:9251   */\n      swap2\n      pop\n        /* \"#utility.yul\":9260:9353   */\n      tag_302\n        /* \"#utility.yul\":9349:9352   */\n      dup3\n        /* \"#utility.yul\":9260:9353   */\n      tag_192\n      jump\t// in\n    tag_302:\n        /* \"#utility.yul\":9378:9380   */\n      0x20\n        /* \"#utility.yul\":9373:9376   */\n      dup3\n        /* \"#utility.yul\":9369:9381   */\n      add\n        /* \"#utility.yul\":9362:9381   */\n      swap1\n      pop\n        /* \"#utility.yul\":9021:9387   */\n      swap2\n      swap1\n      pop\n      jump\t// out\n        /* \"#utility.yul\":9393:9812   */\n    tag_64:\n        /* \"#utility.yul\":9559:9563   */\n      0x00\n        /* \"#utility.yul\":9597:9599   */\n      0x20\n        /* \"#utility.yul\":9586:9595   */\n      dup3\n        /* \"#utility.yul\":9582:9600   */\n      add\n        /* \"#utility.yul\":9574:9600   */\n      swap1\n      pop\n        /* \"#utility.yul\":9646:9655   */\n      dup2\n        /* \"#utility.yul\":9640:9644   */\n      dup2\n        /* \"#utility.yul\":9636:9656   */\n      sub\n        /* \"#utility.yul\":9632:9633   */\n      0x00\n        /* \"#utility.yul\":9621:9630   */\n      dup4\n        /* \"#utility.yul\":9617:9634   */\n      add\n        /* \"#utility.yul\":9610:9657   */\n      mstore\n        /* \"#utility.yul\":9674:9805   */\n      tag_304\n        /* \"#utility.yul\":9800:9804   */\n      dup2\n        /* \"#utility.yul\":9674:9805   */\n      tag_193\n      jump\t// in\n    tag_304:\n        /* \"#utility.yul\":9666:9805   */\n      swap1\n      pop\n        /* \"#utility.yul\":9393:9812   */\n      swap2\n      swap1\n      pop\n      jump\t// out\n        /* \"#utility.yul\":9818:9936   */\n    tag_194:\n        /* \"#utility.yul\":9905:9929   */\n      tag_306\n        /* \"#utility.yul\":9923:9928   */\n      dup2\n        /* \"#utility.yul\":9905:9929   */\n      tag_163\n      jump\t// in\n    tag_306:\n        /* \"#utility.yul\":9900:9903   */\n      dup3\n        /* \"#utility.yul\":9893:9930   */\n      mstore\n        /* \"#utility.yul\":9818:9936   */\n      pop\n      pop\n      jump\t// out\n        /* \"#utility.yul\":9942:10384   */\n    tag_66:\n        /* \"#utility.yul\":10091:10095   */\n      0x00\n        /* \"#utility.yul\":10129:10131   */\n      0x60\n        /* \"#utility.yul\":10118:10127   */\n      dup3\n        /* \"#utility.yul\":10114:10132   */\n      add\n        /* \"#utility.yul\":10106:10132   */\n      swap1\n      pop\n        /* \"#utility.yul\":10142:10213   */\n      tag_308\n        /* \"#utility.yul\":10210:10211   */\n      0x00\n        /* \"#utility.yul\":10199:10208   */\n      dup4\n        /* \"#utility.yul\":10195:10212   */\n      add\n        /* \"#utility.yul\":10186:10192   */\n      dup7\n        /* \"#utility.yul\":10142:10213   */\n      tag_174\n      jump\t// in\n    tag_308:\n        /* \"#utility.yul\":10223:10295   */\n      tag_309\n        /* \"#utility.yul\":10291:10293   */\n      0x20\n        /* \"#utility.yul\":10280:10289   */\n      dup4\n        /* \"#utility.yul\":10276:10294   */\n      add\n        /* \"#utility.yul\":10267:10273   */\n      dup6\n        /* \"#utility.yul\":10223:10295   */\n      tag_174\n      jump\t// in\n    tag_309:\n        /* \"#utility.yul\":10305:10377   */\n      tag_310\n        /* \"#utility.yul\":10373:10375   */\n      0x40\n        /* \"#utility.yul\":10362:10371   */\n      dup4\n        /* \"#utility.yul\":10358:10376   */\n      add\n        /* \"#utility.yul\":10349:10355   */\n      dup5\n        /* \"#utility.yul\":10305:10377   */\n      tag_194\n      jump\t// in\n    tag_310:\n        /* \"#utility.yul\":9942:10384   */\n      swap5\n      swap4\n      pop\n      pop\n      pop\n      pop\n      jump\t// out\n        /* \"#utility.yul\":10390:10480   */\n    tag_195:\n        /* \"#utility.yul\":10424:10431   */\n      0x00\n        /* \"#utility.yul\":10467:10472   */\n      dup2\n        /* \"#utility.yul\":10460:10473   */\n      iszero\n        /* \"#utility.yul\":10453:10474   */\n      iszero\n        /* \"#utility.yul\":10442:10474   */\n      swap1\n      pop\n        /* \"#utility.yul\":10390:10480   */\n      swap2\n      swap1\n      pop\n      jump\t// out\n        /* \"#utility.yul\":10486:10602   */\n    tag_196:\n        /* \"#utility.yul\":10556:10577   */\n      tag_313\n        /* \"#utility.yul\":10571:10576   */\n      dup2\n        /* \"#utility.yul\":10556:10577   */\n      tag_195\n      jump\t// in\n    tag_313:\n        /* \"#utility.yul\":10549:10554   */\n      dup2\n        /* \"#utility.yul\":10546:10578   */\n      eq\n        /* \"#utility.yul\":10536:10596   */\n      tag_314\n      jumpi\n        /* \"#utility.yul\":10592:10593   */\n      0x00\n        /* \"#utility.yul\":10589:10590   */\n      0x00\n        /* \"#utility.yul\":10582:10594   */\n      revert\n        /* \"#utility.yul\":10536:10596   */\n    tag_314:\n        /* \"#utility.yul\":10486:10602   */\n      pop\n      jump\t// out\n        /* \"#utility.yul\":10608:10745   */\n    tag_197:\n        /* \"#utility.yul\":10662:10667   */\n      0x00\n        /* \"#utility.yul\":10693:10699   */\n      dup2\n        /* \"#utility.yul\":10687:10700   */\n      mload\n        /* \"#utility.yul\":10678:10700   */\n      swap1\n      pop\n        /* \"#utility.yul\":10709:10739   */\n      tag_316\n        /* \"#utility.yul\":10733:10738   */\n      dup2\n        /* \"#utility.yul\":10709:10739   */\n      tag_196\n      jump\t// in\n    tag_316:\n        /* \"#utility.yul\":10608:10745   */\n      swap3\n      swap2\n      pop\n      pop\n      jump\t// out\n        /* \"#utility.yul\":10751:11096   */\n    tag_70:\n        /* \"#utility.yul\":10818:10824   */\n      0x00\n        /* \"#utility.yul\":10867:10869   */\n      0x20\n        /* \"#utility.yul\":10855:10864   */\n      dup3\n        /* \"#utility.yul\":10846:10853   */\n      dup5\n        /* \"#utility.yul\":10842:10865   */\n      sub\n        /* \"#utility.yul\":10838:10870   */\n      slt\n        /* \"#utility.yul\":10835:10954   */\n      iszero\n      tag_318\n      jumpi\n        /* \"#utility.yul\":10873:10952   */\n      tag_319\n      tag_161\n      jump\t// in\n    tag_319:\n        /* \"#utility.yul\":10835:10954   */\n    tag_318:\n        /* \"#utility.yul\":10993:10994   */\n      0x00\n        /* \"#utility.yul\":11018:11079   */\n      tag_320\n        /* \"#utility.yul\":11071:11078   */\n      dup5\n        /* \"#utility.yul\":11062:11068   */\n      dup3\n        /* \"#utility.yul\":11051:11060   */\n      dup6\n        /* \"#utility.yul\":11047:11069   */\n      add\n        /* \"#utility.yul\":11018:11079   */\n      tag_197\n      jump\t// in\n    tag_320:\n        /* \"#utility.yul\":11008:11079   */\n      swap2\n      pop\n        /* \"#utility.yul\":10964:11089   */\n      pop\n        /* \"#utility.yul\":10751:11096   */\n      swap3\n      swap2\n      pop\n      pop\n      jump\t// out\n        /* \"#utility.yul\":11102:11273   */\n    tag_198:\n        /* \"#utility.yul\":11242:11265   */\n      0x546f6b656e207472616e73666572206661696c65640000000000000000000000\n        /* \"#utility.yul\":11238:11239   */\n      0x00\n        /* \"#utility.yul\":11230:11236   */\n      dup3\n        /* \"#utility.yul\":11226:11240   */\n      add\n        /* \"#utility.yul\":11219:11266   */\n      mstore\n        /* \"#utility.yul\":11102:11273   */\n      pop\n      jump\t// out\n        /* \"#utility.yul\":11279:11645   */\n    tag_199:\n        /* \"#utility.yul\":11421:11424   */\n      0x00\n        /* \"#utility.yul\":11442:11509   */\n      tag_323\n        /* \"#utility.yul\":11506:11508   */\n      0x15\n        /* \"#utility.yul\":11501:11504   */\n      dup4\n        /* \"#utility.yul\":11442:11509   */\n      tag_186\n      jump\t// in\n    tag_323:\n        /* \"#utility.yul\":11435:11509   */\n      swap2\n      pop\n        /* \"#utility.yul\":11518:11611   */\n      tag_324\n        /* \"#utility.yul\":11607:11610   */\n      dup3\n        /* \"#utility.yul\":11518:11611   */\n      tag_198\n      jump\t// in\n    tag_324:\n        /* \"#utility.yul\":11636:11638   */\n      0x20\n        /* \"#utility.yul\":11631:11634   */\n      dup3\n        /* \"#utility.yul\":11627:11639   */\n      add\n        /* \"#utility.yul\":11620:11639   */\n      swap1\n      pop\n        /* \"#utility.yul\":11279:11645   */\n      swap2\n      swap1\n      pop\n      jump\t// out\n        /* \"#utility.yul\":11651:12070   */\n    tag_73:\n        /* \"#utility.yul\":11817:11821   */\n      0x00\n        /* \"#utility.yul\":11855:11857   */\n      0x20\n        /* \"#utility.yul\":11844:11853   */\n      dup3\n        /* \"#utility.yul\":11840:11858   */\n      add\n        /* \"#utility.yul\":11832:11858   */\n      swap1\n      pop\n        /* \"#utility.yul\":11904:11913   */\n      dup2\n        /* \"#utility.yul\":11898:11902   */\n      dup2\n        /* \"#utility.yul\":11894:11914   */\n      sub\n        /* \"#utility.yul\":11890:11891   */\n      0x00\n        /* \"#utility.yul\":11879:11888   */\n      dup4\n        /* \"#utility.yul\":11875:11892   */\n      add\n        /* \"#utility.yul\":11868:11915   */\n      mstore\n        /* \"#utility.yul\":11932:12063   */\n      tag_326\n        /* \"#utility.yul\":12058:12062   */\n      dup2\n        /* \"#utility.yul\":11932:12063   */\n      tag_199\n      jump\t// in\n    tag_326:\n        /* \"#utility.yul\":11924:12063   */\n      swap1\n      pop\n        /* \"#utility.yul\":11651:12070   */\n      swap2\n      swap1\n      pop\n      jump\t// out\n        /* \"#utility.yul\":12076:12408   */\n    tag_75:\n        /* \"#utility.yul\":12197:12201   */\n      0x00\n        /* \"#utility.yul\":12235:12237   */\n      0x40\n        /* \"#utility.yul\":12224:12233   */\n      dup3\n        /* \"#utility.yul\":12220:12238   */\n      add\n        /* \"#utility.yul\":12212:12238   */\n      swap1\n      pop\n        /* \"#utility.yul\":12248:12319   */\n      tag_328\n        /* \"#utility.yul\":12316:12317   */\n      0x00\n        /* \"#utility.yul\":12305:12314   */\n      dup4\n        /* \"#utility.yul\":12301:12318   */\n      add\n        /* \"#utility.yul\":12292:12298   */\n      dup6\n        /* \"#utility.yul\":12248:12319   */\n      tag_194\n      jump\t// in\n    tag_328:\n        /* \"#utility.yul\":12329:12401   */\n      tag_329\n        /* \"#utility.yul\":12397:12399   */\n      0x20\n        /* \"#utility.yul\":12386:12395   */\n      dup4\n        /* \"#utility.yul\":12382:12400   */\n      add\n        /* \"#utility.yul\":12373:12379   */\n      dup5\n        /* \"#utility.yul\":12329:12401   */\n      tag_194\n      jump\t// in\n    tag_329:\n        /* \"#utility.yul\":12076:12408   */\n      swap4\n      swap3\n      pop\n      pop\n      pop\n      jump\t// out\n        /* \"#utility.yul\":12414:12746   */\n    tag_88:\n        /* \"#utility.yul\":12535:12539   */\n      0x00\n        /* \"#utility.yul\":12573:12575   */\n      0x40\n        /* \"#utility.yul\":12562:12571   */\n      dup3\n        /* \"#utility.yul\":12558:12576   */\n      add\n        /* \"#utility.yul\":12550:12576   */\n      swap1\n      pop\n        /* \"#utility.yul\":12586:12657   */\n      tag_331\n        /* \"#utility.yul\":12654:12655   */\n      0x00\n        /* \"#utility.yul\":12643:12652   */\n      dup4\n        /* \"#utility.yul\":12639:12656   */\n      add\n        /* \"#utility.yul\":12630:12636   */\n      dup6\n        /* \"#utility.yul\":12586:12657   */\n      tag_174\n      jump\t// in\n    tag_331:\n        /* \"#utility.yul\":12667:12739   */\n      tag_332\n        /* \"#utility.yul\":12735:12737   */\n      0x20\n        /* \"#utility.yul\":12724:12733   */\n      dup4\n        /* \"#utility.yul\":12720:12738   */\n      add\n        /* \"#utility.yul\":12711:12717   */\n      dup5\n        /* \"#utility.yul\":12667:12739   */\n      tag_194\n      jump\t// in\n    tag_332:\n        /* \"#utility.yul\":12414:12746   */\n      swap4\n      swap3\n      pop\n      pop\n      pop\n      jump\t// out\n        /* \"#utility.yul\":12752:12932   */\n    tag_126:\n        /* \"#utility.yul\":12800:12877   */\n      0x4e487b7100000000000000000000000000000000000000000000000000000000\n        /* \"#utility.yul\":12797:12798   */\n      0x00\n        /* \"#utility.yul\":12790:12878   */\n      mstore\n        /* \"#utility.yul\":12897:12901   */\n      0x21\n        /* \"#utility.yul\":12894:12895   */\n      0x04\n        /* \"#utility.yul\":12887:12902   */\n      mstore\n        /* \"#utility.yul\":12921:12925   */\n      0x24\n        /* \"#utility.yul\":12918:12919   */\n      0x00\n        /* \"#utility.yul\":12911:12926   */\n      revert\n        /* \"#utility.yul\":12938:13160   */\n    tag_143:\n        /* \"#utility.yul\":13031:13035   */\n      0x00\n        /* \"#utility.yul\":13069:13071   */\n      0x20\n        /* \"#utility.yul\":13058:13067   */\n      dup3\n        /* \"#utility.yul\":13054:13072   */\n      add\n        /* \"#utility.yul\":13046:13072   */\n      swap1\n      pop\n        /* \"#utility.yul\":13082:13153   */\n      tag_335\n        /* \"#utility.yul\":13150:13151   */\n      0x00\n        /* \"#utility.yul\":13139:13148   */\n      dup4\n        /* \"#utility.yul\":13135:13152   */\n      add\n        /* \"#utility.yul\":13126:13132   */\n      dup5\n        /* \"#utility.yul\":13082:13153   */\n      tag_194\n      jump\t// in\n    tag_335:\n        /* \"#utility.yul\":12938:13160   */\n      swap3\n      swap2\n      pop\n      pop\n      jump\t// out\n        /* \"#utility.yul\":13166:13243   */\n    tag_200:\n        /* \"#utility.yul\":13203:13210   */\n      0x00\n        /* \"#utility.yul\":13232:13237   */\n      dup2\n        /* \"#utility.yul\":13221:13237   */\n      swap1\n      pop\n        /* \"#utility.yul\":13166:13243   */\n      swap2\n      swap1\n      pop\n      jump\t// out\n        /* \"#utility.yul\":13249:13367   */\n    tag_201:\n        /* \"#utility.yul\":13336:13360   */\n      tag_338\n        /* \"#utility.yul\":13354:13359   */\n      dup2\n        /* \"#utility.yul\":13336:13360   */\n      tag_200\n      jump\t// in\n    tag_338:\n        /* \"#utility.yul\":13331:13334   */\n      dup3\n        /* \"#utility.yul\":13324:13361   */\n      mstore\n        /* \"#utility.yul\":13249:13367   */\n      pop\n      pop\n      jump\t// out\n        /* \"#utility.yul\":13373:13595   */\n    tag_151:\n        /* \"#utility.yul\":13466:13470   */\n      0x00\n        /* \"#utility.yul\":13504:13506   */\n      0x20\n        /* \"#utility.yul\":13493:13502   */\n      dup3\n        /* \"#utility.yul\":13489:13507   */\n      add\n        /* \"#utility.yul\":13481:13507   */\n      swap1\n      pop\n        /* \"#utility.yul\":13517:13588   */\n      tag_340\n        /* \"#utility.yul\":13585:13586   */\n      0x00\n        /* \"#utility.yul\":13574:13583   */\n      dup4\n        /* \"#utility.yul\":13570:13587   */\n      add\n        /* \"#utility.yul\":13561:13567   */\n      dup5\n        /* \"#utility.yul\":13517:13588   */\n      tag_201\n      jump\t// in\n    tag_340:\n        /* \"#utility.yul\":13373:13595   */\n      swap3\n      swap2\n      pop\n      pop\n      jump\t// out\n        /* \"#utility.yul\":13601:13687   */\n    tag_202:\n        /* \"#utility.yul\":13636:13643   */\n      0x00\n        /* \"#utility.yul\":13676:13680   */\n      0xff\n        /* \"#utility.yul\":13669:13674   */\n      dup3\n        /* \"#utility.yul\":13665:13681   */\n      and\n        /* \"#utility.yul\":13654:13681   */\n      swap1\n      pop\n        /* \"#utility.yul\":13601:13687   */\n      swap2\n      swap1\n      pop\n      jump\t// out\n        /* \"#utility.yul\":13693:13805   */\n    tag_203:\n        /* \"#utility.yul\":13776:13798   */\n      tag_343\n        /* \"#utility.yul\":13792:13797   */\n      dup2\n        /* \"#utility.yul\":13776:13798   */\n      tag_202\n      jump\t// in\n    tag_343:\n        /* \"#utility.yul\":13771:13774   */\n      dup3\n        /* \"#utility.yul\":13764:13799   */\n      mstore\n        /* \"#utility.yul\":13693:13805   */\n      pop\n      pop\n      jump\t// out\n        /* \"#utility.yul\":13811:14356   */\n    tag_156:\n        /* \"#utility.yul\":13984:13988   */\n      0x00\n        /* \"#utility.yul\":14022:14025   */\n      0x80\n        /* \"#utility.yul\":14011:14020   */\n      dup3\n        /* \"#utility.yul\":14007:14026   */\n      add\n        /* \"#utility.yul\":13999:14026   */\n      swap1\n      pop\n        /* \"#utility.yul\":14036:14107   */\n      tag_345\n        /* \"#utility.yul\":14104:14105   */\n      0x00\n        /* \"#utility.yul\":14093:14102   */\n      dup4\n        /* \"#utility.yul\":14089:14106   */\n      add\n        /* \"#utility.yul\":14080:14086   */\n      dup8\n        /* \"#utility.yul\":14036:14107   */\n      tag_201\n      jump\t// in\n    tag_345:\n        /* \"#utility.yul\":14117:14185   */\n      tag_346\n        /* \"#utility.yul\":14181:14183   */\n      0x20\n        /* \"#utility.yul\":14170:14179   */\n      dup4\n        /* \"#utility.yul\":14166:14184   */\n      add\n        /* \"#utility.yul\":14157:14163   */\n      dup7\n        /* \"#utility.yul\":14117:14185   */\n      tag_203\n      jump\t// in\n    tag_346:\n        /* \"#utility.yul\":14195:14267   */\n      tag_347\n        /* \"#utility.yul\":14263:14265   */\n      0x40\n        /* \"#utility.yul\":14252:14261   */\n      dup4\n        /* \"#utility.yul\":14248:14266   */\n      add\n        /* \"#utility.yul\":14239:14245   */\n      dup6\n        /* \"#utility.yul\":14195:14267   */\n      tag_201\n      jump\t// in\n    tag_347:\n        /* \"#utility.yul\":14277:14349   */\n      tag_348\n        /* \"#utility.yul\":14345:14347   */\n      0x60\n        /* \"#utility.yul\":14334:14343   */\n      dup4\n        /* \"#utility.yul\":14330:14348   */\n      add\n        /* \"#utility.yul\":14321:14327   */\n      dup5\n        /* \"#utility.yul\":14277:14349   */\n      tag_201\n      jump\t// in\n    tag_348:\n        /* \"#utility.yul\":13811:14356   */\n      swap6\n      swap5\n      pop\n      pop\n      pop\n      pop\n      pop\n      jump\t// out\n\n    auxdata: 0xa2646970667358221220ce92b9bc93261c61a3d720351602c911df5e926e3c5fed0365a24f744fcd2a2964736f6c634300081f0033\n}\n",
				"bytecode": {
					"linkReferences": {},
					"object": "608060405234801561000f575f5ffd5b5060405161162838038061162883398181016040528101906100319190610258565b335f73ffffffffffffffffffffffffffffffffffffffff168173ffffffffffffffffffffffffffffffffffffffff16036100a2575f6040517f1e4fbdf700000000000000000000000000000000000000000000000000000000815260040161009991906102a5565b60405180910390fd5b6100b18161013960201b60201c565b508160015f6101000a81548173ffffffffffffffffffffffffffffffffffffffff021916908373ffffffffffffffffffffffffffffffffffffffff1602179055508060025f6101000a81548173ffffffffffffffffffffffffffffffffffffffff021916908373ffffffffffffffffffffffffffffffffffffffff16021790555050506102be565b5f5f5f9054906101000a900473ffffffffffffffffffffffffffffffffffffffff169050815f5f6101000a81548173ffffffffffffffffffffffffffffffffffffffff021916908373ffffffffffffffffffffffffffffffffffffffff1602179055508173ffffffffffffffffffffffffffffffffffffffff168173ffffffffffffffffffffffffffffffffffffffff167f8be0079c531659141344cd1fd0a4f28419497f9722a3daafe3b4186f6b6457e060405160405180910390a35050565b5f5ffd5b5f73ffffffffffffffffffffffffffffffffffffffff82169050919050565b5f610227826101fe565b9050919050565b6102378161021d565b8114610241575f5ffd5b50565b5f815190506102528161022e565b92915050565b5f5f6040838503121561026e5761026d6101fa565b5b5f61027b85828601610244565b925050602061028c85828601610244565b9150509250929050565b61029f8161021d565b82525050565b5f6020820190506102b85f830184610296565b92915050565b61135d806102cb5f395ff3fe608060405234801561000f575f5ffd5b5060043610610086575f3560e01c8063715018a611610059578063715018a6146100fc5780638455d8d5146101065780638da5cb5b14610124578063f2fde38b1461014257610086565b80633237c1181461008a57806336f95670146100a657806349df728c146100c257806365d65e86146100de575b5f5ffd5b6100a4600480360381019061009f9190610cf1565b61015e565b005b6100c060048036038101906100bb9190610dbc565b610573565b005b6100dc60048036038101906100d79190610dbc565b6105be565b005b6100e6610703565b6040516100f39190610df6565b60405180910390f35b610104610728565b005b61010e61073b565b60405161011b9190610e6a565b60405180910390f35b61012c610760565b6040516101399190610df6565b60405180910390f35b61015c60048036038101906101579190610dbc565b610787565b005b5f33858560405160200161017493929190610ee8565b6040516020818303038152906040528051906020012090505f6101968261080b565b90505f6101ef85858080601f0160208091040260200160405190810160405280939291908181526020018383808284375f81840152601f19601f820116905080830192505050505050508361083e90919063ffffffff16565b905060025f9054906101000a900473ffffffffffffffffffffffffffffffffffffffff1673ffffffffffffffffffffffffffffffffffffffff168173ffffffffffffffffffffffffffffffffffffffff1614610280576040517f08c379a000000000000000000000000000000000000000000000000000000000815260040161027790610fa4565b60405180910390fd5b8560015f9054906101000a900473ffffffffffffffffffffffffffffffffffffffff1673ffffffffffffffffffffffffffffffffffffffff166370a08231336040518263ffffffff1660e01b81526004016102db9190610df6565b602060405180830381865afa1580156102f6573d5f5f3e3d5ffd5b505050506040513d601f19601f8201168201806040525081019061031a9190610fd6565b101561035b576040517f08c379a00000000000000000000000000000000000000000000000000000000081526004016103529061104b565b60405180910390fd5b8560015f9054906101000a900473ffffffffffffffffffffffffffffffffffffffff1673ffffffffffffffffffffffffffffffffffffffff1663dd62ed3e33306040518363ffffffff1660e01b81526004016103b8929190611069565b602060405180830381865afa1580156103d3573d5f5f3e3d5ffd5b505050506040513d601f19601f820116820180604052508101906103f79190610fd6565b1015610438576040517f08c379a000000000000000000000000000000000000000000000000000000000815260040161042f906110da565b60405180910390fd5b5f60015f9054906101000a900473ffffffffffffffffffffffffffffffffffffffff1673ffffffffffffffffffffffffffffffffffffffff166323b872dd33308a6040518463ffffffff1660e01b815260040161049793929190611107565b6020604051808303815f875af11580156104b3573d5f5f3e3d5ffd5b505050506040513d601f19601f820116820180604052508101906104d79190611171565b905080610519576040517f08c379a0000000000000000000000000000000000000000000000000000000008152600401610510906111e6565b60405180910390fd5b3373ffffffffffffffffffffffffffffffffffffffff167f1452773cf753d0d7c71ed9990f7c7e2bdde4a2d08d187b3647953877e400488d8989604051610561929190611204565b60405180910390a25050505050505050565b61057b610868565b8060025f6101000a81548173ffffffffffffffffffffffffffffffffffffffff021916908373ffffffffffffffffffffffffffffffffffffffff16021790555050565b6105c6610868565b5f60015f9054906101000a900473ffffffffffffffffffffffffffffffffffffffff1673ffffffffffffffffffffffffffffffffffffffff166370a08231306040518263ffffffff1660e01b81526004016106219190610df6565b602060405180830381865afa15801561063c573d5f5f3e3d5ffd5b505050506040513d601f19601f820116820180604052508101906106609190610fd6565b905060015f9054906101000a900473ffffffffffffffffffffffffffffffffffffffff1673ffffffffffffffffffffffffffffffffffffffff1663a9059cbb83836040518363ffffffff1660e01b81526004016106be92919061122b565b6020604051808303815f875af11580156106da573d5f5f3e3d5ffd5b505050506040513d601f19601f820116820180604052508101906106fe9190611171565b505050565b60025f9054906101000a900473ffffffffffffffffffffffffffffffffffffffff1681565b610730610868565b6107395f6108ef565b565b60015f9054906101000a900473ffffffffffffffffffffffffffffffffffffffff1681565b5f5f5f9054906101000a900473ffffffffffffffffffffffffffffffffffffffff16905090565b61078f610868565b5f73ffffffffffffffffffffffffffffffffffffffff168173ffffffffffffffffffffffffffffffffffffffff16036107ff575f6040517f1e4fbdf70000000000000000000000000000000000000000000000000000000081526004016107f69190610df6565b60405180910390fd5b610808816108ef565b50565b5f7f19457468657265756d205369676e6564204d6573736167653a0a3332000000005f5281601c52603c5f209050919050565b5f5f5f5f61084c86866109b0565b92509250925061085c8282610a05565b82935050505092915050565b610870610b67565b73ffffffffffffffffffffffffffffffffffffffff1661088e610760565b73ffffffffffffffffffffffffffffffffffffffff16146108ed576108b1610b67565b6040517f118cdaa70000000000000000000000000000000000000000000000000000000081526004016108e49190610df6565b60405180910390fd5b565b5f5f5f9054906101000a900473ffffffffffffffffffffffffffffffffffffffff169050815f5f6101000a81548173ffffffffffffffffffffffffffffffffffffffff021916908373ffffffffffffffffffffffffffffffffffffffff1602179055508173ffffffffffffffffffffffffffffffffffffffff168173ffffffffffffffffffffffffffffffffffffffff167f8be0079c531659141344cd1fd0a4f28419497f9722a3daafe3b4186f6b6457e060405160405180910390a35050565b5f5f5f60418451036109f0575f5f5f602087015192506040870151915060608701515f1a90506109e288828585610b6e565b9550955095505050506109fe565b5f600285515f1b9250925092505b9250925092565b5f6003811115610a1857610a17611252565b5b826003811115610a2b57610a2a611252565b5b0315610b635760016003811115610a4557610a44611252565b5b826003811115610a5857610a57611252565b5b03610a8f576040517ff645eedf00000000000000000000000000000000000000000000000000000000815260040160405180910390fd5b60026003811115610aa357610aa2611252565b5b826003811115610ab657610ab5611252565b5b03610afa57805f1c6040517ffce698f7000000000000000000000000000000000000000000000000000000008152600401610af1919061127f565b60405180910390fd5b600380811115610b0d57610b0c611252565b5b826003811115610b2057610b1f611252565b5b03610b6257806040517fd78bce0c000000000000000000000000000000000000000000000000000000008152600401610b5991906112b0565b60405180910390fd5b5b5050565b5f33905090565b5f5f5f7f7fffffffffffffffffffffffffffffff5d576e7357a4501ddfe92f46681b20a0845f1c1115610baa575f600385925092509250610c4b565b5f6001888888886040515f8152602001604052604051610bcd94939291906112e4565b6020604051602081039080840390855afa158015610bed573d5f5f3e3d5ffd5b5050506020604051035190505f73ffffffffffffffffffffffffffffffffffffffff168173ffffffffffffffffffffffffffffffffffffffff1603610c3e575f60015f5f1b93509350935050610c4b565b805f5f5f1b935093509350505b9450945094915050565b5f5ffd5b5f5ffd5b5f819050919050565b610c6f81610c5d565b8114610c79575f5ffd5b50565b5f81359050610c8a81610c66565b92915050565b5f5ffd5b5f5ffd5b5f5ffd5b5f5f83601f840112610cb157610cb0610c90565b5b8235905067ffffffffffffffff811115610cce57610ccd610c94565b5b602083019150836001820283011115610cea57610ce9610c98565b5b9250929050565b5f5f5f5f60608587031215610d0957610d08610c55565b5b5f610d1687828801610c7c565b9450506020610d2787828801610c7c565b935050604085013567ffffffffffffffff811115610d4857610d47610c59565b5b610d5487828801610c9c565b925092505092959194509250565b5f73ffffffffffffffffffffffffffffffffffffffff82169050919050565b5f610d8b82610d62565b9050919050565b610d9b81610d81565b8114610da5575f5ffd5b50565b5f81359050610db681610d92565b92915050565b5f60208284031215610dd157610dd0610c55565b5b5f610dde84828501610da8565b91505092915050565b610df081610d81565b82525050565b5f602082019050610e095f830184610de7565b92915050565b5f819050919050565b5f610e32610e2d610e2884610d62565b610e0f565b610d62565b9050919050565b5f610e4382610e18565b9050919050565b5f610e5482610e39565b9050919050565b610e6481610e4a565b82525050565b5f602082019050610e7d5f830184610e5b565b92915050565b5f8160601b9050919050565b5f610e9982610e83565b9050919050565b5f610eaa82610e8f565b9050919050565b610ec2610ebd82610d81565b610ea0565b82525050565b5f819050919050565b610ee2610edd82610c5d565b610ec8565b82525050565b5f610ef38286610eb1565b601482019150610f038285610ed1565b602082019150610f138284610ed1565b602082019150819050949350505050565b5f82825260208201905092915050565b7f496e76616c6964207369676e61747572653a20536563757269747920636865635f8201527f6b206661696c6564000000000000000000000000000000000000000000000000602082015250565b5f610f8e602883610f24565b9150610f9982610f34565b604082019050919050565b5f6020820190508181035f830152610fbb81610f82565b9050919050565b5f81519050610fd081610c66565b92915050565b5f60208284031215610feb57610fea610c55565b5b5f610ff884828501610fc2565b91505092915050565b7f496e73756666696369656e74204348482062616c616e636500000000000000005f82015250565b5f611035601883610f24565b915061104082611001565b602082019050919050565b5f6020820190508181035f83015261106281611029565b9050919050565b5f60408201905061107c5f830185610de7565b6110896020830184610de7565b9392505050565b7f546f6b656e206e6f7420617070726f76656400000000000000000000000000005f82015250565b5f6110c4601283610f24565b91506110cf82611090565b602082019050919050565b5f6020820190508181035f8301526110f1816110b8565b9050919050565b61110181610c5d565b82525050565b5f60608201905061111a5f830186610de7565b6111276020830185610de7565b61113460408301846110f8565b949350505050565b5f8115159050919050565b6111508161113c565b811461115a575f5ffd5b50565b5f8151905061116b81611147565b92915050565b5f6020828403121561118657611185610c55565b5b5f6111938482850161115d565b91505092915050565b7f546f6b656e207472616e73666572206661696c656400000000000000000000005f82015250565b5f6111d0601583610f24565b91506111db8261119c565b602082019050919050565b5f6020820190508181035f8301526111fd816111c4565b9050919050565b5f6040820190506112175f8301856110f8565b61122460208301846110f8565b9392505050565b5f60408201905061123e5f830185610de7565b61124b60208301846110f8565b9392505050565b7f4e487b71000000000000000000000000000000000000000000000000000000005f52602160045260245ffd5b5f6020820190506112925f8301846110f8565b92915050565b5f819050919050565b6112aa81611298565b82525050565b5f6020820190506112c35f8301846112a1565b92915050565b5f60ff82169050919050565b6112de816112c9565b82525050565b5f6080820190506112f75f8301876112a1565b61130460208301866112d5565b61131160408301856112a1565b61131e60608301846112a1565b9594505050505056fea2646970667358221220ce92b9bc93261c61a3d720351602c911df5e926e3c5fed0365a24f744fcd2a2964736f6c634300081f0033",
					"opcodes": "PUSH1 0x80 PUSH1 0x40 MSTORE CALLVALUE DUP1 ISZERO PUSH2 0xF JUMPI PUSH0 PUSH0 REVERT JUMPDEST POP PUSH1 0x40 MLOAD PUSH2 0x1628 CODESIZE SUB DUP1 PUSH2 0x1628 DUP4 CODECOPY DUP2 DUP2 ADD PUSH1 0x40 MSTORE DUP2 ADD SWAP1 PUSH2 0x31 SWAP2 SWAP1 PUSH2 0x258 JUMP JUMPDEST CALLER PUSH0 PUSH20 0xFFFFFFFFFFFFFFFFFFFFFFFFFFFFFFFFFFFFFFFF AND DUP2 PUSH20 0xFFFFFFFFFFFFFFFFFFFFFFFFFFFFFFFFFFFFFFFF AND SUB PUSH2 0xA2 JUMPI PUSH0 PUSH1 0x40 MLOAD PUSH32 0x1E4FBDF700000000000000000000000000000000000000000000000000000000 DUP2 MSTORE PUSH1 0x4 ADD PUSH2 0x99 SWAP2 SWAP1 PUSH2 0x2A5 JUMP JUMPDEST PUSH1 0x40 MLOAD DUP1 SWAP2 SUB SWAP1 REVERT JUMPDEST PUSH2 0xB1 DUP2 PUSH2 0x139 PUSH1 0x20 SHL PUSH1 0x20 SHR JUMP JUMPDEST POP DUP2 PUSH1 0x1 PUSH0 PUSH2 0x100 EXP DUP2 SLOAD DUP2 PUSH20 0xFFFFFFFFFFFFFFFFFFFFFFFFFFFFFFFFFFFFFFFF MUL NOT AND SWAP1 DUP4 PUSH20 0xFFFFFFFFFFFFFFFFFFFFFFFFFFFFFFFFFFFFFFFF AND MUL OR SWAP1 SSTORE POP DUP1 PUSH1 0x2 PUSH0 PUSH2 0x100 EXP DUP2 SLOAD DUP2 PUSH20 0xFFFFFFFFFFFFFFFFFFFFFFFFFFFFFFFFFFFFFFFF MUL NOT AND SWAP1 DUP4 PUSH20 0xFFFFFFFFFFFFFFFFFFFFFFFFFFFFFFFFFFFFFFFF AND MUL OR SWAP1 SSTORE POP POP POP PUSH2 0x2BE JUMP JUMPDEST PUSH0 PUSH0 PUSH0 SWAP1 SLOAD SWAP1 PUSH2 0x100 EXP SWAP1 DIV PUSH20 0xFFFFFFFFFFFFFFFFFFFFFFFFFFFFFFFFFFFFFFFF AND SWAP1 POP DUP2 PUSH0 PUSH0 PUSH2 0x100 EXP DUP2 SLOAD DUP2 PUSH20 0xFFFFFFFFFFFFFFFFFFFFFFFFFFFFFFFFFFFFFFFF MUL NOT AND SWAP1 DUP4 PUSH20 0xFFFFFFFFFFFFFFFFFFFFFFFFFFFFFFFFFFFFFFFF AND MUL OR SWAP1 SSTORE POP DUP2 PUSH20 0xFFFFFFFFFFFFFFFFFFFFFFFFFFFFFFFFFFFFFFFF AND DUP2 PUSH20 0xFFFFFFFFFFFFFFFFFFFFFFFFFFFFFFFFFFFFFFFF AND PUSH32 0x8BE0079C531659141344CD1FD0A4F28419497F9722A3DAAFE3B4186F6B6457E0 PUSH1 0x40 MLOAD PUSH1 0x40 MLOAD DUP1 SWAP2 SUB SWAP1 LOG3 POP POP JUMP JUMPDEST PUSH0 PUSH0 REVERT JUMPDEST PUSH0 PUSH20 0xFFFFFFFFFFFFFFFFFFFFFFFFFFFFFFFFFFFFFFFF DUP3 AND SWAP1 POP SWAP2 SWAP1 POP JUMP JUMPDEST PUSH0 PUSH2 0x227 DUP3 PUSH2 0x1FE JUMP JUMPDEST SWAP1 POP SWAP2 SWAP1 POP JUMP JUMPDEST PUSH2 0x237 DUP2 PUSH2 0x21D JUMP JUMPDEST DUP2 EQ PUSH2 0x241 JUMPI PUSH0 PUSH0 REVERT JUMPDEST POP JUMP JUMPDEST PUSH0 DUP2 MLOAD SWAP1 POP PUSH2 0x252 DUP2 PUSH2 0x22E JUMP JUMPDEST SWAP3 SWAP2 POP POP JUMP JUMPDEST PUSH0 PUSH0 PUSH1 0x40 DUP4 DUP6 SUB SLT ISZERO PUSH2 0x26E JUMPI PUSH2 0x26D PUSH2 0x1FA JUMP JUMPDEST JUMPDEST PUSH0 PUSH2 0x27B DUP6 DUP3 DUP7 ADD PUSH2 0x244 JUMP JUMPDEST SWAP3 POP POP PUSH1 0x20 PUSH2 0x28C DUP6 DUP3 DUP7 ADD PUSH2 0x244 JUMP JUMPDEST SWAP2 POP POP SWAP3 POP SWAP3 SWAP1 POP JUMP JUMPDEST PUSH2 0x29F DUP2 PUSH2 0x21D JUMP JUMPDEST DUP3 MSTORE POP POP JUMP JUMPDEST PUSH0 PUSH1 0x20 DUP3 ADD SWAP1 POP PUSH2 0x2B8 PUSH0 DUP4 ADD DUP5 PUSH2 0x296 JUMP JUMPDEST SWAP3 SWAP2 POP POP JUMP JUMPDEST PUSH2 0x135D DUP1 PUSH2 0x2CB PUSH0 CODECOPY PUSH0 RETURN INVALID PUSH1 0x80 PUSH1 0x40 MSTORE CALLVALUE DUP1 ISZERO PUSH2 0xF JUMPI PUSH0 PUSH0 REVERT JUMPDEST POP PUSH1 0x4 CALLDATASIZE LT PUSH2 0x86 JUMPI PUSH0 CALLDATALOAD PUSH1 0xE0 SHR DUP1 PUSH4 0x715018A6 GT PUSH2 0x59 JUMPI DUP1 PUSH4 0x715018A6 EQ PUSH2 0xFC JUMPI DUP1 PUSH4 0x8455D8D5 EQ PUSH2 0x106 JUMPI DUP1 PUSH4 0x8DA5CB5B EQ PUSH2 0x124 JUMPI DUP1 PUSH4 0xF2FDE38B EQ PUSH2 0x142 JUMPI PUSH2 0x86 JUMP JUMPDEST DUP1 PUSH4 0x3237C118 EQ PUSH2 0x8A JUMPI DUP1 PUSH4 0x36F95670 EQ PUSH2 0xA6 JUMPI DUP1 PUSH4 0x49DF728C EQ PUSH2 0xC2 JUMPI DUP1 PUSH4 0x65D65E86 EQ PUSH2 0xDE JUMPI JUMPDEST PUSH0 PUSH0 REVERT JUMPDEST PUSH2 0xA4 PUSH1 0x4 DUP1 CALLDATASIZE SUB DUP2 ADD SWAP1 PUSH2 0x9F SWAP2 SWAP1 PUSH2 0xCF1 JUMP JUMPDEST PUSH2 0x15E JUMP JUMPDEST STOP JUMPDEST PUSH2 0xC0 PUSH1 0x4 DUP1 CALLDATASIZE SUB DUP2 ADD SWAP1 PUSH2 0xBB SWAP2 SWAP1 PUSH2 0xDBC JUMP JUMPDEST PUSH2 0x573 JUMP JUMPDEST STOP JUMPDEST PUSH2 0xDC PUSH1 0x4 DUP1 CALLDATASIZE SUB DUP2 ADD SWAP1 PUSH2 0xD7 SWAP2 SWAP1 PUSH2 0xDBC JUMP JUMPDEST PUSH2 0x5BE JUMP JUMPDEST STOP JUMPDEST PUSH2 0xE6 PUSH2 0x703 JUMP JUMPDEST PUSH1 0x40 MLOAD PUSH2 0xF3 SWAP2 SWAP1 PUSH2 0xDF6 JUMP JUMPDEST PUSH1 0x40 MLOAD DUP1 SWAP2 SUB SWAP1 RETURN JUMPDEST PUSH2 0x104 PUSH2 0x728 JUMP JUMPDEST STOP JUMPDEST PUSH2 0x10E PUSH2 0x73B JUMP JUMPDEST PUSH1 0x40 MLOAD PUSH2 0x11B SWAP2 SWAP1 PUSH2 0xE6A JUMP JUMPDEST PUSH1 0x40 MLOAD DUP1 SWAP2 SUB SWAP1 RETURN JUMPDEST PUSH2 0x12C PUSH2 0x760 JUMP JUMPDEST PUSH1 0x40 MLOAD PUSH2 0x139 SWAP2 SWAP1 PUSH2 0xDF6 JUMP JUMPDEST PUSH1 0x40 MLOAD DUP1 SWAP2 SUB SWAP1 RETURN JUMPDEST PUSH2 0x15C PUSH1 0x4 DUP1 CALLDATASIZE SUB DUP2 ADD SWAP1 PUSH2 0x157 SWAP2 SWAP1 PUSH2 0xDBC JUMP JUMPDEST PUSH2 0x787 JUMP JUMPDEST STOP JUMPDEST PUSH0 CALLER DUP6 DUP6 PUSH1 0x40 MLOAD PUSH1 0x20 ADD PUSH2 0x174 SWAP4 SWAP3 SWAP2 SWAP1 PUSH2 0xEE8 JUMP JUMPDEST PUSH1 0x40 MLOAD PUSH1 0x20 DUP2 DUP4 SUB SUB DUP2 MSTORE SWAP1 PUSH1 0x40 MSTORE DUP1 MLOAD SWAP1 PUSH1 0x20 ADD KECCAK256 SWAP1 POP PUSH0 PUSH2 0x196 DUP3 PUSH2 0x80B JUMP JUMPDEST SWAP1 POP PUSH0 PUSH2 0x1EF DUP6 DUP6 DUP1 DUP1 PUSH1 0x1F ADD PUSH1 0x20 DUP1 SWAP2 DIV MUL PUSH1 0x20 ADD PUSH1 0x40 MLOAD SWAP1 DUP2 ADD PUSH1 0x40 MSTORE DUP1 SWAP4 SWAP3 SWAP2 SWAP1 DUP2 DUP2 MSTORE PUSH1 0x20 ADD DUP4 DUP4 DUP1 DUP3 DUP5 CALLDATACOPY PUSH0 DUP2 DUP5 ADD MSTORE PUSH1 0x1F NOT PUSH1 0x1F DUP3 ADD AND SWAP1 POP DUP1 DUP4 ADD SWAP3 POP POP POP POP POP POP POP DUP4 PUSH2 0x83E SWAP1 SWAP2 SWAP1 PUSH4 0xFFFFFFFF AND JUMP JUMPDEST SWAP1 POP PUSH1 0x2 PUSH0 SWAP1 SLOAD SWAP1 PUSH2 0x100 EXP SWAP1 DIV PUSH20 0xFFFFFFFFFFFFFFFFFFFFFFFFFFFFFFFFFFFFFFFF AND PUSH20 0xFFFFFFFFFFFFFFFFFFFFFFFFFFFFFFFFFFFFFFFF AND DUP2 PUSH20 0xFFFFFFFFFFFFFFFFFFFFFFFFFFFFFFFFFFFFFFFF AND EQ PUSH2 0x280 JUMPI PUSH1 0x40 MLOAD PUSH32 0x8C379A000000000000000000000000000000000000000000000000000000000 DUP2 MSTORE PUSH1 0x4 ADD PUSH2 0x277 SWAP1 PUSH2 0xFA4 JUMP JUMPDEST PUSH1 0x40 MLOAD DUP1 SWAP2 SUB SWAP1 REVERT JUMPDEST DUP6 PUSH1 0x1 PUSH0 SWAP1 SLOAD SWAP1 PUSH2 0x100 EXP SWAP1 DIV PUSH20 0xFFFFFFFFFFFFFFFFFFFFFFFFFFFFFFFFFFFFFFFF AND PUSH20 0xFFFFFFFFFFFFFFFFFFFFFFFFFFFFFFFFFFFFFFFF AND PUSH4 0x70A08231 CALLER PUSH1 0x40 MLOAD DUP3 PUSH4 0xFFFFFFFF AND PUSH1 0xE0 SHL DUP2 MSTORE PUSH1 0x4 ADD PUSH2 0x2DB SWAP2 SWAP1 PUSH2 0xDF6 JUMP JUMPDEST PUSH1 0x20 PUSH1 0x40 MLOAD DUP1 DUP4 SUB DUP2 DUP7 GAS STATICCALL ISZERO DUP1 ISZERO PUSH2 0x2F6 JUMPI RETURNDATASIZE PUSH0 PUSH0 RETURNDATACOPY RETURNDATASIZE PUSH0 REVERT JUMPDEST POP POP POP POP PUSH1 0x40 MLOAD RETURNDATASIZE PUSH1 0x1F NOT PUSH1 0x1F DUP3 ADD AND DUP3 ADD DUP1 PUSH1 0x40 MSTORE POP DUP2 ADD SWAP1 PUSH2 0x31A SWAP2 SWAP1 PUSH2 0xFD6 JUMP JUMPDEST LT ISZERO PUSH2 0x35B JUMPI PUSH1 0x40 MLOAD PUSH32 0x8C379A000000000000000000000000000000000000000000000000000000000 DUP2 MSTORE PUSH1 0x4 ADD PUSH2 0x352 SWAP1 PUSH2 0x104B JUMP JUMPDEST PUSH1 0x40 MLOAD DUP1 SWAP2 SUB SWAP1 REVERT JUMPDEST DUP6 PUSH1 0x1 PUSH0 SWAP1 SLOAD SWAP1 PUSH2 0x100 EXP SWAP1 DIV PUSH20 0xFFFFFFFFFFFFFFFFFFFFFFFFFFFFFFFFFFFFFFFF AND PUSH20 0xFFFFFFFFFFFFFFFFFFFFFFFFFFFFFFFFFFFFFFFF AND PUSH4 0xDD62ED3E CALLER ADDRESS PUSH1 0x40 MLOAD DUP4 PUSH4 0xFFFFFFFF AND PUSH1 0xE0 SHL DUP2 MSTORE PUSH1 0x4 ADD PUSH2 0x3B8 SWAP3 SWAP2 SWAP1 PUSH2 0x1069 JUMP JUMPDEST PUSH1 0x20 PUSH1 0x40 MLOAD DUP1 DUP4 SUB DUP2 DUP7 GAS STATICCALL ISZERO DUP1 ISZERO PUSH2 0x3D3 JUMPI RETURNDATASIZE PUSH0 PUSH0 RETURNDATACOPY RETURNDATASIZE PUSH0 REVERT JUMPDEST POP POP POP POP PUSH1 0x40 MLOAD RETURNDATASIZE PUSH1 0x1F NOT PUSH1 0x1F DUP3 ADD AND DUP3 ADD DUP1 PUSH1 0x40 MSTORE POP DUP2 ADD SWAP1 PUSH2 0x3F7 SWAP2 SWAP1 PUSH2 0xFD6 JUMP JUMPDEST LT ISZERO PUSH2 0x438 JUMPI PUSH1 0x40 MLOAD PUSH32 0x8C379A000000000000000000000000000000000000000000000000000000000 DUP2 MSTORE PUSH1 0x4 ADD PUSH2 0x42F SWAP1 PUSH2 0x10DA JUMP JUMPDEST PUSH1 0x40 MLOAD DUP1 SWAP2 SUB SWAP1 REVERT JUMPDEST PUSH0 PUSH1 0x1 PUSH0 SWAP1 SLOAD SWAP1 PUSH2 0x100 EXP SWAP1 DIV PUSH20 0xFFFFFFFFFFFFFFFFFFFFFFFFFFFFFFFFFFFFFFFF AND PUSH20 0xFFFFFFFFFFFFFFFFFFFFFFFFFFFFFFFFFFFFFFFF AND PUSH4 0x23B872DD CALLER ADDRESS DUP11 PUSH1 0x40 MLOAD DUP5 PUSH4 0xFFFFFFFF AND PUSH1 0xE0 SHL DUP2 MSTORE PUSH1 0x4 ADD PUSH2 0x497 SWAP4 SWAP3 SWAP2 SWAP1 PUSH2 0x1107 JUMP JUMPDEST PUSH1 0x20 PUSH1 0x40 MLOAD DUP1 DUP4 SUB DUP2 PUSH0 DUP8 GAS CALL ISZERO DUP1 ISZERO PUSH2 0x4B3 JUMPI RETURNDATASIZE PUSH0 PUSH0 RETURNDATACOPY RETURNDATASIZE PUSH0 REVERT JUMPDEST POP POP POP POP PUSH1 0x40 MLOAD RETURNDATASIZE PUSH1 0x1F NOT PUSH1 0x1F DUP3 ADD AND DUP3 ADD DUP1 PUSH1 0x40 MSTORE POP DUP2 ADD SWAP1 PUSH2 0x4D7 SWAP2 SWAP1 PUSH2 0x1171 JUMP JUMPDEST SWAP1 POP DUP1 PUSH2 0x519 JUMPI PUSH1 0x40 MLOAD PUSH32 0x8C379A000000000000000000000000000000000000000000000000000000000 DUP2 MSTORE PUSH1 0x4 ADD PUSH2 0x510 SWAP1 PUSH2 0x11E6 JUMP JUMPDEST PUSH1 0x40 MLOAD DUP1 SWAP2 SUB SWAP1 REVERT JUMPDEST CALLER PUSH20 0xFFFFFFFFFFFFFFFFFFFFFFFFFFFFFFFFFFFFFFFF AND PUSH32 0x1452773CF753D0D7C71ED9990F7C7E2BDDE4A2D08D187B3647953877E400488D DUP10 DUP10 PUSH1 0x40 MLOAD PUSH2 0x561 SWAP3 SWAP2 SWAP1 PUSH2 0x1204 JUMP JUMPDEST PUSH1 0x40 MLOAD DUP1 SWAP2 SUB SWAP1 LOG2 POP POP POP POP POP POP POP POP JUMP JUMPDEST PUSH2 0x57B PUSH2 0x868 JUMP JUMPDEST DUP1 PUSH1 0x2 PUSH0 PUSH2 0x100 EXP DUP2 SLOAD DUP2 PUSH20 0xFFFFFFFFFFFFFFFFFFFFFFFFFFFFFFFFFFFFFFFF MUL NOT AND SWAP1 DUP4 PUSH20 0xFFFFFFFFFFFFFFFFFFFFFFFFFFFFFFFFFFFFFFFF AND MUL OR SWAP1 SSTORE POP POP JUMP JUMPDEST PUSH2 0x5C6 PUSH2 0x868 JUMP JUMPDEST PUSH0 PUSH1 0x1 PUSH0 SWAP1 SLOAD SWAP1 PUSH2 0x100 EXP SWAP1 DIV PUSH20 0xFFFFFFFFFFFFFFFFFFFFFFFFFFFFFFFFFFFFFFFF AND PUSH20 0xFFFFFFFFFFFFFFFFFFFFFFFFFFFFFFFFFFFFFFFF AND PUSH4 0x70A08231 ADDRESS PUSH1 0x40 MLOAD DUP3 PUSH4 0xFFFFFFFF AND PUSH1 0xE0 SHL DUP2 MSTORE PUSH1 0x4 ADD PUSH2 0x621 SWAP2 SWAP1 PUSH2 0xDF6 JUMP JUMPDEST PUSH1 0x20 PUSH1 0x40 MLOAD DUP1 DUP4 SUB DUP2 DUP7 GAS STATICCALL ISZERO DUP1 ISZERO PUSH2 0x63C JUMPI RETURNDATASIZE PUSH0 PUSH0 RETURNDATACOPY RETURNDATASIZE PUSH0 REVERT JUMPDEST POP POP POP POP PUSH1 0x40 MLOAD RETURNDATASIZE PUSH1 0x1F NOT PUSH1 0x1F DUP3 ADD AND DUP3 ADD DUP1 PUSH1 0x40 MSTORE POP DUP2 ADD SWAP1 PUSH2 0x660 SWAP2 SWAP1 PUSH2 0xFD6 JUMP JUMPDEST SWAP1 POP PUSH1 0x1 PUSH0 SWAP1 SLOAD SWAP1 PUSH2 0x100 EXP SWAP1 DIV PUSH20 0xFFFFFFFFFFFFFFFFFFFFFFFFFFFFFFFFFFFFFFFF AND PUSH20 0xFFFFFFFFFFFFFFFFFFFFFFFFFFFFFFFFFFFFFFFF AND PUSH4 0xA9059CBB DUP4 DUP4 PUSH1 0x40 MLOAD DUP4 PUSH4 0xFFFFFFFF AND PUSH1 0xE0 SHL DUP2 MSTORE PUSH1 0x4 ADD PUSH2 0x6BE SWAP3 SWAP2 SWAP1 PUSH2 0x122B JUMP JUMPDEST PUSH1 0x20 PUSH1 0x40 MLOAD DUP1 DUP4 SUB DUP2 PUSH0 DUP8 GAS CALL ISZERO DUP1 ISZERO PUSH2 0x6DA JUMPI RETURNDATASIZE PUSH0 PUSH0 RETURNDATACOPY RETURNDATASIZE PUSH0 REVERT JUMPDEST POP POP POP POP PUSH1 0x40 MLOAD RETURNDATASIZE PUSH1 0x1F NOT PUSH1 0x1F DUP3 ADD AND DUP3 ADD DUP1 PUSH1 0x40 MSTORE POP DUP2 ADD SWAP1 PUSH2 0x6FE SWAP2 SWAP1 PUSH2 0x1171 JUMP JUMPDEST POP POP POP JUMP JUMPDEST PUSH1 0x2 PUSH0 SWAP1 SLOAD SWAP1 PUSH2 0x100 EXP SWAP1 DIV PUSH20 0xFFFFFFFFFFFFFFFFFFFFFFFFFFFFFFFFFFFFFFFF AND DUP2 JUMP JUMPDEST PUSH2 0x730 PUSH2 0x868 JUMP JUMPDEST PUSH2 0x739 PUSH0 PUSH2 0x8EF JUMP JUMPDEST JUMP JUMPDEST PUSH1 0x1 PUSH0 SWAP1 SLOAD SWAP1 PUSH2 0x100 EXP SWAP1 DIV PUSH20 0xFFFFFFFFFFFFFFFFFFFFFFFFFFFFFFFFFFFFFFFF AND DUP2 JUMP JUMPDEST PUSH0 PUSH0 PUSH0 SWAP1 SLOAD SWAP1 PUSH2 0x100 EXP SWAP1 DIV PUSH20 0xFFFFFFFFFFFFFFFFFFFFFFFFFFFFFFFFFFFFFFFF AND SWAP1 POP SWAP1 JUMP JUMPDEST PUSH2 0x78F PUSH2 0x868 JUMP JUMPDEST PUSH0 PUSH20 0xFFFFFFFFFFFFFFFFFFFFFFFFFFFFFFFFFFFFFFFF AND DUP2 PUSH20 0xFFFFFFFFFFFFFFFFFFFFFFFFFFFFFFFFFFFFFFFF AND SUB PUSH2 0x7FF JUMPI PUSH0 PUSH1 0x40 MLOAD PUSH32 0x1E4FBDF700000000000000000000000000000000000000000000000000000000 DUP2 MSTORE PUSH1 0x4 ADD PUSH2 0x7F6 SWAP2 SWAP1 PUSH2 0xDF6 JUMP JUMPDEST PUSH1 0x40 MLOAD DUP1 SWAP2 SUB SWAP1 REVERT JUMPDEST PUSH2 0x808 DUP2 PUSH2 0x8EF JUMP JUMPDEST POP JUMP JUMPDEST PUSH0 PUSH32 0x19457468657265756D205369676E6564204D6573736167653A0A333200000000 PUSH0 MSTORE DUP2 PUSH1 0x1C MSTORE PUSH1 0x3C PUSH0 KECCAK256 SWAP1 POP SWAP2 SWAP1 POP JUMP JUMPDEST PUSH0 PUSH0 PUSH0 PUSH0 PUSH2 0x84C DUP7 DUP7 PUSH2 0x9B0 JUMP JUMPDEST SWAP3 POP SWAP3 POP SWAP3 POP PUSH2 0x85C DUP3 DUP3 PUSH2 0xA05 JUMP JUMPDEST DUP3 SWAP4 POP POP POP POP SWAP3 SWAP2 POP POP JUMP JUMPDEST PUSH2 0x870 PUSH2 0xB67 JUMP JUMPDEST PUSH20 0xFFFFFFFFFFFFFFFFFFFFFFFFFFFFFFFFFFFFFFFF AND PUSH2 0x88E PUSH2 0x760 JUMP JUMPDEST PUSH20 0xFFFFFFFFFFFFFFFFFFFFFFFFFFFFFFFFFFFFFFFF AND EQ PUSH2 0x8ED JUMPI PUSH2 0x8B1 PUSH2 0xB67 JUMP JUMPDEST PUSH1 0x40 MLOAD PUSH32 0x118CDAA700000000000000000000000000000000000000000000000000000000 DUP2 MSTORE PUSH1 0x4 ADD PUSH2 0x8E4 SWAP2 SWAP1 PUSH2 0xDF6 JUMP JUMPDEST PUSH1 0x40 MLOAD DUP1 SWAP2 SUB SWAP1 REVERT JUMPDEST JUMP JUMPDEST PUSH0 PUSH0 PUSH0 SWAP1 SLOAD SWAP1 PUSH2 0x100 EXP SWAP1 DIV PUSH20 0xFFFFFFFFFFFFFFFFFFFFFFFFFFFFFFFFFFFFFFFF AND SWAP1 POP DUP2 PUSH0 PUSH0 PUSH2 0x100 EXP DUP2 SLOAD DUP2 PUSH20 0xFFFFFFFFFFFFFFFFFFFFFFFFFFFFFFFFFFFFFFFF MUL NOT AND SWAP1 DUP4 PUSH20 0xFFFFFFFFFFFFFFFFFFFFFFFFFFFFFFFFFFFFFFFF AND MUL OR SWAP1 SSTORE POP DUP2 PUSH20 0xFFFFFFFFFFFFFFFFFFFFFFFFFFFFFFFFFFFFFFFF AND DUP2 PUSH20 0xFFFFFFFFFFFFFFFFFFFFFFFFFFFFFFFFFFFFFFFF AND PUSH32 0x8BE0079C531659141344CD1FD0A4F28419497F9722A3DAAFE3B4186F6B6457E0 PUSH1 0x40 MLOAD PUSH1 0x40 MLOAD DUP1 SWAP2 SUB SWAP1 LOG3 POP POP JUMP JUMPDEST PUSH0 PUSH0 PUSH0 PUSH1 0x41 DUP5 MLOAD SUB PUSH2 0x9F0 JUMPI PUSH0 PUSH0 PUSH0 PUSH1 0x20 DUP8 ADD MLOAD SWAP3 POP PUSH1 0x40 DUP8 ADD MLOAD SWAP2 POP PUSH1 0x60 DUP8 ADD MLOAD PUSH0 BYTE SWAP1 POP PUSH2 0x9E2 DUP9 DUP3 DUP6 DUP6 PUSH2 0xB6E JUMP JUMPDEST SWAP6 POP SWAP6 POP SWAP6 POP POP POP POP PUSH2 0x9FE JUMP JUMPDEST PUSH0 PUSH1 0x2 DUP6 MLOAD PUSH0 SHL SWAP3 POP SWAP3 POP SWAP3 POP JUMPDEST SWAP3 POP SWAP3 POP SWAP3 JUMP JUMPDEST PUSH0 PUSH1 0x3 DUP2 GT ISZERO PUSH2 0xA18 JUMPI PUSH2 0xA17 PUSH2 0x1252 JUMP JUMPDEST JUMPDEST DUP3 PUSH1 0x3 DUP2 GT ISZERO PUSH2 0xA2B JUMPI PUSH2 0xA2A PUSH2 0x1252 JUMP JUMPDEST JUMPDEST SUB ISZERO PUSH2 0xB63 JUMPI PUSH1 0x1 PUSH1 0x3 DUP2 GT ISZERO PUSH2 0xA45 JUMPI PUSH2 0xA44 PUSH2 0x1252 JUMP JUMPDEST JUMPDEST DUP3 PUSH1 0x3 DUP2 GT ISZERO PUSH2 0xA58 JUMPI PUSH2 0xA57 PUSH2 0x1252 JUMP JUMPDEST JUMPDEST SUB PUSH2 0xA8F JUMPI PUSH1 0x40 MLOAD PUSH32 0xF645EEDF00000000000000000000000000000000000000000000000000000000 DUP2 MSTORE PUSH1 0x4 ADD PUSH1 0x40 MLOAD DUP1 SWAP2 SUB SWAP1 REVERT JUMPDEST PUSH1 0x2 PUSH1 0x3 DUP2 GT ISZERO PUSH2 0xAA3 JUMPI PUSH2 0xAA2 PUSH2 0x1252 JUMP JUMPDEST JUMPDEST DUP3 PUSH1 0x3 DUP2 GT ISZERO PUSH2 0xAB6 JUMPI PUSH2 0xAB5 PUSH2 0x1252 JUMP JUMPDEST JUMPDEST SUB PUSH2 0xAFA JUMPI DUP1 PUSH0 SHR PUSH1 0x40 MLOAD PUSH32 0xFCE698F700000000000000000000000000000000000000000000000000000000 DUP2 MSTORE PUSH1 0x4 ADD PUSH2 0xAF1 SWAP2 SWAP1 PUSH2 0x127F JUMP JUMPDEST PUSH1 0x40 MLOAD DUP1 SWAP2 SUB SWAP1 REVERT JUMPDEST PUSH1 0x3 DUP1 DUP2 GT ISZERO PUSH2 0xB0D JUMPI PUSH2 0xB0C PUSH2 0x1252 JUMP JUMPDEST JUMPDEST DUP3 PUSH1 0x3 DUP2 GT ISZERO PUSH2 0xB20 JUMPI PUSH2 0xB1F PUSH2 0x1252 JUMP JUMPDEST JUMPDEST SUB PUSH2 0xB62 JUMPI DUP1 PUSH1 0x40 MLOAD PUSH32 0xD78BCE0C00000000000000000000000000000000000000000000000000000000 DUP2 MSTORE PUSH1 0x4 ADD PUSH2 0xB59 SWAP2 SWAP1 PUSH2 0x12B0 JUMP JUMPDEST PUSH1 0x40 MLOAD DUP1 SWAP2 SUB SWAP1 REVERT JUMPDEST JUMPDEST POP POP JUMP JUMPDEST PUSH0 CALLER SWAP1 POP SWAP1 JUMP JUMPDEST PUSH0 PUSH0 PUSH0 PUSH32 0x7FFFFFFFFFFFFFFFFFFFFFFFFFFFFFFF5D576E7357A4501DDFE92F46681B20A0 DUP5 PUSH0 SHR GT ISZERO PUSH2 0xBAA JUMPI PUSH0 PUSH1 0x3 DUP6 SWAP3 POP SWAP3 POP SWAP3 POP PUSH2 0xC4B JUMP JUMPDEST PUSH0 PUSH1 0x1 DUP9 DUP9 DUP9 DUP9 PUSH1 0x40 MLOAD PUSH0 DUP2 MSTORE PUSH1 0x20 ADD PUSH1 0x40 MSTORE PUSH1 0x40 MLOAD PUSH2 0xBCD SWAP5 SWAP4 SWAP3 SWAP2 SWAP1 PUSH2 0x12E4 JUMP JUMPDEST PUSH1 0x20 PUSH1 0x40 MLOAD PUSH1 0x20 DUP2 SUB SWAP1 DUP1 DUP5 SUB SWAP1 DUP6 GAS STATICCALL ISZERO DUP1 ISZERO PUSH2 0xBED JUMPI RETURNDATASIZE PUSH0 PUSH0 RETURNDATACOPY RETURNDATASIZE PUSH0 REVERT JUMPDEST POP POP POP PUSH1 0x20 PUSH1 0x40 MLOAD SUB MLOAD SWAP1 POP PUSH0 PUSH20 0xFFFFFFFFFFFFFFFFFFFFFFFFFFFFFFFFFFFFFFFF AND DUP2 PUSH20 0xFFFFFFFFFFFFFFFFFFFFFFFFFFFFFFFFFFFFFFFF AND SUB PUSH2 0xC3E JUMPI PUSH0 PUSH1 0x1 PUSH0 PUSH0 SHL SWAP4 POP SWAP4 POP SWAP4 POP POP PUSH2 0xC4B JUMP JUMPDEST DUP1 PUSH0 PUSH0 PUSH0 SHL SWAP4 POP SWAP4 POP SWAP4 POP POP JUMPDEST SWAP5 POP SWAP5 POP SWAP5 SWAP2 POP POP JUMP JUMPDEST PUSH0 PUSH0 REVERT JUMPDEST PUSH0 PUSH0 REVERT JUMPDEST PUSH0 DUP2 SWAP1 POP SWAP2 SWAP1 POP JUMP JUMPDEST PUSH2 0xC6F DUP2 PUSH2 0xC5D JUMP JUMPDEST DUP2 EQ PUSH2 0xC79 JUMPI PUSH0 PUSH0 REVERT JUMPDEST POP JUMP JUMPDEST PUSH0 DUP2 CALLDATALOAD SWAP1 POP PUSH2 0xC8A DUP2 PUSH2 0xC66 JUMP JUMPDEST SWAP3 SWAP2 POP POP JUMP JUMPDEST PUSH0 PUSH0 REVERT JUMPDEST PUSH0 PUSH0 REVERT JUMPDEST PUSH0 PUSH0 REVERT JUMPDEST PUSH0 PUSH0 DUP4 PUSH1 0x1F DUP5 ADD SLT PUSH2 0xCB1 JUMPI PUSH2 0xCB0 PUSH2 0xC90 JUMP JUMPDEST JUMPDEST DUP3 CALLDATALOAD SWAP1 POP PUSH8 0xFFFFFFFFFFFFFFFF DUP2 GT ISZERO PUSH2 0xCCE JUMPI PUSH2 0xCCD PUSH2 0xC94 JUMP JUMPDEST JUMPDEST PUSH1 0x20 DUP4 ADD SWAP2 POP DUP4 PUSH1 0x1 DUP3 MUL DUP4 ADD GT ISZERO PUSH2 0xCEA JUMPI PUSH2 0xCE9 PUSH2 0xC98 JUMP JUMPDEST JUMPDEST SWAP3 POP SWAP3 SWAP1 POP JUMP JUMPDEST PUSH0 PUSH0 PUSH0 PUSH0 PUSH1 0x60 DUP6 DUP8 SUB SLT ISZERO PUSH2 0xD09 JUMPI PUSH2 0xD08 PUSH2 0xC55 JUMP JUMPDEST JUMPDEST PUSH0 PUSH2 0xD16 DUP8 DUP3 DUP9 ADD PUSH2 0xC7C JUMP JUMPDEST SWAP5 POP POP PUSH1 0x20 PUSH2 0xD27 DUP8 DUP3 DUP9 ADD PUSH2 0xC7C JUMP JUMPDEST SWAP4 POP POP PUSH1 0x40 DUP6 ADD CALLDATALOAD PUSH8 0xFFFFFFFFFFFFFFFF DUP2 GT ISZERO PUSH2 0xD48 JUMPI PUSH2 0xD47 PUSH2 0xC59 JUMP JUMPDEST JUMPDEST PUSH2 0xD54 DUP8 DUP3 DUP9 ADD PUSH2 0xC9C JUMP JUMPDEST SWAP3 POP SWAP3 POP POP SWAP3 SWAP6 SWAP2 SWAP5 POP SWAP3 POP JUMP JUMPDEST PUSH0 PUSH20 0xFFFFFFFFFFFFFFFFFFFFFFFFFFFFFFFFFFFFFFFF DUP3 AND SWAP1 POP SWAP2 SWAP1 POP JUMP JUMPDEST PUSH0 PUSH2 0xD8B DUP3 PUSH2 0xD62 JUMP JUMPDEST SWAP1 POP SWAP2 SWAP1 POP JUMP JUMPDEST PUSH2 0xD9B DUP2 PUSH2 0xD81 JUMP JUMPDEST DUP2 EQ PUSH2 0xDA5 JUMPI PUSH0 PUSH0 REVERT JUMPDEST POP JUMP JUMPDEST PUSH0 DUP2 CALLDATALOAD SWAP1 POP PUSH2 0xDB6 DUP2 PUSH2 0xD92 JUMP JUMPDEST SWAP3 SWAP2 POP POP JUMP JUMPDEST PUSH0 PUSH1 0x20 DUP3 DUP5 SUB SLT ISZERO PUSH2 0xDD1 JUMPI PUSH2 0xDD0 PUSH2 0xC55 JUMP JUMPDEST JUMPDEST PUSH0 PUSH2 0xDDE DUP5 DUP3 DUP6 ADD PUSH2 0xDA8 JUMP JUMPDEST SWAP2 POP POP SWAP3 SWAP2 POP POP JUMP JUMPDEST PUSH2 0xDF0 DUP2 PUSH2 0xD81 JUMP JUMPDEST DUP3 MSTORE POP POP JUMP JUMPDEST PUSH0 PUSH1 0x20 DUP3 ADD SWAP1 POP PUSH2 0xE09 PUSH0 DUP4 ADD DUP5 PUSH2 0xDE7 JUMP JUMPDEST SWAP3 SWAP2 POP POP JUMP JUMPDEST PUSH0 DUP2 SWAP1 POP SWAP2 SWAP1 POP JUMP JUMPDEST PUSH0 PUSH2 0xE32 PUSH2 0xE2D PUSH2 0xE28 DUP5 PUSH2 0xD62 JUMP JUMPDEST PUSH2 0xE0F JUMP JUMPDEST PUSH2 0xD62 JUMP JUMPDEST SWAP1 POP SWAP2 SWAP1 POP JUMP JUMPDEST PUSH0 PUSH2 0xE43 DUP3 PUSH2 0xE18 JUMP JUMPDEST SWAP1 POP SWAP2 SWAP1 POP JUMP JUMPDEST PUSH0 PUSH2 0xE54 DUP3 PUSH2 0xE39 JUMP JUMPDEST SWAP1 POP SWAP2 SWAP1 POP JUMP JUMPDEST PUSH2 0xE64 DUP2 PUSH2 0xE4A JUMP JUMPDEST DUP3 MSTORE POP POP JUMP JUMPDEST PUSH0 PUSH1 0x20 DUP3 ADD SWAP1 POP PUSH2 0xE7D PUSH0 DUP4 ADD DUP5 PUSH2 0xE5B JUMP JUMPDEST SWAP3 SWAP2 POP POP JUMP JUMPDEST PUSH0 DUP2 PUSH1 0x60 SHL SWAP1 POP SWAP2 SWAP1 POP JUMP JUMPDEST PUSH0 PUSH2 0xE99 DUP3 PUSH2 0xE83 JUMP JUMPDEST SWAP1 POP SWAP2 SWAP1 POP JUMP JUMPDEST PUSH0 PUSH2 0xEAA DUP3 PUSH2 0xE8F JUMP JUMPDEST SWAP1 POP SWAP2 SWAP1 POP JUMP JUMPDEST PUSH2 0xEC2 PUSH2 0xEBD DUP3 PUSH2 0xD81 JUMP JUMPDEST PUSH2 0xEA0 JUMP JUMPDEST DUP3 MSTORE POP POP JUMP JUMPDEST PUSH0 DUP2 SWAP1 POP SWAP2 SWAP1 POP JUMP JUMPDEST PUSH2 0xEE2 PUSH2 0xEDD DUP3 PUSH2 0xC5D JUMP JUMPDEST PUSH2 0xEC8 JUMP JUMPDEST DUP3 MSTORE POP POP JUMP JUMPDEST PUSH0 PUSH2 0xEF3 DUP3 DUP7 PUSH2 0xEB1 JUMP JUMPDEST PUSH1 0x14 DUP3 ADD SWAP2 POP PUSH2 0xF03 DUP3 DUP6 PUSH2 0xED1 JUMP JUMPDEST PUSH1 0x20 DUP3 ADD SWAP2 POP PUSH2 0xF13 DUP3 DUP5 PUSH2 0xED1 JUMP JUMPDEST PUSH1 0x20 DUP3 ADD SWAP2 POP DUP2 SWAP1 POP SWAP5 SWAP4 POP POP POP POP JUMP JUMPDEST PUSH0 DUP3 DUP3 MSTORE PUSH1 0x20 DUP3 ADD SWAP1 POP SWAP3 SWAP2 POP POP JUMP JUMPDEST PUSH32 0x496E76616C6964207369676E61747572653A2053656375726974792063686563 PUSH0 DUP3 ADD MSTORE PUSH32 0x6B206661696C6564000000000000000000000000000000000000000000000000 PUSH1 0x20 DUP3 ADD MSTORE POP JUMP JUMPDEST PUSH0 PUSH2 0xF8E PUSH1 0x28 DUP4 PUSH2 0xF24 JUMP JUMPDEST SWAP2 POP PUSH2 0xF99 DUP3 PUSH2 0xF34 JUMP JUMPDEST PUSH1 0x40 DUP3 ADD SWAP1 POP SWAP2 SWAP1 POP JUMP JUMPDEST PUSH0 PUSH1 0x20 DUP3 ADD SWAP1 POP DUP2 DUP2 SUB PUSH0 DUP4 ADD MSTORE PUSH2 0xFBB DUP2 PUSH2 0xF82 JUMP JUMPDEST SWAP1 POP SWAP2 SWAP1 POP JUMP JUMPDEST PUSH0 DUP2 MLOAD SWAP1 POP PUSH2 0xFD0 DUP2 PUSH2 0xC66 JUMP JUMPDEST SWAP3 SWAP2 POP POP JUMP JUMPDEST PUSH0 PUSH1 0x20 DUP3 DUP5 SUB SLT ISZERO PUSH2 0xFEB JUMPI PUSH2 0xFEA PUSH2 0xC55 JUMP JUMPDEST JUMPDEST PUSH0 PUSH2 0xFF8 DUP5 DUP3 DUP6 ADD PUSH2 0xFC2 JUMP JUMPDEST SWAP2 POP POP SWAP3 SWAP2 POP POP JUMP JUMPDEST PUSH32 0x496E73756666696369656E74204348482062616C616E63650000000000000000 PUSH0 DUP3 ADD MSTORE POP JUMP JUMPDEST PUSH0 PUSH2 0x1035 PUSH1 0x18 DUP4 PUSH2 0xF24 JUMP JUMPDEST SWAP2 POP PUSH2 0x1040 DUP3 PUSH2 0x1001 JUMP JUMPDEST PUSH1 0x20 DUP3 ADD SWAP1 POP SWAP2 SWAP1 POP JUMP JUMPDEST PUSH0 PUSH1 0x20 DUP3 ADD SWAP1 POP DUP2 DUP2 SUB PUSH0 DUP4 ADD MSTORE PUSH2 0x1062 DUP2 PUSH2 0x1029 JUMP JUMPDEST SWAP1 POP SWAP2 SWAP1 POP JUMP JUMPDEST PUSH0 PUSH1 0x40 DUP3 ADD SWAP1 POP PUSH2 0x107C PUSH0 DUP4 ADD DUP6 PUSH2 0xDE7 JUMP JUMPDEST PUSH2 0x1089 PUSH1 0x20 DUP4 ADD DUP5 PUSH2 0xDE7 JUMP JUMPDEST SWAP4 SWAP3 POP POP POP JUMP JUMPDEST PUSH32 0x546F6B656E206E6F7420617070726F7665640000000000000000000000000000 PUSH0 DUP3 ADD MSTORE POP JUMP JUMPDEST PUSH0 PUSH2 0x10C4 PUSH1 0x12 DUP4 PUSH2 0xF24 JUMP JUMPDEST SWAP2 POP PUSH2 0x10CF DUP3 PUSH2 0x1090 JUMP JUMPDEST PUSH1 0x20 DUP3 ADD SWAP1 POP SWAP2 SWAP1 POP JUMP JUMPDEST PUSH0 PUSH1 0x20 DUP3 ADD SWAP1 POP DUP2 DUP2 SUB PUSH0 DUP4 ADD MSTORE PUSH2 0x10F1 DUP2 PUSH2 0x10B8 JUMP JUMPDEST SWAP1 POP SWAP2 SWAP1 POP JUMP JUMPDEST PUSH2 0x1101 DUP2 PUSH2 0xC5D JUMP JUMPDEST DUP3 MSTORE POP POP JUMP JUMPDEST PUSH0 PUSH1 0x60 DUP3 ADD SWAP1 POP PUSH2 0x111A PUSH0 DUP4 ADD DUP7 PUSH2 0xDE7 JUMP JUMPDEST PUSH2 0x1127 PUSH1 0x20 DUP4 ADD DUP6 PUSH2 0xDE7 JUMP JUMPDEST PUSH2 0x1134 PUSH1 0x40 DUP4 ADD DUP5 PUSH2 0x10F8 JUMP JUMPDEST SWAP5 SWAP4 POP POP POP POP JUMP JUMPDEST PUSH0 DUP2 ISZERO ISZERO SWAP1 POP SWAP2 SWAP1 POP JUMP JUMPDEST PUSH2 0x1150 DUP2 PUSH2 0x113C JUMP JUMPDEST DUP2 EQ PUSH2 0x115A JUMPI PUSH0 PUSH0 REVERT JUMPDEST POP JUMP JUMPDEST PUSH0 DUP2 MLOAD SWAP1 POP PUSH2 0x116B DUP2 PUSH2 0x1147 JUMP JUMPDEST SWAP3 SWAP2 POP POP JUMP JUMPDEST PUSH0 PUSH1 0x20 DUP3 DUP5 SUB SLT ISZERO PUSH2 0x1186 JUMPI PUSH2 0x1185 PUSH2 0xC55 JUMP JUMPDEST JUMPDEST PUSH0 PUSH2 0x1193 DUP5 DUP3 DUP6 ADD PUSH2 0x115D JUMP JUMPDEST SWAP2 POP POP SWAP3 SWAP2 POP POP JUMP JUMPDEST PUSH32 0x546F6B656E207472616E73666572206661696C65640000000000000000000000 PUSH0 DUP3 ADD MSTORE POP JUMP JUMPDEST PUSH0 PUSH2 0x11D0 PUSH1 0x15 DUP4 PUSH2 0xF24 JUMP JUMPDEST SWAP2 POP PUSH2 0x11DB DUP3 PUSH2 0x119C JUMP JUMPDEST PUSH1 0x20 DUP3 ADD SWAP1 POP SWAP2 SWAP1 POP JUMP JUMPDEST PUSH0 PUSH1 0x20 DUP3 ADD SWAP1 POP DUP2 DUP2 SUB PUSH0 DUP4 ADD MSTORE PUSH2 0x11FD DUP2 PUSH2 0x11C4 JUMP JUMPDEST SWAP1 POP SWAP2 SWAP1 POP JUMP JUMPDEST PUSH0 PUSH1 0x40 DUP3 ADD SWAP1 POP PUSH2 0x1217 PUSH0 DUP4 ADD DUP6 PUSH2 0x10F8 JUMP JUMPDEST PUSH2 0x1224 PUSH1 0x20 DUP4 ADD DUP5 PUSH2 0x10F8 JUMP JUMPDEST SWAP4 SWAP3 POP POP POP JUMP JUMPDEST PUSH0 PUSH1 0x40 DUP3 ADD SWAP1 POP PUSH2 0x123E PUSH0 DUP4 ADD DUP6 PUSH2 0xDE7 JUMP JUMPDEST PUSH2 0x124B PUSH1 0x20 DUP4 ADD DUP5 PUSH2 0x10F8 JUMP JUMPDEST SWAP4 SWAP3 POP POP POP JUMP JUMPDEST PUSH32 0x4E487B7100000000000000000000000000000000000000000000000000000000 PUSH0 MSTORE PUSH1 0x21 PUSH1 0x4 MSTORE PUSH1 0x24 PUSH0 REVERT JUMPDEST PUSH0 PUSH1 0x20 DUP3 ADD SWAP1 POP PUSH2 0x1292 PUSH0 DUP4 ADD DUP5 PUSH2 0x10F8 JUMP JUMPDEST SWAP3 SWAP2 POP POP JUMP JUMPDEST PUSH0 DUP2 SWAP1 POP SWAP2 SWAP1 POP JUMP JUMPDEST PUSH2 0x12AA DUP2 PUSH2 0x1298 JUMP JUMPDEST DUP3 MSTORE POP POP JUMP JUMPDEST PUSH0 PUSH1 0x20 DUP3 ADD SWAP1 POP PUSH2 0x12C3 PUSH0 DUP4 ADD DUP5 PUSH2 0x12A1 JUMP JUMPDEST SWAP3 SWAP2 POP POP JUMP JUMPDEST PUSH0 PUSH1 0xFF DUP3 AND SWAP1 POP SWAP2 SWAP1 POP JUMP JUMPDEST PUSH2 0x12DE DUP2 PUSH2 0x12C9 JUMP JUMPDEST DUP3 MSTORE POP POP JUMP JUMPDEST PUSH0 PUSH1 0x80 DUP3 ADD SWAP1 POP PUSH2 0x12F7 PUSH0 DUP4 ADD DUP8 PUSH2 0x12A1 JUMP JUMPDEST PUSH2 0x1304 PUSH1 0x20 DUP4 ADD DUP7 PUSH2 0x12D5 JUMP JUMPDEST PUSH2 0x1311 PUSH1 0x40 DUP4 ADD DUP6 PUSH2 0x12A1 JUMP JUMPDEST PUSH2 0x131E PUSH1 0x60 DUP4 ADD DUP5 PUSH2 0x12A1 JUMP JUMPDEST SWAP6 SWAP5 POP POP POP POP POP JUMP INVALID LOG2 PUSH5 0x6970667358 0x22 SLT KECCAK256 0xCE SWAP3 0xB9 0xBC SWAP4 0x26 SHR PUSH2 0xA3D7 KECCAK256 CALLDATALOAD AND MUL 0xC9 GT 0xDF MCOPY SWAP3 PUSH15 0x3C5FED0365A24F744FCD2A2964736F PUSH13 0x634300081F0033000000000000 "
				},
				"gasEstimates": {
					"creation": {
						"codeDepositCost": "991400",
						"executionCost": "infinite",
						"totalCost": "infinite"
					},
					"external": {
						"backendSigner()": "2575",
						"buyItem(uint256,uint256,bytes)": "infinite",
						"chhToken()": "infinite",
						"owner()": "2558",
						"renounceOwnership()": "infinite",
						"setBackendSigner(address)": "infinite",
						"transferOwnership(address)": "infinite",
						"withdrawTokens(address)": "infinite"
					}
				},
				"methodIdentifiers": {
					"backendSigner()": "65d65e86",
					"buyItem(uint256,uint256,bytes)": "3237c118",
					"chhToken()": "8455d8d5",
					"owner()": "8da5cb5b",
					"renounceOwnership()": "715018a6",
					"setBackendSigner(address)": "36f95670",
					"transferOwnership(address)": "f2fde38b",
					"withdrawTokens(address)": "49df728c"
				}
			},
			"storageLayout": {
				"storage": [
					{
						"astId": 8,
						"contract": "Script/RunningChihuahuaShop.sol:ItemShop",
						"label": "_owner",
						"offset": 0,
						"slot": "0",
						"type": "t_address"
					},
					{
						"astId": 5691,
						"contract": "Script/RunningChihuahuaShop.sol:ItemShop",
						"label": "chhToken",
						"offset": 0,
						"slot": "1",
						"type": "t_contract(IERC20)225"
					},
					{
						"astId": 5693,
						"contract": "Script/RunningChihuahuaShop.sol:ItemShop",
						"label": "backendSigner",
						"offset": 0,
						"slot": "2",
						"type": "t_address"
					}
				],
				"types": {
					"t_address": {
						"encoding": "inplace",
						"label": "address",
						"numberOfBytes": "20"
					},
					"t_contract(IERC20)225": {
						"encoding": "inplace",
						"label": "contract IERC20",
						"numberOfBytes": "20"
					}
				}
			},
			"userdoc": {
				"kind": "user",
				"methods": {},
				"version": 1
			}
		}
	}
}