{
	"Script/ReversiDailyBonus.sol": {
		"ReversiPopClaim": {
			"abi": [
				{
					"inputs": [],
					"stateMutability": "nonpayable",
					"type": "constructor"
				},
				{
					"inputs": [],
					"name": "ECDSAInvalidSignature",
					"type": "error"
				},
				{
					"inputs": [
						{
							"internalType": "uint256",
							"name": "length",
							"type": "uint256"
						}
					],
					"name": "ECDSAInvalidSignatureLength",
					"type": "error"
				},
				{
					"inputs": [
						{
							"internalType": "bytes32",
							"name": "s",
							"type": "bytes32"
						}
					],
					"name": "ECDSAInvalidSignatureS",
					"type": "error"
				},
				{
					"inputs": [
						{
							"internalType": "address",
							"name": "owner",
							"type": "address"
						}
					],
					"name": "OwnableInvalidOwner",
					"type": "error"
				},
				{
					"inputs": [
						{
							"internalType": "address",
							"name": "account",
							"type": "address"
						}
					],
					"name": "OwnableUnauthorizedAccount",
					"type": "error"
				},
				{
					"anonymous": false,
					"inputs": [
						{
							"indexed": true,
							"internalType": "address",
							"name": "user",
							"type": "address"
						},
						{
							"indexed": false,
							"internalType": "uint256",
							"name": "amount",
							"type": "uint256"
						}
					],
					"name": "Claimed",
					"type": "event"
				},
				{
					"anonymous": false,
					"inputs": [
						{
							"indexed": true,
							"internalType": "address",
							"name": "previousOwner",
							"type": "address"
						},
						{
							"indexed": true,
							"internalType": "address",
							"name": "newOwner",
							"type": "address"
						}
					],
					"name": "OwnershipTransferred",
					"type": "event"
				},
				{
					"inputs": [
						{
							"internalType": "address",
							"name": "user",
							"type": "address"
						}
					],
					"name": "checkDailyLimit",
					"outputs": [
						{
							"internalType": "bool",
							"name": "",
							"type": "bool"
						}
					],
					"stateMutability": "view",
					"type": "function"
				},
				{
					"inputs": [],
					"name": "chhToken",
					"outputs": [
						{
							"internalType": "contract IERC20",
							"name": "",
							"type": "address"
						}
					],
					"stateMutability": "view",
					"type": "function"
				},
				{
					"inputs": [
						{
							"internalType": "uint256",
							"name": "amount",
							"type": "uint256"
						},
						{
							"internalType": "bytes",
							"name": "signature",
							"type": "bytes"
						}
					],
					"name": "claim",
					"outputs": [],
					"stateMutability": "nonpayable",
					"type": "function"
				},
				{
					"inputs": [],
					"name": "getRemainingBalance",
					"outputs": [
						{
							"internalType": "uint256",
							"name": "",
							"type": "uint256"
						}
					],
					"stateMutability": "view",
					"type": "function"
				},
				{
					"inputs": [
						{
							"internalType": "address",
							"name": "",
							"type": "address"
						}
					],
					"name": "lastClaimTime",
					"outputs": [
						{
							"internalType": "uint256",
							"name": "",
							"type": "uint256"
						}
					],
					"stateMutability": "view",
					"type": "function"
				},
				{
					"inputs": [],
					"name": "owner",
					"outputs": [
						{
							"internalType": "address",
							"name": "",
							"type": "address"
						}
					],
					"stateMutability": "view",
					"type": "function"
				},
				{
					"inputs": [],
					"name": "renounceOwnership",
					"outputs": [],
					"stateMutability": "nonpayable",
					"type": "function"
				},
				{
					"inputs": [],
					"name": "signerAddress",
					"outputs": [
						{
							"internalType": "address",
							"name": "",
							"type": "address"
						}
					],
					"stateMutability": "view",
					"type": "function"
				},
				{
					"inputs": [
						{
							"internalType": "address",
							"name": "newOwner",
							"type": "address"
						}
					],
					"name": "transferOwnership",
					"outputs": [],
					"stateMutability": "nonpayable",
					"type": "function"
				},
				{
					"inputs": [
						{
							"internalType": "uint256",
							"name": "amount",
							"type": "uint256"
						}
					],
					"name": "withdrawToken",
					"outputs": [],
					"stateMutability": "nonpayable",
					"type": "function"
				}
			],
			"devdoc": {
				"errors": {
					"ECDSAInvalidSignature()": [
						{
							"details": "The signature derives the `address(0)`."
						}
					],
					"ECDSAInvalidSignatureLength(uint256)": [
						{
							"details": "The signature has an invalid length."
						}
					],
					"ECDSAInvalidSignatureS(bytes32)": [
						{
							"details": "The signature has an S value that is in the upper half order."
						}
					],
					"OwnableInvalidOwner(address)": [
						{
							"details": "The owner is not a valid owner account. (eg. `address(0)`)"
						}
					],
					"OwnableUnauthorizedAccount(address)": [
						{
							"details": "The caller account is not authorized to perform an operation."
						}
					]
				},
				"kind": "dev",
				"methods": {
					"owner()": {
						"details": "Returns the address of the current owner."
					},
					"renounceOwnership()": {
						"details": "Leaves the contract without owner. It will not be possible to call `onlyOwner` functions. Can only be called by the current owner. NOTE: Renouncing ownership will leave the contract without an owner, thereby disabling any functionality that is only available to the owner."
					},
					"transferOwnership(address)": {
						"details": "Transfers ownership of the contract to a new account (`newOwner`). Can only be called by the current owner."
					}
				},
				"version": 1
			},
			"evm": {
				"assembly": "    /* \"Script/ReversiDailyBonus.sol\":314:3004  contract ReversiPopClaim is Ownable {... */\n  mstore(0x40, 0xa0)\n    /* \"Script/ReversiDailyBonus.sol\":800:1098  constructor() Ownable(msg.sender) {... */\n  callvalue\n  dup1\n  iszero\n  tag_1\n  jumpi\n  revert(0x00, 0x00)\ntag_1:\n  pop\n    /* \"Script/ReversiDailyBonus.sol\":822:832  msg.sender */\n  caller\n    /* \"@openzeppelin/contracts/access/Ownable.sol\":1297:1298  0 */\n  0x00\n    /* \"@openzeppelin/contracts/access/Ownable.sol\":1273:1299  initialOwner == address(0) */\n  0xffffffffffffffffffffffffffffffffffffffff\n  and\n    /* \"@openzeppelin/contracts/access/Ownable.sol\":1273:1285  initialOwner */\n  dup2\n    /* \"@openzeppelin/contracts/access/Ownable.sol\":1273:1299  initialOwner == address(0) */\n  0xffffffffffffffffffffffffffffffffffffffff\n  and\n  sub\n    /* \"@openzeppelin/contracts/access/Ownable.sol\":1269:1364  if (initialOwner == address(0)) {... */\n  tag_5\n  jumpi\n    /* \"@openzeppelin/contracts/access/Ownable.sol\":1350:1351  0 */\n  0x00\n    /* \"@openzeppelin/contracts/access/Ownable.sol\":1322:1353  OwnableInvalidOwner(address(0)) */\n  mload(0x40)\n  0x1e4fbdf700000000000000000000000000000000000000000000000000000000\n  dup2\n  mstore\n  0x04\n  add\n  tag_6\n  swap2\n  swap1\n  tag_7\n  jump\t// in\ntag_6:\n  mload(0x40)\n  dup1\n  swap2\n  sub\n  swap1\n  revert\n    /* \"@openzeppelin/contracts/access/Ownable.sol\":1269:1364  if (initialOwner == address(0)) {... */\ntag_5:\n    /* \"@openzeppelin/contracts/access/Ownable.sol\":1373:1405  _transferOwnership(initialOwner) */\n  tag_8\n    /* \"@openzeppelin/contracts/access/Ownable.sol\":1392:1404  initialOwner */\n  dup2\n    /* \"@openzeppelin/contracts/access/Ownable.sol\":1373:1391  _transferOwnership */\n  shl(0x20, tag_9)\n    /* \"@openzeppelin/contracts/access/Ownable.sol\":1373:1405  _transferOwnership(initialOwner) */\n  0x20\n  shr\n  jump\t// in\ntag_8:\n    /* \"@openzeppelin/contracts/access/Ownable.sol\":1225:1412  constructor(address initialOwner) {... */\n  pop\n    /* \"Script/ReversiDailyBonus.sol\":897:939  0xb0525542E3D818460546332e76E511562dFf9B07 */\n  0xb0525542e3d818460546332e76e511562dff9b07\n    /* \"Script/ReversiDailyBonus.sol\":879:940  chhToken = IERC20(0xb0525542E3D818460546332e76E511562dFf9B07) */\n  0xffffffffffffffffffffffffffffffffffffffff\n  and\n  0x80\n  dup2\n  0xffffffffffffffffffffffffffffffffffffffff\n  and\n  dup2\n  mstore\n  pop\n  pop\n    /* \"Script/ReversiDailyBonus.sol\":1028:1090  _transferOwnership(0x9eB566Cc59e3e9D42209Dd2d832740a6A74f5F23) */\n  tag_11\n    /* \"Script/ReversiDailyBonus.sol\":1047:1089  0x9eB566Cc59e3e9D42209Dd2d832740a6A74f5F23 */\n  0x9eb566cc59e3e9d42209dd2d832740a6a74f5f23\n    /* \"Script/ReversiDailyBonus.sol\":1028:1046  _transferOwnership */\n  shl(0x20, tag_9)\n    /* \"Script/ReversiDailyBonus.sol\":1028:1090  _transferOwnership(0x9eB566Cc59e3e9D42209Dd2d832740a6A74f5F23) */\n  0x20\n  shr\n  jump\t// in\ntag_11:\n    /* \"Script/ReversiDailyBonus.sol\":314:3004  contract ReversiPopClaim is Ownable {... */\n  jump(tag_12)\n    /* \"@openzeppelin/contracts/access/Ownable.sol\":2912:3099  function _transferOwnership(address newOwner) internal virtual {... */\ntag_9:\n    /* \"@openzeppelin/contracts/access/Ownable.sol\":2985:3001  address oldOwner */\n  0x00\n    /* \"@openzeppelin/contracts/access/Ownable.sol\":3004:3010  _owner */\n  0x00\n  0x00\n  swap1\n  sload\n  swap1\n  0x0100\n  exp\n  swap1\n  div\n  0xffffffffffffffffffffffffffffffffffffffff\n  and\n    /* \"@openzeppelin/contracts/access/Ownable.sol\":2985:3010  address oldOwner = _owner */\n  swap1\n  pop\n    /* \"@openzeppelin/contracts/access/Ownable.sol\":3029:3037  newOwner */\n  dup2\n    /* \"@openzeppelin/contracts/access/Ownable.sol\":3020:3026  _owner */\n  0x00\n  0x00\n    /* \"@openzeppelin/contracts/access/Ownable.sol\":3020:3037  _owner = newOwner */\n  0x0100\n  exp\n  dup2\n  sload\n  dup2\n  0xffffffffffffffffffffffffffffffffffffffff\n  mul\n  not\n  and\n  swap1\n  dup4\n  0xffffffffffffffffffffffffffffffffffffffff\n  and\n  mul\n  or\n  swap1\n  sstore\n  pop\n    /* \"@openzeppelin/contracts/access/Ownable.sol\":3083:3091  newOwner */\n  dup2\n    /* \"@openzeppelin/contracts/access/Ownable.sol\":3052:3092  OwnershipTransferred(oldOwner, newOwner) */\n  0xffffffffffffffffffffffffffffffffffffffff\n  and\n    /* \"@openzeppelin/contracts/access/Ownable.sol\":3073:3081  oldOwner */\n  dup2\n    /* \"@openzeppelin/contracts/access/Ownable.sol\":3052:3092  OwnershipTransferred(oldOwner, newOwner) */\n  0xffffffffffffffffffffffffffffffffffffffff\n  and\n  0x8be0079c531659141344cd1fd0a4f28419497f9722a3daafe3b4186f6b6457e0\n  mload(0x40)\n  mload(0x40)\n  dup1\n  swap2\n  sub\n  swap1\n  log3\n    /* \"@openzeppelin/contracts/access/Ownable.sol\":2975:3099  {... */\n  pop\n    /* \"@openzeppelin/contracts/access/Ownable.sol\":2912:3099  function _transferOwnership(address newOwner) internal virtual {... */\n  pop\n  jump\t// out\n    /* \"#utility.yul\":7:133   */\ntag_14:\n    /* \"#utility.yul\":44:51   */\n  0x00\n    /* \"#utility.yul\":84:126   */\n  0xffffffffffffffffffffffffffffffffffffffff\n    /* \"#utility.yul\":77:82   */\n  dup3\n    /* \"#utility.yul\":73:127   */\n  and\n    /* \"#utility.yul\":62:127   */\n  swap1\n  pop\n    /* \"#utility.yul\":7:133   */\n  swap2\n  swap1\n  pop\n  jump\t// out\n    /* \"#utility.yul\":139:235   */\ntag_15:\n    /* \"#utility.yul\":176:183   */\n  0x00\n    /* \"#utility.yul\":205:229   */\n  tag_20\n    /* \"#utility.yul\":223:228   */\n  dup3\n    /* \"#utility.yul\":205:229   */\n  tag_14\n  jump\t// in\ntag_20:\n    /* \"#utility.yul\":194:229   */\n  swap1\n  pop\n    /* \"#utility.yul\":139:235   */\n  swap2\n  swap1\n  pop\n  jump\t// out\n    /* \"#utility.yul\":241:359   */\ntag_16:\n    /* \"#utility.yul\":328:352   */\n  tag_22\n    /* \"#utility.yul\":346:351   */\n  dup2\n    /* \"#utility.yul\":328:352   */\n  tag_15\n  jump\t// in\ntag_22:\n    /* \"#utility.yul\":323:326   */\n  dup3\n    /* \"#utility.yul\":316:353   */\n  mstore\n    /* \"#utility.yul\":241:359   */\n  pop\n  pop\n  jump\t// out\n    /* \"#utility.yul\":365:587   */\ntag_7:\n    /* \"#utility.yul\":458:462   */\n  0x00\n    /* \"#utility.yul\":496:498   */\n  0x20\n    /* \"#utility.yul\":485:494   */\n  dup3\n    /* \"#utility.yul\":481:499   */\n  add\n    /* \"#utility.yul\":473:499   */\n  swap1\n  pop\n    /* \"#utility.yul\":509:580   */\n  tag_24\n    /* \"#utility.yul\":577:578   */\n  0x00\n    /* \"#utility.yul\":566:575   */\n  dup4\n    /* \"#utility.yul\":562:579   */\n  add\n    /* \"#utility.yul\":553:559   */\n  dup5\n    /* \"#utility.yul\":509:580   */\n  tag_16\n  jump\t// in\ntag_24:\n    /* \"#utility.yul\":365:587   */\n  swap3\n  swap2\n  pop\n  pop\n  jump\t// out\n    /* \"Script/ReversiDailyBonus.sol\":314:3004  contract ReversiPopClaim is Ownable {... */\ntag_12:\n  mload(0x80)\n  codecopy(0x00, dataOffset(sub_0), dataSize(sub_0))\n  0x00\n  assignImmutable(\"0x15dac17534d727f56f02eed1b0e1d323453a8a2d87732dff195d0c9821940f9e\")\n  return(0x00, dataSize(sub_0))\nstop\n\nsub_0: assembly {\n        /* \"Script/ReversiDailyBonus.sol\":314:3004  contract ReversiPopClaim is Ownable {... */\n      mstore(0x40, 0x80)\n      callvalue\n      dup1\n      iszero\n      tag_1\n      jumpi\n      revert(0x00, 0x00)\n    tag_1:\n      pop\n      jumpi(tag_2, lt(calldatasize, 0x04))\n      shr(0xe0, calldataload(0x00))\n      dup1\n      0x8455d8d5\n      gt\n      tag_13\n      jumpi\n      dup1\n      0x8455d8d5\n      eq\n      tag_8\n      jumpi\n      dup1\n      0x8da5cb5b\n      eq\n      tag_9\n      jumpi\n      dup1\n      0x9c6b85bb\n      eq\n      tag_10\n      jumpi\n      dup1\n      0xb77cf9c6\n      eq\n      tag_11\n      jumpi\n      dup1\n      0xf2fde38b\n      eq\n      tag_12\n      jumpi\n      jump(tag_2)\n    tag_13:\n      dup1\n      0x2fba2c85\n      eq\n      tag_3\n      jumpi\n      dup1\n      0x38926b6d\n      eq\n      tag_4\n      jumpi\n      dup1\n      0x50baa622\n      eq\n      tag_5\n      jumpi\n      dup1\n      0x5b7633d0\n      eq\n      tag_6\n      jumpi\n      dup1\n      0x715018a6\n      eq\n      tag_7\n      jumpi\n    tag_2:\n      revert(0x00, 0x00)\n        /* \"Script/ReversiDailyBonus.sol\":2689:2811  function getRemainingBalance() external view returns (uint256) {... */\n    tag_3:\n      tag_14\n      tag_15\n      jump\t// in\n    tag_14:\n      mload(0x40)\n      tag_16\n      swap2\n      swap1\n      tag_17\n      jump\t// in\n    tag_16:\n      mload(0x40)\n      dup1\n      swap2\n      sub\n      swap1\n      return\n        /* \"Script/ReversiDailyBonus.sol\":1528:2640  function claim(uint256 amount, bytes calldata signature) external {... */\n    tag_4:\n      tag_18\n      0x04\n      dup1\n      calldatasize\n      sub\n      dup2\n      add\n      swap1\n      tag_19\n      swap2\n      swap1\n      tag_20\n      jump\t// in\n    tag_19:\n      tag_21\n      jump\t// in\n    tag_18:\n      stop\n        /* \"Script/ReversiDailyBonus.sol\":2859:3001  function withdrawToken(uint256 amount) external onlyOwner {... */\n    tag_5:\n      tag_22\n      0x04\n      dup1\n      calldatasize\n      sub\n      dup2\n      add\n      swap1\n      tag_23\n      swap2\n      swap1\n      tag_24\n      jump\t// in\n    tag_23:\n      tag_25\n      jump\t// in\n    tag_22:\n      stop\n        /* \"Script/ReversiDailyBonus.sol\":508:590  address public constant signerAddress = 0xB6eDacfc0dFc759E9AC5b9b8B6eB32310ac1Bb49 */\n    tag_6:\n      tag_26\n      tag_27\n      jump\t// in\n    tag_26:\n      mload(0x40)\n      tag_28\n      swap2\n      swap1\n      tag_29\n      jump\t// in\n    tag_28:\n      mload(0x40)\n      dup1\n      swap2\n      sub\n      swap1\n      return\n        /* \"@openzeppelin/contracts/access/Ownable.sol\":2293:2394  function renounceOwnership() public virtual onlyOwner {... */\n    tag_7:\n      tag_30\n      tag_31\n      jump\t// in\n    tag_30:\n      stop\n        /* \"Script/ReversiDailyBonus.sol\":416:448  IERC20 public immutable chhToken */\n    tag_8:\n      tag_32\n      tag_33\n      jump\t// in\n    tag_32:\n      mload(0x40)\n      tag_34\n      swap2\n      swap1\n      tag_35\n      jump\t// in\n    tag_34:\n      mload(0x40)\n      dup1\n      swap2\n      sub\n      swap1\n      return\n        /* \"@openzeppelin/contracts/access/Ownable.sol\":1638:1723  function owner() public view virtual returns (address) {... */\n    tag_9:\n      tag_36\n      tag_37\n      jump\t// in\n    tag_36:\n      mload(0x40)\n      tag_38\n      swap2\n      swap1\n      tag_29\n      jump\t// in\n    tag_38:\n      mload(0x40)\n      dup1\n      swap2\n      sub\n      swap1\n      return\n        /* \"Script/ReversiDailyBonus.sol\":1176:1497  function checkDailyLimit(address user) public view returns (bool) {... */\n    tag_10:\n      tag_39\n      0x04\n      dup1\n      calldatasize\n      sub\n      dup2\n      add\n      swap1\n      tag_40\n      swap2\n      swap1\n      tag_41\n      jump\t// in\n    tag_40:\n      tag_42\n      jump\t// in\n    tag_39:\n      mload(0x40)\n      tag_43\n      swap2\n      swap1\n      tag_44\n      jump\t// in\n    tag_43:\n      mload(0x40)\n      dup1\n      swap2\n      sub\n      swap1\n      return\n        /* \"Script/ReversiDailyBonus.sol\":661:709  mapping(address => uint256) public lastClaimTime */\n    tag_11:\n      tag_45\n      0x04\n      dup1\n      calldatasize\n      sub\n      dup2\n      add\n      swap1\n      tag_46\n      swap2\n      swap1\n      tag_41\n      jump\t// in\n    tag_46:\n      tag_47\n      jump\t// in\n    tag_45:\n      mload(0x40)\n      tag_48\n      swap2\n      swap1\n      tag_17\n      jump\t// in\n    tag_48:\n      mload(0x40)\n      dup1\n      swap2\n      sub\n      swap1\n      return\n        /* \"@openzeppelin/contracts/access/Ownable.sol\":2543:2758  function transferOwnership(address newOwner) public virtual onlyOwner {... */\n    tag_12:\n      tag_49\n      0x04\n      dup1\n      calldatasize\n      sub\n      dup2\n      add\n      swap1\n      tag_50\n      swap2\n      swap1\n      tag_41\n      jump\t// in\n    tag_50:\n      tag_51\n      jump\t// in\n    tag_49:\n      stop\n        /* \"Script/ReversiDailyBonus.sol\":2689:2811  function getRemainingBalance() external view returns (uint256) {... */\n    tag_15:\n        /* \"Script/ReversiDailyBonus.sol\":2743:2750  uint256 */\n      0x00\n        /* \"Script/ReversiDailyBonus.sol\":2770:2778  chhToken */\n      immutable(\"0x15dac17534d727f56f02eed1b0e1d323453a8a2d87732dff195d0c9821940f9e\")\n        /* \"Script/ReversiDailyBonus.sol\":2770:2788  chhToken.balanceOf */\n      0xffffffffffffffffffffffffffffffffffffffff\n      and\n      0x70a08231\n        /* \"Script/ReversiDailyBonus.sol\":2797:2801  this */\n      address\n        /* \"Script/ReversiDailyBonus.sol\":2770:2803  chhToken.balanceOf(address(this)) */\n      mload(0x40)\n      dup3\n      0xffffffff\n      and\n      0xe0\n      shl\n      dup2\n      mstore\n      0x04\n      add\n      tag_53\n      swap2\n      swap1\n      tag_29\n      jump\t// in\n    tag_53:\n      0x20\n      mload(0x40)\n      dup1\n      dup4\n      sub\n      dup2\n      dup7\n      gas\n      staticcall\n      iszero\n      dup1\n      iszero\n      tag_55\n      jumpi\n      returndatacopy(0x00, 0x00, returndatasize)\n      revert(0x00, returndatasize)\n    tag_55:\n      pop\n      pop\n      pop\n      pop\n      mload(0x40)\n      returndatasize\n      not(0x1f)\n      0x1f\n      dup3\n      add\n      and\n      dup3\n      add\n      dup1\n      0x40\n      mstore\n      pop\n      dup2\n      add\n      swap1\n      tag_56\n      swap2\n      swap1\n      tag_57\n      jump\t// in\n    tag_56:\n        /* \"Script/ReversiDailyBonus.sol\":2763:2803  return chhToken.balanceOf(address(this)) */\n      swap1\n      pop\n        /* \"Script/ReversiDailyBonus.sol\":2689:2811  function getRemainingBalance() external view returns (uint256) {... */\n      swap1\n      jump\t// out\n        /* \"Script/ReversiDailyBonus.sol\":1528:2640  function claim(uint256 amount, bytes calldata signature) external {... */\n    tag_21:\n        /* \"Script/ReversiDailyBonus.sol\":1622:1623  0 */\n      0x00\n        /* \"Script/ReversiDailyBonus.sol\":1613:1619  amount */\n      dup4\n        /* \"Script/ReversiDailyBonus.sol\":1613:1623  amount > 0 */\n      gt\n        /* \"Script/ReversiDailyBonus.sol\":1605:1646  require(amount > 0, \"Amount must be > 0\") */\n      tag_59\n      jumpi\n      mload(0x40)\n      0x08c379a000000000000000000000000000000000000000000000000000000000\n      dup2\n      mstore\n      0x04\n      add\n      tag_60\n      swap1\n      tag_61\n      jump\t// in\n    tag_60:\n      mload(0x40)\n      dup1\n      swap2\n      sub\n      swap1\n      revert\n    tag_59:\n        /* \"Script/ReversiDailyBonus.sol\":1675:1688  1500 * 10**18 */\n      0x5150ae84a8cdf00000\n        /* \"Script/ReversiDailyBonus.sol\":1665:1671  amount */\n      dup4\n        /* \"Script/ReversiDailyBonus.sol\":1665:1688  amount <= 1500 * 10**18 */\n      gt\n      iszero\n        /* \"Script/ReversiDailyBonus.sol\":1657:1724  require(amount <= 1500 * 10**18, \"Amount exceeds limit (1500 CHH)\") */\n      tag_62\n      jumpi\n      mload(0x40)\n      0x08c379a000000000000000000000000000000000000000000000000000000000\n      dup2\n      mstore\n      0x04\n      add\n      tag_63\n      swap1\n      tag_64\n      jump\t// in\n    tag_63:\n      mload(0x40)\n      dup1\n      swap2\n      sub\n      swap1\n      revert\n    tag_62:\n        /* \"Script/ReversiDailyBonus.sol\":1801:1828  checkDailyLimit(msg.sender) */\n      tag_65\n        /* \"Script/ReversiDailyBonus.sol\":1817:1827  msg.sender */\n      caller\n        /* \"Script/ReversiDailyBonus.sol\":1801:1816  checkDailyLimit */\n      tag_42\n        /* \"Script/ReversiDailyBonus.sol\":1801:1828  checkDailyLimit(msg.sender) */\n      jump\t// in\n    tag_65:\n        /* \"Script/ReversiDailyBonus.sol\":1793:1875  require(checkDailyLimit(msg.sender), \"Already claimed today (resets at UTC 0:00)\") */\n      tag_66\n      jumpi\n      mload(0x40)\n      0x08c379a000000000000000000000000000000000000000000000000000000000\n      dup2\n      mstore\n      0x04\n      add\n      tag_67\n      swap1\n      tag_68\n      jump\t// in\n    tag_67:\n      mload(0x40)\n      dup1\n      swap2\n      sub\n      swap1\n      revert\n    tag_66:\n        /* \"Script/ReversiDailyBonus.sol\":1920:1932  bytes32 hash */\n      0x00\n        /* \"Script/ReversiDailyBonus.sol\":1962:1972  msg.sender */\n      caller\n        /* \"Script/ReversiDailyBonus.sol\":1974:1980  amount */\n      dup5\n        /* \"Script/ReversiDailyBonus.sol\":1990:1994  this */\n      address\n        /* \"Script/ReversiDailyBonus.sol\":1945:1996  abi.encodePacked(msg.sender, amount, address(this)) */\n      add(0x20, mload(0x40))\n      tag_69\n      swap4\n      swap3\n      swap2\n      swap1\n      tag_70\n      jump\t// in\n    tag_69:\n      mload(0x40)\n      0x20\n      dup2\n      dup4\n      sub\n      sub\n      dup2\n      mstore\n      swap1\n      0x40\n      mstore\n        /* \"Script/ReversiDailyBonus.sol\":1935:1997  keccak256(abi.encodePacked(msg.sender, amount, address(this))) */\n      dup1\n      mload\n      swap1\n      0x20\n      add\n      keccak256\n        /* \"Script/ReversiDailyBonus.sol\":1920:1997  bytes32 hash = keccak256(abi.encodePacked(msg.sender, amount, address(this))) */\n      swap1\n      pop\n        /* \"Script/ReversiDailyBonus.sol\":2008:2036  bytes32 ethSignedMessageHash */\n      0x00\n        /* \"Script/ReversiDailyBonus.sol\":2039:2084  MessageHashUtils.toEthSignedMessageHash(hash) */\n      tag_71\n        /* \"Script/ReversiDailyBonus.sol\":2079:2083  hash */\n      dup3\n        /* \"Script/ReversiDailyBonus.sol\":2039:2078  MessageHashUtils.toEthSignedMessageHash */\n      tag_72\n        /* \"Script/ReversiDailyBonus.sol\":2039:2084  MessageHashUtils.toEthSignedMessageHash(hash) */\n      jump\t// in\n    tag_71:\n        /* \"Script/ReversiDailyBonus.sol\":2008:2084  bytes32 ethSignedMessageHash = MessageHashUtils.toEthSignedMessageHash(hash) */\n      swap1\n      pop\n        /* \"Script/ReversiDailyBonus.sol\":2105:2128  address recoveredSigner */\n      0x00\n        /* \"Script/ReversiDailyBonus.sol\":2131:2170  ethSignedMessageHash.recover(signature) */\n      tag_73\n        /* \"Script/ReversiDailyBonus.sol\":2160:2169  signature */\n      dup6\n      dup6\n        /* \"Script/ReversiDailyBonus.sol\":2131:2170  ethSignedMessageHash.recover(signature) */\n      dup1\n      dup1\n      0x1f\n      add\n      0x20\n      dup1\n      swap2\n      div\n      mul\n      0x20\n      add\n      mload(0x40)\n      swap1\n      dup2\n      add\n      0x40\n      mstore\n      dup1\n      swap4\n      swap3\n      swap2\n      swap1\n      dup2\n      dup2\n      mstore\n      0x20\n      add\n      dup4\n      dup4\n      dup1\n      dup3\n      dup5\n      calldatacopy\n      0x00\n      dup2\n      dup5\n      add\n      mstore\n      not(0x1f)\n      0x1f\n      dup3\n      add\n      and\n      swap1\n      pop\n      dup1\n      dup4\n      add\n      swap3\n      pop\n      pop\n      pop\n      pop\n      pop\n      pop\n      pop\n        /* \"Script/ReversiDailyBonus.sol\":2131:2151  ethSignedMessageHash */\n      dup4\n        /* \"Script/ReversiDailyBonus.sol\":2131:2159  ethSignedMessageHash.recover */\n      tag_74\n      swap1\n        /* \"Script/ReversiDailyBonus.sol\":2131:2170  ethSignedMessageHash.recover(signature) */\n      swap2\n      swap1\n      0xffffffff\n      and\n      jump\t// in\n    tag_73:\n        /* \"Script/ReversiDailyBonus.sol\":2105:2170  address recoveredSigner = ethSignedMessageHash.recover(signature) */\n      swap1\n      pop\n        /* \"Script/ReversiDailyBonus.sol\":548:590  0xB6eDacfc0dFc759E9AC5b9b8B6eB32310ac1Bb49 */\n      0xb6edacfc0dfc759e9ac5b9b8b6eb32310ac1bb49\n        /* \"Script/ReversiDailyBonus.sol\":2189:2221  recoveredSigner == signerAddress */\n      0xffffffffffffffffffffffffffffffffffffffff\n      and\n        /* \"Script/ReversiDailyBonus.sol\":2189:2204  recoveredSigner */\n      dup2\n        /* \"Script/ReversiDailyBonus.sol\":2189:2221  recoveredSigner == signerAddress */\n      0xffffffffffffffffffffffffffffffffffffffff\n      and\n      eq\n        /* \"Script/ReversiDailyBonus.sol\":2181:2243  require(recoveredSigner == signerAddress, \"Invalid signature\") */\n      tag_75\n      jumpi\n      mload(0x40)\n      0x08c379a000000000000000000000000000000000000000000000000000000000\n      dup2\n      mstore\n      0x04\n      add\n      tag_76\n      swap1\n      tag_77\n      jump\t// in\n    tag_76:\n      mload(0x40)\n      dup1\n      swap2\n      sub\n      swap1\n      revert\n    tag_75:\n        /* \"Script/ReversiDailyBonus.sol\":2316:2331  block.timestamp */\n      timestamp\n        /* \"Script/ReversiDailyBonus.sol\":2288:2301  lastClaimTime */\n      0x01\n        /* \"Script/ReversiDailyBonus.sol\":2288:2313  lastClaimTime[msg.sender] */\n      0x00\n        /* \"Script/ReversiDailyBonus.sol\":2302:2312  msg.sender */\n      caller\n        /* \"Script/ReversiDailyBonus.sol\":2288:2313  lastClaimTime[msg.sender] */\n      0xffffffffffffffffffffffffffffffffffffffff\n      and\n      0xffffffffffffffffffffffffffffffffffffffff\n      and\n      dup2\n      mstore\n      0x20\n      add\n      swap1\n      dup2\n      mstore\n      0x20\n      add\n      0x00\n      keccak256\n        /* \"Script/ReversiDailyBonus.sol\":2288:2331  lastClaimTime[msg.sender] = block.timestamp */\n      dup2\n      swap1\n      sstore\n      pop\n        /* \"Script/ReversiDailyBonus.sol\":2420:2426  amount */\n      dup6\n        /* \"Script/ReversiDailyBonus.sol\":2383:2391  chhToken */\n      immutable(\"0x15dac17534d727f56f02eed1b0e1d323453a8a2d87732dff195d0c9821940f9e\")\n        /* \"Script/ReversiDailyBonus.sol\":2383:2401  chhToken.balanceOf */\n      0xffffffffffffffffffffffffffffffffffffffff\n      and\n      0x70a08231\n        /* \"Script/ReversiDailyBonus.sol\":2410:2414  this */\n      address\n        /* \"Script/ReversiDailyBonus.sol\":2383:2416  chhToken.balanceOf(address(this)) */\n      mload(0x40)\n      dup3\n      0xffffffff\n      and\n      0xe0\n      shl\n      dup2\n      mstore\n      0x04\n      add\n      tag_78\n      swap2\n      swap1\n      tag_29\n      jump\t// in\n    tag_78:\n      0x20\n      mload(0x40)\n      dup1\n      dup4\n      sub\n      dup2\n      dup7\n      gas\n      staticcall\n      iszero\n      dup1\n      iszero\n      tag_80\n      jumpi\n      returndatacopy(0x00, 0x00, returndatasize)\n      revert(0x00, returndatasize)\n    tag_80:\n      pop\n      pop\n      pop\n      pop\n      mload(0x40)\n      returndatasize\n      not(0x1f)\n      0x1f\n      dup3\n      add\n      and\n      dup3\n      add\n      dup1\n      0x40\n      mstore\n      pop\n      dup2\n      add\n      swap1\n      tag_81\n      swap2\n      swap1\n      tag_57\n      jump\t// in\n    tag_81:\n        /* \"Script/ReversiDailyBonus.sol\":2383:2426  chhToken.balanceOf(address(this)) >= amount */\n      lt\n      iszero\n        /* \"Script/ReversiDailyBonus.sol\":2375:2464  require(chhToken.balanceOf(address(this)) >= amount, \"Contract has insufficient balance\") */\n      tag_82\n      jumpi\n      mload(0x40)\n      0x08c379a000000000000000000000000000000000000000000000000000000000\n      dup2\n      mstore\n      0x04\n      add\n      tag_83\n      swap1\n      tag_84\n      jump\t// in\n    tag_83:\n      mload(0x40)\n      dup1\n      swap2\n      sub\n      swap1\n      revert\n    tag_82:\n        /* \"Script/ReversiDailyBonus.sol\":2475:2487  bool success */\n      0x00\n        /* \"Script/ReversiDailyBonus.sol\":2490:2498  chhToken */\n      immutable(\"0x15dac17534d727f56f02eed1b0e1d323453a8a2d87732dff195d0c9821940f9e\")\n        /* \"Script/ReversiDailyBonus.sol\":2490:2507  chhToken.transfer */\n      0xffffffffffffffffffffffffffffffffffffffff\n      and\n      0xa9059cbb\n        /* \"Script/ReversiDailyBonus.sol\":2508:2518  msg.sender */\n      caller\n        /* \"Script/ReversiDailyBonus.sol\":2520:2526  amount */\n      dup10\n        /* \"Script/ReversiDailyBonus.sol\":2490:2527  chhToken.transfer(msg.sender, amount) */\n      mload(0x40)\n      dup4\n      0xffffffff\n      and\n      0xe0\n      shl\n      dup2\n      mstore\n      0x04\n      add\n      tag_85\n      swap3\n      swap2\n      swap1\n      tag_86\n      jump\t// in\n    tag_85:\n      0x20\n      mload(0x40)\n      dup1\n      dup4\n      sub\n      dup2\n      0x00\n      dup8\n      gas\n      call\n      iszero\n      dup1\n      iszero\n      tag_88\n      jumpi\n      returndatacopy(0x00, 0x00, returndatasize)\n      revert(0x00, returndatasize)\n    tag_88:\n      pop\n      pop\n      pop\n      pop\n      mload(0x40)\n      returndatasize\n      not(0x1f)\n      0x1f\n      dup3\n      add\n      and\n      dup3\n      add\n      dup1\n      0x40\n      mstore\n      pop\n      dup2\n      add\n      swap1\n      tag_89\n      swap2\n      swap1\n      tag_90\n      jump\t// in\n    tag_89:\n        /* \"Script/ReversiDailyBonus.sol\":2475:2527  bool success = chhToken.transfer(msg.sender, amount) */\n      swap1\n      pop\n        /* \"Script/ReversiDailyBonus.sol\":2546:2553  success */\n      dup1\n        /* \"Script/ReversiDailyBonus.sol\":2538:2579  require(success, \"Token transfer failed\") */\n      tag_91\n      jumpi\n      mload(0x40)\n      0x08c379a000000000000000000000000000000000000000000000000000000000\n      dup2\n      mstore\n      0x04\n      add\n      tag_92\n      swap1\n      tag_93\n      jump\t// in\n    tag_92:\n      mload(0x40)\n      dup1\n      swap2\n      sub\n      swap1\n      revert\n    tag_91:\n        /* \"Script/ReversiDailyBonus.sol\":2613:2623  msg.sender */\n      caller\n        /* \"Script/ReversiDailyBonus.sol\":2605:2632  Claimed(msg.sender, amount) */\n      0xffffffffffffffffffffffffffffffffffffffff\n      and\n      0xd8138f8a3f377c5259ca548e70e4c2de94f129f5a11036a15b69513cba2b426a\n        /* \"Script/ReversiDailyBonus.sol\":2625:2631  amount */\n      dup9\n        /* \"Script/ReversiDailyBonus.sol\":2605:2632  Claimed(msg.sender, amount) */\n      mload(0x40)\n      tag_94\n      swap2\n      swap1\n      tag_17\n      jump\t// in\n    tag_94:\n      mload(0x40)\n      dup1\n      swap2\n      sub\n      swap1\n      log2\n        /* \"Script/ReversiDailyBonus.sol\":1594:2640  {... */\n      pop\n      pop\n      pop\n      pop\n        /* \"Script/ReversiDailyBonus.sol\":1528:2640  function claim(uint256 amount, bytes calldata signature) external {... */\n      pop\n      pop\n      pop\n      jump\t// out\n        /* \"Script/ReversiDailyBonus.sol\":2859:3001  function withdrawToken(uint256 amount) external onlyOwner {... */\n    tag_25:\n        /* \"@openzeppelin/contracts/access/Ownable.sol\":1531:1544  _checkOwner() */\n      tag_96\n        /* \"@openzeppelin/contracts/access/Ownable.sol\":1531:1542  _checkOwner */\n      tag_97\n        /* \"@openzeppelin/contracts/access/Ownable.sol\":1531:1544  _checkOwner() */\n      jump\t// in\n    tag_96:\n        /* \"Script/ReversiDailyBonus.sol\":2936:2944  chhToken */\n      immutable(\"0x15dac17534d727f56f02eed1b0e1d323453a8a2d87732dff195d0c9821940f9e\")\n        /* \"Script/ReversiDailyBonus.sol\":2936:2953  chhToken.transfer */\n      0xffffffffffffffffffffffffffffffffffffffff\n      and\n      0xa9059cbb\n        /* \"Script/ReversiDailyBonus.sol\":2954:2964  msg.sender */\n      caller\n        /* \"Script/ReversiDailyBonus.sol\":2966:2972  amount */\n      dup4\n        /* \"Script/ReversiDailyBonus.sol\":2936:2973  chhToken.transfer(msg.sender, amount) */\n      mload(0x40)\n      dup4\n      0xffffffff\n      and\n      0xe0\n      shl\n      dup2\n      mstore\n      0x04\n      add\n      tag_99\n      swap3\n      swap2\n      swap1\n      tag_86\n      jump\t// in\n    tag_99:\n      0x20\n      mload(0x40)\n      dup1\n      dup4\n      sub\n      dup2\n      0x00\n      dup8\n      gas\n      call\n      iszero\n      dup1\n      iszero\n      tag_101\n      jumpi\n      returndatacopy(0x00, 0x00, returndatasize)\n      revert(0x00, returndatasize)\n    tag_101:\n      pop\n      pop\n      pop\n      pop\n      mload(0x40)\n      returndatasize\n      not(0x1f)\n      0x1f\n      dup3\n      add\n      and\n      dup3\n      add\n      dup1\n      0x40\n      mstore\n      pop\n      dup2\n      add\n      swap1\n      tag_102\n      swap2\n      swap1\n      tag_90\n      jump\t// in\n    tag_102:\n        /* \"Script/ReversiDailyBonus.sol\":2928:2993  require(chhToken.transfer(msg.sender, amount), \"Transfer failed\") */\n      tag_103\n      jumpi\n      mload(0x40)\n      0x08c379a000000000000000000000000000000000000000000000000000000000\n      dup2\n      mstore\n      0x04\n      add\n      tag_104\n      swap1\n      tag_105\n      jump\t// in\n    tag_104:\n      mload(0x40)\n      dup1\n      swap2\n      sub\n      swap1\n      revert\n    tag_103:\n        /* \"Script/ReversiDailyBonus.sol\":2859:3001  function withdrawToken(uint256 amount) external onlyOwner {... */\n      pop\n      jump\t// out\n        /* \"Script/ReversiDailyBonus.sol\":508:590  address public constant signerAddress = 0xB6eDacfc0dFc759E9AC5b9b8B6eB32310ac1Bb49 */\n    tag_27:\n        /* \"Script/ReversiDailyBonus.sol\":548:590  0xB6eDacfc0dFc759E9AC5b9b8B6eB32310ac1Bb49 */\n      0xb6edacfc0dfc759e9ac5b9b8b6eb32310ac1bb49\n        /* \"Script/ReversiDailyBonus.sol\":508:590  address public constant signerAddress = 0xB6eDacfc0dFc759E9AC5b9b8B6eB32310ac1Bb49 */\n      dup2\n      jump\t// out\n        /* \"@openzeppelin/contracts/access/Ownable.sol\":2293:2394  function renounceOwnership() public virtual onlyOwner {... */\n    tag_31:\n        /* \"@openzeppelin/contracts/access/Ownable.sol\":1531:1544  _checkOwner() */\n      tag_107\n        /* \"@openzeppelin/contracts/access/Ownable.sol\":1531:1542  _checkOwner */\n      tag_97\n        /* \"@openzeppelin/contracts/access/Ownable.sol\":1531:1544  _checkOwner() */\n      jump\t// in\n    tag_107:\n        /* \"@openzeppelin/contracts/access/Ownable.sol\":2357:2387  _transferOwnership(address(0)) */\n      tag_109\n        /* \"@openzeppelin/contracts/access/Ownable.sol\":2384:2385  0 */\n      0x00\n        /* \"@openzeppelin/contracts/access/Ownable.sol\":2357:2375  _transferOwnership */\n      tag_110\n        /* \"@openzeppelin/contracts/access/Ownable.sol\":2357:2387  _transferOwnership(address(0)) */\n      jump\t// in\n    tag_109:\n        /* \"@openzeppelin/contracts/access/Ownable.sol\":2293:2394  function renounceOwnership() public virtual onlyOwner {... */\n      jump\t// out\n        /* \"Script/ReversiDailyBonus.sol\":416:448  IERC20 public immutable chhToken */\n    tag_33:\n      immutable(\"0x15dac17534d727f56f02eed1b0e1d323453a8a2d87732dff195d0c9821940f9e\")\n      dup2\n      jump\t// out\n        /* \"@openzeppelin/contracts/access/Ownable.sol\":1638:1723  function owner() public view virtual returns (address) {... */\n    tag_37:\n        /* \"@openzeppelin/contracts/access/Ownable.sol\":1684:1691  address */\n      0x00\n        /* \"@openzeppelin/contracts/access/Ownable.sol\":1710:1716  _owner */\n      0x00\n      0x00\n      swap1\n      sload\n      swap1\n      0x0100\n      exp\n      swap1\n      div\n      0xffffffffffffffffffffffffffffffffffffffff\n      and\n        /* \"@openzeppelin/contracts/access/Ownable.sol\":1703:1716  return _owner */\n      swap1\n      pop\n        /* \"@openzeppelin/contracts/access/Ownable.sol\":1638:1723  function owner() public view virtual returns (address) {... */\n      swap1\n      jump\t// out\n        /* \"Script/ReversiDailyBonus.sol\":1176:1497  function checkDailyLimit(address user) public view returns (bool) {... */\n    tag_42:\n        /* \"Script/ReversiDailyBonus.sol\":1236:1240  bool */\n      0x00\n        /* \"Script/ReversiDailyBonus.sol\":1253:1271  uint256 currentDay */\n      0x00\n        /* \"Script/ReversiDailyBonus.sol\":1292:1298  1 days */\n      0x015180\n        /* \"Script/ReversiDailyBonus.sol\":1274:1289  block.timestamp */\n      timestamp\n        /* \"Script/ReversiDailyBonus.sol\":1274:1298  block.timestamp / 1 days */\n      tag_113\n      swap2\n      swap1\n      tag_114\n      jump\t// in\n    tag_113:\n        /* \"Script/ReversiDailyBonus.sol\":1253:1298  uint256 currentDay = block.timestamp / 1 days */\n      swap1\n      pop\n        /* \"Script/ReversiDailyBonus.sol\":1309:1331  uint256 lastClaimedDay */\n      0x00\n        /* \"Script/ReversiDailyBonus.sol\":1356:1362  1 days */\n      0x015180\n        /* \"Script/ReversiDailyBonus.sol\":1334:1347  lastClaimTime */\n      0x01\n        /* \"Script/ReversiDailyBonus.sol\":1334:1353  lastClaimTime[user] */\n      0x00\n        /* \"Script/ReversiDailyBonus.sol\":1348:1352  user */\n      dup7\n        /* \"Script/ReversiDailyBonus.sol\":1334:1353  lastClaimTime[user] */\n      0xffffffffffffffffffffffffffffffffffffffff\n      and\n      0xffffffffffffffffffffffffffffffffffffffff\n      and\n      dup2\n      mstore\n      0x20\n      add\n      swap1\n      dup2\n      mstore\n      0x20\n      add\n      0x00\n      keccak256\n      sload\n        /* \"Script/ReversiDailyBonus.sol\":1334:1362  lastClaimTime[user] / 1 days */\n      tag_115\n      swap2\n      swap1\n      tag_114\n      jump\t// in\n    tag_115:\n        /* \"Script/ReversiDailyBonus.sol\":1309:1362  uint256 lastClaimedDay = lastClaimTime[user] / 1 days */\n      swap1\n      pop\n        /* \"Script/ReversiDailyBonus.sol\":1475:1489  lastClaimedDay */\n      dup1\n        /* \"Script/ReversiDailyBonus.sol\":1462:1472  currentDay */\n      dup3\n        /* \"Script/ReversiDailyBonus.sol\":1462:1489  currentDay > lastClaimedDay */\n      gt\n        /* \"Script/ReversiDailyBonus.sol\":1455:1489  return currentDay > lastClaimedDay */\n      swap3\n      pop\n      pop\n      pop\n        /* \"Script/ReversiDailyBonus.sol\":1176:1497  function checkDailyLimit(address user) public view returns (bool) {... */\n      swap2\n      swap1\n      pop\n      jump\t// out\n        /* \"Script/ReversiDailyBonus.sol\":661:709  mapping(address => uint256) public lastClaimTime */\n    tag_47:\n      mstore(0x20, 0x01)\n      dup1\n      0x00\n      mstore\n      keccak256(0x00, 0x40)\n      0x00\n      swap2\n      pop\n      swap1\n      pop\n      sload\n      dup2\n      jump\t// out\n        /* \"@openzeppelin/contracts/access/Ownable.sol\":2543:2758  function transferOwnership(address newOwner) public virtual onlyOwner {... */\n    tag_51:\n        /* \"@openzeppelin/contracts/access/Ownable.sol\":1531:1544  _checkOwner() */\n      tag_117\n        /* \"@openzeppelin/contracts/access/Ownable.sol\":1531:1542  _checkOwner */\n      tag_97\n        /* \"@openzeppelin/contracts/access/Ownable.sol\":1531:1544  _checkOwner() */\n      jump\t// in\n    tag_117:\n        /* \"@openzeppelin/contracts/access/Ownable.sol\":2647:2648  0 */\n      0x00\n        /* \"@openzeppelin/contracts/access/Ownable.sol\":2627:2649  newOwner == address(0) */\n      0xffffffffffffffffffffffffffffffffffffffff\n      and\n        /* \"@openzeppelin/contracts/access/Ownable.sol\":2627:2635  newOwner */\n      dup2\n        /* \"@openzeppelin/contracts/access/Ownable.sol\":2627:2649  newOwner == address(0) */\n      0xffffffffffffffffffffffffffffffffffffffff\n      and\n      sub\n        /* \"@openzeppelin/contracts/access/Ownable.sol\":2623:2714  if (newOwner == address(0)) {... */\n      tag_119\n      jumpi\n        /* \"@openzeppelin/contracts/access/Ownable.sol\":2700:2701  0 */\n      0x00\n        /* \"@openzeppelin/contracts/access/Ownable.sol\":2672:2703  OwnableInvalidOwner(address(0)) */\n      mload(0x40)\n      0x1e4fbdf700000000000000000000000000000000000000000000000000000000\n      dup2\n      mstore\n      0x04\n      add\n      tag_120\n      swap2\n      swap1\n      tag_29\n      jump\t// in\n    tag_120:\n      mload(0x40)\n      dup1\n      swap2\n      sub\n      swap1\n      revert\n        /* \"@openzeppelin/contracts/access/Ownable.sol\":2623:2714  if (newOwner == address(0)) {... */\n    tag_119:\n        /* \"@openzeppelin/contracts/access/Ownable.sol\":2723:2751  _transferOwnership(newOwner) */\n      tag_121\n        /* \"@openzeppelin/contracts/access/Ownable.sol\":2742:2750  newOwner */\n      dup2\n        /* \"@openzeppelin/contracts/access/Ownable.sol\":2723:2741  _transferOwnership */\n      tag_110\n        /* \"@openzeppelin/contracts/access/Ownable.sol\":2723:2751  _transferOwnership(newOwner) */\n      jump\t// in\n    tag_121:\n        /* \"@openzeppelin/contracts/access/Ownable.sol\":2543:2758  function transferOwnership(address newOwner) public virtual onlyOwner {... */\n      pop\n      jump\t// out\n        /* \"@openzeppelin/contracts/utils/cryptography/MessageHashUtils.sol\":1247:1680  function toEthSignedMessageHash(bytes32 messageHash) internal pure returns (bytes32 digest) {... */\n    tag_72:\n        /* \"@openzeppelin/contracts/utils/cryptography/MessageHashUtils.sol\":1323:1337  bytes32 digest */\n      0x00\n        /* \"@openzeppelin/contracts/utils/cryptography/MessageHashUtils.sol\":1401:1435  \"\\x19Ethereum Signed Message:\\n32\" */\n      0x19457468657265756d205369676e6564204d6573736167653a0a333200000000\n        /* \"@openzeppelin/contracts/utils/cryptography/MessageHashUtils.sol\":1395:1399  0x00 */\n      0x00\n        /* \"@openzeppelin/contracts/utils/cryptography/MessageHashUtils.sol\":1388:1436  mstore(0x00, \"\\x19Ethereum Signed Message:\\n32\") */\n      mstore\n        /* \"@openzeppelin/contracts/utils/cryptography/MessageHashUtils.sol\":1503:1514  messageHash */\n      dup2\n        /* \"@openzeppelin/contracts/utils/cryptography/MessageHashUtils.sol\":1497:1501  0x1c */\n      0x1c\n        /* \"@openzeppelin/contracts/utils/cryptography/MessageHashUtils.sol\":1490:1515  mstore(0x1c, messageHash) */\n      mstore\n        /* \"@openzeppelin/contracts/utils/cryptography/MessageHashUtils.sol\":1595:1599  0x3c */\n      0x3c\n        /* \"@openzeppelin/contracts/utils/cryptography/MessageHashUtils.sol\":1589:1593  0x00 */\n      0x00\n        /* \"@openzeppelin/contracts/utils/cryptography/MessageHashUtils.sol\":1579:1600  keccak256(0x00, 0x3c) */\n      keccak256\n        /* \"@openzeppelin/contracts/utils/cryptography/MessageHashUtils.sol\":1569:1600  digest := keccak256(0x00, 0x3c) */\n      swap1\n      pop\n        /* \"@openzeppelin/contracts/utils/cryptography/MessageHashUtils.sol\":1247:1680  function toEthSignedMessageHash(bytes32 messageHash) internal pure returns (bytes32 digest) {... */\n      swap2\n      swap1\n      pop\n      jump\t// out\n        /* \"@openzeppelin/contracts/utils/cryptography/ECDSA.sol\":3714:3969  function recover(bytes32 hash, bytes memory signature) internal pure returns (address) {... */\n    tag_74:\n        /* \"@openzeppelin/contracts/utils/cryptography/ECDSA.sol\":3792:3799  address */\n      0x00\n        /* \"@openzeppelin/contracts/utils/cryptography/ECDSA.sol\":3812:3829  address recovered */\n      0x00\n        /* \"@openzeppelin/contracts/utils/cryptography/ECDSA.sol\":3831:3849  RecoverError error */\n      0x00\n        /* \"@openzeppelin/contracts/utils/cryptography/ECDSA.sol\":3851:3867  bytes32 errorArg */\n      0x00\n        /* \"@openzeppelin/contracts/utils/cryptography/ECDSA.sol\":3871:3898  tryRecover(hash, signature) */\n      tag_124\n        /* \"@openzeppelin/contracts/utils/cryptography/ECDSA.sol\":3882:3886  hash */\n      dup7\n        /* \"@openzeppelin/contracts/utils/cryptography/ECDSA.sol\":3888:3897  signature */\n      dup7\n        /* \"@openzeppelin/contracts/utils/cryptography/ECDSA.sol\":3871:3881  tryRecover */\n      tag_125\n        /* \"@openzeppelin/contracts/utils/cryptography/ECDSA.sol\":3871:3898  tryRecover(hash, signature) */\n      jump\t// in\n    tag_124:\n        /* \"@openzeppelin/contracts/utils/cryptography/ECDSA.sol\":3811:3898  (address recovered, RecoverError error, bytes32 errorArg) = tryRecover(hash, signature) */\n      swap3\n      pop\n      swap3\n      pop\n      swap3\n      pop\n        /* \"@openzeppelin/contracts/utils/cryptography/ECDSA.sol\":3908:3936  _throwError(error, errorArg) */\n      tag_126\n        /* \"@openzeppelin/contracts/utils/cryptography/ECDSA.sol\":3920:3925  error */\n      dup3\n        /* \"@openzeppelin/contracts/utils/cryptography/ECDSA.sol\":3927:3935  errorArg */\n      dup3\n        /* \"@openzeppelin/contracts/utils/cryptography/ECDSA.sol\":3908:3919  _throwError */\n      tag_127\n        /* \"@openzeppelin/contracts/utils/cryptography/ECDSA.sol\":3908:3936  _throwError(error, errorArg) */\n      jump\t// in\n    tag_126:\n        /* \"@openzeppelin/contracts/utils/cryptography/ECDSA.sol\":3953:3962  recovered */\n      dup3\n        /* \"@openzeppelin/contracts/utils/cryptography/ECDSA.sol\":3946:3962  return recovered */\n      swap4\n      pop\n      pop\n      pop\n      pop\n        /* \"@openzeppelin/contracts/utils/cryptography/ECDSA.sol\":3714:3969  function recover(bytes32 hash, bytes memory signature) internal pure returns (address) {... */\n      swap3\n      swap2\n      pop\n      pop\n      jump\t// out\n        /* \"@openzeppelin/contracts/access/Ownable.sol\":1796:1958  function _checkOwner() internal view virtual {... */\n    tag_97:\n        /* \"@openzeppelin/contracts/access/Ownable.sol\":1866:1878  _msgSender() */\n      tag_129\n        /* \"@openzeppelin/contracts/access/Ownable.sol\":1866:1876  _msgSender */\n      tag_130\n        /* \"@openzeppelin/contracts/access/Ownable.sol\":1866:1878  _msgSender() */\n      jump\t// in\n    tag_129:\n        /* \"@openzeppelin/contracts/access/Ownable.sol\":1855:1878  owner() != _msgSender() */\n      0xffffffffffffffffffffffffffffffffffffffff\n      and\n        /* \"@openzeppelin/contracts/access/Ownable.sol\":1855:1862  owner() */\n      tag_131\n        /* \"@openzeppelin/contracts/access/Ownable.sol\":1855:1860  owner */\n      tag_37\n        /* \"@openzeppelin/contracts/access/Ownable.sol\":1855:1862  owner() */\n      jump\t// in\n    tag_131:\n        /* \"@openzeppelin/contracts/access/Ownable.sol\":1855:1878  owner() != _msgSender() */\n      0xffffffffffffffffffffffffffffffffffffffff\n      and\n      eq\n        /* \"@openzeppelin/contracts/access/Ownable.sol\":1851:1952  if (owner() != _msgSender()) {... */\n      tag_132\n      jumpi\n        /* \"@openzeppelin/contracts/access/Ownable.sol\":1928:1940  _msgSender() */\n      tag_133\n        /* \"@openzeppelin/contracts/access/Ownable.sol\":1928:1938  _msgSender */\n      tag_130\n        /* \"@openzeppelin/contracts/access/Ownable.sol\":1928:1940  _msgSender() */\n      jump\t// in\n    tag_133:\n        /* \"@openzeppelin/contracts/access/Ownable.sol\":1901:1941  OwnableUnauthorizedAccount(_msgSender()) */\n      mload(0x40)\n      0x118cdaa700000000000000000000000000000000000000000000000000000000\n      dup2\n      mstore\n      0x04\n      add\n      tag_134\n      swap2\n      swap1\n      tag_29\n      jump\t// in\n    tag_134:\n      mload(0x40)\n      dup1\n      swap2\n      sub\n      swap1\n      revert\n        /* \"@openzeppelin/contracts/access/Ownable.sol\":1851:1952  if (owner() != _msgSender()) {... */\n    tag_132:\n        /* \"@openzeppelin/contracts/access/Ownable.sol\":1796:1958  function _checkOwner() internal view virtual {... */\n      jump\t// out\n        /* \"@openzeppelin/contracts/access/Ownable.sol\":2912:3099  function _transferOwnership(address newOwner) internal virtual {... */\n    tag_110:\n        /* \"@openzeppelin/contracts/access/Ownable.sol\":2985:3001  address oldOwner */\n      0x00\n        /* \"@openzeppelin/contracts/access/Ownable.sol\":3004:3010  _owner */\n      0x00\n      0x00\n      swap1\n      sload\n      swap1\n      0x0100\n      exp\n      swap1\n      div\n      0xffffffffffffffffffffffffffffffffffffffff\n      and\n        /* \"@openzeppelin/contracts/access/Ownable.sol\":2985:3010  address oldOwner = _owner */\n      swap1\n      pop\n        /* \"@openzeppelin/contracts/access/Ownable.sol\":3029:3037  newOwner */\n      dup2\n        /* \"@openzeppelin/contracts/access/Ownable.sol\":3020:3026  _owner */\n      0x00\n      0x00\n        /* \"@openzeppelin/contracts/access/Ownable.sol\":3020:3037  _owner = newOwner */\n      0x0100\n      exp\n      dup2\n      sload\n      dup2\n      0xffffffffffffffffffffffffffffffffffffffff\n      mul\n      not\n      and\n      swap1\n      dup4\n      0xffffffffffffffffffffffffffffffffffffffff\n      and\n      mul\n      or\n      swap1\n      sstore\n      pop\n        /* \"@openzeppelin/contracts/access/Ownable.sol\":3083:3091  newOwner */\n      dup2\n        /* \"@openzeppelin/contracts/access/Ownable.sol\":3052:3092  OwnershipTransferred(oldOwner, newOwner) */\n      0xffffffffffffffffffffffffffffffffffffffff\n      and\n        /* \"@openzeppelin/contracts/access/Ownable.sol\":3073:3081  oldOwner */\n      dup2\n        /* \"@openzeppelin/contracts/access/Ownable.sol\":3052:3092  OwnershipTransferred(oldOwner, newOwner) */\n      0xffffffffffffffffffffffffffffffffffffffff\n      and\n      0x8be0079c531659141344cd1fd0a4f28419497f9722a3daafe3b4186f6b6457e0\n      mload(0x40)\n      mload(0x40)\n      dup1\n      swap2\n      sub\n      swap1\n      log3\n        /* \"@openzeppelin/contracts/access/Ownable.sol\":2975:3099  {... */\n      pop\n        /* \"@openzeppelin/contracts/access/Ownable.sol\":2912:3099  function _transferOwnership(address newOwner) internal virtual {... */\n      pop\n      jump\t// out\n        /* \"@openzeppelin/contracts/utils/cryptography/ECDSA.sol\":2129:2907  function tryRecover(... */\n    tag_125:\n        /* \"@openzeppelin/contracts/utils/cryptography/ECDSA.sol\":2232:2249  address recovered */\n      0x00\n        /* \"@openzeppelin/contracts/utils/cryptography/ECDSA.sol\":2251:2267  RecoverError err */\n      0x00\n        /* \"@openzeppelin/contracts/utils/cryptography/ECDSA.sol\":2269:2283  bytes32 errArg */\n      0x00\n        /* \"@openzeppelin/contracts/utils/cryptography/ECDSA.sol\":2319:2321  65 */\n      0x41\n        /* \"@openzeppelin/contracts/utils/cryptography/ECDSA.sol\":2299:2308  signature */\n      dup5\n        /* \"@openzeppelin/contracts/utils/cryptography/ECDSA.sol\":2299:2315  signature.length */\n      mload\n        /* \"@openzeppelin/contracts/utils/cryptography/ECDSA.sol\":2299:2321  signature.length == 65 */\n      sub\n        /* \"@openzeppelin/contracts/utils/cryptography/ECDSA.sol\":2295:2901  if (signature.length == 65) {... */\n      tag_137\n      jumpi\n        /* \"@openzeppelin/contracts/utils/cryptography/ECDSA.sol\":2337:2346  bytes32 r */\n      0x00\n        /* \"@openzeppelin/contracts/utils/cryptography/ECDSA.sol\":2360:2369  bytes32 s */\n      0x00\n        /* \"@openzeppelin/contracts/utils/cryptography/ECDSA.sol\":2383:2390  uint8 v */\n      0x00\n        /* \"@openzeppelin/contracts/utils/cryptography/ECDSA.sol\":2604:2608  0x20 */\n      0x20\n        /* \"@openzeppelin/contracts/utils/cryptography/ECDSA.sol\":2593:2602  signature */\n      dup8\n        /* \"@openzeppelin/contracts/utils/cryptography/ECDSA.sol\":2589:2609  add(signature, 0x20) */\n      add\n        /* \"@openzeppelin/contracts/utils/cryptography/ECDSA.sol\":2583:2610  mload(add(signature, 0x20)) */\n      mload\n        /* \"@openzeppelin/contracts/utils/cryptography/ECDSA.sol\":2578:2610  r := mload(add(signature, 0x20)) */\n      swap3\n      pop\n        /* \"@openzeppelin/contracts/utils/cryptography/ECDSA.sol\":2653:2657  0x40 */\n      0x40\n        /* \"@openzeppelin/contracts/utils/cryptography/ECDSA.sol\":2642:2651  signature */\n      dup8\n        /* \"@openzeppelin/contracts/utils/cryptography/ECDSA.sol\":2638:2658  add(signature, 0x40) */\n      add\n        /* \"@openzeppelin/contracts/utils/cryptography/ECDSA.sol\":2632:2659  mload(add(signature, 0x40)) */\n      mload\n        /* \"@openzeppelin/contracts/utils/cryptography/ECDSA.sol\":2627:2659  s := mload(add(signature, 0x40)) */\n      swap2\n      pop\n        /* \"@openzeppelin/contracts/utils/cryptography/ECDSA.sol\":2710:2714  0x60 */\n      0x60\n        /* \"@openzeppelin/contracts/utils/cryptography/ECDSA.sol\":2699:2708  signature */\n      dup8\n        /* \"@openzeppelin/contracts/utils/cryptography/ECDSA.sol\":2695:2715  add(signature, 0x60) */\n      add\n        /* \"@openzeppelin/contracts/utils/cryptography/ECDSA.sol\":2689:2716  mload(add(signature, 0x60)) */\n      mload\n        /* \"@openzeppelin/contracts/utils/cryptography/ECDSA.sol\":2686:2687  0 */\n      0x00\n        /* \"@openzeppelin/contracts/utils/cryptography/ECDSA.sol\":2681:2717  byte(0, mload(add(signature, 0x60))) */\n      byte\n        /* \"@openzeppelin/contracts/utils/cryptography/ECDSA.sol\":2676:2717  v := byte(0, mload(add(signature, 0x60))) */\n      swap1\n      pop\n        /* \"@openzeppelin/contracts/utils/cryptography/ECDSA.sol\":2751:2776  tryRecover(hash, v, r, s) */\n      tag_138\n        /* \"@openzeppelin/contracts/utils/cryptography/ECDSA.sol\":2762:2766  hash */\n      dup9\n        /* \"@openzeppelin/contracts/utils/cryptography/ECDSA.sol\":2768:2769  v */\n      dup3\n        /* \"@openzeppelin/contracts/utils/cryptography/ECDSA.sol\":2771:2772  r */\n      dup6\n        /* \"@openzeppelin/contracts/utils/cryptography/ECDSA.sol\":2774:2775  s */\n      dup6\n        /* \"@openzeppelin/contracts/utils/cryptography/ECDSA.sol\":2751:2761  tryRecover */\n      tag_139\n        /* \"@openzeppelin/contracts/utils/cryptography/ECDSA.sol\":2751:2776  tryRecover(hash, v, r, s) */\n      jump\t// in\n    tag_138:\n        /* \"@openzeppelin/contracts/utils/cryptography/ECDSA.sol\":2744:2776  return tryRecover(hash, v, r, s) */\n      swap6\n      pop\n      swap6\n      pop\n      swap6\n      pop\n      pop\n      pop\n      pop\n      jump(tag_136)\n        /* \"@openzeppelin/contracts/utils/cryptography/ECDSA.sol\":2295:2901  if (signature.length == 65) {... */\n    tag_137:\n        /* \"@openzeppelin/contracts/utils/cryptography/ECDSA.sol\":2823:2824  0 */\n      0x00\n        /* \"@openzeppelin/contracts/utils/cryptography/ECDSA.sol\":2827:2862  RecoverError.InvalidSignatureLength */\n      0x02\n        /* \"@openzeppelin/contracts/utils/cryptography/ECDSA.sol\":2872:2881  signature */\n      dup6\n        /* \"@openzeppelin/contracts/utils/cryptography/ECDSA.sol\":2872:2888  signature.length */\n      mload\n        /* \"@openzeppelin/contracts/utils/cryptography/ECDSA.sol\":2864:2889  bytes32(signature.length) */\n      0x00\n      shl\n        /* \"@openzeppelin/contracts/utils/cryptography/ECDSA.sol\":2807:2890  return (address(0), RecoverError.InvalidSignatureLength, bytes32(signature.length)) */\n      swap3\n      pop\n      swap3\n      pop\n      swap3\n      pop\n        /* \"@openzeppelin/contracts/utils/cryptography/ECDSA.sol\":2129:2907  function tryRecover(... */\n    tag_136:\n      swap3\n      pop\n      swap3\n      pop\n      swap3\n      jump\t// out\n        /* \"@openzeppelin/contracts/utils/cryptography/ECDSA.sol\":7280:7812  function _throwError(RecoverError error, bytes32 errorArg) private pure {... */\n    tag_127:\n        /* \"@openzeppelin/contracts/utils/cryptography/ECDSA.sol\":7375:7395  RecoverError.NoError */\n      0x00\n        /* \"@openzeppelin/contracts/utils/cryptography/ECDSA.sol\":7366:7395  error == RecoverError.NoError */\n      0x03\n      dup2\n      gt\n      iszero\n      tag_142\n      jumpi\n      tag_143\n      tag_144\n      jump\t// in\n    tag_143:\n    tag_142:\n        /* \"@openzeppelin/contracts/utils/cryptography/ECDSA.sol\":7366:7371  error */\n      dup3\n        /* \"@openzeppelin/contracts/utils/cryptography/ECDSA.sol\":7366:7395  error == RecoverError.NoError */\n      0x03\n      dup2\n      gt\n      iszero\n      tag_145\n      jumpi\n      tag_146\n      tag_144\n      jump\t// in\n    tag_146:\n    tag_145:\n      sub\n        /* \"@openzeppelin/contracts/utils/cryptography/ECDSA.sol\":7362:7806  if (error == RecoverError.NoError) {... */\n      iszero\n        /* \"@openzeppelin/contracts/utils/cryptography/ECDSA.sol\":7411:7418  return; */\n      tag_141\n        /* \"@openzeppelin/contracts/utils/cryptography/ECDSA.sol\":7362:7806  if (error == RecoverError.NoError) {... */\n      jumpi\n        /* \"@openzeppelin/contracts/utils/cryptography/ECDSA.sol\":7471:7500  RecoverError.InvalidSignature */\n      0x01\n        /* \"@openzeppelin/contracts/utils/cryptography/ECDSA.sol\":7462:7500  error == RecoverError.InvalidSignature */\n      0x03\n      dup2\n      gt\n      iszero\n      tag_149\n      jumpi\n      tag_150\n      tag_144\n      jump\t// in\n    tag_150:\n    tag_149:\n        /* \"@openzeppelin/contracts/utils/cryptography/ECDSA.sol\":7462:7467  error */\n      dup3\n        /* \"@openzeppelin/contracts/utils/cryptography/ECDSA.sol\":7462:7500  error == RecoverError.InvalidSignature */\n      0x03\n      dup2\n      gt\n      iszero\n      tag_151\n      jumpi\n      tag_152\n      tag_144\n      jump\t// in\n    tag_152:\n    tag_151:\n      sub\n        /* \"@openzeppelin/contracts/utils/cryptography/ECDSA.sol\":7458:7806  if (error == RecoverError.InvalidSignature) {... */\n      tag_153\n      jumpi\n        /* \"@openzeppelin/contracts/utils/cryptography/ECDSA.sol\":7523:7546  ECDSAInvalidSignature() */\n      mload(0x40)\n      0xf645eedf00000000000000000000000000000000000000000000000000000000\n      dup2\n      mstore\n      0x04\n      add\n      mload(0x40)\n      dup1\n      swap2\n      sub\n      swap1\n      revert\n        /* \"@openzeppelin/contracts/utils/cryptography/ECDSA.sol\":7458:7806  if (error == RecoverError.InvalidSignature) {... */\n    tag_153:\n        /* \"@openzeppelin/contracts/utils/cryptography/ECDSA.sol\":7576:7611  RecoverError.InvalidSignatureLength */\n      0x02\n        /* \"@openzeppelin/contracts/utils/cryptography/ECDSA.sol\":7567:7611  error == RecoverError.InvalidSignatureLength */\n      0x03\n      dup2\n      gt\n      iszero\n      tag_155\n      jumpi\n      tag_156\n      tag_144\n      jump\t// in\n    tag_156:\n    tag_155:\n        /* \"@openzeppelin/contracts/utils/cryptography/ECDSA.sol\":7567:7572  error */\n      dup3\n        /* \"@openzeppelin/contracts/utils/cryptography/ECDSA.sol\":7567:7611  error == RecoverError.InvalidSignatureLength */\n      0x03\n      dup2\n      gt\n      iszero\n      tag_157\n      jumpi\n      tag_158\n      tag_144\n      jump\t// in\n    tag_158:\n    tag_157:\n      sub\n        /* \"@openzeppelin/contracts/utils/cryptography/ECDSA.sol\":7563:7806  if (error == RecoverError.InvalidSignatureLength) {... */\n      tag_159\n      jumpi\n        /* \"@openzeppelin/contracts/utils/cryptography/ECDSA.sol\":7670:7678  errorArg */\n      dup1\n        /* \"@openzeppelin/contracts/utils/cryptography/ECDSA.sol\":7662:7679  uint256(errorArg) */\n      0x00\n      shr\n        /* \"@openzeppelin/contracts/utils/cryptography/ECDSA.sol\":7634:7680  ECDSAInvalidSignatureLength(uint256(errorArg)) */\n      mload(0x40)\n      0xfce698f700000000000000000000000000000000000000000000000000000000\n      dup2\n      mstore\n      0x04\n      add\n      tag_160\n      swap2\n      swap1\n      tag_17\n      jump\t// in\n    tag_160:\n      mload(0x40)\n      dup1\n      swap2\n      sub\n      swap1\n      revert\n        /* \"@openzeppelin/contracts/utils/cryptography/ECDSA.sol\":7563:7806  if (error == RecoverError.InvalidSignatureLength) {... */\n    tag_159:\n        /* \"@openzeppelin/contracts/utils/cryptography/ECDSA.sol\":7710:7740  RecoverError.InvalidSignatureS */\n      0x03\n        /* \"@openzeppelin/contracts/utils/cryptography/ECDSA.sol\":7701:7740  error == RecoverError.InvalidSignatureS */\n      dup1\n      dup2\n      gt\n      iszero\n      tag_162\n      jumpi\n      tag_163\n      tag_144\n      jump\t// in\n    tag_163:\n    tag_162:\n        /* \"@openzeppelin/contracts/utils/cryptography/ECDSA.sol\":7701:7706  error */\n      dup3\n        /* \"@openzeppelin/contracts/utils/cryptography/ECDSA.sol\":7701:7740  error == RecoverError.InvalidSignatureS */\n      0x03\n      dup2\n      gt\n      iszero\n      tag_164\n      jumpi\n      tag_165\n      tag_144\n      jump\t// in\n    tag_165:\n    tag_164:\n      sub\n        /* \"@openzeppelin/contracts/utils/cryptography/ECDSA.sol\":7697:7806  if (error == RecoverError.InvalidSignatureS) {... */\n      tag_166\n      jumpi\n        /* \"@openzeppelin/contracts/utils/cryptography/ECDSA.sol\":7786:7794  errorArg */\n      dup1\n        /* \"@openzeppelin/contracts/utils/cryptography/ECDSA.sol\":7763:7795  ECDSAInvalidSignatureS(errorArg) */\n      mload(0x40)\n      0xd78bce0c00000000000000000000000000000000000000000000000000000000\n      dup2\n      mstore\n      0x04\n      add\n      tag_167\n      swap2\n      swap1\n      tag_168\n      jump\t// in\n    tag_167:\n      mload(0x40)\n      dup1\n      swap2\n      sub\n      swap1\n      revert\n        /* \"@openzeppelin/contracts/utils/cryptography/ECDSA.sol\":7697:7806  if (error == RecoverError.InvalidSignatureS) {... */\n    tag_166:\n        /* \"@openzeppelin/contracts/utils/cryptography/ECDSA.sol\":7280:7812  function _throwError(RecoverError error, bytes32 errorArg) private pure {... */\n    tag_141:\n      pop\n      pop\n      jump\t// out\n        /* \"@openzeppelin/contracts/utils/Context.sol\":656:752  function _msgSender() internal view virtual returns (address) {... */\n    tag_130:\n        /* \"@openzeppelin/contracts/utils/Context.sol\":709:716  address */\n      0x00\n        /* \"@openzeppelin/contracts/utils/Context.sol\":735:745  msg.sender */\n      caller\n        /* \"@openzeppelin/contracts/utils/Context.sol\":728:745  return msg.sender */\n      swap1\n      pop\n        /* \"@openzeppelin/contracts/utils/Context.sol\":656:752  function _msgSender() internal view virtual returns (address) {... */\n      swap1\n      jump\t// out\n        /* \"@openzeppelin/contracts/utils/cryptography/ECDSA.sol\":5203:6754  function tryRecover(... */\n    tag_139:\n        /* \"@openzeppelin/contracts/utils/cryptography/ECDSA.sol\":5329:5346  address recovered */\n      0x00\n        /* \"@openzeppelin/contracts/utils/cryptography/ECDSA.sol\":5348:5364  RecoverError err */\n      0x00\n        /* \"@openzeppelin/contracts/utils/cryptography/ECDSA.sol\":5366:5380  bytes32 errArg */\n      0x00\n        /* \"@openzeppelin/contracts/utils/cryptography/ECDSA.sol\":6283:6349  0x7FFFFFFFFFFFFFFFFFFFFFFFFFFFFFFF5D576E7357A4501DDFE92F46681B20A0 */\n      0x7fffffffffffffffffffffffffffffff5d576e7357a4501ddfe92f46681b20a0\n        /* \"@openzeppelin/contracts/utils/cryptography/ECDSA.sol\":6278:6279  s */\n      dup5\n        /* \"@openzeppelin/contracts/utils/cryptography/ECDSA.sol\":6270:6280  uint256(s) */\n      0x00\n      shr\n        /* \"@openzeppelin/contracts/utils/cryptography/ECDSA.sol\":6270:6349  uint256(s) > 0x7FFFFFFFFFFFFFFFFFFFFFFFFFFFFFFF5D576E7357A4501DDFE92F46681B20A0 */\n      gt\n        /* \"@openzeppelin/contracts/utils/cryptography/ECDSA.sol\":6266:6430  if (uint256(s) > 0x7FFFFFFFFFFFFFFFFFFFFFFFFFFFFFFF5D576E7357A4501DDFE92F46681B20A0) {... */\n      iszero\n      tag_171\n      jumpi\n        /* \"@openzeppelin/contracts/utils/cryptography/ECDSA.sol\":6381:6382  0 */\n      0x00\n        /* \"@openzeppelin/contracts/utils/cryptography/ECDSA.sol\":6385:6415  RecoverError.InvalidSignatureS */\n      0x03\n        /* \"@openzeppelin/contracts/utils/cryptography/ECDSA.sol\":6417:6418  s */\n      dup6\n        /* \"@openzeppelin/contracts/utils/cryptography/ECDSA.sol\":6365:6419  return (address(0), RecoverError.InvalidSignatureS, s) */\n      swap3\n      pop\n      swap3\n      pop\n      swap3\n      pop\n      jump(tag_170)\n        /* \"@openzeppelin/contracts/utils/cryptography/ECDSA.sol\":6266:6430  if (uint256(s) > 0x7FFFFFFFFFFFFFFFFFFFFFFFFFFFFFFF5D576E7357A4501DDFE92F46681B20A0) {... */\n    tag_171:\n        /* \"@openzeppelin/contracts/utils/cryptography/ECDSA.sol\":6524:6538  address signer */\n      0x00\n        /* \"@openzeppelin/contracts/utils/cryptography/ECDSA.sol\":6541:6565  ecrecover(hash, v, r, s) */\n      0x01\n        /* \"@openzeppelin/contracts/utils/cryptography/ECDSA.sol\":6551:6555  hash */\n      dup9\n        /* \"@openzeppelin/contracts/utils/cryptography/ECDSA.sol\":6557:6558  v */\n      dup9\n        /* \"@openzeppelin/contracts/utils/cryptography/ECDSA.sol\":6560:6561  r */\n      dup9\n        /* \"@openzeppelin/contracts/utils/cryptography/ECDSA.sol\":6563:6564  s */\n      dup9\n        /* \"@openzeppelin/contracts/utils/cryptography/ECDSA.sol\":6541:6565  ecrecover(hash, v, r, s) */\n      mload(0x40)\n      0x00\n      dup2\n      mstore\n      0x20\n      add\n      0x40\n      mstore\n      mload(0x40)\n      tag_172\n      swap5\n      swap4\n      swap3\n      swap2\n      swap1\n      tag_173\n      jump\t// in\n    tag_172:\n      0x20\n      mload(0x40)\n      0x20\n      dup2\n      sub\n      swap1\n      dup1\n      dup5\n      sub\n      swap1\n      dup6\n      gas\n      staticcall\n      iszero\n      dup1\n      iszero\n      tag_175\n      jumpi\n      returndatacopy(0x00, 0x00, returndatasize)\n      revert(0x00, returndatasize)\n    tag_175:\n      pop\n      pop\n      pop\n      mload(sub(mload(0x40), 0x20))\n        /* \"@openzeppelin/contracts/utils/cryptography/ECDSA.sol\":6524:6565  address signer = ecrecover(hash, v, r, s) */\n      swap1\n      pop\n        /* \"@openzeppelin/contracts/utils/cryptography/ECDSA.sol\":6597:6598  0 */\n      0x00\n        /* \"@openzeppelin/contracts/utils/cryptography/ECDSA.sol\":6579:6599  signer == address(0) */\n      0xffffffffffffffffffffffffffffffffffffffff\n      and\n        /* \"@openzeppelin/contracts/utils/cryptography/ECDSA.sol\":6579:6585  signer */\n      dup2\n        /* \"@openzeppelin/contracts/utils/cryptography/ECDSA.sol\":6579:6599  signer == address(0) */\n      0xffffffffffffffffffffffffffffffffffffffff\n      and\n      sub\n        /* \"@openzeppelin/contracts/utils/cryptography/ECDSA.sol\":6575:6688  if (signer == address(0)) {... */\n      tag_176\n      jumpi\n        /* \"@openzeppelin/contracts/utils/cryptography/ECDSA.sol\":6631:6632  0 */\n      0x00\n        /* \"@openzeppelin/contracts/utils/cryptography/ECDSA.sol\":6635:6664  RecoverError.InvalidSignature */\n      0x01\n        /* \"@openzeppelin/contracts/utils/cryptography/ECDSA.sol\":6674:6675  0 */\n      0x00\n        /* \"@openzeppelin/contracts/utils/cryptography/ECDSA.sol\":6666:6676  bytes32(0) */\n      0x00\n      shl\n        /* \"@openzeppelin/contracts/utils/cryptography/ECDSA.sol\":6615:6677  return (address(0), RecoverError.InvalidSignature, bytes32(0)) */\n      swap4\n      pop\n      swap4\n      pop\n      swap4\n      pop\n      pop\n      jump(tag_170)\n        /* \"@openzeppelin/contracts/utils/cryptography/ECDSA.sol\":6575:6688  if (signer == address(0)) {... */\n    tag_176:\n        /* \"@openzeppelin/contracts/utils/cryptography/ECDSA.sol\":6706:6712  signer */\n      dup1\n        /* \"@openzeppelin/contracts/utils/cryptography/ECDSA.sol\":6714:6734  RecoverError.NoError */\n      0x00\n        /* \"@openzeppelin/contracts/utils/cryptography/ECDSA.sol\":6744:6745  0 */\n      0x00\n        /* \"@openzeppelin/contracts/utils/cryptography/ECDSA.sol\":6736:6746  bytes32(0) */\n      0x00\n      shl\n        /* \"@openzeppelin/contracts/utils/cryptography/ECDSA.sol\":6698:6747  return (signer, RecoverError.NoError, bytes32(0)) */\n      swap4\n      pop\n      swap4\n      pop\n      swap4\n      pop\n      pop\n        /* \"@openzeppelin/contracts/utils/cryptography/ECDSA.sol\":5203:6754  function tryRecover(... */\n    tag_170:\n      swap5\n      pop\n      swap5\n      pop\n      swap5\n      swap2\n      pop\n      pop\n      jump\t// out\n        /* \"#utility.yul\":7:84   */\n    tag_177:\n        /* \"#utility.yul\":44:51   */\n      0x00\n        /* \"#utility.yul\":73:78   */\n      dup2\n        /* \"#utility.yul\":62:78   */\n      swap1\n      pop\n        /* \"#utility.yul\":7:84   */\n      swap2\n      swap1\n      pop\n      jump\t// out\n        /* \"#utility.yul\":90:208   */\n    tag_178:\n        /* \"#utility.yul\":177:201   */\n      tag_233\n        /* \"#utility.yul\":195:200   */\n      dup2\n        /* \"#utility.yul\":177:201   */\n      tag_177\n      jump\t// in\n    tag_233:\n        /* \"#utility.yul\":172:175   */\n      dup3\n        /* \"#utility.yul\":165:202   */\n      mstore\n        /* \"#utility.yul\":90:208   */\n      pop\n      pop\n      jump\t// out\n        /* \"#utility.yul\":214:436   */\n    tag_17:\n        /* \"#utility.yul\":307:311   */\n      0x00\n        /* \"#utility.yul\":345:347   */\n      0x20\n        /* \"#utility.yul\":334:343   */\n      dup3\n        /* \"#utility.yul\":330:348   */\n      add\n        /* \"#utility.yul\":322:348   */\n      swap1\n      pop\n        /* \"#utility.yul\":358:429   */\n      tag_235\n        /* \"#utility.yul\":426:427   */\n      0x00\n        /* \"#utility.yul\":415:424   */\n      dup4\n        /* \"#utility.yul\":411:428   */\n      add\n        /* \"#utility.yul\":402:408   */\n      dup5\n        /* \"#utility.yul\":358:429   */\n      tag_178\n      jump\t// in\n    tag_235:\n        /* \"#utility.yul\":214:436   */\n      swap3\n      swap2\n      pop\n      pop\n      jump\t// out\n        /* \"#utility.yul\":523:640   */\n    tag_180:\n        /* \"#utility.yul\":632:633   */\n      0x00\n        /* \"#utility.yul\":629:630   */\n      0x00\n        /* \"#utility.yul\":622:634   */\n      revert\n        /* \"#utility.yul\":646:763   */\n    tag_181:\n        /* \"#utility.yul\":755:756   */\n      0x00\n        /* \"#utility.yul\":752:753   */\n      0x00\n        /* \"#utility.yul\":745:757   */\n      revert\n        /* \"#utility.yul\":769:891   */\n    tag_182:\n        /* \"#utility.yul\":842:866   */\n      tag_240\n        /* \"#utility.yul\":860:865   */\n      dup2\n        /* \"#utility.yul\":842:866   */\n      tag_177\n      jump\t// in\n    tag_240:\n        /* \"#utility.yul\":835:840   */\n      dup2\n        /* \"#utility.yul\":832:867   */\n      eq\n        /* \"#utility.yul\":822:885   */\n      tag_241\n      jumpi\n        /* \"#utility.yul\":881:882   */\n      0x00\n        /* \"#utility.yul\":878:879   */\n      0x00\n        /* \"#utility.yul\":871:883   */\n      revert\n        /* \"#utility.yul\":822:885   */\n    tag_241:\n        /* \"#utility.yul\":769:891   */\n      pop\n      jump\t// out\n        /* \"#utility.yul\":897:1036   */\n    tag_183:\n        /* \"#utility.yul\":943:948   */\n      0x00\n        /* \"#utility.yul\":981:987   */\n      dup2\n        /* \"#utility.yul\":968:988   */\n      calldataload\n        /* \"#utility.yul\":959:988   */\n      swap1\n      pop\n        /* \"#utility.yul\":997:1030   */\n      tag_243\n        /* \"#utility.yul\":1024:1029   */\n      dup2\n        /* \"#utility.yul\":997:1030   */\n      tag_182\n      jump\t// in\n    tag_243:\n        /* \"#utility.yul\":897:1036   */\n      swap3\n      swap2\n      pop\n      pop\n      jump\t// out\n        /* \"#utility.yul\":1042:1159   */\n    tag_184:\n        /* \"#utility.yul\":1151:1152   */\n      0x00\n        /* \"#utility.yul\":1148:1149   */\n      0x00\n        /* \"#utility.yul\":1141:1153   */\n      revert\n        /* \"#utility.yul\":1165:1282   */\n    tag_185:\n        /* \"#utility.yul\":1274:1275   */\n      0x00\n        /* \"#utility.yul\":1271:1272   */\n      0x00\n        /* \"#utility.yul\":1264:1276   */\n      revert\n        /* \"#utility.yul\":1288:1405   */\n    tag_186:\n        /* \"#utility.yul\":1397:1398   */\n      0x00\n        /* \"#utility.yul\":1394:1395   */\n      0x00\n        /* \"#utility.yul\":1387:1399   */\n      revert\n        /* \"#utility.yul\":1424:1976   */\n    tag_187:\n        /* \"#utility.yul\":1481:1489   */\n      0x00\n        /* \"#utility.yul\":1491:1497   */\n      0x00\n        /* \"#utility.yul\":1541:1544   */\n      dup4\n        /* \"#utility.yul\":1534:1538   */\n      0x1f\n        /* \"#utility.yul\":1526:1532   */\n      dup5\n        /* \"#utility.yul\":1522:1539   */\n      add\n        /* \"#utility.yul\":1518:1545   */\n      slt\n        /* \"#utility.yul\":1508:1630   */\n      tag_248\n      jumpi\n        /* \"#utility.yul\":1549:1628   */\n      tag_249\n      tag_184\n      jump\t// in\n    tag_249:\n        /* \"#utility.yul\":1508:1630   */\n    tag_248:\n        /* \"#utility.yul\":1662:1668   */\n      dup3\n        /* \"#utility.yul\":1649:1669   */\n      calldataload\n        /* \"#utility.yul\":1639:1669   */\n      swap1\n      pop\n        /* \"#utility.yul\":1692:1710   */\n      0xffffffffffffffff\n        /* \"#utility.yul\":1684:1690   */\n      dup2\n        /* \"#utility.yul\":1681:1711   */\n      gt\n        /* \"#utility.yul\":1678:1795   */\n      iszero\n      tag_250\n      jumpi\n        /* \"#utility.yul\":1714:1793   */\n      tag_251\n      tag_185\n      jump\t// in\n    tag_251:\n        /* \"#utility.yul\":1678:1795   */\n    tag_250:\n        /* \"#utility.yul\":1828:1832   */\n      0x20\n        /* \"#utility.yul\":1820:1826   */\n      dup4\n        /* \"#utility.yul\":1816:1833   */\n      add\n        /* \"#utility.yul\":1804:1833   */\n      swap2\n      pop\n        /* \"#utility.yul\":1882:1885   */\n      dup4\n        /* \"#utility.yul\":1874:1878   */\n      0x01\n        /* \"#utility.yul\":1866:1872   */\n      dup3\n        /* \"#utility.yul\":1862:1879   */\n      mul\n        /* \"#utility.yul\":1852:1860   */\n      dup4\n        /* \"#utility.yul\":1848:1880   */\n      add\n        /* \"#utility.yul\":1845:1886   */\n      gt\n        /* \"#utility.yul\":1842:1970   */\n      iszero\n      tag_252\n      jumpi\n        /* \"#utility.yul\":1889:1968   */\n      tag_253\n      tag_186\n      jump\t// in\n    tag_253:\n        /* \"#utility.yul\":1842:1970   */\n    tag_252:\n        /* \"#utility.yul\":1424:1976   */\n      swap3\n      pop\n      swap3\n      swap1\n      pop\n      jump\t// out\n        /* \"#utility.yul\":1982:2654   */\n    tag_20:\n        /* \"#utility.yul\":2061:2067   */\n      0x00\n        /* \"#utility.yul\":2069:2075   */\n      0x00\n        /* \"#utility.yul\":2077:2083   */\n      0x00\n        /* \"#utility.yul\":2126:2128   */\n      0x40\n        /* \"#utility.yul\":2114:2123   */\n      dup5\n        /* \"#utility.yul\":2105:2112   */\n      dup7\n        /* \"#utility.yul\":2101:2124   */\n      sub\n        /* \"#utility.yul\":2097:2129   */\n      slt\n        /* \"#utility.yul\":2094:2213   */\n      iszero\n      tag_255\n      jumpi\n        /* \"#utility.yul\":2132:2211   */\n      tag_256\n      tag_180\n      jump\t// in\n    tag_256:\n        /* \"#utility.yul\":2094:2213   */\n    tag_255:\n        /* \"#utility.yul\":2252:2253   */\n      0x00\n        /* \"#utility.yul\":2277:2330   */\n      tag_257\n        /* \"#utility.yul\":2322:2329   */\n      dup7\n        /* \"#utility.yul\":2313:2319   */\n      dup3\n        /* \"#utility.yul\":2302:2311   */\n      dup8\n        /* \"#utility.yul\":2298:2320   */\n      add\n        /* \"#utility.yul\":2277:2330   */\n      tag_183\n      jump\t// in\n    tag_257:\n        /* \"#utility.yul\":2267:2330   */\n      swap4\n      pop\n        /* \"#utility.yul\":2223:2340   */\n      pop\n        /* \"#utility.yul\":2407:2409   */\n      0x20\n        /* \"#utility.yul\":2396:2405   */\n      dup5\n        /* \"#utility.yul\":2392:2410   */\n      add\n        /* \"#utility.yul\":2379:2411   */\n      calldataload\n        /* \"#utility.yul\":2438:2456   */\n      0xffffffffffffffff\n        /* \"#utility.yul\":2430:2436   */\n      dup2\n        /* \"#utility.yul\":2427:2457   */\n      gt\n        /* \"#utility.yul\":2424:2541   */\n      iszero\n      tag_258\n      jumpi\n        /* \"#utility.yul\":2460:2539   */\n      tag_259\n      tag_181\n      jump\t// in\n    tag_259:\n        /* \"#utility.yul\":2424:2541   */\n    tag_258:\n        /* \"#utility.yul\":2573:2637   */\n      tag_260\n        /* \"#utility.yul\":2629:2636   */\n      dup7\n        /* \"#utility.yul\":2620:2626   */\n      dup3\n        /* \"#utility.yul\":2609:2618   */\n      dup8\n        /* \"#utility.yul\":2605:2627   */\n      add\n        /* \"#utility.yul\":2573:2637   */\n      tag_187\n      jump\t// in\n    tag_260:\n        /* \"#utility.yul\":2555:2637   */\n      swap3\n      pop\n      swap3\n      pop\n        /* \"#utility.yul\":2350:2647   */\n      pop\n        /* \"#utility.yul\":1982:2654   */\n      swap3\n      pop\n      swap3\n      pop\n      swap3\n      jump\t// out\n        /* \"#utility.yul\":2660:2989   */\n    tag_24:\n        /* \"#utility.yul\":2719:2725   */\n      0x00\n        /* \"#utility.yul\":2768:2770   */\n      0x20\n        /* \"#utility.yul\":2756:2765   */\n      dup3\n        /* \"#utility.yul\":2747:2754   */\n      dup5\n        /* \"#utility.yul\":2743:2766   */\n      sub\n        /* \"#utility.yul\":2739:2771   */\n      slt\n        /* \"#utility.yul\":2736:2855   */\n      iszero\n      tag_262\n      jumpi\n        /* \"#utility.yul\":2774:2853   */\n      tag_263\n      tag_180\n      jump\t// in\n    tag_263:\n        /* \"#utility.yul\":2736:2855   */\n    tag_262:\n        /* \"#utility.yul\":2894:2895   */\n      0x00\n        /* \"#utility.yul\":2919:2972   */\n      tag_264\n        /* \"#utility.yul\":2964:2971   */\n      dup5\n        /* \"#utility.yul\":2955:2961   */\n      dup3\n        /* \"#utility.yul\":2944:2953   */\n      dup6\n        /* \"#utility.yul\":2940:2962   */\n      add\n        /* \"#utility.yul\":2919:2972   */\n      tag_183\n      jump\t// in\n    tag_264:\n        /* \"#utility.yul\":2909:2972   */\n      swap2\n      pop\n        /* \"#utility.yul\":2865:2982   */\n      pop\n        /* \"#utility.yul\":2660:2989   */\n      swap3\n      swap2\n      pop\n      pop\n      jump\t// out\n        /* \"#utility.yul\":2995:3121   */\n    tag_188:\n        /* \"#utility.yul\":3032:3039   */\n      0x00\n        /* \"#utility.yul\":3072:3114   */\n      0xffffffffffffffffffffffffffffffffffffffff\n        /* \"#utility.yul\":3065:3070   */\n      dup3\n        /* \"#utility.yul\":3061:3115   */\n      and\n        /* \"#utility.yul\":3050:3115   */\n      swap1\n      pop\n        /* \"#utility.yul\":2995:3121   */\n      swap2\n      swap1\n      pop\n      jump\t// out\n        /* \"#utility.yul\":3127:3223   */\n    tag_189:\n        /* \"#utility.yul\":3164:3171   */\n      0x00\n        /* \"#utility.yul\":3193:3217   */\n      tag_267\n        /* \"#utility.yul\":3211:3216   */\n      dup3\n        /* \"#utility.yul\":3193:3217   */\n      tag_188\n      jump\t// in\n    tag_267:\n        /* \"#utility.yul\":3182:3217   */\n      swap1\n      pop\n        /* \"#utility.yul\":3127:3223   */\n      swap2\n      swap1\n      pop\n      jump\t// out\n        /* \"#utility.yul\":3229:3347   */\n    tag_190:\n        /* \"#utility.yul\":3316:3340   */\n      tag_269\n        /* \"#utility.yul\":3334:3339   */\n      dup2\n        /* \"#utility.yul\":3316:3340   */\n      tag_189\n      jump\t// in\n    tag_269:\n        /* \"#utility.yul\":3311:3314   */\n      dup3\n        /* \"#utility.yul\":3304:3341   */\n      mstore\n        /* \"#utility.yul\":3229:3347   */\n      pop\n      pop\n      jump\t// out\n        /* \"#utility.yul\":3353:3575   */\n    tag_29:\n        /* \"#utility.yul\":3446:3450   */\n      0x00\n        /* \"#utility.yul\":3484:3486   */\n      0x20\n        /* \"#utility.yul\":3473:3482   */\n      dup3\n        /* \"#utility.yul\":3469:3487   */\n      add\n        /* \"#utility.yul\":3461:3487   */\n      swap1\n      pop\n        /* \"#utility.yul\":3497:3568   */\n      tag_271\n        /* \"#utility.yul\":3565:3566   */\n      0x00\n        /* \"#utility.yul\":3554:3563   */\n      dup4\n        /* \"#utility.yul\":3550:3567   */\n      add\n        /* \"#utility.yul\":3541:3547   */\n      dup5\n        /* \"#utility.yul\":3497:3568   */\n      tag_190\n      jump\t// in\n    tag_271:\n        /* \"#utility.yul\":3353:3575   */\n      swap3\n      swap2\n      pop\n      pop\n      jump\t// out\n        /* \"#utility.yul\":3581:3641   */\n    tag_191:\n        /* \"#utility.yul\":3609:3612   */\n      0x00\n        /* \"#utility.yul\":3630:3635   */\n      dup2\n        /* \"#utility.yul\":3623:3635   */\n      swap1\n      pop\n        /* \"#utility.yul\":3581:3641   */\n      swap2\n      swap1\n      pop\n      jump\t// out\n        /* \"#utility.yul\":3647:3789   */\n    tag_192:\n        /* \"#utility.yul\":3697:3706   */\n      0x00\n        /* \"#utility.yul\":3730:3783   */\n      tag_274\n        /* \"#utility.yul\":3748:3782   */\n      tag_275\n        /* \"#utility.yul\":3757:3781   */\n      tag_276\n        /* \"#utility.yul\":3775:3780   */\n      dup5\n        /* \"#utility.yul\":3757:3781   */\n      tag_188\n      jump\t// in\n    tag_276:\n        /* \"#utility.yul\":3748:3782   */\n      tag_191\n      jump\t// in\n    tag_275:\n        /* \"#utility.yul\":3730:3783   */\n      tag_188\n      jump\t// in\n    tag_274:\n        /* \"#utility.yul\":3717:3783   */\n      swap1\n      pop\n        /* \"#utility.yul\":3647:3789   */\n      swap2\n      swap1\n      pop\n      jump\t// out\n        /* \"#utility.yul\":3795:3921   */\n    tag_193:\n        /* \"#utility.yul\":3845:3854   */\n      0x00\n        /* \"#utility.yul\":3878:3915   */\n      tag_278\n        /* \"#utility.yul\":3909:3914   */\n      dup3\n        /* \"#utility.yul\":3878:3915   */\n      tag_192\n      jump\t// in\n    tag_278:\n        /* \"#utility.yul\":3865:3915   */\n      swap1\n      pop\n        /* \"#utility.yul\":3795:3921   */\n      swap2\n      swap1\n      pop\n      jump\t// out\n        /* \"#utility.yul\":3927:4067   */\n    tag_194:\n        /* \"#utility.yul\":3991:4000   */\n      0x00\n        /* \"#utility.yul\":4024:4061   */\n      tag_280\n        /* \"#utility.yul\":4055:4060   */\n      dup3\n        /* \"#utility.yul\":4024:4061   */\n      tag_193\n      jump\t// in\n    tag_280:\n        /* \"#utility.yul\":4011:4061   */\n      swap1\n      pop\n        /* \"#utility.yul\":3927:4067   */\n      swap2\n      swap1\n      pop\n      jump\t// out\n        /* \"#utility.yul\":4073:4232   */\n    tag_195:\n        /* \"#utility.yul\":4174:4225   */\n      tag_282\n        /* \"#utility.yul\":4219:4224   */\n      dup2\n        /* \"#utility.yul\":4174:4225   */\n      tag_194\n      jump\t// in\n    tag_282:\n        /* \"#utility.yul\":4169:4172   */\n      dup3\n        /* \"#utility.yul\":4162:4226   */\n      mstore\n        /* \"#utility.yul\":4073:4232   */\n      pop\n      pop\n      jump\t// out\n        /* \"#utility.yul\":4238:4488   */\n    tag_35:\n        /* \"#utility.yul\":4345:4349   */\n      0x00\n        /* \"#utility.yul\":4383:4385   */\n      0x20\n        /* \"#utility.yul\":4372:4381   */\n      dup3\n        /* \"#utility.yul\":4368:4386   */\n      add\n        /* \"#utility.yul\":4360:4386   */\n      swap1\n      pop\n        /* \"#utility.yul\":4396:4481   */\n      tag_284\n        /* \"#utility.yul\":4478:4479   */\n      0x00\n        /* \"#utility.yul\":4467:4476   */\n      dup4\n        /* \"#utility.yul\":4463:4480   */\n      add\n        /* \"#utility.yul\":4454:4460   */\n      dup5\n        /* \"#utility.yul\":4396:4481   */\n      tag_195\n      jump\t// in\n    tag_284:\n        /* \"#utility.yul\":4238:4488   */\n      swap3\n      swap2\n      pop\n      pop\n      jump\t// out\n        /* \"#utility.yul\":4494:4616   */\n    tag_196:\n        /* \"#utility.yul\":4567:4591   */\n      tag_286\n        /* \"#utility.yul\":4585:4590   */\n      dup2\n        /* \"#utility.yul\":4567:4591   */\n      tag_189\n      jump\t// in\n    tag_286:\n        /* \"#utility.yul\":4560:4565   */\n      dup2\n        /* \"#utility.yul\":4557:4592   */\n      eq\n        /* \"#utility.yul\":4547:4610   */\n      tag_287\n      jumpi\n        /* \"#utility.yul\":4606:4607   */\n      0x00\n        /* \"#utility.yul\":4603:4604   */\n      0x00\n        /* \"#utility.yul\":4596:4608   */\n      revert\n        /* \"#utility.yul\":4547:4610   */\n    tag_287:\n        /* \"#utility.yul\":4494:4616   */\n      pop\n      jump\t// out\n        /* \"#utility.yul\":4622:4761   */\n    tag_197:\n        /* \"#utility.yul\":4668:4673   */\n      0x00\n        /* \"#utility.yul\":4706:4712   */\n      dup2\n        /* \"#utility.yul\":4693:4713   */\n      calldataload\n        /* \"#utility.yul\":4684:4713   */\n      swap1\n      pop\n        /* \"#utility.yul\":4722:4755   */\n      tag_289\n        /* \"#utility.yul\":4749:4754   */\n      dup2\n        /* \"#utility.yul\":4722:4755   */\n      tag_196\n      jump\t// in\n    tag_289:\n        /* \"#utility.yul\":4622:4761   */\n      swap3\n      swap2\n      pop\n      pop\n      jump\t// out\n        /* \"#utility.yul\":4767:5096   */\n    tag_41:\n        /* \"#utility.yul\":4826:4832   */\n      0x00\n        /* \"#utility.yul\":4875:4877   */\n      0x20\n        /* \"#utility.yul\":4863:4872   */\n      dup3\n        /* \"#utility.yul\":4854:4861   */\n      dup5\n        /* \"#utility.yul\":4850:4873   */\n      sub\n        /* \"#utility.yul\":4846:4878   */\n      slt\n        /* \"#utility.yul\":4843:4962   */\n      iszero\n      tag_291\n      jumpi\n        /* \"#utility.yul\":4881:4960   */\n      tag_292\n      tag_180\n      jump\t// in\n    tag_292:\n        /* \"#utility.yul\":4843:4962   */\n    tag_291:\n        /* \"#utility.yul\":5001:5002   */\n      0x00\n        /* \"#utility.yul\":5026:5079   */\n      tag_293\n        /* \"#utility.yul\":5071:5078   */\n      dup5\n        /* \"#utility.yul\":5062:5068   */\n      dup3\n        /* \"#utility.yul\":5051:5060   */\n      dup6\n        /* \"#utility.yul\":5047:5069   */\n      add\n        /* \"#utility.yul\":5026:5079   */\n      tag_197\n      jump\t// in\n    tag_293:\n        /* \"#utility.yul\":5016:5079   */\n      swap2\n      pop\n        /* \"#utility.yul\":4972:5089   */\n      pop\n        /* \"#utility.yul\":4767:5096   */\n      swap3\n      swap2\n      pop\n      pop\n      jump\t// out\n        /* \"#utility.yul\":5102:5192   */\n    tag_198:\n        /* \"#utility.yul\":5136:5143   */\n      0x00\n        /* \"#utility.yul\":5179:5184   */\n      dup2\n        /* \"#utility.yul\":5172:5185   */\n      iszero\n        /* \"#utility.yul\":5165:5186   */\n      iszero\n        /* \"#utility.yul\":5154:5186   */\n      swap1\n      pop\n        /* \"#utility.yul\":5102:5192   */\n      swap2\n      swap1\n      pop\n      jump\t// out\n        /* \"#utility.yul\":5198:5307   */\n    tag_199:\n        /* \"#utility.yul\":5279:5300   */\n      tag_296\n        /* \"#utility.yul\":5294:5299   */\n      dup2\n        /* \"#utility.yul\":5279:5300   */\n      tag_198\n      jump\t// in\n    tag_296:\n        /* \"#utility.yul\":5274:5277   */\n      dup3\n        /* \"#utility.yul\":5267:5301   */\n      mstore\n        /* \"#utility.yul\":5198:5307   */\n      pop\n      pop\n      jump\t// out\n        /* \"#utility.yul\":5313:5523   */\n    tag_44:\n        /* \"#utility.yul\":5400:5404   */\n      0x00\n        /* \"#utility.yul\":5438:5440   */\n      0x20\n        /* \"#utility.yul\":5427:5436   */\n      dup3\n        /* \"#utility.yul\":5423:5441   */\n      add\n        /* \"#utility.yul\":5415:5441   */\n      swap1\n      pop\n        /* \"#utility.yul\":5451:5516   */\n      tag_298\n        /* \"#utility.yul\":5513:5514   */\n      0x00\n        /* \"#utility.yul\":5502:5511   */\n      dup4\n        /* \"#utility.yul\":5498:5515   */\n      add\n        /* \"#utility.yul\":5489:5495   */\n      dup5\n        /* \"#utility.yul\":5451:5516   */\n      tag_199\n      jump\t// in\n    tag_298:\n        /* \"#utility.yul\":5313:5523   */\n      swap3\n      swap2\n      pop\n      pop\n      jump\t// out\n        /* \"#utility.yul\":5529:5672   */\n    tag_200:\n        /* \"#utility.yul\":5586:5591   */\n      0x00\n        /* \"#utility.yul\":5617:5623   */\n      dup2\n        /* \"#utility.yul\":5611:5624   */\n      mload\n        /* \"#utility.yul\":5602:5624   */\n      swap1\n      pop\n        /* \"#utility.yul\":5633:5666   */\n      tag_300\n        /* \"#utility.yul\":5660:5665   */\n      dup2\n        /* \"#utility.yul\":5633:5666   */\n      tag_182\n      jump\t// in\n    tag_300:\n        /* \"#utility.yul\":5529:5672   */\n      swap3\n      swap2\n      pop\n      pop\n      jump\t// out\n        /* \"#utility.yul\":5678:6029   */\n    tag_57:\n        /* \"#utility.yul\":5748:5754   */\n      0x00\n        /* \"#utility.yul\":5797:5799   */\n      0x20\n        /* \"#utility.yul\":5785:5794   */\n      dup3\n        /* \"#utility.yul\":5776:5783   */\n      dup5\n        /* \"#utility.yul\":5772:5795   */\n      sub\n        /* \"#utility.yul\":5768:5800   */\n      slt\n        /* \"#utility.yul\":5765:5884   */\n      iszero\n      tag_302\n      jumpi\n        /* \"#utility.yul\":5803:5882   */\n      tag_303\n      tag_180\n      jump\t// in\n    tag_303:\n        /* \"#utility.yul\":5765:5884   */\n    tag_302:\n        /* \"#utility.yul\":5923:5924   */\n      0x00\n        /* \"#utility.yul\":5948:6012   */\n      tag_304\n        /* \"#utility.yul\":6004:6011   */\n      dup5\n        /* \"#utility.yul\":5995:6001   */\n      dup3\n        /* \"#utility.yul\":5984:5993   */\n      dup6\n        /* \"#utility.yul\":5980:6002   */\n      add\n        /* \"#utility.yul\":5948:6012   */\n      tag_200\n      jump\t// in\n    tag_304:\n        /* \"#utility.yul\":5938:6012   */\n      swap2\n      pop\n        /* \"#utility.yul\":5894:6022   */\n      pop\n        /* \"#utility.yul\":5678:6029   */\n      swap3\n      swap2\n      pop\n      pop\n      jump\t// out\n        /* \"#utility.yul\":6035:6204   */\n    tag_201:\n        /* \"#utility.yul\":6119:6130   */\n      0x00\n        /* \"#utility.yul\":6153:6159   */\n      dup3\n        /* \"#utility.yul\":6148:6151   */\n      dup3\n        /* \"#utility.yul\":6141:6160   */\n      mstore\n        /* \"#utility.yul\":6193:6197   */\n      0x20\n        /* \"#utility.yul\":6188:6191   */\n      dup3\n        /* \"#utility.yul\":6184:6198   */\n      add\n        /* \"#utility.yul\":6169:6198   */\n      swap1\n      pop\n        /* \"#utility.yul\":6035:6204   */\n      swap3\n      swap2\n      pop\n      pop\n      jump\t// out\n        /* \"#utility.yul\":6210:6378   */\n    tag_202:\n        /* \"#utility.yul\":6350:6370   */\n      0x416d6f756e74206d757374206265203e20300000000000000000000000000000\n        /* \"#utility.yul\":6346:6347   */\n      0x00\n        /* \"#utility.yul\":6338:6344   */\n      dup3\n        /* \"#utility.yul\":6334:6348   */\n      add\n        /* \"#utility.yul\":6327:6371   */\n      mstore\n        /* \"#utility.yul\":6210:6378   */\n      pop\n      jump\t// out\n        /* \"#utility.yul\":6384:6750   */\n    tag_203:\n        /* \"#utility.yul\":6526:6529   */\n      0x00\n        /* \"#utility.yul\":6547:6614   */\n      tag_308\n        /* \"#utility.yul\":6611:6613   */\n      0x12\n        /* \"#utility.yul\":6606:6609   */\n      dup4\n        /* \"#utility.yul\":6547:6614   */\n      tag_201\n      jump\t// in\n    tag_308:\n        /* \"#utility.yul\":6540:6614   */\n      swap2\n      pop\n        /* \"#utility.yul\":6623:6716   */\n      tag_309\n        /* \"#utility.yul\":6712:6715   */\n      dup3\n        /* \"#utility.yul\":6623:6716   */\n      tag_202\n      jump\t// in\n    tag_309:\n        /* \"#utility.yul\":6741:6743   */\n      0x20\n        /* \"#utility.yul\":6736:6739   */\n      dup3\n        /* \"#utility.yul\":6732:6744   */\n      add\n        /* \"#utility.yul\":6725:6744   */\n      swap1\n      pop\n        /* \"#utility.yul\":6384:6750   */\n      swap2\n      swap1\n      pop\n      jump\t// out\n        /* \"#utility.yul\":6756:7175   */\n    tag_61:\n        /* \"#utility.yul\":6922:6926   */\n      0x00\n        /* \"#utility.yul\":6960:6962   */\n      0x20\n        /* \"#utility.yul\":6949:6958   */\n      dup3\n        /* \"#utility.yul\":6945:6963   */\n      add\n        /* \"#utility.yul\":6937:6963   */\n      swap1\n      pop\n        /* \"#utility.yul\":7009:7018   */\n      dup2\n        /* \"#utility.yul\":7003:7007   */\n      dup2\n        /* \"#utility.yul\":6999:7019   */\n      sub\n        /* \"#utility.yul\":6995:6996   */\n      0x00\n        /* \"#utility.yul\":6984:6993   */\n      dup4\n        /* \"#utility.yul\":6980:6997   */\n      add\n        /* \"#utility.yul\":6973:7020   */\n      mstore\n        /* \"#utility.yul\":7037:7168   */\n      tag_311\n        /* \"#utility.yul\":7163:7167   */\n      dup2\n        /* \"#utility.yul\":7037:7168   */\n      tag_203\n      jump\t// in\n    tag_311:\n        /* \"#utility.yul\":7029:7168   */\n      swap1\n      pop\n        /* \"#utility.yul\":6756:7175   */\n      swap2\n      swap1\n      pop\n      jump\t// out\n        /* \"#utility.yul\":7181:7362   */\n    tag_204:\n        /* \"#utility.yul\":7321:7354   */\n      0x416d6f756e742065786365656473206c696d6974202831353030204348482900\n        /* \"#utility.yul\":7317:7318   */\n      0x00\n        /* \"#utility.yul\":7309:7315   */\n      dup3\n        /* \"#utility.yul\":7305:7319   */\n      add\n        /* \"#utility.yul\":7298:7355   */\n      mstore\n        /* \"#utility.yul\":7181:7362   */\n      pop\n      jump\t// out\n        /* \"#utility.yul\":7368:7734   */\n    tag_205:\n        /* \"#utility.yul\":7510:7513   */\n      0x00\n        /* \"#utility.yul\":7531:7598   */\n      tag_314\n        /* \"#utility.yul\":7595:7597   */\n      0x1f\n        /* \"#utility.yul\":7590:7593   */\n      dup4\n        /* \"#utility.yul\":7531:7598   */\n      tag_201\n      jump\t// in\n    tag_314:\n        /* \"#utility.yul\":7524:7598   */\n      swap2\n      pop\n        /* \"#utility.yul\":7607:7700   */\n      tag_315\n        /* \"#utility.yul\":7696:7699   */\n      dup3\n        /* \"#utility.yul\":7607:7700   */\n      tag_204\n      jump\t// in\n    tag_315:\n        /* \"#utility.yul\":7725:7727   */\n      0x20\n        /* \"#utility.yul\":7720:7723   */\n      dup3\n        /* \"#utility.yul\":7716:7728   */\n      add\n        /* \"#utility.yul\":7709:7728   */\n      swap1\n      pop\n        /* \"#utility.yul\":7368:7734   */\n      swap2\n      swap1\n      pop\n      jump\t// out\n        /* \"#utility.yul\":7740:8159   */\n    tag_64:\n        /* \"#utility.yul\":7906:7910   */\n      0x00\n        /* \"#utility.yul\":7944:7946   */\n      0x20\n        /* \"#utility.yul\":7933:7942   */\n      dup3\n        /* \"#utility.yul\":7929:7947   */\n      add\n        /* \"#utility.yul\":7921:7947   */\n      swap1\n      pop\n        /* \"#utility.yul\":7993:8002   */\n      dup2\n        /* \"#utility.yul\":7987:7991   */\n      dup2\n        /* \"#utility.yul\":7983:8003   */\n      sub\n        /* \"#utility.yul\":7979:7980   */\n      0x00\n        /* \"#utility.yul\":7968:7977   */\n      dup4\n        /* \"#utility.yul\":7964:7981   */\n      add\n        /* \"#utility.yul\":7957:8004   */\n      mstore\n        /* \"#utility.yul\":8021:8152   */\n      tag_317\n        /* \"#utility.yul\":8147:8151   */\n      dup2\n        /* \"#utility.yul\":8021:8152   */\n      tag_205\n      jump\t// in\n    tag_317:\n        /* \"#utility.yul\":8013:8152   */\n      swap1\n      pop\n        /* \"#utility.yul\":7740:8159   */\n      swap2\n      swap1\n      pop\n      jump\t// out\n        /* \"#utility.yul\":8165:8394   */\n    tag_206:\n        /* \"#utility.yul\":8305:8339   */\n      0x416c726561647920636c61696d656420746f6461792028726573657473206174\n        /* \"#utility.yul\":8301:8302   */\n      0x00\n        /* \"#utility.yul\":8293:8299   */\n      dup3\n        /* \"#utility.yul\":8289:8303   */\n      add\n        /* \"#utility.yul\":8282:8340   */\n      mstore\n        /* \"#utility.yul\":8374:8386   */\n      0x2055544320303a30302900000000000000000000000000000000000000000000\n        /* \"#utility.yul\":8369:8371   */\n      0x20\n        /* \"#utility.yul\":8361:8367   */\n      dup3\n        /* \"#utility.yul\":8357:8372   */\n      add\n        /* \"#utility.yul\":8350:8387   */\n      mstore\n        /* \"#utility.yul\":8165:8394   */\n      pop\n      jump\t// out\n        /* \"#utility.yul\":8400:8766   */\n    tag_207:\n        /* \"#utility.yul\":8542:8545   */\n      0x00\n        /* \"#utility.yul\":8563:8630   */\n      tag_320\n        /* \"#utility.yul\":8627:8629   */\n      0x2a\n        /* \"#utility.yul\":8622:8625   */\n      dup4\n        /* \"#utility.yul\":8563:8630   */\n      tag_201\n      jump\t// in\n    tag_320:\n        /* \"#utility.yul\":8556:8630   */\n      swap2\n      pop\n        /* \"#utility.yul\":8639:8732   */\n      tag_321\n        /* \"#utility.yul\":8728:8731   */\n      dup3\n        /* \"#utility.yul\":8639:8732   */\n      tag_206\n      jump\t// in\n    tag_321:\n        /* \"#utility.yul\":8757:8759   */\n      0x40\n        /* \"#utility.yul\":8752:8755   */\n      dup3\n        /* \"#utility.yul\":8748:8760   */\n      add\n        /* \"#utility.yul\":8741:8760   */\n      swap1\n      pop\n        /* \"#utility.yul\":8400:8766   */\n      swap2\n      swap1\n      pop\n      jump\t// out\n        /* \"#utility.yul\":8772:9191   */\n    tag_68:\n        /* \"#utility.yul\":8938:8942   */\n      0x00\n        /* \"#utility.yul\":8976:8978   */\n      0x20\n        /* \"#utility.yul\":8965:8974   */\n      dup3\n        /* \"#utility.yul\":8961:8979   */\n      add\n        /* \"#utility.yul\":8953:8979   */\n      swap1\n      pop\n        /* \"#utility.yul\":9025:9034   */\n      dup2\n        /* \"#utility.yul\":9019:9023   */\n      dup2\n        /* \"#utility.yul\":9015:9035   */\n      sub\n        /* \"#utility.yul\":9011:9012   */\n      0x00\n        /* \"#utility.yul\":9000:9009   */\n      dup4\n        /* \"#utility.yul\":8996:9013   */\n      add\n        /* \"#utility.yul\":8989:9036   */\n      mstore\n        /* \"#utility.yul\":9053:9184   */\n      tag_323\n        /* \"#utility.yul\":9179:9183   */\n      dup2\n        /* \"#utility.yul\":9053:9184   */\n      tag_207\n      jump\t// in\n    tag_323:\n        /* \"#utility.yul\":9045:9184   */\n      swap1\n      pop\n        /* \"#utility.yul\":8772:9191   */\n      swap2\n      swap1\n      pop\n      jump\t// out\n        /* \"#utility.yul\":9197:9291   */\n    tag_208:\n        /* \"#utility.yul\":9230:9238   */\n      0x00\n        /* \"#utility.yul\":9278:9283   */\n      dup2\n        /* \"#utility.yul\":9274:9276   */\n      0x60\n        /* \"#utility.yul\":9270:9284   */\n      shl\n        /* \"#utility.yul\":9249:9284   */\n      swap1\n      pop\n        /* \"#utility.yul\":9197:9291   */\n      swap2\n      swap1\n      pop\n      jump\t// out\n        /* \"#utility.yul\":9297:9391   */\n    tag_209:\n        /* \"#utility.yul\":9336:9343   */\n      0x00\n        /* \"#utility.yul\":9365:9385   */\n      tag_326\n        /* \"#utility.yul\":9379:9384   */\n      dup3\n        /* \"#utility.yul\":9365:9385   */\n      tag_208\n      jump\t// in\n    tag_326:\n        /* \"#utility.yul\":9354:9385   */\n      swap1\n      pop\n        /* \"#utility.yul\":9297:9391   */\n      swap2\n      swap1\n      pop\n      jump\t// out\n        /* \"#utility.yul\":9397:9497   */\n    tag_210:\n        /* \"#utility.yul\":9436:9443   */\n      0x00\n        /* \"#utility.yul\":9465:9491   */\n      tag_328\n        /* \"#utility.yul\":9485:9490   */\n      dup3\n        /* \"#utility.yul\":9465:9491   */\n      tag_209\n      jump\t// in\n    tag_328:\n        /* \"#utility.yul\":9454:9491   */\n      swap1\n      pop\n        /* \"#utility.yul\":9397:9497   */\n      swap2\n      swap1\n      pop\n      jump\t// out\n        /* \"#utility.yul\":9503:9660   */\n    tag_211:\n        /* \"#utility.yul\":9608:9653   */\n      tag_330\n        /* \"#utility.yul\":9628:9652   */\n      tag_331\n        /* \"#utility.yul\":9646:9651   */\n      dup3\n        /* \"#utility.yul\":9628:9652   */\n      tag_189\n      jump\t// in\n    tag_331:\n        /* \"#utility.yul\":9608:9653   */\n      tag_210\n      jump\t// in\n    tag_330:\n        /* \"#utility.yul\":9603:9606   */\n      dup3\n        /* \"#utility.yul\":9596:9654   */\n      mstore\n        /* \"#utility.yul\":9503:9660   */\n      pop\n      pop\n      jump\t// out\n        /* \"#utility.yul\":9666:9745   */\n    tag_212:\n        /* \"#utility.yul\":9705:9712   */\n      0x00\n        /* \"#utility.yul\":9734:9739   */\n      dup2\n        /* \"#utility.yul\":9723:9739   */\n      swap1\n      pop\n        /* \"#utility.yul\":9666:9745   */\n      swap2\n      swap1\n      pop\n      jump\t// out\n        /* \"#utility.yul\":9751:9908   */\n    tag_213:\n        /* \"#utility.yul\":9856:9901   */\n      tag_334\n        /* \"#utility.yul\":9876:9900   */\n      tag_335\n        /* \"#utility.yul\":9894:9899   */\n      dup3\n        /* \"#utility.yul\":9876:9900   */\n      tag_177\n      jump\t// in\n    tag_335:\n        /* \"#utility.yul\":9856:9901   */\n      tag_212\n      jump\t// in\n    tag_334:\n        /* \"#utility.yul\":9851:9854   */\n      dup3\n        /* \"#utility.yul\":9844:9902   */\n      mstore\n        /* \"#utility.yul\":9751:9908   */\n      pop\n      pop\n      jump\t// out\n        /* \"#utility.yul\":9914:10452   */\n    tag_70:\n        /* \"#utility.yul\":10082:10085   */\n      0x00\n        /* \"#utility.yul\":10097:10172   */\n      tag_337\n        /* \"#utility.yul\":10168:10171   */\n      dup3\n        /* \"#utility.yul\":10159:10165   */\n      dup7\n        /* \"#utility.yul\":10097:10172   */\n      tag_211\n      jump\t// in\n    tag_337:\n        /* \"#utility.yul\":10197:10199   */\n      0x14\n        /* \"#utility.yul\":10192:10195   */\n      dup3\n        /* \"#utility.yul\":10188:10200   */\n      add\n        /* \"#utility.yul\":10181:10200   */\n      swap2\n      pop\n        /* \"#utility.yul\":10210:10285   */\n      tag_338\n        /* \"#utility.yul\":10281:10284   */\n      dup3\n        /* \"#utility.yul\":10272:10278   */\n      dup6\n        /* \"#utility.yul\":10210:10285   */\n      tag_213\n      jump\t// in\n    tag_338:\n        /* \"#utility.yul\":10310:10312   */\n      0x20\n        /* \"#utility.yul\":10305:10308   */\n      dup3\n        /* \"#utility.yul\":10301:10313   */\n      add\n        /* \"#utility.yul\":10294:10313   */\n      swap2\n      pop\n        /* \"#utility.yul\":10323:10398   */\n      tag_339\n        /* \"#utility.yul\":10394:10397   */\n      dup3\n        /* \"#utility.yul\":10385:10391   */\n      dup5\n        /* \"#utility.yul\":10323:10398   */\n      tag_211\n      jump\t// in\n    tag_339:\n        /* \"#utility.yul\":10423:10425   */\n      0x14\n        /* \"#utility.yul\":10418:10421   */\n      dup3\n        /* \"#utility.yul\":10414:10426   */\n      add\n        /* \"#utility.yul\":10407:10426   */\n      swap2\n      pop\n        /* \"#utility.yul\":10443:10446   */\n      dup2\n        /* \"#utility.yul\":10436:10446   */\n      swap1\n      pop\n        /* \"#utility.yul\":9914:10452   */\n      swap5\n      swap4\n      pop\n      pop\n      pop\n      pop\n      jump\t// out\n        /* \"#utility.yul\":10458:10625   */\n    tag_214:\n        /* \"#utility.yul\":10598:10617   */\n      0x496e76616c6964207369676e6174757265000000000000000000000000000000\n        /* \"#utility.yul\":10594:10595   */\n      0x00\n        /* \"#utility.yul\":10586:10592   */\n      dup3\n        /* \"#utility.yul\":10582:10596   */\n      add\n        /* \"#utility.yul\":10575:10618   */\n      mstore\n        /* \"#utility.yul\":10458:10625   */\n      pop\n      jump\t// out\n        /* \"#utility.yul\":10631:10997   */\n    tag_215:\n        /* \"#utility.yul\":10773:10776   */\n      0x00\n        /* \"#utility.yul\":10794:10861   */\n      tag_342\n        /* \"#utility.yul\":10858:10860   */\n      0x11\n        /* \"#utility.yul\":10853:10856   */\n      dup4\n        /* \"#utility.yul\":10794:10861   */\n      tag_201\n      jump\t// in\n    tag_342:\n        /* \"#utility.yul\":10787:10861   */\n      swap2\n      pop\n        /* \"#utility.yul\":10870:10963   */\n      tag_343\n        /* \"#utility.yul\":10959:10962   */\n      dup3\n        /* \"#utility.yul\":10870:10963   */\n      tag_214\n      jump\t// in\n    tag_343:\n        /* \"#utility.yul\":10988:10990   */\n      0x20\n        /* \"#utility.yul\":10983:10986   */\n      dup3\n        /* \"#utility.yul\":10979:10991   */\n      add\n        /* \"#utility.yul\":10972:10991   */\n      swap1\n      pop\n        /* \"#utility.yul\":10631:10997   */\n      swap2\n      swap1\n      pop\n      jump\t// out\n        /* \"#utility.yul\":11003:11422   */\n    tag_77:\n        /* \"#utility.yul\":11169:11173   */\n      0x00\n        /* \"#utility.yul\":11207:11209   */\n      0x20\n        /* \"#utility.yul\":11196:11205   */\n      dup3\n        /* \"#utility.yul\":11192:11210   */\n      add\n        /* \"#utility.yul\":11184:11210   */\n      swap1\n      pop\n        /* \"#utility.yul\":11256:11265   */\n      dup2\n        /* \"#utility.yul\":11250:11254   */\n      dup2\n        /* \"#utility.yul\":11246:11266   */\n      sub\n        /* \"#utility.yul\":11242:11243   */\n      0x00\n        /* \"#utility.yul\":11231:11240   */\n      dup4\n        /* \"#utility.yul\":11227:11244   */\n      add\n        /* \"#utility.yul\":11220:11267   */\n      mstore\n        /* \"#utility.yul\":11284:11415   */\n      tag_345\n        /* \"#utility.yul\":11410:11414   */\n      dup2\n        /* \"#utility.yul\":11284:11415   */\n      tag_215\n      jump\t// in\n    tag_345:\n        /* \"#utility.yul\":11276:11415   */\n      swap1\n      pop\n        /* \"#utility.yul\":11003:11422   */\n      swap2\n      swap1\n      pop\n      jump\t// out\n        /* \"#utility.yul\":11428:11648   */\n    tag_216:\n        /* \"#utility.yul\":11568:11602   */\n      0x436f6e74726163742068617320696e73756666696369656e742062616c616e63\n        /* \"#utility.yul\":11564:11565   */\n      0x00\n        /* \"#utility.yul\":11556:11562   */\n      dup3\n        /* \"#utility.yul\":11552:11566   */\n      add\n        /* \"#utility.yul\":11545:11603   */\n      mstore\n        /* \"#utility.yul\":11637:11640   */\n      0x6500000000000000000000000000000000000000000000000000000000000000\n        /* \"#utility.yul\":11632:11634   */\n      0x20\n        /* \"#utility.yul\":11624:11630   */\n      dup3\n        /* \"#utility.yul\":11620:11635   */\n      add\n        /* \"#utility.yul\":11613:11641   */\n      mstore\n        /* \"#utility.yul\":11428:11648   */\n      pop\n      jump\t// out\n        /* \"#utility.yul\":11654:12020   */\n    tag_217:\n        /* \"#utility.yul\":11796:11799   */\n      0x00\n        /* \"#utility.yul\":11817:11884   */\n      tag_348\n        /* \"#utility.yul\":11881:11883   */\n      0x21\n        /* \"#utility.yul\":11876:11879   */\n      dup4\n        /* \"#utility.yul\":11817:11884   */\n      tag_201\n      jump\t// in\n    tag_348:\n        /* \"#utility.yul\":11810:11884   */\n      swap2\n      pop\n        /* \"#utility.yul\":11893:11986   */\n      tag_349\n        /* \"#utility.yul\":11982:11985   */\n      dup3\n        /* \"#utility.yul\":11893:11986   */\n      tag_216\n      jump\t// in\n    tag_349:\n        /* \"#utility.yul\":12011:12013   */\n      0x40\n        /* \"#utility.yul\":12006:12009   */\n      dup3\n        /* \"#utility.yul\":12002:12014   */\n      add\n        /* \"#utility.yul\":11995:12014   */\n      swap1\n      pop\n        /* \"#utility.yul\":11654:12020   */\n      swap2\n      swap1\n      pop\n      jump\t// out\n        /* \"#utility.yul\":12026:12445   */\n    tag_84:\n        /* \"#utility.yul\":12192:12196   */\n      0x00\n        /* \"#utility.yul\":12230:12232   */\n      0x20\n        /* \"#utility.yul\":12219:12228   */\n      dup3\n        /* \"#utility.yul\":12215:12233   */\n      add\n        /* \"#utility.yul\":12207:12233   */\n      swap1\n      pop\n        /* \"#utility.yul\":12279:12288   */\n      dup2\n        /* \"#utility.yul\":12273:12277   */\n      dup2\n        /* \"#utility.yul\":12269:12289   */\n      sub\n        /* \"#utility.yul\":12265:12266   */\n      0x00\n        /* \"#utility.yul\":12254:12263   */\n      dup4\n        /* \"#utility.yul\":12250:12267   */\n      add\n        /* \"#utility.yul\":12243:12290   */\n      mstore\n        /* \"#utility.yul\":12307:12438   */\n      tag_351\n        /* \"#utility.yul\":12433:12437   */\n      dup2\n        /* \"#utility.yul\":12307:12438   */\n      tag_217\n      jump\t// in\n    tag_351:\n        /* \"#utility.yul\":12299:12438   */\n      swap1\n      pop\n        /* \"#utility.yul\":12026:12445   */\n      swap2\n      swap1\n      pop\n      jump\t// out\n        /* \"#utility.yul\":12451:12783   */\n    tag_86:\n        /* \"#utility.yul\":12572:12576   */\n      0x00\n        /* \"#utility.yul\":12610:12612   */\n      0x40\n        /* \"#utility.yul\":12599:12608   */\n      dup3\n        /* \"#utility.yul\":12595:12613   */\n      add\n        /* \"#utility.yul\":12587:12613   */\n      swap1\n      pop\n        /* \"#utility.yul\":12623:12694   */\n      tag_353\n        /* \"#utility.yul\":12691:12692   */\n      0x00\n        /* \"#utility.yul\":12680:12689   */\n      dup4\n        /* \"#utility.yul\":12676:12693   */\n      add\n        /* \"#utility.yul\":12667:12673   */\n      dup6\n        /* \"#utility.yul\":12623:12694   */\n      tag_190\n      jump\t// in\n    tag_353:\n        /* \"#utility.yul\":12704:12776   */\n      tag_354\n        /* \"#utility.yul\":12772:12774   */\n      0x20\n        /* \"#utility.yul\":12761:12770   */\n      dup4\n        /* \"#utility.yul\":12757:12775   */\n      add\n        /* \"#utility.yul\":12748:12754   */\n      dup5\n        /* \"#utility.yul\":12704:12776   */\n      tag_178\n      jump\t// in\n    tag_354:\n        /* \"#utility.yul\":12451:12783   */\n      swap4\n      swap3\n      pop\n      pop\n      pop\n      jump\t// out\n        /* \"#utility.yul\":12789:12905   */\n    tag_218:\n        /* \"#utility.yul\":12859:12880   */\n      tag_356\n        /* \"#utility.yul\":12874:12879   */\n      dup2\n        /* \"#utility.yul\":12859:12880   */\n      tag_198\n      jump\t// in\n    tag_356:\n        /* \"#utility.yul\":12852:12857   */\n      dup2\n        /* \"#utility.yul\":12849:12881   */\n      eq\n        /* \"#utility.yul\":12839:12899   */\n      tag_357\n      jumpi\n        /* \"#utility.yul\":12895:12896   */\n      0x00\n        /* \"#utility.yul\":12892:12893   */\n      0x00\n        /* \"#utility.yul\":12885:12897   */\n      revert\n        /* \"#utility.yul\":12839:12899   */\n    tag_357:\n        /* \"#utility.yul\":12789:12905   */\n      pop\n      jump\t// out\n        /* \"#utility.yul\":12911:13048   */\n    tag_219:\n        /* \"#utility.yul\":12965:12970   */\n      0x00\n        /* \"#utility.yul\":12996:13002   */\n      dup2\n        /* \"#utility.yul\":12990:13003   */\n      mload\n        /* \"#utility.yul\":12981:13003   */\n      swap1\n      pop\n        /* \"#utility.yul\":13012:13042   */\n      tag_359\n        /* \"#utility.yul\":13036:13041   */\n      dup2\n        /* \"#utility.yul\":13012:13042   */\n      tag_218\n      jump\t// in\n    tag_359:\n        /* \"#utility.yul\":12911:13048   */\n      swap3\n      swap2\n      pop\n      pop\n      jump\t// out\n        /* \"#utility.yul\":13054:13399   */\n    tag_90:\n        /* \"#utility.yul\":13121:13127   */\n      0x00\n        /* \"#utility.yul\":13170:13172   */\n      0x20\n        /* \"#utility.yul\":13158:13167   */\n      dup3\n        /* \"#utility.yul\":13149:13156   */\n      dup5\n        /* \"#utility.yul\":13145:13168   */\n      sub\n        /* \"#utility.yul\":13141:13173   */\n      slt\n        /* \"#utility.yul\":13138:13257   */\n      iszero\n      tag_361\n      jumpi\n        /* \"#utility.yul\":13176:13255   */\n      tag_362\n      tag_180\n      jump\t// in\n    tag_362:\n        /* \"#utility.yul\":13138:13257   */\n    tag_361:\n        /* \"#utility.yul\":13296:13297   */\n      0x00\n        /* \"#utility.yul\":13321:13382   */\n      tag_363\n        /* \"#utility.yul\":13374:13381   */\n      dup5\n        /* \"#utility.yul\":13365:13371   */\n      dup3\n        /* \"#utility.yul\":13354:13363   */\n      dup6\n        /* \"#utility.yul\":13350:13372   */\n      add\n        /* \"#utility.yul\":13321:13382   */\n      tag_219\n      jump\t// in\n    tag_363:\n        /* \"#utility.yul\":13311:13382   */\n      swap2\n      pop\n        /* \"#utility.yul\":13267:13392   */\n      pop\n        /* \"#utility.yul\":13054:13399   */\n      swap3\n      swap2\n      pop\n      pop\n      jump\t// out\n        /* \"#utility.yul\":13405:13576   */\n    tag_220:\n        /* \"#utility.yul\":13545:13568   */\n      0x546f6b656e207472616e73666572206661696c65640000000000000000000000\n        /* \"#utility.yul\":13541:13542   */\n      0x00\n        /* \"#utility.yul\":13533:13539   */\n      dup3\n        /* \"#utility.yul\":13529:13543   */\n      add\n        /* \"#utility.yul\":13522:13569   */\n      mstore\n        /* \"#utility.yul\":13405:13576   */\n      pop\n      jump\t// out\n        /* \"#utility.yul\":13582:13948   */\n    tag_221:\n        /* \"#utility.yul\":13724:13727   */\n      0x00\n        /* \"#utility.yul\":13745:13812   */\n      tag_366\n        /* \"#utility.yul\":13809:13811   */\n      0x15\n        /* \"#utility.yul\":13804:13807   */\n      dup4\n        /* \"#utility.yul\":13745:13812   */\n      tag_201\n      jump\t// in\n    tag_366:\n        /* \"#utility.yul\":13738:13812   */\n      swap2\n      pop\n        /* \"#utility.yul\":13821:13914   */\n      tag_367\n        /* \"#utility.yul\":13910:13913   */\n      dup3\n        /* \"#utility.yul\":13821:13914   */\n      tag_220\n      jump\t// in\n    tag_367:\n        /* \"#utility.yul\":13939:13941   */\n      0x20\n        /* \"#utility.yul\":13934:13937   */\n      dup3\n        /* \"#utility.yul\":13930:13942   */\n      add\n        /* \"#utility.yul\":13923:13942   */\n      swap1\n      pop\n        /* \"#utility.yul\":13582:13948   */\n      swap2\n      swap1\n      pop\n      jump\t// out\n        /* \"#utility.yul\":13954:14373   */\n    tag_93:\n        /* \"#utility.yul\":14120:14124   */\n      0x00\n        /* \"#utility.yul\":14158:14160   */\n      0x20\n        /* \"#utility.yul\":14147:14156   */\n      dup3\n        /* \"#utility.yul\":14143:14161   */\n      add\n        /* \"#utility.yul\":14135:14161   */\n      swap1\n      pop\n        /* \"#utility.yul\":14207:14216   */\n      dup2\n        /* \"#utility.yul\":14201:14205   */\n      dup2\n        /* \"#utility.yul\":14197:14217   */\n      sub\n        /* \"#utility.yul\":14193:14194   */\n      0x00\n        /* \"#utility.yul\":14182:14191   */\n      dup4\n        /* \"#utility.yul\":14178:14195   */\n      add\n        /* \"#utility.yul\":14171:14218   */\n      mstore\n        /* \"#utility.yul\":14235:14366   */\n      tag_369\n        /* \"#utility.yul\":14361:14365   */\n      dup2\n        /* \"#utility.yul\":14235:14366   */\n      tag_221\n      jump\t// in\n    tag_369:\n        /* \"#utility.yul\":14227:14366   */\n      swap1\n      pop\n        /* \"#utility.yul\":13954:14373   */\n      swap2\n      swap1\n      pop\n      jump\t// out\n        /* \"#utility.yul\":14379:14544   */\n    tag_222:\n        /* \"#utility.yul\":14519:14536   */\n      0x5472616e73666572206661696c65640000000000000000000000000000000000\n        /* \"#utility.yul\":14515:14516   */\n      0x00\n        /* \"#utility.yul\":14507:14513   */\n      dup3\n        /* \"#utility.yul\":14503:14517   */\n      add\n        /* \"#utility.yul\":14496:14537   */\n      mstore\n        /* \"#utility.yul\":14379:14544   */\n      pop\n      jump\t// out\n        /* \"#utility.yul\":14550:14916   */\n    tag_223:\n        /* \"#utility.yul\":14692:14695   */\n      0x00\n        /* \"#utility.yul\":14713:14780   */\n      tag_372\n        /* \"#utility.yul\":14777:14779   */\n      0x0f\n        /* \"#utility.yul\":14772:14775   */\n      dup4\n        /* \"#utility.yul\":14713:14780   */\n      tag_201\n      jump\t// in\n    tag_372:\n        /* \"#utility.yul\":14706:14780   */\n      swap2\n      pop\n        /* \"#utility.yul\":14789:14882   */\n      tag_373\n        /* \"#utility.yul\":14878:14881   */\n      dup3\n        /* \"#utility.yul\":14789:14882   */\n      tag_222\n      jump\t// in\n    tag_373:\n        /* \"#utility.yul\":14907:14909   */\n      0x20\n        /* \"#utility.yul\":14902:14905   */\n      dup3\n        /* \"#utility.yul\":14898:14910   */\n      add\n        /* \"#utility.yul\":14891:14910   */\n      swap1\n      pop\n        /* \"#utility.yul\":14550:14916   */\n      swap2\n      swap1\n      pop\n      jump\t// out\n        /* \"#utility.yul\":14922:15341   */\n    tag_105:\n        /* \"#utility.yul\":15088:15092   */\n      0x00\n        /* \"#utility.yul\":15126:15128   */\n      0x20\n        /* \"#utility.yul\":15115:15124   */\n      dup3\n        /* \"#utility.yul\":15111:15129   */\n      add\n        /* \"#utility.yul\":15103:15129   */\n      swap1\n      pop\n        /* \"#utility.yul\":15175:15184   */\n      dup2\n        /* \"#utility.yul\":15169:15173   */\n      dup2\n        /* \"#utility.yul\":15165:15185   */\n      sub\n        /* \"#utility.yul\":15161:15162   */\n      0x00\n        /* \"#utility.yul\":15150:15159   */\n      dup4\n        /* \"#utility.yul\":15146:15163   */\n      add\n        /* \"#utility.yul\":15139:15186   */\n      mstore\n        /* \"#utility.yul\":15203:15334   */\n      tag_375\n        /* \"#utility.yul\":15329:15333   */\n      dup2\n        /* \"#utility.yul\":15203:15334   */\n      tag_223\n      jump\t// in\n    tag_375:\n        /* \"#utility.yul\":15195:15334   */\n      swap1\n      pop\n        /* \"#utility.yul\":14922:15341   */\n      swap2\n      swap1\n      pop\n      jump\t// out\n        /* \"#utility.yul\":15347:15527   */\n    tag_224:\n        /* \"#utility.yul\":15395:15472   */\n      0x4e487b7100000000000000000000000000000000000000000000000000000000\n        /* \"#utility.yul\":15392:15393   */\n      0x00\n        /* \"#utility.yul\":15385:15473   */\n      mstore\n        /* \"#utility.yul\":15492:15496   */\n      0x12\n        /* \"#utility.yul\":15489:15490   */\n      0x04\n        /* \"#utility.yul\":15482:15497   */\n      mstore\n        /* \"#utility.yul\":15516:15520   */\n      0x24\n        /* \"#utility.yul\":15513:15514   */\n      0x00\n        /* \"#utility.yul\":15506:15521   */\n      revert\n        /* \"#utility.yul\":15719:15904   */\n    tag_114:\n        /* \"#utility.yul\":15759:15760   */\n      0x00\n        /* \"#utility.yul\":15776:15796   */\n      tag_379\n        /* \"#utility.yul\":15794:15795   */\n      dup3\n        /* \"#utility.yul\":15776:15796   */\n      tag_177\n      jump\t// in\n    tag_379:\n        /* \"#utility.yul\":15771:15796   */\n      swap2\n      pop\n        /* \"#utility.yul\":15810:15830   */\n      tag_380\n        /* \"#utility.yul\":15828:15829   */\n      dup4\n        /* \"#utility.yul\":15810:15830   */\n      tag_177\n      jump\t// in\n    tag_380:\n        /* \"#utility.yul\":15805:15830   */\n      swap3\n      pop\n        /* \"#utility.yul\":15849:15850   */\n      dup3\n        /* \"#utility.yul\":15839:15874   */\n      tag_381\n      jumpi\n        /* \"#utility.yul\":15854:15872   */\n      tag_382\n      tag_224\n      jump\t// in\n    tag_382:\n        /* \"#utility.yul\":15839:15874   */\n    tag_381:\n        /* \"#utility.yul\":15896:15897   */\n      dup3\n        /* \"#utility.yul\":15893:15894   */\n      dup3\n        /* \"#utility.yul\":15889:15898   */\n      div\n        /* \"#utility.yul\":15884:15898   */\n      swap1\n      pop\n        /* \"#utility.yul\":15719:15904   */\n      swap3\n      swap2\n      pop\n      pop\n      jump\t// out\n        /* \"#utility.yul\":15910:16090   */\n    tag_144:\n        /* \"#utility.yul\":15958:16035   */\n      0x4e487b7100000000000000000000000000000000000000000000000000000000\n        /* \"#utility.yul\":15955:15956   */\n      0x00\n        /* \"#utility.yul\":15948:16036   */\n      mstore\n        /* \"#utility.yul\":16055:16059   */\n      0x21\n        /* \"#utility.yul\":16052:16053   */\n      0x04\n        /* \"#utility.yul\":16045:16060   */\n      mstore\n        /* \"#utility.yul\":16079:16083   */\n      0x24\n        /* \"#utility.yul\":16076:16077   */\n      0x00\n        /* \"#utility.yul\":16069:16084   */\n      revert\n        /* \"#utility.yul\":16096:16173   */\n    tag_226:\n        /* \"#utility.yul\":16133:16140   */\n      0x00\n        /* \"#utility.yul\":16162:16167   */\n      dup2\n        /* \"#utility.yul\":16151:16167   */\n      swap1\n      pop\n        /* \"#utility.yul\":16096:16173   */\n      swap2\n      swap1\n      pop\n      jump\t// out\n        /* \"#utility.yul\":16179:16297   */\n    tag_227:\n        /* \"#utility.yul\":16266:16290   */\n      tag_386\n        /* \"#utility.yul\":16284:16289   */\n      dup2\n        /* \"#utility.yul\":16266:16290   */\n      tag_226\n      jump\t// in\n    tag_386:\n        /* \"#utility.yul\":16261:16264   */\n      dup3\n        /* \"#utility.yul\":16254:16291   */\n      mstore\n        /* \"#utility.yul\":16179:16297   */\n      pop\n      pop\n      jump\t// out\n        /* \"#utility.yul\":16303:16525   */\n    tag_168:\n        /* \"#utility.yul\":16396:16400   */\n      0x00\n        /* \"#utility.yul\":16434:16436   */\n      0x20\n        /* \"#utility.yul\":16423:16432   */\n      dup3\n        /* \"#utility.yul\":16419:16437   */\n      add\n        /* \"#utility.yul\":16411:16437   */\n      swap1\n      pop\n        /* \"#utility.yul\":16447:16518   */\n      tag_388\n        /* \"#utility.yul\":16515:16516   */\n      0x00\n        /* \"#utility.yul\":16504:16513   */\n      dup4\n        /* \"#utility.yul\":16500:16517   */\n      add\n        /* \"#utility.yul\":16491:16497   */\n      dup5\n        /* \"#utility.yul\":16447:16518   */\n      tag_227\n      jump\t// in\n    tag_388:\n        /* \"#utility.yul\":16303:16525   */\n      swap3\n      swap2\n      pop\n      pop\n      jump\t// out\n        /* \"#utility.yul\":16531:16617   */\n    tag_228:\n        /* \"#utility.yul\":16566:16573   */\n      0x00\n        /* \"#utility.yul\":16606:16610   */\n      0xff\n        /* \"#utility.yul\":16599:16604   */\n      dup3\n        /* \"#utility.yul\":16595:16611   */\n      and\n        /* \"#utility.yul\":16584:16611   */\n      swap1\n      pop\n        /* \"#utility.yul\":16531:16617   */\n      swap2\n      swap1\n      pop\n      jump\t// out\n        /* \"#utility.yul\":16623:16735   */\n    tag_229:\n        /* \"#utility.yul\":16706:16728   */\n      tag_391\n        /* \"#utility.yul\":16722:16727   */\n      dup2\n        /* \"#utility.yul\":16706:16728   */\n      tag_228\n      jump\t// in\n    tag_391:\n        /* \"#utility.yul\":16701:16704   */\n      dup3\n        /* \"#utility.yul\":16694:16729   */\n      mstore\n        /* \"#utility.yul\":16623:16735   */\n      pop\n      pop\n      jump\t// out\n        /* \"#utility.yul\":16741:17286   */\n    tag_173:\n        /* \"#utility.yul\":16914:16918   */\n      0x00\n        /* \"#utility.yul\":16952:16955   */\n      0x80\n        /* \"#utility.yul\":16941:16950   */\n      dup3\n        /* \"#utility.yul\":16937:16956   */\n      add\n        /* \"#utility.yul\":16929:16956   */\n      swap1\n      pop\n        /* \"#utility.yul\":16966:17037   */\n      tag_393\n        /* \"#utility.yul\":17034:17035   */\n      0x00\n        /* \"#utility.yul\":17023:17032   */\n      dup4\n        /* \"#utility.yul\":17019:17036   */\n      add\n        /* \"#utility.yul\":17010:17016   */\n      dup8\n        /* \"#utility.yul\":16966:17037   */\n      tag_227\n      jump\t// in\n    tag_393:\n        /* \"#utility.yul\":17047:17115   */\n      tag_394\n        /* \"#utility.yul\":17111:17113   */\n      0x20\n        /* \"#utility.yul\":17100:17109   */\n      dup4\n        /* \"#utility.yul\":17096:17114   */\n      add\n        /* \"#utility.yul\":17087:17093   */\n      dup7\n        /* \"#utility.yul\":17047:17115   */\n      tag_229\n      jump\t// in\n    tag_394:\n        /* \"#utility.yul\":17125:17197   */\n      tag_395\n        /* \"#utility.yul\":17193:17195   */\n      0x40\n        /* \"#utility.yul\":17182:17191   */\n      dup4\n        /* \"#utility.yul\":17178:17196   */\n      add\n        /* \"#utility.yul\":17169:17175   */\n      dup6\n        /* \"#utility.yul\":17125:17197   */\n      tag_227\n      jump\t// in\n    tag_395:\n        /* \"#utility.yul\":17207:17279   */\n      tag_396\n        /* \"#utility.yul\":17275:17277   */\n      0x60\n        /* \"#utility.yul\":17264:17273   */\n      dup4\n        /* \"#utility.yul\":17260:17278   */\n      add\n        /* \"#utility.yul\":17251:17257   */\n      dup5\n        /* \"#utility.yul\":17207:17279   */\n      tag_227\n      jump\t// in\n    tag_396:\n        /* \"#utility.yul\":16741:17286   */\n      swap6\n      swap5\n      pop\n      pop\n      pop\n      pop\n      pop\n      jump\t// out\n\n    auxdata: 0xa26469706673582212205f7c7695b94fb9b14921feb350841e31486fef2fe14b3970036980bddef9ded864736f6c634300081f0033\n}\n",
				"bytecode": {
					"linkReferences": {},
					"object": "60a060405234801561000f575f5ffd5b50335f73ffffffffffffffffffffffffffffffffffffffff168173ffffffffffffffffffffffffffffffffffffffff1603610081575f6040517f1e4fbdf70000000000000000000000000000000000000000000000000000000081526004016100789190610201565b60405180910390fd5b6100908161010160201b60201c565b5073b0525542e3d818460546332e76e511562dff9b0773ffffffffffffffffffffffffffffffffffffffff1660808173ffffffffffffffffffffffffffffffffffffffff16815250506100fc739eb566cc59e3e9d42209dd2d832740a6a74f5f2361010160201b60201c565b61021a565b5f5f5f9054906101000a900473ffffffffffffffffffffffffffffffffffffffff169050815f5f6101000a81548173ffffffffffffffffffffffffffffffffffffffff021916908373ffffffffffffffffffffffffffffffffffffffff1602179055508173ffffffffffffffffffffffffffffffffffffffff168173ffffffffffffffffffffffffffffffffffffffff167f8be0079c531659141344cd1fd0a4f28419497f9722a3daafe3b4186f6b6457e060405160405180910390a35050565b5f73ffffffffffffffffffffffffffffffffffffffff82169050919050565b5f6101eb826101c2565b9050919050565b6101fb816101e1565b82525050565b5f6020820190506102145f8301846101f2565b92915050565b6080516115db61024e5f395f81816101d9015281816104a40152818161057e015281816106ba01526107c201526115db5ff3fe608060405234801561000f575f5ffd5b506004361061009c575f3560e01c80638455d8d5116100645780638455d8d51461011e5780638da5cb5b1461013c5780639c6b85bb1461015a578063b77cf9c61461018a578063f2fde38b146101ba5761009c565b80632fba2c85146100a057806338926b6d146100be57806350baa622146100da5780635b7633d0146100f6578063715018a614610114575b5f5ffd5b6100a86101d6565b6040516100b59190610d74565b60405180910390f35b6100d860048036038101906100d39190610e20565b610274565b005b6100f460048036038101906100ef9190610e7d565b6106b0565b005b6100fe610795565b60405161010b9190610ee7565b60405180910390f35b61011c6107ad565b005b6101266107c0565b6040516101339190610f5b565b60405180910390f35b6101446107e4565b6040516101519190610ee7565b60405180910390f35b610174600480360381019061016f9190610f9e565b61080b565b6040516101819190610fe3565b60405180910390f35b6101a4600480360381019061019f9190610f9e565b610879565b6040516101b19190610d74565b60405180910390f35b6101d460048036038101906101cf9190610f9e565b61088e565b005b5f7f000000000000000000000000000000000000000000000000000000000000000073ffffffffffffffffffffffffffffffffffffffff166370a08231306040518263ffffffff1660e01b81526004016102309190610ee7565b602060405180830381865afa15801561024b573d5f5f3e3d5ffd5b505050506040513d601f19601f8201168201806040525081019061026f9190611010565b905090565b5f83116102b6576040517f08c379a00000000000000000000000000000000000000000000000000000000081526004016102ad90611095565b60405180910390fd5b685150ae84a8cdf00000831115610302576040517f08c379a00000000000000000000000000000000000000000000000000000000081526004016102f9906110fd565b60405180910390fd5b61030b3361080b565b61034a576040517f08c379a00000000000000000000000000000000000000000000000000000000081526004016103419061118b565b60405180910390fd5b5f3384306040516020016103609392919061120e565b6040516020818303038152906040528051906020012090505f61038282610912565b90505f6103db85858080601f0160208091040260200160405190810160405280939291908181526020018383808284375f81840152601f19601f820116905080830192505050505050508361094590919063ffffffff16565b905073b6edacfc0dfc759e9ac5b9b8b6eb32310ac1bb4973ffffffffffffffffffffffffffffffffffffffff168173ffffffffffffffffffffffffffffffffffffffff161461045f576040517f08c379a000000000000000000000000000000000000000000000000000000000815260040161045690611294565b60405180910390fd5b4260015f3373ffffffffffffffffffffffffffffffffffffffff1673ffffffffffffffffffffffffffffffffffffffff1681526020019081526020015f2081905550857f000000000000000000000000000000000000000000000000000000000000000073ffffffffffffffffffffffffffffffffffffffff166370a08231306040518263ffffffff1660e01b81526004016104fb9190610ee7565b602060405180830381865afa158015610516573d5f5f3e3d5ffd5b505050506040513d601f19601f8201168201806040525081019061053a9190611010565b101561057b576040517f08c379a000000000000000000000000000000000000000000000000000000000815260040161057290611322565b60405180910390fd5b5f7f000000000000000000000000000000000000000000000000000000000000000073ffffffffffffffffffffffffffffffffffffffff1663a9059cbb33896040518363ffffffff1660e01b81526004016105d7929190611340565b6020604051808303815f875af11580156105f3573d5f5f3e3d5ffd5b505050506040513d601f19601f820116820180604052508101906106179190611391565b905080610659576040517f08c379a000000000000000000000000000000000000000000000000000000000815260040161065090611406565b60405180910390fd5b3373ffffffffffffffffffffffffffffffffffffffff167fd8138f8a3f377c5259ca548e70e4c2de94f129f5a11036a15b69513cba2b426a8860405161069f9190610d74565b60405180910390a250505050505050565b6106b861096f565b7f000000000000000000000000000000000000000000000000000000000000000073ffffffffffffffffffffffffffffffffffffffff1663a9059cbb33836040518363ffffffff1660e01b8152600401610713929190611340565b6020604051808303815f875af115801561072f573d5f5f3e3d5ffd5b505050506040513d601f19601f820116820180604052508101906107539190611391565b610792576040517f08c379a00000000000000000000000000000000000000000000000000000000081526004016107899061146e565b60405180910390fd5b50565b73b6edacfc0dfc759e9ac5b9b8b6eb32310ac1bb4981565b6107b561096f565b6107be5f6109f6565b565b7f000000000000000000000000000000000000000000000000000000000000000081565b5f5f5f9054906101000a900473ffffffffffffffffffffffffffffffffffffffff16905090565b5f5f620151804261081c91906114b9565b90505f6201518060015f8673ffffffffffffffffffffffffffffffffffffffff1673ffffffffffffffffffffffffffffffffffffffff1681526020019081526020015f205461086b91906114b9565b905080821192505050919050565b6001602052805f5260405f205f915090505481565b61089661096f565b5f73ffffffffffffffffffffffffffffffffffffffff168173ffffffffffffffffffffffffffffffffffffffff1603610906575f6040517f1e4fbdf70000000000000000000000000000000000000000000000000000000081526004016108fd9190610ee7565b60405180910390fd5b61090f816109f6565b50565b5f7f19457468657265756d205369676e6564204d6573736167653a0a3332000000005f5281601c52603c5f209050919050565b5f5f5f5f6109538686610ab7565b9250925092506109638282610b0c565b82935050505092915050565b610977610c6e565b73ffffffffffffffffffffffffffffffffffffffff166109956107e4565b73ffffffffffffffffffffffffffffffffffffffff16146109f4576109b8610c6e565b6040517f118cdaa70000000000000000000000000000000000000000000000000000000081526004016109eb9190610ee7565b60405180910390fd5b565b5f5f5f9054906101000a900473ffffffffffffffffffffffffffffffffffffffff169050815f5f6101000a81548173ffffffffffffffffffffffffffffffffffffffff021916908373ffffffffffffffffffffffffffffffffffffffff1602179055508173ffffffffffffffffffffffffffffffffffffffff168173ffffffffffffffffffffffffffffffffffffffff167f8be0079c531659141344cd1fd0a4f28419497f9722a3daafe3b4186f6b6457e060405160405180910390a35050565b5f5f5f6041845103610af7575f5f5f602087015192506040870151915060608701515f1a9050610ae988828585610c75565b955095509550505050610b05565b5f600285515f1b9250925092505b9250925092565b5f6003811115610b1f57610b1e6114e9565b5b826003811115610b3257610b316114e9565b5b0315610c6a5760016003811115610b4c57610b4b6114e9565b5b826003811115610b5f57610b5e6114e9565b5b03610b96576040517ff645eedf00000000000000000000000000000000000000000000000000000000815260040160405180910390fd5b60026003811115610baa57610ba96114e9565b5b826003811115610bbd57610bbc6114e9565b5b03610c0157805f1c6040517ffce698f7000000000000000000000000000000000000000000000000000000008152600401610bf89190610d74565b60405180910390fd5b600380811115610c1457610c136114e9565b5b826003811115610c2757610c266114e9565b5b03610c6957806040517fd78bce0c000000000000000000000000000000000000000000000000000000008152600401610c60919061152e565b60405180910390fd5b5b5050565b5f33905090565b5f5f5f7f7fffffffffffffffffffffffffffffff5d576e7357a4501ddfe92f46681b20a0845f1c1115610cb1575f600385925092509250610d52565b5f6001888888886040515f8152602001604052604051610cd49493929190611562565b6020604051602081039080840390855afa158015610cf4573d5f5f3e3d5ffd5b5050506020604051035190505f73ffffffffffffffffffffffffffffffffffffffff168173ffffffffffffffffffffffffffffffffffffffff1603610d45575f60015f5f1b93509350935050610d52565b805f5f5f1b935093509350505b9450945094915050565b5f819050919050565b610d6e81610d5c565b82525050565b5f602082019050610d875f830184610d65565b92915050565b5f5ffd5b5f5ffd5b610d9e81610d5c565b8114610da8575f5ffd5b50565b5f81359050610db981610d95565b92915050565b5f5ffd5b5f5ffd5b5f5ffd5b5f5f83601f840112610de057610ddf610dbf565b5b8235905067ffffffffffffffff811115610dfd57610dfc610dc3565b5b602083019150836001820283011115610e1957610e18610dc7565b5b9250929050565b5f5f5f60408486031215610e3757610e36610d8d565b5b5f610e4486828701610dab565b935050602084013567ffffffffffffffff811115610e6557610e64610d91565b5b610e7186828701610dcb565b92509250509250925092565b5f60208284031215610e9257610e91610d8d565b5b5f610e9f84828501610dab565b91505092915050565b5f73ffffffffffffffffffffffffffffffffffffffff82169050919050565b5f610ed182610ea8565b9050919050565b610ee181610ec7565b82525050565b5f602082019050610efa5f830184610ed8565b92915050565b5f819050919050565b5f610f23610f1e610f1984610ea8565b610f00565b610ea8565b9050919050565b5f610f3482610f09565b9050919050565b5f610f4582610f2a565b9050919050565b610f5581610f3b565b82525050565b5f602082019050610f6e5f830184610f4c565b92915050565b610f7d81610ec7565b8114610f87575f5ffd5b50565b5f81359050610f9881610f74565b92915050565b5f60208284031215610fb357610fb2610d8d565b5b5f610fc084828501610f8a565b91505092915050565b5f8115159050919050565b610fdd81610fc9565b82525050565b5f602082019050610ff65f830184610fd4565b92915050565b5f8151905061100a81610d95565b92915050565b5f6020828403121561102557611024610d8d565b5b5f61103284828501610ffc565b91505092915050565b5f82825260208201905092915050565b7f416d6f756e74206d757374206265203e203000000000000000000000000000005f82015250565b5f61107f60128361103b565b915061108a8261104b565b602082019050919050565b5f6020820190508181035f8301526110ac81611073565b9050919050565b7f416d6f756e742065786365656473206c696d69742028313530302043484829005f82015250565b5f6110e7601f8361103b565b91506110f2826110b3565b602082019050919050565b5f6020820190508181035f830152611114816110db565b9050919050565b7f416c726561647920636c61696d656420746f64617920287265736574732061745f8201527f2055544320303a30302900000000000000000000000000000000000000000000602082015250565b5f611175602a8361103b565b91506111808261111b565b604082019050919050565b5f6020820190508181035f8301526111a281611169565b9050919050565b5f8160601b9050919050565b5f6111bf826111a9565b9050919050565b5f6111d0826111b5565b9050919050565b6111e86111e382610ec7565b6111c6565b82525050565b5f819050919050565b61120861120382610d5c565b6111ee565b82525050565b5f61121982866111d7565b60148201915061122982856111f7565b60208201915061123982846111d7565b601482019150819050949350505050565b7f496e76616c6964207369676e61747572650000000000000000000000000000005f82015250565b5f61127e60118361103b565b91506112898261124a565b602082019050919050565b5f6020820190508181035f8301526112ab81611272565b9050919050565b7f436f6e74726163742068617320696e73756666696369656e742062616c616e635f8201527f6500000000000000000000000000000000000000000000000000000000000000602082015250565b5f61130c60218361103b565b9150611317826112b2565b604082019050919050565b5f6020820190508181035f83015261133981611300565b9050919050565b5f6040820190506113535f830185610ed8565b6113606020830184610d65565b9392505050565b61137081610fc9565b811461137a575f5ffd5b50565b5f8151905061138b81611367565b92915050565b5f602082840312156113a6576113a5610d8d565b5b5f6113b38482850161137d565b91505092915050565b7f546f6b656e207472616e73666572206661696c656400000000000000000000005f82015250565b5f6113f060158361103b565b91506113fb826113bc565b602082019050919050565b5f6020820190508181035f83015261141d816113e4565b9050919050565b7f5472616e73666572206661696c656400000000000000000000000000000000005f82015250565b5f611458600f8361103b565b915061146382611424565b602082019050919050565b5f6020820190508181035f8301526114858161144c565b9050919050565b7f4e487b71000000000000000000000000000000000000000000000000000000005f52601260045260245ffd5b5f6114c382610d5c565b91506114ce83610d5c565b9250826114de576114dd61148c565b5b828204905092915050565b7f4e487b71000000000000000000000000000000000000000000000000000000005f52602160045260245ffd5b5f819050919050565b61152881611516565b82525050565b5f6020820190506115415f83018461151f565b92915050565b5f60ff82169050919050565b61155c81611547565b82525050565b5f6080820190506115755f83018761151f565b6115826020830186611553565b61158f604083018561151f565b61159c606083018461151f565b9594505050505056fea26469706673582212205f7c7695b94fb9b14921feb350841e31486fef2fe14b3970036980bddef9ded864736f6c634300081f0033",
					"opcodes": "PUSH1 0xA0 PUSH1 0x40 MSTORE CALLVALUE DUP1 ISZERO PUSH2 0xF JUMPI PUSH0 PUSH0 REVERT JUMPDEST POP CALLER PUSH0 PUSH20 0xFFFFFFFFFFFFFFFFFFFFFFFFFFFFFFFFFFFFFFFF AND DUP2 PUSH20 0xFFFFFFFFFFFFFFFFFFFFFFFFFFFFFFFFFFFFFFFF AND SUB PUSH2 0x81 JUMPI PUSH0 PUSH1 0x40 MLOAD PUSH32 0x1E4FBDF700000000000000000000000000000000000000000000000000000000 DUP2 MSTORE PUSH1 0x4 ADD PUSH2 0x78 SWAP2 SWAP1 PUSH2 0x201 JUMP JUMPDEST PUSH1 0x40 MLOAD DUP1 SWAP2 SUB SWAP1 REVERT JUMPDEST PUSH2 0x90 DUP2 PUSH2 0x101 PUSH1 0x20 SHL PUSH1 0x20 SHR JUMP JUMPDEST POP PUSH20 0xB0525542E3D818460546332E76E511562DFF9B07 PUSH20 0xFFFFFFFFFFFFFFFFFFFFFFFFFFFFFFFFFFFFFFFF AND PUSH1 0x80 DUP2 PUSH20 0xFFFFFFFFFFFFFFFFFFFFFFFFFFFFFFFFFFFFFFFF AND DUP2 MSTORE POP POP PUSH2 0xFC PUSH20 0x9EB566CC59E3E9D42209DD2D832740A6A74F5F23 PUSH2 0x101 PUSH1 0x20 SHL PUSH1 0x20 SHR JUMP JUMPDEST PUSH2 0x21A JUMP JUMPDEST PUSH0 PUSH0 PUSH0 SWAP1 SLOAD SWAP1 PUSH2 0x100 EXP SWAP1 DIV PUSH20 0xFFFFFFFFFFFFFFFFFFFFFFFFFFFFFFFFFFFFFFFF AND SWAP1 POP DUP2 PUSH0 PUSH0 PUSH2 0x100 EXP DUP2 SLOAD DUP2 PUSH20 0xFFFFFFFFFFFFFFFFFFFFFFFFFFFFFFFFFFFFFFFF MUL NOT AND SWAP1 DUP4 PUSH20 0xFFFFFFFFFFFFFFFFFFFFFFFFFFFFFFFFFFFFFFFF AND MUL OR SWAP1 SSTORE POP DUP2 PUSH20 0xFFFFFFFFFFFFFFFFFFFFFFFFFFFFFFFFFFFFFFFF AND DUP2 PUSH20 0xFFFFFFFFFFFFFFFFFFFFFFFFFFFFFFFFFFFFFFFF AND PUSH32 0x8BE0079C531659141344CD1FD0A4F28419497F9722A3DAAFE3B4186F6B6457E0 PUSH1 0x40 MLOAD PUSH1 0x40 MLOAD DUP1 SWAP2 SUB SWAP1 LOG3 POP POP JUMP JUMPDEST PUSH0 PUSH20 0xFFFFFFFFFFFFFFFFFFFFFFFFFFFFFFFFFFFFFFFF DUP3 AND SWAP1 POP SWAP2 SWAP1 POP JUMP JUMPDEST PUSH0 PUSH2 0x1EB DUP3 PUSH2 0x1C2 JUMP JUMPDEST SWAP1 POP SWAP2 SWAP1 POP JUMP JUMPDEST PUSH2 0x1FB DUP2 PUSH2 0x1E1 JUMP JUMPDEST DUP3 MSTORE POP POP JUMP JUMPDEST PUSH0 PUSH1 0x20 DUP3 ADD SWAP1 POP PUSH2 0x214 PUSH0 DUP4 ADD DUP5 PUSH2 0x1F2 JUMP JUMPDEST SWAP3 SWAP2 POP POP JUMP JUMPDEST PUSH1 0x80 MLOAD PUSH2 0x15DB PUSH2 0x24E PUSH0 CODECOPY PUSH0 DUP2 DUP2 PUSH2 0x1D9 ADD MSTORE DUP2 DUP2 PUSH2 0x4A4 ADD MSTORE DUP2 DUP2 PUSH2 0x57E ADD MSTORE DUP2 DUP2 PUSH2 0x6BA ADD MSTORE PUSH2 0x7C2 ADD MSTORE PUSH2 0x15DB PUSH0 RETURN INVALID PUSH1 0x80 PUSH1 0x40 MSTORE CALLVALUE DUP1 ISZERO PUSH2 0xF JUMPI PUSH0 PUSH0 REVERT JUMPDEST POP PUSH1 0x4 CALLDATASIZE LT PUSH2 0x9C JUMPI PUSH0 CALLDATALOAD PUSH1 0xE0 SHR DUP1 PUSH4 0x8455D8D5 GT PUSH2 0x64 JUMPI DUP1 PUSH4 0x8455D8D5 EQ PUSH2 0x11E JUMPI DUP1 PUSH4 0x8DA5CB5B EQ PUSH2 0x13C JUMPI DUP1 PUSH4 0x9C6B85BB EQ PUSH2 0x15A JUMPI DUP1 PUSH4 0xB77CF9C6 EQ PUSH2 0x18A JUMPI DUP1 PUSH4 0xF2FDE38B EQ PUSH2 0x1BA JUMPI PUSH2 0x9C JUMP JUMPDEST DUP1 PUSH4 0x2FBA2C85 EQ PUSH2 0xA0 JUMPI DUP1 PUSH4 0x38926B6D EQ PUSH2 0xBE JUMPI DUP1 PUSH4 0x50BAA622 EQ PUSH2 0xDA JUMPI DUP1 PUSH4 0x5B7633D0 EQ PUSH2 0xF6 JUMPI DUP1 PUSH4 0x715018A6 EQ PUSH2 0x114 JUMPI JUMPDEST PUSH0 PUSH0 REVERT JUMPDEST PUSH2 0xA8 PUSH2 0x1D6 JUMP JUMPDEST PUSH1 0x40 MLOAD PUSH2 0xB5 SWAP2 SWAP1 PUSH2 0xD74 JUMP JUMPDEST PUSH1 0x40 MLOAD DUP1 SWAP2 SUB SWAP1 RETURN JUMPDEST PUSH2 0xD8 PUSH1 0x4 DUP1 CALLDATASIZE SUB DUP2 ADD SWAP1 PUSH2 0xD3 SWAP2 SWAP1 PUSH2 0xE20 JUMP JUMPDEST PUSH2 0x274 JUMP JUMPDEST STOP JUMPDEST PUSH2 0xF4 PUSH1 0x4 DUP1 CALLDATASIZE SUB DUP2 ADD SWAP1 PUSH2 0xEF SWAP2 SWAP1 PUSH2 0xE7D JUMP JUMPDEST PUSH2 0x6B0 JUMP JUMPDEST STOP JUMPDEST PUSH2 0xFE PUSH2 0x795 JUMP JUMPDEST PUSH1 0x40 MLOAD PUSH2 0x10B SWAP2 SWAP1 PUSH2 0xEE7 JUMP JUMPDEST PUSH1 0x40 MLOAD DUP1 SWAP2 SUB SWAP1 RETURN JUMPDEST PUSH2 0x11C PUSH2 0x7AD JUMP JUMPDEST STOP JUMPDEST PUSH2 0x126 PUSH2 0x7C0 JUMP JUMPDEST PUSH1 0x40 MLOAD PUSH2 0x133 SWAP2 SWAP1 PUSH2 0xF5B JUMP JUMPDEST PUSH1 0x40 MLOAD DUP1 SWAP2 SUB SWAP1 RETURN JUMPDEST PUSH2 0x144 PUSH2 0x7E4 JUMP JUMPDEST PUSH1 0x40 MLOAD PUSH2 0x151 SWAP2 SWAP1 PUSH2 0xEE7 JUMP JUMPDEST PUSH1 0x40 MLOAD DUP1 SWAP2 SUB SWAP1 RETURN JUMPDEST PUSH2 0x174 PUSH1 0x4 DUP1 CALLDATASIZE SUB DUP2 ADD SWAP1 PUSH2 0x16F SWAP2 SWAP1 PUSH2 0xF9E JUMP JUMPDEST PUSH2 0x80B JUMP JUMPDEST PUSH1 0x40 MLOAD PUSH2 0x181 SWAP2 SWAP1 PUSH2 0xFE3 JUMP JUMPDEST PUSH1 0x40 MLOAD DUP1 SWAP2 SUB SWAP1 RETURN JUMPDEST PUSH2 0x1A4 PUSH1 0x4 DUP1 CALLDATASIZE SUB DUP2 ADD SWAP1 PUSH2 0x19F SWAP2 SWAP1 PUSH2 0xF9E JUMP JUMPDEST PUSH2 0x879 JUMP JUMPDEST PUSH1 0x40 MLOAD PUSH2 0x1B1 SWAP2 SWAP1 PUSH2 0xD74 JUMP JUMPDEST PUSH1 0x40 MLOAD DUP1 SWAP2 SUB SWAP1 RETURN JUMPDEST PUSH2 0x1D4 PUSH1 0x4 DUP1 CALLDATASIZE SUB DUP2 ADD SWAP1 PUSH2 0x1CF SWAP2 SWAP1 PUSH2 0xF9E JUMP JUMPDEST PUSH2 0x88E JUMP JUMPDEST STOP JUMPDEST PUSH0 PUSH32 0x0 PUSH20 0xFFFFFFFFFFFFFFFFFFFFFFFFFFFFFFFFFFFFFFFF AND PUSH4 0x70A08231 ADDRESS PUSH1 0x40 MLOAD DUP3 PUSH4 0xFFFFFFFF AND PUSH1 0xE0 SHL DUP2 MSTORE PUSH1 0x4 ADD PUSH2 0x230 SWAP2 SWAP1 PUSH2 0xEE7 JUMP JUMPDEST PUSH1 0x20 PUSH1 0x40 MLOAD DUP1 DUP4 SUB DUP2 DUP7 GAS STATICCALL ISZERO DUP1 ISZERO PUSH2 0x24B JUMPI RETURNDATASIZE PUSH0 PUSH0 RETURNDATACOPY RETURNDATASIZE PUSH0 REVERT JUMPDEST POP POP POP POP PUSH1 0x40 MLOAD RETURNDATASIZE PUSH1 0x1F NOT PUSH1 0x1F DUP3 ADD AND DUP3 ADD DUP1 PUSH1 0x40 MSTORE POP DUP2 ADD SWAP1 PUSH2 0x26F SWAP2 SWAP1 PUSH2 0x1010 JUMP JUMPDEST SWAP1 POP SWAP1 JUMP JUMPDEST PUSH0 DUP4 GT PUSH2 0x2B6 JUMPI PUSH1 0x40 MLOAD PUSH32 0x8C379A000000000000000000000000000000000000000000000000000000000 DUP2 MSTORE PUSH1 0x4 ADD PUSH2 0x2AD SWAP1 PUSH2 0x1095 JUMP JUMPDEST PUSH1 0x40 MLOAD DUP1 SWAP2 SUB SWAP1 REVERT JUMPDEST PUSH9 0x5150AE84A8CDF00000 DUP4 GT ISZERO PUSH2 0x302 JUMPI PUSH1 0x40 MLOAD PUSH32 0x8C379A000000000000000000000000000000000000000000000000000000000 DUP2 MSTORE PUSH1 0x4 ADD PUSH2 0x2F9 SWAP1 PUSH2 0x10FD JUMP JUMPDEST PUSH1 0x40 MLOAD DUP1 SWAP2 SUB SWAP1 REVERT JUMPDEST PUSH2 0x30B CALLER PUSH2 0x80B JUMP JUMPDEST PUSH2 0x34A JUMPI PUSH1 0x40 MLOAD PUSH32 0x8C379A000000000000000000000000000000000000000000000000000000000 DUP2 MSTORE PUSH1 0x4 ADD PUSH2 0x341 SWAP1 PUSH2 0x118B JUMP JUMPDEST PUSH1 0x40 MLOAD DUP1 SWAP2 SUB SWAP1 REVERT JUMPDEST PUSH0 CALLER DUP5 ADDRESS PUSH1 0x40 MLOAD PUSH1 0x20 ADD PUSH2 0x360 SWAP4 SWAP3 SWAP2 SWAP1 PUSH2 0x120E JUMP JUMPDEST PUSH1 0x40 MLOAD PUSH1 0x20 DUP2 DUP4 SUB SUB DUP2 MSTORE SWAP1 PUSH1 0x40 MSTORE DUP1 MLOAD SWAP1 PUSH1 0x20 ADD KECCAK256 SWAP1 POP PUSH0 PUSH2 0x382 DUP3 PUSH2 0x912 JUMP JUMPDEST SWAP1 POP PUSH0 PUSH2 0x3DB DUP6 DUP6 DUP1 DUP1 PUSH1 0x1F ADD PUSH1 0x20 DUP1 SWAP2 DIV MUL PUSH1 0x20 ADD PUSH1 0x40 MLOAD SWAP1 DUP2 ADD PUSH1 0x40 MSTORE DUP1 SWAP4 SWAP3 SWAP2 SWAP1 DUP2 DUP2 MSTORE PUSH1 0x20 ADD DUP4 DUP4 DUP1 DUP3 DUP5 CALLDATACOPY PUSH0 DUP2 DUP5 ADD MSTORE PUSH1 0x1F NOT PUSH1 0x1F DUP3 ADD AND SWAP1 POP DUP1 DUP4 ADD SWAP3 POP POP POP POP POP POP POP DUP4 PUSH2 0x945 SWAP1 SWAP2 SWAP1 PUSH4 0xFFFFFFFF AND JUMP JUMPDEST SWAP1 POP PUSH20 0xB6EDACFC0DFC759E9AC5B9B8B6EB32310AC1BB49 PUSH20 0xFFFFFFFFFFFFFFFFFFFFFFFFFFFFFFFFFFFFFFFF AND DUP2 PUSH20 0xFFFFFFFFFFFFFFFFFFFFFFFFFFFFFFFFFFFFFFFF AND EQ PUSH2 0x45F JUMPI PUSH1 0x40 MLOAD PUSH32 0x8C379A000000000000000000000000000000000000000000000000000000000 DUP2 MSTORE PUSH1 0x4 ADD PUSH2 0x456 SWAP1 PUSH2 0x1294 JUMP JUMPDEST PUSH1 0x40 MLOAD DUP1 SWAP2 SUB SWAP1 REVERT JUMPDEST TIMESTAMP PUSH1 0x1 PUSH0 CALLER PUSH20 0xFFFFFFFFFFFFFFFFFFFFFFFFFFFFFFFFFFFFFFFF AND PUSH20 0xFFFFFFFFFFFFFFFFFFFFFFFFFFFFFFFFFFFFFFFF AND DUP2 MSTORE PUSH1 0x20 ADD SWAP1 DUP2 MSTORE PUSH1 0x20 ADD PUSH0 KECCAK256 DUP2 SWAP1 SSTORE POP DUP6 PUSH32 0x0 PUSH20 0xFFFFFFFFFFFFFFFFFFFFFFFFFFFFFFFFFFFFFFFF AND PUSH4 0x70A08231 ADDRESS PUSH1 0x40 MLOAD DUP3 PUSH4 0xFFFFFFFF AND PUSH1 0xE0 SHL DUP2 MSTORE PUSH1 0x4 ADD PUSH2 0x4FB SWAP2 SWAP1 PUSH2 0xEE7 JUMP JUMPDEST PUSH1 0x20 PUSH1 0x40 MLOAD DUP1 DUP4 SUB DUP2 DUP7 GAS STATICCALL ISZERO DUP1 ISZERO PUSH2 0x516 JUMPI RETURNDATASIZE PUSH0 PUSH0 RETURNDATACOPY RETURNDATASIZE PUSH0 REVERT JUMPDEST POP POP POP POP PUSH1 0x40 MLOAD RETURNDATASIZE PUSH1 0x1F NOT PUSH1 0x1F DUP3 ADD AND DUP3 ADD DUP1 PUSH1 0x40 MSTORE POP DUP2 ADD SWAP1 PUSH2 0x53A SWAP2 SWAP1 PUSH2 0x1010 JUMP JUMPDEST LT ISZERO PUSH2 0x57B JUMPI PUSH1 0x40 MLOAD PUSH32 0x8C379A000000000000000000000000000000000000000000000000000000000 DUP2 MSTORE PUSH1 0x4 ADD PUSH2 0x572 SWAP1 PUSH2 0x1322 JUMP JUMPDEST PUSH1 0x40 MLOAD DUP1 SWAP2 SUB SWAP1 REVERT JUMPDEST PUSH0 PUSH32 0x0 PUSH20 0xFFFFFFFFFFFFFFFFFFFFFFFFFFFFFFFFFFFFFFFF AND PUSH4 0xA9059CBB CALLER DUP10 PUSH1 0x40 MLOAD DUP4 PUSH4 0xFFFFFFFF AND PUSH1 0xE0 SHL DUP2 MSTORE PUSH1 0x4 ADD PUSH2 0x5D7 SWAP3 SWAP2 SWAP1 PUSH2 0x1340 JUMP JUMPDEST PUSH1 0x20 PUSH1 0x40 MLOAD DUP1 DUP4 SUB DUP2 PUSH0 DUP8 GAS CALL ISZERO DUP1 ISZERO PUSH2 0x5F3 JUMPI RETURNDATASIZE PUSH0 PUSH0 RETURNDATACOPY RETURNDATASIZE PUSH0 REVERT JUMPDEST POP POP POP POP PUSH1 0x40 MLOAD RETURNDATASIZE PUSH1 0x1F NOT PUSH1 0x1F DUP3 ADD AND DUP3 ADD DUP1 PUSH1 0x40 MSTORE POP DUP2 ADD SWAP1 PUSH2 0x617 SWAP2 SWAP1 PUSH2 0x1391 JUMP JUMPDEST SWAP1 POP DUP1 PUSH2 0x659 JUMPI PUSH1 0x40 MLOAD PUSH32 0x8C379A000000000000000000000000000000000000000000000000000000000 DUP2 MSTORE PUSH1 0x4 ADD PUSH2 0x650 SWAP1 PUSH2 0x1406 JUMP JUMPDEST PUSH1 0x40 MLOAD DUP1 SWAP2 SUB SWAP1 REVERT JUMPDEST CALLER PUSH20 0xFFFFFFFFFFFFFFFFFFFFFFFFFFFFFFFFFFFFFFFF AND PUSH32 0xD8138F8A3F377C5259CA548E70E4C2DE94F129F5A11036A15B69513CBA2B426A DUP9 PUSH1 0x40 MLOAD PUSH2 0x69F SWAP2 SWAP1 PUSH2 0xD74 JUMP JUMPDEST PUSH1 0x40 MLOAD DUP1 SWAP2 SUB SWAP1 LOG2 POP POP POP POP POP POP POP JUMP JUMPDEST PUSH2 0x6B8 PUSH2 0x96F JUMP JUMPDEST PUSH32 0x0 PUSH20 0xFFFFFFFFFFFFFFFFFFFFFFFFFFFFFFFFFFFFFFFF AND PUSH4 0xA9059CBB CALLER DUP4 PUSH1 0x40 MLOAD DUP4 PUSH4 0xFFFFFFFF AND PUSH1 0xE0 SHL DUP2 MSTORE PUSH1 0x4 ADD PUSH2 0x713 SWAP3 SWAP2 SWAP1 PUSH2 0x1340 JUMP JUMPDEST PUSH1 0x20 PUSH1 0x40 MLOAD DUP1 DUP4 SUB DUP2 PUSH0 DUP8 GAS CALL ISZERO DUP1 ISZERO PUSH2 0x72F JUMPI RETURNDATASIZE PUSH0 PUSH0 RETURNDATACOPY RETURNDATASIZE PUSH0 REVERT JUMPDEST POP POP POP POP PUSH1 0x40 MLOAD RETURNDATASIZE PUSH1 0x1F NOT PUSH1 0x1F DUP3 ADD AND DUP3 ADD DUP1 PUSH1 0x40 MSTORE POP DUP2 ADD SWAP1 PUSH2 0x753 SWAP2 SWAP1 PUSH2 0x1391 JUMP JUMPDEST PUSH2 0x792 JUMPI PUSH1 0x40 MLOAD PUSH32 0x8C379A000000000000000000000000000000000000000000000000000000000 DUP2 MSTORE PUSH1 0x4 ADD PUSH2 0x789 SWAP1 PUSH2 0x146E JUMP JUMPDEST PUSH1 0x40 MLOAD DUP1 SWAP2 SUB SWAP1 REVERT JUMPDEST POP JUMP JUMPDEST PUSH20 0xB6EDACFC0DFC759E9AC5B9B8B6EB32310AC1BB49 DUP2 JUMP JUMPDEST PUSH2 0x7B5 PUSH2 0x96F JUMP JUMPDEST PUSH2 0x7BE PUSH0 PUSH2 0x9F6 JUMP JUMPDEST JUMP JUMPDEST PUSH32 0x0 DUP2 JUMP JUMPDEST PUSH0 PUSH0 PUSH0 SWAP1 SLOAD SWAP1 PUSH2 0x100 EXP SWAP1 DIV PUSH20 0xFFFFFFFFFFFFFFFFFFFFFFFFFFFFFFFFFFFFFFFF AND SWAP1 POP SWAP1 JUMP JUMPDEST PUSH0 PUSH0 PUSH3 0x15180 TIMESTAMP PUSH2 0x81C SWAP2 SWAP1 PUSH2 0x14B9 JUMP JUMPDEST SWAP1 POP PUSH0 PUSH3 0x15180 PUSH1 0x1 PUSH0 DUP7 PUSH20 0xFFFFFFFFFFFFFFFFFFFFFFFFFFFFFFFFFFFFFFFF AND PUSH20 0xFFFFFFFFFFFFFFFFFFFFFFFFFFFFFFFFFFFFFFFF AND DUP2 MSTORE PUSH1 0x20 ADD SWAP1 DUP2 MSTORE PUSH1 0x20 ADD PUSH0 KECCAK256 SLOAD PUSH2 0x86B SWAP2 SWAP1 PUSH2 0x14B9 JUMP JUMPDEST SWAP1 POP DUP1 DUP3 GT SWAP3 POP POP POP SWAP2 SWAP1 POP JUMP JUMPDEST PUSH1 0x1 PUSH1 0x20 MSTORE DUP1 PUSH0 MSTORE PUSH1 0x40 PUSH0 KECCAK256 PUSH0 SWAP2 POP SWAP1 POP SLOAD DUP2 JUMP JUMPDEST PUSH2 0x896 PUSH2 0x96F JUMP JUMPDEST PUSH0 PUSH20 0xFFFFFFFFFFFFFFFFFFFFFFFFFFFFFFFFFFFFFFFF AND DUP2 PUSH20 0xFFFFFFFFFFFFFFFFFFFFFFFFFFFFFFFFFFFFFFFF AND SUB PUSH2 0x906 JUMPI PUSH0 PUSH1 0x40 MLOAD PUSH32 0x1E4FBDF700000000000000000000000000000000000000000000000000000000 DUP2 MSTORE PUSH1 0x4 ADD PUSH2 0x8FD SWAP2 SWAP1 PUSH2 0xEE7 JUMP JUMPDEST PUSH1 0x40 MLOAD DUP1 SWAP2 SUB SWAP1 REVERT JUMPDEST PUSH2 0x90F DUP2 PUSH2 0x9F6 JUMP JUMPDEST POP JUMP JUMPDEST PUSH0 PUSH32 0x19457468657265756D205369676E6564204D6573736167653A0A333200000000 PUSH0 MSTORE DUP2 PUSH1 0x1C MSTORE PUSH1 0x3C PUSH0 KECCAK256 SWAP1 POP SWAP2 SWAP1 POP JUMP JUMPDEST PUSH0 PUSH0 PUSH0 PUSH0 PUSH2 0x953 DUP7 DUP7 PUSH2 0xAB7 JUMP JUMPDEST SWAP3 POP SWAP3 POP SWAP3 POP PUSH2 0x963 DUP3 DUP3 PUSH2 0xB0C JUMP JUMPDEST DUP3 SWAP4 POP POP POP POP SWAP3 SWAP2 POP POP JUMP JUMPDEST PUSH2 0x977 PUSH2 0xC6E JUMP JUMPDEST PUSH20 0xFFFFFFFFFFFFFFFFFFFFFFFFFFFFFFFFFFFFFFFF AND PUSH2 0x995 PUSH2 0x7E4 JUMP JUMPDEST PUSH20 0xFFFFFFFFFFFFFFFFFFFFFFFFFFFFFFFFFFFFFFFF AND EQ PUSH2 0x9F4 JUMPI PUSH2 0x9B8 PUSH2 0xC6E JUMP JUMPDEST PUSH1 0x40 MLOAD PUSH32 0x118CDAA700000000000000000000000000000000000000000000000000000000 DUP2 MSTORE PUSH1 0x4 ADD PUSH2 0x9EB SWAP2 SWAP1 PUSH2 0xEE7 JUMP JUMPDEST PUSH1 0x40 MLOAD DUP1 SWAP2 SUB SWAP1 REVERT JUMPDEST JUMP JUMPDEST PUSH0 PUSH0 PUSH0 SWAP1 SLOAD SWAP1 PUSH2 0x100 EXP SWAP1 DIV PUSH20 0xFFFFFFFFFFFFFFFFFFFFFFFFFFFFFFFFFFFFFFFF AND SWAP1 POP DUP2 PUSH0 PUSH0 PUSH2 0x100 EXP DUP2 SLOAD DUP2 PUSH20 0xFFFFFFFFFFFFFFFFFFFFFFFFFFFFFFFFFFFFFFFF MUL NOT AND SWAP1 DUP4 PUSH20 0xFFFFFFFFFFFFFFFFFFFFFFFFFFFFFFFFFFFFFFFF AND MUL OR SWAP1 SSTORE POP DUP2 PUSH20 0xFFFFFFFFFFFFFFFFFFFFFFFFFFFFFFFFFFFFFFFF AND DUP2 PUSH20 0xFFFFFFFFFFFFFFFFFFFFFFFFFFFFFFFFFFFFFFFF AND PUSH32 0x8BE0079C531659141344CD1FD0A4F28419497F9722A3DAAFE3B4186F6B6457E0 PUSH1 0x40 MLOAD PUSH1 0x40 MLOAD DUP1 SWAP2 SUB SWAP1 LOG3 POP POP JUMP JUMPDEST PUSH0 PUSH0 PUSH0 PUSH1 0x41 DUP5 MLOAD SUB PUSH2 0xAF7 JUMPI PUSH0 PUSH0 PUSH0 PUSH1 0x20 DUP8 ADD MLOAD SWAP3 POP PUSH1 0x40 DUP8 ADD MLOAD SWAP2 POP PUSH1 0x60 DUP8 ADD MLOAD PUSH0 BYTE SWAP1 POP PUSH2 0xAE9 DUP9 DUP3 DUP6 DUP6 PUSH2 0xC75 JUMP JUMPDEST SWAP6 POP SWAP6 POP SWAP6 POP POP POP POP PUSH2 0xB05 JUMP JUMPDEST PUSH0 PUSH1 0x2 DUP6 MLOAD PUSH0 SHL SWAP3 POP SWAP3 POP SWAP3 POP JUMPDEST SWAP3 POP SWAP3 POP SWAP3 JUMP JUMPDEST PUSH0 PUSH1 0x3 DUP2 GT ISZERO PUSH2 0xB1F JUMPI PUSH2 0xB1E PUSH2 0x14E9 JUMP JUMPDEST JUMPDEST DUP3 PUSH1 0x3 DUP2 GT ISZERO PUSH2 0xB32 JUMPI PUSH2 0xB31 PUSH2 0x14E9 JUMP JUMPDEST JUMPDEST SUB ISZERO PUSH2 0xC6A JUMPI PUSH1 0x1 PUSH1 0x3 DUP2 GT ISZERO PUSH2 0xB4C JUMPI PUSH2 0xB4B PUSH2 0x14E9 JUMP JUMPDEST JUMPDEST DUP3 PUSH1 0x3 DUP2 GT ISZERO PUSH2 0xB5F JUMPI PUSH2 0xB5E PUSH2 0x14E9 JUMP JUMPDEST JUMPDEST SUB PUSH2 0xB96 JUMPI PUSH1 0x40 MLOAD PUSH32 0xF645EEDF00000000000000000000000000000000000000000000000000000000 DUP2 MSTORE PUSH1 0x4 ADD PUSH1 0x40 MLOAD DUP1 SWAP2 SUB SWAP1 REVERT JUMPDEST PUSH1 0x2 PUSH1 0x3 DUP2 GT ISZERO PUSH2 0xBAA JUMPI PUSH2 0xBA9 PUSH2 0x14E9 JUMP JUMPDEST JUMPDEST DUP3 PUSH1 0x3 DUP2 GT ISZERO PUSH2 0xBBD JUMPI PUSH2 0xBBC PUSH2 0x14E9 JUMP JUMPDEST JUMPDEST SUB PUSH2 0xC01 JUMPI DUP1 PUSH0 SHR PUSH1 0x40 MLOAD PUSH32 0xFCE698F700000000000000000000000000000000000000000000000000000000 DUP2 MSTORE PUSH1 0x4 ADD PUSH2 0xBF8 SWAP2 SWAP1 PUSH2 0xD74 JUMP JUMPDEST PUSH1 0x40 MLOAD DUP1 SWAP2 SUB SWAP1 REVERT JUMPDEST PUSH1 0x3 DUP1 DUP2 GT ISZERO PUSH2 0xC14 JUMPI PUSH2 0xC13 PUSH2 0x14E9 JUMP JUMPDEST JUMPDEST DUP3 PUSH1 0x3 DUP2 GT ISZERO PUSH2 0xC27 JUMPI PUSH2 0xC26 PUSH2 0x14E9 JUMP JUMPDEST JUMPDEST SUB PUSH2 0xC69 JUMPI DUP1 PUSH1 0x40 MLOAD PUSH32 0xD78BCE0C00000000000000000000000000000000000000000000000000000000 DUP2 MSTORE PUSH1 0x4 ADD PUSH2 0xC60 SWAP2 SWAP1 PUSH2 0x152E JUMP JUMPDEST PUSH1 0x40 MLOAD DUP1 SWAP2 SUB SWAP1 REVERT JUMPDEST JUMPDEST POP POP JUMP JUMPDEST PUSH0 CALLER SWAP1 POP SWAP1 JUMP JUMPDEST PUSH0 PUSH0 PUSH0 PUSH32 0x7FFFFFFFFFFFFFFFFFFFFFFFFFFFFFFF5D576E7357A4501DDFE92F46681B20A0 DUP5 PUSH0 SHR GT ISZERO PUSH2 0xCB1 JUMPI PUSH0 PUSH1 0x3 DUP6 SWAP3 POP SWAP3 POP SWAP3 POP PUSH2 0xD52 JUMP JUMPDEST PUSH0 PUSH1 0x1 DUP9 DUP9 DUP9 DUP9 PUSH1 0x40 MLOAD PUSH0 DUP2 MSTORE PUSH1 0x20 ADD PUSH1 0x40 MSTORE PUSH1 0x40 MLOAD PUSH2 0xCD4 SWAP5 SWAP4 SWAP3 SWAP2 SWAP1 PUSH2 0x1562 JUMP JUMPDEST PUSH1 0x20 PUSH1 0x40 MLOAD PUSH1 0x20 DUP2 SUB SWAP1 DUP1 DUP5 SUB SWAP1 DUP6 GAS STATICCALL ISZERO DUP1 ISZERO PUSH2 0xCF4 JUMPI RETURNDATASIZE PUSH0 PUSH0 RETURNDATACOPY RETURNDATASIZE PUSH0 REVERT JUMPDEST POP POP POP PUSH1 0x20 PUSH1 0x40 MLOAD SUB MLOAD SWAP1 POP PUSH0 PUSH20 0xFFFFFFFFFFFFFFFFFFFFFFFFFFFFFFFFFFFFFFFF AND DUP2 PUSH20 0xFFFFFFFFFFFFFFFFFFFFFFFFFFFFFFFFFFFFFFFF AND SUB PUSH2 0xD45 JUMPI PUSH0 PUSH1 0x1 PUSH0 PUSH0 SHL SWAP4 POP SWAP4 POP SWAP4 POP POP PUSH2 0xD52 JUMP JUMPDEST DUP1 PUSH0 PUSH0 PUSH0 SHL SWAP4 POP SWAP4 POP SWAP4 POP POP JUMPDEST SWAP5 POP SWAP5 POP SWAP5 SWAP2 POP POP JUMP JUMPDEST PUSH0 DUP2 SWAP1 POP SWAP2 SWAP1 POP JUMP JUMPDEST PUSH2 0xD6E DUP2 PUSH2 0xD5C JUMP JUMPDEST DUP3 MSTORE POP POP JUMP JUMPDEST PUSH0 PUSH1 0x20 DUP3 ADD SWAP1 POP PUSH2 0xD87 PUSH0 DUP4 ADD DUP5 PUSH2 0xD65 JUMP JUMPDEST SWAP3 SWAP2 POP POP JUMP JUMPDEST PUSH0 PUSH0 REVERT JUMPDEST PUSH0 PUSH0 REVERT JUMPDEST PUSH2 0xD9E DUP2 PUSH2 0xD5C JUMP JUMPDEST DUP2 EQ PUSH2 0xDA8 JUMPI PUSH0 PUSH0 REVERT JUMPDEST POP JUMP JUMPDEST PUSH0 DUP2 CALLDATALOAD SWAP1 POP PUSH2 0xDB9 DUP2 PUSH2 0xD95 JUMP JUMPDEST SWAP3 SWAP2 POP POP JUMP JUMPDEST PUSH0 PUSH0 REVERT JUMPDEST PUSH0 PUSH0 REVERT JUMPDEST PUSH0 PUSH0 REVERT JUMPDEST PUSH0 PUSH0 DUP4 PUSH1 0x1F DUP5 ADD SLT PUSH2 0xDE0 JUMPI PUSH2 0xDDF PUSH2 0xDBF JUMP JUMPDEST JUMPDEST DUP3 CALLDATALOAD SWAP1 POP PUSH8 0xFFFFFFFFFFFFFFFF DUP2 GT ISZERO PUSH2 0xDFD JUMPI PUSH2 0xDFC PUSH2 0xDC3 JUMP JUMPDEST JUMPDEST PUSH1 0x20 DUP4 ADD SWAP2 POP DUP4 PUSH1 0x1 DUP3 MUL DUP4 ADD GT ISZERO PUSH2 0xE19 JUMPI PUSH2 0xE18 PUSH2 0xDC7 JUMP JUMPDEST JUMPDEST SWAP3 POP SWAP3 SWAP1 POP JUMP JUMPDEST PUSH0 PUSH0 PUSH0 PUSH1 0x40 DUP5 DUP7 SUB SLT ISZERO PUSH2 0xE37 JUMPI PUSH2 0xE36 PUSH2 0xD8D JUMP JUMPDEST JUMPDEST PUSH0 PUSH2 0xE44 DUP7 DUP3 DUP8 ADD PUSH2 0xDAB JUMP JUMPDEST SWAP4 POP POP PUSH1 0x20 DUP5 ADD CALLDATALOAD PUSH8 0xFFFFFFFFFFFFFFFF DUP2 GT ISZERO PUSH2 0xE65 JUMPI PUSH2 0xE64 PUSH2 0xD91 JUMP JUMPDEST JUMPDEST PUSH2 0xE71 DUP7 DUP3 DUP8 ADD PUSH2 0xDCB JUMP JUMPDEST SWAP3 POP SWAP3 POP POP SWAP3 POP SWAP3 POP SWAP3 JUMP JUMPDEST PUSH0 PUSH1 0x20 DUP3 DUP5 SUB SLT ISZERO PUSH2 0xE92 JUMPI PUSH2 0xE91 PUSH2 0xD8D JUMP JUMPDEST JUMPDEST PUSH0 PUSH2 0xE9F DUP5 DUP3 DUP6 ADD PUSH2 0xDAB JUMP JUMPDEST SWAP2 POP POP SWAP3 SWAP2 POP POP JUMP JUMPDEST PUSH0 PUSH20 0xFFFFFFFFFFFFFFFFFFFFFFFFFFFFFFFFFFFFFFFF DUP3 AND SWAP1 POP SWAP2 SWAP1 POP JUMP JUMPDEST PUSH0 PUSH2 0xED1 DUP3 PUSH2 0xEA8 JUMP JUMPDEST SWAP1 POP SWAP2 SWAP1 POP JUMP JUMPDEST PUSH2 0xEE1 DUP2 PUSH2 0xEC7 JUMP JUMPDEST DUP3 MSTORE POP POP JUMP JUMPDEST PUSH0 PUSH1 0x20 DUP3 ADD SWAP1 POP PUSH2 0xEFA PUSH0 DUP4 ADD DUP5 PUSH2 0xED8 JUMP JUMPDEST SWAP3 SWAP2 POP POP JUMP JUMPDEST PUSH0 DUP2 SWAP1 POP SWAP2 SWAP1 POP JUMP JUMPDEST PUSH0 PUSH2 0xF23 PUSH2 0xF1E PUSH2 0xF19 DUP5 PUSH2 0xEA8 JUMP JUMPDEST PUSH2 0xF00 JUMP JUMPDEST PUSH2 0xEA8 JUMP JUMPDEST SWAP1 POP SWAP2 SWAP1 POP JUMP JUMPDEST PUSH0 PUSH2 0xF34 DUP3 PUSH2 0xF09 JUMP JUMPDEST SWAP1 POP SWAP2 SWAP1 POP JUMP JUMPDEST PUSH0 PUSH2 0xF45 DUP3 PUSH2 0xF2A JUMP JUMPDEST SWAP1 POP SWAP2 SWAP1 POP JUMP JUMPDEST PUSH2 0xF55 DUP2 PUSH2 0xF3B JUMP JUMPDEST DUP3 MSTORE POP POP JUMP JUMPDEST PUSH0 PUSH1 0x20 DUP3 ADD SWAP1 POP PUSH2 0xF6E PUSH0 DUP4 ADD DUP5 PUSH2 0xF4C JUMP JUMPDEST SWAP3 SWAP2 POP POP JUMP JUMPDEST PUSH2 0xF7D DUP2 PUSH2 0xEC7 JUMP JUMPDEST DUP2 EQ PUSH2 0xF87 JUMPI PUSH0 PUSH0 REVERT JUMPDEST POP JUMP JUMPDEST PUSH0 DUP2 CALLDATALOAD SWAP1 POP PUSH2 0xF98 DUP2 PUSH2 0xF74 JUMP JUMPDEST SWAP3 SWAP2 POP POP JUMP JUMPDEST PUSH0 PUSH1 0x20 DUP3 DUP5 SUB SLT ISZERO PUSH2 0xFB3 JUMPI PUSH2 0xFB2 PUSH2 0xD8D JUMP JUMPDEST JUMPDEST PUSH0 PUSH2 0xFC0 DUP5 DUP3 DUP6 ADD PUSH2 0xF8A JUMP JUMPDEST SWAP2 POP POP SWAP3 SWAP2 POP POP JUMP JUMPDEST PUSH0 DUP2 ISZERO ISZERO SWAP1 POP SWAP2 SWAP1 POP JUMP JUMPDEST PUSH2 0xFDD DUP2 PUSH2 0xFC9 JUMP JUMPDEST DUP3 MSTORE POP POP JUMP JUMPDEST PUSH0 PUSH1 0x20 DUP3 ADD SWAP1 POP PUSH2 0xFF6 PUSH0 DUP4 ADD DUP5 PUSH2 0xFD4 JUMP JUMPDEST SWAP3 SWAP2 POP POP JUMP JUMPDEST PUSH0 DUP2 MLOAD SWAP1 POP PUSH2 0x100A DUP2 PUSH2 0xD95 JUMP JUMPDEST SWAP3 SWAP2 POP POP JUMP JUMPDEST PUSH0 PUSH1 0x20 DUP3 DUP5 SUB SLT ISZERO PUSH2 0x1025 JUMPI PUSH2 0x1024 PUSH2 0xD8D JUMP JUMPDEST JUMPDEST PUSH0 PUSH2 0x1032 DUP5 DUP3 DUP6 ADD PUSH2 0xFFC JUMP JUMPDEST SWAP2 POP POP SWAP3 SWAP2 POP POP JUMP JUMPDEST PUSH0 DUP3 DUP3 MSTORE PUSH1 0x20 DUP3 ADD SWAP1 POP SWAP3 SWAP2 POP POP JUMP JUMPDEST PUSH32 0x416D6F756E74206D757374206265203E20300000000000000000000000000000 PUSH0 DUP3 ADD MSTORE POP JUMP JUMPDEST PUSH0 PUSH2 0x107F PUSH1 0x12 DUP4 PUSH2 0x103B JUMP JUMPDEST SWAP2 POP PUSH2 0x108A DUP3 PUSH2 0x104B JUMP JUMPDEST PUSH1 0x20 DUP3 ADD SWAP1 POP SWAP2 SWAP1 POP JUMP JUMPDEST PUSH0 PUSH1 0x20 DUP3 ADD SWAP1 POP DUP2 DUP2 SUB PUSH0 DUP4 ADD MSTORE PUSH2 0x10AC DUP2 PUSH2 0x1073 JUMP JUMPDEST SWAP1 POP SWAP2 SWAP1 POP JUMP JUMPDEST PUSH32 0x416D6F756E742065786365656473206C696D6974202831353030204348482900 PUSH0 DUP3 ADD MSTORE POP JUMP JUMPDEST PUSH0 PUSH2 0x10E7 PUSH1 0x1F DUP4 PUSH2 0x103B JUMP JUMPDEST SWAP2 POP PUSH2 0x10F2 DUP3 PUSH2 0x10B3 JUMP JUMPDEST PUSH1 0x20 DUP3 ADD SWAP1 POP SWAP2 SWAP1 POP JUMP JUMPDEST PUSH0 PUSH1 0x20 DUP3 ADD SWAP1 POP DUP2 DUP2 SUB PUSH0 DUP4 ADD MSTORE PUSH2 0x1114 DUP2 PUSH2 0x10DB JUMP JUMPDEST SWAP1 POP SWAP2 SWAP1 POP JUMP JUMPDEST PUSH32 0x416C726561647920636C61696D656420746F6461792028726573657473206174 PUSH0 DUP3 ADD MSTORE PUSH32 0x2055544320303A30302900000000000000000000000000000000000000000000 PUSH1 0x20 DUP3 ADD MSTORE POP JUMP JUMPDEST PUSH0 PUSH2 0x1175 PUSH1 0x2A DUP4 PUSH2 0x103B JUMP JUMPDEST SWAP2 POP PUSH2 0x1180 DUP3 PUSH2 0x111B JUMP JUMPDEST PUSH1 0x40 DUP3 ADD SWAP1 POP SWAP2 SWAP1 POP JUMP JUMPDEST PUSH0 PUSH1 0x20 DUP3 ADD SWAP1 POP DUP2 DUP2 SUB PUSH0 DUP4 ADD MSTORE PUSH2 0x11A2 DUP2 PUSH2 0x1169 JUMP JUMPDEST SWAP1 POP SWAP2 SWAP1 POP JUMP JUMPDEST PUSH0 DUP2 PUSH1 0x60 SHL SWAP1 POP SWAP2 SWAP1 POP JUMP JUMPDEST PUSH0 PUSH2 0x11BF DUP3 PUSH2 0x11A9 JUMP JUMPDEST SWAP1 POP SWAP2 SWAP1 POP JUMP JUMPDEST PUSH0 PUSH2 0x11D0 DUP3 PUSH2 0x11B5 JUMP JUMPDEST SWAP1 POP SWAP2 SWAP1 POP JUMP JUMPDEST PUSH2 0x11E8 PUSH2 0x11E3 DUP3 PUSH2 0xEC7 JUMP JUMPDEST PUSH2 0x11C6 JUMP JUMPDEST DUP3 MSTORE POP POP JUMP JUMPDEST PUSH0 DUP2 SWAP1 POP SWAP2 SWAP1 POP JUMP JUMPDEST PUSH2 0x1208 PUSH2 0x1203 DUP3 PUSH2 0xD5C JUMP JUMPDEST PUSH2 0x11EE JUMP JUMPDEST DUP3 MSTORE POP POP JUMP JUMPDEST PUSH0 PUSH2 0x1219 DUP3 DUP7 PUSH2 0x11D7 JUMP JUMPDEST PUSH1 0x14 DUP3 ADD SWAP2 POP PUSH2 0x1229 DUP3 DUP6 PUSH2 0x11F7 JUMP JUMPDEST PUSH1 0x20 DUP3 ADD SWAP2 POP PUSH2 0x1239 DUP3 DUP5 PUSH2 0x11D7 JUMP JUMPDEST PUSH1 0x14 DUP3 ADD SWAP2 POP DUP2 SWAP1 POP SWAP5 SWAP4 POP POP POP POP JUMP JUMPDEST PUSH32 0x496E76616C6964207369676E6174757265000000000000000000000000000000 PUSH0 DUP3 ADD MSTORE POP JUMP JUMPDEST PUSH0 PUSH2 0x127E PUSH1 0x11 DUP4 PUSH2 0x103B JUMP JUMPDEST SWAP2 POP PUSH2 0x1289 DUP3 PUSH2 0x124A JUMP JUMPDEST PUSH1 0x20 DUP3 ADD SWAP1 POP SWAP2 SWAP1 POP JUMP JUMPDEST PUSH0 PUSH1 0x20 DUP3 ADD SWAP1 POP DUP2 DUP2 SUB PUSH0 DUP4 ADD MSTORE PUSH2 0x12AB DUP2 PUSH2 0x1272 JUMP JUMPDEST SWAP1 POP SWAP2 SWAP1 POP JUMP JUMPDEST PUSH32 0x436F6E74726163742068617320696E73756666696369656E742062616C616E63 PUSH0 DUP3 ADD MSTORE PUSH32 0x6500000000000000000000000000000000000000000000000000000000000000 PUSH1 0x20 DUP3 ADD MSTORE POP JUMP JUMPDEST PUSH0 PUSH2 0x130C PUSH1 0x21 DUP4 PUSH2 0x103B JUMP JUMPDEST SWAP2 POP PUSH2 0x1317 DUP3 PUSH2 0x12B2 JUMP JUMPDEST PUSH1 0x40 DUP3 ADD SWAP1 POP SWAP2 SWAP1 POP JUMP JUMPDEST PUSH0 PUSH1 0x20 DUP3 ADD SWAP1 POP DUP2 DUP2 SUB PUSH0 DUP4 ADD MSTORE PUSH2 0x1339 DUP2 PUSH2 0x1300 JUMP JUMPDEST SWAP1 POP SWAP2 SWAP1 POP JUMP JUMPDEST PUSH0 PUSH1 0x40 DUP3 ADD SWAP1 POP PUSH2 0x1353 PUSH0 DUP4 ADD DUP6 PUSH2 0xED8 JUMP JUMPDEST PUSH2 0x1360 PUSH1 0x20 DUP4 ADD DUP5 PUSH2 0xD65 JUMP JUMPDEST SWAP4 SWAP3 POP POP POP JUMP JUMPDEST PUSH2 0x1370 DUP2 PUSH2 0xFC9 JUMP JUMPDEST DUP2 EQ PUSH2 0x137A JUMPI PUSH0 PUSH0 REVERT JUMPDEST POP JUMP JUMPDEST PUSH0 DUP2 MLOAD SWAP1 POP PUSH2 0x138B DUP2 PUSH2 0x1367 JUMP JUMPDEST SWAP3 SWAP2 POP POP JUMP JUMPDEST PUSH0 PUSH1 0x20 DUP3 DUP5 SUB SLT ISZERO PUSH2 0x13A6 JUMPI PUSH2 0x13A5 PUSH2 0xD8D JUMP JUMPDEST JUMPDEST PUSH0 PUSH2 0x13B3 DUP5 DUP3 DUP6 ADD PUSH2 0x137D JUMP JUMPDEST SWAP2 POP POP SWAP3 SWAP2 POP POP JUMP JUMPDEST PUSH32 0x546F6B656E207472616E73666572206661696C65640000000000000000000000 PUSH0 DUP3 ADD MSTORE POP JUMP JUMPDEST PUSH0 PUSH2 0x13F0 PUSH1 0x15 DUP4 PUSH2 0x103B JUMP JUMPDEST SWAP2 POP PUSH2 0x13FB DUP3 PUSH2 0x13BC JUMP JUMPDEST PUSH1 0x20 DUP3 ADD SWAP1 POP SWAP2 SWAP1 POP JUMP JUMPDEST PUSH0 PUSH1 0x20 DUP3 ADD SWAP1 POP DUP2 DUP2 SUB PUSH0 DUP4 ADD MSTORE PUSH2 0x141D DUP2 PUSH2 0x13E4 JUMP JUMPDEST SWAP1 POP SWAP2 SWAP1 POP JUMP JUMPDEST PUSH32 0x5472616E73666572206661696C65640000000000000000000000000000000000 PUSH0 DUP3 ADD MSTORE POP JUMP JUMPDEST PUSH0 PUSH2 0x1458 PUSH1 0xF DUP4 PUSH2 0x103B JUMP JUMPDEST SWAP2 POP PUSH2 0x1463 DUP3 PUSH2 0x1424 JUMP JUMPDEST PUSH1 0x20 DUP3 ADD SWAP1 POP SWAP2 SWAP1 POP JUMP JUMPDEST PUSH0 PUSH1 0x20 DUP3 ADD SWAP1 POP DUP2 DUP2 SUB PUSH0 DUP4 ADD MSTORE PUSH2 0x1485 DUP2 PUSH2 0x144C JUMP JUMPDEST SWAP1 POP SWAP2 SWAP1 POP JUMP JUMPDEST PUSH32 0x4E487B7100000000000000000000000000000000000000000000000000000000 PUSH0 MSTORE PUSH1 0x12 PUSH1 0x4 MSTORE PUSH1 0x24 PUSH0 REVERT JUMPDEST PUSH0 PUSH2 0x14C3 DUP3 PUSH2 0xD5C JUMP JUMPDEST SWAP2 POP PUSH2 0x14CE DUP4 PUSH2 0xD5C JUMP JUMPDEST SWAP3 POP DUP3 PUSH2 0x14DE JUMPI PUSH2 0x14DD PUSH2 0x148C JUMP JUMPDEST JUMPDEST DUP3 DUP3 DIV SWAP1 POP SWAP3 SWAP2 POP POP JUMP JUMPDEST PUSH32 0x4E487B7100000000000000000000000000000000000000000000000000000000 PUSH0 MSTORE PUSH1 0x21 PUSH1 0x4 MSTORE PUSH1 0x24 PUSH0 REVERT JUMPDEST PUSH0 DUP2 SWAP1 POP SWAP2 SWAP1 POP JUMP JUMPDEST PUSH2 0x1528 DUP2 PUSH2 0x1516 JUMP JUMPDEST DUP3 MSTORE POP POP JUMP JUMPDEST PUSH0 PUSH1 0x20 DUP3 ADD SWAP1 POP PUSH2 0x1541 PUSH0 DUP4 ADD DUP5 PUSH2 0x151F JUMP JUMPDEST SWAP3 SWAP2 POP POP JUMP JUMPDEST PUSH0 PUSH1 0xFF DUP3 AND SWAP1 POP SWAP2 SWAP1 POP JUMP JUMPDEST PUSH2 0x155C DUP2 PUSH2 0x1547 JUMP JUMPDEST DUP3 MSTORE POP POP JUMP JUMPDEST PUSH0 PUSH1 0x80 DUP3 ADD SWAP1 POP PUSH2 0x1575 PUSH0 DUP4 ADD DUP8 PUSH2 0x151F JUMP JUMPDEST PUSH2 0x1582 PUSH1 0x20 DUP4 ADD DUP7 PUSH2 0x1553 JUMP JUMPDEST PUSH2 0x158F PUSH1 0x40 DUP4 ADD DUP6 PUSH2 0x151F JUMP JUMPDEST PUSH2 0x159C PUSH1 0x60 DUP4 ADD DUP5 PUSH2 0x151F JUMP JUMPDEST SWAP6 SWAP5 POP POP POP POP POP JUMP INVALID LOG2 PUSH5 0x6970667358 0x22 SLT KECCAK256 PUSH0 PUSH29 0x7695B94FB9B14921FEB350841E31486FEF2FE14B3970036980BDDEF9DE 0xD8 PUSH5 0x736F6C6343 STOP ADDMOD 0x1F STOP CALLER "
				},
				"gasEstimates": {
					"creation": {
						"codeDepositCost": "1119000",
						"executionCost": "infinite",
						"totalCost": "infinite"
					},
					"external": {
						"checkDailyLimit(address)": "infinite",
						"chhToken()": "infinite",
						"claim(uint256,bytes)": "infinite",
						"getRemainingBalance()": "infinite",
						"lastClaimTime(address)": "2868",
						"owner()": "2536",
						"renounceOwnership()": "infinite",
						"signerAddress()": "440",
						"transferOwnership(address)": "infinite",
						"withdrawToken(uint256)": "infinite"
					}
				},
				"methodIdentifiers": {
					"checkDailyLimit(address)": "9c6b85bb",
					"chhToken()": "8455d8d5",
					"claim(uint256,bytes)": "38926b6d",
					"getRemainingBalance()": "2fba2c85",
					"lastClaimTime(address)": "b77cf9c6",
					"owner()": "8da5cb5b",
					"renounceOwnership()": "715018a6",
					"signerAddress()": "5b7633d0",
					"transferOwnership(address)": "f2fde38b",
					"withdrawToken(uint256)": "50baa622"
				}
			},
			"storageLayout": {
				"storage": [
					{
						"astId": 8,
						"contract": "Script/ReversiDailyBonus.sol:ReversiPopClaim",
						"label": "_owner",
						"offset": 0,
						"slot": "0",
						"type": "t_address"
					},
					{
						"astId": 5694,
						"contract": "Script/ReversiDailyBonus.sol:ReversiPopClaim",
						"label": "lastClaimTime",
						"offset": 0,
						"slot": "1",
						"type": "t_mapping(t_address,t_uint256)"
					}
				],
				"types": {
					"t_address": {
						"encoding": "inplace",
						"label": "address",
						"numberOfBytes": "20"
					},
					"t_mapping(t_address,t_uint256)": {
						"encoding": "mapping",
						"key": "t_address",
						"label": "mapping(address => uint256)",
						"numberOfBytes": "32",
						"value": "t_uint256"
					},
					"t_uint256": {
						"encoding": "inplace",
						"label": "uint256",
						"numberOfBytes": "32"
					}
				}
			},
			"userdoc": {
				"kind": "user",
				"methods": {},
				"version": 1
			}
		}
	}
}