{
	"Script/MiningQuestShop.sol": {
		"ItemShop": {
			"abi": [
				{
					"inputs": [
						{
							"internalType": "address",
							"name": "_chhToken",
							"type": "address"
						},
						{
							"internalType": "address",
							"name": "_treasury",
							"type": "address"
						}
					],
					"stateMutability": "nonpayable",
					"type": "constructor"
				},
				{
					"inputs": [
						{
							"internalType": "address",
							"name": "owner",
							"type": "address"
						}
					],
					"name": "OwnableInvalidOwner",
					"type": "error"
				},
				{
					"inputs": [
						{
							"internalType": "address",
							"name": "account",
							"type": "address"
						}
					],
					"name": "OwnableUnauthorizedAccount",
					"type": "error"
				},
				{
					"inputs": [],
					"name": "ReentrancyGuardReentrantCall",
					"type": "error"
				},
				{
					"inputs": [
						{
							"internalType": "address",
							"name": "token",
							"type": "address"
						}
					],
					"name": "SafeERC20FailedOperation",
					"type": "error"
				},
				{
					"anonymous": false,
					"inputs": [
						{
							"indexed": true,
							"internalType": "address",
							"name": "buyer",
							"type": "address"
						},
						{
							"indexed": false,
							"internalType": "uint256",
							"name": "potionAmount",
							"type": "uint256"
						},
						{
							"indexed": false,
							"internalType": "uint256",
							"name": "elixirAmount",
							"type": "uint256"
						},
						{
							"indexed": false,
							"internalType": "uint256",
							"name": "whetstoneAmount",
							"type": "uint256"
						},
						{
							"indexed": false,
							"internalType": "uint256",
							"name": "totalCost",
							"type": "uint256"
						}
					],
					"name": "ItemsPurchased",
					"type": "event"
				},
				{
					"anonymous": false,
					"inputs": [
						{
							"indexed": true,
							"internalType": "address",
							"name": "previousOwner",
							"type": "address"
						},
						{
							"indexed": true,
							"internalType": "address",
							"name": "newOwner",
							"type": "address"
						}
					],
					"name": "OwnershipTransferred",
					"type": "event"
				},
				{
					"anonymous": false,
					"inputs": [
						{
							"indexed": false,
							"internalType": "uint256",
							"name": "newPotionPrice",
							"type": "uint256"
						},
						{
							"indexed": false,
							"internalType": "uint256",
							"name": "newElixirPrice",
							"type": "uint256"
						},
						{
							"indexed": false,
							"internalType": "uint256",
							"name": "newWhetstonePrice",
							"type": "uint256"
						}
					],
					"name": "PricesUpdated",
					"type": "event"
				},
				{
					"anonymous": false,
					"inputs": [
						{
							"indexed": false,
							"internalType": "address",
							"name": "newTreasury",
							"type": "address"
						}
					],
					"name": "TreasuryUpdated",
					"type": "event"
				},
				{
					"inputs": [
						{
							"internalType": "uint256",
							"name": "potionAmount",
							"type": "uint256"
						},
						{
							"internalType": "uint256",
							"name": "elixirAmount",
							"type": "uint256"
						},
						{
							"internalType": "uint256",
							"name": "whetstoneAmount",
							"type": "uint256"
						}
					],
					"name": "buyItems",
					"outputs": [],
					"stateMutability": "nonpayable",
					"type": "function"
				},
				{
					"inputs": [],
					"name": "chhToken",
					"outputs": [
						{
							"internalType": "contract IERC20",
							"name": "",
							"type": "address"
						}
					],
					"stateMutability": "view",
					"type": "function"
				},
				{
					"inputs": [],
					"name": "elixirPrice",
					"outputs": [
						{
							"internalType": "uint256",
							"name": "",
							"type": "uint256"
						}
					],
					"stateMutability": "view",
					"type": "function"
				},
				{
					"inputs": [],
					"name": "owner",
					"outputs": [
						{
							"internalType": "address",
							"name": "",
							"type": "address"
						}
					],
					"stateMutability": "view",
					"type": "function"
				},
				{
					"inputs": [],
					"name": "potionPrice",
					"outputs": [
						{
							"internalType": "uint256",
							"name": "",
							"type": "uint256"
						}
					],
					"stateMutability": "view",
					"type": "function"
				},
				{
					"inputs": [],
					"name": "renounceOwnership",
					"outputs": [],
					"stateMutability": "nonpayable",
					"type": "function"
				},
				{
					"inputs": [
						{
							"internalType": "uint256",
							"name": "_potionPrice",
							"type": "uint256"
						},
						{
							"internalType": "uint256",
							"name": "_elixirPrice",
							"type": "uint256"
						},
						{
							"internalType": "uint256",
							"name": "_whetstonePrice",
							"type": "uint256"
						}
					],
					"name": "setPrices",
					"outputs": [],
					"stateMutability": "nonpayable",
					"type": "function"
				},
				{
					"inputs": [
						{
							"internalType": "address",
							"name": "_treasury",
							"type": "address"
						}
					],
					"name": "setTreasury",
					"outputs": [],
					"stateMutability": "nonpayable",
					"type": "function"
				},
				{
					"inputs": [
						{
							"internalType": "address",
							"name": "newOwner",
							"type": "address"
						}
					],
					"name": "transferOwnership",
					"outputs": [],
					"stateMutability": "nonpayable",
					"type": "function"
				},
				{
					"inputs": [],
					"name": "treasury",
					"outputs": [
						{
							"internalType": "address",
							"name": "",
							"type": "address"
						}
					],
					"stateMutability": "view",
					"type": "function"
				},
				{
					"inputs": [],
					"name": "whetstonePrice",
					"outputs": [
						{
							"internalType": "uint256",
							"name": "",
							"type": "uint256"
						}
					],
					"stateMutability": "view",
					"type": "function"
				}
			],
			"devdoc": {
				"details": "ERC20トークン($CHH)を使用してゲーム内アイテムを購入するためのコントラクト",
				"errors": {
					"OwnableInvalidOwner(address)": [
						{
							"details": "The owner is not a valid owner account. (eg. `address(0)`)"
						}
					],
					"OwnableUnauthorizedAccount(address)": [
						{
							"details": "The caller account is not authorized to perform an operation."
						}
					],
					"ReentrancyGuardReentrantCall()": [
						{
							"details": "Unauthorized reentrant call."
						}
					],
					"SafeERC20FailedOperation(address)": [
						{
							"details": "An operation with an ERC-20 token failed."
						}
					]
				},
				"kind": "dev",
				"methods": {
					"buyItems(uint256,uint256,uint256)": {
						"details": "アイテムを購入する関数",
						"params": {
							"elixirAmount": "購入するエリクサーの数",
							"potionAmount": "購入するポーションの数",
							"whetstoneAmount": "購入する砥石の数 (追加)"
						}
					},
					"owner()": {
						"details": "Returns the address of the current owner."
					},
					"renounceOwnership()": {
						"details": "Leaves the contract without owner. It will not be possible to call `onlyOwner` functions. Can only be called by the current owner. NOTE: Renouncing ownership will leave the contract without an owner, thereby disabling any functionality that is only available to the owner."
					},
					"setPrices(uint256,uint256,uint256)": {
						"details": "アイテムの価格を更新する関数"
					},
					"transferOwnership(address)": {
						"details": "Transfers ownership of the contract to a new account (`newOwner`). Can only be called by the current owner."
					}
				},
				"title": "ItemShop",
				"version": 1
			},
			"evm": {
				"assembly": "    /* \"Script/MiningQuestShop.sol\":447:3248  contract ItemShop is Ownable, ReentrancyGuard {... */\n  mstore(0x40, 0x80)\n    /* \"Script/MiningQuestShop.sol\":789:801  100 * 10**18 */\n  0x056bc75e2d63100000\n    /* \"Script/MiningQuestShop.sol\":760:801  uint256 public potionPrice = 100 * 10**18 */\n  0x04\n  sstore\n    /* \"Script/MiningQuestShop.sol\":852:864  500 * 10**18 */\n  0x1b1ae4d6e2ef500000\n    /* \"Script/MiningQuestShop.sol\":823:864  uint256 public elixirPrice = 500 * 10**18 */\n  0x05\n  sstore\n    /* \"Script/MiningQuestShop.sol\":918:930  100 * 10**18 */\n  0x056bc75e2d63100000\n    /* \"Script/MiningQuestShop.sol\":886:930  uint256 public whetstonePrice = 100 * 10**18 */\n  0x06\n  sstore\n    /* \"Script/MiningQuestShop.sol\":1353:1640  constructor(address _chhToken, address _treasury) Ownable(msg.sender) {... */\n  callvalue\n  dup1\n  iszero\n  tag_1\n  jumpi\n  revert(0x00, 0x00)\ntag_1:\n  pop\n  mload(0x40)\n  sub(codesize, bytecodeSize)\n  dup1\n  bytecodeSize\n  dup4\n  codecopy\n  dup2\n  dup2\n  add\n  0x40\n  mstore\n  dup2\n  add\n  swap1\n  tag_2\n  swap2\n  swap1\n  tag_3\n  jump\t// in\ntag_2:\n    /* \"Script/MiningQuestShop.sol\":1411:1421  msg.sender */\n  caller\n    /* \"@openzeppelin/contracts/access/Ownable.sol\":1297:1298  0 */\n  0x00\n    /* \"@openzeppelin/contracts/access/Ownable.sol\":1273:1299  initialOwner == address(0) */\n  0xffffffffffffffffffffffffffffffffffffffff\n  and\n    /* \"@openzeppelin/contracts/access/Ownable.sol\":1273:1285  initialOwner */\n  dup2\n    /* \"@openzeppelin/contracts/access/Ownable.sol\":1273:1299  initialOwner == address(0) */\n  0xffffffffffffffffffffffffffffffffffffffff\n  and\n  sub\n    /* \"@openzeppelin/contracts/access/Ownable.sol\":1269:1364  if (initialOwner == address(0)) {... */\n  tag_8\n  jumpi\n    /* \"@openzeppelin/contracts/access/Ownable.sol\":1350:1351  0 */\n  0x00\n    /* \"@openzeppelin/contracts/access/Ownable.sol\":1322:1353  OwnableInvalidOwner(address(0)) */\n  mload(0x40)\n  0x1e4fbdf700000000000000000000000000000000000000000000000000000000\n  dup2\n  mstore\n  0x04\n  add\n  tag_9\n  swap2\n  swap1\n  tag_10\n  jump\t// in\ntag_9:\n  mload(0x40)\n  dup1\n  swap2\n  sub\n  swap1\n  revert\n    /* \"@openzeppelin/contracts/access/Ownable.sol\":1269:1364  if (initialOwner == address(0)) {... */\ntag_8:\n    /* \"@openzeppelin/contracts/access/Ownable.sol\":1373:1405  _transferOwnership(initialOwner) */\n  tag_11\n    /* \"@openzeppelin/contracts/access/Ownable.sol\":1392:1404  initialOwner */\n  dup2\n    /* \"@openzeppelin/contracts/access/Ownable.sol\":1373:1391  _transferOwnership */\n  shl(0x20, tag_12)\n    /* \"@openzeppelin/contracts/access/Ownable.sol\":1373:1405  _transferOwnership(initialOwner) */\n  0x20\n  shr\n  jump\t// in\ntag_11:\n    /* \"@openzeppelin/contracts/access/Ownable.sol\":1225:1412  constructor(address initialOwner) {... */\n  pop\n    /* \"@openzeppelin/contracts/utils/ReentrancyGuard.sol\":1857:1858  1 */\n  0x01\n    /* \"@openzeppelin/contracts/utils/ReentrancyGuard.sol\":2061:2068  _status */\n  dup1\n    /* \"@openzeppelin/contracts/utils/ReentrancyGuard.sol\":2061:2082  _status = NOT_ENTERED */\n  dup2\n  swap1\n  sstore\n  pop\n    /* \"Script/MiningQuestShop.sol\":1463:1464  0 */\n  0x00\n    /* \"Script/MiningQuestShop.sol\":1442:1465  _chhToken != address(0) */\n  0xffffffffffffffffffffffffffffffffffffffff\n  and\n    /* \"Script/MiningQuestShop.sol\":1442:1451  _chhToken */\n  dup3\n    /* \"Script/MiningQuestShop.sol\":1442:1465  _chhToken != address(0) */\n  0xffffffffffffffffffffffffffffffffffffffff\n  and\n  sub\n    /* \"Script/MiningQuestShop.sol\":1434:1491  require(_chhToken != address(0), \"Invalid token address\") */\n  tag_15\n  jumpi\n  mload(0x40)\n  0x08c379a000000000000000000000000000000000000000000000000000000000\n  dup2\n  mstore\n  0x04\n  add\n  tag_16\n  swap1\n  tag_17\n  jump\t// in\ntag_16:\n  mload(0x40)\n  dup1\n  swap2\n  sub\n  swap1\n  revert\ntag_15:\n    /* \"Script/MiningQuestShop.sol\":1531:1532  0 */\n  0x00\n    /* \"Script/MiningQuestShop.sol\":1510:1533  _treasury != address(0) */\n  0xffffffffffffffffffffffffffffffffffffffff\n  and\n    /* \"Script/MiningQuestShop.sol\":1510:1519  _treasury */\n  dup2\n    /* \"Script/MiningQuestShop.sol\":1510:1533  _treasury != address(0) */\n  0xffffffffffffffffffffffffffffffffffffffff\n  and\n  sub\n    /* \"Script/MiningQuestShop.sol\":1502:1562  require(_treasury != address(0), \"Invalid treasury address\") */\n  tag_18\n  jumpi\n  mload(0x40)\n  0x08c379a000000000000000000000000000000000000000000000000000000000\n  dup2\n  mstore\n  0x04\n  add\n  tag_19\n  swap1\n  tag_20\n  jump\t// in\ntag_19:\n  mload(0x40)\n  dup1\n  swap2\n  sub\n  swap1\n  revert\ntag_18:\n    /* \"Script/MiningQuestShop.sol\":1591:1600  _chhToken */\n  dup2\n    /* \"Script/MiningQuestShop.sol\":1573:1581  chhToken */\n  0x02\n  0x00\n    /* \"Script/MiningQuestShop.sol\":1573:1601  chhToken = IERC20(_chhToken) */\n  0x0100\n  exp\n  dup2\n  sload\n  dup2\n  0xffffffffffffffffffffffffffffffffffffffff\n  mul\n  not\n  and\n  swap1\n  dup4\n  0xffffffffffffffffffffffffffffffffffffffff\n  and\n  mul\n  or\n  swap1\n  sstore\n  pop\n    /* \"Script/MiningQuestShop.sol\":1623:1632  _treasury */\n  dup1\n    /* \"Script/MiningQuestShop.sol\":1612:1620  treasury */\n  0x03\n  0x00\n    /* \"Script/MiningQuestShop.sol\":1612:1632  treasury = _treasury */\n  0x0100\n  exp\n  dup2\n  sload\n  dup2\n  0xffffffffffffffffffffffffffffffffffffffff\n  mul\n  not\n  and\n  swap1\n  dup4\n  0xffffffffffffffffffffffffffffffffffffffff\n  and\n  mul\n  or\n  swap1\n  sstore\n  pop\n    /* \"Script/MiningQuestShop.sol\":1353:1640  constructor(address _chhToken, address _treasury) Ownable(msg.sender) {... */\n  pop\n  pop\n    /* \"Script/MiningQuestShop.sol\":447:3248  contract ItemShop is Ownable, ReentrancyGuard {... */\n  jump(tag_21)\n    /* \"@openzeppelin/contracts/access/Ownable.sol\":2912:3099  function _transferOwnership(address newOwner) internal virtual {... */\ntag_12:\n    /* \"@openzeppelin/contracts/access/Ownable.sol\":2985:3001  address oldOwner */\n  0x00\n    /* \"@openzeppelin/contracts/access/Ownable.sol\":3004:3010  _owner */\n  0x00\n  0x00\n  swap1\n  sload\n  swap1\n  0x0100\n  exp\n  swap1\n  div\n  0xffffffffffffffffffffffffffffffffffffffff\n  and\n    /* \"@openzeppelin/contracts/access/Ownable.sol\":2985:3010  address oldOwner = _owner */\n  swap1\n  pop\n    /* \"@openzeppelin/contracts/access/Ownable.sol\":3029:3037  newOwner */\n  dup2\n    /* \"@openzeppelin/contracts/access/Ownable.sol\":3020:3026  _owner */\n  0x00\n  0x00\n    /* \"@openzeppelin/contracts/access/Ownable.sol\":3020:3037  _owner = newOwner */\n  0x0100\n  exp\n  dup2\n  sload\n  dup2\n  0xffffffffffffffffffffffffffffffffffffffff\n  mul\n  not\n  and\n  swap1\n  dup4\n  0xffffffffffffffffffffffffffffffffffffffff\n  and\n  mul\n  or\n  swap1\n  sstore\n  pop\n    /* \"@openzeppelin/contracts/access/Ownable.sol\":3083:3091  newOwner */\n  dup2\n    /* \"@openzeppelin/contracts/access/Ownable.sol\":3052:3092  OwnershipTransferred(oldOwner, newOwner) */\n  0xffffffffffffffffffffffffffffffffffffffff\n  and\n    /* \"@openzeppelin/contracts/access/Ownable.sol\":3073:3081  oldOwner */\n  dup2\n    /* \"@openzeppelin/contracts/access/Ownable.sol\":3052:3092  OwnershipTransferred(oldOwner, newOwner) */\n  0xffffffffffffffffffffffffffffffffffffffff\n  and\n  0x8be0079c531659141344cd1fd0a4f28419497f9722a3daafe3b4186f6b6457e0\n  mload(0x40)\n  mload(0x40)\n  dup1\n  swap2\n  sub\n  swap1\n  log3\n    /* \"@openzeppelin/contracts/access/Ownable.sol\":2975:3099  {... */\n  pop\n    /* \"@openzeppelin/contracts/access/Ownable.sol\":2912:3099  function _transferOwnership(address newOwner) internal virtual {... */\n  pop\n  jump\t// out\n    /* \"#utility.yul\":88:205   */\ntag_24:\n    /* \"#utility.yul\":197:198   */\n  0x00\n    /* \"#utility.yul\":194:195   */\n  0x00\n    /* \"#utility.yul\":187:199   */\n  revert\n    /* \"#utility.yul\":334:460   */\ntag_26:\n    /* \"#utility.yul\":371:378   */\n  0x00\n    /* \"#utility.yul\":411:453   */\n  0xffffffffffffffffffffffffffffffffffffffff\n    /* \"#utility.yul\":404:409   */\n  dup3\n    /* \"#utility.yul\":400:454   */\n  and\n    /* \"#utility.yul\":389:454   */\n  swap1\n  pop\n    /* \"#utility.yul\":334:460   */\n  swap2\n  swap1\n  pop\n  jump\t// out\n    /* \"#utility.yul\":466:562   */\ntag_27:\n    /* \"#utility.yul\":503:510   */\n  0x00\n    /* \"#utility.yul\":532:556   */\n  tag_42\n    /* \"#utility.yul\":550:555   */\n  dup3\n    /* \"#utility.yul\":532:556   */\n  tag_26\n  jump\t// in\ntag_42:\n    /* \"#utility.yul\":521:556   */\n  swap1\n  pop\n    /* \"#utility.yul\":466:562   */\n  swap2\n  swap1\n  pop\n  jump\t// out\n    /* \"#utility.yul\":568:690   */\ntag_28:\n    /* \"#utility.yul\":641:665   */\n  tag_44\n    /* \"#utility.yul\":659:664   */\n  dup2\n    /* \"#utility.yul\":641:665   */\n  tag_27\n  jump\t// in\ntag_44:\n    /* \"#utility.yul\":634:639   */\n  dup2\n    /* \"#utility.yul\":631:666   */\n  eq\n    /* \"#utility.yul\":621:684   */\n  tag_45\n  jumpi\n    /* \"#utility.yul\":680:681   */\n  0x00\n    /* \"#utility.yul\":677:678   */\n  0x00\n    /* \"#utility.yul\":670:682   */\n  revert\n    /* \"#utility.yul\":621:684   */\ntag_45:\n    /* \"#utility.yul\":568:690   */\n  pop\n  jump\t// out\n    /* \"#utility.yul\":696:839   */\ntag_29:\n    /* \"#utility.yul\":753:758   */\n  0x00\n    /* \"#utility.yul\":784:790   */\n  dup2\n    /* \"#utility.yul\":778:791   */\n  mload\n    /* \"#utility.yul\":769:791   */\n  swap1\n  pop\n    /* \"#utility.yul\":800:833   */\n  tag_47\n    /* \"#utility.yul\":827:832   */\n  dup2\n    /* \"#utility.yul\":800:833   */\n  tag_28\n  jump\t// in\ntag_47:\n    /* \"#utility.yul\":696:839   */\n  swap3\n  swap2\n  pop\n  pop\n  jump\t// out\n    /* \"#utility.yul\":845:1352   */\ntag_3:\n    /* \"#utility.yul\":924:930   */\n  0x00\n    /* \"#utility.yul\":932:938   */\n  0x00\n    /* \"#utility.yul\":981:983   */\n  0x40\n    /* \"#utility.yul\":969:978   */\n  dup4\n    /* \"#utility.yul\":960:967   */\n  dup6\n    /* \"#utility.yul\":956:979   */\n  sub\n    /* \"#utility.yul\":952:984   */\n  slt\n    /* \"#utility.yul\":949:1068   */\n  iszero\n  tag_49\n  jumpi\n    /* \"#utility.yul\":987:1066   */\n  tag_50\n  tag_24\n  jump\t// in\ntag_50:\n    /* \"#utility.yul\":949:1068   */\ntag_49:\n    /* \"#utility.yul\":1107:1108   */\n  0x00\n    /* \"#utility.yul\":1132:1196   */\n  tag_51\n    /* \"#utility.yul\":1188:1195   */\n  dup6\n    /* \"#utility.yul\":1179:1185   */\n  dup3\n    /* \"#utility.yul\":1168:1177   */\n  dup7\n    /* \"#utility.yul\":1164:1186   */\n  add\n    /* \"#utility.yul\":1132:1196   */\n  tag_29\n  jump\t// in\ntag_51:\n    /* \"#utility.yul\":1122:1196   */\n  swap3\n  pop\n    /* \"#utility.yul\":1078:1206   */\n  pop\n    /* \"#utility.yul\":1245:1247   */\n  0x20\n    /* \"#utility.yul\":1271:1335   */\n  tag_52\n    /* \"#utility.yul\":1327:1334   */\n  dup6\n    /* \"#utility.yul\":1318:1324   */\n  dup3\n    /* \"#utility.yul\":1307:1316   */\n  dup7\n    /* \"#utility.yul\":1303:1325   */\n  add\n    /* \"#utility.yul\":1271:1335   */\n  tag_29\n  jump\t// in\ntag_52:\n    /* \"#utility.yul\":1261:1335   */\n  swap2\n  pop\n    /* \"#utility.yul\":1216:1345   */\n  pop\n    /* \"#utility.yul\":845:1352   */\n  swap3\n  pop\n  swap3\n  swap1\n  pop\n  jump\t// out\n    /* \"#utility.yul\":1358:1476   */\ntag_30:\n    /* \"#utility.yul\":1445:1469   */\n  tag_54\n    /* \"#utility.yul\":1463:1468   */\n  dup2\n    /* \"#utility.yul\":1445:1469   */\n  tag_27\n  jump\t// in\ntag_54:\n    /* \"#utility.yul\":1440:1443   */\n  dup3\n    /* \"#utility.yul\":1433:1470   */\n  mstore\n    /* \"#utility.yul\":1358:1476   */\n  pop\n  pop\n  jump\t// out\n    /* \"#utility.yul\":1482:1704   */\ntag_10:\n    /* \"#utility.yul\":1575:1579   */\n  0x00\n    /* \"#utility.yul\":1613:1615   */\n  0x20\n    /* \"#utility.yul\":1602:1611   */\n  dup3\n    /* \"#utility.yul\":1598:1616   */\n  add\n    /* \"#utility.yul\":1590:1616   */\n  swap1\n  pop\n    /* \"#utility.yul\":1626:1697   */\n  tag_56\n    /* \"#utility.yul\":1694:1695   */\n  0x00\n    /* \"#utility.yul\":1683:1692   */\n  dup4\n    /* \"#utility.yul\":1679:1696   */\n  add\n    /* \"#utility.yul\":1670:1676   */\n  dup5\n    /* \"#utility.yul\":1626:1697   */\n  tag_30\n  jump\t// in\ntag_56:\n    /* \"#utility.yul\":1482:1704   */\n  swap3\n  swap2\n  pop\n  pop\n  jump\t// out\n    /* \"#utility.yul\":1710:1879   */\ntag_31:\n    /* \"#utility.yul\":1794:1805   */\n  0x00\n    /* \"#utility.yul\":1828:1834   */\n  dup3\n    /* \"#utility.yul\":1823:1826   */\n  dup3\n    /* \"#utility.yul\":1816:1835   */\n  mstore\n    /* \"#utility.yul\":1868:1872   */\n  0x20\n    /* \"#utility.yul\":1863:1866   */\n  dup3\n    /* \"#utility.yul\":1859:1873   */\n  add\n    /* \"#utility.yul\":1844:1873   */\n  swap1\n  pop\n    /* \"#utility.yul\":1710:1879   */\n  swap3\n  swap2\n  pop\n  pop\n  jump\t// out\n    /* \"#utility.yul\":1885:2056   */\ntag_32:\n    /* \"#utility.yul\":2025:2048   */\n  0x496e76616c696420746f6b656e20616464726573730000000000000000000000\n    /* \"#utility.yul\":2021:2022   */\n  0x00\n    /* \"#utility.yul\":2013:2019   */\n  dup3\n    /* \"#utility.yul\":2009:2023   */\n  add\n    /* \"#utility.yul\":2002:2049   */\n  mstore\n    /* \"#utility.yul\":1885:2056   */\n  pop\n  jump\t// out\n    /* \"#utility.yul\":2062:2428   */\ntag_33:\n    /* \"#utility.yul\":2204:2207   */\n  0x00\n    /* \"#utility.yul\":2225:2292   */\n  tag_60\n    /* \"#utility.yul\":2289:2291   */\n  0x15\n    /* \"#utility.yul\":2284:2287   */\n  dup4\n    /* \"#utility.yul\":2225:2292   */\n  tag_31\n  jump\t// in\ntag_60:\n    /* \"#utility.yul\":2218:2292   */\n  swap2\n  pop\n    /* \"#utility.yul\":2301:2394   */\n  tag_61\n    /* \"#utility.yul\":2390:2393   */\n  dup3\n    /* \"#utility.yul\":2301:2394   */\n  tag_32\n  jump\t// in\ntag_61:\n    /* \"#utility.yul\":2419:2421   */\n  0x20\n    /* \"#utility.yul\":2414:2417   */\n  dup3\n    /* \"#utility.yul\":2410:2422   */\n  add\n    /* \"#utility.yul\":2403:2422   */\n  swap1\n  pop\n    /* \"#utility.yul\":2062:2428   */\n  swap2\n  swap1\n  pop\n  jump\t// out\n    /* \"#utility.yul\":2434:2853   */\ntag_17:\n    /* \"#utility.yul\":2600:2604   */\n  0x00\n    /* \"#utility.yul\":2638:2640   */\n  0x20\n    /* \"#utility.yul\":2627:2636   */\n  dup3\n    /* \"#utility.yul\":2623:2641   */\n  add\n    /* \"#utility.yul\":2615:2641   */\n  swap1\n  pop\n    /* \"#utility.yul\":2687:2696   */\n  dup2\n    /* \"#utility.yul\":2681:2685   */\n  dup2\n    /* \"#utility.yul\":2677:2697   */\n  sub\n    /* \"#utility.yul\":2673:2674   */\n  0x00\n    /* \"#utility.yul\":2662:2671   */\n  dup4\n    /* \"#utility.yul\":2658:2675   */\n  add\n    /* \"#utility.yul\":2651:2698   */\n  mstore\n    /* \"#utility.yul\":2715:2846   */\n  tag_63\n    /* \"#utility.yul\":2841:2845   */\n  dup2\n    /* \"#utility.yul\":2715:2846   */\n  tag_33\n  jump\t// in\ntag_63:\n    /* \"#utility.yul\":2707:2846   */\n  swap1\n  pop\n    /* \"#utility.yul\":2434:2853   */\n  swap2\n  swap1\n  pop\n  jump\t// out\n    /* \"#utility.yul\":2859:3033   */\ntag_34:\n    /* \"#utility.yul\":2999:3025   */\n  0x496e76616c696420747265617375727920616464726573730000000000000000\n    /* \"#utility.yul\":2995:2996   */\n  0x00\n    /* \"#utility.yul\":2987:2993   */\n  dup3\n    /* \"#utility.yul\":2983:2997   */\n  add\n    /* \"#utility.yul\":2976:3026   */\n  mstore\n    /* \"#utility.yul\":2859:3033   */\n  pop\n  jump\t// out\n    /* \"#utility.yul\":3039:3405   */\ntag_35:\n    /* \"#utility.yul\":3181:3184   */\n  0x00\n    /* \"#utility.yul\":3202:3269   */\n  tag_66\n    /* \"#utility.yul\":3266:3268   */\n  0x18\n    /* \"#utility.yul\":3261:3264   */\n  dup4\n    /* \"#utility.yul\":3202:3269   */\n  tag_31\n  jump\t// in\ntag_66:\n    /* \"#utility.yul\":3195:3269   */\n  swap2\n  pop\n    /* \"#utility.yul\":3278:3371   */\n  tag_67\n    /* \"#utility.yul\":3367:3370   */\n  dup3\n    /* \"#utility.yul\":3278:3371   */\n  tag_34\n  jump\t// in\ntag_67:\n    /* \"#utility.yul\":3396:3398   */\n  0x20\n    /* \"#utility.yul\":3391:3394   */\n  dup3\n    /* \"#utility.yul\":3387:3399   */\n  add\n    /* \"#utility.yul\":3380:3399   */\n  swap1\n  pop\n    /* \"#utility.yul\":3039:3405   */\n  swap2\n  swap1\n  pop\n  jump\t// out\n    /* \"#utility.yul\":3411:3830   */\ntag_20:\n    /* \"#utility.yul\":3577:3581   */\n  0x00\n    /* \"#utility.yul\":3615:3617   */\n  0x20\n    /* \"#utility.yul\":3604:3613   */\n  dup3\n    /* \"#utility.yul\":3600:3618   */\n  add\n    /* \"#utility.yul\":3592:3618   */\n  swap1\n  pop\n    /* \"#utility.yul\":3664:3673   */\n  dup2\n    /* \"#utility.yul\":3658:3662   */\n  dup2\n    /* \"#utility.yul\":3654:3674   */\n  sub\n    /* \"#utility.yul\":3650:3651   */\n  0x00\n    /* \"#utility.yul\":3639:3648   */\n  dup4\n    /* \"#utility.yul\":3635:3652   */\n  add\n    /* \"#utility.yul\":3628:3675   */\n  mstore\n    /* \"#utility.yul\":3692:3823   */\n  tag_69\n    /* \"#utility.yul\":3818:3822   */\n  dup2\n    /* \"#utility.yul\":3692:3823   */\n  tag_35\n  jump\t// in\ntag_69:\n    /* \"#utility.yul\":3684:3823   */\n  swap1\n  pop\n    /* \"#utility.yul\":3411:3830   */\n  swap2\n  swap1\n  pop\n  jump\t// out\n    /* \"Script/MiningQuestShop.sol\":447:3248  contract ItemShop is Ownable, ReentrancyGuard {... */\ntag_21:\n  dataSize(sub_0)\n  dup1\n  dataOffset(sub_0)\n  0x00\n  codecopy\n  0x00\n  return\nstop\n\nsub_0: assembly {\n        /* \"Script/MiningQuestShop.sol\":447:3248  contract ItemShop is Ownable, ReentrancyGuard {... */\n      mstore(0x40, 0x80)\n      callvalue\n      dup1\n      iszero\n      tag_1\n      jumpi\n      revert(0x00, 0x00)\n    tag_1:\n      pop\n      jumpi(tag_2, lt(calldatasize, 0x04))\n      shr(0xe0, calldataload(0x00))\n      dup1\n      0x8da5cb5b\n      gt\n      tag_14\n      jumpi\n      dup1\n      0x8da5cb5b\n      eq\n      tag_8\n      jumpi\n      dup1\n      0xa615bf57\n      eq\n      tag_9\n      jumpi\n      dup1\n      0xa88fe42d\n      eq\n      tag_10\n      jumpi\n      dup1\n      0xac6510be\n      eq\n      tag_11\n      jumpi\n      dup1\n      0xf0f44260\n      eq\n      tag_12\n      jumpi\n      dup1\n      0xf2fde38b\n      eq\n      tag_13\n      jumpi\n      jump(tag_2)\n    tag_14:\n      dup1\n      0x08672099\n      eq\n      tag_3\n      jumpi\n      dup1\n      0x0abc747c\n      eq\n      tag_4\n      jumpi\n      dup1\n      0x61d027b3\n      eq\n      tag_5\n      jumpi\n      dup1\n      0x715018a6\n      eq\n      tag_6\n      jumpi\n      dup1\n      0x8455d8d5\n      eq\n      tag_7\n      jumpi\n    tag_2:\n      revert(0x00, 0x00)\n        /* \"Script/MiningQuestShop.sol\":886:930  uint256 public whetstonePrice = 100 * 10**18 */\n    tag_3:\n      tag_15\n      tag_16\n      jump\t// in\n    tag_15:\n      mload(0x40)\n      tag_17\n      swap2\n      swap1\n      tag_18\n      jump\t// in\n    tag_17:\n      mload(0x40)\n      dup1\n      swap2\n      sub\n      swap1\n      return\n        /* \"Script/MiningQuestShop.sol\":823:864  uint256 public elixirPrice = 500 * 10**18 */\n    tag_4:\n      tag_19\n      tag_20\n      jump\t// in\n    tag_19:\n      mload(0x40)\n      tag_21\n      swap2\n      swap1\n      tag_18\n      jump\t// in\n    tag_21:\n      mload(0x40)\n      dup1\n      swap2\n      sub\n      swap1\n      return\n        /* \"Script/MiningQuestShop.sol\":675:698  address public treasury */\n    tag_5:\n      tag_22\n      tag_23\n      jump\t// in\n    tag_22:\n      mload(0x40)\n      tag_24\n      swap2\n      swap1\n      tag_25\n      jump\t// in\n    tag_24:\n      mload(0x40)\n      dup1\n      swap2\n      sub\n      swap1\n      return\n        /* \"@openzeppelin/contracts/access/Ownable.sol\":2293:2394  function renounceOwnership() public virtual onlyOwner {... */\n    tag_6:\n      tag_26\n      tag_27\n      jump\t// in\n    tag_26:\n      stop\n        /* \"Script/MiningQuestShop.sol\":589:611  IERC20 public chhToken */\n    tag_7:\n      tag_28\n      tag_29\n      jump\t// in\n    tag_28:\n      mload(0x40)\n      tag_30\n      swap2\n      swap1\n      tag_31\n      jump\t// in\n    tag_30:\n      mload(0x40)\n      dup1\n      swap2\n      sub\n      swap1\n      return\n        /* \"@openzeppelin/contracts/access/Ownable.sol\":1638:1723  function owner() public view virtual returns (address) {... */\n    tag_8:\n      tag_32\n      tag_33\n      jump\t// in\n    tag_32:\n      mload(0x40)\n      tag_34\n      swap2\n      swap1\n      tag_25\n      jump\t// in\n    tag_34:\n      mload(0x40)\n      dup1\n      swap2\n      sub\n      swap1\n      return\n        /* \"Script/MiningQuestShop.sol\":1902:2638  function buyItems(uint256 potionAmount, uint256 elixirAmount, uint256 whetstoneAmount) external nonReentrant {... */\n    tag_9:\n      tag_35\n      0x04\n      dup1\n      calldatasize\n      sub\n      dup2\n      add\n      swap1\n      tag_36\n      swap2\n      swap1\n      tag_37\n      jump\t// in\n    tag_36:\n      tag_38\n      jump\t// in\n    tag_35:\n      stop\n        /* \"Script/MiningQuestShop.sol\":2720:3026  function setPrices(uint256 _potionPrice, uint256 _elixirPrice, uint256 _whetstonePrice) external onlyOwner {... */\n    tag_10:\n      tag_39\n      0x04\n      dup1\n      calldatasize\n      sub\n      dup2\n      add\n      swap1\n      tag_40\n      swap2\n      swap1\n      tag_37\n      jump\t// in\n    tag_40:\n      tag_41\n      jump\t// in\n    tag_39:\n      stop\n        /* \"Script/MiningQuestShop.sol\":760:801  uint256 public potionPrice = 100 * 10**18 */\n    tag_11:\n      tag_42\n      tag_43\n      jump\t// in\n    tag_42:\n      mload(0x40)\n      tag_44\n      swap2\n      swap1\n      tag_18\n      jump\t// in\n    tag_44:\n      mload(0x40)\n      dup1\n      swap2\n      sub\n      swap1\n      return\n        /* \"Script/MiningQuestShop.sol\":3034:3245  function setTreasury(address _treasury) external onlyOwner {... */\n    tag_12:\n      tag_45\n      0x04\n      dup1\n      calldatasize\n      sub\n      dup2\n      add\n      swap1\n      tag_46\n      swap2\n      swap1\n      tag_47\n      jump\t// in\n    tag_46:\n      tag_48\n      jump\t// in\n    tag_45:\n      stop\n        /* \"@openzeppelin/contracts/access/Ownable.sol\":2543:2758  function transferOwnership(address newOwner) public virtual onlyOwner {... */\n    tag_13:\n      tag_49\n      0x04\n      dup1\n      calldatasize\n      sub\n      dup2\n      add\n      swap1\n      tag_50\n      swap2\n      swap1\n      tag_47\n      jump\t// in\n    tag_50:\n      tag_51\n      jump\t// in\n    tag_49:\n      stop\n        /* \"Script/MiningQuestShop.sol\":886:930  uint256 public whetstonePrice = 100 * 10**18 */\n    tag_16:\n      sload(0x06)\n      dup2\n      jump\t// out\n        /* \"Script/MiningQuestShop.sol\":823:864  uint256 public elixirPrice = 500 * 10**18 */\n    tag_20:\n      sload(0x05)\n      dup2\n      jump\t// out\n        /* \"Script/MiningQuestShop.sol\":675:698  address public treasury */\n    tag_23:\n      0x03\n      0x00\n      swap1\n      sload\n      swap1\n      0x0100\n      exp\n      swap1\n      div\n      0xffffffffffffffffffffffffffffffffffffffff\n      and\n      dup2\n      jump\t// out\n        /* \"@openzeppelin/contracts/access/Ownable.sol\":2293:2394  function renounceOwnership() public virtual onlyOwner {... */\n    tag_27:\n        /* \"@openzeppelin/contracts/access/Ownable.sol\":1531:1544  _checkOwner() */\n      tag_53\n        /* \"@openzeppelin/contracts/access/Ownable.sol\":1531:1542  _checkOwner */\n      tag_54\n        /* \"@openzeppelin/contracts/access/Ownable.sol\":1531:1544  _checkOwner() */\n      jump\t// in\n    tag_53:\n        /* \"@openzeppelin/contracts/access/Ownable.sol\":2357:2387  _transferOwnership(address(0)) */\n      tag_56\n        /* \"@openzeppelin/contracts/access/Ownable.sol\":2384:2385  0 */\n      0x00\n        /* \"@openzeppelin/contracts/access/Ownable.sol\":2357:2375  _transferOwnership */\n      tag_57\n        /* \"@openzeppelin/contracts/access/Ownable.sol\":2357:2387  _transferOwnership(address(0)) */\n      jump\t// in\n    tag_56:\n        /* \"@openzeppelin/contracts/access/Ownable.sol\":2293:2394  function renounceOwnership() public virtual onlyOwner {... */\n      jump\t// out\n        /* \"Script/MiningQuestShop.sol\":589:611  IERC20 public chhToken */\n    tag_29:\n      0x02\n      0x00\n      swap1\n      sload\n      swap1\n      0x0100\n      exp\n      swap1\n      div\n      0xffffffffffffffffffffffffffffffffffffffff\n      and\n      dup2\n      jump\t// out\n        /* \"@openzeppelin/contracts/access/Ownable.sol\":1638:1723  function owner() public view virtual returns (address) {... */\n    tag_33:\n        /* \"@openzeppelin/contracts/access/Ownable.sol\":1684:1691  address */\n      0x00\n        /* \"@openzeppelin/contracts/access/Ownable.sol\":1710:1716  _owner */\n      0x00\n      0x00\n      swap1\n      sload\n      swap1\n      0x0100\n      exp\n      swap1\n      div\n      0xffffffffffffffffffffffffffffffffffffffff\n      and\n        /* \"@openzeppelin/contracts/access/Ownable.sol\":1703:1716  return _owner */\n      swap1\n      pop\n        /* \"@openzeppelin/contracts/access/Ownable.sol\":1638:1723  function owner() public view virtual returns (address) {... */\n      swap1\n      jump\t// out\n        /* \"Script/MiningQuestShop.sol\":1902:2638  function buyItems(uint256 potionAmount, uint256 elixirAmount, uint256 whetstoneAmount) external nonReentrant {... */\n    tag_38:\n        /* \"@openzeppelin/contracts/utils/ReentrancyGuard.sol\":2500:2521  _nonReentrantBefore() */\n      tag_60\n        /* \"@openzeppelin/contracts/utils/ReentrancyGuard.sol\":2500:2519  _nonReentrantBefore */\n      tag_61\n        /* \"@openzeppelin/contracts/utils/ReentrancyGuard.sol\":2500:2521  _nonReentrantBefore() */\n      jump\t// in\n    tag_60:\n        /* \"Script/MiningQuestShop.sol\":2045:2046  0 */\n      0x00\n        /* \"Script/MiningQuestShop.sol\":2030:2042  potionAmount */\n      dup4\n        /* \"Script/MiningQuestShop.sol\":2030:2046  potionAmount > 0 */\n      gt\n        /* \"Script/MiningQuestShop.sol\":2030:2066  potionAmount > 0 || elixirAmount > 0 */\n      dup1\n      tag_63\n      jumpi\n      pop\n        /* \"Script/MiningQuestShop.sol\":2065:2066  0 */\n      0x00\n        /* \"Script/MiningQuestShop.sol\":2050:2062  elixirAmount */\n      dup3\n        /* \"Script/MiningQuestShop.sol\":2050:2066  elixirAmount > 0 */\n      gt\n        /* \"Script/MiningQuestShop.sol\":2030:2066  potionAmount > 0 || elixirAmount > 0 */\n    tag_63:\n        /* \"Script/MiningQuestShop.sol\":2030:2089  potionAmount > 0 || elixirAmount > 0 || whetstoneAmount > 0 */\n      dup1\n      tag_64\n      jumpi\n      pop\n        /* \"Script/MiningQuestShop.sol\":2088:2089  0 */\n      0x00\n        /* \"Script/MiningQuestShop.sol\":2070:2085  whetstoneAmount */\n      dup2\n        /* \"Script/MiningQuestShop.sol\":2070:2089  whetstoneAmount > 0 */\n      gt\n        /* \"Script/MiningQuestShop.sol\":2030:2089  potionAmount > 0 || elixirAmount > 0 || whetstoneAmount > 0 */\n    tag_64:\n        /* \"Script/MiningQuestShop.sol\":2022:2120  require(potionAmount > 0 || elixirAmount > 0 || whetstoneAmount > 0, \"Must buy at least one item\") */\n      tag_65\n      jumpi\n      mload(0x40)\n      0x08c379a000000000000000000000000000000000000000000000000000000000\n      dup2\n      mstore\n      0x04\n      add\n      tag_66\n      swap1\n      tag_67\n      jump\t// in\n    tag_66:\n      mload(0x40)\n      dup1\n      swap2\n      sub\n      swap1\n      revert\n    tag_65:\n        /* \"Script/MiningQuestShop.sol\":2170:2187  uint256 totalCost */\n      0x00\n        /* \"Script/MiningQuestShop.sol\":2331:2345  whetstonePrice */\n      sload(0x06)\n        /* \"Script/MiningQuestShop.sol\":2313:2328  whetstoneAmount */\n      dup3\n        /* \"Script/MiningQuestShop.sol\":2313:2345  whetstoneAmount * whetstonePrice */\n      tag_68\n      swap2\n      swap1\n      tag_69\n      jump\t// in\n    tag_68:\n        /* \"Script/MiningQuestShop.sol\":2267:2278  elixirPrice */\n      sload(0x05)\n        /* \"Script/MiningQuestShop.sol\":2252:2264  elixirAmount */\n      dup5\n        /* \"Script/MiningQuestShop.sol\":2252:2278  elixirAmount * elixirPrice */\n      tag_70\n      swap2\n      swap1\n      tag_69\n      jump\t// in\n    tag_70:\n        /* \"Script/MiningQuestShop.sol\":2206:2217  potionPrice */\n      sload(0x04)\n        /* \"Script/MiningQuestShop.sol\":2191:2203  potionAmount */\n      dup7\n        /* \"Script/MiningQuestShop.sol\":2191:2217  potionAmount * potionPrice */\n      tag_71\n      swap2\n      swap1\n      tag_69\n      jump\t// in\n    tag_71:\n        /* \"Script/MiningQuestShop.sol\":2190:2279  (potionAmount * potionPrice) + ... */\n      tag_72\n      swap2\n      swap1\n      tag_73\n      jump\t// in\n    tag_72:\n        /* \"Script/MiningQuestShop.sol\":2190:2346  (potionAmount * potionPrice) + ... */\n      tag_74\n      swap2\n      swap1\n      tag_73\n      jump\t// in\n    tag_74:\n        /* \"Script/MiningQuestShop.sol\":2170:2346  uint256 totalCost = (potionAmount * potionPrice) + ... */\n      swap1\n      pop\n        /* \"Script/MiningQuestShop.sol\":2432:2490  chhToken.safeTransferFrom(msg.sender, treasury, totalCost) */\n      tag_75\n        /* \"Script/MiningQuestShop.sol\":2458:2468  msg.sender */\n      caller\n        /* \"Script/MiningQuestShop.sol\":2470:2478  treasury */\n      0x03\n      0x00\n      swap1\n      sload\n      swap1\n      0x0100\n      exp\n      swap1\n      div\n      0xffffffffffffffffffffffffffffffffffffffff\n      and\n        /* \"Script/MiningQuestShop.sol\":2480:2489  totalCost */\n      dup4\n        /* \"Script/MiningQuestShop.sol\":2432:2440  chhToken */\n      0x02\n      0x00\n      swap1\n      sload\n      swap1\n      0x0100\n      exp\n      swap1\n      div\n      0xffffffffffffffffffffffffffffffffffffffff\n      and\n        /* \"Script/MiningQuestShop.sol\":2432:2457  chhToken.safeTransferFrom */\n      0xffffffffffffffffffffffffffffffffffffffff\n      and\n      tag_76\n      swap1\n        /* \"Script/MiningQuestShop.sol\":2432:2490  chhToken.safeTransferFrom(msg.sender, treasury, totalCost) */\n      swap4\n      swap3\n      swap2\n      swap1\n      0xffffffff\n      and\n      jump\t// in\n    tag_75:\n        /* \"Script/MiningQuestShop.sol\":2563:2573  msg.sender */\n      caller\n        /* \"Script/MiningQuestShop.sol\":2548:2630  ItemsPurchased(msg.sender, potionAmount, elixirAmount, whetstoneAmount, totalCost) */\n      0xffffffffffffffffffffffffffffffffffffffff\n      and\n      0x1bb5a72378b1155ec85a388664cad255933833d9e7d480ad419bc707ac7c9b54\n        /* \"Script/MiningQuestShop.sol\":2575:2587  potionAmount */\n      dup6\n        /* \"Script/MiningQuestShop.sol\":2589:2601  elixirAmount */\n      dup6\n        /* \"Script/MiningQuestShop.sol\":2603:2618  whetstoneAmount */\n      dup6\n        /* \"Script/MiningQuestShop.sol\":2620:2629  totalCost */\n      dup6\n        /* \"Script/MiningQuestShop.sol\":2548:2630  ItemsPurchased(msg.sender, potionAmount, elixirAmount, whetstoneAmount, totalCost) */\n      mload(0x40)\n      tag_77\n      swap5\n      swap4\n      swap3\n      swap2\n      swap1\n      tag_78\n      jump\t// in\n    tag_77:\n      mload(0x40)\n      dup1\n      swap2\n      sub\n      swap1\n      log2\n        /* \"Script/MiningQuestShop.sol\":2011:2638  {... */\n      pop\n        /* \"@openzeppelin/contracts/utils/ReentrancyGuard.sol\":2542:2562  _nonReentrantAfter() */\n      tag_79\n        /* \"@openzeppelin/contracts/utils/ReentrancyGuard.sol\":2542:2560  _nonReentrantAfter */\n      tag_80\n        /* \"@openzeppelin/contracts/utils/ReentrancyGuard.sol\":2542:2562  _nonReentrantAfter() */\n      jump\t// in\n    tag_79:\n        /* \"Script/MiningQuestShop.sol\":1902:2638  function buyItems(uint256 potionAmount, uint256 elixirAmount, uint256 whetstoneAmount) external nonReentrant {... */\n      pop\n      pop\n      pop\n      jump\t// out\n        /* \"Script/MiningQuestShop.sol\":2720:3026  function setPrices(uint256 _potionPrice, uint256 _elixirPrice, uint256 _whetstonePrice) external onlyOwner {... */\n    tag_41:\n        /* \"@openzeppelin/contracts/access/Ownable.sol\":1531:1544  _checkOwner() */\n      tag_82\n        /* \"@openzeppelin/contracts/access/Ownable.sol\":1531:1542  _checkOwner */\n      tag_54\n        /* \"@openzeppelin/contracts/access/Ownable.sol\":1531:1544  _checkOwner() */\n      jump\t// in\n    tag_82:\n        /* \"Script/MiningQuestShop.sol\":2852:2864  _potionPrice */\n      dup3\n        /* \"Script/MiningQuestShop.sol\":2838:2849  potionPrice */\n      0x04\n        /* \"Script/MiningQuestShop.sol\":2838:2864  potionPrice = _potionPrice */\n      dup2\n      swap1\n      sstore\n      pop\n        /* \"Script/MiningQuestShop.sol\":2889:2901  _elixirPrice */\n      dup2\n        /* \"Script/MiningQuestShop.sol\":2875:2886  elixirPrice */\n      0x05\n        /* \"Script/MiningQuestShop.sol\":2875:2901  elixirPrice = _elixirPrice */\n      dup2\n      swap1\n      sstore\n      pop\n        /* \"Script/MiningQuestShop.sol\":2929:2944  _whetstonePrice */\n      dup1\n        /* \"Script/MiningQuestShop.sol\":2912:2926  whetstonePrice */\n      0x06\n        /* \"Script/MiningQuestShop.sol\":2912:2944  whetstonePrice = _whetstonePrice */\n      dup2\n      swap1\n      sstore\n      pop\n        /* \"Script/MiningQuestShop.sol\":2960:3018  PricesUpdated(_potionPrice, _elixirPrice, _whetstonePrice) */\n      0xa6b830b74e52d7d1140e76252f225dc7bed28782519845600bbd3182341dc115\n        /* \"Script/MiningQuestShop.sol\":2974:2986  _potionPrice */\n      dup4\n        /* \"Script/MiningQuestShop.sol\":2988:3000  _elixirPrice */\n      dup4\n        /* \"Script/MiningQuestShop.sol\":3002:3017  _whetstonePrice */\n      dup4\n        /* \"Script/MiningQuestShop.sol\":2960:3018  PricesUpdated(_potionPrice, _elixirPrice, _whetstonePrice) */\n      mload(0x40)\n      tag_84\n      swap4\n      swap3\n      swap2\n      swap1\n      tag_85\n      jump\t// in\n    tag_84:\n      mload(0x40)\n      dup1\n      swap2\n      sub\n      swap1\n      log1\n        /* \"Script/MiningQuestShop.sol\":2720:3026  function setPrices(uint256 _potionPrice, uint256 _elixirPrice, uint256 _whetstonePrice) external onlyOwner {... */\n      pop\n      pop\n      pop\n      jump\t// out\n        /* \"Script/MiningQuestShop.sol\":760:801  uint256 public potionPrice = 100 * 10**18 */\n    tag_43:\n      sload(0x04)\n      dup2\n      jump\t// out\n        /* \"Script/MiningQuestShop.sol\":3034:3245  function setTreasury(address _treasury) external onlyOwner {... */\n    tag_48:\n        /* \"@openzeppelin/contracts/access/Ownable.sol\":1531:1544  _checkOwner() */\n      tag_87\n        /* \"@openzeppelin/contracts/access/Ownable.sol\":1531:1542  _checkOwner */\n      tag_54\n        /* \"@openzeppelin/contracts/access/Ownable.sol\":1531:1544  _checkOwner() */\n      jump\t// in\n    tag_87:\n        /* \"Script/MiningQuestShop.sol\":3133:3134  0 */\n      0x00\n        /* \"Script/MiningQuestShop.sol\":3112:3135  _treasury != address(0) */\n      0xffffffffffffffffffffffffffffffffffffffff\n      and\n        /* \"Script/MiningQuestShop.sol\":3112:3121  _treasury */\n      dup2\n        /* \"Script/MiningQuestShop.sol\":3112:3135  _treasury != address(0) */\n      0xffffffffffffffffffffffffffffffffffffffff\n      and\n      sub\n        /* \"Script/MiningQuestShop.sol\":3104:3164  require(_treasury != address(0), \"Invalid treasury address\") */\n      tag_89\n      jumpi\n      mload(0x40)\n      0x08c379a000000000000000000000000000000000000000000000000000000000\n      dup2\n      mstore\n      0x04\n      add\n      tag_90\n      swap1\n      tag_91\n      jump\t// in\n    tag_90:\n      mload(0x40)\n      dup1\n      swap2\n      sub\n      swap1\n      revert\n    tag_89:\n        /* \"Script/MiningQuestShop.sol\":3186:3195  _treasury */\n      dup1\n        /* \"Script/MiningQuestShop.sol\":3175:3183  treasury */\n      0x03\n      0x00\n        /* \"Script/MiningQuestShop.sol\":3175:3195  treasury = _treasury */\n      0x0100\n      exp\n      dup2\n      sload\n      dup2\n      0xffffffffffffffffffffffffffffffffffffffff\n      mul\n      not\n      and\n      swap1\n      dup4\n      0xffffffffffffffffffffffffffffffffffffffff\n      and\n      mul\n      or\n      swap1\n      sstore\n      pop\n        /* \"Script/MiningQuestShop.sol\":3211:3237  TreasuryUpdated(_treasury) */\n      0x7dae230f18360d76a040c81f050aa14eb9d6dc7901b20fc5d855e2a20fe814d1\n        /* \"Script/MiningQuestShop.sol\":3227:3236  _treasury */\n      dup2\n        /* \"Script/MiningQuestShop.sol\":3211:3237  TreasuryUpdated(_treasury) */\n      mload(0x40)\n      tag_92\n      swap2\n      swap1\n      tag_25\n      jump\t// in\n    tag_92:\n      mload(0x40)\n      dup1\n      swap2\n      sub\n      swap1\n      log1\n        /* \"Script/MiningQuestShop.sol\":3034:3245  function setTreasury(address _treasury) external onlyOwner {... */\n      pop\n      jump\t// out\n        /* \"@openzeppelin/contracts/access/Ownable.sol\":2543:2758  function transferOwnership(address newOwner) public virtual onlyOwner {... */\n    tag_51:\n        /* \"@openzeppelin/contracts/access/Ownable.sol\":1531:1544  _checkOwner() */\n      tag_94\n        /* \"@openzeppelin/contracts/access/Ownable.sol\":1531:1542  _checkOwner */\n      tag_54\n        /* \"@openzeppelin/contracts/access/Ownable.sol\":1531:1544  _checkOwner() */\n      jump\t// in\n    tag_94:\n        /* \"@openzeppelin/contracts/access/Ownable.sol\":2647:2648  0 */\n      0x00\n        /* \"@openzeppelin/contracts/access/Ownable.sol\":2627:2649  newOwner == address(0) */\n      0xffffffffffffffffffffffffffffffffffffffff\n      and\n        /* \"@openzeppelin/contracts/access/Ownable.sol\":2627:2635  newOwner */\n      dup2\n        /* \"@openzeppelin/contracts/access/Ownable.sol\":2627:2649  newOwner == address(0) */\n      0xffffffffffffffffffffffffffffffffffffffff\n      and\n      sub\n        /* \"@openzeppelin/contracts/access/Ownable.sol\":2623:2714  if (newOwner == address(0)) {... */\n      tag_96\n      jumpi\n        /* \"@openzeppelin/contracts/access/Ownable.sol\":2700:2701  0 */\n      0x00\n        /* \"@openzeppelin/contracts/access/Ownable.sol\":2672:2703  OwnableInvalidOwner(address(0)) */\n      mload(0x40)\n      0x1e4fbdf700000000000000000000000000000000000000000000000000000000\n      dup2\n      mstore\n      0x04\n      add\n      tag_97\n      swap2\n      swap1\n      tag_25\n      jump\t// in\n    tag_97:\n      mload(0x40)\n      dup1\n      swap2\n      sub\n      swap1\n      revert\n        /* \"@openzeppelin/contracts/access/Ownable.sol\":2623:2714  if (newOwner == address(0)) {... */\n    tag_96:\n        /* \"@openzeppelin/contracts/access/Ownable.sol\":2723:2751  _transferOwnership(newOwner) */\n      tag_98\n        /* \"@openzeppelin/contracts/access/Ownable.sol\":2742:2750  newOwner */\n      dup2\n        /* \"@openzeppelin/contracts/access/Ownable.sol\":2723:2741  _transferOwnership */\n      tag_57\n        /* \"@openzeppelin/contracts/access/Ownable.sol\":2723:2751  _transferOwnership(newOwner) */\n      jump\t// in\n    tag_98:\n        /* \"@openzeppelin/contracts/access/Ownable.sol\":2543:2758  function transferOwnership(address newOwner) public virtual onlyOwner {... */\n      pop\n      jump\t// out\n        /* \"@openzeppelin/contracts/access/Ownable.sol\":1796:1958  function _checkOwner() internal view virtual {... */\n    tag_54:\n        /* \"@openzeppelin/contracts/access/Ownable.sol\":1866:1878  _msgSender() */\n      tag_100\n        /* \"@openzeppelin/contracts/access/Ownable.sol\":1866:1876  _msgSender */\n      tag_101\n        /* \"@openzeppelin/contracts/access/Ownable.sol\":1866:1878  _msgSender() */\n      jump\t// in\n    tag_100:\n        /* \"@openzeppelin/contracts/access/Ownable.sol\":1855:1878  owner() != _msgSender() */\n      0xffffffffffffffffffffffffffffffffffffffff\n      and\n        /* \"@openzeppelin/contracts/access/Ownable.sol\":1855:1862  owner() */\n      tag_102\n        /* \"@openzeppelin/contracts/access/Ownable.sol\":1855:1860  owner */\n      tag_33\n        /* \"@openzeppelin/contracts/access/Ownable.sol\":1855:1862  owner() */\n      jump\t// in\n    tag_102:\n        /* \"@openzeppelin/contracts/access/Ownable.sol\":1855:1878  owner() != _msgSender() */\n      0xffffffffffffffffffffffffffffffffffffffff\n      and\n      eq\n        /* \"@openzeppelin/contracts/access/Ownable.sol\":1851:1952  if (owner() != _msgSender()) {... */\n      tag_103\n      jumpi\n        /* \"@openzeppelin/contracts/access/Ownable.sol\":1928:1940  _msgSender() */\n      tag_104\n        /* \"@openzeppelin/contracts/access/Ownable.sol\":1928:1938  _msgSender */\n      tag_101\n        /* \"@openzeppelin/contracts/access/Ownable.sol\":1928:1940  _msgSender() */\n      jump\t// in\n    tag_104:\n        /* \"@openzeppelin/contracts/access/Ownable.sol\":1901:1941  OwnableUnauthorizedAccount(_msgSender()) */\n      mload(0x40)\n      0x118cdaa700000000000000000000000000000000000000000000000000000000\n      dup2\n      mstore\n      0x04\n      add\n      tag_105\n      swap2\n      swap1\n      tag_25\n      jump\t// in\n    tag_105:\n      mload(0x40)\n      dup1\n      swap2\n      sub\n      swap1\n      revert\n        /* \"@openzeppelin/contracts/access/Ownable.sol\":1851:1952  if (owner() != _msgSender()) {... */\n    tag_103:\n        /* \"@openzeppelin/contracts/access/Ownable.sol\":1796:1958  function _checkOwner() internal view virtual {... */\n      jump\t// out\n        /* \"@openzeppelin/contracts/access/Ownable.sol\":2912:3099  function _transferOwnership(address newOwner) internal virtual {... */\n    tag_57:\n        /* \"@openzeppelin/contracts/access/Ownable.sol\":2985:3001  address oldOwner */\n      0x00\n        /* \"@openzeppelin/contracts/access/Ownable.sol\":3004:3010  _owner */\n      0x00\n      0x00\n      swap1\n      sload\n      swap1\n      0x0100\n      exp\n      swap1\n      div\n      0xffffffffffffffffffffffffffffffffffffffff\n      and\n        /* \"@openzeppelin/contracts/access/Ownable.sol\":2985:3010  address oldOwner = _owner */\n      swap1\n      pop\n        /* \"@openzeppelin/contracts/access/Ownable.sol\":3029:3037  newOwner */\n      dup2\n        /* \"@openzeppelin/contracts/access/Ownable.sol\":3020:3026  _owner */\n      0x00\n      0x00\n        /* \"@openzeppelin/contracts/access/Ownable.sol\":3020:3037  _owner = newOwner */\n      0x0100\n      exp\n      dup2\n      sload\n      dup2\n      0xffffffffffffffffffffffffffffffffffffffff\n      mul\n      not\n      and\n      swap1\n      dup4\n      0xffffffffffffffffffffffffffffffffffffffff\n      and\n      mul\n      or\n      swap1\n      sstore\n      pop\n        /* \"@openzeppelin/contracts/access/Ownable.sol\":3083:3091  newOwner */\n      dup2\n        /* \"@openzeppelin/contracts/access/Ownable.sol\":3052:3092  OwnershipTransferred(oldOwner, newOwner) */\n      0xffffffffffffffffffffffffffffffffffffffff\n      and\n        /* \"@openzeppelin/contracts/access/Ownable.sol\":3073:3081  oldOwner */\n      dup2\n        /* \"@openzeppelin/contracts/access/Ownable.sol\":3052:3092  OwnershipTransferred(oldOwner, newOwner) */\n      0xffffffffffffffffffffffffffffffffffffffff\n      and\n      0x8be0079c531659141344cd1fd0a4f28419497f9722a3daafe3b4186f6b6457e0\n      mload(0x40)\n      mload(0x40)\n      dup1\n      swap2\n      sub\n      swap1\n      log3\n        /* \"@openzeppelin/contracts/access/Ownable.sol\":2975:3099  {... */\n      pop\n        /* \"@openzeppelin/contracts/access/Ownable.sol\":2912:3099  function _transferOwnership(address newOwner) internal virtual {... */\n      pop\n      jump\t// out\n        /* \"@openzeppelin/contracts/utils/ReentrancyGuard.sol\":2575:2882  function _nonReentrantBefore() private {... */\n    tag_61:\n        /* \"@openzeppelin/contracts/utils/ReentrancyGuard.sol\":1899:1900  2 */\n      0x02\n        /* \"@openzeppelin/contracts/utils/ReentrancyGuard.sol\":2702:2709  _status */\n      sload(0x01)\n        /* \"@openzeppelin/contracts/utils/ReentrancyGuard.sol\":2702:2720  _status == ENTERED */\n      sub\n        /* \"@openzeppelin/contracts/utils/ReentrancyGuard.sol\":2698:2784  if (_status == ENTERED) {... */\n      tag_108\n      jumpi\n        /* \"@openzeppelin/contracts/utils/ReentrancyGuard.sol\":2743:2773  ReentrancyGuardReentrantCall() */\n      mload(0x40)\n      0x3ee5aeb500000000000000000000000000000000000000000000000000000000\n      dup2\n      mstore\n      0x04\n      add\n      mload(0x40)\n      dup1\n      swap2\n      sub\n      swap1\n      revert\n        /* \"@openzeppelin/contracts/utils/ReentrancyGuard.sol\":2698:2784  if (_status == ENTERED) {... */\n    tag_108:\n        /* \"@openzeppelin/contracts/utils/ReentrancyGuard.sol\":1899:1900  2 */\n      0x02\n        /* \"@openzeppelin/contracts/utils/ReentrancyGuard.sol\":2858:2865  _status */\n      0x01\n        /* \"@openzeppelin/contracts/utils/ReentrancyGuard.sol\":2858:2875  _status = ENTERED */\n      dup2\n      swap1\n      sstore\n      pop\n        /* \"@openzeppelin/contracts/utils/ReentrancyGuard.sol\":2575:2882  function _nonReentrantBefore() private {... */\n      jump\t// out\n        /* \"@openzeppelin/contracts/token/ERC20/utils/SafeERC20.sol\":1662:1894  function safeTransferFrom(IERC20 token, address from, address to, uint256 value) internal {... */\n    tag_76:\n        /* \"@openzeppelin/contracts/token/ERC20/utils/SafeERC20.sol\":1767:1814  _safeTransferFrom(token, from, to, value, true) */\n      tag_110\n        /* \"@openzeppelin/contracts/token/ERC20/utils/SafeERC20.sol\":1785:1790  token */\n      dup5\n        /* \"@openzeppelin/contracts/token/ERC20/utils/SafeERC20.sol\":1792:1796  from */\n      dup5\n        /* \"@openzeppelin/contracts/token/ERC20/utils/SafeERC20.sol\":1798:1800  to */\n      dup5\n        /* \"@openzeppelin/contracts/token/ERC20/utils/SafeERC20.sol\":1802:1807  value */\n      dup5\n        /* \"@openzeppelin/contracts/token/ERC20/utils/SafeERC20.sol\":1809:1813  true */\n      0x01\n        /* \"@openzeppelin/contracts/token/ERC20/utils/SafeERC20.sol\":1767:1784  _safeTransferFrom */\n      tag_111\n        /* \"@openzeppelin/contracts/token/ERC20/utils/SafeERC20.sol\":1767:1814  _safeTransferFrom(token, from, to, value, true) */\n      jump\t// in\n    tag_110:\n        /* \"@openzeppelin/contracts/token/ERC20/utils/SafeERC20.sol\":1762:1888  if (!_safeTransferFrom(token, from, to, value, true)) {... */\n      tag_112\n      jumpi\n        /* \"@openzeppelin/contracts/token/ERC20/utils/SafeERC20.sol\":1870:1875  token */\n      dup4\n        /* \"@openzeppelin/contracts/token/ERC20/utils/SafeERC20.sol\":1837:1877  SafeERC20FailedOperation(address(token)) */\n      mload(0x40)\n      0x5274afe700000000000000000000000000000000000000000000000000000000\n      dup2\n      mstore\n      0x04\n      add\n      tag_113\n      swap2\n      swap1\n      tag_25\n      jump\t// in\n    tag_113:\n      mload(0x40)\n      dup1\n      swap2\n      sub\n      swap1\n      revert\n        /* \"@openzeppelin/contracts/token/ERC20/utils/SafeERC20.sol\":1762:1888  if (!_safeTransferFrom(token, from, to, value, true)) {... */\n    tag_112:\n        /* \"@openzeppelin/contracts/token/ERC20/utils/SafeERC20.sol\":1662:1894  function safeTransferFrom(IERC20 token, address from, address to, uint256 value) internal {... */\n      pop\n      pop\n      pop\n      pop\n      jump\t// out\n        /* \"@openzeppelin/contracts/utils/ReentrancyGuard.sol\":2888:3096  function _nonReentrantAfter() private {... */\n    tag_80:\n        /* \"@openzeppelin/contracts/utils/ReentrancyGuard.sol\":1857:1858  1 */\n      0x01\n        /* \"@openzeppelin/contracts/utils/ReentrancyGuard.sol\":3068:3075  _status */\n      dup1\n        /* \"@openzeppelin/contracts/utils/ReentrancyGuard.sol\":3068:3089  _status = NOT_ENTERED */\n      dup2\n      swap1\n      sstore\n      pop\n        /* \"@openzeppelin/contracts/utils/ReentrancyGuard.sol\":2888:3096  function _nonReentrantAfter() private {... */\n      jump\t// out\n        /* \"@openzeppelin/contracts/utils/Context.sol\":656:752  function _msgSender() internal view virtual returns (address) {... */\n    tag_101:\n        /* \"@openzeppelin/contracts/utils/Context.sol\":709:716  address */\n      0x00\n        /* \"@openzeppelin/contracts/utils/Context.sol\":735:745  msg.sender */\n      caller\n        /* \"@openzeppelin/contracts/utils/Context.sol\":728:745  return msg.sender */\n      swap1\n      pop\n        /* \"@openzeppelin/contracts/utils/Context.sol\":656:752  function _msgSender() internal view virtual returns (address) {... */\n      swap1\n      jump\t// out\n        /* \"@openzeppelin/contracts/token/ERC20/utils/SafeERC20.sol\":10165:11558  function _safeTransferFrom(... */\n    tag_111:\n        /* \"@openzeppelin/contracts/token/ERC20/utils/SafeERC20.sol\":10323:10335  bool success */\n      0x00\n        /* \"@openzeppelin/contracts/token/ERC20/utils/SafeERC20.sol\":10347:10362  bytes4 selector */\n      0x00\n        /* \"@openzeppelin/contracts/token/ERC20/utils/SafeERC20.sol\":10365:10393  IERC20.transferFrom.selector */\n      shl(0xe0, 0x23b872dd)\n        /* \"@openzeppelin/contracts/token/ERC20/utils/SafeERC20.sol\":10347:10393  bytes4 selector = IERC20.transferFrom.selector */\n      swap1\n      pop\n        /* \"@openzeppelin/contracts/token/ERC20/utils/SafeERC20.sol\":10460:10464  0x40 */\n      0x40\n        /* \"@openzeppelin/contracts/token/ERC20/utils/SafeERC20.sol\":10454:10465  mload(0x40) */\n      mload\n        /* \"@openzeppelin/contracts/token/ERC20/utils/SafeERC20.sol\":10491:10499  selector */\n      dup2\n        /* \"@openzeppelin/contracts/token/ERC20/utils/SafeERC20.sol\":10485:10489  0x00 */\n      0x00\n        /* \"@openzeppelin/contracts/token/ERC20/utils/SafeERC20.sol\":10478:10500  mstore(0x00, selector) */\n      mstore\n        /* \"@openzeppelin/contracts/token/ERC20/utils/SafeERC20.sol\":10548:10549  0 */\n      0x00\n        /* \"@openzeppelin/contracts/token/ERC20/utils/SafeERC20.sol\":10544:10550  not(0) */\n      not\n        /* \"@openzeppelin/contracts/token/ERC20/utils/SafeERC20.sol\":10540:10542  96 */\n      0x60\n        /* \"@openzeppelin/contracts/token/ERC20/utils/SafeERC20.sol\":10536:10551  shr(96, not(0)) */\n      shr\n        /* \"@openzeppelin/contracts/token/ERC20/utils/SafeERC20.sol\":10530:10534  from */\n      dup8\n        /* \"@openzeppelin/contracts/token/ERC20/utils/SafeERC20.sol\":10526:10552  and(from, shr(96, not(0))) */\n      and\n        /* \"@openzeppelin/contracts/token/ERC20/utils/SafeERC20.sol\":10520:10524  0x04 */\n      0x04\n        /* \"@openzeppelin/contracts/token/ERC20/utils/SafeERC20.sol\":10513:10553  mstore(0x04, and(from, shr(96, not(0)))) */\n      mstore\n        /* \"@openzeppelin/contracts/token/ERC20/utils/SafeERC20.sol\":10599:10600  0 */\n      0x00\n        /* \"@openzeppelin/contracts/token/ERC20/utils/SafeERC20.sol\":10595:10601  not(0) */\n      not\n        /* \"@openzeppelin/contracts/token/ERC20/utils/SafeERC20.sol\":10591:10593  96 */\n      0x60\n        /* \"@openzeppelin/contracts/token/ERC20/utils/SafeERC20.sol\":10587:10602  shr(96, not(0)) */\n      shr\n        /* \"@openzeppelin/contracts/token/ERC20/utils/SafeERC20.sol\":10583:10585  to */\n      dup7\n        /* \"@openzeppelin/contracts/token/ERC20/utils/SafeERC20.sol\":10579:10603  and(to, shr(96, not(0))) */\n      and\n        /* \"@openzeppelin/contracts/token/ERC20/utils/SafeERC20.sol\":10573:10577  0x24 */\n      0x24\n        /* \"@openzeppelin/contracts/token/ERC20/utils/SafeERC20.sol\":10566:10604  mstore(0x24, and(to, shr(96, not(0)))) */\n      mstore\n        /* \"@openzeppelin/contracts/token/ERC20/utils/SafeERC20.sol\":10630:10635  value */\n      dup5\n        /* \"@openzeppelin/contracts/token/ERC20/utils/SafeERC20.sol\":10624:10628  0x44 */\n      0x44\n        /* \"@openzeppelin/contracts/token/ERC20/utils/SafeERC20.sol\":10617:10636  mstore(0x44, value) */\n      mstore\n        /* \"@openzeppelin/contracts/token/ERC20/utils/SafeERC20.sol\":10700:10704  0x20 */\n      0x20\n        /* \"@openzeppelin/contracts/token/ERC20/utils/SafeERC20.sol\":10694:10698  0x00 */\n      0x00\n        /* \"@openzeppelin/contracts/token/ERC20/utils/SafeERC20.sol\":10688:10692  0x64 */\n      0x64\n        /* \"@openzeppelin/contracts/token/ERC20/utils/SafeERC20.sol\":10682:10686  0x00 */\n      0x00\n        /* \"@openzeppelin/contracts/token/ERC20/utils/SafeERC20.sol\":10679:10680  0 */\n      0x00\n        /* \"@openzeppelin/contracts/token/ERC20/utils/SafeERC20.sol\":10672:10677  token */\n      dup13\n        /* \"@openzeppelin/contracts/token/ERC20/utils/SafeERC20.sol\":10665:10670  gas() */\n      gas\n        /* \"@openzeppelin/contracts/token/ERC20/utils/SafeERC20.sol\":10660:10705  call(gas(), token, 0, 0x00, 0x64, 0x00, 0x20) */\n      call\n        /* \"@openzeppelin/contracts/token/ERC20/utils/SafeERC20.sol\":10649:10705  success := call(gas(), token, 0, 0x00, 0x64, 0x00, 0x20) */\n      swap3\n      pop\n        /* \"@openzeppelin/contracts/token/ERC20/utils/SafeERC20.sol\":10917:10918  1 */\n      0x01\n        /* \"@openzeppelin/contracts/token/ERC20/utils/SafeERC20.sol\":10910:10914  0x00 */\n      0x00\n        /* \"@openzeppelin/contracts/token/ERC20/utils/SafeERC20.sol\":10904:10915  mload(0x00) */\n      mload\n        /* \"@openzeppelin/contracts/token/ERC20/utils/SafeERC20.sol\":10901:10919  eq(mload(0x00), 1) */\n      eq\n        /* \"@openzeppelin/contracts/token/ERC20/utils/SafeERC20.sol\":10892:10899  success */\n      dup4\n        /* \"@openzeppelin/contracts/token/ERC20/utils/SafeERC20.sol\":10888:10920  and(success, eq(mload(0x00), 1)) */\n      and\n        /* \"@openzeppelin/contracts/token/ERC20/utils/SafeERC20.sol\":10878:11484  if iszero(and(success, eq(mload(0x00), 1))) {... */\n      tag_117\n      jumpi\n        /* \"@openzeppelin/contracts/token/ERC20/utils/SafeERC20.sol\":11049:11055  bubble */\n      dup4\n        /* \"@openzeppelin/contracts/token/ERC20/utils/SafeERC20.sol\":11039:11046  success */\n      dup4\n        /* \"@openzeppelin/contracts/token/ERC20/utils/SafeERC20.sol\":11032:11047  iszero(success) */\n      iszero\n        /* \"@openzeppelin/contracts/token/ERC20/utils/SafeERC20.sol\":11028:11056  and(iszero(success), bubble) */\n      and\n        /* \"@openzeppelin/contracts/token/ERC20/utils/SafeERC20.sol\":11025:11190  if and(iszero(success), bubble) {... */\n      iszero\n      tag_118\n      jumpi\n        /* \"@openzeppelin/contracts/token/ERC20/utils/SafeERC20.sol\":11105:11121  returndatasize() */\n      returndatasize\n        /* \"@openzeppelin/contracts/token/ERC20/utils/SafeERC20.sol\":11099:11103  0x00 */\n      0x00\n        /* \"@openzeppelin/contracts/token/ERC20/utils/SafeERC20.sol\":11094:11097  fmp */\n      dup3\n        /* \"@openzeppelin/contracts/token/ERC20/utils/SafeERC20.sol\":11079:11122  returndatacopy(fmp, 0x00, returndatasize()) */\n      returndatacopy\n        /* \"@openzeppelin/contracts/token/ERC20/utils/SafeERC20.sol\":11155:11171  returndatasize() */\n      returndatasize\n        /* \"@openzeppelin/contracts/token/ERC20/utils/SafeERC20.sol\":11150:11153  fmp */\n      dup2\n        /* \"@openzeppelin/contracts/token/ERC20/utils/SafeERC20.sol\":11143:11172  revert(fmp, returndatasize()) */\n      revert\n        /* \"@openzeppelin/contracts/token/ERC20/utils/SafeERC20.sol\":11025:11190  if and(iszero(success), bubble) {... */\n    tag_118:\n        /* \"@openzeppelin/contracts/token/ERC20/utils/SafeERC20.sol\":11466:11467  0 */\n      0x00\n        /* \"@openzeppelin/contracts/token/ERC20/utils/SafeERC20.sol\":11458:11463  token */\n      dup9\n        /* \"@openzeppelin/contracts/token/ERC20/utils/SafeERC20.sol\":11446:11464  extcodesize(token) */\n      extcodesize\n        /* \"@openzeppelin/contracts/token/ERC20/utils/SafeERC20.sol\":11443:11468  gt(extcodesize(token), 0) */\n      gt\n        /* \"@openzeppelin/contracts/token/ERC20/utils/SafeERC20.sol\":11424:11440  returndatasize() */\n      returndatasize\n        /* \"@openzeppelin/contracts/token/ERC20/utils/SafeERC20.sol\":11417:11441  iszero(returndatasize()) */\n      iszero\n        /* \"@openzeppelin/contracts/token/ERC20/utils/SafeERC20.sol\":11413:11469  and(iszero(returndatasize()), gt(extcodesize(token), 0)) */\n      and\n        /* \"@openzeppelin/contracts/token/ERC20/utils/SafeERC20.sol\":11404:11411  success */\n      dup4\n        /* \"@openzeppelin/contracts/token/ERC20/utils/SafeERC20.sol\":11400:11470  and(success, and(iszero(returndatasize()), gt(extcodesize(token), 0))) */\n      and\n        /* \"@openzeppelin/contracts/token/ERC20/utils/SafeERC20.sol\":11389:11470  success := and(success, and(iszero(returndatasize()), gt(extcodesize(token), 0))) */\n      swap3\n      pop\n        /* \"@openzeppelin/contracts/token/ERC20/utils/SafeERC20.sol\":10878:11484  if iszero(and(success, eq(mload(0x00), 1))) {... */\n    tag_117:\n        /* \"@openzeppelin/contracts/token/ERC20/utils/SafeERC20.sol\":11510:11513  fmp */\n      dup1\n        /* \"@openzeppelin/contracts/token/ERC20/utils/SafeERC20.sol\":11504:11508  0x40 */\n      0x40\n        /* \"@openzeppelin/contracts/token/ERC20/utils/SafeERC20.sol\":11497:11514  mstore(0x40, fmp) */\n      mstore\n        /* \"@openzeppelin/contracts/token/ERC20/utils/SafeERC20.sol\":11540:11541  0 */\n      0x00\n        /* \"@openzeppelin/contracts/token/ERC20/utils/SafeERC20.sol\":11534:11538  0x60 */\n      0x60\n        /* \"@openzeppelin/contracts/token/ERC20/utils/SafeERC20.sol\":11527:11542  mstore(0x60, 0) */\n      mstore\n        /* \"@openzeppelin/contracts/token/ERC20/utils/SafeERC20.sol\":10429:11552  {... */\n      pop\n      pop\n        /* \"@openzeppelin/contracts/token/ERC20/utils/SafeERC20.sol\":10165:11558  function _safeTransferFrom(... */\n      swap6\n      swap5\n      pop\n      pop\n      pop\n      pop\n      pop\n      jump\t// out\n        /* \"#utility.yul\":7:84   */\n    tag_119:\n        /* \"#utility.yul\":44:51   */\n      0x00\n        /* \"#utility.yul\":73:78   */\n      dup2\n        /* \"#utility.yul\":62:78   */\n      swap1\n      pop\n        /* \"#utility.yul\":7:84   */\n      swap2\n      swap1\n      pop\n      jump\t// out\n        /* \"#utility.yul\":90:208   */\n    tag_120:\n        /* \"#utility.yul\":177:201   */\n      tag_145\n        /* \"#utility.yul\":195:200   */\n      dup2\n        /* \"#utility.yul\":177:201   */\n      tag_119\n      jump\t// in\n    tag_145:\n        /* \"#utility.yul\":172:175   */\n      dup3\n        /* \"#utility.yul\":165:202   */\n      mstore\n        /* \"#utility.yul\":90:208   */\n      pop\n      pop\n      jump\t// out\n        /* \"#utility.yul\":214:436   */\n    tag_18:\n        /* \"#utility.yul\":307:311   */\n      0x00\n        /* \"#utility.yul\":345:347   */\n      0x20\n        /* \"#utility.yul\":334:343   */\n      dup3\n        /* \"#utility.yul\":330:348   */\n      add\n        /* \"#utility.yul\":322:348   */\n      swap1\n      pop\n        /* \"#utility.yul\":358:429   */\n      tag_147\n        /* \"#utility.yul\":426:427   */\n      0x00\n        /* \"#utility.yul\":415:424   */\n      dup4\n        /* \"#utility.yul\":411:428   */\n      add\n        /* \"#utility.yul\":402:408   */\n      dup5\n        /* \"#utility.yul\":358:429   */\n      tag_120\n      jump\t// in\n    tag_147:\n        /* \"#utility.yul\":214:436   */\n      swap3\n      swap2\n      pop\n      pop\n      jump\t// out\n        /* \"#utility.yul\":442:568   */\n    tag_121:\n        /* \"#utility.yul\":479:486   */\n      0x00\n        /* \"#utility.yul\":519:561   */\n      0xffffffffffffffffffffffffffffffffffffffff\n        /* \"#utility.yul\":512:517   */\n      dup3\n        /* \"#utility.yul\":508:562   */\n      and\n        /* \"#utility.yul\":497:562   */\n      swap1\n      pop\n        /* \"#utility.yul\":442:568   */\n      swap2\n      swap1\n      pop\n      jump\t// out\n        /* \"#utility.yul\":574:670   */\n    tag_122:\n        /* \"#utility.yul\":611:618   */\n      0x00\n        /* \"#utility.yul\":640:664   */\n      tag_150\n        /* \"#utility.yul\":658:663   */\n      dup3\n        /* \"#utility.yul\":640:664   */\n      tag_121\n      jump\t// in\n    tag_150:\n        /* \"#utility.yul\":629:664   */\n      swap1\n      pop\n        /* \"#utility.yul\":574:670   */\n      swap2\n      swap1\n      pop\n      jump\t// out\n        /* \"#utility.yul\":676:794   */\n    tag_123:\n        /* \"#utility.yul\":763:787   */\n      tag_152\n        /* \"#utility.yul\":781:786   */\n      dup2\n        /* \"#utility.yul\":763:787   */\n      tag_122\n      jump\t// in\n    tag_152:\n        /* \"#utility.yul\":758:761   */\n      dup3\n        /* \"#utility.yul\":751:788   */\n      mstore\n        /* \"#utility.yul\":676:794   */\n      pop\n      pop\n      jump\t// out\n        /* \"#utility.yul\":800:1022   */\n    tag_25:\n        /* \"#utility.yul\":893:897   */\n      0x00\n        /* \"#utility.yul\":931:933   */\n      0x20\n        /* \"#utility.yul\":920:929   */\n      dup3\n        /* \"#utility.yul\":916:934   */\n      add\n        /* \"#utility.yul\":908:934   */\n      swap1\n      pop\n        /* \"#utility.yul\":944:1015   */\n      tag_154\n        /* \"#utility.yul\":1012:1013   */\n      0x00\n        /* \"#utility.yul\":1001:1010   */\n      dup4\n        /* \"#utility.yul\":997:1014   */\n      add\n        /* \"#utility.yul\":988:994   */\n      dup5\n        /* \"#utility.yul\":944:1015   */\n      tag_123\n      jump\t// in\n    tag_154:\n        /* \"#utility.yul\":800:1022   */\n      swap3\n      swap2\n      pop\n      pop\n      jump\t// out\n        /* \"#utility.yul\":1028:1088   */\n    tag_124:\n        /* \"#utility.yul\":1056:1059   */\n      0x00\n        /* \"#utility.yul\":1077:1082   */\n      dup2\n        /* \"#utility.yul\":1070:1082   */\n      swap1\n      pop\n        /* \"#utility.yul\":1028:1088   */\n      swap2\n      swap1\n      pop\n      jump\t// out\n        /* \"#utility.yul\":1094:1236   */\n    tag_125:\n        /* \"#utility.yul\":1144:1153   */\n      0x00\n        /* \"#utility.yul\":1177:1230   */\n      tag_157\n        /* \"#utility.yul\":1195:1229   */\n      tag_158\n        /* \"#utility.yul\":1204:1228   */\n      tag_159\n        /* \"#utility.yul\":1222:1227   */\n      dup5\n        /* \"#utility.yul\":1204:1228   */\n      tag_121\n      jump\t// in\n    tag_159:\n        /* \"#utility.yul\":1195:1229   */\n      tag_124\n      jump\t// in\n    tag_158:\n        /* \"#utility.yul\":1177:1230   */\n      tag_121\n      jump\t// in\n    tag_157:\n        /* \"#utility.yul\":1164:1230   */\n      swap1\n      pop\n        /* \"#utility.yul\":1094:1236   */\n      swap2\n      swap1\n      pop\n      jump\t// out\n        /* \"#utility.yul\":1242:1368   */\n    tag_126:\n        /* \"#utility.yul\":1292:1301   */\n      0x00\n        /* \"#utility.yul\":1325:1362   */\n      tag_161\n        /* \"#utility.yul\":1356:1361   */\n      dup3\n        /* \"#utility.yul\":1325:1362   */\n      tag_125\n      jump\t// in\n    tag_161:\n        /* \"#utility.yul\":1312:1362   */\n      swap1\n      pop\n        /* \"#utility.yul\":1242:1368   */\n      swap2\n      swap1\n      pop\n      jump\t// out\n        /* \"#utility.yul\":1374:1514   */\n    tag_127:\n        /* \"#utility.yul\":1438:1447   */\n      0x00\n        /* \"#utility.yul\":1471:1508   */\n      tag_163\n        /* \"#utility.yul\":1502:1507   */\n      dup3\n        /* \"#utility.yul\":1471:1508   */\n      tag_126\n      jump\t// in\n    tag_163:\n        /* \"#utility.yul\":1458:1508   */\n      swap1\n      pop\n        /* \"#utility.yul\":1374:1514   */\n      swap2\n      swap1\n      pop\n      jump\t// out\n        /* \"#utility.yul\":1520:1679   */\n    tag_128:\n        /* \"#utility.yul\":1621:1672   */\n      tag_165\n        /* \"#utility.yul\":1666:1671   */\n      dup2\n        /* \"#utility.yul\":1621:1672   */\n      tag_127\n      jump\t// in\n    tag_165:\n        /* \"#utility.yul\":1616:1619   */\n      dup3\n        /* \"#utility.yul\":1609:1673   */\n      mstore\n        /* \"#utility.yul\":1520:1679   */\n      pop\n      pop\n      jump\t// out\n        /* \"#utility.yul\":1685:1935   */\n    tag_31:\n        /* \"#utility.yul\":1792:1796   */\n      0x00\n        /* \"#utility.yul\":1830:1832   */\n      0x20\n        /* \"#utility.yul\":1819:1828   */\n      dup3\n        /* \"#utility.yul\":1815:1833   */\n      add\n        /* \"#utility.yul\":1807:1833   */\n      swap1\n      pop\n        /* \"#utility.yul\":1843:1928   */\n      tag_167\n        /* \"#utility.yul\":1925:1926   */\n      0x00\n        /* \"#utility.yul\":1914:1923   */\n      dup4\n        /* \"#utility.yul\":1910:1927   */\n      add\n        /* \"#utility.yul\":1901:1907   */\n      dup5\n        /* \"#utility.yul\":1843:1928   */\n      tag_128\n      jump\t// in\n    tag_167:\n        /* \"#utility.yul\":1685:1935   */\n      swap3\n      swap2\n      pop\n      pop\n      jump\t// out\n        /* \"#utility.yul\":2022:2139   */\n    tag_130:\n        /* \"#utility.yul\":2131:2132   */\n      0x00\n        /* \"#utility.yul\":2128:2129   */\n      0x00\n        /* \"#utility.yul\":2121:2133   */\n      revert\n        /* \"#utility.yul\":2268:2390   */\n    tag_132:\n        /* \"#utility.yul\":2341:2365   */\n      tag_172\n        /* \"#utility.yul\":2359:2364   */\n      dup2\n        /* \"#utility.yul\":2341:2365   */\n      tag_119\n      jump\t// in\n    tag_172:\n        /* \"#utility.yul\":2334:2339   */\n      dup2\n        /* \"#utility.yul\":2331:2366   */\n      eq\n        /* \"#utility.yul\":2321:2384   */\n      tag_173\n      jumpi\n        /* \"#utility.yul\":2380:2381   */\n      0x00\n        /* \"#utility.yul\":2377:2378   */\n      0x00\n        /* \"#utility.yul\":2370:2382   */\n      revert\n        /* \"#utility.yul\":2321:2384   */\n    tag_173:\n        /* \"#utility.yul\":2268:2390   */\n      pop\n      jump\t// out\n        /* \"#utility.yul\":2396:2535   */\n    tag_133:\n        /* \"#utility.yul\":2442:2447   */\n      0x00\n        /* \"#utility.yul\":2480:2486   */\n      dup2\n        /* \"#utility.yul\":2467:2487   */\n      calldataload\n        /* \"#utility.yul\":2458:2487   */\n      swap1\n      pop\n        /* \"#utility.yul\":2496:2529   */\n      tag_175\n        /* \"#utility.yul\":2523:2528   */\n      dup2\n        /* \"#utility.yul\":2496:2529   */\n      tag_132\n      jump\t// in\n    tag_175:\n        /* \"#utility.yul\":2396:2535   */\n      swap3\n      swap2\n      pop\n      pop\n      jump\t// out\n        /* \"#utility.yul\":2541:3160   */\n    tag_37:\n        /* \"#utility.yul\":2618:2624   */\n      0x00\n        /* \"#utility.yul\":2626:2632   */\n      0x00\n        /* \"#utility.yul\":2634:2640   */\n      0x00\n        /* \"#utility.yul\":2683:2685   */\n      0x60\n        /* \"#utility.yul\":2671:2680   */\n      dup5\n        /* \"#utility.yul\":2662:2669   */\n      dup7\n        /* \"#utility.yul\":2658:2681   */\n      sub\n        /* \"#utility.yul\":2654:2686   */\n      slt\n        /* \"#utility.yul\":2651:2770   */\n      iszero\n      tag_177\n      jumpi\n        /* \"#utility.yul\":2689:2768   */\n      tag_178\n      tag_130\n      jump\t// in\n    tag_178:\n        /* \"#utility.yul\":2651:2770   */\n    tag_177:\n        /* \"#utility.yul\":2809:2810   */\n      0x00\n        /* \"#utility.yul\":2834:2887   */\n      tag_179\n        /* \"#utility.yul\":2879:2886   */\n      dup7\n        /* \"#utility.yul\":2870:2876   */\n      dup3\n        /* \"#utility.yul\":2859:2868   */\n      dup8\n        /* \"#utility.yul\":2855:2877   */\n      add\n        /* \"#utility.yul\":2834:2887   */\n      tag_133\n      jump\t// in\n    tag_179:\n        /* \"#utility.yul\":2824:2887   */\n      swap4\n      pop\n        /* \"#utility.yul\":2780:2897   */\n      pop\n        /* \"#utility.yul\":2936:2938   */\n      0x20\n        /* \"#utility.yul\":2962:3015   */\n      tag_180\n        /* \"#utility.yul\":3007:3014   */\n      dup7\n        /* \"#utility.yul\":2998:3004   */\n      dup3\n        /* \"#utility.yul\":2987:2996   */\n      dup8\n        /* \"#utility.yul\":2983:3005   */\n      add\n        /* \"#utility.yul\":2962:3015   */\n      tag_133\n      jump\t// in\n    tag_180:\n        /* \"#utility.yul\":2952:3015   */\n      swap3\n      pop\n        /* \"#utility.yul\":2907:3025   */\n      pop\n        /* \"#utility.yul\":3064:3066   */\n      0x40\n        /* \"#utility.yul\":3090:3143   */\n      tag_181\n        /* \"#utility.yul\":3135:3142   */\n      dup7\n        /* \"#utility.yul\":3126:3132   */\n      dup3\n        /* \"#utility.yul\":3115:3124   */\n      dup8\n        /* \"#utility.yul\":3111:3133   */\n      add\n        /* \"#utility.yul\":3090:3143   */\n      tag_133\n      jump\t// in\n    tag_181:\n        /* \"#utility.yul\":3080:3143   */\n      swap2\n      pop\n        /* \"#utility.yul\":3035:3153   */\n      pop\n        /* \"#utility.yul\":2541:3160   */\n      swap3\n      pop\n      swap3\n      pop\n      swap3\n      jump\t// out\n        /* \"#utility.yul\":3166:3288   */\n    tag_134:\n        /* \"#utility.yul\":3239:3263   */\n      tag_183\n        /* \"#utility.yul\":3257:3262   */\n      dup2\n        /* \"#utility.yul\":3239:3263   */\n      tag_122\n      jump\t// in\n    tag_183:\n        /* \"#utility.yul\":3232:3237   */\n      dup2\n        /* \"#utility.yul\":3229:3264   */\n      eq\n        /* \"#utility.yul\":3219:3282   */\n      tag_184\n      jumpi\n        /* \"#utility.yul\":3278:3279   */\n      0x00\n        /* \"#utility.yul\":3275:3276   */\n      0x00\n        /* \"#utility.yul\":3268:3280   */\n      revert\n        /* \"#utility.yul\":3219:3282   */\n    tag_184:\n        /* \"#utility.yul\":3166:3288   */\n      pop\n      jump\t// out\n        /* \"#utility.yul\":3294:3433   */\n    tag_135:\n        /* \"#utility.yul\":3340:3345   */\n      0x00\n        /* \"#utility.yul\":3378:3384   */\n      dup2\n        /* \"#utility.yul\":3365:3385   */\n      calldataload\n        /* \"#utility.yul\":3356:3385   */\n      swap1\n      pop\n        /* \"#utility.yul\":3394:3427   */\n      tag_186\n        /* \"#utility.yul\":3421:3426   */\n      dup2\n        /* \"#utility.yul\":3394:3427   */\n      tag_134\n      jump\t// in\n    tag_186:\n        /* \"#utility.yul\":3294:3433   */\n      swap3\n      swap2\n      pop\n      pop\n      jump\t// out\n        /* \"#utility.yul\":3439:3768   */\n    tag_47:\n        /* \"#utility.yul\":3498:3504   */\n      0x00\n        /* \"#utility.yul\":3547:3549   */\n      0x20\n        /* \"#utility.yul\":3535:3544   */\n      dup3\n        /* \"#utility.yul\":3526:3533   */\n      dup5\n        /* \"#utility.yul\":3522:3545   */\n      sub\n        /* \"#utility.yul\":3518:3550   */\n      slt\n        /* \"#utility.yul\":3515:3634   */\n      iszero\n      tag_188\n      jumpi\n        /* \"#utility.yul\":3553:3632   */\n      tag_189\n      tag_130\n      jump\t// in\n    tag_189:\n        /* \"#utility.yul\":3515:3634   */\n    tag_188:\n        /* \"#utility.yul\":3673:3674   */\n      0x00\n        /* \"#utility.yul\":3698:3751   */\n      tag_190\n        /* \"#utility.yul\":3743:3750   */\n      dup5\n        /* \"#utility.yul\":3734:3740   */\n      dup3\n        /* \"#utility.yul\":3723:3732   */\n      dup6\n        /* \"#utility.yul\":3719:3741   */\n      add\n        /* \"#utility.yul\":3698:3751   */\n      tag_135\n      jump\t// in\n    tag_190:\n        /* \"#utility.yul\":3688:3751   */\n      swap2\n      pop\n        /* \"#utility.yul\":3644:3761   */\n      pop\n        /* \"#utility.yul\":3439:3768   */\n      swap3\n      swap2\n      pop\n      pop\n      jump\t// out\n        /* \"#utility.yul\":3774:3943   */\n    tag_136:\n        /* \"#utility.yul\":3858:3869   */\n      0x00\n        /* \"#utility.yul\":3892:3898   */\n      dup3\n        /* \"#utility.yul\":3887:3890   */\n      dup3\n        /* \"#utility.yul\":3880:3899   */\n      mstore\n        /* \"#utility.yul\":3932:3936   */\n      0x20\n        /* \"#utility.yul\":3927:3930   */\n      dup3\n        /* \"#utility.yul\":3923:3937   */\n      add\n        /* \"#utility.yul\":3908:3937   */\n      swap1\n      pop\n        /* \"#utility.yul\":3774:3943   */\n      swap3\n      swap2\n      pop\n      pop\n      jump\t// out\n        /* \"#utility.yul\":3949:4125   */\n    tag_137:\n        /* \"#utility.yul\":4089:4117   */\n      0x4d75737420627579206174206c65617374206f6e65206974656d000000000000\n        /* \"#utility.yul\":4085:4086   */\n      0x00\n        /* \"#utility.yul\":4077:4083   */\n      dup3\n        /* \"#utility.yul\":4073:4087   */\n      add\n        /* \"#utility.yul\":4066:4118   */\n      mstore\n        /* \"#utility.yul\":3949:4125   */\n      pop\n      jump\t// out\n        /* \"#utility.yul\":4131:4497   */\n    tag_138:\n        /* \"#utility.yul\":4273:4276   */\n      0x00\n        /* \"#utility.yul\":4294:4361   */\n      tag_194\n        /* \"#utility.yul\":4358:4360   */\n      0x1a\n        /* \"#utility.yul\":4353:4356   */\n      dup4\n        /* \"#utility.yul\":4294:4361   */\n      tag_136\n      jump\t// in\n    tag_194:\n        /* \"#utility.yul\":4287:4361   */\n      swap2\n      pop\n        /* \"#utility.yul\":4370:4463   */\n      tag_195\n        /* \"#utility.yul\":4459:4462   */\n      dup3\n        /* \"#utility.yul\":4370:4463   */\n      tag_137\n      jump\t// in\n    tag_195:\n        /* \"#utility.yul\":4488:4490   */\n      0x20\n        /* \"#utility.yul\":4483:4486   */\n      dup3\n        /* \"#utility.yul\":4479:4491   */\n      add\n        /* \"#utility.yul\":4472:4491   */\n      swap1\n      pop\n        /* \"#utility.yul\":4131:4497   */\n      swap2\n      swap1\n      pop\n      jump\t// out\n        /* \"#utility.yul\":4503:4922   */\n    tag_67:\n        /* \"#utility.yul\":4669:4673   */\n      0x00\n        /* \"#utility.yul\":4707:4709   */\n      0x20\n        /* \"#utility.yul\":4696:4705   */\n      dup3\n        /* \"#utility.yul\":4692:4710   */\n      add\n        /* \"#utility.yul\":4684:4710   */\n      swap1\n      pop\n        /* \"#utility.yul\":4756:4765   */\n      dup2\n        /* \"#utility.yul\":4750:4754   */\n      dup2\n        /* \"#utility.yul\":4746:4766   */\n      sub\n        /* \"#utility.yul\":4742:4743   */\n      0x00\n        /* \"#utility.yul\":4731:4740   */\n      dup4\n        /* \"#utility.yul\":4727:4744   */\n      add\n        /* \"#utility.yul\":4720:4767   */\n      mstore\n        /* \"#utility.yul\":4784:4915   */\n      tag_197\n        /* \"#utility.yul\":4910:4914   */\n      dup2\n        /* \"#utility.yul\":4784:4915   */\n      tag_138\n      jump\t// in\n    tag_197:\n        /* \"#utility.yul\":4776:4915   */\n      swap1\n      pop\n        /* \"#utility.yul\":4503:4922   */\n      swap2\n      swap1\n      pop\n      jump\t// out\n        /* \"#utility.yul\":4928:5108   */\n    tag_139:\n        /* \"#utility.yul\":4976:5053   */\n      0x4e487b7100000000000000000000000000000000000000000000000000000000\n        /* \"#utility.yul\":4973:4974   */\n      0x00\n        /* \"#utility.yul\":4966:5054   */\n      mstore\n        /* \"#utility.yul\":5073:5077   */\n      0x11\n        /* \"#utility.yul\":5070:5071   */\n      0x04\n        /* \"#utility.yul\":5063:5078   */\n      mstore\n        /* \"#utility.yul\":5097:5101   */\n      0x24\n        /* \"#utility.yul\":5094:5095   */\n      0x00\n        /* \"#utility.yul\":5087:5102   */\n      revert\n        /* \"#utility.yul\":5114:5524   */\n    tag_69:\n        /* \"#utility.yul\":5154:5161   */\n      0x00\n        /* \"#utility.yul\":5177:5197   */\n      tag_200\n        /* \"#utility.yul\":5195:5196   */\n      dup3\n        /* \"#utility.yul\":5177:5197   */\n      tag_119\n      jump\t// in\n    tag_200:\n        /* \"#utility.yul\":5172:5197   */\n      swap2\n      pop\n        /* \"#utility.yul\":5211:5231   */\n      tag_201\n        /* \"#utility.yul\":5229:5230   */\n      dup4\n        /* \"#utility.yul\":5211:5231   */\n      tag_119\n      jump\t// in\n    tag_201:\n        /* \"#utility.yul\":5206:5231   */\n      swap3\n      pop\n        /* \"#utility.yul\":5266:5267   */\n      dup3\n        /* \"#utility.yul\":5263:5264   */\n      dup3\n        /* \"#utility.yul\":5259:5268   */\n      mul\n        /* \"#utility.yul\":5288:5318   */\n      tag_202\n        /* \"#utility.yul\":5306:5317   */\n      dup2\n        /* \"#utility.yul\":5288:5318   */\n      tag_119\n      jump\t// in\n    tag_202:\n        /* \"#utility.yul\":5277:5318   */\n      swap2\n      pop\n        /* \"#utility.yul\":5467:5468   */\n      dup3\n        /* \"#utility.yul\":5458:5465   */\n      dup3\n        /* \"#utility.yul\":5454:5469   */\n      div\n        /* \"#utility.yul\":5451:5452   */\n      dup5\n        /* \"#utility.yul\":5448:5470   */\n      eq\n        /* \"#utility.yul\":5428:5429   */\n      dup4\n        /* \"#utility.yul\":5421:5430   */\n      iszero\n        /* \"#utility.yul\":5401:5484   */\n      or\n        /* \"#utility.yul\":5378:5517   */\n      tag_203\n      jumpi\n        /* \"#utility.yul\":5497:5515   */\n      tag_204\n      tag_139\n      jump\t// in\n    tag_204:\n        /* \"#utility.yul\":5378:5517   */\n    tag_203:\n        /* \"#utility.yul\":5162:5524   */\n      pop\n        /* \"#utility.yul\":5114:5524   */\n      swap3\n      swap2\n      pop\n      pop\n      jump\t// out\n        /* \"#utility.yul\":5530:5721   */\n    tag_73:\n        /* \"#utility.yul\":5570:5573   */\n      0x00\n        /* \"#utility.yul\":5589:5609   */\n      tag_206\n        /* \"#utility.yul\":5607:5608   */\n      dup3\n        /* \"#utility.yul\":5589:5609   */\n      tag_119\n      jump\t// in\n    tag_206:\n        /* \"#utility.yul\":5584:5609   */\n      swap2\n      pop\n        /* \"#utility.yul\":5623:5643   */\n      tag_207\n        /* \"#utility.yul\":5641:5642   */\n      dup4\n        /* \"#utility.yul\":5623:5643   */\n      tag_119\n      jump\t// in\n    tag_207:\n        /* \"#utility.yul\":5618:5643   */\n      swap3\n      pop\n        /* \"#utility.yul\":5666:5667   */\n      dup3\n        /* \"#utility.yul\":5663:5664   */\n      dup3\n        /* \"#utility.yul\":5659:5668   */\n      add\n        /* \"#utility.yul\":5652:5668   */\n      swap1\n      pop\n        /* \"#utility.yul\":5687:5690   */\n      dup1\n        /* \"#utility.yul\":5684:5685   */\n      dup3\n        /* \"#utility.yul\":5681:5691   */\n      gt\n        /* \"#utility.yul\":5678:5714   */\n      iszero\n      tag_208\n      jumpi\n        /* \"#utility.yul\":5694:5712   */\n      tag_209\n      tag_139\n      jump\t// in\n    tag_209:\n        /* \"#utility.yul\":5678:5714   */\n    tag_208:\n        /* \"#utility.yul\":5530:5721   */\n      swap3\n      swap2\n      pop\n      pop\n      jump\t// out\n        /* \"#utility.yul\":5727:6280   */\n    tag_78:\n        /* \"#utility.yul\":5904:5908   */\n      0x00\n        /* \"#utility.yul\":5942:5945   */\n      0x80\n        /* \"#utility.yul\":5931:5940   */\n      dup3\n        /* \"#utility.yul\":5927:5946   */\n      add\n        /* \"#utility.yul\":5919:5946   */\n      swap1\n      pop\n        /* \"#utility.yul\":5956:6027   */\n      tag_211\n        /* \"#utility.yul\":6024:6025   */\n      0x00\n        /* \"#utility.yul\":6013:6022   */\n      dup4\n        /* \"#utility.yul\":6009:6026   */\n      add\n        /* \"#utility.yul\":6000:6006   */\n      dup8\n        /* \"#utility.yul\":5956:6027   */\n      tag_120\n      jump\t// in\n    tag_211:\n        /* \"#utility.yul\":6037:6109   */\n      tag_212\n        /* \"#utility.yul\":6105:6107   */\n      0x20\n        /* \"#utility.yul\":6094:6103   */\n      dup4\n        /* \"#utility.yul\":6090:6108   */\n      add\n        /* \"#utility.yul\":6081:6087   */\n      dup7\n        /* \"#utility.yul\":6037:6109   */\n      tag_120\n      jump\t// in\n    tag_212:\n        /* \"#utility.yul\":6119:6191   */\n      tag_213\n        /* \"#utility.yul\":6187:6189   */\n      0x40\n        /* \"#utility.yul\":6176:6185   */\n      dup4\n        /* \"#utility.yul\":6172:6190   */\n      add\n        /* \"#utility.yul\":6163:6169   */\n      dup6\n        /* \"#utility.yul\":6119:6191   */\n      tag_120\n      jump\t// in\n    tag_213:\n        /* \"#utility.yul\":6201:6273   */\n      tag_214\n        /* \"#utility.yul\":6269:6271   */\n      0x60\n        /* \"#utility.yul\":6258:6267   */\n      dup4\n        /* \"#utility.yul\":6254:6272   */\n      add\n        /* \"#utility.yul\":6245:6251   */\n      dup5\n        /* \"#utility.yul\":6201:6273   */\n      tag_120\n      jump\t// in\n    tag_214:\n        /* \"#utility.yul\":5727:6280   */\n      swap6\n      swap5\n      pop\n      pop\n      pop\n      pop\n      pop\n      jump\t// out\n        /* \"#utility.yul\":6286:6728   */\n    tag_85:\n        /* \"#utility.yul\":6435:6439   */\n      0x00\n        /* \"#utility.yul\":6473:6475   */\n      0x60\n        /* \"#utility.yul\":6462:6471   */\n      dup3\n        /* \"#utility.yul\":6458:6476   */\n      add\n        /* \"#utility.yul\":6450:6476   */\n      swap1\n      pop\n        /* \"#utility.yul\":6486:6557   */\n      tag_216\n        /* \"#utility.yul\":6554:6555   */\n      0x00\n        /* \"#utility.yul\":6543:6552   */\n      dup4\n        /* \"#utility.yul\":6539:6556   */\n      add\n        /* \"#utility.yul\":6530:6536   */\n      dup7\n        /* \"#utility.yul\":6486:6557   */\n      tag_120\n      jump\t// in\n    tag_216:\n        /* \"#utility.yul\":6567:6639   */\n      tag_217\n        /* \"#utility.yul\":6635:6637   */\n      0x20\n        /* \"#utility.yul\":6624:6633   */\n      dup4\n        /* \"#utility.yul\":6620:6638   */\n      add\n        /* \"#utility.yul\":6611:6617   */\n      dup6\n        /* \"#utility.yul\":6567:6639   */\n      tag_120\n      jump\t// in\n    tag_217:\n        /* \"#utility.yul\":6649:6721   */\n      tag_218\n        /* \"#utility.yul\":6717:6719   */\n      0x40\n        /* \"#utility.yul\":6706:6715   */\n      dup4\n        /* \"#utility.yul\":6702:6720   */\n      add\n        /* \"#utility.yul\":6693:6699   */\n      dup5\n        /* \"#utility.yul\":6649:6721   */\n      tag_120\n      jump\t// in\n    tag_218:\n        /* \"#utility.yul\":6286:6728   */\n      swap5\n      swap4\n      pop\n      pop\n      pop\n      pop\n      jump\t// out\n        /* \"#utility.yul\":6734:6908   */\n    tag_140:\n        /* \"#utility.yul\":6874:6900   */\n      0x496e76616c696420747265617375727920616464726573730000000000000000\n        /* \"#utility.yul\":6870:6871   */\n      0x00\n        /* \"#utility.yul\":6862:6868   */\n      dup3\n        /* \"#utility.yul\":6858:6872   */\n      add\n        /* \"#utility.yul\":6851:6901   */\n      mstore\n        /* \"#utility.yul\":6734:6908   */\n      pop\n      jump\t// out\n        /* \"#utility.yul\":6914:7280   */\n    tag_141:\n        /* \"#utility.yul\":7056:7059   */\n      0x00\n        /* \"#utility.yul\":7077:7144   */\n      tag_221\n        /* \"#utility.yul\":7141:7143   */\n      0x18\n        /* \"#utility.yul\":7136:7139   */\n      dup4\n        /* \"#utility.yul\":7077:7144   */\n      tag_136\n      jump\t// in\n    tag_221:\n        /* \"#utility.yul\":7070:7144   */\n      swap2\n      pop\n        /* \"#utility.yul\":7153:7246   */\n      tag_222\n        /* \"#utility.yul\":7242:7245   */\n      dup3\n        /* \"#utility.yul\":7153:7246   */\n      tag_140\n      jump\t// in\n    tag_222:\n        /* \"#utility.yul\":7271:7273   */\n      0x20\n        /* \"#utility.yul\":7266:7269   */\n      dup3\n        /* \"#utility.yul\":7262:7274   */\n      add\n        /* \"#utility.yul\":7255:7274   */\n      swap1\n      pop\n        /* \"#utility.yul\":6914:7280   */\n      swap2\n      swap1\n      pop\n      jump\t// out\n        /* \"#utility.yul\":7286:7705   */\n    tag_91:\n        /* \"#utility.yul\":7452:7456   */\n      0x00\n        /* \"#utility.yul\":7490:7492   */\n      0x20\n        /* \"#utility.yul\":7479:7488   */\n      dup3\n        /* \"#utility.yul\":7475:7493   */\n      add\n        /* \"#utility.yul\":7467:7493   */\n      swap1\n      pop\n        /* \"#utility.yul\":7539:7548   */\n      dup2\n        /* \"#utility.yul\":7533:7537   */\n      dup2\n        /* \"#utility.yul\":7529:7549   */\n      sub\n        /* \"#utility.yul\":7525:7526   */\n      0x00\n        /* \"#utility.yul\":7514:7523   */\n      dup4\n        /* \"#utility.yul\":7510:7527   */\n      add\n        /* \"#utility.yul\":7503:7550   */\n      mstore\n        /* \"#utility.yul\":7567:7698   */\n      tag_224\n        /* \"#utility.yul\":7693:7697   */\n      dup2\n        /* \"#utility.yul\":7567:7698   */\n      tag_141\n      jump\t// in\n    tag_224:\n        /* \"#utility.yul\":7559:7698   */\n      swap1\n      pop\n        /* \"#utility.yul\":7286:7705   */\n      swap2\n      swap1\n      pop\n      jump\t// out\n\n    auxdata: 0xa2646970667358221220e0fe30c9096ec128838ddd03d0f25bdce359450f5ffd8db291dec198cf2eff5164736f6c634300081f0033\n}\n",
				"bytecode": {
					"linkReferences": {},
					"object": "608060405268056bc75e2d63100000600455681b1ae4d6e2ef50000060055568056bc75e2d63100000600655348015610036575f5ffd5b506040516110c83803806110c883398181016040528101906100589190610362565b335f73ffffffffffffffffffffffffffffffffffffffff168173ffffffffffffffffffffffffffffffffffffffff16036100c9575f6040517f1e4fbdf70000000000000000000000000000000000000000000000000000000081526004016100c091906103af565b60405180910390fd5b6100d88161024360201b60201c565b50600180819055505f73ffffffffffffffffffffffffffffffffffffffff168273ffffffffffffffffffffffffffffffffffffffff160361014e576040517f08c379a000000000000000000000000000000000000000000000000000000000815260040161014590610422565b60405180910390fd5b5f73ffffffffffffffffffffffffffffffffffffffff168173ffffffffffffffffffffffffffffffffffffffff16036101bc576040517f08c379a00000000000000000000000000000000000000000000000000000000081526004016101b39061048a565b60405180910390fd5b8160025f6101000a81548173ffffffffffffffffffffffffffffffffffffffff021916908373ffffffffffffffffffffffffffffffffffffffff1602179055508060035f6101000a81548173ffffffffffffffffffffffffffffffffffffffff021916908373ffffffffffffffffffffffffffffffffffffffff16021790555050506104a8565b5f5f5f9054906101000a900473ffffffffffffffffffffffffffffffffffffffff169050815f5f6101000a81548173ffffffffffffffffffffffffffffffffffffffff021916908373ffffffffffffffffffffffffffffffffffffffff1602179055508173ffffffffffffffffffffffffffffffffffffffff168173ffffffffffffffffffffffffffffffffffffffff167f8be0079c531659141344cd1fd0a4f28419497f9722a3daafe3b4186f6b6457e060405160405180910390a35050565b5f5ffd5b5f73ffffffffffffffffffffffffffffffffffffffff82169050919050565b5f61033182610308565b9050919050565b61034181610327565b811461034b575f5ffd5b50565b5f8151905061035c81610338565b92915050565b5f5f6040838503121561037857610377610304565b5b5f6103858582860161034e565b92505060206103968582860161034e565b9150509250929050565b6103a981610327565b82525050565b5f6020820190506103c25f8301846103a0565b92915050565b5f82825260208201905092915050565b7f496e76616c696420746f6b656e206164647265737300000000000000000000005f82015250565b5f61040c6015836103c8565b9150610417826103d8565b602082019050919050565b5f6020820190508181035f83015261043981610400565b9050919050565b7f496e76616c6964207472656173757279206164647265737300000000000000005f82015250565b5f6104746018836103c8565b915061047f82610440565b602082019050919050565b5f6020820190508181035f8301526104a181610468565b9050919050565b610c13806104b55f395ff3fe608060405234801561000f575f5ffd5b50600436106100a7575f3560e01c80638da5cb5b1161006f5780638da5cb5b1461012d578063a615bf571461014b578063a88fe42d14610167578063ac6510be14610183578063f0f44260146101a1578063f2fde38b146101bd576100a7565b806308672099146100ab5780630abc747c146100c957806361d027b3146100e7578063715018a6146101055780638455d8d51461010f575b5f5ffd5b6100b36101d9565b6040516100c0919061082c565b60405180910390f35b6100d16101df565b6040516100de919061082c565b60405180910390f35b6100ef6101e5565b6040516100fc9190610884565b60405180910390f35b61010d61020a565b005b61011761021d565b60405161012491906108f8565b60405180910390f35b610135610242565b6040516101429190610884565b60405180910390f35b6101656004803603810190610160919061093f565b610269565b005b610181600480360381019061017c919061093f565b6103d9565b005b61018b610436565b604051610198919061082c565b60405180910390f35b6101bb60048036038101906101b691906109b9565b61043c565b005b6101d760048036038101906101d291906109b9565b61052c565b005b60065481565b60055481565b60035f9054906101000a900473ffffffffffffffffffffffffffffffffffffffff1681565b6102126105b0565b61021b5f610637565b565b60025f9054906101000a900473ffffffffffffffffffffffffffffffffffffffff1681565b5f5f5f9054906101000a900473ffffffffffffffffffffffffffffffffffffffff16905090565b6102716106f8565b5f83118061027e57505f82115b8061028857505f81115b6102c7576040517f08c379a00000000000000000000000000000000000000000000000000000000081526004016102be90610a3e565b60405180910390fd5b5f600654826102d69190610a89565b600554846102e49190610a89565b600454866102f29190610a89565b6102fc9190610aca565b6103069190610aca565b90506103773360035f9054906101000a900473ffffffffffffffffffffffffffffffffffffffff168360025f9054906101000a900473ffffffffffffffffffffffffffffffffffffffff1673ffffffffffffffffffffffffffffffffffffffff1661073e909392919063ffffffff16565b3373ffffffffffffffffffffffffffffffffffffffff167f1bb5a72378b1155ec85a388664cad255933833d9e7d480ad419bc707ac7c9b54858585856040516103c39493929190610afd565b60405180910390a2506103d4610793565b505050565b6103e16105b0565b8260048190555081600581905550806006819055507fa6b830b74e52d7d1140e76252f225dc7bed28782519845600bbd3182341dc11583838360405161042993929190610b40565b60405180910390a1505050565b60045481565b6104446105b0565b5f73ffffffffffffffffffffffffffffffffffffffff168173ffffffffffffffffffffffffffffffffffffffff16036104b2576040517f08c379a00000000000000000000000000000000000000000000000000000000081526004016104a990610bbf565b60405180910390fd5b8060035f6101000a81548173ffffffffffffffffffffffffffffffffffffffff021916908373ffffffffffffffffffffffffffffffffffffffff1602179055507f7dae230f18360d76a040c81f050aa14eb9d6dc7901b20fc5d855e2a20fe814d1816040516105219190610884565b60405180910390a150565b6105346105b0565b5f73ffffffffffffffffffffffffffffffffffffffff168173ffffffffffffffffffffffffffffffffffffffff16036105a4575f6040517f1e4fbdf700000000000000000000000000000000000000000000000000000000815260040161059b9190610884565b60405180910390fd5b6105ad81610637565b50565b6105b861079c565b73ffffffffffffffffffffffffffffffffffffffff166105d6610242565b73ffffffffffffffffffffffffffffffffffffffff1614610635576105f961079c565b6040517f118cdaa700000000000000000000000000000000000000000000000000000000815260040161062c9190610884565b60405180910390fd5b565b5f5f5f9054906101000a900473ffffffffffffffffffffffffffffffffffffffff169050815f5f6101000a81548173ffffffffffffffffffffffffffffffffffffffff021916908373ffffffffffffffffffffffffffffffffffffffff1602179055508173ffffffffffffffffffffffffffffffffffffffff168173ffffffffffffffffffffffffffffffffffffffff167f8be0079c531659141344cd1fd0a4f28419497f9722a3daafe3b4186f6b6457e060405160405180910390a35050565b600260015403610734576040517f3ee5aeb500000000000000000000000000000000000000000000000000000000815260040160405180910390fd5b6002600181905550565b61074c8484848460016107a3565b61078d57836040517f5274afe70000000000000000000000000000000000000000000000000000000081526004016107849190610884565b60405180910390fd5b50505050565b60018081905550565b5f33905090565b5f5f6323b872dd60e01b9050604051815f525f1960601c87166004525f1960601c86166024528460445260205f60645f5f8c5af1925060015f511483166108015783831516156107f5573d5f823e3d81fd5b5f883b113d1516831692505b806040525f606052505095945050505050565b5f819050919050565b61082681610814565b82525050565b5f60208201905061083f5f83018461081d565b92915050565b5f73ffffffffffffffffffffffffffffffffffffffff82169050919050565b5f61086e82610845565b9050919050565b61087e81610864565b82525050565b5f6020820190506108975f830184610875565b92915050565b5f819050919050565b5f6108c06108bb6108b684610845565b61089d565b610845565b9050919050565b5f6108d1826108a6565b9050919050565b5f6108e2826108c7565b9050919050565b6108f2816108d8565b82525050565b5f60208201905061090b5f8301846108e9565b92915050565b5f5ffd5b61091e81610814565b8114610928575f5ffd5b50565b5f8135905061093981610915565b92915050565b5f5f5f6060848603121561095657610955610911565b5b5f6109638682870161092b565b93505060206109748682870161092b565b92505060406109858682870161092b565b9150509250925092565b61099881610864565b81146109a2575f5ffd5b50565b5f813590506109b38161098f565b92915050565b5f602082840312156109ce576109cd610911565b5b5f6109db848285016109a5565b91505092915050565b5f82825260208201905092915050565b7f4d75737420627579206174206c65617374206f6e65206974656d0000000000005f82015250565b5f610a28601a836109e4565b9150610a33826109f4565b602082019050919050565b5f6020820190508181035f830152610a5581610a1c565b9050919050565b7f4e487b71000000000000000000000000000000000000000000000000000000005f52601160045260245ffd5b5f610a9382610814565b9150610a9e83610814565b9250828202610aac81610814565b91508282048414831517610ac357610ac2610a5c565b5b5092915050565b5f610ad482610814565b9150610adf83610814565b9250828201905080821115610af757610af6610a5c565b5b92915050565b5f608082019050610b105f83018761081d565b610b1d602083018661081d565b610b2a604083018561081d565b610b37606083018461081d565b95945050505050565b5f606082019050610b535f83018661081d565b610b60602083018561081d565b610b6d604083018461081d565b949350505050565b7f496e76616c6964207472656173757279206164647265737300000000000000005f82015250565b5f610ba96018836109e4565b9150610bb482610b75565b602082019050919050565b5f6020820190508181035f830152610bd681610b9d565b905091905056fea2646970667358221220e0fe30c9096ec128838ddd03d0f25bdce359450f5ffd8db291dec198cf2eff5164736f6c634300081f0033",
					"opcodes": "PUSH1 0x80 PUSH1 0x40 MSTORE PUSH9 0x56BC75E2D63100000 PUSH1 0x4 SSTORE PUSH9 0x1B1AE4D6E2EF500000 PUSH1 0x5 SSTORE PUSH9 0x56BC75E2D63100000 PUSH1 0x6 SSTORE CALLVALUE DUP1 ISZERO PUSH2 0x36 JUMPI PUSH0 PUSH0 REVERT JUMPDEST POP PUSH1 0x40 MLOAD PUSH2 0x10C8 CODESIZE SUB DUP1 PUSH2 0x10C8 DUP4 CODECOPY DUP2 DUP2 ADD PUSH1 0x40 MSTORE DUP2 ADD SWAP1 PUSH2 0x58 SWAP2 SWAP1 PUSH2 0x362 JUMP JUMPDEST CALLER PUSH0 PUSH20 0xFFFFFFFFFFFFFFFFFFFFFFFFFFFFFFFFFFFFFFFF AND DUP2 PUSH20 0xFFFFFFFFFFFFFFFFFFFFFFFFFFFFFFFFFFFFFFFF AND SUB PUSH2 0xC9 JUMPI PUSH0 PUSH1 0x40 MLOAD PUSH32 0x1E4FBDF700000000000000000000000000000000000000000000000000000000 DUP2 MSTORE PUSH1 0x4 ADD PUSH2 0xC0 SWAP2 SWAP1 PUSH2 0x3AF JUMP JUMPDEST PUSH1 0x40 MLOAD DUP1 SWAP2 SUB SWAP1 REVERT JUMPDEST PUSH2 0xD8 DUP2 PUSH2 0x243 PUSH1 0x20 SHL PUSH1 0x20 SHR JUMP JUMPDEST POP PUSH1 0x1 DUP1 DUP2 SWAP1 SSTORE POP PUSH0 PUSH20 0xFFFFFFFFFFFFFFFFFFFFFFFFFFFFFFFFFFFFFFFF AND DUP3 PUSH20 0xFFFFFFFFFFFFFFFFFFFFFFFFFFFFFFFFFFFFFFFF AND SUB PUSH2 0x14E JUMPI PUSH1 0x40 MLOAD PUSH32 0x8C379A000000000000000000000000000000000000000000000000000000000 DUP2 MSTORE PUSH1 0x4 ADD PUSH2 0x145 SWAP1 PUSH2 0x422 JUMP JUMPDEST PUSH1 0x40 MLOAD DUP1 SWAP2 SUB SWAP1 REVERT JUMPDEST PUSH0 PUSH20 0xFFFFFFFFFFFFFFFFFFFFFFFFFFFFFFFFFFFFFFFF AND DUP2 PUSH20 0xFFFFFFFFFFFFFFFFFFFFFFFFFFFFFFFFFFFFFFFF AND SUB PUSH2 0x1BC JUMPI PUSH1 0x40 MLOAD PUSH32 0x8C379A000000000000000000000000000000000000000000000000000000000 DUP2 MSTORE PUSH1 0x4 ADD PUSH2 0x1B3 SWAP1 PUSH2 0x48A JUMP JUMPDEST PUSH1 0x40 MLOAD DUP1 SWAP2 SUB SWAP1 REVERT JUMPDEST DUP2 PUSH1 0x2 PUSH0 PUSH2 0x100 EXP DUP2 SLOAD DUP2 PUSH20 0xFFFFFFFFFFFFFFFFFFFFFFFFFFFFFFFFFFFFFFFF MUL NOT AND SWAP1 DUP4 PUSH20 0xFFFFFFFFFFFFFFFFFFFFFFFFFFFFFFFFFFFFFFFF AND MUL OR SWAP1 SSTORE POP DUP1 PUSH1 0x3 PUSH0 PUSH2 0x100 EXP DUP2 SLOAD DUP2 PUSH20 0xFFFFFFFFFFFFFFFFFFFFFFFFFFFFFFFFFFFFFFFF MUL NOT AND SWAP1 DUP4 PUSH20 0xFFFFFFFFFFFFFFFFFFFFFFFFFFFFFFFFFFFFFFFF AND MUL OR SWAP1 SSTORE POP POP POP PUSH2 0x4A8 JUMP JUMPDEST PUSH0 PUSH0 PUSH0 SWAP1 SLOAD SWAP1 PUSH2 0x100 EXP SWAP1 DIV PUSH20 0xFFFFFFFFFFFFFFFFFFFFFFFFFFFFFFFFFFFFFFFF AND SWAP1 POP DUP2 PUSH0 PUSH0 PUSH2 0x100 EXP DUP2 SLOAD DUP2 PUSH20 0xFFFFFFFFFFFFFFFFFFFFFFFFFFFFFFFFFFFFFFFF MUL NOT AND SWAP1 DUP4 PUSH20 0xFFFFFFFFFFFFFFFFFFFFFFFFFFFFFFFFFFFFFFFF AND MUL OR SWAP1 SSTORE POP DUP2 PUSH20 0xFFFFFFFFFFFFFFFFFFFFFFFFFFFFFFFFFFFFFFFF AND DUP2 PUSH20 0xFFFFFFFFFFFFFFFFFFFFFFFFFFFFFFFFFFFFFFFF AND PUSH32 0x8BE0079C531659141344CD1FD0A4F28419497F9722A3DAAFE3B4186F6B6457E0 PUSH1 0x40 MLOAD PUSH1 0x40 MLOAD DUP1 SWAP2 SUB SWAP1 LOG3 POP POP JUMP JUMPDEST PUSH0 PUSH0 REVERT JUMPDEST PUSH0 PUSH20 0xFFFFFFFFFFFFFFFFFFFFFFFFFFFFFFFFFFFFFFFF DUP3 AND SWAP1 POP SWAP2 SWAP1 POP JUMP JUMPDEST PUSH0 PUSH2 0x331 DUP3 PUSH2 0x308 JUMP JUMPDEST SWAP1 POP SWAP2 SWAP1 POP JUMP JUMPDEST PUSH2 0x341 DUP2 PUSH2 0x327 JUMP JUMPDEST DUP2 EQ PUSH2 0x34B JUMPI PUSH0 PUSH0 REVERT JUMPDEST POP JUMP JUMPDEST PUSH0 DUP2 MLOAD SWAP1 POP PUSH2 0x35C DUP2 PUSH2 0x338 JUMP JUMPDEST SWAP3 SWAP2 POP POP JUMP JUMPDEST PUSH0 PUSH0 PUSH1 0x40 DUP4 DUP6 SUB SLT ISZERO PUSH2 0x378 JUMPI PUSH2 0x377 PUSH2 0x304 JUMP JUMPDEST JUMPDEST PUSH0 PUSH2 0x385 DUP6 DUP3 DUP7 ADD PUSH2 0x34E JUMP JUMPDEST SWAP3 POP POP PUSH1 0x20 PUSH2 0x396 DUP6 DUP3 DUP7 ADD PUSH2 0x34E JUMP JUMPDEST SWAP2 POP POP SWAP3 POP SWAP3 SWAP1 POP JUMP JUMPDEST PUSH2 0x3A9 DUP2 PUSH2 0x327 JUMP JUMPDEST DUP3 MSTORE POP POP JUMP JUMPDEST PUSH0 PUSH1 0x20 DUP3 ADD SWAP1 POP PUSH2 0x3C2 PUSH0 DUP4 ADD DUP5 PUSH2 0x3A0 JUMP JUMPDEST SWAP3 SWAP2 POP POP JUMP JUMPDEST PUSH0 DUP3 DUP3 MSTORE PUSH1 0x20 DUP3 ADD SWAP1 POP SWAP3 SWAP2 POP POP JUMP JUMPDEST PUSH32 0x496E76616C696420746F6B656E20616464726573730000000000000000000000 PUSH0 DUP3 ADD MSTORE POP JUMP JUMPDEST PUSH0 PUSH2 0x40C PUSH1 0x15 DUP4 PUSH2 0x3C8 JUMP JUMPDEST SWAP2 POP PUSH2 0x417 DUP3 PUSH2 0x3D8 JUMP JUMPDEST PUSH1 0x20 DUP3 ADD SWAP1 POP SWAP2 SWAP1 POP JUMP JUMPDEST PUSH0 PUSH1 0x20 DUP3 ADD SWAP1 POP DUP2 DUP2 SUB PUSH0 DUP4 ADD MSTORE PUSH2 0x439 DUP2 PUSH2 0x400 JUMP JUMPDEST SWAP1 POP SWAP2 SWAP1 POP JUMP JUMPDEST PUSH32 0x496E76616C696420747265617375727920616464726573730000000000000000 PUSH0 DUP3 ADD MSTORE POP JUMP JUMPDEST PUSH0 PUSH2 0x474 PUSH1 0x18 DUP4 PUSH2 0x3C8 JUMP JUMPDEST SWAP2 POP PUSH2 0x47F DUP3 PUSH2 0x440 JUMP JUMPDEST PUSH1 0x20 DUP3 ADD SWAP1 POP SWAP2 SWAP1 POP JUMP JUMPDEST PUSH0 PUSH1 0x20 DUP3 ADD SWAP1 POP DUP2 DUP2 SUB PUSH0 DUP4 ADD MSTORE PUSH2 0x4A1 DUP2 PUSH2 0x468 JUMP JUMPDEST SWAP1 POP SWAP2 SWAP1 POP JUMP JUMPDEST PUSH2 0xC13 DUP1 PUSH2 0x4B5 PUSH0 CODECOPY PUSH0 RETURN INVALID PUSH1 0x80 PUSH1 0x40 MSTORE CALLVALUE DUP1 ISZERO PUSH2 0xF JUMPI PUSH0 PUSH0 REVERT JUMPDEST POP PUSH1 0x4 CALLDATASIZE LT PUSH2 0xA7 JUMPI PUSH0 CALLDATALOAD PUSH1 0xE0 SHR DUP1 PUSH4 0x8DA5CB5B GT PUSH2 0x6F JUMPI DUP1 PUSH4 0x8DA5CB5B EQ PUSH2 0x12D JUMPI DUP1 PUSH4 0xA615BF57 EQ PUSH2 0x14B JUMPI DUP1 PUSH4 0xA88FE42D EQ PUSH2 0x167 JUMPI DUP1 PUSH4 0xAC6510BE EQ PUSH2 0x183 JUMPI DUP1 PUSH4 0xF0F44260 EQ PUSH2 0x1A1 JUMPI DUP1 PUSH4 0xF2FDE38B EQ PUSH2 0x1BD JUMPI PUSH2 0xA7 JUMP JUMPDEST DUP1 PUSH4 0x8672099 EQ PUSH2 0xAB JUMPI DUP1 PUSH4 0xABC747C EQ PUSH2 0xC9 JUMPI DUP1 PUSH4 0x61D027B3 EQ PUSH2 0xE7 JUMPI DUP1 PUSH4 0x715018A6 EQ PUSH2 0x105 JUMPI DUP1 PUSH4 0x8455D8D5 EQ PUSH2 0x10F JUMPI JUMPDEST PUSH0 PUSH0 REVERT JUMPDEST PUSH2 0xB3 PUSH2 0x1D9 JUMP JUMPDEST PUSH1 0x40 MLOAD PUSH2 0xC0 SWAP2 SWAP1 PUSH2 0x82C JUMP JUMPDEST PUSH1 0x40 MLOAD DUP1 SWAP2 SUB SWAP1 RETURN JUMPDEST PUSH2 0xD1 PUSH2 0x1DF JUMP JUMPDEST PUSH1 0x40 MLOAD PUSH2 0xDE SWAP2 SWAP1 PUSH2 0x82C JUMP JUMPDEST PUSH1 0x40 MLOAD DUP1 SWAP2 SUB SWAP1 RETURN JUMPDEST PUSH2 0xEF PUSH2 0x1E5 JUMP JUMPDEST PUSH1 0x40 MLOAD PUSH2 0xFC SWAP2 SWAP1 PUSH2 0x884 JUMP JUMPDEST PUSH1 0x40 MLOAD DUP1 SWAP2 SUB SWAP1 RETURN JUMPDEST PUSH2 0x10D PUSH2 0x20A JUMP JUMPDEST STOP JUMPDEST PUSH2 0x117 PUSH2 0x21D JUMP JUMPDEST PUSH1 0x40 MLOAD PUSH2 0x124 SWAP2 SWAP1 PUSH2 0x8F8 JUMP JUMPDEST PUSH1 0x40 MLOAD DUP1 SWAP2 SUB SWAP1 RETURN JUMPDEST PUSH2 0x135 PUSH2 0x242 JUMP JUMPDEST PUSH1 0x40 MLOAD PUSH2 0x142 SWAP2 SWAP1 PUSH2 0x884 JUMP JUMPDEST PUSH1 0x40 MLOAD DUP1 SWAP2 SUB SWAP1 RETURN JUMPDEST PUSH2 0x165 PUSH1 0x4 DUP1 CALLDATASIZE SUB DUP2 ADD SWAP1 PUSH2 0x160 SWAP2 SWAP1 PUSH2 0x93F JUMP JUMPDEST PUSH2 0x269 JUMP JUMPDEST STOP JUMPDEST PUSH2 0x181 PUSH1 0x4 DUP1 CALLDATASIZE SUB DUP2 ADD SWAP1 PUSH2 0x17C SWAP2 SWAP1 PUSH2 0x93F JUMP JUMPDEST PUSH2 0x3D9 JUMP JUMPDEST STOP JUMPDEST PUSH2 0x18B PUSH2 0x436 JUMP JUMPDEST PUSH1 0x40 MLOAD PUSH2 0x198 SWAP2 SWAP1 PUSH2 0x82C JUMP JUMPDEST PUSH1 0x40 MLOAD DUP1 SWAP2 SUB SWAP1 RETURN JUMPDEST PUSH2 0x1BB PUSH1 0x4 DUP1 CALLDATASIZE SUB DUP2 ADD SWAP1 PUSH2 0x1B6 SWAP2 SWAP1 PUSH2 0x9B9 JUMP JUMPDEST PUSH2 0x43C JUMP JUMPDEST STOP JUMPDEST PUSH2 0x1D7 PUSH1 0x4 DUP1 CALLDATASIZE SUB DUP2 ADD SWAP1 PUSH2 0x1D2 SWAP2 SWAP1 PUSH2 0x9B9 JUMP JUMPDEST PUSH2 0x52C JUMP JUMPDEST STOP JUMPDEST PUSH1 0x6 SLOAD DUP2 JUMP JUMPDEST PUSH1 0x5 SLOAD DUP2 JUMP JUMPDEST PUSH1 0x3 PUSH0 SWAP1 SLOAD SWAP1 PUSH2 0x100 EXP SWAP1 DIV PUSH20 0xFFFFFFFFFFFFFFFFFFFFFFFFFFFFFFFFFFFFFFFF AND DUP2 JUMP JUMPDEST PUSH2 0x212 PUSH2 0x5B0 JUMP JUMPDEST PUSH2 0x21B PUSH0 PUSH2 0x637 JUMP JUMPDEST JUMP JUMPDEST PUSH1 0x2 PUSH0 SWAP1 SLOAD SWAP1 PUSH2 0x100 EXP SWAP1 DIV PUSH20 0xFFFFFFFFFFFFFFFFFFFFFFFFFFFFFFFFFFFFFFFF AND DUP2 JUMP JUMPDEST PUSH0 PUSH0 PUSH0 SWAP1 SLOAD SWAP1 PUSH2 0x100 EXP SWAP1 DIV PUSH20 0xFFFFFFFFFFFFFFFFFFFFFFFFFFFFFFFFFFFFFFFF AND SWAP1 POP SWAP1 JUMP JUMPDEST PUSH2 0x271 PUSH2 0x6F8 JUMP JUMPDEST PUSH0 DUP4 GT DUP1 PUSH2 0x27E JUMPI POP PUSH0 DUP3 GT JUMPDEST DUP1 PUSH2 0x288 JUMPI POP PUSH0 DUP2 GT JUMPDEST PUSH2 0x2C7 JUMPI PUSH1 0x40 MLOAD PUSH32 0x8C379A000000000000000000000000000000000000000000000000000000000 DUP2 MSTORE PUSH1 0x4 ADD PUSH2 0x2BE SWAP1 PUSH2 0xA3E JUMP JUMPDEST PUSH1 0x40 MLOAD DUP1 SWAP2 SUB SWAP1 REVERT JUMPDEST PUSH0 PUSH1 0x6 SLOAD DUP3 PUSH2 0x2D6 SWAP2 SWAP1 PUSH2 0xA89 JUMP JUMPDEST PUSH1 0x5 SLOAD DUP5 PUSH2 0x2E4 SWAP2 SWAP1 PUSH2 0xA89 JUMP JUMPDEST PUSH1 0x4 SLOAD DUP7 PUSH2 0x2F2 SWAP2 SWAP1 PUSH2 0xA89 JUMP JUMPDEST PUSH2 0x2FC SWAP2 SWAP1 PUSH2 0xACA JUMP JUMPDEST PUSH2 0x306 SWAP2 SWAP1 PUSH2 0xACA JUMP JUMPDEST SWAP1 POP PUSH2 0x377 CALLER PUSH1 0x3 PUSH0 SWAP1 SLOAD SWAP1 PUSH2 0x100 EXP SWAP1 DIV PUSH20 0xFFFFFFFFFFFFFFFFFFFFFFFFFFFFFFFFFFFFFFFF AND DUP4 PUSH1 0x2 PUSH0 SWAP1 SLOAD SWAP1 PUSH2 0x100 EXP SWAP1 DIV PUSH20 0xFFFFFFFFFFFFFFFFFFFFFFFFFFFFFFFFFFFFFFFF AND PUSH20 0xFFFFFFFFFFFFFFFFFFFFFFFFFFFFFFFFFFFFFFFF AND PUSH2 0x73E SWAP1 SWAP4 SWAP3 SWAP2 SWAP1 PUSH4 0xFFFFFFFF AND JUMP JUMPDEST CALLER PUSH20 0xFFFFFFFFFFFFFFFFFFFFFFFFFFFFFFFFFFFFFFFF AND PUSH32 0x1BB5A72378B1155EC85A388664CAD255933833D9E7D480AD419BC707AC7C9B54 DUP6 DUP6 DUP6 DUP6 PUSH1 0x40 MLOAD PUSH2 0x3C3 SWAP5 SWAP4 SWAP3 SWAP2 SWAP1 PUSH2 0xAFD JUMP JUMPDEST PUSH1 0x40 MLOAD DUP1 SWAP2 SUB SWAP1 LOG2 POP PUSH2 0x3D4 PUSH2 0x793 JUMP JUMPDEST POP POP POP JUMP JUMPDEST PUSH2 0x3E1 PUSH2 0x5B0 JUMP JUMPDEST DUP3 PUSH1 0x4 DUP2 SWAP1 SSTORE POP DUP2 PUSH1 0x5 DUP2 SWAP1 SSTORE POP DUP1 PUSH1 0x6 DUP2 SWAP1 SSTORE POP PUSH32 0xA6B830B74E52D7D1140E76252F225DC7BED28782519845600BBD3182341DC115 DUP4 DUP4 DUP4 PUSH1 0x40 MLOAD PUSH2 0x429 SWAP4 SWAP3 SWAP2 SWAP1 PUSH2 0xB40 JUMP JUMPDEST PUSH1 0x40 MLOAD DUP1 SWAP2 SUB SWAP1 LOG1 POP POP POP JUMP JUMPDEST PUSH1 0x4 SLOAD DUP2 JUMP JUMPDEST PUSH2 0x444 PUSH2 0x5B0 JUMP JUMPDEST PUSH0 PUSH20 0xFFFFFFFFFFFFFFFFFFFFFFFFFFFFFFFFFFFFFFFF AND DUP2 PUSH20 0xFFFFFFFFFFFFFFFFFFFFFFFFFFFFFFFFFFFFFFFF AND SUB PUSH2 0x4B2 JUMPI PUSH1 0x40 MLOAD PUSH32 0x8C379A000000000000000000000000000000000000000000000000000000000 DUP2 MSTORE PUSH1 0x4 ADD PUSH2 0x4A9 SWAP1 PUSH2 0xBBF JUMP JUMPDEST PUSH1 0x40 MLOAD DUP1 SWAP2 SUB SWAP1 REVERT JUMPDEST DUP1 PUSH1 0x3 PUSH0 PUSH2 0x100 EXP DUP2 SLOAD DUP2 PUSH20 0xFFFFFFFFFFFFFFFFFFFFFFFFFFFFFFFFFFFFFFFF MUL NOT AND SWAP1 DUP4 PUSH20 0xFFFFFFFFFFFFFFFFFFFFFFFFFFFFFFFFFFFFFFFF AND MUL OR SWAP1 SSTORE POP PUSH32 0x7DAE230F18360D76A040C81F050AA14EB9D6DC7901B20FC5D855E2A20FE814D1 DUP2 PUSH1 0x40 MLOAD PUSH2 0x521 SWAP2 SWAP1 PUSH2 0x884 JUMP JUMPDEST PUSH1 0x40 MLOAD DUP1 SWAP2 SUB SWAP1 LOG1 POP JUMP JUMPDEST PUSH2 0x534 PUSH2 0x5B0 JUMP JUMPDEST PUSH0 PUSH20 0xFFFFFFFFFFFFFFFFFFFFFFFFFFFFFFFFFFFFFFFF AND DUP2 PUSH20 0xFFFFFFFFFFFFFFFFFFFFFFFFFFFFFFFFFFFFFFFF AND SUB PUSH2 0x5A4 JUMPI PUSH0 PUSH1 0x40 MLOAD PUSH32 0x1E4FBDF700000000000000000000000000000000000000000000000000000000 DUP2 MSTORE PUSH1 0x4 ADD PUSH2 0x59B SWAP2 SWAP1 PUSH2 0x884 JUMP JUMPDEST PUSH1 0x40 MLOAD DUP1 SWAP2 SUB SWAP1 REVERT JUMPDEST PUSH2 0x5AD DUP2 PUSH2 0x637 JUMP JUMPDEST POP JUMP JUMPDEST PUSH2 0x5B8 PUSH2 0x79C JUMP JUMPDEST PUSH20 0xFFFFFFFFFFFFFFFFFFFFFFFFFFFFFFFFFFFFFFFF AND PUSH2 0x5D6 PUSH2 0x242 JUMP JUMPDEST PUSH20 0xFFFFFFFFFFFFFFFFFFFFFFFFFFFFFFFFFFFFFFFF AND EQ PUSH2 0x635 JUMPI PUSH2 0x5F9 PUSH2 0x79C JUMP JUMPDEST PUSH1 0x40 MLOAD PUSH32 0x118CDAA700000000000000000000000000000000000000000000000000000000 DUP2 MSTORE PUSH1 0x4 ADD PUSH2 0x62C SWAP2 SWAP1 PUSH2 0x884 JUMP JUMPDEST PUSH1 0x40 MLOAD DUP1 SWAP2 SUB SWAP1 REVERT JUMPDEST JUMP JUMPDEST PUSH0 PUSH0 PUSH0 SWAP1 SLOAD SWAP1 PUSH2 0x100 EXP SWAP1 DIV PUSH20 0xFFFFFFFFFFFFFFFFFFFFFFFFFFFFFFFFFFFFFFFF AND SWAP1 POP DUP2 PUSH0 PUSH0 PUSH2 0x100 EXP DUP2 SLOAD DUP2 PUSH20 0xFFFFFFFFFFFFFFFFFFFFFFFFFFFFFFFFFFFFFFFF MUL NOT AND SWAP1 DUP4 PUSH20 0xFFFFFFFFFFFFFFFFFFFFFFFFFFFFFFFFFFFFFFFF AND MUL OR SWAP1 SSTORE POP DUP2 PUSH20 0xFFFFFFFFFFFFFFFFFFFFFFFFFFFFFFFFFFFFFFFF AND DUP2 PUSH20 0xFFFFFFFFFFFFFFFFFFFFFFFFFFFFFFFFFFFFFFFF AND PUSH32 0x8BE0079C531659141344CD1FD0A4F28419497F9722A3DAAFE3B4186F6B6457E0 PUSH1 0x40 MLOAD PUSH1 0x40 MLOAD DUP1 SWAP2 SUB SWAP1 LOG3 POP POP JUMP JUMPDEST PUSH1 0x2 PUSH1 0x1 SLOAD SUB PUSH2 0x734 JUMPI PUSH1 0x40 MLOAD PUSH32 0x3EE5AEB500000000000000000000000000000000000000000000000000000000 DUP2 MSTORE PUSH1 0x4 ADD PUSH1 0x40 MLOAD DUP1 SWAP2 SUB SWAP1 REVERT JUMPDEST PUSH1 0x2 PUSH1 0x1 DUP2 SWAP1 SSTORE POP JUMP JUMPDEST PUSH2 0x74C DUP5 DUP5 DUP5 DUP5 PUSH1 0x1 PUSH2 0x7A3 JUMP JUMPDEST PUSH2 0x78D JUMPI DUP4 PUSH1 0x40 MLOAD PUSH32 0x5274AFE700000000000000000000000000000000000000000000000000000000 DUP2 MSTORE PUSH1 0x4 ADD PUSH2 0x784 SWAP2 SWAP1 PUSH2 0x884 JUMP JUMPDEST PUSH1 0x40 MLOAD DUP1 SWAP2 SUB SWAP1 REVERT JUMPDEST POP POP POP POP JUMP JUMPDEST PUSH1 0x1 DUP1 DUP2 SWAP1 SSTORE POP JUMP JUMPDEST PUSH0 CALLER SWAP1 POP SWAP1 JUMP JUMPDEST PUSH0 PUSH0 PUSH4 0x23B872DD PUSH1 0xE0 SHL SWAP1 POP PUSH1 0x40 MLOAD DUP2 PUSH0 MSTORE PUSH0 NOT PUSH1 0x60 SHR DUP8 AND PUSH1 0x4 MSTORE PUSH0 NOT PUSH1 0x60 SHR DUP7 AND PUSH1 0x24 MSTORE DUP5 PUSH1 0x44 MSTORE PUSH1 0x20 PUSH0 PUSH1 0x64 PUSH0 PUSH0 DUP13 GAS CALL SWAP3 POP PUSH1 0x1 PUSH0 MLOAD EQ DUP4 AND PUSH2 0x801 JUMPI DUP4 DUP4 ISZERO AND ISZERO PUSH2 0x7F5 JUMPI RETURNDATASIZE PUSH0 DUP3 RETURNDATACOPY RETURNDATASIZE DUP2 REVERT JUMPDEST PUSH0 DUP9 EXTCODESIZE GT RETURNDATASIZE ISZERO AND DUP4 AND SWAP3 POP JUMPDEST DUP1 PUSH1 0x40 MSTORE PUSH0 PUSH1 0x60 MSTORE POP POP SWAP6 SWAP5 POP POP POP POP POP JUMP JUMPDEST PUSH0 DUP2 SWAP1 POP SWAP2 SWAP1 POP JUMP JUMPDEST PUSH2 0x826 DUP2 PUSH2 0x814 JUMP JUMPDEST DUP3 MSTORE POP POP JUMP JUMPDEST PUSH0 PUSH1 0x20 DUP3 ADD SWAP1 POP PUSH2 0x83F PUSH0 DUP4 ADD DUP5 PUSH2 0x81D JUMP JUMPDEST SWAP3 SWAP2 POP POP JUMP JUMPDEST PUSH0 PUSH20 0xFFFFFFFFFFFFFFFFFFFFFFFFFFFFFFFFFFFFFFFF DUP3 AND SWAP1 POP SWAP2 SWAP1 POP JUMP JUMPDEST PUSH0 PUSH2 0x86E DUP3 PUSH2 0x845 JUMP JUMPDEST SWAP1 POP SWAP2 SWAP1 POP JUMP JUMPDEST PUSH2 0x87E DUP2 PUSH2 0x864 JUMP JUMPDEST DUP3 MSTORE POP POP JUMP JUMPDEST PUSH0 PUSH1 0x20 DUP3 ADD SWAP1 POP PUSH2 0x897 PUSH0 DUP4 ADD DUP5 PUSH2 0x875 JUMP JUMPDEST SWAP3 SWAP2 POP POP JUMP JUMPDEST PUSH0 DUP2 SWAP1 POP SWAP2 SWAP1 POP JUMP JUMPDEST PUSH0 PUSH2 0x8C0 PUSH2 0x8BB PUSH2 0x8B6 DUP5 PUSH2 0x845 JUMP JUMPDEST PUSH2 0x89D JUMP JUMPDEST PUSH2 0x845 JUMP JUMPDEST SWAP1 POP SWAP2 SWAP1 POP JUMP JUMPDEST PUSH0 PUSH2 0x8D1 DUP3 PUSH2 0x8A6 JUMP JUMPDEST SWAP1 POP SWAP2 SWAP1 POP JUMP JUMPDEST PUSH0 PUSH2 0x8E2 DUP3 PUSH2 0x8C7 JUMP JUMPDEST SWAP1 POP SWAP2 SWAP1 POP JUMP JUMPDEST PUSH2 0x8F2 DUP2 PUSH2 0x8D8 JUMP JUMPDEST DUP3 MSTORE POP POP JUMP JUMPDEST PUSH0 PUSH1 0x20 DUP3 ADD SWAP1 POP PUSH2 0x90B PUSH0 DUP4 ADD DUP5 PUSH2 0x8E9 JUMP JUMPDEST SWAP3 SWAP2 POP POP JUMP JUMPDEST PUSH0 PUSH0 REVERT JUMPDEST PUSH2 0x91E DUP2 PUSH2 0x814 JUMP JUMPDEST DUP2 EQ PUSH2 0x928 JUMPI PUSH0 PUSH0 REVERT JUMPDEST POP JUMP JUMPDEST PUSH0 DUP2 CALLDATALOAD SWAP1 POP PUSH2 0x939 DUP2 PUSH2 0x915 JUMP JUMPDEST SWAP3 SWAP2 POP POP JUMP JUMPDEST PUSH0 PUSH0 PUSH0 PUSH1 0x60 DUP5 DUP7 SUB SLT ISZERO PUSH2 0x956 JUMPI PUSH2 0x955 PUSH2 0x911 JUMP JUMPDEST JUMPDEST PUSH0 PUSH2 0x963 DUP7 DUP3 DUP8 ADD PUSH2 0x92B JUMP JUMPDEST SWAP4 POP POP PUSH1 0x20 PUSH2 0x974 DUP7 DUP3 DUP8 ADD PUSH2 0x92B JUMP JUMPDEST SWAP3 POP POP PUSH1 0x40 PUSH2 0x985 DUP7 DUP3 DUP8 ADD PUSH2 0x92B JUMP JUMPDEST SWAP2 POP POP SWAP3 POP SWAP3 POP SWAP3 JUMP JUMPDEST PUSH2 0x998 DUP2 PUSH2 0x864 JUMP JUMPDEST DUP2 EQ PUSH2 0x9A2 JUMPI PUSH0 PUSH0 REVERT JUMPDEST POP JUMP JUMPDEST PUSH0 DUP2 CALLDATALOAD SWAP1 POP PUSH2 0x9B3 DUP2 PUSH2 0x98F JUMP JUMPDEST SWAP3 SWAP2 POP POP JUMP JUMPDEST PUSH0 PUSH1 0x20 DUP3 DUP5 SUB SLT ISZERO PUSH2 0x9CE JUMPI PUSH2 0x9CD PUSH2 0x911 JUMP JUMPDEST JUMPDEST PUSH0 PUSH2 0x9DB DUP5 DUP3 DUP6 ADD PUSH2 0x9A5 JUMP JUMPDEST SWAP2 POP POP SWAP3 SWAP2 POP POP JUMP JUMPDEST PUSH0 DUP3 DUP3 MSTORE PUSH1 0x20 DUP3 ADD SWAP1 POP SWAP3 SWAP2 POP POP JUMP JUMPDEST PUSH32 0x4D75737420627579206174206C65617374206F6E65206974656D000000000000 PUSH0 DUP3 ADD MSTORE POP JUMP JUMPDEST PUSH0 PUSH2 0xA28 PUSH1 0x1A DUP4 PUSH2 0x9E4 JUMP JUMPDEST SWAP2 POP PUSH2 0xA33 DUP3 PUSH2 0x9F4 JUMP JUMPDEST PUSH1 0x20 DUP3 ADD SWAP1 POP SWAP2 SWAP1 POP JUMP JUMPDEST PUSH0 PUSH1 0x20 DUP3 ADD SWAP1 POP DUP2 DUP2 SUB PUSH0 DUP4 ADD MSTORE PUSH2 0xA55 DUP2 PUSH2 0xA1C JUMP JUMPDEST SWAP1 POP SWAP2 SWAP1 POP JUMP JUMPDEST PUSH32 0x4E487B7100000000000000000000000000000000000000000000000000000000 PUSH0 MSTORE PUSH1 0x11 PUSH1 0x4 MSTORE PUSH1 0x24 PUSH0 REVERT JUMPDEST PUSH0 PUSH2 0xA93 DUP3 PUSH2 0x814 JUMP JUMPDEST SWAP2 POP PUSH2 0xA9E DUP4 PUSH2 0x814 JUMP JUMPDEST SWAP3 POP DUP3 DUP3 MUL PUSH2 0xAAC DUP2 PUSH2 0x814 JUMP JUMPDEST SWAP2 POP DUP3 DUP3 DIV DUP5 EQ DUP4 ISZERO OR PUSH2 0xAC3 JUMPI PUSH2 0xAC2 PUSH2 0xA5C JUMP JUMPDEST JUMPDEST POP SWAP3 SWAP2 POP POP JUMP JUMPDEST PUSH0 PUSH2 0xAD4 DUP3 PUSH2 0x814 JUMP JUMPDEST SWAP2 POP PUSH2 0xADF DUP4 PUSH2 0x814 JUMP JUMPDEST SWAP3 POP DUP3 DUP3 ADD SWAP1 POP DUP1 DUP3 GT ISZERO PUSH2 0xAF7 JUMPI PUSH2 0xAF6 PUSH2 0xA5C JUMP JUMPDEST JUMPDEST SWAP3 SWAP2 POP POP JUMP JUMPDEST PUSH0 PUSH1 0x80 DUP3 ADD SWAP1 POP PUSH2 0xB10 PUSH0 DUP4 ADD DUP8 PUSH2 0x81D JUMP JUMPDEST PUSH2 0xB1D PUSH1 0x20 DUP4 ADD DUP7 PUSH2 0x81D JUMP JUMPDEST PUSH2 0xB2A PUSH1 0x40 DUP4 ADD DUP6 PUSH2 0x81D JUMP JUMPDEST PUSH2 0xB37 PUSH1 0x60 DUP4 ADD DUP5 PUSH2 0x81D JUMP JUMPDEST SWAP6 SWAP5 POP POP POP POP POP JUMP JUMPDEST PUSH0 PUSH1 0x60 DUP3 ADD SWAP1 POP PUSH2 0xB53 PUSH0 DUP4 ADD DUP7 PUSH2 0x81D JUMP JUMPDEST PUSH2 0xB60 PUSH1 0x20 DUP4 ADD DUP6 PUSH2 0x81D JUMP JUMPDEST PUSH2 0xB6D PUSH1 0x40 DUP4 ADD DUP5 PUSH2 0x81D JUMP JUMPDEST SWAP5 SWAP4 POP POP POP POP JUMP JUMPDEST PUSH32 0x496E76616C696420747265617375727920616464726573730000000000000000 PUSH0 DUP3 ADD MSTORE POP JUMP JUMPDEST PUSH0 PUSH2 0xBA9 PUSH1 0x18 DUP4 PUSH2 0x9E4 JUMP JUMPDEST SWAP2 POP PUSH2 0xBB4 DUP3 PUSH2 0xB75 JUMP JUMPDEST PUSH1 0x20 DUP3 ADD SWAP1 POP SWAP2 SWAP1 POP JUMP JUMPDEST PUSH0 PUSH1 0x20 DUP3 ADD SWAP1 POP DUP2 DUP2 SUB PUSH0 DUP4 ADD MSTORE PUSH2 0xBD6 DUP2 PUSH2 0xB9D JUMP JUMPDEST SWAP1 POP SWAP2 SWAP1 POP JUMP INVALID LOG2 PUSH5 0x6970667358 0x22 SLT KECCAK256 RJUMP 0xFE30 0xC9 MULMOD PUSH15 0xC128838DDD03D0F25BDCE359450F5F REVERT DUP14 0xB2 SWAP2 0xDE 0xC1 SWAP9 0xCF 0x2E SELFDESTRUCT MLOAD PUSH5 0x736F6C6343 STOP ADDMOD 0x1F STOP CALLER "
				},
				"gasEstimates": {
					"creation": {
						"codeDepositCost": "618200",
						"executionCost": "infinite",
						"totalCost": "infinite"
					},
					"external": {
						"buyItems(uint256,uint256,uint256)": "infinite",
						"chhToken()": "infinite",
						"elixirPrice()": "2448",
						"owner()": "2514",
						"potionPrice()": "2491",
						"renounceOwnership()": "infinite",
						"setPrices(uint256,uint256,uint256)": "infinite",
						"setTreasury(address)": "infinite",
						"transferOwnership(address)": "infinite",
						"treasury()": "2553",
						"whetstonePrice()": "2426"
					}
				},
				"methodIdentifiers": {
					"buyItems(uint256,uint256,uint256)": "a615bf57",
					"chhToken()": "8455d8d5",
					"elixirPrice()": "0abc747c",
					"owner()": "8da5cb5b",
					"potionPrice()": "ac6510be",
					"renounceOwnership()": "715018a6",
					"setPrices(uint256,uint256,uint256)": "a88fe42d",
					"setTreasury(address)": "f0f44260",
					"transferOwnership(address)": "f2fde38b",
					"treasury()": "61d027b3",
					"whetstonePrice()": "08672099"
				}
			},
			"storageLayout": {
				"storage": [
					{
						"astId": 8,
						"contract": "Script/MiningQuestShop.sol:ItemShop",
						"label": "_owner",
						"offset": 0,
						"slot": "0",
						"type": "t_address"
					},
					{
						"astId": 811,
						"contract": "Script/MiningQuestShop.sol:ItemShop",
						"label": "_status",
						"offset": 0,
						"slot": "1",
						"type": "t_uint256"
					},
					{
						"astId": 899,
						"contract": "Script/MiningQuestShop.sol:ItemShop",
						"label": "chhToken",
						"offset": 0,
						"slot": "2",
						"type": "t_contract(IERC20)315"
					},
					{
						"astId": 901,
						"contract": "Script/MiningQuestShop.sol:ItemShop",
						"label": "treasury",
						"offset": 0,
						"slot": "3",
						"type": "t_address"
					},
					{
						"astId": 908,
						"contract": "Script/MiningQuestShop.sol:ItemShop",
						"label": "potionPrice",
						"offset": 0,
						"slot": "4",
						"type": "t_uint256"
					},
					{
						"astId": 915,
						"contract": "Script/MiningQuestShop.sol:ItemShop",
						"label": "elixirPrice",
						"offset": 0,
						"slot": "5",
						"type": "t_uint256"
					},
					{
						"astId": 922,
						"contract": "Script/MiningQuestShop.sol:ItemShop",
						"label": "whetstonePrice",
						"offset": 0,
						"slot": "6",
						"type": "t_uint256"
					}
				],
				"types": {
					"t_address": {
						"encoding": "inplace",
						"label": "address",
						"numberOfBytes": "20"
					},
					"t_contract(IERC20)315": {
						"encoding": "inplace",
						"label": "contract IERC20",
						"numberOfBytes": "20"
					},
					"t_uint256": {
						"encoding": "inplace",
						"label": "uint256",
						"numberOfBytes": "32"
					}
				}
			},
			"userdoc": {
				"kind": "user",
				"methods": {},
				"version": 1
			}
		}
	}
}