{
	"Script/ReversiDailyBonus.sol": {
		"ReversiClaim": {
			"abi": [
				{
					"inputs": [],
					"stateMutability": "nonpayable",
					"type": "constructor"
				},
				{
					"inputs": [],
					"name": "ECDSAInvalidSignature",
					"type": "error"
				},
				{
					"inputs": [
						{
							"internalType": "uint256",
							"name": "length",
							"type": "uint256"
						}
					],
					"name": "ECDSAInvalidSignatureLength",
					"type": "error"
				},
				{
					"inputs": [
						{
							"internalType": "bytes32",
							"name": "s",
							"type": "bytes32"
						}
					],
					"name": "ECDSAInvalidSignatureS",
					"type": "error"
				},
				{
					"inputs": [
						{
							"internalType": "address",
							"name": "owner",
							"type": "address"
						}
					],
					"name": "OwnableInvalidOwner",
					"type": "error"
				},
				{
					"inputs": [
						{
							"internalType": "address",
							"name": "account",
							"type": "address"
						}
					],
					"name": "OwnableUnauthorizedAccount",
					"type": "error"
				},
				{
					"anonymous": false,
					"inputs": [
						{
							"indexed": true,
							"internalType": "address",
							"name": "user",
							"type": "address"
						},
						{
							"indexed": false,
							"internalType": "uint256",
							"name": "amount",
							"type": "uint256"
						}
					],
					"name": "Claimed",
					"type": "event"
				},
				{
					"anonymous": false,
					"inputs": [
						{
							"indexed": true,
							"internalType": "address",
							"name": "previousOwner",
							"type": "address"
						},
						{
							"indexed": true,
							"internalType": "address",
							"name": "newOwner",
							"type": "address"
						}
					],
					"name": "OwnershipTransferred",
					"type": "event"
				},
				{
					"inputs": [
						{
							"internalType": "address",
							"name": "user",
							"type": "address"
						}
					],
					"name": "checkDailyLimit",
					"outputs": [
						{
							"internalType": "bool",
							"name": "",
							"type": "bool"
						}
					],
					"stateMutability": "view",
					"type": "function"
				},
				{
					"inputs": [],
					"name": "chhToken",
					"outputs": [
						{
							"internalType": "contract IERC20",
							"name": "",
							"type": "address"
						}
					],
					"stateMutability": "view",
					"type": "function"
				},
				{
					"inputs": [
						{
							"internalType": "uint256",
							"name": "amount",
							"type": "uint256"
						},
						{
							"internalType": "bytes",
							"name": "signature",
							"type": "bytes"
						}
					],
					"name": "claim",
					"outputs": [],
					"stateMutability": "nonpayable",
					"type": "function"
				},
				{
					"inputs": [],
					"name": "getRemainingBalance",
					"outputs": [
						{
							"internalType": "uint256",
							"name": "",
							"type": "uint256"
						}
					],
					"stateMutability": "view",
					"type": "function"
				},
				{
					"inputs": [
						{
							"internalType": "address",
							"name": "",
							"type": "address"
						}
					],
					"name": "lastClaimTime",
					"outputs": [
						{
							"internalType": "uint256",
							"name": "",
							"type": "uint256"
						}
					],
					"stateMutability": "view",
					"type": "function"
				},
				{
					"inputs": [],
					"name": "owner",
					"outputs": [
						{
							"internalType": "address",
							"name": "",
							"type": "address"
						}
					],
					"stateMutability": "view",
					"type": "function"
				},
				{
					"inputs": [],
					"name": "renounceOwnership",
					"outputs": [],
					"stateMutability": "nonpayable",
					"type": "function"
				},
				{
					"inputs": [],
					"name": "signerAddress",
					"outputs": [
						{
							"internalType": "address",
							"name": "",
							"type": "address"
						}
					],
					"stateMutability": "view",
					"type": "function"
				},
				{
					"inputs": [
						{
							"internalType": "address",
							"name": "newOwner",
							"type": "address"
						}
					],
					"name": "transferOwnership",
					"outputs": [],
					"stateMutability": "nonpayable",
					"type": "function"
				},
				{
					"inputs": [
						{
							"internalType": "uint256",
							"name": "amount",
							"type": "uint256"
						}
					],
					"name": "withdrawToken",
					"outputs": [],
					"stateMutability": "nonpayable",
					"type": "function"
				}
			],
			"devdoc": {
				"errors": {
					"ECDSAInvalidSignature()": [
						{
							"details": "The signature derives the `address(0)`."
						}
					],
					"ECDSAInvalidSignatureLength(uint256)": [
						{
							"details": "The signature has an invalid length."
						}
					],
					"ECDSAInvalidSignatureS(bytes32)": [
						{
							"details": "The signature has an S value that is in the upper half order."
						}
					],
					"OwnableInvalidOwner(address)": [
						{
							"details": "The owner is not a valid owner account. (eg. `address(0)`)"
						}
					],
					"OwnableUnauthorizedAccount(address)": [
						{
							"details": "The caller account is not authorized to perform an operation."
						}
					]
				},
				"kind": "dev",
				"methods": {
					"owner()": {
						"details": "Returns the address of the current owner."
					},
					"renounceOwnership()": {
						"details": "Leaves the contract without owner. It will not be possible to call `onlyOwner` functions. Can only be called by the current owner. NOTE: Renouncing ownership will leave the contract without an owner, thereby disabling any functionality that is only available to the owner."
					},
					"transferOwnership(address)": {
						"details": "Transfers ownership of the contract to a new account (`newOwner`). Can only be called by the current owner."
					}
				},
				"version": 1
			},
			"evm": {
				"assembly": "    /* \"Script/ReversiDailyBonus.sol\":314:3267  contract ReversiClaim is Ownable {... */\n  mstore(0x40, 0xa0)\n    /* \"Script/ReversiDailyBonus.sol\":797:1095  constructor() Ownable(msg.sender) {... */\n  callvalue\n  dup1\n  iszero\n  tag_1\n  jumpi\n  revert(0x00, 0x00)\ntag_1:\n  pop\n    /* \"Script/ReversiDailyBonus.sol\":819:829  msg.sender */\n  caller\n    /* \"@openzeppelin/contracts/access/Ownable.sol\":1297:1298  0 */\n  0x00\n    /* \"@openzeppelin/contracts/access/Ownable.sol\":1273:1299  initialOwner == address(0) */\n  0xffffffffffffffffffffffffffffffffffffffff\n  and\n    /* \"@openzeppelin/contracts/access/Ownable.sol\":1273:1285  initialOwner */\n  dup2\n    /* \"@openzeppelin/contracts/access/Ownable.sol\":1273:1299  initialOwner == address(0) */\n  0xffffffffffffffffffffffffffffffffffffffff\n  and\n  sub\n    /* \"@openzeppelin/contracts/access/Ownable.sol\":1269:1364  if (initialOwner == address(0)) {... */\n  tag_5\n  jumpi\n    /* \"@openzeppelin/contracts/access/Ownable.sol\":1350:1351  0 */\n  0x00\n    /* \"@openzeppelin/contracts/access/Ownable.sol\":1322:1353  OwnableInvalidOwner(address(0)) */\n  mload(0x40)\n  0x1e4fbdf700000000000000000000000000000000000000000000000000000000\n  dup2\n  mstore\n  0x04\n  add\n  tag_6\n  swap2\n  swap1\n  tag_7\n  jump\t// in\ntag_6:\n  mload(0x40)\n  dup1\n  swap2\n  sub\n  swap1\n  revert\n    /* \"@openzeppelin/contracts/access/Ownable.sol\":1269:1364  if (initialOwner == address(0)) {... */\ntag_5:\n    /* \"@openzeppelin/contracts/access/Ownable.sol\":1373:1405  _transferOwnership(initialOwner) */\n  tag_8\n    /* \"@openzeppelin/contracts/access/Ownable.sol\":1392:1404  initialOwner */\n  dup2\n    /* \"@openzeppelin/contracts/access/Ownable.sol\":1373:1391  _transferOwnership */\n  shl(0x20, tag_9)\n    /* \"@openzeppelin/contracts/access/Ownable.sol\":1373:1405  _transferOwnership(initialOwner) */\n  0x20\n  shr\n  jump\t// in\ntag_8:\n    /* \"@openzeppelin/contracts/access/Ownable.sol\":1225:1412  constructor(address initialOwner) {... */\n  pop\n    /* \"Script/ReversiDailyBonus.sol\":894:936  0xb0525542E3D818460546332e76E511562dFf9B07 */\n  0xb0525542e3d818460546332e76e511562dff9b07\n    /* \"Script/ReversiDailyBonus.sol\":876:937  chhToken = IERC20(0xb0525542E3D818460546332e76E511562dFf9B07) */\n  0xffffffffffffffffffffffffffffffffffffffff\n  and\n  0x80\n  dup2\n  0xffffffffffffffffffffffffffffffffffffffff\n  and\n  dup2\n  mstore\n  pop\n  pop\n    /* \"Script/ReversiDailyBonus.sol\":1025:1087  _transferOwnership(0x9eB566Cc59e3e9D42209Dd2d832740a6A74f5F23) */\n  tag_11\n    /* \"Script/ReversiDailyBonus.sol\":1044:1086  0x9eB566Cc59e3e9D42209Dd2d832740a6A74f5F23 */\n  0x9eb566cc59e3e9d42209dd2d832740a6a74f5f23\n    /* \"Script/ReversiDailyBonus.sol\":1025:1043  _transferOwnership */\n  shl(0x20, tag_9)\n    /* \"Script/ReversiDailyBonus.sol\":1025:1087  _transferOwnership(0x9eB566Cc59e3e9D42209Dd2d832740a6A74f5F23) */\n  0x20\n  shr\n  jump\t// in\ntag_11:\n    /* \"Script/ReversiDailyBonus.sol\":314:3267  contract ReversiClaim is Ownable {... */\n  jump(tag_12)\n    /* \"@openzeppelin/contracts/access/Ownable.sol\":2912:3099  function _transferOwnership(address newOwner) internal virtual {... */\ntag_9:\n    /* \"@openzeppelin/contracts/access/Ownable.sol\":2985:3001  address oldOwner */\n  0x00\n    /* \"@openzeppelin/contracts/access/Ownable.sol\":3004:3010  _owner */\n  0x00\n  0x00\n  swap1\n  sload\n  swap1\n  0x0100\n  exp\n  swap1\n  div\n  0xffffffffffffffffffffffffffffffffffffffff\n  and\n    /* \"@openzeppelin/contracts/access/Ownable.sol\":2985:3010  address oldOwner = _owner */\n  swap1\n  pop\n    /* \"@openzeppelin/contracts/access/Ownable.sol\":3029:3037  newOwner */\n  dup2\n    /* \"@openzeppelin/contracts/access/Ownable.sol\":3020:3026  _owner */\n  0x00\n  0x00\n    /* \"@openzeppelin/contracts/access/Ownable.sol\":3020:3037  _owner = newOwner */\n  0x0100\n  exp\n  dup2\n  sload\n  dup2\n  0xffffffffffffffffffffffffffffffffffffffff\n  mul\n  not\n  and\n  swap1\n  dup4\n  0xffffffffffffffffffffffffffffffffffffffff\n  and\n  mul\n  or\n  swap1\n  sstore\n  pop\n    /* \"@openzeppelin/contracts/access/Ownable.sol\":3083:3091  newOwner */\n  dup2\n    /* \"@openzeppelin/contracts/access/Ownable.sol\":3052:3092  OwnershipTransferred(oldOwner, newOwner) */\n  0xffffffffffffffffffffffffffffffffffffffff\n  and\n    /* \"@openzeppelin/contracts/access/Ownable.sol\":3073:3081  oldOwner */\n  dup2\n    /* \"@openzeppelin/contracts/access/Ownable.sol\":3052:3092  OwnershipTransferred(oldOwner, newOwner) */\n  0xffffffffffffffffffffffffffffffffffffffff\n  and\n  0x8be0079c531659141344cd1fd0a4f28419497f9722a3daafe3b4186f6b6457e0\n  mload(0x40)\n  mload(0x40)\n  dup1\n  swap2\n  sub\n  swap1\n  log3\n    /* \"@openzeppelin/contracts/access/Ownable.sol\":2975:3099  {... */\n  pop\n    /* \"@openzeppelin/contracts/access/Ownable.sol\":2912:3099  function _transferOwnership(address newOwner) internal virtual {... */\n  pop\n  jump\t// out\n    /* \"#utility.yul\":7:133   */\ntag_14:\n    /* \"#utility.yul\":44:51   */\n  0x00\n    /* \"#utility.yul\":84:126   */\n  0xffffffffffffffffffffffffffffffffffffffff\n    /* \"#utility.yul\":77:82   */\n  dup3\n    /* \"#utility.yul\":73:127   */\n  and\n    /* \"#utility.yul\":62:127   */\n  swap1\n  pop\n    /* \"#utility.yul\":7:133   */\n  swap2\n  swap1\n  pop\n  jump\t// out\n    /* \"#utility.yul\":139:235   */\ntag_15:\n    /* \"#utility.yul\":176:183   */\n  0x00\n    /* \"#utility.yul\":205:229   */\n  tag_20\n    /* \"#utility.yul\":223:228   */\n  dup3\n    /* \"#utility.yul\":205:229   */\n  tag_14\n  jump\t// in\ntag_20:\n    /* \"#utility.yul\":194:229   */\n  swap1\n  pop\n    /* \"#utility.yul\":139:235   */\n  swap2\n  swap1\n  pop\n  jump\t// out\n    /* \"#utility.yul\":241:359   */\ntag_16:\n    /* \"#utility.yul\":328:352   */\n  tag_22\n    /* \"#utility.yul\":346:351   */\n  dup2\n    /* \"#utility.yul\":328:352   */\n  tag_15\n  jump\t// in\ntag_22:\n    /* \"#utility.yul\":323:326   */\n  dup3\n    /* \"#utility.yul\":316:353   */\n  mstore\n    /* \"#utility.yul\":241:359   */\n  pop\n  pop\n  jump\t// out\n    /* \"#utility.yul\":365:587   */\ntag_7:\n    /* \"#utility.yul\":458:462   */\n  0x00\n    /* \"#utility.yul\":496:498   */\n  0x20\n    /* \"#utility.yul\":485:494   */\n  dup3\n    /* \"#utility.yul\":481:499   */\n  add\n    /* \"#utility.yul\":473:499   */\n  swap1\n  pop\n    /* \"#utility.yul\":509:580   */\n  tag_24\n    /* \"#utility.yul\":577:578   */\n  0x00\n    /* \"#utility.yul\":566:575   */\n  dup4\n    /* \"#utility.yul\":562:579   */\n  add\n    /* \"#utility.yul\":553:559   */\n  dup5\n    /* \"#utility.yul\":509:580   */\n  tag_16\n  jump\t// in\ntag_24:\n    /* \"#utility.yul\":365:587   */\n  swap3\n  swap2\n  pop\n  pop\n  jump\t// out\n    /* \"Script/ReversiDailyBonus.sol\":314:3267  contract ReversiClaim is Ownable {... */\ntag_12:\n  mload(0x80)\n  codecopy(0x00, dataOffset(sub_0), dataSize(sub_0))\n  0x00\n  assignImmutable(\"0x15dac17534d727f56f02eed1b0e1d323453a8a2d87732dff195d0c9821940f9e\")\n  return(0x00, dataSize(sub_0))\nstop\n\nsub_0: assembly {\n        /* \"Script/ReversiDailyBonus.sol\":314:3267  contract ReversiClaim is Ownable {... */\n      mstore(0x40, 0x80)\n      callvalue\n      dup1\n      iszero\n      tag_1\n      jumpi\n      revert(0x00, 0x00)\n    tag_1:\n      pop\n      jumpi(tag_2, lt(calldatasize, 0x04))\n      shr(0xe0, calldataload(0x00))\n      dup1\n      0x8455d8d5\n      gt\n      tag_13\n      jumpi\n      dup1\n      0x8455d8d5\n      eq\n      tag_8\n      jumpi\n      dup1\n      0x8da5cb5b\n      eq\n      tag_9\n      jumpi\n      dup1\n      0x9c6b85bb\n      eq\n      tag_10\n      jumpi\n      dup1\n      0xb77cf9c6\n      eq\n      tag_11\n      jumpi\n      dup1\n      0xf2fde38b\n      eq\n      tag_12\n      jumpi\n      jump(tag_2)\n    tag_13:\n      dup1\n      0x2fba2c85\n      eq\n      tag_3\n      jumpi\n      dup1\n      0x38926b6d\n      eq\n      tag_4\n      jumpi\n      dup1\n      0x50baa622\n      eq\n      tag_5\n      jumpi\n      dup1\n      0x5b7633d0\n      eq\n      tag_6\n      jumpi\n      dup1\n      0x715018a6\n      eq\n      tag_7\n      jumpi\n    tag_2:\n      revert(0x00, 0x00)\n        /* \"Script/ReversiDailyBonus.sol\":2952:3074  function getRemainingBalance() external view returns (uint256) {... */\n    tag_3:\n      tag_14\n      tag_15\n      jump\t// in\n    tag_14:\n      mload(0x40)\n      tag_16\n      swap2\n      swap1\n      tag_17\n      jump\t// in\n    tag_16:\n      mload(0x40)\n      dup1\n      swap2\n      sub\n      swap1\n      return\n        /* \"Script/ReversiDailyBonus.sol\":1520:2903  function claim(uint256 amount, bytes calldata signature) external {... */\n    tag_4:\n      tag_18\n      0x04\n      dup1\n      calldatasize\n      sub\n      dup2\n      add\n      swap1\n      tag_19\n      swap2\n      swap1\n      tag_20\n      jump\t// in\n    tag_19:\n      tag_21\n      jump\t// in\n    tag_18:\n      stop\n        /* \"Script/ReversiDailyBonus.sol\":3122:3264  function withdrawToken(uint256 amount) external onlyOwner {... */\n    tag_5:\n      tag_22\n      0x04\n      dup1\n      calldatasize\n      sub\n      dup2\n      add\n      swap1\n      tag_23\n      swap2\n      swap1\n      tag_24\n      jump\t// in\n    tag_23:\n      tag_25\n      jump\t// in\n    tag_22:\n      stop\n        /* \"Script/ReversiDailyBonus.sol\":505:587  address public constant signerAddress = 0xB6eDacfc0dFc759E9AC5b9b8B6eB32310ac1Bb49 */\n    tag_6:\n      tag_26\n      tag_27\n      jump\t// in\n    tag_26:\n      mload(0x40)\n      tag_28\n      swap2\n      swap1\n      tag_29\n      jump\t// in\n    tag_28:\n      mload(0x40)\n      dup1\n      swap2\n      sub\n      swap1\n      return\n        /* \"@openzeppelin/contracts/access/Ownable.sol\":2293:2394  function renounceOwnership() public virtual onlyOwner {... */\n    tag_7:\n      tag_30\n      tag_31\n      jump\t// in\n    tag_30:\n      stop\n        /* \"Script/ReversiDailyBonus.sol\":413:445  IERC20 public immutable chhToken */\n    tag_8:\n      tag_32\n      tag_33\n      jump\t// in\n    tag_32:\n      mload(0x40)\n      tag_34\n      swap2\n      swap1\n      tag_35\n      jump\t// in\n    tag_34:\n      mload(0x40)\n      dup1\n      swap2\n      sub\n      swap1\n      return\n        /* \"@openzeppelin/contracts/access/Ownable.sol\":1638:1723  function owner() public view virtual returns (address) {... */\n    tag_9:\n      tag_36\n      tag_37\n      jump\t// in\n    tag_36:\n      mload(0x40)\n      tag_38\n      swap2\n      swap1\n      tag_29\n      jump\t// in\n    tag_38:\n      mload(0x40)\n      dup1\n      swap2\n      sub\n      swap1\n      return\n        /* \"Script/ReversiDailyBonus.sol\":1168:1489  function checkDailyLimit(address user) public view returns (bool) {... */\n    tag_10:\n      tag_39\n      0x04\n      dup1\n      calldatasize\n      sub\n      dup2\n      add\n      swap1\n      tag_40\n      swap2\n      swap1\n      tag_41\n      jump\t// in\n    tag_40:\n      tag_42\n      jump\t// in\n    tag_39:\n      mload(0x40)\n      tag_43\n      swap2\n      swap1\n      tag_44\n      jump\t// in\n    tag_43:\n      mload(0x40)\n      dup1\n      swap2\n      sub\n      swap1\n      return\n        /* \"Script/ReversiDailyBonus.sol\":658:706  mapping(address => uint256) public lastClaimTime */\n    tag_11:\n      tag_45\n      0x04\n      dup1\n      calldatasize\n      sub\n      dup2\n      add\n      swap1\n      tag_46\n      swap2\n      swap1\n      tag_41\n      jump\t// in\n    tag_46:\n      tag_47\n      jump\t// in\n    tag_45:\n      mload(0x40)\n      tag_48\n      swap2\n      swap1\n      tag_17\n      jump\t// in\n    tag_48:\n      mload(0x40)\n      dup1\n      swap2\n      sub\n      swap1\n      return\n        /* \"@openzeppelin/contracts/access/Ownable.sol\":2543:2758  function transferOwnership(address newOwner) public virtual onlyOwner {... */\n    tag_12:\n      tag_49\n      0x04\n      dup1\n      calldatasize\n      sub\n      dup2\n      add\n      swap1\n      tag_50\n      swap2\n      swap1\n      tag_41\n      jump\t// in\n    tag_50:\n      tag_51\n      jump\t// in\n    tag_49:\n      stop\n        /* \"Script/ReversiDailyBonus.sol\":2952:3074  function getRemainingBalance() external view returns (uint256) {... */\n    tag_15:\n        /* \"Script/ReversiDailyBonus.sol\":3006:3013  uint256 */\n      0x00\n        /* \"Script/ReversiDailyBonus.sol\":3033:3041  chhToken */\n      immutable(\"0x15dac17534d727f56f02eed1b0e1d323453a8a2d87732dff195d0c9821940f9e\")\n        /* \"Script/ReversiDailyBonus.sol\":3033:3051  chhToken.balanceOf */\n      0xffffffffffffffffffffffffffffffffffffffff\n      and\n      0x70a08231\n        /* \"Script/ReversiDailyBonus.sol\":3060:3064  this */\n      address\n        /* \"Script/ReversiDailyBonus.sol\":3033:3066  chhToken.balanceOf(address(this)) */\n      mload(0x40)\n      dup3\n      0xffffffff\n      and\n      0xe0\n      shl\n      dup2\n      mstore\n      0x04\n      add\n      tag_53\n      swap2\n      swap1\n      tag_29\n      jump\t// in\n    tag_53:\n      0x20\n      mload(0x40)\n      dup1\n      dup4\n      sub\n      dup2\n      dup7\n      gas\n      staticcall\n      iszero\n      dup1\n      iszero\n      tag_55\n      jumpi\n      returndatacopy(0x00, 0x00, returndatasize)\n      revert(0x00, returndatasize)\n    tag_55:\n      pop\n      pop\n      pop\n      pop\n      mload(0x40)\n      returndatasize\n      not(0x1f)\n      0x1f\n      dup3\n      add\n      and\n      dup3\n      add\n      dup1\n      0x40\n      mstore\n      pop\n      dup2\n      add\n      swap1\n      tag_56\n      swap2\n      swap1\n      tag_57\n      jump\t// in\n    tag_56:\n        /* \"Script/ReversiDailyBonus.sol\":3026:3066  return chhToken.balanceOf(address(this)) */\n      swap1\n      pop\n        /* \"Script/ReversiDailyBonus.sol\":2952:3074  function getRemainingBalance() external view returns (uint256) {... */\n      swap1\n      jump\t// out\n        /* \"Script/ReversiDailyBonus.sol\":1520:2903  function claim(uint256 amount, bytes calldata signature) external {... */\n    tag_21:\n        /* \"Script/ReversiDailyBonus.sol\":1614:1615  0 */\n      0x00\n        /* \"Script/ReversiDailyBonus.sol\":1605:1611  amount */\n      dup4\n        /* \"Script/ReversiDailyBonus.sol\":1605:1615  amount > 0 */\n      gt\n        /* \"Script/ReversiDailyBonus.sol\":1597:1638  require(amount > 0, \"Amount must be > 0\") */\n      tag_59\n      jumpi\n      mload(0x40)\n      0x08c379a000000000000000000000000000000000000000000000000000000000\n      dup2\n      mstore\n      0x04\n      add\n      tag_60\n      swap1\n      tag_61\n      jump\t// in\n    tag_60:\n      mload(0x40)\n      dup1\n      swap2\n      sub\n      swap1\n      revert\n    tag_59:\n        /* \"Script/ReversiDailyBonus.sol\":1734:1738  1500 */\n      0x05dc\n        /* \"Script/ReversiDailyBonus.sol\":1724:1730  amount */\n      dup4\n        /* \"Script/ReversiDailyBonus.sol\":1724:1738  amount <= 1500 */\n      gt\n      iszero\n        /* \"Script/ReversiDailyBonus.sol\":1716:1774  require(amount <= 1500, \"Amount exceeds limit (1500 CHH)\") */\n      tag_62\n      jumpi\n      mload(0x40)\n      0x08c379a000000000000000000000000000000000000000000000000000000000\n      dup2\n      mstore\n      0x04\n      add\n      tag_63\n      swap1\n      tag_64\n      jump\t// in\n    tag_63:\n      mload(0x40)\n      dup1\n      swap2\n      sub\n      swap1\n      revert\n    tag_62:\n        /* \"Script/ReversiDailyBonus.sol\":1828:1855  checkDailyLimit(msg.sender) */\n      tag_65\n        /* \"Script/ReversiDailyBonus.sol\":1844:1854  msg.sender */\n      caller\n        /* \"Script/ReversiDailyBonus.sol\":1828:1843  checkDailyLimit */\n      tag_42\n        /* \"Script/ReversiDailyBonus.sol\":1828:1855  checkDailyLimit(msg.sender) */\n      jump\t// in\n    tag_65:\n        /* \"Script/ReversiDailyBonus.sol\":1820:1902  require(checkDailyLimit(msg.sender), \"Already claimed today (resets at UTC 0:00)\") */\n      tag_66\n      jumpi\n      mload(0x40)\n      0x08c379a000000000000000000000000000000000000000000000000000000000\n      dup2\n      mstore\n      0x04\n      add\n      tag_67\n      swap1\n      tag_68\n      jump\t// in\n    tag_67:\n      mload(0x40)\n      dup1\n      swap2\n      sub\n      swap1\n      revert\n    tag_66:\n        /* \"Script/ReversiDailyBonus.sol\":2080:2092  bytes32 hash */\n      0x00\n        /* \"Script/ReversiDailyBonus.sol\":2122:2132  msg.sender */\n      caller\n        /* \"Script/ReversiDailyBonus.sol\":2134:2140  amount */\n      dup5\n        /* \"Script/ReversiDailyBonus.sol\":2105:2141  abi.encodePacked(msg.sender, amount) */\n      add(0x20, mload(0x40))\n      tag_69\n      swap3\n      swap2\n      swap1\n      tag_70\n      jump\t// in\n    tag_69:\n      mload(0x40)\n      0x20\n      dup2\n      dup4\n      sub\n      sub\n      dup2\n      mstore\n      swap1\n      0x40\n      mstore\n        /* \"Script/ReversiDailyBonus.sol\":2095:2142  keccak256(abi.encodePacked(msg.sender, amount)) */\n      dup1\n      mload\n      swap1\n      0x20\n      add\n      keccak256\n        /* \"Script/ReversiDailyBonus.sol\":2080:2142  bytes32 hash = keccak256(abi.encodePacked(msg.sender, amount)) */\n      swap1\n      pop\n        /* \"Script/ReversiDailyBonus.sol\":2153:2181  bytes32 ethSignedMessageHash */\n      0x00\n        /* \"Script/ReversiDailyBonus.sol\":2184:2229  MessageHashUtils.toEthSignedMessageHash(hash) */\n      tag_71\n        /* \"Script/ReversiDailyBonus.sol\":2224:2228  hash */\n      dup3\n        /* \"Script/ReversiDailyBonus.sol\":2184:2223  MessageHashUtils.toEthSignedMessageHash */\n      tag_72\n        /* \"Script/ReversiDailyBonus.sol\":2184:2229  MessageHashUtils.toEthSignedMessageHash(hash) */\n      jump\t// in\n    tag_71:\n        /* \"Script/ReversiDailyBonus.sol\":2153:2229  bytes32 ethSignedMessageHash = MessageHashUtils.toEthSignedMessageHash(hash) */\n      swap1\n      pop\n        /* \"Script/ReversiDailyBonus.sol\":2250:2273  address recoveredSigner */\n      0x00\n        /* \"Script/ReversiDailyBonus.sol\":2276:2315  ethSignedMessageHash.recover(signature) */\n      tag_73\n        /* \"Script/ReversiDailyBonus.sol\":2305:2314  signature */\n      dup6\n      dup6\n        /* \"Script/ReversiDailyBonus.sol\":2276:2315  ethSignedMessageHash.recover(signature) */\n      dup1\n      dup1\n      0x1f\n      add\n      0x20\n      dup1\n      swap2\n      div\n      mul\n      0x20\n      add\n      mload(0x40)\n      swap1\n      dup2\n      add\n      0x40\n      mstore\n      dup1\n      swap4\n      swap3\n      swap2\n      swap1\n      dup2\n      dup2\n      mstore\n      0x20\n      add\n      dup4\n      dup4\n      dup1\n      dup3\n      dup5\n      calldatacopy\n      0x00\n      dup2\n      dup5\n      add\n      mstore\n      not(0x1f)\n      0x1f\n      dup3\n      add\n      and\n      swap1\n      pop\n      dup1\n      dup4\n      add\n      swap3\n      pop\n      pop\n      pop\n      pop\n      pop\n      pop\n      pop\n        /* \"Script/ReversiDailyBonus.sol\":2276:2296  ethSignedMessageHash */\n      dup4\n        /* \"Script/ReversiDailyBonus.sol\":2276:2304  ethSignedMessageHash.recover */\n      tag_74\n      swap1\n        /* \"Script/ReversiDailyBonus.sol\":2276:2315  ethSignedMessageHash.recover(signature) */\n      swap2\n      swap1\n      0xffffffff\n      and\n      jump\t// in\n    tag_73:\n        /* \"Script/ReversiDailyBonus.sol\":2250:2315  address recoveredSigner = ethSignedMessageHash.recover(signature) */\n      swap1\n      pop\n        /* \"Script/ReversiDailyBonus.sol\":545:587  0xB6eDacfc0dFc759E9AC5b9b8B6eB32310ac1Bb49 */\n      0xb6edacfc0dfc759e9ac5b9b8b6eb32310ac1bb49\n        /* \"Script/ReversiDailyBonus.sol\":2334:2366  recoveredSigner == signerAddress */\n      0xffffffffffffffffffffffffffffffffffffffff\n      and\n        /* \"Script/ReversiDailyBonus.sol\":2334:2349  recoveredSigner */\n      dup2\n        /* \"Script/ReversiDailyBonus.sol\":2334:2366  recoveredSigner == signerAddress */\n      0xffffffffffffffffffffffffffffffffffffffff\n      and\n      eq\n        /* \"Script/ReversiDailyBonus.sol\":2326:2388  require(recoveredSigner == signerAddress, \"Invalid signature\") */\n      tag_75\n      jumpi\n      mload(0x40)\n      0x08c379a000000000000000000000000000000000000000000000000000000000\n      dup2\n      mstore\n      0x04\n      add\n      tag_76\n      swap1\n      tag_77\n      jump\t// in\n    tag_76:\n      mload(0x40)\n      dup1\n      swap2\n      sub\n      swap1\n      revert\n    tag_75:\n        /* \"Script/ReversiDailyBonus.sol\":2461:2476  block.timestamp */\n      timestamp\n        /* \"Script/ReversiDailyBonus.sol\":2433:2446  lastClaimTime */\n      0x01\n        /* \"Script/ReversiDailyBonus.sol\":2433:2458  lastClaimTime[msg.sender] */\n      0x00\n        /* \"Script/ReversiDailyBonus.sol\":2447:2457  msg.sender */\n      caller\n        /* \"Script/ReversiDailyBonus.sol\":2433:2458  lastClaimTime[msg.sender] */\n      0xffffffffffffffffffffffffffffffffffffffff\n      and\n      0xffffffffffffffffffffffffffffffffffffffff\n      and\n      dup2\n      mstore\n      0x20\n      add\n      swap1\n      dup2\n      mstore\n      0x20\n      add\n      0x00\n      keccak256\n        /* \"Script/ReversiDailyBonus.sol\":2433:2476  lastClaimTime[msg.sender] = block.timestamp */\n      dup2\n      swap1\n      sstore\n      pop\n        /* \"Script/ReversiDailyBonus.sol\":2581:2598  uint256 amountWei */\n      0x00\n        /* \"Script/ReversiDailyBonus.sol\":2610:2616  10**18 */\n      0x0de0b6b3a7640000\n        /* \"Script/ReversiDailyBonus.sol\":2601:2607  amount */\n      dup8\n        /* \"Script/ReversiDailyBonus.sol\":2601:2616  amount * 10**18 */\n      tag_78\n      swap2\n      swap1\n      tag_79\n      jump\t// in\n    tag_78:\n        /* \"Script/ReversiDailyBonus.sol\":2581:2616  uint256 amountWei = amount * 10**18 */\n      swap1\n      pop\n        /* \"Script/ReversiDailyBonus.sol\":2674:2683  amountWei */\n      dup1\n        /* \"Script/ReversiDailyBonus.sol\":2637:2645  chhToken */\n      immutable(\"0x15dac17534d727f56f02eed1b0e1d323453a8a2d87732dff195d0c9821940f9e\")\n        /* \"Script/ReversiDailyBonus.sol\":2637:2655  chhToken.balanceOf */\n      0xffffffffffffffffffffffffffffffffffffffff\n      and\n      0x70a08231\n        /* \"Script/ReversiDailyBonus.sol\":2664:2668  this */\n      address\n        /* \"Script/ReversiDailyBonus.sol\":2637:2670  chhToken.balanceOf(address(this)) */\n      mload(0x40)\n      dup3\n      0xffffffff\n      and\n      0xe0\n      shl\n      dup2\n      mstore\n      0x04\n      add\n      tag_80\n      swap2\n      swap1\n      tag_29\n      jump\t// in\n    tag_80:\n      0x20\n      mload(0x40)\n      dup1\n      dup4\n      sub\n      dup2\n      dup7\n      gas\n      staticcall\n      iszero\n      dup1\n      iszero\n      tag_82\n      jumpi\n      returndatacopy(0x00, 0x00, returndatasize)\n      revert(0x00, returndatasize)\n    tag_82:\n      pop\n      pop\n      pop\n      pop\n      mload(0x40)\n      returndatasize\n      not(0x1f)\n      0x1f\n      dup3\n      add\n      and\n      dup3\n      add\n      dup1\n      0x40\n      mstore\n      pop\n      dup2\n      add\n      swap1\n      tag_83\n      swap2\n      swap1\n      tag_57\n      jump\t// in\n    tag_83:\n        /* \"Script/ReversiDailyBonus.sol\":2637:2683  chhToken.balanceOf(address(this)) >= amountWei */\n      lt\n      iszero\n        /* \"Script/ReversiDailyBonus.sol\":2629:2721  require(chhToken.balanceOf(address(this)) >= amountWei, \"Contract has insufficient balance\") */\n      tag_84\n      jumpi\n      mload(0x40)\n      0x08c379a000000000000000000000000000000000000000000000000000000000\n      dup2\n      mstore\n      0x04\n      add\n      tag_85\n      swap1\n      tag_86\n      jump\t// in\n    tag_85:\n      mload(0x40)\n      dup1\n      swap2\n      sub\n      swap1\n      revert\n    tag_84:\n        /* \"Script/ReversiDailyBonus.sol\":2732:2744  bool success */\n      0x00\n        /* \"Script/ReversiDailyBonus.sol\":2747:2755  chhToken */\n      immutable(\"0x15dac17534d727f56f02eed1b0e1d323453a8a2d87732dff195d0c9821940f9e\")\n        /* \"Script/ReversiDailyBonus.sol\":2747:2764  chhToken.transfer */\n      0xffffffffffffffffffffffffffffffffffffffff\n      and\n      0xa9059cbb\n        /* \"Script/ReversiDailyBonus.sol\":2765:2775  msg.sender */\n      caller\n        /* \"Script/ReversiDailyBonus.sol\":2777:2786  amountWei */\n      dup5\n        /* \"Script/ReversiDailyBonus.sol\":2747:2787  chhToken.transfer(msg.sender, amountWei) */\n      mload(0x40)\n      dup4\n      0xffffffff\n      and\n      0xe0\n      shl\n      dup2\n      mstore\n      0x04\n      add\n      tag_87\n      swap3\n      swap2\n      swap1\n      tag_88\n      jump\t// in\n    tag_87:\n      0x20\n      mload(0x40)\n      dup1\n      dup4\n      sub\n      dup2\n      0x00\n      dup8\n      gas\n      call\n      iszero\n      dup1\n      iszero\n      tag_90\n      jumpi\n      returndatacopy(0x00, 0x00, returndatasize)\n      revert(0x00, returndatasize)\n    tag_90:\n      pop\n      pop\n      pop\n      pop\n      mload(0x40)\n      returndatasize\n      not(0x1f)\n      0x1f\n      dup3\n      add\n      and\n      dup3\n      add\n      dup1\n      0x40\n      mstore\n      pop\n      dup2\n      add\n      swap1\n      tag_91\n      swap2\n      swap1\n      tag_92\n      jump\t// in\n    tag_91:\n        /* \"Script/ReversiDailyBonus.sol\":2732:2787  bool success = chhToken.transfer(msg.sender, amountWei) */\n      swap1\n      pop\n        /* \"Script/ReversiDailyBonus.sol\":2806:2813  success */\n      dup1\n        /* \"Script/ReversiDailyBonus.sol\":2798:2839  require(success, \"Token transfer failed\") */\n      tag_93\n      jumpi\n      mload(0x40)\n      0x08c379a000000000000000000000000000000000000000000000000000000000\n      dup2\n      mstore\n      0x04\n      add\n      tag_94\n      swap1\n      tag_95\n      jump\t// in\n    tag_94:\n      mload(0x40)\n      dup1\n      swap2\n      sub\n      swap1\n      revert\n    tag_93:\n        /* \"Script/ReversiDailyBonus.sol\":2873:2883  msg.sender */\n      caller\n        /* \"Script/ReversiDailyBonus.sol\":2865:2895  Claimed(msg.sender, amountWei) */\n      0xffffffffffffffffffffffffffffffffffffffff\n      and\n      0xd8138f8a3f377c5259ca548e70e4c2de94f129f5a11036a15b69513cba2b426a\n        /* \"Script/ReversiDailyBonus.sol\":2885:2894  amountWei */\n      dup4\n        /* \"Script/ReversiDailyBonus.sol\":2865:2895  Claimed(msg.sender, amountWei) */\n      mload(0x40)\n      tag_96\n      swap2\n      swap1\n      tag_17\n      jump\t// in\n    tag_96:\n      mload(0x40)\n      dup1\n      swap2\n      sub\n      swap1\n      log2\n        /* \"Script/ReversiDailyBonus.sol\":1586:2903  {... */\n      pop\n      pop\n      pop\n      pop\n      pop\n        /* \"Script/ReversiDailyBonus.sol\":1520:2903  function claim(uint256 amount, bytes calldata signature) external {... */\n      pop\n      pop\n      pop\n      jump\t// out\n        /* \"Script/ReversiDailyBonus.sol\":3122:3264  function withdrawToken(uint256 amount) external onlyOwner {... */\n    tag_25:\n        /* \"@openzeppelin/contracts/access/Ownable.sol\":1531:1544  _checkOwner() */\n      tag_98\n        /* \"@openzeppelin/contracts/access/Ownable.sol\":1531:1542  _checkOwner */\n      tag_99\n        /* \"@openzeppelin/contracts/access/Ownable.sol\":1531:1544  _checkOwner() */\n      jump\t// in\n    tag_98:\n        /* \"Script/ReversiDailyBonus.sol\":3199:3207  chhToken */\n      immutable(\"0x15dac17534d727f56f02eed1b0e1d323453a8a2d87732dff195d0c9821940f9e\")\n        /* \"Script/ReversiDailyBonus.sol\":3199:3216  chhToken.transfer */\n      0xffffffffffffffffffffffffffffffffffffffff\n      and\n      0xa9059cbb\n        /* \"Script/ReversiDailyBonus.sol\":3217:3227  msg.sender */\n      caller\n        /* \"Script/ReversiDailyBonus.sol\":3229:3235  amount */\n      dup4\n        /* \"Script/ReversiDailyBonus.sol\":3199:3236  chhToken.transfer(msg.sender, amount) */\n      mload(0x40)\n      dup4\n      0xffffffff\n      and\n      0xe0\n      shl\n      dup2\n      mstore\n      0x04\n      add\n      tag_101\n      swap3\n      swap2\n      swap1\n      tag_88\n      jump\t// in\n    tag_101:\n      0x20\n      mload(0x40)\n      dup1\n      dup4\n      sub\n      dup2\n      0x00\n      dup8\n      gas\n      call\n      iszero\n      dup1\n      iszero\n      tag_103\n      jumpi\n      returndatacopy(0x00, 0x00, returndatasize)\n      revert(0x00, returndatasize)\n    tag_103:\n      pop\n      pop\n      pop\n      pop\n      mload(0x40)\n      returndatasize\n      not(0x1f)\n      0x1f\n      dup3\n      add\n      and\n      dup3\n      add\n      dup1\n      0x40\n      mstore\n      pop\n      dup2\n      add\n      swap1\n      tag_104\n      swap2\n      swap1\n      tag_92\n      jump\t// in\n    tag_104:\n        /* \"Script/ReversiDailyBonus.sol\":3191:3256  require(chhToken.transfer(msg.sender, amount), \"Transfer failed\") */\n      tag_105\n      jumpi\n      mload(0x40)\n      0x08c379a000000000000000000000000000000000000000000000000000000000\n      dup2\n      mstore\n      0x04\n      add\n      tag_106\n      swap1\n      tag_107\n      jump\t// in\n    tag_106:\n      mload(0x40)\n      dup1\n      swap2\n      sub\n      swap1\n      revert\n    tag_105:\n        /* \"Script/ReversiDailyBonus.sol\":3122:3264  function withdrawToken(uint256 amount) external onlyOwner {... */\n      pop\n      jump\t// out\n        /* \"Script/ReversiDailyBonus.sol\":505:587  address public constant signerAddress = 0xB6eDacfc0dFc759E9AC5b9b8B6eB32310ac1Bb49 */\n    tag_27:\n        /* \"Script/ReversiDailyBonus.sol\":545:587  0xB6eDacfc0dFc759E9AC5b9b8B6eB32310ac1Bb49 */\n      0xb6edacfc0dfc759e9ac5b9b8b6eb32310ac1bb49\n        /* \"Script/ReversiDailyBonus.sol\":505:587  address public constant signerAddress = 0xB6eDacfc0dFc759E9AC5b9b8B6eB32310ac1Bb49 */\n      dup2\n      jump\t// out\n        /* \"@openzeppelin/contracts/access/Ownable.sol\":2293:2394  function renounceOwnership() public virtual onlyOwner {... */\n    tag_31:\n        /* \"@openzeppelin/contracts/access/Ownable.sol\":1531:1544  _checkOwner() */\n      tag_109\n        /* \"@openzeppelin/contracts/access/Ownable.sol\":1531:1542  _checkOwner */\n      tag_99\n        /* \"@openzeppelin/contracts/access/Ownable.sol\":1531:1544  _checkOwner() */\n      jump\t// in\n    tag_109:\n        /* \"@openzeppelin/contracts/access/Ownable.sol\":2357:2387  _transferOwnership(address(0)) */\n      tag_111\n        /* \"@openzeppelin/contracts/access/Ownable.sol\":2384:2385  0 */\n      0x00\n        /* \"@openzeppelin/contracts/access/Ownable.sol\":2357:2375  _transferOwnership */\n      tag_112\n        /* \"@openzeppelin/contracts/access/Ownable.sol\":2357:2387  _transferOwnership(address(0)) */\n      jump\t// in\n    tag_111:\n        /* \"@openzeppelin/contracts/access/Ownable.sol\":2293:2394  function renounceOwnership() public virtual onlyOwner {... */\n      jump\t// out\n        /* \"Script/ReversiDailyBonus.sol\":413:445  IERC20 public immutable chhToken */\n    tag_33:\n      immutable(\"0x15dac17534d727f56f02eed1b0e1d323453a8a2d87732dff195d0c9821940f9e\")\n      dup2\n      jump\t// out\n        /* \"@openzeppelin/contracts/access/Ownable.sol\":1638:1723  function owner() public view virtual returns (address) {... */\n    tag_37:\n        /* \"@openzeppelin/contracts/access/Ownable.sol\":1684:1691  address */\n      0x00\n        /* \"@openzeppelin/contracts/access/Ownable.sol\":1710:1716  _owner */\n      0x00\n      0x00\n      swap1\n      sload\n      swap1\n      0x0100\n      exp\n      swap1\n      div\n      0xffffffffffffffffffffffffffffffffffffffff\n      and\n        /* \"@openzeppelin/contracts/access/Ownable.sol\":1703:1716  return _owner */\n      swap1\n      pop\n        /* \"@openzeppelin/contracts/access/Ownable.sol\":1638:1723  function owner() public view virtual returns (address) {... */\n      swap1\n      jump\t// out\n        /* \"Script/ReversiDailyBonus.sol\":1168:1489  function checkDailyLimit(address user) public view returns (bool) {... */\n    tag_42:\n        /* \"Script/ReversiDailyBonus.sol\":1228:1232  bool */\n      0x00\n        /* \"Script/ReversiDailyBonus.sol\":1245:1263  uint256 currentDay */\n      0x00\n        /* \"Script/ReversiDailyBonus.sol\":1284:1290  1 days */\n      0x015180\n        /* \"Script/ReversiDailyBonus.sol\":1266:1281  block.timestamp */\n      timestamp\n        /* \"Script/ReversiDailyBonus.sol\":1266:1290  block.timestamp / 1 days */\n      tag_115\n      swap2\n      swap1\n      tag_116\n      jump\t// in\n    tag_115:\n        /* \"Script/ReversiDailyBonus.sol\":1245:1290  uint256 currentDay = block.timestamp / 1 days */\n      swap1\n      pop\n        /* \"Script/ReversiDailyBonus.sol\":1301:1323  uint256 lastClaimedDay */\n      0x00\n        /* \"Script/ReversiDailyBonus.sol\":1348:1354  1 days */\n      0x015180\n        /* \"Script/ReversiDailyBonus.sol\":1326:1339  lastClaimTime */\n      0x01\n        /* \"Script/ReversiDailyBonus.sol\":1326:1345  lastClaimTime[user] */\n      0x00\n        /* \"Script/ReversiDailyBonus.sol\":1340:1344  user */\n      dup7\n        /* \"Script/ReversiDailyBonus.sol\":1326:1345  lastClaimTime[user] */\n      0xffffffffffffffffffffffffffffffffffffffff\n      and\n      0xffffffffffffffffffffffffffffffffffffffff\n      and\n      dup2\n      mstore\n      0x20\n      add\n      swap1\n      dup2\n      mstore\n      0x20\n      add\n      0x00\n      keccak256\n      sload\n        /* \"Script/ReversiDailyBonus.sol\":1326:1354  lastClaimTime[user] / 1 days */\n      tag_117\n      swap2\n      swap1\n      tag_116\n      jump\t// in\n    tag_117:\n        /* \"Script/ReversiDailyBonus.sol\":1301:1354  uint256 lastClaimedDay = lastClaimTime[user] / 1 days */\n      swap1\n      pop\n        /* \"Script/ReversiDailyBonus.sol\":1467:1481  lastClaimedDay */\n      dup1\n        /* \"Script/ReversiDailyBonus.sol\":1454:1464  currentDay */\n      dup3\n        /* \"Script/ReversiDailyBonus.sol\":1454:1481  currentDay > lastClaimedDay */\n      gt\n        /* \"Script/ReversiDailyBonus.sol\":1447:1481  return currentDay > lastClaimedDay */\n      swap3\n      pop\n      pop\n      pop\n        /* \"Script/ReversiDailyBonus.sol\":1168:1489  function checkDailyLimit(address user) public view returns (bool) {... */\n      swap2\n      swap1\n      pop\n      jump\t// out\n        /* \"Script/ReversiDailyBonus.sol\":658:706  mapping(address => uint256) public lastClaimTime */\n    tag_47:\n      mstore(0x20, 0x01)\n      dup1\n      0x00\n      mstore\n      keccak256(0x00, 0x40)\n      0x00\n      swap2\n      pop\n      swap1\n      pop\n      sload\n      dup2\n      jump\t// out\n        /* \"@openzeppelin/contracts/access/Ownable.sol\":2543:2758  function transferOwnership(address newOwner) public virtual onlyOwner {... */\n    tag_51:\n        /* \"@openzeppelin/contracts/access/Ownable.sol\":1531:1544  _checkOwner() */\n      tag_119\n        /* \"@openzeppelin/contracts/access/Ownable.sol\":1531:1542  _checkOwner */\n      tag_99\n        /* \"@openzeppelin/contracts/access/Ownable.sol\":1531:1544  _checkOwner() */\n      jump\t// in\n    tag_119:\n        /* \"@openzeppelin/contracts/access/Ownable.sol\":2647:2648  0 */\n      0x00\n        /* \"@openzeppelin/contracts/access/Ownable.sol\":2627:2649  newOwner == address(0) */\n      0xffffffffffffffffffffffffffffffffffffffff\n      and\n        /* \"@openzeppelin/contracts/access/Ownable.sol\":2627:2635  newOwner */\n      dup2\n        /* \"@openzeppelin/contracts/access/Ownable.sol\":2627:2649  newOwner == address(0) */\n      0xffffffffffffffffffffffffffffffffffffffff\n      and\n      sub\n        /* \"@openzeppelin/contracts/access/Ownable.sol\":2623:2714  if (newOwner == address(0)) {... */\n      tag_121\n      jumpi\n        /* \"@openzeppelin/contracts/access/Ownable.sol\":2700:2701  0 */\n      0x00\n        /* \"@openzeppelin/contracts/access/Ownable.sol\":2672:2703  OwnableInvalidOwner(address(0)) */\n      mload(0x40)\n      0x1e4fbdf700000000000000000000000000000000000000000000000000000000\n      dup2\n      mstore\n      0x04\n      add\n      tag_122\n      swap2\n      swap1\n      tag_29\n      jump\t// in\n    tag_122:\n      mload(0x40)\n      dup1\n      swap2\n      sub\n      swap1\n      revert\n        /* \"@openzeppelin/contracts/access/Ownable.sol\":2623:2714  if (newOwner == address(0)) {... */\n    tag_121:\n        /* \"@openzeppelin/contracts/access/Ownable.sol\":2723:2751  _transferOwnership(newOwner) */\n      tag_123\n        /* \"@openzeppelin/contracts/access/Ownable.sol\":2742:2750  newOwner */\n      dup2\n        /* \"@openzeppelin/contracts/access/Ownable.sol\":2723:2741  _transferOwnership */\n      tag_112\n        /* \"@openzeppelin/contracts/access/Ownable.sol\":2723:2751  _transferOwnership(newOwner) */\n      jump\t// in\n    tag_123:\n        /* \"@openzeppelin/contracts/access/Ownable.sol\":2543:2758  function transferOwnership(address newOwner) public virtual onlyOwner {... */\n      pop\n      jump\t// out\n        /* \"@openzeppelin/contracts/utils/cryptography/MessageHashUtils.sol\":1247:1680  function toEthSignedMessageHash(bytes32 messageHash) internal pure returns (bytes32 digest) {... */\n    tag_72:\n        /* \"@openzeppelin/contracts/utils/cryptography/MessageHashUtils.sol\":1323:1337  bytes32 digest */\n      0x00\n        /* \"@openzeppelin/contracts/utils/cryptography/MessageHashUtils.sol\":1401:1435  \"\\x19Ethereum Signed Message:\\n32\" */\n      0x19457468657265756d205369676e6564204d6573736167653a0a333200000000\n        /* \"@openzeppelin/contracts/utils/cryptography/MessageHashUtils.sol\":1395:1399  0x00 */\n      0x00\n        /* \"@openzeppelin/contracts/utils/cryptography/MessageHashUtils.sol\":1388:1436  mstore(0x00, \"\\x19Ethereum Signed Message:\\n32\") */\n      mstore\n        /* \"@openzeppelin/contracts/utils/cryptography/MessageHashUtils.sol\":1503:1514  messageHash */\n      dup2\n        /* \"@openzeppelin/contracts/utils/cryptography/MessageHashUtils.sol\":1497:1501  0x1c */\n      0x1c\n        /* \"@openzeppelin/contracts/utils/cryptography/MessageHashUtils.sol\":1490:1515  mstore(0x1c, messageHash) */\n      mstore\n        /* \"@openzeppelin/contracts/utils/cryptography/MessageHashUtils.sol\":1595:1599  0x3c */\n      0x3c\n        /* \"@openzeppelin/contracts/utils/cryptography/MessageHashUtils.sol\":1589:1593  0x00 */\n      0x00\n        /* \"@openzeppelin/contracts/utils/cryptography/MessageHashUtils.sol\":1579:1600  keccak256(0x00, 0x3c) */\n      keccak256\n        /* \"@openzeppelin/contracts/utils/cryptography/MessageHashUtils.sol\":1569:1600  digest := keccak256(0x00, 0x3c) */\n      swap1\n      pop\n        /* \"@openzeppelin/contracts/utils/cryptography/MessageHashUtils.sol\":1247:1680  function toEthSignedMessageHash(bytes32 messageHash) internal pure returns (bytes32 digest) {... */\n      swap2\n      swap1\n      pop\n      jump\t// out\n        /* \"@openzeppelin/contracts/utils/cryptography/ECDSA.sol\":3714:3969  function recover(bytes32 hash, bytes memory signature) internal pure returns (address) {... */\n    tag_74:\n        /* \"@openzeppelin/contracts/utils/cryptography/ECDSA.sol\":3792:3799  address */\n      0x00\n        /* \"@openzeppelin/contracts/utils/cryptography/ECDSA.sol\":3812:3829  address recovered */\n      0x00\n        /* \"@openzeppelin/contracts/utils/cryptography/ECDSA.sol\":3831:3849  RecoverError error */\n      0x00\n        /* \"@openzeppelin/contracts/utils/cryptography/ECDSA.sol\":3851:3867  bytes32 errorArg */\n      0x00\n        /* \"@openzeppelin/contracts/utils/cryptography/ECDSA.sol\":3871:3898  tryRecover(hash, signature) */\n      tag_126\n        /* \"@openzeppelin/contracts/utils/cryptography/ECDSA.sol\":3882:3886  hash */\n      dup7\n        /* \"@openzeppelin/contracts/utils/cryptography/ECDSA.sol\":3888:3897  signature */\n      dup7\n        /* \"@openzeppelin/contracts/utils/cryptography/ECDSA.sol\":3871:3881  tryRecover */\n      tag_127\n        /* \"@openzeppelin/contracts/utils/cryptography/ECDSA.sol\":3871:3898  tryRecover(hash, signature) */\n      jump\t// in\n    tag_126:\n        /* \"@openzeppelin/contracts/utils/cryptography/ECDSA.sol\":3811:3898  (address recovered, RecoverError error, bytes32 errorArg) = tryRecover(hash, signature) */\n      swap3\n      pop\n      swap3\n      pop\n      swap3\n      pop\n        /* \"@openzeppelin/contracts/utils/cryptography/ECDSA.sol\":3908:3936  _throwError(error, errorArg) */\n      tag_128\n        /* \"@openzeppelin/contracts/utils/cryptography/ECDSA.sol\":3920:3925  error */\n      dup3\n        /* \"@openzeppelin/contracts/utils/cryptography/ECDSA.sol\":3927:3935  errorArg */\n      dup3\n        /* \"@openzeppelin/contracts/utils/cryptography/ECDSA.sol\":3908:3919  _throwError */\n      tag_129\n        /* \"@openzeppelin/contracts/utils/cryptography/ECDSA.sol\":3908:3936  _throwError(error, errorArg) */\n      jump\t// in\n    tag_128:\n        /* \"@openzeppelin/contracts/utils/cryptography/ECDSA.sol\":3953:3962  recovered */\n      dup3\n        /* \"@openzeppelin/contracts/utils/cryptography/ECDSA.sol\":3946:3962  return recovered */\n      swap4\n      pop\n      pop\n      pop\n      pop\n        /* \"@openzeppelin/contracts/utils/cryptography/ECDSA.sol\":3714:3969  function recover(bytes32 hash, bytes memory signature) internal pure returns (address) {... */\n      swap3\n      swap2\n      pop\n      pop\n      jump\t// out\n        /* \"@openzeppelin/contracts/access/Ownable.sol\":1796:1958  function _checkOwner() internal view virtual {... */\n    tag_99:\n        /* \"@openzeppelin/contracts/access/Ownable.sol\":1866:1878  _msgSender() */\n      tag_131\n        /* \"@openzeppelin/contracts/access/Ownable.sol\":1866:1876  _msgSender */\n      tag_132\n        /* \"@openzeppelin/contracts/access/Ownable.sol\":1866:1878  _msgSender() */\n      jump\t// in\n    tag_131:\n        /* \"@openzeppelin/contracts/access/Ownable.sol\":1855:1878  owner() != _msgSender() */\n      0xffffffffffffffffffffffffffffffffffffffff\n      and\n        /* \"@openzeppelin/contracts/access/Ownable.sol\":1855:1862  owner() */\n      tag_133\n        /* \"@openzeppelin/contracts/access/Ownable.sol\":1855:1860  owner */\n      tag_37\n        /* \"@openzeppelin/contracts/access/Ownable.sol\":1855:1862  owner() */\n      jump\t// in\n    tag_133:\n        /* \"@openzeppelin/contracts/access/Ownable.sol\":1855:1878  owner() != _msgSender() */\n      0xffffffffffffffffffffffffffffffffffffffff\n      and\n      eq\n        /* \"@openzeppelin/contracts/access/Ownable.sol\":1851:1952  if (owner() != _msgSender()) {... */\n      tag_134\n      jumpi\n        /* \"@openzeppelin/contracts/access/Ownable.sol\":1928:1940  _msgSender() */\n      tag_135\n        /* \"@openzeppelin/contracts/access/Ownable.sol\":1928:1938  _msgSender */\n      tag_132\n        /* \"@openzeppelin/contracts/access/Ownable.sol\":1928:1940  _msgSender() */\n      jump\t// in\n    tag_135:\n        /* \"@openzeppelin/contracts/access/Ownable.sol\":1901:1941  OwnableUnauthorizedAccount(_msgSender()) */\n      mload(0x40)\n      0x118cdaa700000000000000000000000000000000000000000000000000000000\n      dup2\n      mstore\n      0x04\n      add\n      tag_136\n      swap2\n      swap1\n      tag_29\n      jump\t// in\n    tag_136:\n      mload(0x40)\n      dup1\n      swap2\n      sub\n      swap1\n      revert\n        /* \"@openzeppelin/contracts/access/Ownable.sol\":1851:1952  if (owner() != _msgSender()) {... */\n    tag_134:\n        /* \"@openzeppelin/contracts/access/Ownable.sol\":1796:1958  function _checkOwner() internal view virtual {... */\n      jump\t// out\n        /* \"@openzeppelin/contracts/access/Ownable.sol\":2912:3099  function _transferOwnership(address newOwner) internal virtual {... */\n    tag_112:\n        /* \"@openzeppelin/contracts/access/Ownable.sol\":2985:3001  address oldOwner */\n      0x00\n        /* \"@openzeppelin/contracts/access/Ownable.sol\":3004:3010  _owner */\n      0x00\n      0x00\n      swap1\n      sload\n      swap1\n      0x0100\n      exp\n      swap1\n      div\n      0xffffffffffffffffffffffffffffffffffffffff\n      and\n        /* \"@openzeppelin/contracts/access/Ownable.sol\":2985:3010  address oldOwner = _owner */\n      swap1\n      pop\n        /* \"@openzeppelin/contracts/access/Ownable.sol\":3029:3037  newOwner */\n      dup2\n        /* \"@openzeppelin/contracts/access/Ownable.sol\":3020:3026  _owner */\n      0x00\n      0x00\n        /* \"@openzeppelin/contracts/access/Ownable.sol\":3020:3037  _owner = newOwner */\n      0x0100\n      exp\n      dup2\n      sload\n      dup2\n      0xffffffffffffffffffffffffffffffffffffffff\n      mul\n      not\n      and\n      swap1\n      dup4\n      0xffffffffffffffffffffffffffffffffffffffff\n      and\n      mul\n      or\n      swap1\n      sstore\n      pop\n        /* \"@openzeppelin/contracts/access/Ownable.sol\":3083:3091  newOwner */\n      dup2\n        /* \"@openzeppelin/contracts/access/Ownable.sol\":3052:3092  OwnershipTransferred(oldOwner, newOwner) */\n      0xffffffffffffffffffffffffffffffffffffffff\n      and\n        /* \"@openzeppelin/contracts/access/Ownable.sol\":3073:3081  oldOwner */\n      dup2\n        /* \"@openzeppelin/contracts/access/Ownable.sol\":3052:3092  OwnershipTransferred(oldOwner, newOwner) */\n      0xffffffffffffffffffffffffffffffffffffffff\n      and\n      0x8be0079c531659141344cd1fd0a4f28419497f9722a3daafe3b4186f6b6457e0\n      mload(0x40)\n      mload(0x40)\n      dup1\n      swap2\n      sub\n      swap1\n      log3\n        /* \"@openzeppelin/contracts/access/Ownable.sol\":2975:3099  {... */\n      pop\n        /* \"@openzeppelin/contracts/access/Ownable.sol\":2912:3099  function _transferOwnership(address newOwner) internal virtual {... */\n      pop\n      jump\t// out\n        /* \"@openzeppelin/contracts/utils/cryptography/ECDSA.sol\":2129:2907  function tryRecover(... */\n    tag_127:\n        /* \"@openzeppelin/contracts/utils/cryptography/ECDSA.sol\":2232:2249  address recovered */\n      0x00\n        /* \"@openzeppelin/contracts/utils/cryptography/ECDSA.sol\":2251:2267  RecoverError err */\n      0x00\n        /* \"@openzeppelin/contracts/utils/cryptography/ECDSA.sol\":2269:2283  bytes32 errArg */\n      0x00\n        /* \"@openzeppelin/contracts/utils/cryptography/ECDSA.sol\":2319:2321  65 */\n      0x41\n        /* \"@openzeppelin/contracts/utils/cryptography/ECDSA.sol\":2299:2308  signature */\n      dup5\n        /* \"@openzeppelin/contracts/utils/cryptography/ECDSA.sol\":2299:2315  signature.length */\n      mload\n        /* \"@openzeppelin/contracts/utils/cryptography/ECDSA.sol\":2299:2321  signature.length == 65 */\n      sub\n        /* \"@openzeppelin/contracts/utils/cryptography/ECDSA.sol\":2295:2901  if (signature.length == 65) {... */\n      tag_139\n      jumpi\n        /* \"@openzeppelin/contracts/utils/cryptography/ECDSA.sol\":2337:2346  bytes32 r */\n      0x00\n        /* \"@openzeppelin/contracts/utils/cryptography/ECDSA.sol\":2360:2369  bytes32 s */\n      0x00\n        /* \"@openzeppelin/contracts/utils/cryptography/ECDSA.sol\":2383:2390  uint8 v */\n      0x00\n        /* \"@openzeppelin/contracts/utils/cryptography/ECDSA.sol\":2604:2608  0x20 */\n      0x20\n        /* \"@openzeppelin/contracts/utils/cryptography/ECDSA.sol\":2593:2602  signature */\n      dup8\n        /* \"@openzeppelin/contracts/utils/cryptography/ECDSA.sol\":2589:2609  add(signature, 0x20) */\n      add\n        /* \"@openzeppelin/contracts/utils/cryptography/ECDSA.sol\":2583:2610  mload(add(signature, 0x20)) */\n      mload\n        /* \"@openzeppelin/contracts/utils/cryptography/ECDSA.sol\":2578:2610  r := mload(add(signature, 0x20)) */\n      swap3\n      pop\n        /* \"@openzeppelin/contracts/utils/cryptography/ECDSA.sol\":2653:2657  0x40 */\n      0x40\n        /* \"@openzeppelin/contracts/utils/cryptography/ECDSA.sol\":2642:2651  signature */\n      dup8\n        /* \"@openzeppelin/contracts/utils/cryptography/ECDSA.sol\":2638:2658  add(signature, 0x40) */\n      add\n        /* \"@openzeppelin/contracts/utils/cryptography/ECDSA.sol\":2632:2659  mload(add(signature, 0x40)) */\n      mload\n        /* \"@openzeppelin/contracts/utils/cryptography/ECDSA.sol\":2627:2659  s := mload(add(signature, 0x40)) */\n      swap2\n      pop\n        /* \"@openzeppelin/contracts/utils/cryptography/ECDSA.sol\":2710:2714  0x60 */\n      0x60\n        /* \"@openzeppelin/contracts/utils/cryptography/ECDSA.sol\":2699:2708  signature */\n      dup8\n        /* \"@openzeppelin/contracts/utils/cryptography/ECDSA.sol\":2695:2715  add(signature, 0x60) */\n      add\n        /* \"@openzeppelin/contracts/utils/cryptography/ECDSA.sol\":2689:2716  mload(add(signature, 0x60)) */\n      mload\n        /* \"@openzeppelin/contracts/utils/cryptography/ECDSA.sol\":2686:2687  0 */\n      0x00\n        /* \"@openzeppelin/contracts/utils/cryptography/ECDSA.sol\":2681:2717  byte(0, mload(add(signature, 0x60))) */\n      byte\n        /* \"@openzeppelin/contracts/utils/cryptography/ECDSA.sol\":2676:2717  v := byte(0, mload(add(signature, 0x60))) */\n      swap1\n      pop\n        /* \"@openzeppelin/contracts/utils/cryptography/ECDSA.sol\":2751:2776  tryRecover(hash, v, r, s) */\n      tag_140\n        /* \"@openzeppelin/contracts/utils/cryptography/ECDSA.sol\":2762:2766  hash */\n      dup9\n        /* \"@openzeppelin/contracts/utils/cryptography/ECDSA.sol\":2768:2769  v */\n      dup3\n        /* \"@openzeppelin/contracts/utils/cryptography/ECDSA.sol\":2771:2772  r */\n      dup6\n        /* \"@openzeppelin/contracts/utils/cryptography/ECDSA.sol\":2774:2775  s */\n      dup6\n        /* \"@openzeppelin/contracts/utils/cryptography/ECDSA.sol\":2751:2761  tryRecover */\n      tag_141\n        /* \"@openzeppelin/contracts/utils/cryptography/ECDSA.sol\":2751:2776  tryRecover(hash, v, r, s) */\n      jump\t// in\n    tag_140:\n        /* \"@openzeppelin/contracts/utils/cryptography/ECDSA.sol\":2744:2776  return tryRecover(hash, v, r, s) */\n      swap6\n      pop\n      swap6\n      pop\n      swap6\n      pop\n      pop\n      pop\n      pop\n      jump(tag_138)\n        /* \"@openzeppelin/contracts/utils/cryptography/ECDSA.sol\":2295:2901  if (signature.length == 65) {... */\n    tag_139:\n        /* \"@openzeppelin/contracts/utils/cryptography/ECDSA.sol\":2823:2824  0 */\n      0x00\n        /* \"@openzeppelin/contracts/utils/cryptography/ECDSA.sol\":2827:2862  RecoverError.InvalidSignatureLength */\n      0x02\n        /* \"@openzeppelin/contracts/utils/cryptography/ECDSA.sol\":2872:2881  signature */\n      dup6\n        /* \"@openzeppelin/contracts/utils/cryptography/ECDSA.sol\":2872:2888  signature.length */\n      mload\n        /* \"@openzeppelin/contracts/utils/cryptography/ECDSA.sol\":2864:2889  bytes32(signature.length) */\n      0x00\n      shl\n        /* \"@openzeppelin/contracts/utils/cryptography/ECDSA.sol\":2807:2890  return (address(0), RecoverError.InvalidSignatureLength, bytes32(signature.length)) */\n      swap3\n      pop\n      swap3\n      pop\n      swap3\n      pop\n        /* \"@openzeppelin/contracts/utils/cryptography/ECDSA.sol\":2129:2907  function tryRecover(... */\n    tag_138:\n      swap3\n      pop\n      swap3\n      pop\n      swap3\n      jump\t// out\n        /* \"@openzeppelin/contracts/utils/cryptography/ECDSA.sol\":7280:7812  function _throwError(RecoverError error, bytes32 errorArg) private pure {... */\n    tag_129:\n        /* \"@openzeppelin/contracts/utils/cryptography/ECDSA.sol\":7375:7395  RecoverError.NoError */\n      0x00\n        /* \"@openzeppelin/contracts/utils/cryptography/ECDSA.sol\":7366:7395  error == RecoverError.NoError */\n      0x03\n      dup2\n      gt\n      iszero\n      tag_144\n      jumpi\n      tag_145\n      tag_146\n      jump\t// in\n    tag_145:\n    tag_144:\n        /* \"@openzeppelin/contracts/utils/cryptography/ECDSA.sol\":7366:7371  error */\n      dup3\n        /* \"@openzeppelin/contracts/utils/cryptography/ECDSA.sol\":7366:7395  error == RecoverError.NoError */\n      0x03\n      dup2\n      gt\n      iszero\n      tag_147\n      jumpi\n      tag_148\n      tag_146\n      jump\t// in\n    tag_148:\n    tag_147:\n      sub\n        /* \"@openzeppelin/contracts/utils/cryptography/ECDSA.sol\":7362:7806  if (error == RecoverError.NoError) {... */\n      iszero\n        /* \"@openzeppelin/contracts/utils/cryptography/ECDSA.sol\":7411:7418  return; */\n      tag_143\n        /* \"@openzeppelin/contracts/utils/cryptography/ECDSA.sol\":7362:7806  if (error == RecoverError.NoError) {... */\n      jumpi\n        /* \"@openzeppelin/contracts/utils/cryptography/ECDSA.sol\":7471:7500  RecoverError.InvalidSignature */\n      0x01\n        /* \"@openzeppelin/contracts/utils/cryptography/ECDSA.sol\":7462:7500  error == RecoverError.InvalidSignature */\n      0x03\n      dup2\n      gt\n      iszero\n      tag_151\n      jumpi\n      tag_152\n      tag_146\n      jump\t// in\n    tag_152:\n    tag_151:\n        /* \"@openzeppelin/contracts/utils/cryptography/ECDSA.sol\":7462:7467  error */\n      dup3\n        /* \"@openzeppelin/contracts/utils/cryptography/ECDSA.sol\":7462:7500  error == RecoverError.InvalidSignature */\n      0x03\n      dup2\n      gt\n      iszero\n      tag_153\n      jumpi\n      tag_154\n      tag_146\n      jump\t// in\n    tag_154:\n    tag_153:\n      sub\n        /* \"@openzeppelin/contracts/utils/cryptography/ECDSA.sol\":7458:7806  if (error == RecoverError.InvalidSignature) {... */\n      tag_155\n      jumpi\n        /* \"@openzeppelin/contracts/utils/cryptography/ECDSA.sol\":7523:7546  ECDSAInvalidSignature() */\n      mload(0x40)\n      0xf645eedf00000000000000000000000000000000000000000000000000000000\n      dup2\n      mstore\n      0x04\n      add\n      mload(0x40)\n      dup1\n      swap2\n      sub\n      swap1\n      revert\n        /* \"@openzeppelin/contracts/utils/cryptography/ECDSA.sol\":7458:7806  if (error == RecoverError.InvalidSignature) {... */\n    tag_155:\n        /* \"@openzeppelin/contracts/utils/cryptography/ECDSA.sol\":7576:7611  RecoverError.InvalidSignatureLength */\n      0x02\n        /* \"@openzeppelin/contracts/utils/cryptography/ECDSA.sol\":7567:7611  error == RecoverError.InvalidSignatureLength */\n      0x03\n      dup2\n      gt\n      iszero\n      tag_157\n      jumpi\n      tag_158\n      tag_146\n      jump\t// in\n    tag_158:\n    tag_157:\n        /* \"@openzeppelin/contracts/utils/cryptography/ECDSA.sol\":7567:7572  error */\n      dup3\n        /* \"@openzeppelin/contracts/utils/cryptography/ECDSA.sol\":7567:7611  error == RecoverError.InvalidSignatureLength */\n      0x03\n      dup2\n      gt\n      iszero\n      tag_159\n      jumpi\n      tag_160\n      tag_146\n      jump\t// in\n    tag_160:\n    tag_159:\n      sub\n        /* \"@openzeppelin/contracts/utils/cryptography/ECDSA.sol\":7563:7806  if (error == RecoverError.InvalidSignatureLength) {... */\n      tag_161\n      jumpi\n        /* \"@openzeppelin/contracts/utils/cryptography/ECDSA.sol\":7670:7678  errorArg */\n      dup1\n        /* \"@openzeppelin/contracts/utils/cryptography/ECDSA.sol\":7662:7679  uint256(errorArg) */\n      0x00\n      shr\n        /* \"@openzeppelin/contracts/utils/cryptography/ECDSA.sol\":7634:7680  ECDSAInvalidSignatureLength(uint256(errorArg)) */\n      mload(0x40)\n      0xfce698f700000000000000000000000000000000000000000000000000000000\n      dup2\n      mstore\n      0x04\n      add\n      tag_162\n      swap2\n      swap1\n      tag_17\n      jump\t// in\n    tag_162:\n      mload(0x40)\n      dup1\n      swap2\n      sub\n      swap1\n      revert\n        /* \"@openzeppelin/contracts/utils/cryptography/ECDSA.sol\":7563:7806  if (error == RecoverError.InvalidSignatureLength) {... */\n    tag_161:\n        /* \"@openzeppelin/contracts/utils/cryptography/ECDSA.sol\":7710:7740  RecoverError.InvalidSignatureS */\n      0x03\n        /* \"@openzeppelin/contracts/utils/cryptography/ECDSA.sol\":7701:7740  error == RecoverError.InvalidSignatureS */\n      dup1\n      dup2\n      gt\n      iszero\n      tag_164\n      jumpi\n      tag_165\n      tag_146\n      jump\t// in\n    tag_165:\n    tag_164:\n        /* \"@openzeppelin/contracts/utils/cryptography/ECDSA.sol\":7701:7706  error */\n      dup3\n        /* \"@openzeppelin/contracts/utils/cryptography/ECDSA.sol\":7701:7740  error == RecoverError.InvalidSignatureS */\n      0x03\n      dup2\n      gt\n      iszero\n      tag_166\n      jumpi\n      tag_167\n      tag_146\n      jump\t// in\n    tag_167:\n    tag_166:\n      sub\n        /* \"@openzeppelin/contracts/utils/cryptography/ECDSA.sol\":7697:7806  if (error == RecoverError.InvalidSignatureS) {... */\n      tag_168\n      jumpi\n        /* \"@openzeppelin/contracts/utils/cryptography/ECDSA.sol\":7786:7794  errorArg */\n      dup1\n        /* \"@openzeppelin/contracts/utils/cryptography/ECDSA.sol\":7763:7795  ECDSAInvalidSignatureS(errorArg) */\n      mload(0x40)\n      0xd78bce0c00000000000000000000000000000000000000000000000000000000\n      dup2\n      mstore\n      0x04\n      add\n      tag_169\n      swap2\n      swap1\n      tag_170\n      jump\t// in\n    tag_169:\n      mload(0x40)\n      dup1\n      swap2\n      sub\n      swap1\n      revert\n        /* \"@openzeppelin/contracts/utils/cryptography/ECDSA.sol\":7697:7806  if (error == RecoverError.InvalidSignatureS) {... */\n    tag_168:\n        /* \"@openzeppelin/contracts/utils/cryptography/ECDSA.sol\":7280:7812  function _throwError(RecoverError error, bytes32 errorArg) private pure {... */\n    tag_143:\n      pop\n      pop\n      jump\t// out\n        /* \"@openzeppelin/contracts/utils/Context.sol\":656:752  function _msgSender() internal view virtual returns (address) {... */\n    tag_132:\n        /* \"@openzeppelin/contracts/utils/Context.sol\":709:716  address */\n      0x00\n        /* \"@openzeppelin/contracts/utils/Context.sol\":735:745  msg.sender */\n      caller\n        /* \"@openzeppelin/contracts/utils/Context.sol\":728:745  return msg.sender */\n      swap1\n      pop\n        /* \"@openzeppelin/contracts/utils/Context.sol\":656:752  function _msgSender() internal view virtual returns (address) {... */\n      swap1\n      jump\t// out\n        /* \"@openzeppelin/contracts/utils/cryptography/ECDSA.sol\":5203:6754  function tryRecover(... */\n    tag_141:\n        /* \"@openzeppelin/contracts/utils/cryptography/ECDSA.sol\":5329:5346  address recovered */\n      0x00\n        /* \"@openzeppelin/contracts/utils/cryptography/ECDSA.sol\":5348:5364  RecoverError err */\n      0x00\n        /* \"@openzeppelin/contracts/utils/cryptography/ECDSA.sol\":5366:5380  bytes32 errArg */\n      0x00\n        /* \"@openzeppelin/contracts/utils/cryptography/ECDSA.sol\":6283:6349  0x7FFFFFFFFFFFFFFFFFFFFFFFFFFFFFFF5D576E7357A4501DDFE92F46681B20A0 */\n      0x7fffffffffffffffffffffffffffffff5d576e7357a4501ddfe92f46681b20a0\n        /* \"@openzeppelin/contracts/utils/cryptography/ECDSA.sol\":6278:6279  s */\n      dup5\n        /* \"@openzeppelin/contracts/utils/cryptography/ECDSA.sol\":6270:6280  uint256(s) */\n      0x00\n      shr\n        /* \"@openzeppelin/contracts/utils/cryptography/ECDSA.sol\":6270:6349  uint256(s) > 0x7FFFFFFFFFFFFFFFFFFFFFFFFFFFFFFF5D576E7357A4501DDFE92F46681B20A0 */\n      gt\n        /* \"@openzeppelin/contracts/utils/cryptography/ECDSA.sol\":6266:6430  if (uint256(s) > 0x7FFFFFFFFFFFFFFFFFFFFFFFFFFFFFFF5D576E7357A4501DDFE92F46681B20A0) {... */\n      iszero\n      tag_173\n      jumpi\n        /* \"@openzeppelin/contracts/utils/cryptography/ECDSA.sol\":6381:6382  0 */\n      0x00\n        /* \"@openzeppelin/contracts/utils/cryptography/ECDSA.sol\":6385:6415  RecoverError.InvalidSignatureS */\n      0x03\n        /* \"@openzeppelin/contracts/utils/cryptography/ECDSA.sol\":6417:6418  s */\n      dup6\n        /* \"@openzeppelin/contracts/utils/cryptography/ECDSA.sol\":6365:6419  return (address(0), RecoverError.InvalidSignatureS, s) */\n      swap3\n      pop\n      swap3\n      pop\n      swap3\n      pop\n      jump(tag_172)\n        /* \"@openzeppelin/contracts/utils/cryptography/ECDSA.sol\":6266:6430  if (uint256(s) > 0x7FFFFFFFFFFFFFFFFFFFFFFFFFFFFFFF5D576E7357A4501DDFE92F46681B20A0) {... */\n    tag_173:\n        /* \"@openzeppelin/contracts/utils/cryptography/ECDSA.sol\":6524:6538  address signer */\n      0x00\n        /* \"@openzeppelin/contracts/utils/cryptography/ECDSA.sol\":6541:6565  ecrecover(hash, v, r, s) */\n      0x01\n        /* \"@openzeppelin/contracts/utils/cryptography/ECDSA.sol\":6551:6555  hash */\n      dup9\n        /* \"@openzeppelin/contracts/utils/cryptography/ECDSA.sol\":6557:6558  v */\n      dup9\n        /* \"@openzeppelin/contracts/utils/cryptography/ECDSA.sol\":6560:6561  r */\n      dup9\n        /* \"@openzeppelin/contracts/utils/cryptography/ECDSA.sol\":6563:6564  s */\n      dup9\n        /* \"@openzeppelin/contracts/utils/cryptography/ECDSA.sol\":6541:6565  ecrecover(hash, v, r, s) */\n      mload(0x40)\n      0x00\n      dup2\n      mstore\n      0x20\n      add\n      0x40\n      mstore\n      mload(0x40)\n      tag_174\n      swap5\n      swap4\n      swap3\n      swap2\n      swap1\n      tag_175\n      jump\t// in\n    tag_174:\n      0x20\n      mload(0x40)\n      0x20\n      dup2\n      sub\n      swap1\n      dup1\n      dup5\n      sub\n      swap1\n      dup6\n      gas\n      staticcall\n      iszero\n      dup1\n      iszero\n      tag_177\n      jumpi\n      returndatacopy(0x00, 0x00, returndatasize)\n      revert(0x00, returndatasize)\n    tag_177:\n      pop\n      pop\n      pop\n      mload(sub(mload(0x40), 0x20))\n        /* \"@openzeppelin/contracts/utils/cryptography/ECDSA.sol\":6524:6565  address signer = ecrecover(hash, v, r, s) */\n      swap1\n      pop\n        /* \"@openzeppelin/contracts/utils/cryptography/ECDSA.sol\":6597:6598  0 */\n      0x00\n        /* \"@openzeppelin/contracts/utils/cryptography/ECDSA.sol\":6579:6599  signer == address(0) */\n      0xffffffffffffffffffffffffffffffffffffffff\n      and\n        /* \"@openzeppelin/contracts/utils/cryptography/ECDSA.sol\":6579:6585  signer */\n      dup2\n        /* \"@openzeppelin/contracts/utils/cryptography/ECDSA.sol\":6579:6599  signer == address(0) */\n      0xffffffffffffffffffffffffffffffffffffffff\n      and\n      sub\n        /* \"@openzeppelin/contracts/utils/cryptography/ECDSA.sol\":6575:6688  if (signer == address(0)) {... */\n      tag_178\n      jumpi\n        /* \"@openzeppelin/contracts/utils/cryptography/ECDSA.sol\":6631:6632  0 */\n      0x00\n        /* \"@openzeppelin/contracts/utils/cryptography/ECDSA.sol\":6635:6664  RecoverError.InvalidSignature */\n      0x01\n        /* \"@openzeppelin/contracts/utils/cryptography/ECDSA.sol\":6674:6675  0 */\n      0x00\n        /* \"@openzeppelin/contracts/utils/cryptography/ECDSA.sol\":6666:6676  bytes32(0) */\n      0x00\n      shl\n        /* \"@openzeppelin/contracts/utils/cryptography/ECDSA.sol\":6615:6677  return (address(0), RecoverError.InvalidSignature, bytes32(0)) */\n      swap4\n      pop\n      swap4\n      pop\n      swap4\n      pop\n      pop\n      jump(tag_172)\n        /* \"@openzeppelin/contracts/utils/cryptography/ECDSA.sol\":6575:6688  if (signer == address(0)) {... */\n    tag_178:\n        /* \"@openzeppelin/contracts/utils/cryptography/ECDSA.sol\":6706:6712  signer */\n      dup1\n        /* \"@openzeppelin/contracts/utils/cryptography/ECDSA.sol\":6714:6734  RecoverError.NoError */\n      0x00\n        /* \"@openzeppelin/contracts/utils/cryptography/ECDSA.sol\":6744:6745  0 */\n      0x00\n        /* \"@openzeppelin/contracts/utils/cryptography/ECDSA.sol\":6736:6746  bytes32(0) */\n      0x00\n      shl\n        /* \"@openzeppelin/contracts/utils/cryptography/ECDSA.sol\":6698:6747  return (signer, RecoverError.NoError, bytes32(0)) */\n      swap4\n      pop\n      swap4\n      pop\n      swap4\n      pop\n      pop\n        /* \"@openzeppelin/contracts/utils/cryptography/ECDSA.sol\":5203:6754  function tryRecover(... */\n    tag_172:\n      swap5\n      pop\n      swap5\n      pop\n      swap5\n      swap2\n      pop\n      pop\n      jump\t// out\n        /* \"#utility.yul\":7:84   */\n    tag_179:\n        /* \"#utility.yul\":44:51   */\n      0x00\n        /* \"#utility.yul\":73:78   */\n      dup2\n        /* \"#utility.yul\":62:78   */\n      swap1\n      pop\n        /* \"#utility.yul\":7:84   */\n      swap2\n      swap1\n      pop\n      jump\t// out\n        /* \"#utility.yul\":90:208   */\n    tag_180:\n        /* \"#utility.yul\":177:201   */\n      tag_235\n        /* \"#utility.yul\":195:200   */\n      dup2\n        /* \"#utility.yul\":177:201   */\n      tag_179\n      jump\t// in\n    tag_235:\n        /* \"#utility.yul\":172:175   */\n      dup3\n        /* \"#utility.yul\":165:202   */\n      mstore\n        /* \"#utility.yul\":90:208   */\n      pop\n      pop\n      jump\t// out\n        /* \"#utility.yul\":214:436   */\n    tag_17:\n        /* \"#utility.yul\":307:311   */\n      0x00\n        /* \"#utility.yul\":345:347   */\n      0x20\n        /* \"#utility.yul\":334:343   */\n      dup3\n        /* \"#utility.yul\":330:348   */\n      add\n        /* \"#utility.yul\":322:348   */\n      swap1\n      pop\n        /* \"#utility.yul\":358:429   */\n      tag_237\n        /* \"#utility.yul\":426:427   */\n      0x00\n        /* \"#utility.yul\":415:424   */\n      dup4\n        /* \"#utility.yul\":411:428   */\n      add\n        /* \"#utility.yul\":402:408   */\n      dup5\n        /* \"#utility.yul\":358:429   */\n      tag_180\n      jump\t// in\n    tag_237:\n        /* \"#utility.yul\":214:436   */\n      swap3\n      swap2\n      pop\n      pop\n      jump\t// out\n        /* \"#utility.yul\":523:640   */\n    tag_182:\n        /* \"#utility.yul\":632:633   */\n      0x00\n        /* \"#utility.yul\":629:630   */\n      0x00\n        /* \"#utility.yul\":622:634   */\n      revert\n        /* \"#utility.yul\":646:763   */\n    tag_183:\n        /* \"#utility.yul\":755:756   */\n      0x00\n        /* \"#utility.yul\":752:753   */\n      0x00\n        /* \"#utility.yul\":745:757   */\n      revert\n        /* \"#utility.yul\":769:891   */\n    tag_184:\n        /* \"#utility.yul\":842:866   */\n      tag_242\n        /* \"#utility.yul\":860:865   */\n      dup2\n        /* \"#utility.yul\":842:866   */\n      tag_179\n      jump\t// in\n    tag_242:\n        /* \"#utility.yul\":835:840   */\n      dup2\n        /* \"#utility.yul\":832:867   */\n      eq\n        /* \"#utility.yul\":822:885   */\n      tag_243\n      jumpi\n        /* \"#utility.yul\":881:882   */\n      0x00\n        /* \"#utility.yul\":878:879   */\n      0x00\n        /* \"#utility.yul\":871:883   */\n      revert\n        /* \"#utility.yul\":822:885   */\n    tag_243:\n        /* \"#utility.yul\":769:891   */\n      pop\n      jump\t// out\n        /* \"#utility.yul\":897:1036   */\n    tag_185:\n        /* \"#utility.yul\":943:948   */\n      0x00\n        /* \"#utility.yul\":981:987   */\n      dup2\n        /* \"#utility.yul\":968:988   */\n      calldataload\n        /* \"#utility.yul\":959:988   */\n      swap1\n      pop\n        /* \"#utility.yul\":997:1030   */\n      tag_245\n        /* \"#utility.yul\":1024:1029   */\n      dup2\n        /* \"#utility.yul\":997:1030   */\n      tag_184\n      jump\t// in\n    tag_245:\n        /* \"#utility.yul\":897:1036   */\n      swap3\n      swap2\n      pop\n      pop\n      jump\t// out\n        /* \"#utility.yul\":1042:1159   */\n    tag_186:\n        /* \"#utility.yul\":1151:1152   */\n      0x00\n        /* \"#utility.yul\":1148:1149   */\n      0x00\n        /* \"#utility.yul\":1141:1153   */\n      revert\n        /* \"#utility.yul\":1165:1282   */\n    tag_187:\n        /* \"#utility.yul\":1274:1275   */\n      0x00\n        /* \"#utility.yul\":1271:1272   */\n      0x00\n        /* \"#utility.yul\":1264:1276   */\n      revert\n        /* \"#utility.yul\":1288:1405   */\n    tag_188:\n        /* \"#utility.yul\":1397:1398   */\n      0x00\n        /* \"#utility.yul\":1394:1395   */\n      0x00\n        /* \"#utility.yul\":1387:1399   */\n      revert\n        /* \"#utility.yul\":1424:1976   */\n    tag_189:\n        /* \"#utility.yul\":1481:1489   */\n      0x00\n        /* \"#utility.yul\":1491:1497   */\n      0x00\n        /* \"#utility.yul\":1541:1544   */\n      dup4\n        /* \"#utility.yul\":1534:1538   */\n      0x1f\n        /* \"#utility.yul\":1526:1532   */\n      dup5\n        /* \"#utility.yul\":1522:1539   */\n      add\n        /* \"#utility.yul\":1518:1545   */\n      slt\n        /* \"#utility.yul\":1508:1630   */\n      tag_250\n      jumpi\n        /* \"#utility.yul\":1549:1628   */\n      tag_251\n      tag_186\n      jump\t// in\n    tag_251:\n        /* \"#utility.yul\":1508:1630   */\n    tag_250:\n        /* \"#utility.yul\":1662:1668   */\n      dup3\n        /* \"#utility.yul\":1649:1669   */\n      calldataload\n        /* \"#utility.yul\":1639:1669   */\n      swap1\n      pop\n        /* \"#utility.yul\":1692:1710   */\n      0xffffffffffffffff\n        /* \"#utility.yul\":1684:1690   */\n      dup2\n        /* \"#utility.yul\":1681:1711   */\n      gt\n        /* \"#utility.yul\":1678:1795   */\n      iszero\n      tag_252\n      jumpi\n        /* \"#utility.yul\":1714:1793   */\n      tag_253\n      tag_187\n      jump\t// in\n    tag_253:\n        /* \"#utility.yul\":1678:1795   */\n    tag_252:\n        /* \"#utility.yul\":1828:1832   */\n      0x20\n        /* \"#utility.yul\":1820:1826   */\n      dup4\n        /* \"#utility.yul\":1816:1833   */\n      add\n        /* \"#utility.yul\":1804:1833   */\n      swap2\n      pop\n        /* \"#utility.yul\":1882:1885   */\n      dup4\n        /* \"#utility.yul\":1874:1878   */\n      0x01\n        /* \"#utility.yul\":1866:1872   */\n      dup3\n        /* \"#utility.yul\":1862:1879   */\n      mul\n        /* \"#utility.yul\":1852:1860   */\n      dup4\n        /* \"#utility.yul\":1848:1880   */\n      add\n        /* \"#utility.yul\":1845:1886   */\n      gt\n        /* \"#utility.yul\":1842:1970   */\n      iszero\n      tag_254\n      jumpi\n        /* \"#utility.yul\":1889:1968   */\n      tag_255\n      tag_188\n      jump\t// in\n    tag_255:\n        /* \"#utility.yul\":1842:1970   */\n    tag_254:\n        /* \"#utility.yul\":1424:1976   */\n      swap3\n      pop\n      swap3\n      swap1\n      pop\n      jump\t// out\n        /* \"#utility.yul\":1982:2654   */\n    tag_20:\n        /* \"#utility.yul\":2061:2067   */\n      0x00\n        /* \"#utility.yul\":2069:2075   */\n      0x00\n        /* \"#utility.yul\":2077:2083   */\n      0x00\n        /* \"#utility.yul\":2126:2128   */\n      0x40\n        /* \"#utility.yul\":2114:2123   */\n      dup5\n        /* \"#utility.yul\":2105:2112   */\n      dup7\n        /* \"#utility.yul\":2101:2124   */\n      sub\n        /* \"#utility.yul\":2097:2129   */\n      slt\n        /* \"#utility.yul\":2094:2213   */\n      iszero\n      tag_257\n      jumpi\n        /* \"#utility.yul\":2132:2211   */\n      tag_258\n      tag_182\n      jump\t// in\n    tag_258:\n        /* \"#utility.yul\":2094:2213   */\n    tag_257:\n        /* \"#utility.yul\":2252:2253   */\n      0x00\n        /* \"#utility.yul\":2277:2330   */\n      tag_259\n        /* \"#utility.yul\":2322:2329   */\n      dup7\n        /* \"#utility.yul\":2313:2319   */\n      dup3\n        /* \"#utility.yul\":2302:2311   */\n      dup8\n        /* \"#utility.yul\":2298:2320   */\n      add\n        /* \"#utility.yul\":2277:2330   */\n      tag_185\n      jump\t// in\n    tag_259:\n        /* \"#utility.yul\":2267:2330   */\n      swap4\n      pop\n        /* \"#utility.yul\":2223:2340   */\n      pop\n        /* \"#utility.yul\":2407:2409   */\n      0x20\n        /* \"#utility.yul\":2396:2405   */\n      dup5\n        /* \"#utility.yul\":2392:2410   */\n      add\n        /* \"#utility.yul\":2379:2411   */\n      calldataload\n        /* \"#utility.yul\":2438:2456   */\n      0xffffffffffffffff\n        /* \"#utility.yul\":2430:2436   */\n      dup2\n        /* \"#utility.yul\":2427:2457   */\n      gt\n        /* \"#utility.yul\":2424:2541   */\n      iszero\n      tag_260\n      jumpi\n        /* \"#utility.yul\":2460:2539   */\n      tag_261\n      tag_183\n      jump\t// in\n    tag_261:\n        /* \"#utility.yul\":2424:2541   */\n    tag_260:\n        /* \"#utility.yul\":2573:2637   */\n      tag_262\n        /* \"#utility.yul\":2629:2636   */\n      dup7\n        /* \"#utility.yul\":2620:2626   */\n      dup3\n        /* \"#utility.yul\":2609:2618   */\n      dup8\n        /* \"#utility.yul\":2605:2627   */\n      add\n        /* \"#utility.yul\":2573:2637   */\n      tag_189\n      jump\t// in\n    tag_262:\n        /* \"#utility.yul\":2555:2637   */\n      swap3\n      pop\n      swap3\n      pop\n        /* \"#utility.yul\":2350:2647   */\n      pop\n        /* \"#utility.yul\":1982:2654   */\n      swap3\n      pop\n      swap3\n      pop\n      swap3\n      jump\t// out\n        /* \"#utility.yul\":2660:2989   */\n    tag_24:\n        /* \"#utility.yul\":2719:2725   */\n      0x00\n        /* \"#utility.yul\":2768:2770   */\n      0x20\n        /* \"#utility.yul\":2756:2765   */\n      dup3\n        /* \"#utility.yul\":2747:2754   */\n      dup5\n        /* \"#utility.yul\":2743:2766   */\n      sub\n        /* \"#utility.yul\":2739:2771   */\n      slt\n        /* \"#utility.yul\":2736:2855   */\n      iszero\n      tag_264\n      jumpi\n        /* \"#utility.yul\":2774:2853   */\n      tag_265\n      tag_182\n      jump\t// in\n    tag_265:\n        /* \"#utility.yul\":2736:2855   */\n    tag_264:\n        /* \"#utility.yul\":2894:2895   */\n      0x00\n        /* \"#utility.yul\":2919:2972   */\n      tag_266\n        /* \"#utility.yul\":2964:2971   */\n      dup5\n        /* \"#utility.yul\":2955:2961   */\n      dup3\n        /* \"#utility.yul\":2944:2953   */\n      dup6\n        /* \"#utility.yul\":2940:2962   */\n      add\n        /* \"#utility.yul\":2919:2972   */\n      tag_185\n      jump\t// in\n    tag_266:\n        /* \"#utility.yul\":2909:2972   */\n      swap2\n      pop\n        /* \"#utility.yul\":2865:2982   */\n      pop\n        /* \"#utility.yul\":2660:2989   */\n      swap3\n      swap2\n      pop\n      pop\n      jump\t// out\n        /* \"#utility.yul\":2995:3121   */\n    tag_190:\n        /* \"#utility.yul\":3032:3039   */\n      0x00\n        /* \"#utility.yul\":3072:3114   */\n      0xffffffffffffffffffffffffffffffffffffffff\n        /* \"#utility.yul\":3065:3070   */\n      dup3\n        /* \"#utility.yul\":3061:3115   */\n      and\n        /* \"#utility.yul\":3050:3115   */\n      swap1\n      pop\n        /* \"#utility.yul\":2995:3121   */\n      swap2\n      swap1\n      pop\n      jump\t// out\n        /* \"#utility.yul\":3127:3223   */\n    tag_191:\n        /* \"#utility.yul\":3164:3171   */\n      0x00\n        /* \"#utility.yul\":3193:3217   */\n      tag_269\n        /* \"#utility.yul\":3211:3216   */\n      dup3\n        /* \"#utility.yul\":3193:3217   */\n      tag_190\n      jump\t// in\n    tag_269:\n        /* \"#utility.yul\":3182:3217   */\n      swap1\n      pop\n        /* \"#utility.yul\":3127:3223   */\n      swap2\n      swap1\n      pop\n      jump\t// out\n        /* \"#utility.yul\":3229:3347   */\n    tag_192:\n        /* \"#utility.yul\":3316:3340   */\n      tag_271\n        /* \"#utility.yul\":3334:3339   */\n      dup2\n        /* \"#utility.yul\":3316:3340   */\n      tag_191\n      jump\t// in\n    tag_271:\n        /* \"#utility.yul\":3311:3314   */\n      dup3\n        /* \"#utility.yul\":3304:3341   */\n      mstore\n        /* \"#utility.yul\":3229:3347   */\n      pop\n      pop\n      jump\t// out\n        /* \"#utility.yul\":3353:3575   */\n    tag_29:\n        /* \"#utility.yul\":3446:3450   */\n      0x00\n        /* \"#utility.yul\":3484:3486   */\n      0x20\n        /* \"#utility.yul\":3473:3482   */\n      dup3\n        /* \"#utility.yul\":3469:3487   */\n      add\n        /* \"#utility.yul\":3461:3487   */\n      swap1\n      pop\n        /* \"#utility.yul\":3497:3568   */\n      tag_273\n        /* \"#utility.yul\":3565:3566   */\n      0x00\n        /* \"#utility.yul\":3554:3563   */\n      dup4\n        /* \"#utility.yul\":3550:3567   */\n      add\n        /* \"#utility.yul\":3541:3547   */\n      dup5\n        /* \"#utility.yul\":3497:3568   */\n      tag_192\n      jump\t// in\n    tag_273:\n        /* \"#utility.yul\":3353:3575   */\n      swap3\n      swap2\n      pop\n      pop\n      jump\t// out\n        /* \"#utility.yul\":3581:3641   */\n    tag_193:\n        /* \"#utility.yul\":3609:3612   */\n      0x00\n        /* \"#utility.yul\":3630:3635   */\n      dup2\n        /* \"#utility.yul\":3623:3635   */\n      swap1\n      pop\n        /* \"#utility.yul\":3581:3641   */\n      swap2\n      swap1\n      pop\n      jump\t// out\n        /* \"#utility.yul\":3647:3789   */\n    tag_194:\n        /* \"#utility.yul\":3697:3706   */\n      0x00\n        /* \"#utility.yul\":3730:3783   */\n      tag_276\n        /* \"#utility.yul\":3748:3782   */\n      tag_277\n        /* \"#utility.yul\":3757:3781   */\n      tag_278\n        /* \"#utility.yul\":3775:3780   */\n      dup5\n        /* \"#utility.yul\":3757:3781   */\n      tag_190\n      jump\t// in\n    tag_278:\n        /* \"#utility.yul\":3748:3782   */\n      tag_193\n      jump\t// in\n    tag_277:\n        /* \"#utility.yul\":3730:3783   */\n      tag_190\n      jump\t// in\n    tag_276:\n        /* \"#utility.yul\":3717:3783   */\n      swap1\n      pop\n        /* \"#utility.yul\":3647:3789   */\n      swap2\n      swap1\n      pop\n      jump\t// out\n        /* \"#utility.yul\":3795:3921   */\n    tag_195:\n        /* \"#utility.yul\":3845:3854   */\n      0x00\n        /* \"#utility.yul\":3878:3915   */\n      tag_280\n        /* \"#utility.yul\":3909:3914   */\n      dup3\n        /* \"#utility.yul\":3878:3915   */\n      tag_194\n      jump\t// in\n    tag_280:\n        /* \"#utility.yul\":3865:3915   */\n      swap1\n      pop\n        /* \"#utility.yul\":3795:3921   */\n      swap2\n      swap1\n      pop\n      jump\t// out\n        /* \"#utility.yul\":3927:4067   */\n    tag_196:\n        /* \"#utility.yul\":3991:4000   */\n      0x00\n        /* \"#utility.yul\":4024:4061   */\n      tag_282\n        /* \"#utility.yul\":4055:4060   */\n      dup3\n        /* \"#utility.yul\":4024:4061   */\n      tag_195\n      jump\t// in\n    tag_282:\n        /* \"#utility.yul\":4011:4061   */\n      swap1\n      pop\n        /* \"#utility.yul\":3927:4067   */\n      swap2\n      swap1\n      pop\n      jump\t// out\n        /* \"#utility.yul\":4073:4232   */\n    tag_197:\n        /* \"#utility.yul\":4174:4225   */\n      tag_284\n        /* \"#utility.yul\":4219:4224   */\n      dup2\n        /* \"#utility.yul\":4174:4225   */\n      tag_196\n      jump\t// in\n    tag_284:\n        /* \"#utility.yul\":4169:4172   */\n      dup3\n        /* \"#utility.yul\":4162:4226   */\n      mstore\n        /* \"#utility.yul\":4073:4232   */\n      pop\n      pop\n      jump\t// out\n        /* \"#utility.yul\":4238:4488   */\n    tag_35:\n        /* \"#utility.yul\":4345:4349   */\n      0x00\n        /* \"#utility.yul\":4383:4385   */\n      0x20\n        /* \"#utility.yul\":4372:4381   */\n      dup3\n        /* \"#utility.yul\":4368:4386   */\n      add\n        /* \"#utility.yul\":4360:4386   */\n      swap1\n      pop\n        /* \"#utility.yul\":4396:4481   */\n      tag_286\n        /* \"#utility.yul\":4478:4479   */\n      0x00\n        /* \"#utility.yul\":4467:4476   */\n      dup4\n        /* \"#utility.yul\":4463:4480   */\n      add\n        /* \"#utility.yul\":4454:4460   */\n      dup5\n        /* \"#utility.yul\":4396:4481   */\n      tag_197\n      jump\t// in\n    tag_286:\n        /* \"#utility.yul\":4238:4488   */\n      swap3\n      swap2\n      pop\n      pop\n      jump\t// out\n        /* \"#utility.yul\":4494:4616   */\n    tag_198:\n        /* \"#utility.yul\":4567:4591   */\n      tag_288\n        /* \"#utility.yul\":4585:4590   */\n      dup2\n        /* \"#utility.yul\":4567:4591   */\n      tag_191\n      jump\t// in\n    tag_288:\n        /* \"#utility.yul\":4560:4565   */\n      dup2\n        /* \"#utility.yul\":4557:4592   */\n      eq\n        /* \"#utility.yul\":4547:4610   */\n      tag_289\n      jumpi\n        /* \"#utility.yul\":4606:4607   */\n      0x00\n        /* \"#utility.yul\":4603:4604   */\n      0x00\n        /* \"#utility.yul\":4596:4608   */\n      revert\n        /* \"#utility.yul\":4547:4610   */\n    tag_289:\n        /* \"#utility.yul\":4494:4616   */\n      pop\n      jump\t// out\n        /* \"#utility.yul\":4622:4761   */\n    tag_199:\n        /* \"#utility.yul\":4668:4673   */\n      0x00\n        /* \"#utility.yul\":4706:4712   */\n      dup2\n        /* \"#utility.yul\":4693:4713   */\n      calldataload\n        /* \"#utility.yul\":4684:4713   */\n      swap1\n      pop\n        /* \"#utility.yul\":4722:4755   */\n      tag_291\n        /* \"#utility.yul\":4749:4754   */\n      dup2\n        /* \"#utility.yul\":4722:4755   */\n      tag_198\n      jump\t// in\n    tag_291:\n        /* \"#utility.yul\":4622:4761   */\n      swap3\n      swap2\n      pop\n      pop\n      jump\t// out\n        /* \"#utility.yul\":4767:5096   */\n    tag_41:\n        /* \"#utility.yul\":4826:4832   */\n      0x00\n        /* \"#utility.yul\":4875:4877   */\n      0x20\n        /* \"#utility.yul\":4863:4872   */\n      dup3\n        /* \"#utility.yul\":4854:4861   */\n      dup5\n        /* \"#utility.yul\":4850:4873   */\n      sub\n        /* \"#utility.yul\":4846:4878   */\n      slt\n        /* \"#utility.yul\":4843:4962   */\n      iszero\n      tag_293\n      jumpi\n        /* \"#utility.yul\":4881:4960   */\n      tag_294\n      tag_182\n      jump\t// in\n    tag_294:\n        /* \"#utility.yul\":4843:4962   */\n    tag_293:\n        /* \"#utility.yul\":5001:5002   */\n      0x00\n        /* \"#utility.yul\":5026:5079   */\n      tag_295\n        /* \"#utility.yul\":5071:5078   */\n      dup5\n        /* \"#utility.yul\":5062:5068   */\n      dup3\n        /* \"#utility.yul\":5051:5060   */\n      dup6\n        /* \"#utility.yul\":5047:5069   */\n      add\n        /* \"#utility.yul\":5026:5079   */\n      tag_199\n      jump\t// in\n    tag_295:\n        /* \"#utility.yul\":5016:5079   */\n      swap2\n      pop\n        /* \"#utility.yul\":4972:5089   */\n      pop\n        /* \"#utility.yul\":4767:5096   */\n      swap3\n      swap2\n      pop\n      pop\n      jump\t// out\n        /* \"#utility.yul\":5102:5192   */\n    tag_200:\n        /* \"#utility.yul\":5136:5143   */\n      0x00\n        /* \"#utility.yul\":5179:5184   */\n      dup2\n        /* \"#utility.yul\":5172:5185   */\n      iszero\n        /* \"#utility.yul\":5165:5186   */\n      iszero\n        /* \"#utility.yul\":5154:5186   */\n      swap1\n      pop\n        /* \"#utility.yul\":5102:5192   */\n      swap2\n      swap1\n      pop\n      jump\t// out\n        /* \"#utility.yul\":5198:5307   */\n    tag_201:\n        /* \"#utility.yul\":5279:5300   */\n      tag_298\n        /* \"#utility.yul\":5294:5299   */\n      dup2\n        /* \"#utility.yul\":5279:5300   */\n      tag_200\n      jump\t// in\n    tag_298:\n        /* \"#utility.yul\":5274:5277   */\n      dup3\n        /* \"#utility.yul\":5267:5301   */\n      mstore\n        /* \"#utility.yul\":5198:5307   */\n      pop\n      pop\n      jump\t// out\n        /* \"#utility.yul\":5313:5523   */\n    tag_44:\n        /* \"#utility.yul\":5400:5404   */\n      0x00\n        /* \"#utility.yul\":5438:5440   */\n      0x20\n        /* \"#utility.yul\":5427:5436   */\n      dup3\n        /* \"#utility.yul\":5423:5441   */\n      add\n        /* \"#utility.yul\":5415:5441   */\n      swap1\n      pop\n        /* \"#utility.yul\":5451:5516   */\n      tag_300\n        /* \"#utility.yul\":5513:5514   */\n      0x00\n        /* \"#utility.yul\":5502:5511   */\n      dup4\n        /* \"#utility.yul\":5498:5515   */\n      add\n        /* \"#utility.yul\":5489:5495   */\n      dup5\n        /* \"#utility.yul\":5451:5516   */\n      tag_201\n      jump\t// in\n    tag_300:\n        /* \"#utility.yul\":5313:5523   */\n      swap3\n      swap2\n      pop\n      pop\n      jump\t// out\n        /* \"#utility.yul\":5529:5672   */\n    tag_202:\n        /* \"#utility.yul\":5586:5591   */\n      0x00\n        /* \"#utility.yul\":5617:5623   */\n      dup2\n        /* \"#utility.yul\":5611:5624   */\n      mload\n        /* \"#utility.yul\":5602:5624   */\n      swap1\n      pop\n        /* \"#utility.yul\":5633:5666   */\n      tag_302\n        /* \"#utility.yul\":5660:5665   */\n      dup2\n        /* \"#utility.yul\":5633:5666   */\n      tag_184\n      jump\t// in\n    tag_302:\n        /* \"#utility.yul\":5529:5672   */\n      swap3\n      swap2\n      pop\n      pop\n      jump\t// out\n        /* \"#utility.yul\":5678:6029   */\n    tag_57:\n        /* \"#utility.yul\":5748:5754   */\n      0x00\n        /* \"#utility.yul\":5797:5799   */\n      0x20\n        /* \"#utility.yul\":5785:5794   */\n      dup3\n        /* \"#utility.yul\":5776:5783   */\n      dup5\n        /* \"#utility.yul\":5772:5795   */\n      sub\n        /* \"#utility.yul\":5768:5800   */\n      slt\n        /* \"#utility.yul\":5765:5884   */\n      iszero\n      tag_304\n      jumpi\n        /* \"#utility.yul\":5803:5882   */\n      tag_305\n      tag_182\n      jump\t// in\n    tag_305:\n        /* \"#utility.yul\":5765:5884   */\n    tag_304:\n        /* \"#utility.yul\":5923:5924   */\n      0x00\n        /* \"#utility.yul\":5948:6012   */\n      tag_306\n        /* \"#utility.yul\":6004:6011   */\n      dup5\n        /* \"#utility.yul\":5995:6001   */\n      dup3\n        /* \"#utility.yul\":5984:5993   */\n      dup6\n        /* \"#utility.yul\":5980:6002   */\n      add\n        /* \"#utility.yul\":5948:6012   */\n      tag_202\n      jump\t// in\n    tag_306:\n        /* \"#utility.yul\":5938:6012   */\n      swap2\n      pop\n        /* \"#utility.yul\":5894:6022   */\n      pop\n        /* \"#utility.yul\":5678:6029   */\n      swap3\n      swap2\n      pop\n      pop\n      jump\t// out\n        /* \"#utility.yul\":6035:6204   */\n    tag_203:\n        /* \"#utility.yul\":6119:6130   */\n      0x00\n        /* \"#utility.yul\":6153:6159   */\n      dup3\n        /* \"#utility.yul\":6148:6151   */\n      dup3\n        /* \"#utility.yul\":6141:6160   */\n      mstore\n        /* \"#utility.yul\":6193:6197   */\n      0x20\n        /* \"#utility.yul\":6188:6191   */\n      dup3\n        /* \"#utility.yul\":6184:6198   */\n      add\n        /* \"#utility.yul\":6169:6198   */\n      swap1\n      pop\n        /* \"#utility.yul\":6035:6204   */\n      swap3\n      swap2\n      pop\n      pop\n      jump\t// out\n        /* \"#utility.yul\":6210:6378   */\n    tag_204:\n        /* \"#utility.yul\":6350:6370   */\n      0x416d6f756e74206d757374206265203e20300000000000000000000000000000\n        /* \"#utility.yul\":6346:6347   */\n      0x00\n        /* \"#utility.yul\":6338:6344   */\n      dup3\n        /* \"#utility.yul\":6334:6348   */\n      add\n        /* \"#utility.yul\":6327:6371   */\n      mstore\n        /* \"#utility.yul\":6210:6378   */\n      pop\n      jump\t// out\n        /* \"#utility.yul\":6384:6750   */\n    tag_205:\n        /* \"#utility.yul\":6526:6529   */\n      0x00\n        /* \"#utility.yul\":6547:6614   */\n      tag_310\n        /* \"#utility.yul\":6611:6613   */\n      0x12\n        /* \"#utility.yul\":6606:6609   */\n      dup4\n        /* \"#utility.yul\":6547:6614   */\n      tag_203\n      jump\t// in\n    tag_310:\n        /* \"#utility.yul\":6540:6614   */\n      swap2\n      pop\n        /* \"#utility.yul\":6623:6716   */\n      tag_311\n        /* \"#utility.yul\":6712:6715   */\n      dup3\n        /* \"#utility.yul\":6623:6716   */\n      tag_204\n      jump\t// in\n    tag_311:\n        /* \"#utility.yul\":6741:6743   */\n      0x20\n        /* \"#utility.yul\":6736:6739   */\n      dup3\n        /* \"#utility.yul\":6732:6744   */\n      add\n        /* \"#utility.yul\":6725:6744   */\n      swap1\n      pop\n        /* \"#utility.yul\":6384:6750   */\n      swap2\n      swap1\n      pop\n      jump\t// out\n        /* \"#utility.yul\":6756:7175   */\n    tag_61:\n        /* \"#utility.yul\":6922:6926   */\n      0x00\n        /* \"#utility.yul\":6960:6962   */\n      0x20\n        /* \"#utility.yul\":6949:6958   */\n      dup3\n        /* \"#utility.yul\":6945:6963   */\n      add\n        /* \"#utility.yul\":6937:6963   */\n      swap1\n      pop\n        /* \"#utility.yul\":7009:7018   */\n      dup2\n        /* \"#utility.yul\":7003:7007   */\n      dup2\n        /* \"#utility.yul\":6999:7019   */\n      sub\n        /* \"#utility.yul\":6995:6996   */\n      0x00\n        /* \"#utility.yul\":6984:6993   */\n      dup4\n        /* \"#utility.yul\":6980:6997   */\n      add\n        /* \"#utility.yul\":6973:7020   */\n      mstore\n        /* \"#utility.yul\":7037:7168   */\n      tag_313\n        /* \"#utility.yul\":7163:7167   */\n      dup2\n        /* \"#utility.yul\":7037:7168   */\n      tag_205\n      jump\t// in\n    tag_313:\n        /* \"#utility.yul\":7029:7168   */\n      swap1\n      pop\n        /* \"#utility.yul\":6756:7175   */\n      swap2\n      swap1\n      pop\n      jump\t// out\n        /* \"#utility.yul\":7181:7362   */\n    tag_206:\n        /* \"#utility.yul\":7321:7354   */\n      0x416d6f756e742065786365656473206c696d6974202831353030204348482900\n        /* \"#utility.yul\":7317:7318   */\n      0x00\n        /* \"#utility.yul\":7309:7315   */\n      dup3\n        /* \"#utility.yul\":7305:7319   */\n      add\n        /* \"#utility.yul\":7298:7355   */\n      mstore\n        /* \"#utility.yul\":7181:7362   */\n      pop\n      jump\t// out\n        /* \"#utility.yul\":7368:7734   */\n    tag_207:\n        /* \"#utility.yul\":7510:7513   */\n      0x00\n        /* \"#utility.yul\":7531:7598   */\n      tag_316\n        /* \"#utility.yul\":7595:7597   */\n      0x1f\n        /* \"#utility.yul\":7590:7593   */\n      dup4\n        /* \"#utility.yul\":7531:7598   */\n      tag_203\n      jump\t// in\n    tag_316:\n        /* \"#utility.yul\":7524:7598   */\n      swap2\n      pop\n        /* \"#utility.yul\":7607:7700   */\n      tag_317\n        /* \"#utility.yul\":7696:7699   */\n      dup3\n        /* \"#utility.yul\":7607:7700   */\n      tag_206\n      jump\t// in\n    tag_317:\n        /* \"#utility.yul\":7725:7727   */\n      0x20\n        /* \"#utility.yul\":7720:7723   */\n      dup3\n        /* \"#utility.yul\":7716:7728   */\n      add\n        /* \"#utility.yul\":7709:7728   */\n      swap1\n      pop\n        /* \"#utility.yul\":7368:7734   */\n      swap2\n      swap1\n      pop\n      jump\t// out\n        /* \"#utility.yul\":7740:8159   */\n    tag_64:\n        /* \"#utility.yul\":7906:7910   */\n      0x00\n        /* \"#utility.yul\":7944:7946   */\n      0x20\n        /* \"#utility.yul\":7933:7942   */\n      dup3\n        /* \"#utility.yul\":7929:7947   */\n      add\n        /* \"#utility.yul\":7921:7947   */\n      swap1\n      pop\n        /* \"#utility.yul\":7993:8002   */\n      dup2\n        /* \"#utility.yul\":7987:7991   */\n      dup2\n        /* \"#utility.yul\":7983:8003   */\n      sub\n        /* \"#utility.yul\":7979:7980   */\n      0x00\n        /* \"#utility.yul\":7968:7977   */\n      dup4\n        /* \"#utility.yul\":7964:7981   */\n      add\n        /* \"#utility.yul\":7957:8004   */\n      mstore\n        /* \"#utility.yul\":8021:8152   */\n      tag_319\n        /* \"#utility.yul\":8147:8151   */\n      dup2\n        /* \"#utility.yul\":8021:8152   */\n      tag_207\n      jump\t// in\n    tag_319:\n        /* \"#utility.yul\":8013:8152   */\n      swap1\n      pop\n        /* \"#utility.yul\":7740:8159   */\n      swap2\n      swap1\n      pop\n      jump\t// out\n        /* \"#utility.yul\":8165:8394   */\n    tag_208:\n        /* \"#utility.yul\":8305:8339   */\n      0x416c726561647920636c61696d656420746f6461792028726573657473206174\n        /* \"#utility.yul\":8301:8302   */\n      0x00\n        /* \"#utility.yul\":8293:8299   */\n      dup3\n        /* \"#utility.yul\":8289:8303   */\n      add\n        /* \"#utility.yul\":8282:8340   */\n      mstore\n        /* \"#utility.yul\":8374:8386   */\n      0x2055544320303a30302900000000000000000000000000000000000000000000\n        /* \"#utility.yul\":8369:8371   */\n      0x20\n        /* \"#utility.yul\":8361:8367   */\n      dup3\n        /* \"#utility.yul\":8357:8372   */\n      add\n        /* \"#utility.yul\":8350:8387   */\n      mstore\n        /* \"#utility.yul\":8165:8394   */\n      pop\n      jump\t// out\n        /* \"#utility.yul\":8400:8766   */\n    tag_209:\n        /* \"#utility.yul\":8542:8545   */\n      0x00\n        /* \"#utility.yul\":8563:8630   */\n      tag_322\n        /* \"#utility.yul\":8627:8629   */\n      0x2a\n        /* \"#utility.yul\":8622:8625   */\n      dup4\n        /* \"#utility.yul\":8563:8630   */\n      tag_203\n      jump\t// in\n    tag_322:\n        /* \"#utility.yul\":8556:8630   */\n      swap2\n      pop\n        /* \"#utility.yul\":8639:8732   */\n      tag_323\n        /* \"#utility.yul\":8728:8731   */\n      dup3\n        /* \"#utility.yul\":8639:8732   */\n      tag_208\n      jump\t// in\n    tag_323:\n        /* \"#utility.yul\":8757:8759   */\n      0x40\n        /* \"#utility.yul\":8752:8755   */\n      dup3\n        /* \"#utility.yul\":8748:8760   */\n      add\n        /* \"#utility.yul\":8741:8760   */\n      swap1\n      pop\n        /* \"#utility.yul\":8400:8766   */\n      swap2\n      swap1\n      pop\n      jump\t// out\n        /* \"#utility.yul\":8772:9191   */\n    tag_68:\n        /* \"#utility.yul\":8938:8942   */\n      0x00\n        /* \"#utility.yul\":8976:8978   */\n      0x20\n        /* \"#utility.yul\":8965:8974   */\n      dup3\n        /* \"#utility.yul\":8961:8979   */\n      add\n        /* \"#utility.yul\":8953:8979   */\n      swap1\n      pop\n        /* \"#utility.yul\":9025:9034   */\n      dup2\n        /* \"#utility.yul\":9019:9023   */\n      dup2\n        /* \"#utility.yul\":9015:9035   */\n      sub\n        /* \"#utility.yul\":9011:9012   */\n      0x00\n        /* \"#utility.yul\":9000:9009   */\n      dup4\n        /* \"#utility.yul\":8996:9013   */\n      add\n        /* \"#utility.yul\":8989:9036   */\n      mstore\n        /* \"#utility.yul\":9053:9184   */\n      tag_325\n        /* \"#utility.yul\":9179:9183   */\n      dup2\n        /* \"#utility.yul\":9053:9184   */\n      tag_209\n      jump\t// in\n    tag_325:\n        /* \"#utility.yul\":9045:9184   */\n      swap1\n      pop\n        /* \"#utility.yul\":8772:9191   */\n      swap2\n      swap1\n      pop\n      jump\t// out\n        /* \"#utility.yul\":9197:9291   */\n    tag_210:\n        /* \"#utility.yul\":9230:9238   */\n      0x00\n        /* \"#utility.yul\":9278:9283   */\n      dup2\n        /* \"#utility.yul\":9274:9276   */\n      0x60\n        /* \"#utility.yul\":9270:9284   */\n      shl\n        /* \"#utility.yul\":9249:9284   */\n      swap1\n      pop\n        /* \"#utility.yul\":9197:9291   */\n      swap2\n      swap1\n      pop\n      jump\t// out\n        /* \"#utility.yul\":9297:9391   */\n    tag_211:\n        /* \"#utility.yul\":9336:9343   */\n      0x00\n        /* \"#utility.yul\":9365:9385   */\n      tag_328\n        /* \"#utility.yul\":9379:9384   */\n      dup3\n        /* \"#utility.yul\":9365:9385   */\n      tag_210\n      jump\t// in\n    tag_328:\n        /* \"#utility.yul\":9354:9385   */\n      swap1\n      pop\n        /* \"#utility.yul\":9297:9391   */\n      swap2\n      swap1\n      pop\n      jump\t// out\n        /* \"#utility.yul\":9397:9497   */\n    tag_212:\n        /* \"#utility.yul\":9436:9443   */\n      0x00\n        /* \"#utility.yul\":9465:9491   */\n      tag_330\n        /* \"#utility.yul\":9485:9490   */\n      dup3\n        /* \"#utility.yul\":9465:9491   */\n      tag_211\n      jump\t// in\n    tag_330:\n        /* \"#utility.yul\":9454:9491   */\n      swap1\n      pop\n        /* \"#utility.yul\":9397:9497   */\n      swap2\n      swap1\n      pop\n      jump\t// out\n        /* \"#utility.yul\":9503:9660   */\n    tag_213:\n        /* \"#utility.yul\":9608:9653   */\n      tag_332\n        /* \"#utility.yul\":9628:9652   */\n      tag_333\n        /* \"#utility.yul\":9646:9651   */\n      dup3\n        /* \"#utility.yul\":9628:9652   */\n      tag_191\n      jump\t// in\n    tag_333:\n        /* \"#utility.yul\":9608:9653   */\n      tag_212\n      jump\t// in\n    tag_332:\n        /* \"#utility.yul\":9603:9606   */\n      dup3\n        /* \"#utility.yul\":9596:9654   */\n      mstore\n        /* \"#utility.yul\":9503:9660   */\n      pop\n      pop\n      jump\t// out\n        /* \"#utility.yul\":9666:9745   */\n    tag_214:\n        /* \"#utility.yul\":9705:9712   */\n      0x00\n        /* \"#utility.yul\":9734:9739   */\n      dup2\n        /* \"#utility.yul\":9723:9739   */\n      swap1\n      pop\n        /* \"#utility.yul\":9666:9745   */\n      swap2\n      swap1\n      pop\n      jump\t// out\n        /* \"#utility.yul\":9751:9908   */\n    tag_215:\n        /* \"#utility.yul\":9856:9901   */\n      tag_336\n        /* \"#utility.yul\":9876:9900   */\n      tag_337\n        /* \"#utility.yul\":9894:9899   */\n      dup3\n        /* \"#utility.yul\":9876:9900   */\n      tag_179\n      jump\t// in\n    tag_337:\n        /* \"#utility.yul\":9856:9901   */\n      tag_214\n      jump\t// in\n    tag_336:\n        /* \"#utility.yul\":9851:9854   */\n      dup3\n        /* \"#utility.yul\":9844:9902   */\n      mstore\n        /* \"#utility.yul\":9751:9908   */\n      pop\n      pop\n      jump\t// out\n        /* \"#utility.yul\":9914:10311   */\n    tag_70:\n        /* \"#utility.yul\":10054:10057   */\n      0x00\n        /* \"#utility.yul\":10069:10144   */\n      tag_339\n        /* \"#utility.yul\":10140:10143   */\n      dup3\n        /* \"#utility.yul\":10131:10137   */\n      dup6\n        /* \"#utility.yul\":10069:10144   */\n      tag_213\n      jump\t// in\n    tag_339:\n        /* \"#utility.yul\":10169:10171   */\n      0x14\n        /* \"#utility.yul\":10164:10167   */\n      dup3\n        /* \"#utility.yul\":10160:10172   */\n      add\n        /* \"#utility.yul\":10153:10172   */\n      swap2\n      pop\n        /* \"#utility.yul\":10182:10257   */\n      tag_340\n        /* \"#utility.yul\":10253:10256   */\n      dup3\n        /* \"#utility.yul\":10244:10250   */\n      dup5\n        /* \"#utility.yul\":10182:10257   */\n      tag_215\n      jump\t// in\n    tag_340:\n        /* \"#utility.yul\":10282:10284   */\n      0x20\n        /* \"#utility.yul\":10277:10280   */\n      dup3\n        /* \"#utility.yul\":10273:10285   */\n      add\n        /* \"#utility.yul\":10266:10285   */\n      swap2\n      pop\n        /* \"#utility.yul\":10302:10305   */\n      dup2\n        /* \"#utility.yul\":10295:10305   */\n      swap1\n      pop\n        /* \"#utility.yul\":9914:10311   */\n      swap4\n      swap3\n      pop\n      pop\n      pop\n      jump\t// out\n        /* \"#utility.yul\":10317:10484   */\n    tag_216:\n        /* \"#utility.yul\":10457:10476   */\n      0x496e76616c6964207369676e6174757265000000000000000000000000000000\n        /* \"#utility.yul\":10453:10454   */\n      0x00\n        /* \"#utility.yul\":10445:10451   */\n      dup3\n        /* \"#utility.yul\":10441:10455   */\n      add\n        /* \"#utility.yul\":10434:10477   */\n      mstore\n        /* \"#utility.yul\":10317:10484   */\n      pop\n      jump\t// out\n        /* \"#utility.yul\":10490:10856   */\n    tag_217:\n        /* \"#utility.yul\":10632:10635   */\n      0x00\n        /* \"#utility.yul\":10653:10720   */\n      tag_343\n        /* \"#utility.yul\":10717:10719   */\n      0x11\n        /* \"#utility.yul\":10712:10715   */\n      dup4\n        /* \"#utility.yul\":10653:10720   */\n      tag_203\n      jump\t// in\n    tag_343:\n        /* \"#utility.yul\":10646:10720   */\n      swap2\n      pop\n        /* \"#utility.yul\":10729:10822   */\n      tag_344\n        /* \"#utility.yul\":10818:10821   */\n      dup3\n        /* \"#utility.yul\":10729:10822   */\n      tag_216\n      jump\t// in\n    tag_344:\n        /* \"#utility.yul\":10847:10849   */\n      0x20\n        /* \"#utility.yul\":10842:10845   */\n      dup3\n        /* \"#utility.yul\":10838:10850   */\n      add\n        /* \"#utility.yul\":10831:10850   */\n      swap1\n      pop\n        /* \"#utility.yul\":10490:10856   */\n      swap2\n      swap1\n      pop\n      jump\t// out\n        /* \"#utility.yul\":10862:11281   */\n    tag_77:\n        /* \"#utility.yul\":11028:11032   */\n      0x00\n        /* \"#utility.yul\":11066:11068   */\n      0x20\n        /* \"#utility.yul\":11055:11064   */\n      dup3\n        /* \"#utility.yul\":11051:11069   */\n      add\n        /* \"#utility.yul\":11043:11069   */\n      swap1\n      pop\n        /* \"#utility.yul\":11115:11124   */\n      dup2\n        /* \"#utility.yul\":11109:11113   */\n      dup2\n        /* \"#utility.yul\":11105:11125   */\n      sub\n        /* \"#utility.yul\":11101:11102   */\n      0x00\n        /* \"#utility.yul\":11090:11099   */\n      dup4\n        /* \"#utility.yul\":11086:11103   */\n      add\n        /* \"#utility.yul\":11079:11126   */\n      mstore\n        /* \"#utility.yul\":11143:11274   */\n      tag_346\n        /* \"#utility.yul\":11269:11273   */\n      dup2\n        /* \"#utility.yul\":11143:11274   */\n      tag_217\n      jump\t// in\n    tag_346:\n        /* \"#utility.yul\":11135:11274   */\n      swap1\n      pop\n        /* \"#utility.yul\":10862:11281   */\n      swap2\n      swap1\n      pop\n      jump\t// out\n        /* \"#utility.yul\":11287:11467   */\n    tag_218:\n        /* \"#utility.yul\":11335:11412   */\n      0x4e487b7100000000000000000000000000000000000000000000000000000000\n        /* \"#utility.yul\":11332:11333   */\n      0x00\n        /* \"#utility.yul\":11325:11413   */\n      mstore\n        /* \"#utility.yul\":11432:11436   */\n      0x11\n        /* \"#utility.yul\":11429:11430   */\n      0x04\n        /* \"#utility.yul\":11422:11437   */\n      mstore\n        /* \"#utility.yul\":11456:11460   */\n      0x24\n        /* \"#utility.yul\":11453:11454   */\n      0x00\n        /* \"#utility.yul\":11446:11461   */\n      revert\n        /* \"#utility.yul\":11473:11883   */\n    tag_79:\n        /* \"#utility.yul\":11513:11520   */\n      0x00\n        /* \"#utility.yul\":11536:11556   */\n      tag_349\n        /* \"#utility.yul\":11554:11555   */\n      dup3\n        /* \"#utility.yul\":11536:11556   */\n      tag_179\n      jump\t// in\n    tag_349:\n        /* \"#utility.yul\":11531:11556   */\n      swap2\n      pop\n        /* \"#utility.yul\":11570:11590   */\n      tag_350\n        /* \"#utility.yul\":11588:11589   */\n      dup4\n        /* \"#utility.yul\":11570:11590   */\n      tag_179\n      jump\t// in\n    tag_350:\n        /* \"#utility.yul\":11565:11590   */\n      swap3\n      pop\n        /* \"#utility.yul\":11625:11626   */\n      dup3\n        /* \"#utility.yul\":11622:11623   */\n      dup3\n        /* \"#utility.yul\":11618:11627   */\n      mul\n        /* \"#utility.yul\":11647:11677   */\n      tag_351\n        /* \"#utility.yul\":11665:11676   */\n      dup2\n        /* \"#utility.yul\":11647:11677   */\n      tag_179\n      jump\t// in\n    tag_351:\n        /* \"#utility.yul\":11636:11677   */\n      swap2\n      pop\n        /* \"#utility.yul\":11826:11827   */\n      dup3\n        /* \"#utility.yul\":11817:11824   */\n      dup3\n        /* \"#utility.yul\":11813:11828   */\n      div\n        /* \"#utility.yul\":11810:11811   */\n      dup5\n        /* \"#utility.yul\":11807:11829   */\n      eq\n        /* \"#utility.yul\":11787:11788   */\n      dup4\n        /* \"#utility.yul\":11780:11789   */\n      iszero\n        /* \"#utility.yul\":11760:11843   */\n      or\n        /* \"#utility.yul\":11737:11876   */\n      tag_352\n      jumpi\n        /* \"#utility.yul\":11856:11874   */\n      tag_353\n      tag_218\n      jump\t// in\n    tag_353:\n        /* \"#utility.yul\":11737:11876   */\n    tag_352:\n        /* \"#utility.yul\":11521:11883   */\n      pop\n        /* \"#utility.yul\":11473:11883   */\n      swap3\n      swap2\n      pop\n      pop\n      jump\t// out\n        /* \"#utility.yul\":11889:12109   */\n    tag_219:\n        /* \"#utility.yul\":12029:12063   */\n      0x436f6e74726163742068617320696e73756666696369656e742062616c616e63\n        /* \"#utility.yul\":12025:12026   */\n      0x00\n        /* \"#utility.yul\":12017:12023   */\n      dup3\n        /* \"#utility.yul\":12013:12027   */\n      add\n        /* \"#utility.yul\":12006:12064   */\n      mstore\n        /* \"#utility.yul\":12098:12101   */\n      0x6500000000000000000000000000000000000000000000000000000000000000\n        /* \"#utility.yul\":12093:12095   */\n      0x20\n        /* \"#utility.yul\":12085:12091   */\n      dup3\n        /* \"#utility.yul\":12081:12096   */\n      add\n        /* \"#utility.yul\":12074:12102   */\n      mstore\n        /* \"#utility.yul\":11889:12109   */\n      pop\n      jump\t// out\n        /* \"#utility.yul\":12115:12481   */\n    tag_220:\n        /* \"#utility.yul\":12257:12260   */\n      0x00\n        /* \"#utility.yul\":12278:12345   */\n      tag_356\n        /* \"#utility.yul\":12342:12344   */\n      0x21\n        /* \"#utility.yul\":12337:12340   */\n      dup4\n        /* \"#utility.yul\":12278:12345   */\n      tag_203\n      jump\t// in\n    tag_356:\n        /* \"#utility.yul\":12271:12345   */\n      swap2\n      pop\n        /* \"#utility.yul\":12354:12447   */\n      tag_357\n        /* \"#utility.yul\":12443:12446   */\n      dup3\n        /* \"#utility.yul\":12354:12447   */\n      tag_219\n      jump\t// in\n    tag_357:\n        /* \"#utility.yul\":12472:12474   */\n      0x40\n        /* \"#utility.yul\":12467:12470   */\n      dup3\n        /* \"#utility.yul\":12463:12475   */\n      add\n        /* \"#utility.yul\":12456:12475   */\n      swap1\n      pop\n        /* \"#utility.yul\":12115:12481   */\n      swap2\n      swap1\n      pop\n      jump\t// out\n        /* \"#utility.yul\":12487:12906   */\n    tag_86:\n        /* \"#utility.yul\":12653:12657   */\n      0x00\n        /* \"#utility.yul\":12691:12693   */\n      0x20\n        /* \"#utility.yul\":12680:12689   */\n      dup3\n        /* \"#utility.yul\":12676:12694   */\n      add\n        /* \"#utility.yul\":12668:12694   */\n      swap1\n      pop\n        /* \"#utility.yul\":12740:12749   */\n      dup2\n        /* \"#utility.yul\":12734:12738   */\n      dup2\n        /* \"#utility.yul\":12730:12750   */\n      sub\n        /* \"#utility.yul\":12726:12727   */\n      0x00\n        /* \"#utility.yul\":12715:12724   */\n      dup4\n        /* \"#utility.yul\":12711:12728   */\n      add\n        /* \"#utility.yul\":12704:12751   */\n      mstore\n        /* \"#utility.yul\":12768:12899   */\n      tag_359\n        /* \"#utility.yul\":12894:12898   */\n      dup2\n        /* \"#utility.yul\":12768:12899   */\n      tag_220\n      jump\t// in\n    tag_359:\n        /* \"#utility.yul\":12760:12899   */\n      swap1\n      pop\n        /* \"#utility.yul\":12487:12906   */\n      swap2\n      swap1\n      pop\n      jump\t// out\n        /* \"#utility.yul\":12912:13244   */\n    tag_88:\n        /* \"#utility.yul\":13033:13037   */\n      0x00\n        /* \"#utility.yul\":13071:13073   */\n      0x40\n        /* \"#utility.yul\":13060:13069   */\n      dup3\n        /* \"#utility.yul\":13056:13074   */\n      add\n        /* \"#utility.yul\":13048:13074   */\n      swap1\n      pop\n        /* \"#utility.yul\":13084:13155   */\n      tag_361\n        /* \"#utility.yul\":13152:13153   */\n      0x00\n        /* \"#utility.yul\":13141:13150   */\n      dup4\n        /* \"#utility.yul\":13137:13154   */\n      add\n        /* \"#utility.yul\":13128:13134   */\n      dup6\n        /* \"#utility.yul\":13084:13155   */\n      tag_192\n      jump\t// in\n    tag_361:\n        /* \"#utility.yul\":13165:13237   */\n      tag_362\n        /* \"#utility.yul\":13233:13235   */\n      0x20\n        /* \"#utility.yul\":13222:13231   */\n      dup4\n        /* \"#utility.yul\":13218:13236   */\n      add\n        /* \"#utility.yul\":13209:13215   */\n      dup5\n        /* \"#utility.yul\":13165:13237   */\n      tag_180\n      jump\t// in\n    tag_362:\n        /* \"#utility.yul\":12912:13244   */\n      swap4\n      swap3\n      pop\n      pop\n      pop\n      jump\t// out\n        /* \"#utility.yul\":13250:13366   */\n    tag_221:\n        /* \"#utility.yul\":13320:13341   */\n      tag_364\n        /* \"#utility.yul\":13335:13340   */\n      dup2\n        /* \"#utility.yul\":13320:13341   */\n      tag_200\n      jump\t// in\n    tag_364:\n        /* \"#utility.yul\":13313:13318   */\n      dup2\n        /* \"#utility.yul\":13310:13342   */\n      eq\n        /* \"#utility.yul\":13300:13360   */\n      tag_365\n      jumpi\n        /* \"#utility.yul\":13356:13357   */\n      0x00\n        /* \"#utility.yul\":13353:13354   */\n      0x00\n        /* \"#utility.yul\":13346:13358   */\n      revert\n        /* \"#utility.yul\":13300:13360   */\n    tag_365:\n        /* \"#utility.yul\":13250:13366   */\n      pop\n      jump\t// out\n        /* \"#utility.yul\":13372:13509   */\n    tag_222:\n        /* \"#utility.yul\":13426:13431   */\n      0x00\n        /* \"#utility.yul\":13457:13463   */\n      dup2\n        /* \"#utility.yul\":13451:13464   */\n      mload\n        /* \"#utility.yul\":13442:13464   */\n      swap1\n      pop\n        /* \"#utility.yul\":13473:13503   */\n      tag_367\n        /* \"#utility.yul\":13497:13502   */\n      dup2\n        /* \"#utility.yul\":13473:13503   */\n      tag_221\n      jump\t// in\n    tag_367:\n        /* \"#utility.yul\":13372:13509   */\n      swap3\n      swap2\n      pop\n      pop\n      jump\t// out\n        /* \"#utility.yul\":13515:13860   */\n    tag_92:\n        /* \"#utility.yul\":13582:13588   */\n      0x00\n        /* \"#utility.yul\":13631:13633   */\n      0x20\n        /* \"#utility.yul\":13619:13628   */\n      dup3\n        /* \"#utility.yul\":13610:13617   */\n      dup5\n        /* \"#utility.yul\":13606:13629   */\n      sub\n        /* \"#utility.yul\":13602:13634   */\n      slt\n        /* \"#utility.yul\":13599:13718   */\n      iszero\n      tag_369\n      jumpi\n        /* \"#utility.yul\":13637:13716   */\n      tag_370\n      tag_182\n      jump\t// in\n    tag_370:\n        /* \"#utility.yul\":13599:13718   */\n    tag_369:\n        /* \"#utility.yul\":13757:13758   */\n      0x00\n        /* \"#utility.yul\":13782:13843   */\n      tag_371\n        /* \"#utility.yul\":13835:13842   */\n      dup5\n        /* \"#utility.yul\":13826:13832   */\n      dup3\n        /* \"#utility.yul\":13815:13824   */\n      dup6\n        /* \"#utility.yul\":13811:13833   */\n      add\n        /* \"#utility.yul\":13782:13843   */\n      tag_222\n      jump\t// in\n    tag_371:\n        /* \"#utility.yul\":13772:13843   */\n      swap2\n      pop\n        /* \"#utility.yul\":13728:13853   */\n      pop\n        /* \"#utility.yul\":13515:13860   */\n      swap3\n      swap2\n      pop\n      pop\n      jump\t// out\n        /* \"#utility.yul\":13866:14037   */\n    tag_223:\n        /* \"#utility.yul\":14006:14029   */\n      0x546f6b656e207472616e73666572206661696c65640000000000000000000000\n        /* \"#utility.yul\":14002:14003   */\n      0x00\n        /* \"#utility.yul\":13994:14000   */\n      dup3\n        /* \"#utility.yul\":13990:14004   */\n      add\n        /* \"#utility.yul\":13983:14030   */\n      mstore\n        /* \"#utility.yul\":13866:14037   */\n      pop\n      jump\t// out\n        /* \"#utility.yul\":14043:14409   */\n    tag_224:\n        /* \"#utility.yul\":14185:14188   */\n      0x00\n        /* \"#utility.yul\":14206:14273   */\n      tag_374\n        /* \"#utility.yul\":14270:14272   */\n      0x15\n        /* \"#utility.yul\":14265:14268   */\n      dup4\n        /* \"#utility.yul\":14206:14273   */\n      tag_203\n      jump\t// in\n    tag_374:\n        /* \"#utility.yul\":14199:14273   */\n      swap2\n      pop\n        /* \"#utility.yul\":14282:14375   */\n      tag_375\n        /* \"#utility.yul\":14371:14374   */\n      dup3\n        /* \"#utility.yul\":14282:14375   */\n      tag_223\n      jump\t// in\n    tag_375:\n        /* \"#utility.yul\":14400:14402   */\n      0x20\n        /* \"#utility.yul\":14395:14398   */\n      dup3\n        /* \"#utility.yul\":14391:14403   */\n      add\n        /* \"#utility.yul\":14384:14403   */\n      swap1\n      pop\n        /* \"#utility.yul\":14043:14409   */\n      swap2\n      swap1\n      pop\n      jump\t// out\n        /* \"#utility.yul\":14415:14834   */\n    tag_95:\n        /* \"#utility.yul\":14581:14585   */\n      0x00\n        /* \"#utility.yul\":14619:14621   */\n      0x20\n        /* \"#utility.yul\":14608:14617   */\n      dup3\n        /* \"#utility.yul\":14604:14622   */\n      add\n        /* \"#utility.yul\":14596:14622   */\n      swap1\n      pop\n        /* \"#utility.yul\":14668:14677   */\n      dup2\n        /* \"#utility.yul\":14662:14666   */\n      dup2\n        /* \"#utility.yul\":14658:14678   */\n      sub\n        /* \"#utility.yul\":14654:14655   */\n      0x00\n        /* \"#utility.yul\":14643:14652   */\n      dup4\n        /* \"#utility.yul\":14639:14656   */\n      add\n        /* \"#utility.yul\":14632:14679   */\n      mstore\n        /* \"#utility.yul\":14696:14827   */\n      tag_377\n        /* \"#utility.yul\":14822:14826   */\n      dup2\n        /* \"#utility.yul\":14696:14827   */\n      tag_224\n      jump\t// in\n    tag_377:\n        /* \"#utility.yul\":14688:14827   */\n      swap1\n      pop\n        /* \"#utility.yul\":14415:14834   */\n      swap2\n      swap1\n      pop\n      jump\t// out\n        /* \"#utility.yul\":14840:15005   */\n    tag_225:\n        /* \"#utility.yul\":14980:14997   */\n      0x5472616e73666572206661696c65640000000000000000000000000000000000\n        /* \"#utility.yul\":14976:14977   */\n      0x00\n        /* \"#utility.yul\":14968:14974   */\n      dup3\n        /* \"#utility.yul\":14964:14978   */\n      add\n        /* \"#utility.yul\":14957:14998   */\n      mstore\n        /* \"#utility.yul\":14840:15005   */\n      pop\n      jump\t// out\n        /* \"#utility.yul\":15011:15377   */\n    tag_226:\n        /* \"#utility.yul\":15153:15156   */\n      0x00\n        /* \"#utility.yul\":15174:15241   */\n      tag_380\n        /* \"#utility.yul\":15238:15240   */\n      0x0f\n        /* \"#utility.yul\":15233:15236   */\n      dup4\n        /* \"#utility.yul\":15174:15241   */\n      tag_203\n      jump\t// in\n    tag_380:\n        /* \"#utility.yul\":15167:15241   */\n      swap2\n      pop\n        /* \"#utility.yul\":15250:15343   */\n      tag_381\n        /* \"#utility.yul\":15339:15342   */\n      dup3\n        /* \"#utility.yul\":15250:15343   */\n      tag_225\n      jump\t// in\n    tag_381:\n        /* \"#utility.yul\":15368:15370   */\n      0x20\n        /* \"#utility.yul\":15363:15366   */\n      dup3\n        /* \"#utility.yul\":15359:15371   */\n      add\n        /* \"#utility.yul\":15352:15371   */\n      swap1\n      pop\n        /* \"#utility.yul\":15011:15377   */\n      swap2\n      swap1\n      pop\n      jump\t// out\n        /* \"#utility.yul\":15383:15802   */\n    tag_107:\n        /* \"#utility.yul\":15549:15553   */\n      0x00\n        /* \"#utility.yul\":15587:15589   */\n      0x20\n        /* \"#utility.yul\":15576:15585   */\n      dup3\n        /* \"#utility.yul\":15572:15590   */\n      add\n        /* \"#utility.yul\":15564:15590   */\n      swap1\n      pop\n        /* \"#utility.yul\":15636:15645   */\n      dup2\n        /* \"#utility.yul\":15630:15634   */\n      dup2\n        /* \"#utility.yul\":15626:15646   */\n      sub\n        /* \"#utility.yul\":15622:15623   */\n      0x00\n        /* \"#utility.yul\":15611:15620   */\n      dup4\n        /* \"#utility.yul\":15607:15624   */\n      add\n        /* \"#utility.yul\":15600:15647   */\n      mstore\n        /* \"#utility.yul\":15664:15795   */\n      tag_383\n        /* \"#utility.yul\":15790:15794   */\n      dup2\n        /* \"#utility.yul\":15664:15795   */\n      tag_226\n      jump\t// in\n    tag_383:\n        /* \"#utility.yul\":15656:15795   */\n      swap1\n      pop\n        /* \"#utility.yul\":15383:15802   */\n      swap2\n      swap1\n      pop\n      jump\t// out\n        /* \"#utility.yul\":15808:15988   */\n    tag_227:\n        /* \"#utility.yul\":15856:15933   */\n      0x4e487b7100000000000000000000000000000000000000000000000000000000\n        /* \"#utility.yul\":15853:15854   */\n      0x00\n        /* \"#utility.yul\":15846:15934   */\n      mstore\n        /* \"#utility.yul\":15953:15957   */\n      0x12\n        /* \"#utility.yul\":15950:15951   */\n      0x04\n        /* \"#utility.yul\":15943:15958   */\n      mstore\n        /* \"#utility.yul\":15977:15981   */\n      0x24\n        /* \"#utility.yul\":15974:15975   */\n      0x00\n        /* \"#utility.yul\":15967:15982   */\n      revert\n        /* \"#utility.yul\":15994:16179   */\n    tag_116:\n        /* \"#utility.yul\":16034:16035   */\n      0x00\n        /* \"#utility.yul\":16051:16071   */\n      tag_386\n        /* \"#utility.yul\":16069:16070   */\n      dup3\n        /* \"#utility.yul\":16051:16071   */\n      tag_179\n      jump\t// in\n    tag_386:\n        /* \"#utility.yul\":16046:16071   */\n      swap2\n      pop\n        /* \"#utility.yul\":16085:16105   */\n      tag_387\n        /* \"#utility.yul\":16103:16104   */\n      dup4\n        /* \"#utility.yul\":16085:16105   */\n      tag_179\n      jump\t// in\n    tag_387:\n        /* \"#utility.yul\":16080:16105   */\n      swap3\n      pop\n        /* \"#utility.yul\":16124:16125   */\n      dup3\n        /* \"#utility.yul\":16114:16149   */\n      tag_388\n      jumpi\n        /* \"#utility.yul\":16129:16147   */\n      tag_389\n      tag_227\n      jump\t// in\n    tag_389:\n        /* \"#utility.yul\":16114:16149   */\n    tag_388:\n        /* \"#utility.yul\":16171:16172   */\n      dup3\n        /* \"#utility.yul\":16168:16169   */\n      dup3\n        /* \"#utility.yul\":16164:16173   */\n      div\n        /* \"#utility.yul\":16159:16173   */\n      swap1\n      pop\n        /* \"#utility.yul\":15994:16179   */\n      swap3\n      swap2\n      pop\n      pop\n      jump\t// out\n        /* \"#utility.yul\":16185:16365   */\n    tag_146:\n        /* \"#utility.yul\":16233:16310   */\n      0x4e487b7100000000000000000000000000000000000000000000000000000000\n        /* \"#utility.yul\":16230:16231   */\n      0x00\n        /* \"#utility.yul\":16223:16311   */\n      mstore\n        /* \"#utility.yul\":16330:16334   */\n      0x21\n        /* \"#utility.yul\":16327:16328   */\n      0x04\n        /* \"#utility.yul\":16320:16335   */\n      mstore\n        /* \"#utility.yul\":16354:16358   */\n      0x24\n        /* \"#utility.yul\":16351:16352   */\n      0x00\n        /* \"#utility.yul\":16344:16359   */\n      revert\n        /* \"#utility.yul\":16371:16448   */\n    tag_228:\n        /* \"#utility.yul\":16408:16415   */\n      0x00\n        /* \"#utility.yul\":16437:16442   */\n      dup2\n        /* \"#utility.yul\":16426:16442   */\n      swap1\n      pop\n        /* \"#utility.yul\":16371:16448   */\n      swap2\n      swap1\n      pop\n      jump\t// out\n        /* \"#utility.yul\":16454:16572   */\n    tag_229:\n        /* \"#utility.yul\":16541:16565   */\n      tag_393\n        /* \"#utility.yul\":16559:16564   */\n      dup2\n        /* \"#utility.yul\":16541:16565   */\n      tag_228\n      jump\t// in\n    tag_393:\n        /* \"#utility.yul\":16536:16539   */\n      dup3\n        /* \"#utility.yul\":16529:16566   */\n      mstore\n        /* \"#utility.yul\":16454:16572   */\n      pop\n      pop\n      jump\t// out\n        /* \"#utility.yul\":16578:16800   */\n    tag_170:\n        /* \"#utility.yul\":16671:16675   */\n      0x00\n        /* \"#utility.yul\":16709:16711   */\n      0x20\n        /* \"#utility.yul\":16698:16707   */\n      dup3\n        /* \"#utility.yul\":16694:16712   */\n      add\n        /* \"#utility.yul\":16686:16712   */\n      swap1\n      pop\n        /* \"#utility.yul\":16722:16793   */\n      tag_395\n        /* \"#utility.yul\":16790:16791   */\n      0x00\n        /* \"#utility.yul\":16779:16788   */\n      dup4\n        /* \"#utility.yul\":16775:16792   */\n      add\n        /* \"#utility.yul\":16766:16772   */\n      dup5\n        /* \"#utility.yul\":16722:16793   */\n      tag_229\n      jump\t// in\n    tag_395:\n        /* \"#utility.yul\":16578:16800   */\n      swap3\n      swap2\n      pop\n      pop\n      jump\t// out\n        /* \"#utility.yul\":16806:16892   */\n    tag_230:\n        /* \"#utility.yul\":16841:16848   */\n      0x00\n        /* \"#utility.yul\":16881:16885   */\n      0xff\n        /* \"#utility.yul\":16874:16879   */\n      dup3\n        /* \"#utility.yul\":16870:16886   */\n      and\n        /* \"#utility.yul\":16859:16886   */\n      swap1\n      pop\n        /* \"#utility.yul\":16806:16892   */\n      swap2\n      swap1\n      pop\n      jump\t// out\n        /* \"#utility.yul\":16898:17010   */\n    tag_231:\n        /* \"#utility.yul\":16981:17003   */\n      tag_398\n        /* \"#utility.yul\":16997:17002   */\n      dup2\n        /* \"#utility.yul\":16981:17003   */\n      tag_230\n      jump\t// in\n    tag_398:\n        /* \"#utility.yul\":16976:16979   */\n      dup3\n        /* \"#utility.yul\":16969:17004   */\n      mstore\n        /* \"#utility.yul\":16898:17010   */\n      pop\n      pop\n      jump\t// out\n        /* \"#utility.yul\":17016:17561   */\n    tag_175:\n        /* \"#utility.yul\":17189:17193   */\n      0x00\n        /* \"#utility.yul\":17227:17230   */\n      0x80\n        /* \"#utility.yul\":17216:17225   */\n      dup3\n        /* \"#utility.yul\":17212:17231   */\n      add\n        /* \"#utility.yul\":17204:17231   */\n      swap1\n      pop\n        /* \"#utility.yul\":17241:17312   */\n      tag_400\n        /* \"#utility.yul\":17309:17310   */\n      0x00\n        /* \"#utility.yul\":17298:17307   */\n      dup4\n        /* \"#utility.yul\":17294:17311   */\n      add\n        /* \"#utility.yul\":17285:17291   */\n      dup8\n        /* \"#utility.yul\":17241:17312   */\n      tag_229\n      jump\t// in\n    tag_400:\n        /* \"#utility.yul\":17322:17390   */\n      tag_401\n        /* \"#utility.yul\":17386:17388   */\n      0x20\n        /* \"#utility.yul\":17375:17384   */\n      dup4\n        /* \"#utility.yul\":17371:17389   */\n      add\n        /* \"#utility.yul\":17362:17368   */\n      dup7\n        /* \"#utility.yul\":17322:17390   */\n      tag_231\n      jump\t// in\n    tag_401:\n        /* \"#utility.yul\":17400:17472   */\n      tag_402\n        /* \"#utility.yul\":17468:17470   */\n      0x40\n        /* \"#utility.yul\":17457:17466   */\n      dup4\n        /* \"#utility.yul\":17453:17471   */\n      add\n        /* \"#utility.yul\":17444:17450   */\n      dup6\n        /* \"#utility.yul\":17400:17472   */\n      tag_229\n      jump\t// in\n    tag_402:\n        /* \"#utility.yul\":17482:17554   */\n      tag_403\n        /* \"#utility.yul\":17550:17552   */\n      0x60\n        /* \"#utility.yul\":17539:17548   */\n      dup4\n        /* \"#utility.yul\":17535:17553   */\n      add\n        /* \"#utility.yul\":17526:17532   */\n      dup5\n        /* \"#utility.yul\":17482:17554   */\n      tag_229\n      jump\t// in\n    tag_403:\n        /* \"#utility.yul\":17016:17561   */\n      swap6\n      swap5\n      pop\n      pop\n      pop\n      pop\n      pop\n      jump\t// out\n\n    auxdata: 0xa2646970667358221220612432ec6d668a0242df1e97a1398ce1d7c50f44604287c4b629403591e4125264736f6c634300081f0033\n}\n",
				"bytecode": {
					"linkReferences": {},
					"object": "60a060405234801561000f575f5ffd5b50335f73ffffffffffffffffffffffffffffffffffffffff168173ffffffffffffffffffffffffffffffffffffffff1603610081575f6040517f1e4fbdf70000000000000000000000000000000000000000000000000000000081526004016100789190610201565b60405180910390fd5b6100908161010160201b60201c565b5073b0525542e3d818460546332e76e511562dff9b0773ffffffffffffffffffffffffffffffffffffffff1660808173ffffffffffffffffffffffffffffffffffffffff16815250506100fc739eb566cc59e3e9d42209dd2d832740a6a74f5f2361010160201b60201c565b61021a565b5f5f5f9054906101000a900473ffffffffffffffffffffffffffffffffffffffff169050815f5f6101000a81548173ffffffffffffffffffffffffffffffffffffffff021916908373ffffffffffffffffffffffffffffffffffffffff1602179055508173ffffffffffffffffffffffffffffffffffffffff168173ffffffffffffffffffffffffffffffffffffffff167f8be0079c531659141344cd1fd0a4f28419497f9722a3daafe3b4186f6b6457e060405160405180910390a35050565b5f73ffffffffffffffffffffffffffffffffffffffff82169050919050565b5f6101eb826101c2565b9050919050565b6101fb816101e1565b82525050565b5f6020820190506102145f8301846101f2565b92915050565b60805161164761024e5f395f81816101d9015281816104b20152818161058c015281816106c901526107d101526116475ff3fe608060405234801561000f575f5ffd5b506004361061009c575f3560e01c80638455d8d5116100645780638455d8d51461011e5780638da5cb5b1461013c5780639c6b85bb1461015a578063b77cf9c61461018a578063f2fde38b146101ba5761009c565b80632fba2c85146100a057806338926b6d146100be57806350baa622146100da5780635b7633d0146100f6578063715018a614610114575b5f5ffd5b6100a86101d6565b6040516100b59190610d83565b60405180910390f35b6100d860048036038101906100d39190610e2f565b610274565b005b6100f460048036038101906100ef9190610e8c565b6106bf565b005b6100fe6107a4565b60405161010b9190610ef6565b60405180910390f35b61011c6107bc565b005b6101266107cf565b6040516101339190610f6a565b60405180910390f35b6101446107f3565b6040516101519190610ef6565b60405180910390f35b610174600480360381019061016f9190610fad565b61081a565b6040516101819190610ff2565b60405180910390f35b6101a4600480360381019061019f9190610fad565b610888565b6040516101b19190610d83565b60405180910390f35b6101d460048036038101906101cf9190610fad565b61089d565b005b5f7f000000000000000000000000000000000000000000000000000000000000000073ffffffffffffffffffffffffffffffffffffffff166370a08231306040518263ffffffff1660e01b81526004016102309190610ef6565b602060405180830381865afa15801561024b573d5f5f3e3d5ffd5b505050506040513d601f19601f8201168201806040525081019061026f919061101f565b905090565b5f83116102b6576040517f08c379a00000000000000000000000000000000000000000000000000000000081526004016102ad906110a4565b60405180910390fd5b6105dc8311156102fb576040517f08c379a00000000000000000000000000000000000000000000000000000000081526004016102f29061110c565b60405180910390fd5b6103043361081a565b610343576040517f08c379a000000000000000000000000000000000000000000000000000000000815260040161033a9061119a565b60405180910390fd5b5f338460405160200161035792919061121d565b6040516020818303038152906040528051906020012090505f61037982610921565b90505f6103d285858080601f0160208091040260200160405190810160405280939291908181526020018383808284375f81840152601f19601f820116905080830192505050505050508361095490919063ffffffff16565b905073b6edacfc0dfc759e9ac5b9b8b6eb32310ac1bb4973ffffffffffffffffffffffffffffffffffffffff168173ffffffffffffffffffffffffffffffffffffffff1614610456576040517f08c379a000000000000000000000000000000000000000000000000000000000815260040161044d90611292565b60405180910390fd5b4260015f3373ffffffffffffffffffffffffffffffffffffffff1673ffffffffffffffffffffffffffffffffffffffff1681526020019081526020015f20819055505f670de0b6b3a7640000876104ad91906112dd565b9050807f000000000000000000000000000000000000000000000000000000000000000073ffffffffffffffffffffffffffffffffffffffff166370a08231306040518263ffffffff1660e01b81526004016105099190610ef6565b602060405180830381865afa158015610524573d5f5f3e3d5ffd5b505050506040513d601f19601f82011682018060405250810190610548919061101f565b1015610589576040517f08c379a00000000000000000000000000000000000000000000000000000000081526004016105809061138e565b60405180910390fd5b5f7f000000000000000000000000000000000000000000000000000000000000000073ffffffffffffffffffffffffffffffffffffffff1663a9059cbb33846040518363ffffffff1660e01b81526004016105e59291906113ac565b6020604051808303815f875af1158015610601573d5f5f3e3d5ffd5b505050506040513d601f19601f8201168201806040525081019061062591906113fd565b905080610667576040517f08c379a000000000000000000000000000000000000000000000000000000000815260040161065e90611472565b60405180910390fd5b3373ffffffffffffffffffffffffffffffffffffffff167fd8138f8a3f377c5259ca548e70e4c2de94f129f5a11036a15b69513cba2b426a836040516106ad9190610d83565b60405180910390a25050505050505050565b6106c761097e565b7f000000000000000000000000000000000000000000000000000000000000000073ffffffffffffffffffffffffffffffffffffffff1663a9059cbb33836040518363ffffffff1660e01b81526004016107229291906113ac565b6020604051808303815f875af115801561073e573d5f5f3e3d5ffd5b505050506040513d601f19601f8201168201806040525081019061076291906113fd565b6107a1576040517f08c379a0000000000000000000000000000000000000000000000000000000008152600401610798906114da565b60405180910390fd5b50565b73b6edacfc0dfc759e9ac5b9b8b6eb32310ac1bb4981565b6107c461097e565b6107cd5f610a05565b565b7f000000000000000000000000000000000000000000000000000000000000000081565b5f5f5f9054906101000a900473ffffffffffffffffffffffffffffffffffffffff16905090565b5f5f620151804261082b9190611525565b90505f6201518060015f8673ffffffffffffffffffffffffffffffffffffffff1673ffffffffffffffffffffffffffffffffffffffff1681526020019081526020015f205461087a9190611525565b905080821192505050919050565b6001602052805f5260405f205f915090505481565b6108a561097e565b5f73ffffffffffffffffffffffffffffffffffffffff168173ffffffffffffffffffffffffffffffffffffffff1603610915575f6040517f1e4fbdf700000000000000000000000000000000000000000000000000000000815260040161090c9190610ef6565b60405180910390fd5b61091e81610a05565b50565b5f7f19457468657265756d205369676e6564204d6573736167653a0a3332000000005f5281601c52603c5f209050919050565b5f5f5f5f6109628686610ac6565b9250925092506109728282610b1b565b82935050505092915050565b610986610c7d565b73ffffffffffffffffffffffffffffffffffffffff166109a46107f3565b73ffffffffffffffffffffffffffffffffffffffff1614610a03576109c7610c7d565b6040517f118cdaa70000000000000000000000000000000000000000000000000000000081526004016109fa9190610ef6565b60405180910390fd5b565b5f5f5f9054906101000a900473ffffffffffffffffffffffffffffffffffffffff169050815f5f6101000a81548173ffffffffffffffffffffffffffffffffffffffff021916908373ffffffffffffffffffffffffffffffffffffffff1602179055508173ffffffffffffffffffffffffffffffffffffffff168173ffffffffffffffffffffffffffffffffffffffff167f8be0079c531659141344cd1fd0a4f28419497f9722a3daafe3b4186f6b6457e060405160405180910390a35050565b5f5f5f6041845103610b06575f5f5f602087015192506040870151915060608701515f1a9050610af888828585610c84565b955095509550505050610b14565b5f600285515f1b9250925092505b9250925092565b5f6003811115610b2e57610b2d611555565b5b826003811115610b4157610b40611555565b5b0315610c795760016003811115610b5b57610b5a611555565b5b826003811115610b6e57610b6d611555565b5b03610ba5576040517ff645eedf00000000000000000000000000000000000000000000000000000000815260040160405180910390fd5b60026003811115610bb957610bb8611555565b5b826003811115610bcc57610bcb611555565b5b03610c1057805f1c6040517ffce698f7000000000000000000000000000000000000000000000000000000008152600401610c079190610d83565b60405180910390fd5b600380811115610c2357610c22611555565b5b826003811115610c3657610c35611555565b5b03610c7857806040517fd78bce0c000000000000000000000000000000000000000000000000000000008152600401610c6f919061159a565b60405180910390fd5b5b5050565b5f33905090565b5f5f5f7f7fffffffffffffffffffffffffffffff5d576e7357a4501ddfe92f46681b20a0845f1c1115610cc0575f600385925092509250610d61565b5f6001888888886040515f8152602001604052604051610ce394939291906115ce565b6020604051602081039080840390855afa158015610d03573d5f5f3e3d5ffd5b5050506020604051035190505f73ffffffffffffffffffffffffffffffffffffffff168173ffffffffffffffffffffffffffffffffffffffff1603610d54575f60015f5f1b93509350935050610d61565b805f5f5f1b935093509350505b9450945094915050565b5f819050919050565b610d7d81610d6b565b82525050565b5f602082019050610d965f830184610d74565b92915050565b5f5ffd5b5f5ffd5b610dad81610d6b565b8114610db7575f5ffd5b50565b5f81359050610dc881610da4565b92915050565b5f5ffd5b5f5ffd5b5f5ffd5b5f5f83601f840112610def57610dee610dce565b5b8235905067ffffffffffffffff811115610e0c57610e0b610dd2565b5b602083019150836001820283011115610e2857610e27610dd6565b5b9250929050565b5f5f5f60408486031215610e4657610e45610d9c565b5b5f610e5386828701610dba565b935050602084013567ffffffffffffffff811115610e7457610e73610da0565b5b610e8086828701610dda565b92509250509250925092565b5f60208284031215610ea157610ea0610d9c565b5b5f610eae84828501610dba565b91505092915050565b5f73ffffffffffffffffffffffffffffffffffffffff82169050919050565b5f610ee082610eb7565b9050919050565b610ef081610ed6565b82525050565b5f602082019050610f095f830184610ee7565b92915050565b5f819050919050565b5f610f32610f2d610f2884610eb7565b610f0f565b610eb7565b9050919050565b5f610f4382610f18565b9050919050565b5f610f5482610f39565b9050919050565b610f6481610f4a565b82525050565b5f602082019050610f7d5f830184610f5b565b92915050565b610f8c81610ed6565b8114610f96575f5ffd5b50565b5f81359050610fa781610f83565b92915050565b5f60208284031215610fc257610fc1610d9c565b5b5f610fcf84828501610f99565b91505092915050565b5f8115159050919050565b610fec81610fd8565b82525050565b5f6020820190506110055f830184610fe3565b92915050565b5f8151905061101981610da4565b92915050565b5f6020828403121561103457611033610d9c565b5b5f6110418482850161100b565b91505092915050565b5f82825260208201905092915050565b7f416d6f756e74206d757374206265203e203000000000000000000000000000005f82015250565b5f61108e60128361104a565b91506110998261105a565b602082019050919050565b5f6020820190508181035f8301526110bb81611082565b9050919050565b7f416d6f756e742065786365656473206c696d69742028313530302043484829005f82015250565b5f6110f6601f8361104a565b9150611101826110c2565b602082019050919050565b5f6020820190508181035f830152611123816110ea565b9050919050565b7f416c726561647920636c61696d656420746f64617920287265736574732061745f8201527f2055544320303a30302900000000000000000000000000000000000000000000602082015250565b5f611184602a8361104a565b915061118f8261112a565b604082019050919050565b5f6020820190508181035f8301526111b181611178565b9050919050565b5f8160601b9050919050565b5f6111ce826111b8565b9050919050565b5f6111df826111c4565b9050919050565b6111f76111f282610ed6565b6111d5565b82525050565b5f819050919050565b61121761121282610d6b565b6111fd565b82525050565b5f61122882856111e6565b6014820191506112388284611206565b6020820191508190509392505050565b7f496e76616c6964207369676e61747572650000000000000000000000000000005f82015250565b5f61127c60118361104a565b915061128782611248565b602082019050919050565b5f6020820190508181035f8301526112a981611270565b9050919050565b7f4e487b71000000000000000000000000000000000000000000000000000000005f52601160045260245ffd5b5f6112e782610d6b565b91506112f283610d6b565b925082820261130081610d6b565b91508282048414831517611317576113166112b0565b5b5092915050565b7f436f6e74726163742068617320696e73756666696369656e742062616c616e635f8201527f6500000000000000000000000000000000000000000000000000000000000000602082015250565b5f61137860218361104a565b91506113838261131e565b604082019050919050565b5f6020820190508181035f8301526113a58161136c565b9050919050565b5f6040820190506113bf5f830185610ee7565b6113cc6020830184610d74565b9392505050565b6113dc81610fd8565b81146113e6575f5ffd5b50565b5f815190506113f7816113d3565b92915050565b5f6020828403121561141257611411610d9c565b5b5f61141f848285016113e9565b91505092915050565b7f546f6b656e207472616e73666572206661696c656400000000000000000000005f82015250565b5f61145c60158361104a565b915061146782611428565b602082019050919050565b5f6020820190508181035f83015261148981611450565b9050919050565b7f5472616e73666572206661696c656400000000000000000000000000000000005f82015250565b5f6114c4600f8361104a565b91506114cf82611490565b602082019050919050565b5f6020820190508181035f8301526114f1816114b8565b9050919050565b7f4e487b71000000000000000000000000000000000000000000000000000000005f52601260045260245ffd5b5f61152f82610d6b565b915061153a83610d6b565b92508261154a576115496114f8565b5b828204905092915050565b7f4e487b71000000000000000000000000000000000000000000000000000000005f52602160045260245ffd5b5f819050919050565b61159481611582565b82525050565b5f6020820190506115ad5f83018461158b565b92915050565b5f60ff82169050919050565b6115c8816115b3565b82525050565b5f6080820190506115e15f83018761158b565b6115ee60208301866115bf565b6115fb604083018561158b565b611608606083018461158b565b9594505050505056fea2646970667358221220612432ec6d668a0242df1e97a1398ce1d7c50f44604287c4b629403591e4125264736f6c634300081f0033",
					"opcodes": "PUSH1 0xA0 PUSH1 0x40 MSTORE CALLVALUE DUP1 ISZERO PUSH2 0xF JUMPI PUSH0 PUSH0 REVERT JUMPDEST POP CALLER PUSH0 PUSH20 0xFFFFFFFFFFFFFFFFFFFFFFFFFFFFFFFFFFFFFFFF AND DUP2 PUSH20 0xFFFFFFFFFFFFFFFFFFFFFFFFFFFFFFFFFFFFFFFF AND SUB PUSH2 0x81 JUMPI PUSH0 PUSH1 0x40 MLOAD PUSH32 0x1E4FBDF700000000000000000000000000000000000000000000000000000000 DUP2 MSTORE PUSH1 0x4 ADD PUSH2 0x78 SWAP2 SWAP1 PUSH2 0x201 JUMP JUMPDEST PUSH1 0x40 MLOAD DUP1 SWAP2 SUB SWAP1 REVERT JUMPDEST PUSH2 0x90 DUP2 PUSH2 0x101 PUSH1 0x20 SHL PUSH1 0x20 SHR JUMP JUMPDEST POP PUSH20 0xB0525542E3D818460546332E76E511562DFF9B07 PUSH20 0xFFFFFFFFFFFFFFFFFFFFFFFFFFFFFFFFFFFFFFFF AND PUSH1 0x80 DUP2 PUSH20 0xFFFFFFFFFFFFFFFFFFFFFFFFFFFFFFFFFFFFFFFF AND DUP2 MSTORE POP POP PUSH2 0xFC PUSH20 0x9EB566CC59E3E9D42209DD2D832740A6A74F5F23 PUSH2 0x101 PUSH1 0x20 SHL PUSH1 0x20 SHR JUMP JUMPDEST PUSH2 0x21A JUMP JUMPDEST PUSH0 PUSH0 PUSH0 SWAP1 SLOAD SWAP1 PUSH2 0x100 EXP SWAP1 DIV PUSH20 0xFFFFFFFFFFFFFFFFFFFFFFFFFFFFFFFFFFFFFFFF AND SWAP1 POP DUP2 PUSH0 PUSH0 PUSH2 0x100 EXP DUP2 SLOAD DUP2 PUSH20 0xFFFFFFFFFFFFFFFFFFFFFFFFFFFFFFFFFFFFFFFF MUL NOT AND SWAP1 DUP4 PUSH20 0xFFFFFFFFFFFFFFFFFFFFFFFFFFFFFFFFFFFFFFFF AND MUL OR SWAP1 SSTORE POP DUP2 PUSH20 0xFFFFFFFFFFFFFFFFFFFFFFFFFFFFFFFFFFFFFFFF AND DUP2 PUSH20 0xFFFFFFFFFFFFFFFFFFFFFFFFFFFFFFFFFFFFFFFF AND PUSH32 0x8BE0079C531659141344CD1FD0A4F28419497F9722A3DAAFE3B4186F6B6457E0 PUSH1 0x40 MLOAD PUSH1 0x40 MLOAD DUP1 SWAP2 SUB SWAP1 LOG3 POP POP JUMP JUMPDEST PUSH0 PUSH20 0xFFFFFFFFFFFFFFFFFFFFFFFFFFFFFFFFFFFFFFFF DUP3 AND SWAP1 POP SWAP2 SWAP1 POP JUMP JUMPDEST PUSH0 PUSH2 0x1EB DUP3 PUSH2 0x1C2 JUMP JUMPDEST SWAP1 POP SWAP2 SWAP1 POP JUMP JUMPDEST PUSH2 0x1FB DUP2 PUSH2 0x1E1 JUMP JUMPDEST DUP3 MSTORE POP POP JUMP JUMPDEST PUSH0 PUSH1 0x20 DUP3 ADD SWAP1 POP PUSH2 0x214 PUSH0 DUP4 ADD DUP5 PUSH2 0x1F2 JUMP JUMPDEST SWAP3 SWAP2 POP POP JUMP JUMPDEST PUSH1 0x80 MLOAD PUSH2 0x1647 PUSH2 0x24E PUSH0 CODECOPY PUSH0 DUP2 DUP2 PUSH2 0x1D9 ADD MSTORE DUP2 DUP2 PUSH2 0x4B2 ADD MSTORE DUP2 DUP2 PUSH2 0x58C ADD MSTORE DUP2 DUP2 PUSH2 0x6C9 ADD MSTORE PUSH2 0x7D1 ADD MSTORE PUSH2 0x1647 PUSH0 RETURN INVALID PUSH1 0x80 PUSH1 0x40 MSTORE CALLVALUE DUP1 ISZERO PUSH2 0xF JUMPI PUSH0 PUSH0 REVERT JUMPDEST POP PUSH1 0x4 CALLDATASIZE LT PUSH2 0x9C JUMPI PUSH0 CALLDATALOAD PUSH1 0xE0 SHR DUP1 PUSH4 0x8455D8D5 GT PUSH2 0x64 JUMPI DUP1 PUSH4 0x8455D8D5 EQ PUSH2 0x11E JUMPI DUP1 PUSH4 0x8DA5CB5B EQ PUSH2 0x13C JUMPI DUP1 PUSH4 0x9C6B85BB EQ PUSH2 0x15A JUMPI DUP1 PUSH4 0xB77CF9C6 EQ PUSH2 0x18A JUMPI DUP1 PUSH4 0xF2FDE38B EQ PUSH2 0x1BA JUMPI PUSH2 0x9C JUMP JUMPDEST DUP1 PUSH4 0x2FBA2C85 EQ PUSH2 0xA0 JUMPI DUP1 PUSH4 0x38926B6D EQ PUSH2 0xBE JUMPI DUP1 PUSH4 0x50BAA622 EQ PUSH2 0xDA JUMPI DUP1 PUSH4 0x5B7633D0 EQ PUSH2 0xF6 JUMPI DUP1 PUSH4 0x715018A6 EQ PUSH2 0x114 JUMPI JUMPDEST PUSH0 PUSH0 REVERT JUMPDEST PUSH2 0xA8 PUSH2 0x1D6 JUMP JUMPDEST PUSH1 0x40 MLOAD PUSH2 0xB5 SWAP2 SWAP1 PUSH2 0xD83 JUMP JUMPDEST PUSH1 0x40 MLOAD DUP1 SWAP2 SUB SWAP1 RETURN JUMPDEST PUSH2 0xD8 PUSH1 0x4 DUP1 CALLDATASIZE SUB DUP2 ADD SWAP1 PUSH2 0xD3 SWAP2 SWAP1 PUSH2 0xE2F JUMP JUMPDEST PUSH2 0x274 JUMP JUMPDEST STOP JUMPDEST PUSH2 0xF4 PUSH1 0x4 DUP1 CALLDATASIZE SUB DUP2 ADD SWAP1 PUSH2 0xEF SWAP2 SWAP1 PUSH2 0xE8C JUMP JUMPDEST PUSH2 0x6BF JUMP JUMPDEST STOP JUMPDEST PUSH2 0xFE PUSH2 0x7A4 JUMP JUMPDEST PUSH1 0x40 MLOAD PUSH2 0x10B SWAP2 SWAP1 PUSH2 0xEF6 JUMP JUMPDEST PUSH1 0x40 MLOAD DUP1 SWAP2 SUB SWAP1 RETURN JUMPDEST PUSH2 0x11C PUSH2 0x7BC JUMP JUMPDEST STOP JUMPDEST PUSH2 0x126 PUSH2 0x7CF JUMP JUMPDEST PUSH1 0x40 MLOAD PUSH2 0x133 SWAP2 SWAP1 PUSH2 0xF6A JUMP JUMPDEST PUSH1 0x40 MLOAD DUP1 SWAP2 SUB SWAP1 RETURN JUMPDEST PUSH2 0x144 PUSH2 0x7F3 JUMP JUMPDEST PUSH1 0x40 MLOAD PUSH2 0x151 SWAP2 SWAP1 PUSH2 0xEF6 JUMP JUMPDEST PUSH1 0x40 MLOAD DUP1 SWAP2 SUB SWAP1 RETURN JUMPDEST PUSH2 0x174 PUSH1 0x4 DUP1 CALLDATASIZE SUB DUP2 ADD SWAP1 PUSH2 0x16F SWAP2 SWAP1 PUSH2 0xFAD JUMP JUMPDEST PUSH2 0x81A JUMP JUMPDEST PUSH1 0x40 MLOAD PUSH2 0x181 SWAP2 SWAP1 PUSH2 0xFF2 JUMP JUMPDEST PUSH1 0x40 MLOAD DUP1 SWAP2 SUB SWAP1 RETURN JUMPDEST PUSH2 0x1A4 PUSH1 0x4 DUP1 CALLDATASIZE SUB DUP2 ADD SWAP1 PUSH2 0x19F SWAP2 SWAP1 PUSH2 0xFAD JUMP JUMPDEST PUSH2 0x888 JUMP JUMPDEST PUSH1 0x40 MLOAD PUSH2 0x1B1 SWAP2 SWAP1 PUSH2 0xD83 JUMP JUMPDEST PUSH1 0x40 MLOAD DUP1 SWAP2 SUB SWAP1 RETURN JUMPDEST PUSH2 0x1D4 PUSH1 0x4 DUP1 CALLDATASIZE SUB DUP2 ADD SWAP1 PUSH2 0x1CF SWAP2 SWAP1 PUSH2 0xFAD JUMP JUMPDEST PUSH2 0x89D JUMP JUMPDEST STOP JUMPDEST PUSH0 PUSH32 0x0 PUSH20 0xFFFFFFFFFFFFFFFFFFFFFFFFFFFFFFFFFFFFFFFF AND PUSH4 0x70A08231 ADDRESS PUSH1 0x40 MLOAD DUP3 PUSH4 0xFFFFFFFF AND PUSH1 0xE0 SHL DUP2 MSTORE PUSH1 0x4 ADD PUSH2 0x230 SWAP2 SWAP1 PUSH2 0xEF6 JUMP JUMPDEST PUSH1 0x20 PUSH1 0x40 MLOAD DUP1 DUP4 SUB DUP2 DUP7 GAS STATICCALL ISZERO DUP1 ISZERO PUSH2 0x24B JUMPI RETURNDATASIZE PUSH0 PUSH0 RETURNDATACOPY RETURNDATASIZE PUSH0 REVERT JUMPDEST POP POP POP POP PUSH1 0x40 MLOAD RETURNDATASIZE PUSH1 0x1F NOT PUSH1 0x1F DUP3 ADD AND DUP3 ADD DUP1 PUSH1 0x40 MSTORE POP DUP2 ADD SWAP1 PUSH2 0x26F SWAP2 SWAP1 PUSH2 0x101F JUMP JUMPDEST SWAP1 POP SWAP1 JUMP JUMPDEST PUSH0 DUP4 GT PUSH2 0x2B6 JUMPI PUSH1 0x40 MLOAD PUSH32 0x8C379A000000000000000000000000000000000000000000000000000000000 DUP2 MSTORE PUSH1 0x4 ADD PUSH2 0x2AD SWAP1 PUSH2 0x10A4 JUMP JUMPDEST PUSH1 0x40 MLOAD DUP1 SWAP2 SUB SWAP1 REVERT JUMPDEST PUSH2 0x5DC DUP4 GT ISZERO PUSH2 0x2FB JUMPI PUSH1 0x40 MLOAD PUSH32 0x8C379A000000000000000000000000000000000000000000000000000000000 DUP2 MSTORE PUSH1 0x4 ADD PUSH2 0x2F2 SWAP1 PUSH2 0x110C JUMP JUMPDEST PUSH1 0x40 MLOAD DUP1 SWAP2 SUB SWAP1 REVERT JUMPDEST PUSH2 0x304 CALLER PUSH2 0x81A JUMP JUMPDEST PUSH2 0x343 JUMPI PUSH1 0x40 MLOAD PUSH32 0x8C379A000000000000000000000000000000000000000000000000000000000 DUP2 MSTORE PUSH1 0x4 ADD PUSH2 0x33A SWAP1 PUSH2 0x119A JUMP JUMPDEST PUSH1 0x40 MLOAD DUP1 SWAP2 SUB SWAP1 REVERT JUMPDEST PUSH0 CALLER DUP5 PUSH1 0x40 MLOAD PUSH1 0x20 ADD PUSH2 0x357 SWAP3 SWAP2 SWAP1 PUSH2 0x121D JUMP JUMPDEST PUSH1 0x40 MLOAD PUSH1 0x20 DUP2 DUP4 SUB SUB DUP2 MSTORE SWAP1 PUSH1 0x40 MSTORE DUP1 MLOAD SWAP1 PUSH1 0x20 ADD KECCAK256 SWAP1 POP PUSH0 PUSH2 0x379 DUP3 PUSH2 0x921 JUMP JUMPDEST SWAP1 POP PUSH0 PUSH2 0x3D2 DUP6 DUP6 DUP1 DUP1 PUSH1 0x1F ADD PUSH1 0x20 DUP1 SWAP2 DIV MUL PUSH1 0x20 ADD PUSH1 0x40 MLOAD SWAP1 DUP2 ADD PUSH1 0x40 MSTORE DUP1 SWAP4 SWAP3 SWAP2 SWAP1 DUP2 DUP2 MSTORE PUSH1 0x20 ADD DUP4 DUP4 DUP1 DUP3 DUP5 CALLDATACOPY PUSH0 DUP2 DUP5 ADD MSTORE PUSH1 0x1F NOT PUSH1 0x1F DUP3 ADD AND SWAP1 POP DUP1 DUP4 ADD SWAP3 POP POP POP POP POP POP POP DUP4 PUSH2 0x954 SWAP1 SWAP2 SWAP1 PUSH4 0xFFFFFFFF AND JUMP JUMPDEST SWAP1 POP PUSH20 0xB6EDACFC0DFC759E9AC5B9B8B6EB32310AC1BB49 PUSH20 0xFFFFFFFFFFFFFFFFFFFFFFFFFFFFFFFFFFFFFFFF AND DUP2 PUSH20 0xFFFFFFFFFFFFFFFFFFFFFFFFFFFFFFFFFFFFFFFF AND EQ PUSH2 0x456 JUMPI PUSH1 0x40 MLOAD PUSH32 0x8C379A000000000000000000000000000000000000000000000000000000000 DUP2 MSTORE PUSH1 0x4 ADD PUSH2 0x44D SWAP1 PUSH2 0x1292 JUMP JUMPDEST PUSH1 0x40 MLOAD DUP1 SWAP2 SUB SWAP1 REVERT JUMPDEST TIMESTAMP PUSH1 0x1 PUSH0 CALLER PUSH20 0xFFFFFFFFFFFFFFFFFFFFFFFFFFFFFFFFFFFFFFFF AND PUSH20 0xFFFFFFFFFFFFFFFFFFFFFFFFFFFFFFFFFFFFFFFF AND DUP2 MSTORE PUSH1 0x20 ADD SWAP1 DUP2 MSTORE PUSH1 0x20 ADD PUSH0 KECCAK256 DUP2 SWAP1 SSTORE POP PUSH0 PUSH8 0xDE0B6B3A7640000 DUP8 PUSH2 0x4AD SWAP2 SWAP1 PUSH2 0x12DD JUMP JUMPDEST SWAP1 POP DUP1 PUSH32 0x0 PUSH20 0xFFFFFFFFFFFFFFFFFFFFFFFFFFFFFFFFFFFFFFFF AND PUSH4 0x70A08231 ADDRESS PUSH1 0x40 MLOAD DUP3 PUSH4 0xFFFFFFFF AND PUSH1 0xE0 SHL DUP2 MSTORE PUSH1 0x4 ADD PUSH2 0x509 SWAP2 SWAP1 PUSH2 0xEF6 JUMP JUMPDEST PUSH1 0x20 PUSH1 0x40 MLOAD DUP1 DUP4 SUB DUP2 DUP7 GAS STATICCALL ISZERO DUP1 ISZERO PUSH2 0x524 JUMPI RETURNDATASIZE PUSH0 PUSH0 RETURNDATACOPY RETURNDATASIZE PUSH0 REVERT JUMPDEST POP POP POP POP PUSH1 0x40 MLOAD RETURNDATASIZE PUSH1 0x1F NOT PUSH1 0x1F DUP3 ADD AND DUP3 ADD DUP1 PUSH1 0x40 MSTORE POP DUP2 ADD SWAP1 PUSH2 0x548 SWAP2 SWAP1 PUSH2 0x101F JUMP JUMPDEST LT ISZERO PUSH2 0x589 JUMPI PUSH1 0x40 MLOAD PUSH32 0x8C379A000000000000000000000000000000000000000000000000000000000 DUP2 MSTORE PUSH1 0x4 ADD PUSH2 0x580 SWAP1 PUSH2 0x138E JUMP JUMPDEST PUSH1 0x40 MLOAD DUP1 SWAP2 SUB SWAP1 REVERT JUMPDEST PUSH0 PUSH32 0x0 PUSH20 0xFFFFFFFFFFFFFFFFFFFFFFFFFFFFFFFFFFFFFFFF AND PUSH4 0xA9059CBB CALLER DUP5 PUSH1 0x40 MLOAD DUP4 PUSH4 0xFFFFFFFF AND PUSH1 0xE0 SHL DUP2 MSTORE PUSH1 0x4 ADD PUSH2 0x5E5 SWAP3 SWAP2 SWAP1 PUSH2 0x13AC JUMP JUMPDEST PUSH1 0x20 PUSH1 0x40 MLOAD DUP1 DUP4 SUB DUP2 PUSH0 DUP8 GAS CALL ISZERO DUP1 ISZERO PUSH2 0x601 JUMPI RETURNDATASIZE PUSH0 PUSH0 RETURNDATACOPY RETURNDATASIZE PUSH0 REVERT JUMPDEST POP POP POP POP PUSH1 0x40 MLOAD RETURNDATASIZE PUSH1 0x1F NOT PUSH1 0x1F DUP3 ADD AND DUP3 ADD DUP1 PUSH1 0x40 MSTORE POP DUP2 ADD SWAP1 PUSH2 0x625 SWAP2 SWAP1 PUSH2 0x13FD JUMP JUMPDEST SWAP1 POP DUP1 PUSH2 0x667 JUMPI PUSH1 0x40 MLOAD PUSH32 0x8C379A000000000000000000000000000000000000000000000000000000000 DUP2 MSTORE PUSH1 0x4 ADD PUSH2 0x65E SWAP1 PUSH2 0x1472 JUMP JUMPDEST PUSH1 0x40 MLOAD DUP1 SWAP2 SUB SWAP1 REVERT JUMPDEST CALLER PUSH20 0xFFFFFFFFFFFFFFFFFFFFFFFFFFFFFFFFFFFFFFFF AND PUSH32 0xD8138F8A3F377C5259CA548E70E4C2DE94F129F5A11036A15B69513CBA2B426A DUP4 PUSH1 0x40 MLOAD PUSH2 0x6AD SWAP2 SWAP1 PUSH2 0xD83 JUMP JUMPDEST PUSH1 0x40 MLOAD DUP1 SWAP2 SUB SWAP1 LOG2 POP POP POP POP POP POP POP POP JUMP JUMPDEST PUSH2 0x6C7 PUSH2 0x97E JUMP JUMPDEST PUSH32 0x0 PUSH20 0xFFFFFFFFFFFFFFFFFFFFFFFFFFFFFFFFFFFFFFFF AND PUSH4 0xA9059CBB CALLER DUP4 PUSH1 0x40 MLOAD DUP4 PUSH4 0xFFFFFFFF AND PUSH1 0xE0 SHL DUP2 MSTORE PUSH1 0x4 ADD PUSH2 0x722 SWAP3 SWAP2 SWAP1 PUSH2 0x13AC JUMP JUMPDEST PUSH1 0x20 PUSH1 0x40 MLOAD DUP1 DUP4 SUB DUP2 PUSH0 DUP8 GAS CALL ISZERO DUP1 ISZERO PUSH2 0x73E JUMPI RETURNDATASIZE PUSH0 PUSH0 RETURNDATACOPY RETURNDATASIZE PUSH0 REVERT JUMPDEST POP POP POP POP PUSH1 0x40 MLOAD RETURNDATASIZE PUSH1 0x1F NOT PUSH1 0x1F DUP3 ADD AND DUP3 ADD DUP1 PUSH1 0x40 MSTORE POP DUP2 ADD SWAP1 PUSH2 0x762 SWAP2 SWAP1 PUSH2 0x13FD JUMP JUMPDEST PUSH2 0x7A1 JUMPI PUSH1 0x40 MLOAD PUSH32 0x8C379A000000000000000000000000000000000000000000000000000000000 DUP2 MSTORE PUSH1 0x4 ADD PUSH2 0x798 SWAP1 PUSH2 0x14DA JUMP JUMPDEST PUSH1 0x40 MLOAD DUP1 SWAP2 SUB SWAP1 REVERT JUMPDEST POP JUMP JUMPDEST PUSH20 0xB6EDACFC0DFC759E9AC5B9B8B6EB32310AC1BB49 DUP2 JUMP JUMPDEST PUSH2 0x7C4 PUSH2 0x97E JUMP JUMPDEST PUSH2 0x7CD PUSH0 PUSH2 0xA05 JUMP JUMPDEST JUMP JUMPDEST PUSH32 0x0 DUP2 JUMP JUMPDEST PUSH0 PUSH0 PUSH0 SWAP1 SLOAD SWAP1 PUSH2 0x100 EXP SWAP1 DIV PUSH20 0xFFFFFFFFFFFFFFFFFFFFFFFFFFFFFFFFFFFFFFFF AND SWAP1 POP SWAP1 JUMP JUMPDEST PUSH0 PUSH0 PUSH3 0x15180 TIMESTAMP PUSH2 0x82B SWAP2 SWAP1 PUSH2 0x1525 JUMP JUMPDEST SWAP1 POP PUSH0 PUSH3 0x15180 PUSH1 0x1 PUSH0 DUP7 PUSH20 0xFFFFFFFFFFFFFFFFFFFFFFFFFFFFFFFFFFFFFFFF AND PUSH20 0xFFFFFFFFFFFFFFFFFFFFFFFFFFFFFFFFFFFFFFFF AND DUP2 MSTORE PUSH1 0x20 ADD SWAP1 DUP2 MSTORE PUSH1 0x20 ADD PUSH0 KECCAK256 SLOAD PUSH2 0x87A SWAP2 SWAP1 PUSH2 0x1525 JUMP JUMPDEST SWAP1 POP DUP1 DUP3 GT SWAP3 POP POP POP SWAP2 SWAP1 POP JUMP JUMPDEST PUSH1 0x1 PUSH1 0x20 MSTORE DUP1 PUSH0 MSTORE PUSH1 0x40 PUSH0 KECCAK256 PUSH0 SWAP2 POP SWAP1 POP SLOAD DUP2 JUMP JUMPDEST PUSH2 0x8A5 PUSH2 0x97E JUMP JUMPDEST PUSH0 PUSH20 0xFFFFFFFFFFFFFFFFFFFFFFFFFFFFFFFFFFFFFFFF AND DUP2 PUSH20 0xFFFFFFFFFFFFFFFFFFFFFFFFFFFFFFFFFFFFFFFF AND SUB PUSH2 0x915 JUMPI PUSH0 PUSH1 0x40 MLOAD PUSH32 0x1E4FBDF700000000000000000000000000000000000000000000000000000000 DUP2 MSTORE PUSH1 0x4 ADD PUSH2 0x90C SWAP2 SWAP1 PUSH2 0xEF6 JUMP JUMPDEST PUSH1 0x40 MLOAD DUP1 SWAP2 SUB SWAP1 REVERT JUMPDEST PUSH2 0x91E DUP2 PUSH2 0xA05 JUMP JUMPDEST POP JUMP JUMPDEST PUSH0 PUSH32 0x19457468657265756D205369676E6564204D6573736167653A0A333200000000 PUSH0 MSTORE DUP2 PUSH1 0x1C MSTORE PUSH1 0x3C PUSH0 KECCAK256 SWAP1 POP SWAP2 SWAP1 POP JUMP JUMPDEST PUSH0 PUSH0 PUSH0 PUSH0 PUSH2 0x962 DUP7 DUP7 PUSH2 0xAC6 JUMP JUMPDEST SWAP3 POP SWAP3 POP SWAP3 POP PUSH2 0x972 DUP3 DUP3 PUSH2 0xB1B JUMP JUMPDEST DUP3 SWAP4 POP POP POP POP SWAP3 SWAP2 POP POP JUMP JUMPDEST PUSH2 0x986 PUSH2 0xC7D JUMP JUMPDEST PUSH20 0xFFFFFFFFFFFFFFFFFFFFFFFFFFFFFFFFFFFFFFFF AND PUSH2 0x9A4 PUSH2 0x7F3 JUMP JUMPDEST PUSH20 0xFFFFFFFFFFFFFFFFFFFFFFFFFFFFFFFFFFFFFFFF AND EQ PUSH2 0xA03 JUMPI PUSH2 0x9C7 PUSH2 0xC7D JUMP JUMPDEST PUSH1 0x40 MLOAD PUSH32 0x118CDAA700000000000000000000000000000000000000000000000000000000 DUP2 MSTORE PUSH1 0x4 ADD PUSH2 0x9FA SWAP2 SWAP1 PUSH2 0xEF6 JUMP JUMPDEST PUSH1 0x40 MLOAD DUP1 SWAP2 SUB SWAP1 REVERT JUMPDEST JUMP JUMPDEST PUSH0 PUSH0 PUSH0 SWAP1 SLOAD SWAP1 PUSH2 0x100 EXP SWAP1 DIV PUSH20 0xFFFFFFFFFFFFFFFFFFFFFFFFFFFFFFFFFFFFFFFF AND SWAP1 POP DUP2 PUSH0 PUSH0 PUSH2 0x100 EXP DUP2 SLOAD DUP2 PUSH20 0xFFFFFFFFFFFFFFFFFFFFFFFFFFFFFFFFFFFFFFFF MUL NOT AND SWAP1 DUP4 PUSH20 0xFFFFFFFFFFFFFFFFFFFFFFFFFFFFFFFFFFFFFFFF AND MUL OR SWAP1 SSTORE POP DUP2 PUSH20 0xFFFFFFFFFFFFFFFFFFFFFFFFFFFFFFFFFFFFFFFF AND DUP2 PUSH20 0xFFFFFFFFFFFFFFFFFFFFFFFFFFFFFFFFFFFFFFFF AND PUSH32 0x8BE0079C531659141344CD1FD0A4F28419497F9722A3DAAFE3B4186F6B6457E0 PUSH1 0x40 MLOAD PUSH1 0x40 MLOAD DUP1 SWAP2 SUB SWAP1 LOG3 POP POP JUMP JUMPDEST PUSH0 PUSH0 PUSH0 PUSH1 0x41 DUP5 MLOAD SUB PUSH2 0xB06 JUMPI PUSH0 PUSH0 PUSH0 PUSH1 0x20 DUP8 ADD MLOAD SWAP3 POP PUSH1 0x40 DUP8 ADD MLOAD SWAP2 POP PUSH1 0x60 DUP8 ADD MLOAD PUSH0 BYTE SWAP1 POP PUSH2 0xAF8 DUP9 DUP3 DUP6 DUP6 PUSH2 0xC84 JUMP JUMPDEST SWAP6 POP SWAP6 POP SWAP6 POP POP POP POP PUSH2 0xB14 JUMP JUMPDEST PUSH0 PUSH1 0x2 DUP6 MLOAD PUSH0 SHL SWAP3 POP SWAP3 POP SWAP3 POP JUMPDEST SWAP3 POP SWAP3 POP SWAP3 JUMP JUMPDEST PUSH0 PUSH1 0x3 DUP2 GT ISZERO PUSH2 0xB2E JUMPI PUSH2 0xB2D PUSH2 0x1555 JUMP JUMPDEST JUMPDEST DUP3 PUSH1 0x3 DUP2 GT ISZERO PUSH2 0xB41 JUMPI PUSH2 0xB40 PUSH2 0x1555 JUMP JUMPDEST JUMPDEST SUB ISZERO PUSH2 0xC79 JUMPI PUSH1 0x1 PUSH1 0x3 DUP2 GT ISZERO PUSH2 0xB5B JUMPI PUSH2 0xB5A PUSH2 0x1555 JUMP JUMPDEST JUMPDEST DUP3 PUSH1 0x3 DUP2 GT ISZERO PUSH2 0xB6E JUMPI PUSH2 0xB6D PUSH2 0x1555 JUMP JUMPDEST JUMPDEST SUB PUSH2 0xBA5 JUMPI PUSH1 0x40 MLOAD PUSH32 0xF645EEDF00000000000000000000000000000000000000000000000000000000 DUP2 MSTORE PUSH1 0x4 ADD PUSH1 0x40 MLOAD DUP1 SWAP2 SUB SWAP1 REVERT JUMPDEST PUSH1 0x2 PUSH1 0x3 DUP2 GT ISZERO PUSH2 0xBB9 JUMPI PUSH2 0xBB8 PUSH2 0x1555 JUMP JUMPDEST JUMPDEST DUP3 PUSH1 0x3 DUP2 GT ISZERO PUSH2 0xBCC JUMPI PUSH2 0xBCB PUSH2 0x1555 JUMP JUMPDEST JUMPDEST SUB PUSH2 0xC10 JUMPI DUP1 PUSH0 SHR PUSH1 0x40 MLOAD PUSH32 0xFCE698F700000000000000000000000000000000000000000000000000000000 DUP2 MSTORE PUSH1 0x4 ADD PUSH2 0xC07 SWAP2 SWAP1 PUSH2 0xD83 JUMP JUMPDEST PUSH1 0x40 MLOAD DUP1 SWAP2 SUB SWAP1 REVERT JUMPDEST PUSH1 0x3 DUP1 DUP2 GT ISZERO PUSH2 0xC23 JUMPI PUSH2 0xC22 PUSH2 0x1555 JUMP JUMPDEST JUMPDEST DUP3 PUSH1 0x3 DUP2 GT ISZERO PUSH2 0xC36 JUMPI PUSH2 0xC35 PUSH2 0x1555 JUMP JUMPDEST JUMPDEST SUB PUSH2 0xC78 JUMPI DUP1 PUSH1 0x40 MLOAD PUSH32 0xD78BCE0C00000000000000000000000000000000000000000000000000000000 DUP2 MSTORE PUSH1 0x4 ADD PUSH2 0xC6F SWAP2 SWAP1 PUSH2 0x159A JUMP JUMPDEST PUSH1 0x40 MLOAD DUP1 SWAP2 SUB SWAP1 REVERT JUMPDEST JUMPDEST POP POP JUMP JUMPDEST PUSH0 CALLER SWAP1 POP SWAP1 JUMP JUMPDEST PUSH0 PUSH0 PUSH0 PUSH32 0x7FFFFFFFFFFFFFFFFFFFFFFFFFFFFFFF5D576E7357A4501DDFE92F46681B20A0 DUP5 PUSH0 SHR GT ISZERO PUSH2 0xCC0 JUMPI PUSH0 PUSH1 0x3 DUP6 SWAP3 POP SWAP3 POP SWAP3 POP PUSH2 0xD61 JUMP JUMPDEST PUSH0 PUSH1 0x1 DUP9 DUP9 DUP9 DUP9 PUSH1 0x40 MLOAD PUSH0 DUP2 MSTORE PUSH1 0x20 ADD PUSH1 0x40 MSTORE PUSH1 0x40 MLOAD PUSH2 0xCE3 SWAP5 SWAP4 SWAP3 SWAP2 SWAP1 PUSH2 0x15CE JUMP JUMPDEST PUSH1 0x20 PUSH1 0x40 MLOAD PUSH1 0x20 DUP2 SUB SWAP1 DUP1 DUP5 SUB SWAP1 DUP6 GAS STATICCALL ISZERO DUP1 ISZERO PUSH2 0xD03 JUMPI RETURNDATASIZE PUSH0 PUSH0 RETURNDATACOPY RETURNDATASIZE PUSH0 REVERT JUMPDEST POP POP POP PUSH1 0x20 PUSH1 0x40 MLOAD SUB MLOAD SWAP1 POP PUSH0 PUSH20 0xFFFFFFFFFFFFFFFFFFFFFFFFFFFFFFFFFFFFFFFF AND DUP2 PUSH20 0xFFFFFFFFFFFFFFFFFFFFFFFFFFFFFFFFFFFFFFFF AND SUB PUSH2 0xD54 JUMPI PUSH0 PUSH1 0x1 PUSH0 PUSH0 SHL SWAP4 POP SWAP4 POP SWAP4 POP POP PUSH2 0xD61 JUMP JUMPDEST DUP1 PUSH0 PUSH0 PUSH0 SHL SWAP4 POP SWAP4 POP SWAP4 POP POP JUMPDEST SWAP5 POP SWAP5 POP SWAP5 SWAP2 POP POP JUMP JUMPDEST PUSH0 DUP2 SWAP1 POP SWAP2 SWAP1 POP JUMP JUMPDEST PUSH2 0xD7D DUP2 PUSH2 0xD6B JUMP JUMPDEST DUP3 MSTORE POP POP JUMP JUMPDEST PUSH0 PUSH1 0x20 DUP3 ADD SWAP1 POP PUSH2 0xD96 PUSH0 DUP4 ADD DUP5 PUSH2 0xD74 JUMP JUMPDEST SWAP3 SWAP2 POP POP JUMP JUMPDEST PUSH0 PUSH0 REVERT JUMPDEST PUSH0 PUSH0 REVERT JUMPDEST PUSH2 0xDAD DUP2 PUSH2 0xD6B JUMP JUMPDEST DUP2 EQ PUSH2 0xDB7 JUMPI PUSH0 PUSH0 REVERT JUMPDEST POP JUMP JUMPDEST PUSH0 DUP2 CALLDATALOAD SWAP1 POP PUSH2 0xDC8 DUP2 PUSH2 0xDA4 JUMP JUMPDEST SWAP3 SWAP2 POP POP JUMP JUMPDEST PUSH0 PUSH0 REVERT JUMPDEST PUSH0 PUSH0 REVERT JUMPDEST PUSH0 PUSH0 REVERT JUMPDEST PUSH0 PUSH0 DUP4 PUSH1 0x1F DUP5 ADD SLT PUSH2 0xDEF JUMPI PUSH2 0xDEE PUSH2 0xDCE JUMP JUMPDEST JUMPDEST DUP3 CALLDATALOAD SWAP1 POP PUSH8 0xFFFFFFFFFFFFFFFF DUP2 GT ISZERO PUSH2 0xE0C JUMPI PUSH2 0xE0B PUSH2 0xDD2 JUMP JUMPDEST JUMPDEST PUSH1 0x20 DUP4 ADD SWAP2 POP DUP4 PUSH1 0x1 DUP3 MUL DUP4 ADD GT ISZERO PUSH2 0xE28 JUMPI PUSH2 0xE27 PUSH2 0xDD6 JUMP JUMPDEST JUMPDEST SWAP3 POP SWAP3 SWAP1 POP JUMP JUMPDEST PUSH0 PUSH0 PUSH0 PUSH1 0x40 DUP5 DUP7 SUB SLT ISZERO PUSH2 0xE46 JUMPI PUSH2 0xE45 PUSH2 0xD9C JUMP JUMPDEST JUMPDEST PUSH0 PUSH2 0xE53 DUP7 DUP3 DUP8 ADD PUSH2 0xDBA JUMP JUMPDEST SWAP4 POP POP PUSH1 0x20 DUP5 ADD CALLDATALOAD PUSH8 0xFFFFFFFFFFFFFFFF DUP2 GT ISZERO PUSH2 0xE74 JUMPI PUSH2 0xE73 PUSH2 0xDA0 JUMP JUMPDEST JUMPDEST PUSH2 0xE80 DUP7 DUP3 DUP8 ADD PUSH2 0xDDA JUMP JUMPDEST SWAP3 POP SWAP3 POP POP SWAP3 POP SWAP3 POP SWAP3 JUMP JUMPDEST PUSH0 PUSH1 0x20 DUP3 DUP5 SUB SLT ISZERO PUSH2 0xEA1 JUMPI PUSH2 0xEA0 PUSH2 0xD9C JUMP JUMPDEST JUMPDEST PUSH0 PUSH2 0xEAE DUP5 DUP3 DUP6 ADD PUSH2 0xDBA JUMP JUMPDEST SWAP2 POP POP SWAP3 SWAP2 POP POP JUMP JUMPDEST PUSH0 PUSH20 0xFFFFFFFFFFFFFFFFFFFFFFFFFFFFFFFFFFFFFFFF DUP3 AND SWAP1 POP SWAP2 SWAP1 POP JUMP JUMPDEST PUSH0 PUSH2 0xEE0 DUP3 PUSH2 0xEB7 JUMP JUMPDEST SWAP1 POP SWAP2 SWAP1 POP JUMP JUMPDEST PUSH2 0xEF0 DUP2 PUSH2 0xED6 JUMP JUMPDEST DUP3 MSTORE POP POP JUMP JUMPDEST PUSH0 PUSH1 0x20 DUP3 ADD SWAP1 POP PUSH2 0xF09 PUSH0 DUP4 ADD DUP5 PUSH2 0xEE7 JUMP JUMPDEST SWAP3 SWAP2 POP POP JUMP JUMPDEST PUSH0 DUP2 SWAP1 POP SWAP2 SWAP1 POP JUMP JUMPDEST PUSH0 PUSH2 0xF32 PUSH2 0xF2D PUSH2 0xF28 DUP5 PUSH2 0xEB7 JUMP JUMPDEST PUSH2 0xF0F JUMP JUMPDEST PUSH2 0xEB7 JUMP JUMPDEST SWAP1 POP SWAP2 SWAP1 POP JUMP JUMPDEST PUSH0 PUSH2 0xF43 DUP3 PUSH2 0xF18 JUMP JUMPDEST SWAP1 POP SWAP2 SWAP1 POP JUMP JUMPDEST PUSH0 PUSH2 0xF54 DUP3 PUSH2 0xF39 JUMP JUMPDEST SWAP1 POP SWAP2 SWAP1 POP JUMP JUMPDEST PUSH2 0xF64 DUP2 PUSH2 0xF4A JUMP JUMPDEST DUP3 MSTORE POP POP JUMP JUMPDEST PUSH0 PUSH1 0x20 DUP3 ADD SWAP1 POP PUSH2 0xF7D PUSH0 DUP4 ADD DUP5 PUSH2 0xF5B JUMP JUMPDEST SWAP3 SWAP2 POP POP JUMP JUMPDEST PUSH2 0xF8C DUP2 PUSH2 0xED6 JUMP JUMPDEST DUP2 EQ PUSH2 0xF96 JUMPI PUSH0 PUSH0 REVERT JUMPDEST POP JUMP JUMPDEST PUSH0 DUP2 CALLDATALOAD SWAP1 POP PUSH2 0xFA7 DUP2 PUSH2 0xF83 JUMP JUMPDEST SWAP3 SWAP2 POP POP JUMP JUMPDEST PUSH0 PUSH1 0x20 DUP3 DUP5 SUB SLT ISZERO PUSH2 0xFC2 JUMPI PUSH2 0xFC1 PUSH2 0xD9C JUMP JUMPDEST JUMPDEST PUSH0 PUSH2 0xFCF DUP5 DUP3 DUP6 ADD PUSH2 0xF99 JUMP JUMPDEST SWAP2 POP POP SWAP3 SWAP2 POP POP JUMP JUMPDEST PUSH0 DUP2 ISZERO ISZERO SWAP1 POP SWAP2 SWAP1 POP JUMP JUMPDEST PUSH2 0xFEC DUP2 PUSH2 0xFD8 JUMP JUMPDEST DUP3 MSTORE POP POP JUMP JUMPDEST PUSH0 PUSH1 0x20 DUP3 ADD SWAP1 POP PUSH2 0x1005 PUSH0 DUP4 ADD DUP5 PUSH2 0xFE3 JUMP JUMPDEST SWAP3 SWAP2 POP POP JUMP JUMPDEST PUSH0 DUP2 MLOAD SWAP1 POP PUSH2 0x1019 DUP2 PUSH2 0xDA4 JUMP JUMPDEST SWAP3 SWAP2 POP POP JUMP JUMPDEST PUSH0 PUSH1 0x20 DUP3 DUP5 SUB SLT ISZERO PUSH2 0x1034 JUMPI PUSH2 0x1033 PUSH2 0xD9C JUMP JUMPDEST JUMPDEST PUSH0 PUSH2 0x1041 DUP5 DUP3 DUP6 ADD PUSH2 0x100B JUMP JUMPDEST SWAP2 POP POP SWAP3 SWAP2 POP POP JUMP JUMPDEST PUSH0 DUP3 DUP3 MSTORE PUSH1 0x20 DUP3 ADD SWAP1 POP SWAP3 SWAP2 POP POP JUMP JUMPDEST PUSH32 0x416D6F756E74206D757374206265203E20300000000000000000000000000000 PUSH0 DUP3 ADD MSTORE POP JUMP JUMPDEST PUSH0 PUSH2 0x108E PUSH1 0x12 DUP4 PUSH2 0x104A JUMP JUMPDEST SWAP2 POP PUSH2 0x1099 DUP3 PUSH2 0x105A JUMP JUMPDEST PUSH1 0x20 DUP3 ADD SWAP1 POP SWAP2 SWAP1 POP JUMP JUMPDEST PUSH0 PUSH1 0x20 DUP3 ADD SWAP1 POP DUP2 DUP2 SUB PUSH0 DUP4 ADD MSTORE PUSH2 0x10BB DUP2 PUSH2 0x1082 JUMP JUMPDEST SWAP1 POP SWAP2 SWAP1 POP JUMP JUMPDEST PUSH32 0x416D6F756E742065786365656473206C696D6974202831353030204348482900 PUSH0 DUP3 ADD MSTORE POP JUMP JUMPDEST PUSH0 PUSH2 0x10F6 PUSH1 0x1F DUP4 PUSH2 0x104A JUMP JUMPDEST SWAP2 POP PUSH2 0x1101 DUP3 PUSH2 0x10C2 JUMP JUMPDEST PUSH1 0x20 DUP3 ADD SWAP1 POP SWAP2 SWAP1 POP JUMP JUMPDEST PUSH0 PUSH1 0x20 DUP3 ADD SWAP1 POP DUP2 DUP2 SUB PUSH0 DUP4 ADD MSTORE PUSH2 0x1123 DUP2 PUSH2 0x10EA JUMP JUMPDEST SWAP1 POP SWAP2 SWAP1 POP JUMP JUMPDEST PUSH32 0x416C726561647920636C61696D656420746F6461792028726573657473206174 PUSH0 DUP3 ADD MSTORE PUSH32 0x2055544320303A30302900000000000000000000000000000000000000000000 PUSH1 0x20 DUP3 ADD MSTORE POP JUMP JUMPDEST PUSH0 PUSH2 0x1184 PUSH1 0x2A DUP4 PUSH2 0x104A JUMP JUMPDEST SWAP2 POP PUSH2 0x118F DUP3 PUSH2 0x112A JUMP JUMPDEST PUSH1 0x40 DUP3 ADD SWAP1 POP SWAP2 SWAP1 POP JUMP JUMPDEST PUSH0 PUSH1 0x20 DUP3 ADD SWAP1 POP DUP2 DUP2 SUB PUSH0 DUP4 ADD MSTORE PUSH2 0x11B1 DUP2 PUSH2 0x1178 JUMP JUMPDEST SWAP1 POP SWAP2 SWAP1 POP JUMP JUMPDEST PUSH0 DUP2 PUSH1 0x60 SHL SWAP1 POP SWAP2 SWAP1 POP JUMP JUMPDEST PUSH0 PUSH2 0x11CE DUP3 PUSH2 0x11B8 JUMP JUMPDEST SWAP1 POP SWAP2 SWAP1 POP JUMP JUMPDEST PUSH0 PUSH2 0x11DF DUP3 PUSH2 0x11C4 JUMP JUMPDEST SWAP1 POP SWAP2 SWAP1 POP JUMP JUMPDEST PUSH2 0x11F7 PUSH2 0x11F2 DUP3 PUSH2 0xED6 JUMP JUMPDEST PUSH2 0x11D5 JUMP JUMPDEST DUP3 MSTORE POP POP JUMP JUMPDEST PUSH0 DUP2 SWAP1 POP SWAP2 SWAP1 POP JUMP JUMPDEST PUSH2 0x1217 PUSH2 0x1212 DUP3 PUSH2 0xD6B JUMP JUMPDEST PUSH2 0x11FD JUMP JUMPDEST DUP3 MSTORE POP POP JUMP JUMPDEST PUSH0 PUSH2 0x1228 DUP3 DUP6 PUSH2 0x11E6 JUMP JUMPDEST PUSH1 0x14 DUP3 ADD SWAP2 POP PUSH2 0x1238 DUP3 DUP5 PUSH2 0x1206 JUMP JUMPDEST PUSH1 0x20 DUP3 ADD SWAP2 POP DUP2 SWAP1 POP SWAP4 SWAP3 POP POP POP JUMP JUMPDEST PUSH32 0x496E76616C6964207369676E6174757265000000000000000000000000000000 PUSH0 DUP3 ADD MSTORE POP JUMP JUMPDEST PUSH0 PUSH2 0x127C PUSH1 0x11 DUP4 PUSH2 0x104A JUMP JUMPDEST SWAP2 POP PUSH2 0x1287 DUP3 PUSH2 0x1248 JUMP JUMPDEST PUSH1 0x20 DUP3 ADD SWAP1 POP SWAP2 SWAP1 POP JUMP JUMPDEST PUSH0 PUSH1 0x20 DUP3 ADD SWAP1 POP DUP2 DUP2 SUB PUSH0 DUP4 ADD MSTORE PUSH2 0x12A9 DUP2 PUSH2 0x1270 JUMP JUMPDEST SWAP1 POP SWAP2 SWAP1 POP JUMP JUMPDEST PUSH32 0x4E487B7100000000000000000000000000000000000000000000000000000000 PUSH0 MSTORE PUSH1 0x11 PUSH1 0x4 MSTORE PUSH1 0x24 PUSH0 REVERT JUMPDEST PUSH0 PUSH2 0x12E7 DUP3 PUSH2 0xD6B JUMP JUMPDEST SWAP2 POP PUSH2 0x12F2 DUP4 PUSH2 0xD6B JUMP JUMPDEST SWAP3 POP DUP3 DUP3 MUL PUSH2 0x1300 DUP2 PUSH2 0xD6B JUMP JUMPDEST SWAP2 POP DUP3 DUP3 DIV DUP5 EQ DUP4 ISZERO OR PUSH2 0x1317 JUMPI PUSH2 0x1316 PUSH2 0x12B0 JUMP JUMPDEST JUMPDEST POP SWAP3 SWAP2 POP POP JUMP JUMPDEST PUSH32 0x436F6E74726163742068617320696E73756666696369656E742062616C616E63 PUSH0 DUP3 ADD MSTORE PUSH32 0x6500000000000000000000000000000000000000000000000000000000000000 PUSH1 0x20 DUP3 ADD MSTORE POP JUMP JUMPDEST PUSH0 PUSH2 0x1378 PUSH1 0x21 DUP4 PUSH2 0x104A JUMP JUMPDEST SWAP2 POP PUSH2 0x1383 DUP3 PUSH2 0x131E JUMP JUMPDEST PUSH1 0x40 DUP3 ADD SWAP1 POP SWAP2 SWAP1 POP JUMP JUMPDEST PUSH0 PUSH1 0x20 DUP3 ADD SWAP1 POP DUP2 DUP2 SUB PUSH0 DUP4 ADD MSTORE PUSH2 0x13A5 DUP2 PUSH2 0x136C JUMP JUMPDEST SWAP1 POP SWAP2 SWAP1 POP JUMP JUMPDEST PUSH0 PUSH1 0x40 DUP3 ADD SWAP1 POP PUSH2 0x13BF PUSH0 DUP4 ADD DUP6 PUSH2 0xEE7 JUMP JUMPDEST PUSH2 0x13CC PUSH1 0x20 DUP4 ADD DUP5 PUSH2 0xD74 JUMP JUMPDEST SWAP4 SWAP3 POP POP POP JUMP JUMPDEST PUSH2 0x13DC DUP2 PUSH2 0xFD8 JUMP JUMPDEST DUP2 EQ PUSH2 0x13E6 JUMPI PUSH0 PUSH0 REVERT JUMPDEST POP JUMP JUMPDEST PUSH0 DUP2 MLOAD SWAP1 POP PUSH2 0x13F7 DUP2 PUSH2 0x13D3 JUMP JUMPDEST SWAP3 SWAP2 POP POP JUMP JUMPDEST PUSH0 PUSH1 0x20 DUP3 DUP5 SUB SLT ISZERO PUSH2 0x1412 JUMPI PUSH2 0x1411 PUSH2 0xD9C JUMP JUMPDEST JUMPDEST PUSH0 PUSH2 0x141F DUP5 DUP3 DUP6 ADD PUSH2 0x13E9 JUMP JUMPDEST SWAP2 POP POP SWAP3 SWAP2 POP POP JUMP JUMPDEST PUSH32 0x546F6B656E207472616E73666572206661696C65640000000000000000000000 PUSH0 DUP3 ADD MSTORE POP JUMP JUMPDEST PUSH0 PUSH2 0x145C PUSH1 0x15 DUP4 PUSH2 0x104A JUMP JUMPDEST SWAP2 POP PUSH2 0x1467 DUP3 PUSH2 0x1428 JUMP JUMPDEST PUSH1 0x20 DUP3 ADD SWAP1 POP SWAP2 SWAP1 POP JUMP JUMPDEST PUSH0 PUSH1 0x20 DUP3 ADD SWAP1 POP DUP2 DUP2 SUB PUSH0 DUP4 ADD MSTORE PUSH2 0x1489 DUP2 PUSH2 0x1450 JUMP JUMPDEST SWAP1 POP SWAP2 SWAP1 POP JUMP JUMPDEST PUSH32 0x5472616E73666572206661696C65640000000000000000000000000000000000 PUSH0 DUP3 ADD MSTORE POP JUMP JUMPDEST PUSH0 PUSH2 0x14C4 PUSH1 0xF DUP4 PUSH2 0x104A JUMP JUMPDEST SWAP2 POP PUSH2 0x14CF DUP3 PUSH2 0x1490 JUMP JUMPDEST PUSH1 0x20 DUP3 ADD SWAP1 POP SWAP2 SWAP1 POP JUMP JUMPDEST PUSH0 PUSH1 0x20 DUP3 ADD SWAP1 POP DUP2 DUP2 SUB PUSH0 DUP4 ADD MSTORE PUSH2 0x14F1 DUP2 PUSH2 0x14B8 JUMP JUMPDEST SWAP1 POP SWAP2 SWAP1 POP JUMP JUMPDEST PUSH32 0x4E487B7100000000000000000000000000000000000000000000000000000000 PUSH0 MSTORE PUSH1 0x12 PUSH1 0x4 MSTORE PUSH1 0x24 PUSH0 REVERT JUMPDEST PUSH0 PUSH2 0x152F DUP3 PUSH2 0xD6B JUMP JUMPDEST SWAP2 POP PUSH2 0x153A DUP4 PUSH2 0xD6B JUMP JUMPDEST SWAP3 POP DUP3 PUSH2 0x154A JUMPI PUSH2 0x1549 PUSH2 0x14F8 JUMP JUMPDEST JUMPDEST DUP3 DUP3 DIV SWAP1 POP SWAP3 SWAP2 POP POP JUMP JUMPDEST PUSH32 0x4E487B7100000000000000000000000000000000000000000000000000000000 PUSH0 MSTORE PUSH1 0x21 PUSH1 0x4 MSTORE PUSH1 0x24 PUSH0 REVERT JUMPDEST PUSH0 DUP2 SWAP1 POP SWAP2 SWAP1 POP JUMP JUMPDEST PUSH2 0x1594 DUP2 PUSH2 0x1582 JUMP JUMPDEST DUP3 MSTORE POP POP JUMP JUMPDEST PUSH0 PUSH1 0x20 DUP3 ADD SWAP1 POP PUSH2 0x15AD PUSH0 DUP4 ADD DUP5 PUSH2 0x158B JUMP JUMPDEST SWAP3 SWAP2 POP POP JUMP JUMPDEST PUSH0 PUSH1 0xFF DUP3 AND SWAP1 POP SWAP2 SWAP1 POP JUMP JUMPDEST PUSH2 0x15C8 DUP2 PUSH2 0x15B3 JUMP JUMPDEST DUP3 MSTORE POP POP JUMP JUMPDEST PUSH0 PUSH1 0x80 DUP3 ADD SWAP1 POP PUSH2 0x15E1 PUSH0 DUP4 ADD DUP8 PUSH2 0x158B JUMP JUMPDEST PUSH2 0x15EE PUSH1 0x20 DUP4 ADD DUP7 PUSH2 0x15BF JUMP JUMPDEST PUSH2 0x15FB PUSH1 0x40 DUP4 ADD DUP6 PUSH2 0x158B JUMP JUMPDEST PUSH2 0x1608 PUSH1 0x60 DUP4 ADD DUP5 PUSH2 0x158B JUMP JUMPDEST SWAP6 SWAP5 POP POP POP POP POP JUMP INVALID LOG2 PUSH5 0x6970667358 0x22 SLT KECCAK256 PUSH2 0x2432 EOFCREATE 0x6D PUSH7 0x8A0242DF1E97A1 CODECOPY DUP13 RJUMPI 0xD7C5 0xF PREVRANDAO PUSH1 0x42 DUP8 0xC4 0xB6 0x29 BLOCKHASH CALLDATALOAD SWAP2 RETF SLT MSTORE PUSH5 0x736F6C6343 STOP ADDMOD 0x1F STOP CALLER "
				},
				"gasEstimates": {
					"creation": {
						"codeDepositCost": "1140600",
						"executionCost": "infinite",
						"totalCost": "infinite"
					},
					"external": {
						"checkDailyLimit(address)": "infinite",
						"chhToken()": "infinite",
						"claim(uint256,bytes)": "infinite",
						"getRemainingBalance()": "infinite",
						"lastClaimTime(address)": "2868",
						"owner()": "2536",
						"renounceOwnership()": "infinite",
						"signerAddress()": "440",
						"transferOwnership(address)": "infinite",
						"withdrawToken(uint256)": "infinite"
					}
				},
				"methodIdentifiers": {
					"checkDailyLimit(address)": "9c6b85bb",
					"chhToken()": "8455d8d5",
					"claim(uint256,bytes)": "38926b6d",
					"getRemainingBalance()": "2fba2c85",
					"lastClaimTime(address)": "b77cf9c6",
					"owner()": "8da5cb5b",
					"renounceOwnership()": "715018a6",
					"signerAddress()": "5b7633d0",
					"transferOwnership(address)": "f2fde38b",
					"withdrawToken(uint256)": "50baa622"
				}
			},
			"storageLayout": {
				"storage": [
					{
						"astId": 8,
						"contract": "Script/ReversiDailyBonus.sol:ReversiClaim",
						"label": "_owner",
						"offset": 0,
						"slot": "0",
						"type": "t_address"
					},
					{
						"astId": 5694,
						"contract": "Script/ReversiDailyBonus.sol:ReversiClaim",
						"label": "lastClaimTime",
						"offset": 0,
						"slot": "1",
						"type": "t_mapping(t_address,t_uint256)"
					}
				],
				"types": {
					"t_address": {
						"encoding": "inplace",
						"label": "address",
						"numberOfBytes": "20"
					},
					"t_mapping(t_address,t_uint256)": {
						"encoding": "mapping",
						"key": "t_address",
						"label": "mapping(address => uint256)",
						"numberOfBytes": "32",
						"value": "t_uint256"
					},
					"t_uint256": {
						"encoding": "inplace",
						"label": "uint256",
						"numberOfBytes": "32"
					}
				}
			},
			"userdoc": {
				"kind": "user",
				"methods": {},
				"version": 1
			}
		}
	}
}