{
	"Script/MiningQuestShop.sol": {
		"ItemShop": {
			"abi": [
				{
					"inputs": [
						{
							"internalType": "address",
							"name": "_chhToken",
							"type": "address"
						},
						{
							"internalType": "address",
							"name": "_treasury",
							"type": "address"
						}
					],
					"stateMutability": "nonpayable",
					"type": "constructor"
				},
				{
					"inputs": [
						{
							"internalType": "address",
							"name": "owner",
							"type": "address"
						}
					],
					"name": "OwnableInvalidOwner",
					"type": "error"
				},
				{
					"inputs": [
						{
							"internalType": "address",
							"name": "account",
							"type": "address"
						}
					],
					"name": "OwnableUnauthorizedAccount",
					"type": "error"
				},
				{
					"inputs": [],
					"name": "ReentrancyGuardReentrantCall",
					"type": "error"
				},
				{
					"inputs": [
						{
							"internalType": "address",
							"name": "token",
							"type": "address"
						}
					],
					"name": "SafeERC20FailedOperation",
					"type": "error"
				},
				{
					"anonymous": false,
					"inputs": [
						{
							"indexed": true,
							"internalType": "address",
							"name": "buyer",
							"type": "address"
						},
						{
							"indexed": false,
							"internalType": "uint256",
							"name": "potionAmount",
							"type": "uint256"
						},
						{
							"indexed": false,
							"internalType": "uint256",
							"name": "elixirAmount",
							"type": "uint256"
						},
						{
							"indexed": false,
							"internalType": "uint256",
							"name": "totalCost",
							"type": "uint256"
						}
					],
					"name": "ItemsPurchased",
					"type": "event"
				},
				{
					"anonymous": false,
					"inputs": [
						{
							"indexed": true,
							"internalType": "address",
							"name": "previousOwner",
							"type": "address"
						},
						{
							"indexed": true,
							"internalType": "address",
							"name": "newOwner",
							"type": "address"
						}
					],
					"name": "OwnershipTransferred",
					"type": "event"
				},
				{
					"anonymous": false,
					"inputs": [
						{
							"indexed": false,
							"internalType": "uint256",
							"name": "newPotionPrice",
							"type": "uint256"
						},
						{
							"indexed": false,
							"internalType": "uint256",
							"name": "newElixirPrice",
							"type": "uint256"
						}
					],
					"name": "PricesUpdated",
					"type": "event"
				},
				{
					"anonymous": false,
					"inputs": [
						{
							"indexed": false,
							"internalType": "address",
							"name": "newTreasury",
							"type": "address"
						}
					],
					"name": "TreasuryUpdated",
					"type": "event"
				},
				{
					"inputs": [
						{
							"internalType": "uint256",
							"name": "potionAmount",
							"type": "uint256"
						},
						{
							"internalType": "uint256",
							"name": "elixirAmount",
							"type": "uint256"
						}
					],
					"name": "buyItems",
					"outputs": [],
					"stateMutability": "nonpayable",
					"type": "function"
				},
				{
					"inputs": [],
					"name": "chhToken",
					"outputs": [
						{
							"internalType": "contract IERC20",
							"name": "",
							"type": "address"
						}
					],
					"stateMutability": "view",
					"type": "function"
				},
				{
					"inputs": [],
					"name": "elixirPrice",
					"outputs": [
						{
							"internalType": "uint256",
							"name": "",
							"type": "uint256"
						}
					],
					"stateMutability": "view",
					"type": "function"
				},
				{
					"inputs": [],
					"name": "owner",
					"outputs": [
						{
							"internalType": "address",
							"name": "",
							"type": "address"
						}
					],
					"stateMutability": "view",
					"type": "function"
				},
				{
					"inputs": [],
					"name": "potionPrice",
					"outputs": [
						{
							"internalType": "uint256",
							"name": "",
							"type": "uint256"
						}
					],
					"stateMutability": "view",
					"type": "function"
				},
				{
					"inputs": [],
					"name": "renounceOwnership",
					"outputs": [],
					"stateMutability": "nonpayable",
					"type": "function"
				},
				{
					"inputs": [
						{
							"internalType": "uint256",
							"name": "_potionPrice",
							"type": "uint256"
						},
						{
							"internalType": "uint256",
							"name": "_elixirPrice",
							"type": "uint256"
						}
					],
					"name": "setPrices",
					"outputs": [],
					"stateMutability": "nonpayable",
					"type": "function"
				},
				{
					"inputs": [
						{
							"internalType": "address",
							"name": "_treasury",
							"type": "address"
						}
					],
					"name": "setTreasury",
					"outputs": [],
					"stateMutability": "nonpayable",
					"type": "function"
				},
				{
					"inputs": [
						{
							"internalType": "address",
							"name": "newOwner",
							"type": "address"
						}
					],
					"name": "transferOwnership",
					"outputs": [],
					"stateMutability": "nonpayable",
					"type": "function"
				},
				{
					"inputs": [],
					"name": "treasury",
					"outputs": [
						{
							"internalType": "address",
							"name": "",
							"type": "address"
						}
					],
					"stateMutability": "view",
					"type": "function"
				}
			],
			"devdoc": {
				"details": "ERC20トークン($CHH)を使用してゲーム内アイテムを購入するためのコントラクト",
				"errors": {
					"OwnableInvalidOwner(address)": [
						{
							"details": "The owner is not a valid owner account. (eg. `address(0)`)"
						}
					],
					"OwnableUnauthorizedAccount(address)": [
						{
							"details": "The caller account is not authorized to perform an operation."
						}
					],
					"ReentrancyGuardReentrantCall()": [
						{
							"details": "Unauthorized reentrant call."
						}
					],
					"SafeERC20FailedOperation(address)": [
						{
							"details": "An operation with an ERC-20 token failed."
						}
					]
				},
				"kind": "dev",
				"methods": {
					"buyItems(uint256,uint256)": {
						"details": "アイテムを購入する関数",
						"params": {
							"elixirAmount": "購入するエリクサーの数",
							"potionAmount": "購入するポーションの数"
						}
					},
					"constructor": {
						"details": "コンストラクタ",
						"params": {
							"_chhToken": "決済に使用するERC20トークンのアドレス",
							"_treasury": "売上を受け取るアドレス"
						}
					},
					"owner()": {
						"details": "Returns the address of the current owner."
					},
					"renounceOwnership()": {
						"details": "Leaves the contract without owner. It will not be possible to call `onlyOwner` functions. Can only be called by the current owner. NOTE: Renouncing ownership will leave the contract without an owner, thereby disabling any functionality that is only available to the owner."
					},
					"setPrices(uint256,uint256)": {
						"details": "アイテムの価格を更新する関数（オーナーのみ実行可能）",
						"params": {
							"_elixirPrice": "新しいエリクサーの価格",
							"_potionPrice": "新しいポーションの価格"
						}
					},
					"setTreasury(address)": {
						"details": "トレジャリーアドレスを更新する関数（オーナーのみ実行可能）",
						"params": {
							"_treasury": "新しいトレジャリーアドレス"
						}
					},
					"transferOwnership(address)": {
						"details": "Transfers ownership of the contract to a new account (`newOwner`). Can only be called by the current owner."
					}
				},
				"title": "ItemShop",
				"version": 1
			},
			"evm": {
				"assembly": "    /* \"Script/MiningQuestShop.sol\":447:3450  contract ItemShop is Ownable, ReentrancyGuard {... */\n  mstore(0x40, 0x80)\n    /* \"Script/MiningQuestShop.sol\":789:801  100 * 10**18 */\n  0x056bc75e2d63100000\n    /* \"Script/MiningQuestShop.sol\":760:801  uint256 public potionPrice = 100 * 10**18 */\n  0x04\n  sstore\n    /* \"Script/MiningQuestShop.sol\":849:861  500 * 10**18 */\n  0x1b1ae4d6e2ef500000\n    /* \"Script/MiningQuestShop.sol\":820:861  uint256 public elixirPrice = 500 * 10**18 */\n  0x05\n  sstore\n    /* \"Script/MiningQuestShop.sol\":1381:1668  constructor(address _chhToken, address _treasury) Ownable(msg.sender) {... */\n  callvalue\n  dup1\n  iszero\n  tag_1\n  jumpi\n  revert(0x00, 0x00)\ntag_1:\n  pop\n  mload(0x40)\n  sub(codesize, bytecodeSize)\n  dup1\n  bytecodeSize\n  dup4\n  codecopy\n  dup2\n  dup2\n  add\n  0x40\n  mstore\n  dup2\n  add\n  swap1\n  tag_2\n  swap2\n  swap1\n  tag_3\n  jump\t// in\ntag_2:\n    /* \"Script/MiningQuestShop.sol\":1439:1449  msg.sender */\n  caller\n    /* \"@openzeppelin/contracts/access/Ownable.sol\":1297:1298  0 */\n  0x00\n    /* \"@openzeppelin/contracts/access/Ownable.sol\":1273:1299  initialOwner == address(0) */\n  0xffffffffffffffffffffffffffffffffffffffff\n  and\n    /* \"@openzeppelin/contracts/access/Ownable.sol\":1273:1285  initialOwner */\n  dup2\n    /* \"@openzeppelin/contracts/access/Ownable.sol\":1273:1299  initialOwner == address(0) */\n  0xffffffffffffffffffffffffffffffffffffffff\n  and\n  sub\n    /* \"@openzeppelin/contracts/access/Ownable.sol\":1269:1364  if (initialOwner == address(0)) {... */\n  tag_8\n  jumpi\n    /* \"@openzeppelin/contracts/access/Ownable.sol\":1350:1351  0 */\n  0x00\n    /* \"@openzeppelin/contracts/access/Ownable.sol\":1322:1353  OwnableInvalidOwner(address(0)) */\n  mload(0x40)\n  0x1e4fbdf700000000000000000000000000000000000000000000000000000000\n  dup2\n  mstore\n  0x04\n  add\n  tag_9\n  swap2\n  swap1\n  tag_10\n  jump\t// in\ntag_9:\n  mload(0x40)\n  dup1\n  swap2\n  sub\n  swap1\n  revert\n    /* \"@openzeppelin/contracts/access/Ownable.sol\":1269:1364  if (initialOwner == address(0)) {... */\ntag_8:\n    /* \"@openzeppelin/contracts/access/Ownable.sol\":1373:1405  _transferOwnership(initialOwner) */\n  tag_11\n    /* \"@openzeppelin/contracts/access/Ownable.sol\":1392:1404  initialOwner */\n  dup2\n    /* \"@openzeppelin/contracts/access/Ownable.sol\":1373:1391  _transferOwnership */\n  shl(0x20, tag_12)\n    /* \"@openzeppelin/contracts/access/Ownable.sol\":1373:1405  _transferOwnership(initialOwner) */\n  0x20\n  shr\n  jump\t// in\ntag_11:\n    /* \"@openzeppelin/contracts/access/Ownable.sol\":1225:1412  constructor(address initialOwner) {... */\n  pop\n    /* \"@openzeppelin/contracts/utils/ReentrancyGuard.sol\":1857:1858  1 */\n  0x01\n    /* \"@openzeppelin/contracts/utils/ReentrancyGuard.sol\":2061:2068  _status */\n  dup1\n    /* \"@openzeppelin/contracts/utils/ReentrancyGuard.sol\":2061:2082  _status = NOT_ENTERED */\n  dup2\n  swap1\n  sstore\n  pop\n    /* \"Script/MiningQuestShop.sol\":1491:1492  0 */\n  0x00\n    /* \"Script/MiningQuestShop.sol\":1470:1493  _chhToken != address(0) */\n  0xffffffffffffffffffffffffffffffffffffffff\n  and\n    /* \"Script/MiningQuestShop.sol\":1470:1479  _chhToken */\n  dup3\n    /* \"Script/MiningQuestShop.sol\":1470:1493  _chhToken != address(0) */\n  0xffffffffffffffffffffffffffffffffffffffff\n  and\n  sub\n    /* \"Script/MiningQuestShop.sol\":1462:1519  require(_chhToken != address(0), \"Invalid token address\") */\n  tag_15\n  jumpi\n  mload(0x40)\n  0x08c379a000000000000000000000000000000000000000000000000000000000\n  dup2\n  mstore\n  0x04\n  add\n  tag_16\n  swap1\n  tag_17\n  jump\t// in\ntag_16:\n  mload(0x40)\n  dup1\n  swap2\n  sub\n  swap1\n  revert\ntag_15:\n    /* \"Script/MiningQuestShop.sol\":1559:1560  0 */\n  0x00\n    /* \"Script/MiningQuestShop.sol\":1538:1561  _treasury != address(0) */\n  0xffffffffffffffffffffffffffffffffffffffff\n  and\n    /* \"Script/MiningQuestShop.sol\":1538:1547  _treasury */\n  dup2\n    /* \"Script/MiningQuestShop.sol\":1538:1561  _treasury != address(0) */\n  0xffffffffffffffffffffffffffffffffffffffff\n  and\n  sub\n    /* \"Script/MiningQuestShop.sol\":1530:1590  require(_treasury != address(0), \"Invalid treasury address\") */\n  tag_18\n  jumpi\n  mload(0x40)\n  0x08c379a000000000000000000000000000000000000000000000000000000000\n  dup2\n  mstore\n  0x04\n  add\n  tag_19\n  swap1\n  tag_20\n  jump\t// in\ntag_19:\n  mload(0x40)\n  dup1\n  swap2\n  sub\n  swap1\n  revert\ntag_18:\n    /* \"Script/MiningQuestShop.sol\":1619:1628  _chhToken */\n  dup2\n    /* \"Script/MiningQuestShop.sol\":1601:1609  chhToken */\n  0x02\n  0x00\n    /* \"Script/MiningQuestShop.sol\":1601:1629  chhToken = IERC20(_chhToken) */\n  0x0100\n  exp\n  dup2\n  sload\n  dup2\n  0xffffffffffffffffffffffffffffffffffffffff\n  mul\n  not\n  and\n  swap1\n  dup4\n  0xffffffffffffffffffffffffffffffffffffffff\n  and\n  mul\n  or\n  swap1\n  sstore\n  pop\n    /* \"Script/MiningQuestShop.sol\":1651:1660  _treasury */\n  dup1\n    /* \"Script/MiningQuestShop.sol\":1640:1648  treasury */\n  0x03\n  0x00\n    /* \"Script/MiningQuestShop.sol\":1640:1660  treasury = _treasury */\n  0x0100\n  exp\n  dup2\n  sload\n  dup2\n  0xffffffffffffffffffffffffffffffffffffffff\n  mul\n  not\n  and\n  swap1\n  dup4\n  0xffffffffffffffffffffffffffffffffffffffff\n  and\n  mul\n  or\n  swap1\n  sstore\n  pop\n    /* \"Script/MiningQuestShop.sol\":1381:1668  constructor(address _chhToken, address _treasury) Ownable(msg.sender) {... */\n  pop\n  pop\n    /* \"Script/MiningQuestShop.sol\":447:3450  contract ItemShop is Ownable, ReentrancyGuard {... */\n  jump(tag_21)\n    /* \"@openzeppelin/contracts/access/Ownable.sol\":2912:3099  function _transferOwnership(address newOwner) internal virtual {... */\ntag_12:\n    /* \"@openzeppelin/contracts/access/Ownable.sol\":2985:3001  address oldOwner */\n  0x00\n    /* \"@openzeppelin/contracts/access/Ownable.sol\":3004:3010  _owner */\n  0x00\n  0x00\n  swap1\n  sload\n  swap1\n  0x0100\n  exp\n  swap1\n  div\n  0xffffffffffffffffffffffffffffffffffffffff\n  and\n    /* \"@openzeppelin/contracts/access/Ownable.sol\":2985:3010  address oldOwner = _owner */\n  swap1\n  pop\n    /* \"@openzeppelin/contracts/access/Ownable.sol\":3029:3037  newOwner */\n  dup2\n    /* \"@openzeppelin/contracts/access/Ownable.sol\":3020:3026  _owner */\n  0x00\n  0x00\n    /* \"@openzeppelin/contracts/access/Ownable.sol\":3020:3037  _owner = newOwner */\n  0x0100\n  exp\n  dup2\n  sload\n  dup2\n  0xffffffffffffffffffffffffffffffffffffffff\n  mul\n  not\n  and\n  swap1\n  dup4\n  0xffffffffffffffffffffffffffffffffffffffff\n  and\n  mul\n  or\n  swap1\n  sstore\n  pop\n    /* \"@openzeppelin/contracts/access/Ownable.sol\":3083:3091  newOwner */\n  dup2\n    /* \"@openzeppelin/contracts/access/Ownable.sol\":3052:3092  OwnershipTransferred(oldOwner, newOwner) */\n  0xffffffffffffffffffffffffffffffffffffffff\n  and\n    /* \"@openzeppelin/contracts/access/Ownable.sol\":3073:3081  oldOwner */\n  dup2\n    /* \"@openzeppelin/contracts/access/Ownable.sol\":3052:3092  OwnershipTransferred(oldOwner, newOwner) */\n  0xffffffffffffffffffffffffffffffffffffffff\n  and\n  0x8be0079c531659141344cd1fd0a4f28419497f9722a3daafe3b4186f6b6457e0\n  mload(0x40)\n  mload(0x40)\n  dup1\n  swap2\n  sub\n  swap1\n  log3\n    /* \"@openzeppelin/contracts/access/Ownable.sol\":2975:3099  {... */\n  pop\n    /* \"@openzeppelin/contracts/access/Ownable.sol\":2912:3099  function _transferOwnership(address newOwner) internal virtual {... */\n  pop\n  jump\t// out\n    /* \"#utility.yul\":88:205   */\ntag_24:\n    /* \"#utility.yul\":197:198   */\n  0x00\n    /* \"#utility.yul\":194:195   */\n  0x00\n    /* \"#utility.yul\":187:199   */\n  revert\n    /* \"#utility.yul\":334:460   */\ntag_26:\n    /* \"#utility.yul\":371:378   */\n  0x00\n    /* \"#utility.yul\":411:453   */\n  0xffffffffffffffffffffffffffffffffffffffff\n    /* \"#utility.yul\":404:409   */\n  dup3\n    /* \"#utility.yul\":400:454   */\n  and\n    /* \"#utility.yul\":389:454   */\n  swap1\n  pop\n    /* \"#utility.yul\":334:460   */\n  swap2\n  swap1\n  pop\n  jump\t// out\n    /* \"#utility.yul\":466:562   */\ntag_27:\n    /* \"#utility.yul\":503:510   */\n  0x00\n    /* \"#utility.yul\":532:556   */\n  tag_42\n    /* \"#utility.yul\":550:555   */\n  dup3\n    /* \"#utility.yul\":532:556   */\n  tag_26\n  jump\t// in\ntag_42:\n    /* \"#utility.yul\":521:556   */\n  swap1\n  pop\n    /* \"#utility.yul\":466:562   */\n  swap2\n  swap1\n  pop\n  jump\t// out\n    /* \"#utility.yul\":568:690   */\ntag_28:\n    /* \"#utility.yul\":641:665   */\n  tag_44\n    /* \"#utility.yul\":659:664   */\n  dup2\n    /* \"#utility.yul\":641:665   */\n  tag_27\n  jump\t// in\ntag_44:\n    /* \"#utility.yul\":634:639   */\n  dup2\n    /* \"#utility.yul\":631:666   */\n  eq\n    /* \"#utility.yul\":621:684   */\n  tag_45\n  jumpi\n    /* \"#utility.yul\":680:681   */\n  0x00\n    /* \"#utility.yul\":677:678   */\n  0x00\n    /* \"#utility.yul\":670:682   */\n  revert\n    /* \"#utility.yul\":621:684   */\ntag_45:\n    /* \"#utility.yul\":568:690   */\n  pop\n  jump\t// out\n    /* \"#utility.yul\":696:839   */\ntag_29:\n    /* \"#utility.yul\":753:758   */\n  0x00\n    /* \"#utility.yul\":784:790   */\n  dup2\n    /* \"#utility.yul\":778:791   */\n  mload\n    /* \"#utility.yul\":769:791   */\n  swap1\n  pop\n    /* \"#utility.yul\":800:833   */\n  tag_47\n    /* \"#utility.yul\":827:832   */\n  dup2\n    /* \"#utility.yul\":800:833   */\n  tag_28\n  jump\t// in\ntag_47:\n    /* \"#utility.yul\":696:839   */\n  swap3\n  swap2\n  pop\n  pop\n  jump\t// out\n    /* \"#utility.yul\":845:1352   */\ntag_3:\n    /* \"#utility.yul\":924:930   */\n  0x00\n    /* \"#utility.yul\":932:938   */\n  0x00\n    /* \"#utility.yul\":981:983   */\n  0x40\n    /* \"#utility.yul\":969:978   */\n  dup4\n    /* \"#utility.yul\":960:967   */\n  dup6\n    /* \"#utility.yul\":956:979   */\n  sub\n    /* \"#utility.yul\":952:984   */\n  slt\n    /* \"#utility.yul\":949:1068   */\n  iszero\n  tag_49\n  jumpi\n    /* \"#utility.yul\":987:1066   */\n  tag_50\n  tag_24\n  jump\t// in\ntag_50:\n    /* \"#utility.yul\":949:1068   */\ntag_49:\n    /* \"#utility.yul\":1107:1108   */\n  0x00\n    /* \"#utility.yul\":1132:1196   */\n  tag_51\n    /* \"#utility.yul\":1188:1195   */\n  dup6\n    /* \"#utility.yul\":1179:1185   */\n  dup3\n    /* \"#utility.yul\":1168:1177   */\n  dup7\n    /* \"#utility.yul\":1164:1186   */\n  add\n    /* \"#utility.yul\":1132:1196   */\n  tag_29\n  jump\t// in\ntag_51:\n    /* \"#utility.yul\":1122:1196   */\n  swap3\n  pop\n    /* \"#utility.yul\":1078:1206   */\n  pop\n    /* \"#utility.yul\":1245:1247   */\n  0x20\n    /* \"#utility.yul\":1271:1335   */\n  tag_52\n    /* \"#utility.yul\":1327:1334   */\n  dup6\n    /* \"#utility.yul\":1318:1324   */\n  dup3\n    /* \"#utility.yul\":1307:1316   */\n  dup7\n    /* \"#utility.yul\":1303:1325   */\n  add\n    /* \"#utility.yul\":1271:1335   */\n  tag_29\n  jump\t// in\ntag_52:\n    /* \"#utility.yul\":1261:1335   */\n  swap2\n  pop\n    /* \"#utility.yul\":1216:1345   */\n  pop\n    /* \"#utility.yul\":845:1352   */\n  swap3\n  pop\n  swap3\n  swap1\n  pop\n  jump\t// out\n    /* \"#utility.yul\":1358:1476   */\ntag_30:\n    /* \"#utility.yul\":1445:1469   */\n  tag_54\n    /* \"#utility.yul\":1463:1468   */\n  dup2\n    /* \"#utility.yul\":1445:1469   */\n  tag_27\n  jump\t// in\ntag_54:\n    /* \"#utility.yul\":1440:1443   */\n  dup3\n    /* \"#utility.yul\":1433:1470   */\n  mstore\n    /* \"#utility.yul\":1358:1476   */\n  pop\n  pop\n  jump\t// out\n    /* \"#utility.yul\":1482:1704   */\ntag_10:\n    /* \"#utility.yul\":1575:1579   */\n  0x00\n    /* \"#utility.yul\":1613:1615   */\n  0x20\n    /* \"#utility.yul\":1602:1611   */\n  dup3\n    /* \"#utility.yul\":1598:1616   */\n  add\n    /* \"#utility.yul\":1590:1616   */\n  swap1\n  pop\n    /* \"#utility.yul\":1626:1697   */\n  tag_56\n    /* \"#utility.yul\":1694:1695   */\n  0x00\n    /* \"#utility.yul\":1683:1692   */\n  dup4\n    /* \"#utility.yul\":1679:1696   */\n  add\n    /* \"#utility.yul\":1670:1676   */\n  dup5\n    /* \"#utility.yul\":1626:1697   */\n  tag_30\n  jump\t// in\ntag_56:\n    /* \"#utility.yul\":1482:1704   */\n  swap3\n  swap2\n  pop\n  pop\n  jump\t// out\n    /* \"#utility.yul\":1710:1879   */\ntag_31:\n    /* \"#utility.yul\":1794:1805   */\n  0x00\n    /* \"#utility.yul\":1828:1834   */\n  dup3\n    /* \"#utility.yul\":1823:1826   */\n  dup3\n    /* \"#utility.yul\":1816:1835   */\n  mstore\n    /* \"#utility.yul\":1868:1872   */\n  0x20\n    /* \"#utility.yul\":1863:1866   */\n  dup3\n    /* \"#utility.yul\":1859:1873   */\n  add\n    /* \"#utility.yul\":1844:1873   */\n  swap1\n  pop\n    /* \"#utility.yul\":1710:1879   */\n  swap3\n  swap2\n  pop\n  pop\n  jump\t// out\n    /* \"#utility.yul\":1885:2056   */\ntag_32:\n    /* \"#utility.yul\":2025:2048   */\n  0x496e76616c696420746f6b656e20616464726573730000000000000000000000\n    /* \"#utility.yul\":2021:2022   */\n  0x00\n    /* \"#utility.yul\":2013:2019   */\n  dup3\n    /* \"#utility.yul\":2009:2023   */\n  add\n    /* \"#utility.yul\":2002:2049   */\n  mstore\n    /* \"#utility.yul\":1885:2056   */\n  pop\n  jump\t// out\n    /* \"#utility.yul\":2062:2428   */\ntag_33:\n    /* \"#utility.yul\":2204:2207   */\n  0x00\n    /* \"#utility.yul\":2225:2292   */\n  tag_60\n    /* \"#utility.yul\":2289:2291   */\n  0x15\n    /* \"#utility.yul\":2284:2287   */\n  dup4\n    /* \"#utility.yul\":2225:2292   */\n  tag_31\n  jump\t// in\ntag_60:\n    /* \"#utility.yul\":2218:2292   */\n  swap2\n  pop\n    /* \"#utility.yul\":2301:2394   */\n  tag_61\n    /* \"#utility.yul\":2390:2393   */\n  dup3\n    /* \"#utility.yul\":2301:2394   */\n  tag_32\n  jump\t// in\ntag_61:\n    /* \"#utility.yul\":2419:2421   */\n  0x20\n    /* \"#utility.yul\":2414:2417   */\n  dup3\n    /* \"#utility.yul\":2410:2422   */\n  add\n    /* \"#utility.yul\":2403:2422   */\n  swap1\n  pop\n    /* \"#utility.yul\":2062:2428   */\n  swap2\n  swap1\n  pop\n  jump\t// out\n    /* \"#utility.yul\":2434:2853   */\ntag_17:\n    /* \"#utility.yul\":2600:2604   */\n  0x00\n    /* \"#utility.yul\":2638:2640   */\n  0x20\n    /* \"#utility.yul\":2627:2636   */\n  dup3\n    /* \"#utility.yul\":2623:2641   */\n  add\n    /* \"#utility.yul\":2615:2641   */\n  swap1\n  pop\n    /* \"#utility.yul\":2687:2696   */\n  dup2\n    /* \"#utility.yul\":2681:2685   */\n  dup2\n    /* \"#utility.yul\":2677:2697   */\n  sub\n    /* \"#utility.yul\":2673:2674   */\n  0x00\n    /* \"#utility.yul\":2662:2671   */\n  dup4\n    /* \"#utility.yul\":2658:2675   */\n  add\n    /* \"#utility.yul\":2651:2698   */\n  mstore\n    /* \"#utility.yul\":2715:2846   */\n  tag_63\n    /* \"#utility.yul\":2841:2845   */\n  dup2\n    /* \"#utility.yul\":2715:2846   */\n  tag_33\n  jump\t// in\ntag_63:\n    /* \"#utility.yul\":2707:2846   */\n  swap1\n  pop\n    /* \"#utility.yul\":2434:2853   */\n  swap2\n  swap1\n  pop\n  jump\t// out\n    /* \"#utility.yul\":2859:3033   */\ntag_34:\n    /* \"#utility.yul\":2999:3025   */\n  0x496e76616c696420747265617375727920616464726573730000000000000000\n    /* \"#utility.yul\":2995:2996   */\n  0x00\n    /* \"#utility.yul\":2987:2993   */\n  dup3\n    /* \"#utility.yul\":2983:2997   */\n  add\n    /* \"#utility.yul\":2976:3026   */\n  mstore\n    /* \"#utility.yul\":2859:3033   */\n  pop\n  jump\t// out\n    /* \"#utility.yul\":3039:3405   */\ntag_35:\n    /* \"#utility.yul\":3181:3184   */\n  0x00\n    /* \"#utility.yul\":3202:3269   */\n  tag_66\n    /* \"#utility.yul\":3266:3268   */\n  0x18\n    /* \"#utility.yul\":3261:3264   */\n  dup4\n    /* \"#utility.yul\":3202:3269   */\n  tag_31\n  jump\t// in\ntag_66:\n    /* \"#utility.yul\":3195:3269   */\n  swap2\n  pop\n    /* \"#utility.yul\":3278:3371   */\n  tag_67\n    /* \"#utility.yul\":3367:3370   */\n  dup3\n    /* \"#utility.yul\":3278:3371   */\n  tag_34\n  jump\t// in\ntag_67:\n    /* \"#utility.yul\":3396:3398   */\n  0x20\n    /* \"#utility.yul\":3391:3394   */\n  dup3\n    /* \"#utility.yul\":3387:3399   */\n  add\n    /* \"#utility.yul\":3380:3399   */\n  swap1\n  pop\n    /* \"#utility.yul\":3039:3405   */\n  swap2\n  swap1\n  pop\n  jump\t// out\n    /* \"#utility.yul\":3411:3830   */\ntag_20:\n    /* \"#utility.yul\":3577:3581   */\n  0x00\n    /* \"#utility.yul\":3615:3617   */\n  0x20\n    /* \"#utility.yul\":3604:3613   */\n  dup3\n    /* \"#utility.yul\":3600:3618   */\n  add\n    /* \"#utility.yul\":3592:3618   */\n  swap1\n  pop\n    /* \"#utility.yul\":3664:3673   */\n  dup2\n    /* \"#utility.yul\":3658:3662   */\n  dup2\n    /* \"#utility.yul\":3654:3674   */\n  sub\n    /* \"#utility.yul\":3650:3651   */\n  0x00\n    /* \"#utility.yul\":3639:3648   */\n  dup4\n    /* \"#utility.yul\":3635:3652   */\n  add\n    /* \"#utility.yul\":3628:3675   */\n  mstore\n    /* \"#utility.yul\":3692:3823   */\n  tag_69\n    /* \"#utility.yul\":3818:3822   */\n  dup2\n    /* \"#utility.yul\":3692:3823   */\n  tag_35\n  jump\t// in\ntag_69:\n    /* \"#utility.yul\":3684:3823   */\n  swap1\n  pop\n    /* \"#utility.yul\":3411:3830   */\n  swap2\n  swap1\n  pop\n  jump\t// out\n    /* \"Script/MiningQuestShop.sol\":447:3450  contract ItemShop is Ownable, ReentrancyGuard {... */\ntag_21:\n  dataSize(sub_0)\n  dup1\n  dataOffset(sub_0)\n  0x00\n  codecopy\n  0x00\n  return\nstop\n\nsub_0: assembly {\n        /* \"Script/MiningQuestShop.sol\":447:3450  contract ItemShop is Ownable, ReentrancyGuard {... */\n      mstore(0x40, 0x80)\n      callvalue\n      dup1\n      iszero\n      tag_1\n      jumpi\n      revert(0x00, 0x00)\n    tag_1:\n      pop\n      jumpi(tag_2, lt(calldatasize, 0x04))\n      shr(0xe0, calldataload(0x00))\n      dup1\n      0x8455d8d5\n      gt\n      tag_13\n      jumpi\n      dup1\n      0x8455d8d5\n      eq\n      tag_8\n      jumpi\n      dup1\n      0x8da5cb5b\n      eq\n      tag_9\n      jumpi\n      dup1\n      0xac6510be\n      eq\n      tag_10\n      jumpi\n      dup1\n      0xf0f44260\n      eq\n      tag_11\n      jumpi\n      dup1\n      0xf2fde38b\n      eq\n      tag_12\n      jumpi\n      jump(tag_2)\n    tag_13:\n      dup1\n      0x05fefda7\n      eq\n      tag_3\n      jumpi\n      dup1\n      0x0abc747c\n      eq\n      tag_4\n      jumpi\n      dup1\n      0x21d7dc3d\n      eq\n      tag_5\n      jumpi\n      dup1\n      0x61d027b3\n      eq\n      tag_6\n      jumpi\n      dup1\n      0x715018a6\n      eq\n      tag_7\n      jumpi\n    tag_2:\n      revert(0x00, 0x00)\n        /* \"Script/MiningQuestShop.sol\":2823:3044  function setPrices(uint256 _potionPrice, uint256 _elixirPrice) external onlyOwner {... */\n    tag_3:\n      tag_14\n      0x04\n      dup1\n      calldatasize\n      sub\n      dup2\n      add\n      swap1\n      tag_15\n      swap2\n      swap1\n      tag_16\n      jump\t// in\n    tag_15:\n      tag_17\n      jump\t// in\n    tag_14:\n      stop\n        /* \"Script/MiningQuestShop.sol\":820:861  uint256 public elixirPrice = 500 * 10**18 */\n    tag_4:\n      tag_18\n      tag_19\n      jump\t// in\n    tag_18:\n      mload(0x40)\n      tag_20\n      swap2\n      swap1\n      tag_21\n      jump\t// in\n    tag_20:\n      mload(0x40)\n      dup1\n      swap2\n      sub\n      swap1\n      return\n        /* \"Script/MiningQuestShop.sol\":1865:2581  function buyItems(uint256 potionAmount, uint256 elixirAmount) external nonReentrant {... */\n    tag_5:\n      tag_22\n      0x04\n      dup1\n      calldatasize\n      sub\n      dup2\n      add\n      swap1\n      tag_23\n      swap2\n      swap1\n      tag_16\n      jump\t// in\n    tag_23:\n      tag_24\n      jump\t// in\n    tag_22:\n      stop\n        /* \"Script/MiningQuestShop.sol\":675:698  address public treasury */\n    tag_6:\n      tag_25\n      tag_26\n      jump\t// in\n    tag_25:\n      mload(0x40)\n      tag_27\n      swap2\n      swap1\n      tag_28\n      jump\t// in\n    tag_27:\n      mload(0x40)\n      dup1\n      swap2\n      sub\n      swap1\n      return\n        /* \"@openzeppelin/contracts/access/Ownable.sol\":2293:2394  function renounceOwnership() public virtual onlyOwner {... */\n    tag_7:\n      tag_29\n      tag_30\n      jump\t// in\n    tag_29:\n      stop\n        /* \"Script/MiningQuestShop.sol\":589:611  IERC20 public chhToken */\n    tag_8:\n      tag_31\n      tag_32\n      jump\t// in\n    tag_31:\n      mload(0x40)\n      tag_33\n      swap2\n      swap1\n      tag_34\n      jump\t// in\n    tag_33:\n      mload(0x40)\n      dup1\n      swap2\n      sub\n      swap1\n      return\n        /* \"@openzeppelin/contracts/access/Ownable.sol\":1638:1723  function owner() public view virtual returns (address) {... */\n    tag_9:\n      tag_35\n      tag_36\n      jump\t// in\n    tag_35:\n      mload(0x40)\n      tag_37\n      swap2\n      swap1\n      tag_28\n      jump\t// in\n    tag_37:\n      mload(0x40)\n      dup1\n      swap2\n      sub\n      swap1\n      return\n        /* \"Script/MiningQuestShop.sol\":760:801  uint256 public potionPrice = 100 * 10**18 */\n    tag_10:\n      tag_38\n      tag_39\n      jump\t// in\n    tag_38:\n      mload(0x40)\n      tag_40\n      swap2\n      swap1\n      tag_21\n      jump\t// in\n    tag_40:\n      mload(0x40)\n      dup1\n      swap2\n      sub\n      swap1\n      return\n        /* \"Script/MiningQuestShop.sol\":3236:3447  function setTreasury(address _treasury) external onlyOwner {... */\n    tag_11:\n      tag_41\n      0x04\n      dup1\n      calldatasize\n      sub\n      dup2\n      add\n      swap1\n      tag_42\n      swap2\n      swap1\n      tag_43\n      jump\t// in\n    tag_42:\n      tag_44\n      jump\t// in\n    tag_41:\n      stop\n        /* \"@openzeppelin/contracts/access/Ownable.sol\":2543:2758  function transferOwnership(address newOwner) public virtual onlyOwner {... */\n    tag_12:\n      tag_45\n      0x04\n      dup1\n      calldatasize\n      sub\n      dup2\n      add\n      swap1\n      tag_46\n      swap2\n      swap1\n      tag_43\n      jump\t// in\n    tag_46:\n      tag_47\n      jump\t// in\n    tag_45:\n      stop\n        /* \"Script/MiningQuestShop.sol\":2823:3044  function setPrices(uint256 _potionPrice, uint256 _elixirPrice) external onlyOwner {... */\n    tag_17:\n        /* \"@openzeppelin/contracts/access/Ownable.sol\":1531:1544  _checkOwner() */\n      tag_49\n        /* \"@openzeppelin/contracts/access/Ownable.sol\":1531:1542  _checkOwner */\n      tag_50\n        /* \"@openzeppelin/contracts/access/Ownable.sol\":1531:1544  _checkOwner() */\n      jump\t// in\n    tag_49:\n        /* \"Script/MiningQuestShop.sol\":2930:2942  _potionPrice */\n      dup2\n        /* \"Script/MiningQuestShop.sol\":2916:2927  potionPrice */\n      0x04\n        /* \"Script/MiningQuestShop.sol\":2916:2942  potionPrice = _potionPrice */\n      dup2\n      swap1\n      sstore\n      pop\n        /* \"Script/MiningQuestShop.sol\":2967:2979  _elixirPrice */\n      dup1\n        /* \"Script/MiningQuestShop.sol\":2953:2964  elixirPrice */\n      0x05\n        /* \"Script/MiningQuestShop.sol\":2953:2979  elixirPrice = _elixirPrice */\n      dup2\n      swap1\n      sstore\n      pop\n        /* \"Script/MiningQuestShop.sol\":2995:3036  PricesUpdated(_potionPrice, _elixirPrice) */\n      0x6546f60f34df611fa42503098acc39d5ab88bc73febe64b3cc14e5a92e3a66a7\n        /* \"Script/MiningQuestShop.sol\":3009:3021  _potionPrice */\n      dup3\n        /* \"Script/MiningQuestShop.sol\":3023:3035  _elixirPrice */\n      dup3\n        /* \"Script/MiningQuestShop.sol\":2995:3036  PricesUpdated(_potionPrice, _elixirPrice) */\n      mload(0x40)\n      tag_52\n      swap3\n      swap2\n      swap1\n      tag_53\n      jump\t// in\n    tag_52:\n      mload(0x40)\n      dup1\n      swap2\n      sub\n      swap1\n      log1\n        /* \"Script/MiningQuestShop.sol\":2823:3044  function setPrices(uint256 _potionPrice, uint256 _elixirPrice) external onlyOwner {... */\n      pop\n      pop\n      jump\t// out\n        /* \"Script/MiningQuestShop.sol\":820:861  uint256 public elixirPrice = 500 * 10**18 */\n    tag_19:\n      sload(0x05)\n      dup2\n      jump\t// out\n        /* \"Script/MiningQuestShop.sol\":1865:2581  function buyItems(uint256 potionAmount, uint256 elixirAmount) external nonReentrant {... */\n    tag_24:\n        /* \"@openzeppelin/contracts/utils/ReentrancyGuard.sol\":2500:2521  _nonReentrantBefore() */\n      tag_55\n        /* \"@openzeppelin/contracts/utils/ReentrancyGuard.sol\":2500:2519  _nonReentrantBefore */\n      tag_56\n        /* \"@openzeppelin/contracts/utils/ReentrancyGuard.sol\":2500:2521  _nonReentrantBefore() */\n      jump\t// in\n    tag_55:\n        /* \"Script/MiningQuestShop.sol\":1983:1984  0 */\n      0x00\n        /* \"Script/MiningQuestShop.sol\":1968:1980  potionAmount */\n      dup3\n        /* \"Script/MiningQuestShop.sol\":1968:1984  potionAmount > 0 */\n      gt\n        /* \"Script/MiningQuestShop.sol\":1968:2004  potionAmount > 0 || elixirAmount > 0 */\n      dup1\n      tag_58\n      jumpi\n      pop\n        /* \"Script/MiningQuestShop.sol\":2003:2004  0 */\n      0x00\n        /* \"Script/MiningQuestShop.sol\":1988:2000  elixirAmount */\n      dup2\n        /* \"Script/MiningQuestShop.sol\":1988:2004  elixirAmount > 0 */\n      gt\n        /* \"Script/MiningQuestShop.sol\":1968:2004  potionAmount > 0 || elixirAmount > 0 */\n    tag_58:\n        /* \"Script/MiningQuestShop.sol\":1960:2035  require(potionAmount > 0 || elixirAmount > 0, \"Must buy at least one item\") */\n      tag_59\n      jumpi\n      mload(0x40)\n      0x08c379a000000000000000000000000000000000000000000000000000000000\n      dup2\n      mstore\n      0x04\n      add\n      tag_60\n      swap1\n      tag_61\n      jump\t// in\n    tag_60:\n      mload(0x40)\n      dup1\n      swap2\n      sub\n      swap1\n      revert\n    tag_59:\n        /* \"Script/MiningQuestShop.sol\":2085:2102  uint256 totalCost */\n      0x00\n        /* \"Script/MiningQuestShop.sol\":2152:2163  elixirPrice */\n      sload(0x05)\n        /* \"Script/MiningQuestShop.sol\":2137:2149  elixirAmount */\n      dup3\n        /* \"Script/MiningQuestShop.sol\":2137:2163  elixirAmount * elixirPrice */\n      tag_62\n      swap2\n      swap1\n      tag_63\n      jump\t// in\n    tag_62:\n        /* \"Script/MiningQuestShop.sol\":2121:2132  potionPrice */\n      sload(0x04)\n        /* \"Script/MiningQuestShop.sol\":2106:2118  potionAmount */\n      dup5\n        /* \"Script/MiningQuestShop.sol\":2106:2132  potionAmount * potionPrice */\n      tag_64\n      swap2\n      swap1\n      tag_63\n      jump\t// in\n    tag_64:\n        /* \"Script/MiningQuestShop.sol\":2105:2164  (potionAmount * potionPrice) + (elixirAmount * elixirPrice) */\n      tag_65\n      swap2\n      swap1\n      tag_66\n      jump\t// in\n    tag_65:\n        /* \"Script/MiningQuestShop.sol\":2085:2164  uint256 totalCost = (potionAmount * potionPrice) + (elixirAmount * elixirPrice) */\n      swap1\n      pop\n        /* \"Script/MiningQuestShop.sol\":2392:2450  chhToken.safeTransferFrom(msg.sender, treasury, totalCost) */\n      tag_67\n        /* \"Script/MiningQuestShop.sol\":2418:2428  msg.sender */\n      caller\n        /* \"Script/MiningQuestShop.sol\":2430:2438  treasury */\n      0x03\n      0x00\n      swap1\n      sload\n      swap1\n      0x0100\n      exp\n      swap1\n      div\n      0xffffffffffffffffffffffffffffffffffffffff\n      and\n        /* \"Script/MiningQuestShop.sol\":2440:2449  totalCost */\n      dup4\n        /* \"Script/MiningQuestShop.sol\":2392:2400  chhToken */\n      0x02\n      0x00\n      swap1\n      sload\n      swap1\n      0x0100\n      exp\n      swap1\n      div\n      0xffffffffffffffffffffffffffffffffffffffff\n      and\n        /* \"Script/MiningQuestShop.sol\":2392:2417  chhToken.safeTransferFrom */\n      0xffffffffffffffffffffffffffffffffffffffff\n      and\n      tag_68\n      swap1\n        /* \"Script/MiningQuestShop.sol\":2392:2450  chhToken.safeTransferFrom(msg.sender, treasury, totalCost) */\n      swap4\n      swap3\n      swap2\n      swap1\n      0xffffffff\n      and\n      jump\t// in\n    tag_67:\n        /* \"Script/MiningQuestShop.sol\":2523:2533  msg.sender */\n      caller\n        /* \"Script/MiningQuestShop.sol\":2508:2573  ItemsPurchased(msg.sender, potionAmount, elixirAmount, totalCost) */\n      0xffffffffffffffffffffffffffffffffffffffff\n      and\n      0x9d357202c083ccb2d1379a9af250503bb1cda8e0402c1093fab74b83dd8af89b\n        /* \"Script/MiningQuestShop.sol\":2535:2547  potionAmount */\n      dup5\n        /* \"Script/MiningQuestShop.sol\":2549:2561  elixirAmount */\n      dup5\n        /* \"Script/MiningQuestShop.sol\":2563:2572  totalCost */\n      dup5\n        /* \"Script/MiningQuestShop.sol\":2508:2573  ItemsPurchased(msg.sender, potionAmount, elixirAmount, totalCost) */\n      mload(0x40)\n      tag_69\n      swap4\n      swap3\n      swap2\n      swap1\n      tag_70\n      jump\t// in\n    tag_69:\n      mload(0x40)\n      dup1\n      swap2\n      sub\n      swap1\n      log2\n        /* \"Script/MiningQuestShop.sol\":1949:2581  {... */\n      pop\n        /* \"@openzeppelin/contracts/utils/ReentrancyGuard.sol\":2542:2562  _nonReentrantAfter() */\n      tag_71\n        /* \"@openzeppelin/contracts/utils/ReentrancyGuard.sol\":2542:2560  _nonReentrantAfter */\n      tag_72\n        /* \"@openzeppelin/contracts/utils/ReentrancyGuard.sol\":2542:2562  _nonReentrantAfter() */\n      jump\t// in\n    tag_71:\n        /* \"Script/MiningQuestShop.sol\":1865:2581  function buyItems(uint256 potionAmount, uint256 elixirAmount) external nonReentrant {... */\n      pop\n      pop\n      jump\t// out\n        /* \"Script/MiningQuestShop.sol\":675:698  address public treasury */\n    tag_26:\n      0x03\n      0x00\n      swap1\n      sload\n      swap1\n      0x0100\n      exp\n      swap1\n      div\n      0xffffffffffffffffffffffffffffffffffffffff\n      and\n      dup2\n      jump\t// out\n        /* \"@openzeppelin/contracts/access/Ownable.sol\":2293:2394  function renounceOwnership() public virtual onlyOwner {... */\n    tag_30:\n        /* \"@openzeppelin/contracts/access/Ownable.sol\":1531:1544  _checkOwner() */\n      tag_74\n        /* \"@openzeppelin/contracts/access/Ownable.sol\":1531:1542  _checkOwner */\n      tag_50\n        /* \"@openzeppelin/contracts/access/Ownable.sol\":1531:1544  _checkOwner() */\n      jump\t// in\n    tag_74:\n        /* \"@openzeppelin/contracts/access/Ownable.sol\":2357:2387  _transferOwnership(address(0)) */\n      tag_76\n        /* \"@openzeppelin/contracts/access/Ownable.sol\":2384:2385  0 */\n      0x00\n        /* \"@openzeppelin/contracts/access/Ownable.sol\":2357:2375  _transferOwnership */\n      tag_77\n        /* \"@openzeppelin/contracts/access/Ownable.sol\":2357:2387  _transferOwnership(address(0)) */\n      jump\t// in\n    tag_76:\n        /* \"@openzeppelin/contracts/access/Ownable.sol\":2293:2394  function renounceOwnership() public virtual onlyOwner {... */\n      jump\t// out\n        /* \"Script/MiningQuestShop.sol\":589:611  IERC20 public chhToken */\n    tag_32:\n      0x02\n      0x00\n      swap1\n      sload\n      swap1\n      0x0100\n      exp\n      swap1\n      div\n      0xffffffffffffffffffffffffffffffffffffffff\n      and\n      dup2\n      jump\t// out\n        /* \"@openzeppelin/contracts/access/Ownable.sol\":1638:1723  function owner() public view virtual returns (address) {... */\n    tag_36:\n        /* \"@openzeppelin/contracts/access/Ownable.sol\":1684:1691  address */\n      0x00\n        /* \"@openzeppelin/contracts/access/Ownable.sol\":1710:1716  _owner */\n      0x00\n      0x00\n      swap1\n      sload\n      swap1\n      0x0100\n      exp\n      swap1\n      div\n      0xffffffffffffffffffffffffffffffffffffffff\n      and\n        /* \"@openzeppelin/contracts/access/Ownable.sol\":1703:1716  return _owner */\n      swap1\n      pop\n        /* \"@openzeppelin/contracts/access/Ownable.sol\":1638:1723  function owner() public view virtual returns (address) {... */\n      swap1\n      jump\t// out\n        /* \"Script/MiningQuestShop.sol\":760:801  uint256 public potionPrice = 100 * 10**18 */\n    tag_39:\n      sload(0x04)\n      dup2\n      jump\t// out\n        /* \"Script/MiningQuestShop.sol\":3236:3447  function setTreasury(address _treasury) external onlyOwner {... */\n    tag_44:\n        /* \"@openzeppelin/contracts/access/Ownable.sol\":1531:1544  _checkOwner() */\n      tag_80\n        /* \"@openzeppelin/contracts/access/Ownable.sol\":1531:1542  _checkOwner */\n      tag_50\n        /* \"@openzeppelin/contracts/access/Ownable.sol\":1531:1544  _checkOwner() */\n      jump\t// in\n    tag_80:\n        /* \"Script/MiningQuestShop.sol\":3335:3336  0 */\n      0x00\n        /* \"Script/MiningQuestShop.sol\":3314:3337  _treasury != address(0) */\n      0xffffffffffffffffffffffffffffffffffffffff\n      and\n        /* \"Script/MiningQuestShop.sol\":3314:3323  _treasury */\n      dup2\n        /* \"Script/MiningQuestShop.sol\":3314:3337  _treasury != address(0) */\n      0xffffffffffffffffffffffffffffffffffffffff\n      and\n      sub\n        /* \"Script/MiningQuestShop.sol\":3306:3366  require(_treasury != address(0), \"Invalid treasury address\") */\n      tag_82\n      jumpi\n      mload(0x40)\n      0x08c379a000000000000000000000000000000000000000000000000000000000\n      dup2\n      mstore\n      0x04\n      add\n      tag_83\n      swap1\n      tag_84\n      jump\t// in\n    tag_83:\n      mload(0x40)\n      dup1\n      swap2\n      sub\n      swap1\n      revert\n    tag_82:\n        /* \"Script/MiningQuestShop.sol\":3388:3397  _treasury */\n      dup1\n        /* \"Script/MiningQuestShop.sol\":3377:3385  treasury */\n      0x03\n      0x00\n        /* \"Script/MiningQuestShop.sol\":3377:3397  treasury = _treasury */\n      0x0100\n      exp\n      dup2\n      sload\n      dup2\n      0xffffffffffffffffffffffffffffffffffffffff\n      mul\n      not\n      and\n      swap1\n      dup4\n      0xffffffffffffffffffffffffffffffffffffffff\n      and\n      mul\n      or\n      swap1\n      sstore\n      pop\n        /* \"Script/MiningQuestShop.sol\":3413:3439  TreasuryUpdated(_treasury) */\n      0x7dae230f18360d76a040c81f050aa14eb9d6dc7901b20fc5d855e2a20fe814d1\n        /* \"Script/MiningQuestShop.sol\":3429:3438  _treasury */\n      dup2\n        /* \"Script/MiningQuestShop.sol\":3413:3439  TreasuryUpdated(_treasury) */\n      mload(0x40)\n      tag_85\n      swap2\n      swap1\n      tag_28\n      jump\t// in\n    tag_85:\n      mload(0x40)\n      dup1\n      swap2\n      sub\n      swap1\n      log1\n        /* \"Script/MiningQuestShop.sol\":3236:3447  function setTreasury(address _treasury) external onlyOwner {... */\n      pop\n      jump\t// out\n        /* \"@openzeppelin/contracts/access/Ownable.sol\":2543:2758  function transferOwnership(address newOwner) public virtual onlyOwner {... */\n    tag_47:\n        /* \"@openzeppelin/contracts/access/Ownable.sol\":1531:1544  _checkOwner() */\n      tag_87\n        /* \"@openzeppelin/contracts/access/Ownable.sol\":1531:1542  _checkOwner */\n      tag_50\n        /* \"@openzeppelin/contracts/access/Ownable.sol\":1531:1544  _checkOwner() */\n      jump\t// in\n    tag_87:\n        /* \"@openzeppelin/contracts/access/Ownable.sol\":2647:2648  0 */\n      0x00\n        /* \"@openzeppelin/contracts/access/Ownable.sol\":2627:2649  newOwner == address(0) */\n      0xffffffffffffffffffffffffffffffffffffffff\n      and\n        /* \"@openzeppelin/contracts/access/Ownable.sol\":2627:2635  newOwner */\n      dup2\n        /* \"@openzeppelin/contracts/access/Ownable.sol\":2627:2649  newOwner == address(0) */\n      0xffffffffffffffffffffffffffffffffffffffff\n      and\n      sub\n        /* \"@openzeppelin/contracts/access/Ownable.sol\":2623:2714  if (newOwner == address(0)) {... */\n      tag_89\n      jumpi\n        /* \"@openzeppelin/contracts/access/Ownable.sol\":2700:2701  0 */\n      0x00\n        /* \"@openzeppelin/contracts/access/Ownable.sol\":2672:2703  OwnableInvalidOwner(address(0)) */\n      mload(0x40)\n      0x1e4fbdf700000000000000000000000000000000000000000000000000000000\n      dup2\n      mstore\n      0x04\n      add\n      tag_90\n      swap2\n      swap1\n      tag_28\n      jump\t// in\n    tag_90:\n      mload(0x40)\n      dup1\n      swap2\n      sub\n      swap1\n      revert\n        /* \"@openzeppelin/contracts/access/Ownable.sol\":2623:2714  if (newOwner == address(0)) {... */\n    tag_89:\n        /* \"@openzeppelin/contracts/access/Ownable.sol\":2723:2751  _transferOwnership(newOwner) */\n      tag_91\n        /* \"@openzeppelin/contracts/access/Ownable.sol\":2742:2750  newOwner */\n      dup2\n        /* \"@openzeppelin/contracts/access/Ownable.sol\":2723:2741  _transferOwnership */\n      tag_77\n        /* \"@openzeppelin/contracts/access/Ownable.sol\":2723:2751  _transferOwnership(newOwner) */\n      jump\t// in\n    tag_91:\n        /* \"@openzeppelin/contracts/access/Ownable.sol\":2543:2758  function transferOwnership(address newOwner) public virtual onlyOwner {... */\n      pop\n      jump\t// out\n        /* \"@openzeppelin/contracts/access/Ownable.sol\":1796:1958  function _checkOwner() internal view virtual {... */\n    tag_50:\n        /* \"@openzeppelin/contracts/access/Ownable.sol\":1866:1878  _msgSender() */\n      tag_93\n        /* \"@openzeppelin/contracts/access/Ownable.sol\":1866:1876  _msgSender */\n      tag_94\n        /* \"@openzeppelin/contracts/access/Ownable.sol\":1866:1878  _msgSender() */\n      jump\t// in\n    tag_93:\n        /* \"@openzeppelin/contracts/access/Ownable.sol\":1855:1878  owner() != _msgSender() */\n      0xffffffffffffffffffffffffffffffffffffffff\n      and\n        /* \"@openzeppelin/contracts/access/Ownable.sol\":1855:1862  owner() */\n      tag_95\n        /* \"@openzeppelin/contracts/access/Ownable.sol\":1855:1860  owner */\n      tag_36\n        /* \"@openzeppelin/contracts/access/Ownable.sol\":1855:1862  owner() */\n      jump\t// in\n    tag_95:\n        /* \"@openzeppelin/contracts/access/Ownable.sol\":1855:1878  owner() != _msgSender() */\n      0xffffffffffffffffffffffffffffffffffffffff\n      and\n      eq\n        /* \"@openzeppelin/contracts/access/Ownable.sol\":1851:1952  if (owner() != _msgSender()) {... */\n      tag_96\n      jumpi\n        /* \"@openzeppelin/contracts/access/Ownable.sol\":1928:1940  _msgSender() */\n      tag_97\n        /* \"@openzeppelin/contracts/access/Ownable.sol\":1928:1938  _msgSender */\n      tag_94\n        /* \"@openzeppelin/contracts/access/Ownable.sol\":1928:1940  _msgSender() */\n      jump\t// in\n    tag_97:\n        /* \"@openzeppelin/contracts/access/Ownable.sol\":1901:1941  OwnableUnauthorizedAccount(_msgSender()) */\n      mload(0x40)\n      0x118cdaa700000000000000000000000000000000000000000000000000000000\n      dup2\n      mstore\n      0x04\n      add\n      tag_98\n      swap2\n      swap1\n      tag_28\n      jump\t// in\n    tag_98:\n      mload(0x40)\n      dup1\n      swap2\n      sub\n      swap1\n      revert\n        /* \"@openzeppelin/contracts/access/Ownable.sol\":1851:1952  if (owner() != _msgSender()) {... */\n    tag_96:\n        /* \"@openzeppelin/contracts/access/Ownable.sol\":1796:1958  function _checkOwner() internal view virtual {... */\n      jump\t// out\n        /* \"@openzeppelin/contracts/utils/ReentrancyGuard.sol\":2575:2882  function _nonReentrantBefore() private {... */\n    tag_56:\n        /* \"@openzeppelin/contracts/utils/ReentrancyGuard.sol\":1899:1900  2 */\n      0x02\n        /* \"@openzeppelin/contracts/utils/ReentrancyGuard.sol\":2702:2709  _status */\n      sload(0x01)\n        /* \"@openzeppelin/contracts/utils/ReentrancyGuard.sol\":2702:2720  _status == ENTERED */\n      sub\n        /* \"@openzeppelin/contracts/utils/ReentrancyGuard.sol\":2698:2784  if (_status == ENTERED) {... */\n      tag_100\n      jumpi\n        /* \"@openzeppelin/contracts/utils/ReentrancyGuard.sol\":2743:2773  ReentrancyGuardReentrantCall() */\n      mload(0x40)\n      0x3ee5aeb500000000000000000000000000000000000000000000000000000000\n      dup2\n      mstore\n      0x04\n      add\n      mload(0x40)\n      dup1\n      swap2\n      sub\n      swap1\n      revert\n        /* \"@openzeppelin/contracts/utils/ReentrancyGuard.sol\":2698:2784  if (_status == ENTERED) {... */\n    tag_100:\n        /* \"@openzeppelin/contracts/utils/ReentrancyGuard.sol\":1899:1900  2 */\n      0x02\n        /* \"@openzeppelin/contracts/utils/ReentrancyGuard.sol\":2858:2865  _status */\n      0x01\n        /* \"@openzeppelin/contracts/utils/ReentrancyGuard.sol\":2858:2875  _status = ENTERED */\n      dup2\n      swap1\n      sstore\n      pop\n        /* \"@openzeppelin/contracts/utils/ReentrancyGuard.sol\":2575:2882  function _nonReentrantBefore() private {... */\n      jump\t// out\n        /* \"@openzeppelin/contracts/token/ERC20/utils/SafeERC20.sol\":1662:1894  function safeTransferFrom(IERC20 token, address from, address to, uint256 value) internal {... */\n    tag_68:\n        /* \"@openzeppelin/contracts/token/ERC20/utils/SafeERC20.sol\":1767:1814  _safeTransferFrom(token, from, to, value, true) */\n      tag_102\n        /* \"@openzeppelin/contracts/token/ERC20/utils/SafeERC20.sol\":1785:1790  token */\n      dup5\n        /* \"@openzeppelin/contracts/token/ERC20/utils/SafeERC20.sol\":1792:1796  from */\n      dup5\n        /* \"@openzeppelin/contracts/token/ERC20/utils/SafeERC20.sol\":1798:1800  to */\n      dup5\n        /* \"@openzeppelin/contracts/token/ERC20/utils/SafeERC20.sol\":1802:1807  value */\n      dup5\n        /* \"@openzeppelin/contracts/token/ERC20/utils/SafeERC20.sol\":1809:1813  true */\n      0x01\n        /* \"@openzeppelin/contracts/token/ERC20/utils/SafeERC20.sol\":1767:1784  _safeTransferFrom */\n      tag_103\n        /* \"@openzeppelin/contracts/token/ERC20/utils/SafeERC20.sol\":1767:1814  _safeTransferFrom(token, from, to, value, true) */\n      jump\t// in\n    tag_102:\n        /* \"@openzeppelin/contracts/token/ERC20/utils/SafeERC20.sol\":1762:1888  if (!_safeTransferFrom(token, from, to, value, true)) {... */\n      tag_104\n      jumpi\n        /* \"@openzeppelin/contracts/token/ERC20/utils/SafeERC20.sol\":1870:1875  token */\n      dup4\n        /* \"@openzeppelin/contracts/token/ERC20/utils/SafeERC20.sol\":1837:1877  SafeERC20FailedOperation(address(token)) */\n      mload(0x40)\n      0x5274afe700000000000000000000000000000000000000000000000000000000\n      dup2\n      mstore\n      0x04\n      add\n      tag_105\n      swap2\n      swap1\n      tag_28\n      jump\t// in\n    tag_105:\n      mload(0x40)\n      dup1\n      swap2\n      sub\n      swap1\n      revert\n        /* \"@openzeppelin/contracts/token/ERC20/utils/SafeERC20.sol\":1762:1888  if (!_safeTransferFrom(token, from, to, value, true)) {... */\n    tag_104:\n        /* \"@openzeppelin/contracts/token/ERC20/utils/SafeERC20.sol\":1662:1894  function safeTransferFrom(IERC20 token, address from, address to, uint256 value) internal {... */\n      pop\n      pop\n      pop\n      pop\n      jump\t// out\n        /* \"@openzeppelin/contracts/utils/ReentrancyGuard.sol\":2888:3096  function _nonReentrantAfter() private {... */\n    tag_72:\n        /* \"@openzeppelin/contracts/utils/ReentrancyGuard.sol\":1857:1858  1 */\n      0x01\n        /* \"@openzeppelin/contracts/utils/ReentrancyGuard.sol\":3068:3075  _status */\n      dup1\n        /* \"@openzeppelin/contracts/utils/ReentrancyGuard.sol\":3068:3089  _status = NOT_ENTERED */\n      dup2\n      swap1\n      sstore\n      pop\n        /* \"@openzeppelin/contracts/utils/ReentrancyGuard.sol\":2888:3096  function _nonReentrantAfter() private {... */\n      jump\t// out\n        /* \"@openzeppelin/contracts/access/Ownable.sol\":2912:3099  function _transferOwnership(address newOwner) internal virtual {... */\n    tag_77:\n        /* \"@openzeppelin/contracts/access/Ownable.sol\":2985:3001  address oldOwner */\n      0x00\n        /* \"@openzeppelin/contracts/access/Ownable.sol\":3004:3010  _owner */\n      0x00\n      0x00\n      swap1\n      sload\n      swap1\n      0x0100\n      exp\n      swap1\n      div\n      0xffffffffffffffffffffffffffffffffffffffff\n      and\n        /* \"@openzeppelin/contracts/access/Ownable.sol\":2985:3010  address oldOwner = _owner */\n      swap1\n      pop\n        /* \"@openzeppelin/contracts/access/Ownable.sol\":3029:3037  newOwner */\n      dup2\n        /* \"@openzeppelin/contracts/access/Ownable.sol\":3020:3026  _owner */\n      0x00\n      0x00\n        /* \"@openzeppelin/contracts/access/Ownable.sol\":3020:3037  _owner = newOwner */\n      0x0100\n      exp\n      dup2\n      sload\n      dup2\n      0xffffffffffffffffffffffffffffffffffffffff\n      mul\n      not\n      and\n      swap1\n      dup4\n      0xffffffffffffffffffffffffffffffffffffffff\n      and\n      mul\n      or\n      swap1\n      sstore\n      pop\n        /* \"@openzeppelin/contracts/access/Ownable.sol\":3083:3091  newOwner */\n      dup2\n        /* \"@openzeppelin/contracts/access/Ownable.sol\":3052:3092  OwnershipTransferred(oldOwner, newOwner) */\n      0xffffffffffffffffffffffffffffffffffffffff\n      and\n        /* \"@openzeppelin/contracts/access/Ownable.sol\":3073:3081  oldOwner */\n      dup2\n        /* \"@openzeppelin/contracts/access/Ownable.sol\":3052:3092  OwnershipTransferred(oldOwner, newOwner) */\n      0xffffffffffffffffffffffffffffffffffffffff\n      and\n      0x8be0079c531659141344cd1fd0a4f28419497f9722a3daafe3b4186f6b6457e0\n      mload(0x40)\n      mload(0x40)\n      dup1\n      swap2\n      sub\n      swap1\n      log3\n        /* \"@openzeppelin/contracts/access/Ownable.sol\":2975:3099  {... */\n      pop\n        /* \"@openzeppelin/contracts/access/Ownable.sol\":2912:3099  function _transferOwnership(address newOwner) internal virtual {... */\n      pop\n      jump\t// out\n        /* \"@openzeppelin/contracts/utils/Context.sol\":656:752  function _msgSender() internal view virtual returns (address) {... */\n    tag_94:\n        /* \"@openzeppelin/contracts/utils/Context.sol\":709:716  address */\n      0x00\n        /* \"@openzeppelin/contracts/utils/Context.sol\":735:745  msg.sender */\n      caller\n        /* \"@openzeppelin/contracts/utils/Context.sol\":728:745  return msg.sender */\n      swap1\n      pop\n        /* \"@openzeppelin/contracts/utils/Context.sol\":656:752  function _msgSender() internal view virtual returns (address) {... */\n      swap1\n      jump\t// out\n        /* \"@openzeppelin/contracts/token/ERC20/utils/SafeERC20.sol\":10165:11558  function _safeTransferFrom(... */\n    tag_103:\n        /* \"@openzeppelin/contracts/token/ERC20/utils/SafeERC20.sol\":10323:10335  bool success */\n      0x00\n        /* \"@openzeppelin/contracts/token/ERC20/utils/SafeERC20.sol\":10347:10362  bytes4 selector */\n      0x00\n        /* \"@openzeppelin/contracts/token/ERC20/utils/SafeERC20.sol\":10365:10393  IERC20.transferFrom.selector */\n      shl(0xe0, 0x23b872dd)\n        /* \"@openzeppelin/contracts/token/ERC20/utils/SafeERC20.sol\":10347:10393  bytes4 selector = IERC20.transferFrom.selector */\n      swap1\n      pop\n        /* \"@openzeppelin/contracts/token/ERC20/utils/SafeERC20.sol\":10460:10464  0x40 */\n      0x40\n        /* \"@openzeppelin/contracts/token/ERC20/utils/SafeERC20.sol\":10454:10465  mload(0x40) */\n      mload\n        /* \"@openzeppelin/contracts/token/ERC20/utils/SafeERC20.sol\":10491:10499  selector */\n      dup2\n        /* \"@openzeppelin/contracts/token/ERC20/utils/SafeERC20.sol\":10485:10489  0x00 */\n      0x00\n        /* \"@openzeppelin/contracts/token/ERC20/utils/SafeERC20.sol\":10478:10500  mstore(0x00, selector) */\n      mstore\n        /* \"@openzeppelin/contracts/token/ERC20/utils/SafeERC20.sol\":10548:10549  0 */\n      0x00\n        /* \"@openzeppelin/contracts/token/ERC20/utils/SafeERC20.sol\":10544:10550  not(0) */\n      not\n        /* \"@openzeppelin/contracts/token/ERC20/utils/SafeERC20.sol\":10540:10542  96 */\n      0x60\n        /* \"@openzeppelin/contracts/token/ERC20/utils/SafeERC20.sol\":10536:10551  shr(96, not(0)) */\n      shr\n        /* \"@openzeppelin/contracts/token/ERC20/utils/SafeERC20.sol\":10530:10534  from */\n      dup8\n        /* \"@openzeppelin/contracts/token/ERC20/utils/SafeERC20.sol\":10526:10552  and(from, shr(96, not(0))) */\n      and\n        /* \"@openzeppelin/contracts/token/ERC20/utils/SafeERC20.sol\":10520:10524  0x04 */\n      0x04\n        /* \"@openzeppelin/contracts/token/ERC20/utils/SafeERC20.sol\":10513:10553  mstore(0x04, and(from, shr(96, not(0)))) */\n      mstore\n        /* \"@openzeppelin/contracts/token/ERC20/utils/SafeERC20.sol\":10599:10600  0 */\n      0x00\n        /* \"@openzeppelin/contracts/token/ERC20/utils/SafeERC20.sol\":10595:10601  not(0) */\n      not\n        /* \"@openzeppelin/contracts/token/ERC20/utils/SafeERC20.sol\":10591:10593  96 */\n      0x60\n        /* \"@openzeppelin/contracts/token/ERC20/utils/SafeERC20.sol\":10587:10602  shr(96, not(0)) */\n      shr\n        /* \"@openzeppelin/contracts/token/ERC20/utils/SafeERC20.sol\":10583:10585  to */\n      dup7\n        /* \"@openzeppelin/contracts/token/ERC20/utils/SafeERC20.sol\":10579:10603  and(to, shr(96, not(0))) */\n      and\n        /* \"@openzeppelin/contracts/token/ERC20/utils/SafeERC20.sol\":10573:10577  0x24 */\n      0x24\n        /* \"@openzeppelin/contracts/token/ERC20/utils/SafeERC20.sol\":10566:10604  mstore(0x24, and(to, shr(96, not(0)))) */\n      mstore\n        /* \"@openzeppelin/contracts/token/ERC20/utils/SafeERC20.sol\":10630:10635  value */\n      dup5\n        /* \"@openzeppelin/contracts/token/ERC20/utils/SafeERC20.sol\":10624:10628  0x44 */\n      0x44\n        /* \"@openzeppelin/contracts/token/ERC20/utils/SafeERC20.sol\":10617:10636  mstore(0x44, value) */\n      mstore\n        /* \"@openzeppelin/contracts/token/ERC20/utils/SafeERC20.sol\":10700:10704  0x20 */\n      0x20\n        /* \"@openzeppelin/contracts/token/ERC20/utils/SafeERC20.sol\":10694:10698  0x00 */\n      0x00\n        /* \"@openzeppelin/contracts/token/ERC20/utils/SafeERC20.sol\":10688:10692  0x64 */\n      0x64\n        /* \"@openzeppelin/contracts/token/ERC20/utils/SafeERC20.sol\":10682:10686  0x00 */\n      0x00\n        /* \"@openzeppelin/contracts/token/ERC20/utils/SafeERC20.sol\":10679:10680  0 */\n      0x00\n        /* \"@openzeppelin/contracts/token/ERC20/utils/SafeERC20.sol\":10672:10677  token */\n      dup13\n        /* \"@openzeppelin/contracts/token/ERC20/utils/SafeERC20.sol\":10665:10670  gas() */\n      gas\n        /* \"@openzeppelin/contracts/token/ERC20/utils/SafeERC20.sol\":10660:10705  call(gas(), token, 0, 0x00, 0x64, 0x00, 0x20) */\n      call\n        /* \"@openzeppelin/contracts/token/ERC20/utils/SafeERC20.sol\":10649:10705  success := call(gas(), token, 0, 0x00, 0x64, 0x00, 0x20) */\n      swap3\n      pop\n        /* \"@openzeppelin/contracts/token/ERC20/utils/SafeERC20.sol\":10917:10918  1 */\n      0x01\n        /* \"@openzeppelin/contracts/token/ERC20/utils/SafeERC20.sol\":10910:10914  0x00 */\n      0x00\n        /* \"@openzeppelin/contracts/token/ERC20/utils/SafeERC20.sol\":10904:10915  mload(0x00) */\n      mload\n        /* \"@openzeppelin/contracts/token/ERC20/utils/SafeERC20.sol\":10901:10919  eq(mload(0x00), 1) */\n      eq\n        /* \"@openzeppelin/contracts/token/ERC20/utils/SafeERC20.sol\":10892:10899  success */\n      dup4\n        /* \"@openzeppelin/contracts/token/ERC20/utils/SafeERC20.sol\":10888:10920  and(success, eq(mload(0x00), 1)) */\n      and\n        /* \"@openzeppelin/contracts/token/ERC20/utils/SafeERC20.sol\":10878:11484  if iszero(and(success, eq(mload(0x00), 1))) {... */\n      tag_110\n      jumpi\n        /* \"@openzeppelin/contracts/token/ERC20/utils/SafeERC20.sol\":11049:11055  bubble */\n      dup4\n        /* \"@openzeppelin/contracts/token/ERC20/utils/SafeERC20.sol\":11039:11046  success */\n      dup4\n        /* \"@openzeppelin/contracts/token/ERC20/utils/SafeERC20.sol\":11032:11047  iszero(success) */\n      iszero\n        /* \"@openzeppelin/contracts/token/ERC20/utils/SafeERC20.sol\":11028:11056  and(iszero(success), bubble) */\n      and\n        /* \"@openzeppelin/contracts/token/ERC20/utils/SafeERC20.sol\":11025:11190  if and(iszero(success), bubble) {... */\n      iszero\n      tag_111\n      jumpi\n        /* \"@openzeppelin/contracts/token/ERC20/utils/SafeERC20.sol\":11105:11121  returndatasize() */\n      returndatasize\n        /* \"@openzeppelin/contracts/token/ERC20/utils/SafeERC20.sol\":11099:11103  0x00 */\n      0x00\n        /* \"@openzeppelin/contracts/token/ERC20/utils/SafeERC20.sol\":11094:11097  fmp */\n      dup3\n        /* \"@openzeppelin/contracts/token/ERC20/utils/SafeERC20.sol\":11079:11122  returndatacopy(fmp, 0x00, returndatasize()) */\n      returndatacopy\n        /* \"@openzeppelin/contracts/token/ERC20/utils/SafeERC20.sol\":11155:11171  returndatasize() */\n      returndatasize\n        /* \"@openzeppelin/contracts/token/ERC20/utils/SafeERC20.sol\":11150:11153  fmp */\n      dup2\n        /* \"@openzeppelin/contracts/token/ERC20/utils/SafeERC20.sol\":11143:11172  revert(fmp, returndatasize()) */\n      revert\n        /* \"@openzeppelin/contracts/token/ERC20/utils/SafeERC20.sol\":11025:11190  if and(iszero(success), bubble) {... */\n    tag_111:\n        /* \"@openzeppelin/contracts/token/ERC20/utils/SafeERC20.sol\":11466:11467  0 */\n      0x00\n        /* \"@openzeppelin/contracts/token/ERC20/utils/SafeERC20.sol\":11458:11463  token */\n      dup9\n        /* \"@openzeppelin/contracts/token/ERC20/utils/SafeERC20.sol\":11446:11464  extcodesize(token) */\n      extcodesize\n        /* \"@openzeppelin/contracts/token/ERC20/utils/SafeERC20.sol\":11443:11468  gt(extcodesize(token), 0) */\n      gt\n        /* \"@openzeppelin/contracts/token/ERC20/utils/SafeERC20.sol\":11424:11440  returndatasize() */\n      returndatasize\n        /* \"@openzeppelin/contracts/token/ERC20/utils/SafeERC20.sol\":11417:11441  iszero(returndatasize()) */\n      iszero\n        /* \"@openzeppelin/contracts/token/ERC20/utils/SafeERC20.sol\":11413:11469  and(iszero(returndatasize()), gt(extcodesize(token), 0)) */\n      and\n        /* \"@openzeppelin/contracts/token/ERC20/utils/SafeERC20.sol\":11404:11411  success */\n      dup4\n        /* \"@openzeppelin/contracts/token/ERC20/utils/SafeERC20.sol\":11400:11470  and(success, and(iszero(returndatasize()), gt(extcodesize(token), 0))) */\n      and\n        /* \"@openzeppelin/contracts/token/ERC20/utils/SafeERC20.sol\":11389:11470  success := and(success, and(iszero(returndatasize()), gt(extcodesize(token), 0))) */\n      swap3\n      pop\n        /* \"@openzeppelin/contracts/token/ERC20/utils/SafeERC20.sol\":10878:11484  if iszero(and(success, eq(mload(0x00), 1))) {... */\n    tag_110:\n        /* \"@openzeppelin/contracts/token/ERC20/utils/SafeERC20.sol\":11510:11513  fmp */\n      dup1\n        /* \"@openzeppelin/contracts/token/ERC20/utils/SafeERC20.sol\":11504:11508  0x40 */\n      0x40\n        /* \"@openzeppelin/contracts/token/ERC20/utils/SafeERC20.sol\":11497:11514  mstore(0x40, fmp) */\n      mstore\n        /* \"@openzeppelin/contracts/token/ERC20/utils/SafeERC20.sol\":11540:11541  0 */\n      0x00\n        /* \"@openzeppelin/contracts/token/ERC20/utils/SafeERC20.sol\":11534:11538  0x60 */\n      0x60\n        /* \"@openzeppelin/contracts/token/ERC20/utils/SafeERC20.sol\":11527:11542  mstore(0x60, 0) */\n      mstore\n        /* \"@openzeppelin/contracts/token/ERC20/utils/SafeERC20.sol\":10429:11552  {... */\n      pop\n      pop\n        /* \"@openzeppelin/contracts/token/ERC20/utils/SafeERC20.sol\":10165:11558  function _safeTransferFrom(... */\n      swap6\n      swap5\n      pop\n      pop\n      pop\n      pop\n      pop\n      jump\t// out\n        /* \"#utility.yul\":88:205   */\n    tag_113:\n        /* \"#utility.yul\":197:198   */\n      0x00\n        /* \"#utility.yul\":194:195   */\n      0x00\n        /* \"#utility.yul\":187:199   */\n      revert\n        /* \"#utility.yul\":334:411   */\n    tag_115:\n        /* \"#utility.yul\":371:378   */\n      0x00\n        /* \"#utility.yul\":400:405   */\n      dup2\n        /* \"#utility.yul\":389:405   */\n      swap1\n      pop\n        /* \"#utility.yul\":334:411   */\n      swap2\n      swap1\n      pop\n      jump\t// out\n        /* \"#utility.yul\":417:539   */\n    tag_116:\n        /* \"#utility.yul\":490:514   */\n      tag_141\n        /* \"#utility.yul\":508:513   */\n      dup2\n        /* \"#utility.yul\":490:514   */\n      tag_115\n      jump\t// in\n    tag_141:\n        /* \"#utility.yul\":483:488   */\n      dup2\n        /* \"#utility.yul\":480:515   */\n      eq\n        /* \"#utility.yul\":470:533   */\n      tag_142\n      jumpi\n        /* \"#utility.yul\":529:530   */\n      0x00\n        /* \"#utility.yul\":526:527   */\n      0x00\n        /* \"#utility.yul\":519:531   */\n      revert\n        /* \"#utility.yul\":470:533   */\n    tag_142:\n        /* \"#utility.yul\":417:539   */\n      pop\n      jump\t// out\n        /* \"#utility.yul\":545:684   */\n    tag_117:\n        /* \"#utility.yul\":591:596   */\n      0x00\n        /* \"#utility.yul\":629:635   */\n      dup2\n        /* \"#utility.yul\":616:636   */\n      calldataload\n        /* \"#utility.yul\":607:636   */\n      swap1\n      pop\n        /* \"#utility.yul\":645:678   */\n      tag_144\n        /* \"#utility.yul\":672:677   */\n      dup2\n        /* \"#utility.yul\":645:678   */\n      tag_116\n      jump\t// in\n    tag_144:\n        /* \"#utility.yul\":545:684   */\n      swap3\n      swap2\n      pop\n      pop\n      jump\t// out\n        /* \"#utility.yul\":690:1164   */\n    tag_16:\n        /* \"#utility.yul\":758:764   */\n      0x00\n        /* \"#utility.yul\":766:772   */\n      0x00\n        /* \"#utility.yul\":815:817   */\n      0x40\n        /* \"#utility.yul\":803:812   */\n      dup4\n        /* \"#utility.yul\":794:801   */\n      dup6\n        /* \"#utility.yul\":790:813   */\n      sub\n        /* \"#utility.yul\":786:818   */\n      slt\n        /* \"#utility.yul\":783:902   */\n      iszero\n      tag_146\n      jumpi\n        /* \"#utility.yul\":821:900   */\n      tag_147\n      tag_113\n      jump\t// in\n    tag_147:\n        /* \"#utility.yul\":783:902   */\n    tag_146:\n        /* \"#utility.yul\":941:942   */\n      0x00\n        /* \"#utility.yul\":966:1019   */\n      tag_148\n        /* \"#utility.yul\":1011:1018   */\n      dup6\n        /* \"#utility.yul\":1002:1008   */\n      dup3\n        /* \"#utility.yul\":991:1000   */\n      dup7\n        /* \"#utility.yul\":987:1009   */\n      add\n        /* \"#utility.yul\":966:1019   */\n      tag_117\n      jump\t// in\n    tag_148:\n        /* \"#utility.yul\":956:1019   */\n      swap3\n      pop\n        /* \"#utility.yul\":912:1029   */\n      pop\n        /* \"#utility.yul\":1068:1070   */\n      0x20\n        /* \"#utility.yul\":1094:1147   */\n      tag_149\n        /* \"#utility.yul\":1139:1146   */\n      dup6\n        /* \"#utility.yul\":1130:1136   */\n      dup3\n        /* \"#utility.yul\":1119:1128   */\n      dup7\n        /* \"#utility.yul\":1115:1137   */\n      add\n        /* \"#utility.yul\":1094:1147   */\n      tag_117\n      jump\t// in\n    tag_149:\n        /* \"#utility.yul\":1084:1147   */\n      swap2\n      pop\n        /* \"#utility.yul\":1039:1157   */\n      pop\n        /* \"#utility.yul\":690:1164   */\n      swap3\n      pop\n      swap3\n      swap1\n      pop\n      jump\t// out\n        /* \"#utility.yul\":1170:1288   */\n    tag_118:\n        /* \"#utility.yul\":1257:1281   */\n      tag_151\n        /* \"#utility.yul\":1275:1280   */\n      dup2\n        /* \"#utility.yul\":1257:1281   */\n      tag_115\n      jump\t// in\n    tag_151:\n        /* \"#utility.yul\":1252:1255   */\n      dup3\n        /* \"#utility.yul\":1245:1282   */\n      mstore\n        /* \"#utility.yul\":1170:1288   */\n      pop\n      pop\n      jump\t// out\n        /* \"#utility.yul\":1294:1516   */\n    tag_21:\n        /* \"#utility.yul\":1387:1391   */\n      0x00\n        /* \"#utility.yul\":1425:1427   */\n      0x20\n        /* \"#utility.yul\":1414:1423   */\n      dup3\n        /* \"#utility.yul\":1410:1428   */\n      add\n        /* \"#utility.yul\":1402:1428   */\n      swap1\n      pop\n        /* \"#utility.yul\":1438:1509   */\n      tag_153\n        /* \"#utility.yul\":1506:1507   */\n      0x00\n        /* \"#utility.yul\":1495:1504   */\n      dup4\n        /* \"#utility.yul\":1491:1508   */\n      add\n        /* \"#utility.yul\":1482:1488   */\n      dup5\n        /* \"#utility.yul\":1438:1509   */\n      tag_118\n      jump\t// in\n    tag_153:\n        /* \"#utility.yul\":1294:1516   */\n      swap3\n      swap2\n      pop\n      pop\n      jump\t// out\n        /* \"#utility.yul\":1522:1648   */\n    tag_119:\n        /* \"#utility.yul\":1559:1566   */\n      0x00\n        /* \"#utility.yul\":1599:1641   */\n      0xffffffffffffffffffffffffffffffffffffffff\n        /* \"#utility.yul\":1592:1597   */\n      dup3\n        /* \"#utility.yul\":1588:1642   */\n      and\n        /* \"#utility.yul\":1577:1642   */\n      swap1\n      pop\n        /* \"#utility.yul\":1522:1648   */\n      swap2\n      swap1\n      pop\n      jump\t// out\n        /* \"#utility.yul\":1654:1750   */\n    tag_120:\n        /* \"#utility.yul\":1691:1698   */\n      0x00\n        /* \"#utility.yul\":1720:1744   */\n      tag_156\n        /* \"#utility.yul\":1738:1743   */\n      dup3\n        /* \"#utility.yul\":1720:1744   */\n      tag_119\n      jump\t// in\n    tag_156:\n        /* \"#utility.yul\":1709:1744   */\n      swap1\n      pop\n        /* \"#utility.yul\":1654:1750   */\n      swap2\n      swap1\n      pop\n      jump\t// out\n        /* \"#utility.yul\":1756:1874   */\n    tag_121:\n        /* \"#utility.yul\":1843:1867   */\n      tag_158\n        /* \"#utility.yul\":1861:1866   */\n      dup2\n        /* \"#utility.yul\":1843:1867   */\n      tag_120\n      jump\t// in\n    tag_158:\n        /* \"#utility.yul\":1838:1841   */\n      dup3\n        /* \"#utility.yul\":1831:1868   */\n      mstore\n        /* \"#utility.yul\":1756:1874   */\n      pop\n      pop\n      jump\t// out\n        /* \"#utility.yul\":1880:2102   */\n    tag_28:\n        /* \"#utility.yul\":1973:1977   */\n      0x00\n        /* \"#utility.yul\":2011:2013   */\n      0x20\n        /* \"#utility.yul\":2000:2009   */\n      dup3\n        /* \"#utility.yul\":1996:2014   */\n      add\n        /* \"#utility.yul\":1988:2014   */\n      swap1\n      pop\n        /* \"#utility.yul\":2024:2095   */\n      tag_160\n        /* \"#utility.yul\":2092:2093   */\n      0x00\n        /* \"#utility.yul\":2081:2090   */\n      dup4\n        /* \"#utility.yul\":2077:2094   */\n      add\n        /* \"#utility.yul\":2068:2074   */\n      dup5\n        /* \"#utility.yul\":2024:2095   */\n      tag_121\n      jump\t// in\n    tag_160:\n        /* \"#utility.yul\":1880:2102   */\n      swap3\n      swap2\n      pop\n      pop\n      jump\t// out\n        /* \"#utility.yul\":2108:2168   */\n    tag_122:\n        /* \"#utility.yul\":2136:2139   */\n      0x00\n        /* \"#utility.yul\":2157:2162   */\n      dup2\n        /* \"#utility.yul\":2150:2162   */\n      swap1\n      pop\n        /* \"#utility.yul\":2108:2168   */\n      swap2\n      swap1\n      pop\n      jump\t// out\n        /* \"#utility.yul\":2174:2316   */\n    tag_123:\n        /* \"#utility.yul\":2224:2233   */\n      0x00\n        /* \"#utility.yul\":2257:2310   */\n      tag_163\n        /* \"#utility.yul\":2275:2309   */\n      tag_164\n        /* \"#utility.yul\":2284:2308   */\n      tag_165\n        /* \"#utility.yul\":2302:2307   */\n      dup5\n        /* \"#utility.yul\":2284:2308   */\n      tag_119\n      jump\t// in\n    tag_165:\n        /* \"#utility.yul\":2275:2309   */\n      tag_122\n      jump\t// in\n    tag_164:\n        /* \"#utility.yul\":2257:2310   */\n      tag_119\n      jump\t// in\n    tag_163:\n        /* \"#utility.yul\":2244:2310   */\n      swap1\n      pop\n        /* \"#utility.yul\":2174:2316   */\n      swap2\n      swap1\n      pop\n      jump\t// out\n        /* \"#utility.yul\":2322:2448   */\n    tag_124:\n        /* \"#utility.yul\":2372:2381   */\n      0x00\n        /* \"#utility.yul\":2405:2442   */\n      tag_167\n        /* \"#utility.yul\":2436:2441   */\n      dup3\n        /* \"#utility.yul\":2405:2442   */\n      tag_123\n      jump\t// in\n    tag_167:\n        /* \"#utility.yul\":2392:2442   */\n      swap1\n      pop\n        /* \"#utility.yul\":2322:2448   */\n      swap2\n      swap1\n      pop\n      jump\t// out\n        /* \"#utility.yul\":2454:2594   */\n    tag_125:\n        /* \"#utility.yul\":2518:2527   */\n      0x00\n        /* \"#utility.yul\":2551:2588   */\n      tag_169\n        /* \"#utility.yul\":2582:2587   */\n      dup3\n        /* \"#utility.yul\":2551:2588   */\n      tag_124\n      jump\t// in\n    tag_169:\n        /* \"#utility.yul\":2538:2588   */\n      swap1\n      pop\n        /* \"#utility.yul\":2454:2594   */\n      swap2\n      swap1\n      pop\n      jump\t// out\n        /* \"#utility.yul\":2600:2759   */\n    tag_126:\n        /* \"#utility.yul\":2701:2752   */\n      tag_171\n        /* \"#utility.yul\":2746:2751   */\n      dup2\n        /* \"#utility.yul\":2701:2752   */\n      tag_125\n      jump\t// in\n    tag_171:\n        /* \"#utility.yul\":2696:2699   */\n      dup3\n        /* \"#utility.yul\":2689:2753   */\n      mstore\n        /* \"#utility.yul\":2600:2759   */\n      pop\n      pop\n      jump\t// out\n        /* \"#utility.yul\":2765:3015   */\n    tag_34:\n        /* \"#utility.yul\":2872:2876   */\n      0x00\n        /* \"#utility.yul\":2910:2912   */\n      0x20\n        /* \"#utility.yul\":2899:2908   */\n      dup3\n        /* \"#utility.yul\":2895:2913   */\n      add\n        /* \"#utility.yul\":2887:2913   */\n      swap1\n      pop\n        /* \"#utility.yul\":2923:3008   */\n      tag_173\n        /* \"#utility.yul\":3005:3006   */\n      0x00\n        /* \"#utility.yul\":2994:3003   */\n      dup4\n        /* \"#utility.yul\":2990:3007   */\n      add\n        /* \"#utility.yul\":2981:2987   */\n      dup5\n        /* \"#utility.yul\":2923:3008   */\n      tag_126\n      jump\t// in\n    tag_173:\n        /* \"#utility.yul\":2765:3015   */\n      swap3\n      swap2\n      pop\n      pop\n      jump\t// out\n        /* \"#utility.yul\":3021:3143   */\n    tag_127:\n        /* \"#utility.yul\":3094:3118   */\n      tag_175\n        /* \"#utility.yul\":3112:3117   */\n      dup2\n        /* \"#utility.yul\":3094:3118   */\n      tag_120\n      jump\t// in\n    tag_175:\n        /* \"#utility.yul\":3087:3092   */\n      dup2\n        /* \"#utility.yul\":3084:3119   */\n      eq\n        /* \"#utility.yul\":3074:3137   */\n      tag_176\n      jumpi\n        /* \"#utility.yul\":3133:3134   */\n      0x00\n        /* \"#utility.yul\":3130:3131   */\n      0x00\n        /* \"#utility.yul\":3123:3135   */\n      revert\n        /* \"#utility.yul\":3074:3137   */\n    tag_176:\n        /* \"#utility.yul\":3021:3143   */\n      pop\n      jump\t// out\n        /* \"#utility.yul\":3149:3288   */\n    tag_128:\n        /* \"#utility.yul\":3195:3200   */\n      0x00\n        /* \"#utility.yul\":3233:3239   */\n      dup2\n        /* \"#utility.yul\":3220:3240   */\n      calldataload\n        /* \"#utility.yul\":3211:3240   */\n      swap1\n      pop\n        /* \"#utility.yul\":3249:3282   */\n      tag_178\n        /* \"#utility.yul\":3276:3281   */\n      dup2\n        /* \"#utility.yul\":3249:3282   */\n      tag_127\n      jump\t// in\n    tag_178:\n        /* \"#utility.yul\":3149:3288   */\n      swap3\n      swap2\n      pop\n      pop\n      jump\t// out\n        /* \"#utility.yul\":3294:3623   */\n    tag_43:\n        /* \"#utility.yul\":3353:3359   */\n      0x00\n        /* \"#utility.yul\":3402:3404   */\n      0x20\n        /* \"#utility.yul\":3390:3399   */\n      dup3\n        /* \"#utility.yul\":3381:3388   */\n      dup5\n        /* \"#utility.yul\":3377:3400   */\n      sub\n        /* \"#utility.yul\":3373:3405   */\n      slt\n        /* \"#utility.yul\":3370:3489   */\n      iszero\n      tag_180\n      jumpi\n        /* \"#utility.yul\":3408:3487   */\n      tag_181\n      tag_113\n      jump\t// in\n    tag_181:\n        /* \"#utility.yul\":3370:3489   */\n    tag_180:\n        /* \"#utility.yul\":3528:3529   */\n      0x00\n        /* \"#utility.yul\":3553:3606   */\n      tag_182\n        /* \"#utility.yul\":3598:3605   */\n      dup5\n        /* \"#utility.yul\":3589:3595   */\n      dup3\n        /* \"#utility.yul\":3578:3587   */\n      dup6\n        /* \"#utility.yul\":3574:3596   */\n      add\n        /* \"#utility.yul\":3553:3606   */\n      tag_128\n      jump\t// in\n    tag_182:\n        /* \"#utility.yul\":3543:3606   */\n      swap2\n      pop\n        /* \"#utility.yul\":3499:3616   */\n      pop\n        /* \"#utility.yul\":3294:3623   */\n      swap3\n      swap2\n      pop\n      pop\n      jump\t// out\n        /* \"#utility.yul\":3629:3961   */\n    tag_53:\n        /* \"#utility.yul\":3750:3754   */\n      0x00\n        /* \"#utility.yul\":3788:3790   */\n      0x40\n        /* \"#utility.yul\":3777:3786   */\n      dup3\n        /* \"#utility.yul\":3773:3791   */\n      add\n        /* \"#utility.yul\":3765:3791   */\n      swap1\n      pop\n        /* \"#utility.yul\":3801:3872   */\n      tag_184\n        /* \"#utility.yul\":3869:3870   */\n      0x00\n        /* \"#utility.yul\":3858:3867   */\n      dup4\n        /* \"#utility.yul\":3854:3871   */\n      add\n        /* \"#utility.yul\":3845:3851   */\n      dup6\n        /* \"#utility.yul\":3801:3872   */\n      tag_118\n      jump\t// in\n    tag_184:\n        /* \"#utility.yul\":3882:3954   */\n      tag_185\n        /* \"#utility.yul\":3950:3952   */\n      0x20\n        /* \"#utility.yul\":3939:3948   */\n      dup4\n        /* \"#utility.yul\":3935:3953   */\n      add\n        /* \"#utility.yul\":3926:3932   */\n      dup5\n        /* \"#utility.yul\":3882:3954   */\n      tag_118\n      jump\t// in\n    tag_185:\n        /* \"#utility.yul\":3629:3961   */\n      swap4\n      swap3\n      pop\n      pop\n      pop\n      jump\t// out\n        /* \"#utility.yul\":3967:4136   */\n    tag_129:\n        /* \"#utility.yul\":4051:4062   */\n      0x00\n        /* \"#utility.yul\":4085:4091   */\n      dup3\n        /* \"#utility.yul\":4080:4083   */\n      dup3\n        /* \"#utility.yul\":4073:4092   */\n      mstore\n        /* \"#utility.yul\":4125:4129   */\n      0x20\n        /* \"#utility.yul\":4120:4123   */\n      dup3\n        /* \"#utility.yul\":4116:4130   */\n      add\n        /* \"#utility.yul\":4101:4130   */\n      swap1\n      pop\n        /* \"#utility.yul\":3967:4136   */\n      swap3\n      swap2\n      pop\n      pop\n      jump\t// out\n        /* \"#utility.yul\":4142:4318   */\n    tag_130:\n        /* \"#utility.yul\":4282:4310   */\n      0x4d75737420627579206174206c65617374206f6e65206974656d000000000000\n        /* \"#utility.yul\":4278:4279   */\n      0x00\n        /* \"#utility.yul\":4270:4276   */\n      dup3\n        /* \"#utility.yul\":4266:4280   */\n      add\n        /* \"#utility.yul\":4259:4311   */\n      mstore\n        /* \"#utility.yul\":4142:4318   */\n      pop\n      jump\t// out\n        /* \"#utility.yul\":4324:4690   */\n    tag_131:\n        /* \"#utility.yul\":4466:4469   */\n      0x00\n        /* \"#utility.yul\":4487:4554   */\n      tag_189\n        /* \"#utility.yul\":4551:4553   */\n      0x1a\n        /* \"#utility.yul\":4546:4549   */\n      dup4\n        /* \"#utility.yul\":4487:4554   */\n      tag_129\n      jump\t// in\n    tag_189:\n        /* \"#utility.yul\":4480:4554   */\n      swap2\n      pop\n        /* \"#utility.yul\":4563:4656   */\n      tag_190\n        /* \"#utility.yul\":4652:4655   */\n      dup3\n        /* \"#utility.yul\":4563:4656   */\n      tag_130\n      jump\t// in\n    tag_190:\n        /* \"#utility.yul\":4681:4683   */\n      0x20\n        /* \"#utility.yul\":4676:4679   */\n      dup3\n        /* \"#utility.yul\":4672:4684   */\n      add\n        /* \"#utility.yul\":4665:4684   */\n      swap1\n      pop\n        /* \"#utility.yul\":4324:4690   */\n      swap2\n      swap1\n      pop\n      jump\t// out\n        /* \"#utility.yul\":4696:5115   */\n    tag_61:\n        /* \"#utility.yul\":4862:4866   */\n      0x00\n        /* \"#utility.yul\":4900:4902   */\n      0x20\n        /* \"#utility.yul\":4889:4898   */\n      dup3\n        /* \"#utility.yul\":4885:4903   */\n      add\n        /* \"#utility.yul\":4877:4903   */\n      swap1\n      pop\n        /* \"#utility.yul\":4949:4958   */\n      dup2\n        /* \"#utility.yul\":4943:4947   */\n      dup2\n        /* \"#utility.yul\":4939:4959   */\n      sub\n        /* \"#utility.yul\":4935:4936   */\n      0x00\n        /* \"#utility.yul\":4924:4933   */\n      dup4\n        /* \"#utility.yul\":4920:4937   */\n      add\n        /* \"#utility.yul\":4913:4960   */\n      mstore\n        /* \"#utility.yul\":4977:5108   */\n      tag_192\n        /* \"#utility.yul\":5103:5107   */\n      dup2\n        /* \"#utility.yul\":4977:5108   */\n      tag_131\n      jump\t// in\n    tag_192:\n        /* \"#utility.yul\":4969:5108   */\n      swap1\n      pop\n        /* \"#utility.yul\":4696:5115   */\n      swap2\n      swap1\n      pop\n      jump\t// out\n        /* \"#utility.yul\":5121:5301   */\n    tag_132:\n        /* \"#utility.yul\":5169:5246   */\n      0x4e487b7100000000000000000000000000000000000000000000000000000000\n        /* \"#utility.yul\":5166:5167   */\n      0x00\n        /* \"#utility.yul\":5159:5247   */\n      mstore\n        /* \"#utility.yul\":5266:5270   */\n      0x11\n        /* \"#utility.yul\":5263:5264   */\n      0x04\n        /* \"#utility.yul\":5256:5271   */\n      mstore\n        /* \"#utility.yul\":5290:5294   */\n      0x24\n        /* \"#utility.yul\":5287:5288   */\n      0x00\n        /* \"#utility.yul\":5280:5295   */\n      revert\n        /* \"#utility.yul\":5307:5717   */\n    tag_63:\n        /* \"#utility.yul\":5347:5354   */\n      0x00\n        /* \"#utility.yul\":5370:5390   */\n      tag_195\n        /* \"#utility.yul\":5388:5389   */\n      dup3\n        /* \"#utility.yul\":5370:5390   */\n      tag_115\n      jump\t// in\n    tag_195:\n        /* \"#utility.yul\":5365:5390   */\n      swap2\n      pop\n        /* \"#utility.yul\":5404:5424   */\n      tag_196\n        /* \"#utility.yul\":5422:5423   */\n      dup4\n        /* \"#utility.yul\":5404:5424   */\n      tag_115\n      jump\t// in\n    tag_196:\n        /* \"#utility.yul\":5399:5424   */\n      swap3\n      pop\n        /* \"#utility.yul\":5459:5460   */\n      dup3\n        /* \"#utility.yul\":5456:5457   */\n      dup3\n        /* \"#utility.yul\":5452:5461   */\n      mul\n        /* \"#utility.yul\":5481:5511   */\n      tag_197\n        /* \"#utility.yul\":5499:5510   */\n      dup2\n        /* \"#utility.yul\":5481:5511   */\n      tag_115\n      jump\t// in\n    tag_197:\n        /* \"#utility.yul\":5470:5511   */\n      swap2\n      pop\n        /* \"#utility.yul\":5660:5661   */\n      dup3\n        /* \"#utility.yul\":5651:5658   */\n      dup3\n        /* \"#utility.yul\":5647:5662   */\n      div\n        /* \"#utility.yul\":5644:5645   */\n      dup5\n        /* \"#utility.yul\":5641:5663   */\n      eq\n        /* \"#utility.yul\":5621:5622   */\n      dup4\n        /* \"#utility.yul\":5614:5623   */\n      iszero\n        /* \"#utility.yul\":5594:5677   */\n      or\n        /* \"#utility.yul\":5571:5710   */\n      tag_198\n      jumpi\n        /* \"#utility.yul\":5690:5708   */\n      tag_199\n      tag_132\n      jump\t// in\n    tag_199:\n        /* \"#utility.yul\":5571:5710   */\n    tag_198:\n        /* \"#utility.yul\":5355:5717   */\n      pop\n        /* \"#utility.yul\":5307:5717   */\n      swap3\n      swap2\n      pop\n      pop\n      jump\t// out\n        /* \"#utility.yul\":5723:5914   */\n    tag_66:\n        /* \"#utility.yul\":5763:5766   */\n      0x00\n        /* \"#utility.yul\":5782:5802   */\n      tag_201\n        /* \"#utility.yul\":5800:5801   */\n      dup3\n        /* \"#utility.yul\":5782:5802   */\n      tag_115\n      jump\t// in\n    tag_201:\n        /* \"#utility.yul\":5777:5802   */\n      swap2\n      pop\n        /* \"#utility.yul\":5816:5836   */\n      tag_202\n        /* \"#utility.yul\":5834:5835   */\n      dup4\n        /* \"#utility.yul\":5816:5836   */\n      tag_115\n      jump\t// in\n    tag_202:\n        /* \"#utility.yul\":5811:5836   */\n      swap3\n      pop\n        /* \"#utility.yul\":5859:5860   */\n      dup3\n        /* \"#utility.yul\":5856:5857   */\n      dup3\n        /* \"#utility.yul\":5852:5861   */\n      add\n        /* \"#utility.yul\":5845:5861   */\n      swap1\n      pop\n        /* \"#utility.yul\":5880:5883   */\n      dup1\n        /* \"#utility.yul\":5877:5878   */\n      dup3\n        /* \"#utility.yul\":5874:5884   */\n      gt\n        /* \"#utility.yul\":5871:5907   */\n      iszero\n      tag_203\n      jumpi\n        /* \"#utility.yul\":5887:5905   */\n      tag_204\n      tag_132\n      jump\t// in\n    tag_204:\n        /* \"#utility.yul\":5871:5907   */\n    tag_203:\n        /* \"#utility.yul\":5723:5914   */\n      swap3\n      swap2\n      pop\n      pop\n      jump\t// out\n        /* \"#utility.yul\":5920:6362   */\n    tag_70:\n        /* \"#utility.yul\":6069:6073   */\n      0x00\n        /* \"#utility.yul\":6107:6109   */\n      0x60\n        /* \"#utility.yul\":6096:6105   */\n      dup3\n        /* \"#utility.yul\":6092:6110   */\n      add\n        /* \"#utility.yul\":6084:6110   */\n      swap1\n      pop\n        /* \"#utility.yul\":6120:6191   */\n      tag_206\n        /* \"#utility.yul\":6188:6189   */\n      0x00\n        /* \"#utility.yul\":6177:6186   */\n      dup4\n        /* \"#utility.yul\":6173:6190   */\n      add\n        /* \"#utility.yul\":6164:6170   */\n      dup7\n        /* \"#utility.yul\":6120:6191   */\n      tag_118\n      jump\t// in\n    tag_206:\n        /* \"#utility.yul\":6201:6273   */\n      tag_207\n        /* \"#utility.yul\":6269:6271   */\n      0x20\n        /* \"#utility.yul\":6258:6267   */\n      dup4\n        /* \"#utility.yul\":6254:6272   */\n      add\n        /* \"#utility.yul\":6245:6251   */\n      dup6\n        /* \"#utility.yul\":6201:6273   */\n      tag_118\n      jump\t// in\n    tag_207:\n        /* \"#utility.yul\":6283:6355   */\n      tag_208\n        /* \"#utility.yul\":6351:6353   */\n      0x40\n        /* \"#utility.yul\":6340:6349   */\n      dup4\n        /* \"#utility.yul\":6336:6354   */\n      add\n        /* \"#utility.yul\":6327:6333   */\n      dup5\n        /* \"#utility.yul\":6283:6355   */\n      tag_118\n      jump\t// in\n    tag_208:\n        /* \"#utility.yul\":5920:6362   */\n      swap5\n      swap4\n      pop\n      pop\n      pop\n      pop\n      jump\t// out\n        /* \"#utility.yul\":6368:6542   */\n    tag_133:\n        /* \"#utility.yul\":6508:6534   */\n      0x496e76616c696420747265617375727920616464726573730000000000000000\n        /* \"#utility.yul\":6504:6505   */\n      0x00\n        /* \"#utility.yul\":6496:6502   */\n      dup3\n        /* \"#utility.yul\":6492:6506   */\n      add\n        /* \"#utility.yul\":6485:6535   */\n      mstore\n        /* \"#utility.yul\":6368:6542   */\n      pop\n      jump\t// out\n        /* \"#utility.yul\":6548:6914   */\n    tag_134:\n        /* \"#utility.yul\":6690:6693   */\n      0x00\n        /* \"#utility.yul\":6711:6778   */\n      tag_211\n        /* \"#utility.yul\":6775:6777   */\n      0x18\n        /* \"#utility.yul\":6770:6773   */\n      dup4\n        /* \"#utility.yul\":6711:6778   */\n      tag_129\n      jump\t// in\n    tag_211:\n        /* \"#utility.yul\":6704:6778   */\n      swap2\n      pop\n        /* \"#utility.yul\":6787:6880   */\n      tag_212\n        /* \"#utility.yul\":6876:6879   */\n      dup3\n        /* \"#utility.yul\":6787:6880   */\n      tag_133\n      jump\t// in\n    tag_212:\n        /* \"#utility.yul\":6905:6907   */\n      0x20\n        /* \"#utility.yul\":6900:6903   */\n      dup3\n        /* \"#utility.yul\":6896:6908   */\n      add\n        /* \"#utility.yul\":6889:6908   */\n      swap1\n      pop\n        /* \"#utility.yul\":6548:6914   */\n      swap2\n      swap1\n      pop\n      jump\t// out\n        /* \"#utility.yul\":6920:7339   */\n    tag_84:\n        /* \"#utility.yul\":7086:7090   */\n      0x00\n        /* \"#utility.yul\":7124:7126   */\n      0x20\n        /* \"#utility.yul\":7113:7122   */\n      dup3\n        /* \"#utility.yul\":7109:7127   */\n      add\n        /* \"#utility.yul\":7101:7127   */\n      swap1\n      pop\n        /* \"#utility.yul\":7173:7182   */\n      dup2\n        /* \"#utility.yul\":7167:7171   */\n      dup2\n        /* \"#utility.yul\":7163:7183   */\n      sub\n        /* \"#utility.yul\":7159:7160   */\n      0x00\n        /* \"#utility.yul\":7148:7157   */\n      dup4\n        /* \"#utility.yul\":7144:7161   */\n      add\n        /* \"#utility.yul\":7137:7184   */\n      mstore\n        /* \"#utility.yul\":7201:7332   */\n      tag_214\n        /* \"#utility.yul\":7327:7331   */\n      dup2\n        /* \"#utility.yul\":7201:7332   */\n      tag_134\n      jump\t// in\n    tag_214:\n        /* \"#utility.yul\":7193:7332   */\n      swap1\n      pop\n        /* \"#utility.yul\":6920:7339   */\n      swap2\n      swap1\n      pop\n      jump\t// out\n\n    auxdata: 0xa26469706673582212204983237492eed9ec1e0887d7b59374302078e2619cfb3a662b5d3ccb1eec3f9264736f6c634300081f0033\n}\n",
				"bytecode": {
					"linkReferences": {},
					"object": "608060405268056bc75e2d63100000600455681b1ae4d6e2ef500000600555348015610029575f5ffd5b5060405161102f38038061102f833981810160405281019061004b9190610355565b335f73ffffffffffffffffffffffffffffffffffffffff168173ffffffffffffffffffffffffffffffffffffffff16036100bc575f6040517f1e4fbdf70000000000000000000000000000000000000000000000000000000081526004016100b391906103a2565b60405180910390fd5b6100cb8161023660201b60201c565b50600180819055505f73ffffffffffffffffffffffffffffffffffffffff168273ffffffffffffffffffffffffffffffffffffffff1603610141576040517f08c379a000000000000000000000000000000000000000000000000000000000815260040161013890610415565b60405180910390fd5b5f73ffffffffffffffffffffffffffffffffffffffff168173ffffffffffffffffffffffffffffffffffffffff16036101af576040517f08c379a00000000000000000000000000000000000000000000000000000000081526004016101a69061047d565b60405180910390fd5b8160025f6101000a81548173ffffffffffffffffffffffffffffffffffffffff021916908373ffffffffffffffffffffffffffffffffffffffff1602179055508060035f6101000a81548173ffffffffffffffffffffffffffffffffffffffff021916908373ffffffffffffffffffffffffffffffffffffffff160217905550505061049b565b5f5f5f9054906101000a900473ffffffffffffffffffffffffffffffffffffffff169050815f5f6101000a81548173ffffffffffffffffffffffffffffffffffffffff021916908373ffffffffffffffffffffffffffffffffffffffff1602179055508173ffffffffffffffffffffffffffffffffffffffff168173ffffffffffffffffffffffffffffffffffffffff167f8be0079c531659141344cd1fd0a4f28419497f9722a3daafe3b4186f6b6457e060405160405180910390a35050565b5f5ffd5b5f73ffffffffffffffffffffffffffffffffffffffff82169050919050565b5f610324826102fb565b9050919050565b6103348161031a565b811461033e575f5ffd5b50565b5f8151905061034f8161032b565b92915050565b5f5f6040838503121561036b5761036a6102f7565b5b5f61037885828601610341565b925050602061038985828601610341565b9150509250929050565b61039c8161031a565b82525050565b5f6020820190506103b55f830184610393565b92915050565b5f82825260208201905092915050565b7f496e76616c696420746f6b656e206164647265737300000000000000000000005f82015250565b5f6103ff6015836103bb565b915061040a826103cb565b602082019050919050565b5f6020820190508181035f83015261042c816103f3565b9050919050565b7f496e76616c6964207472656173757279206164647265737300000000000000005f82015250565b5f6104676018836103bb565b915061047282610433565b602082019050919050565b5f6020820190508181035f8301526104948161045b565b9050919050565b610b87806104a85f395ff3fe608060405234801561000f575f5ffd5b506004361061009c575f3560e01c80638455d8d5116100645780638455d8d51461011e5780638da5cb5b1461013c578063ac6510be1461015a578063f0f4426014610178578063f2fde38b146101945761009c565b806305fefda7146100a05780630abc747c146100bc57806321d7dc3d146100da57806361d027b3146100f6578063715018a614610114575b5f5ffd5b6100ba60048036038101906100b591906107ed565b6101b0565b005b6100c4610203565b6040516100d1919061083a565b60405180910390f35b6100f460048036038101906100ef91906107ed565b610209565b005b6100fe610354565b60405161010b9190610892565b60405180910390f35b61011c610379565b005b61012661038c565b6040516101339190610906565b60405180910390f35b6101446103b1565b6040516101519190610892565b60405180910390f35b6101626103d8565b60405161016f919061083a565b60405180910390f35b610192600480360381019061018d9190610949565b6103de565b005b6101ae60048036038101906101a99190610949565b6104ce565b005b6101b8610552565b81600481905550806005819055507f6546f60f34df611fa42503098acc39d5ab88bc73febe64b3cc14e5a92e3a66a782826040516101f7929190610974565b60405180910390a15050565b60055481565b6102116105d9565b5f82118061021e57505f81115b61025d576040517f08c379a0000000000000000000000000000000000000000000000000000000008152600401610254906109f5565b60405180910390fd5b5f6005548261026c9190610a40565b6004548461027a9190610a40565b6102849190610a81565b90506102f53360035f9054906101000a900473ffffffffffffffffffffffffffffffffffffffff168360025f9054906101000a900473ffffffffffffffffffffffffffffffffffffffff1673ffffffffffffffffffffffffffffffffffffffff1661061f909392919063ffffffff16565b3373ffffffffffffffffffffffffffffffffffffffff167f9d357202c083ccb2d1379a9af250503bb1cda8e0402c1093fab74b83dd8af89b84848460405161033f93929190610ab4565b60405180910390a250610350610674565b5050565b60035f9054906101000a900473ffffffffffffffffffffffffffffffffffffffff1681565b610381610552565b61038a5f61067d565b565b60025f9054906101000a900473ffffffffffffffffffffffffffffffffffffffff1681565b5f5f5f9054906101000a900473ffffffffffffffffffffffffffffffffffffffff16905090565b60045481565b6103e6610552565b5f73ffffffffffffffffffffffffffffffffffffffff168173ffffffffffffffffffffffffffffffffffffffff1603610454576040517f08c379a000000000000000000000000000000000000000000000000000000000815260040161044b90610b33565b60405180910390fd5b8060035f6101000a81548173ffffffffffffffffffffffffffffffffffffffff021916908373ffffffffffffffffffffffffffffffffffffffff1602179055507f7dae230f18360d76a040c81f050aa14eb9d6dc7901b20fc5d855e2a20fe814d1816040516104c39190610892565b60405180910390a150565b6104d6610552565b5f73ffffffffffffffffffffffffffffffffffffffff168173ffffffffffffffffffffffffffffffffffffffff1603610546575f6040517f1e4fbdf700000000000000000000000000000000000000000000000000000000815260040161053d9190610892565b60405180910390fd5b61054f8161067d565b50565b61055a61073e565b73ffffffffffffffffffffffffffffffffffffffff166105786103b1565b73ffffffffffffffffffffffffffffffffffffffff16146105d75761059b61073e565b6040517f118cdaa70000000000000000000000000000000000000000000000000000000081526004016105ce9190610892565b60405180910390fd5b565b600260015403610615576040517f3ee5aeb500000000000000000000000000000000000000000000000000000000815260040160405180910390fd5b6002600181905550565b61062d848484846001610745565b61066e57836040517f5274afe70000000000000000000000000000000000000000000000000000000081526004016106659190610892565b60405180910390fd5b50505050565b60018081905550565b5f5f5f9054906101000a900473ffffffffffffffffffffffffffffffffffffffff169050815f5f6101000a81548173ffffffffffffffffffffffffffffffffffffffff021916908373ffffffffffffffffffffffffffffffffffffffff1602179055508173ffffffffffffffffffffffffffffffffffffffff168173ffffffffffffffffffffffffffffffffffffffff167f8be0079c531659141344cd1fd0a4f28419497f9722a3daafe3b4186f6b6457e060405160405180910390a35050565b5f33905090565b5f5f6323b872dd60e01b9050604051815f525f1960601c87166004525f1960601c86166024528460445260205f60645f5f8c5af1925060015f511483166107a3578383151615610797573d5f823e3d81fd5b5f883b113d1516831692505b806040525f606052505095945050505050565b5f5ffd5b5f819050919050565b6107cc816107ba565b81146107d6575f5ffd5b50565b5f813590506107e7816107c3565b92915050565b5f5f60408385031215610803576108026107b6565b5b5f610810858286016107d9565b9250506020610821858286016107d9565b9150509250929050565b610834816107ba565b82525050565b5f60208201905061084d5f83018461082b565b92915050565b5f73ffffffffffffffffffffffffffffffffffffffff82169050919050565b5f61087c82610853565b9050919050565b61088c81610872565b82525050565b5f6020820190506108a55f830184610883565b92915050565b5f819050919050565b5f6108ce6108c96108c484610853565b6108ab565b610853565b9050919050565b5f6108df826108b4565b9050919050565b5f6108f0826108d5565b9050919050565b610900816108e6565b82525050565b5f6020820190506109195f8301846108f7565b92915050565b61092881610872565b8114610932575f5ffd5b50565b5f813590506109438161091f565b92915050565b5f6020828403121561095e5761095d6107b6565b5b5f61096b84828501610935565b91505092915050565b5f6040820190506109875f83018561082b565b610994602083018461082b565b9392505050565b5f82825260208201905092915050565b7f4d75737420627579206174206c65617374206f6e65206974656d0000000000005f82015250565b5f6109df601a8361099b565b91506109ea826109ab565b602082019050919050565b5f6020820190508181035f830152610a0c816109d3565b9050919050565b7f4e487b71000000000000000000000000000000000000000000000000000000005f52601160045260245ffd5b5f610a4a826107ba565b9150610a55836107ba565b9250828202610a63816107ba565b91508282048414831517610a7a57610a79610a13565b5b5092915050565b5f610a8b826107ba565b9150610a96836107ba565b9250828201905080821115610aae57610aad610a13565b5b92915050565b5f606082019050610ac75f83018661082b565b610ad4602083018561082b565b610ae1604083018461082b565b949350505050565b7f496e76616c6964207472656173757279206164647265737300000000000000005f82015250565b5f610b1d60188361099b565b9150610b2882610ae9565b602082019050919050565b5f6020820190508181035f830152610b4a81610b11565b905091905056fea26469706673582212204983237492eed9ec1e0887d7b59374302078e2619cfb3a662b5d3ccb1eec3f9264736f6c634300081f0033",
					"opcodes": "PUSH1 0x80 PUSH1 0x40 MSTORE PUSH9 0x56BC75E2D63100000 PUSH1 0x4 SSTORE PUSH9 0x1B1AE4D6E2EF500000 PUSH1 0x5 SSTORE CALLVALUE DUP1 ISZERO PUSH2 0x29 JUMPI PUSH0 PUSH0 REVERT JUMPDEST POP PUSH1 0x40 MLOAD PUSH2 0x102F CODESIZE SUB DUP1 PUSH2 0x102F DUP4 CODECOPY DUP2 DUP2 ADD PUSH1 0x40 MSTORE DUP2 ADD SWAP1 PUSH2 0x4B SWAP2 SWAP1 PUSH2 0x355 JUMP JUMPDEST CALLER PUSH0 PUSH20 0xFFFFFFFFFFFFFFFFFFFFFFFFFFFFFFFFFFFFFFFF AND DUP2 PUSH20 0xFFFFFFFFFFFFFFFFFFFFFFFFFFFFFFFFFFFFFFFF AND SUB PUSH2 0xBC JUMPI PUSH0 PUSH1 0x40 MLOAD PUSH32 0x1E4FBDF700000000000000000000000000000000000000000000000000000000 DUP2 MSTORE PUSH1 0x4 ADD PUSH2 0xB3 SWAP2 SWAP1 PUSH2 0x3A2 JUMP JUMPDEST PUSH1 0x40 MLOAD DUP1 SWAP2 SUB SWAP1 REVERT JUMPDEST PUSH2 0xCB DUP2 PUSH2 0x236 PUSH1 0x20 SHL PUSH1 0x20 SHR JUMP JUMPDEST POP PUSH1 0x1 DUP1 DUP2 SWAP1 SSTORE POP PUSH0 PUSH20 0xFFFFFFFFFFFFFFFFFFFFFFFFFFFFFFFFFFFFFFFF AND DUP3 PUSH20 0xFFFFFFFFFFFFFFFFFFFFFFFFFFFFFFFFFFFFFFFF AND SUB PUSH2 0x141 JUMPI PUSH1 0x40 MLOAD PUSH32 0x8C379A000000000000000000000000000000000000000000000000000000000 DUP2 MSTORE PUSH1 0x4 ADD PUSH2 0x138 SWAP1 PUSH2 0x415 JUMP JUMPDEST PUSH1 0x40 MLOAD DUP1 SWAP2 SUB SWAP1 REVERT JUMPDEST PUSH0 PUSH20 0xFFFFFFFFFFFFFFFFFFFFFFFFFFFFFFFFFFFFFFFF AND DUP2 PUSH20 0xFFFFFFFFFFFFFFFFFFFFFFFFFFFFFFFFFFFFFFFF AND SUB PUSH2 0x1AF JUMPI PUSH1 0x40 MLOAD PUSH32 0x8C379A000000000000000000000000000000000000000000000000000000000 DUP2 MSTORE PUSH1 0x4 ADD PUSH2 0x1A6 SWAP1 PUSH2 0x47D JUMP JUMPDEST PUSH1 0x40 MLOAD DUP1 SWAP2 SUB SWAP1 REVERT JUMPDEST DUP2 PUSH1 0x2 PUSH0 PUSH2 0x100 EXP DUP2 SLOAD DUP2 PUSH20 0xFFFFFFFFFFFFFFFFFFFFFFFFFFFFFFFFFFFFFFFF MUL NOT AND SWAP1 DUP4 PUSH20 0xFFFFFFFFFFFFFFFFFFFFFFFFFFFFFFFFFFFFFFFF AND MUL OR SWAP1 SSTORE POP DUP1 PUSH1 0x3 PUSH0 PUSH2 0x100 EXP DUP2 SLOAD DUP2 PUSH20 0xFFFFFFFFFFFFFFFFFFFFFFFFFFFFFFFFFFFFFFFF MUL NOT AND SWAP1 DUP4 PUSH20 0xFFFFFFFFFFFFFFFFFFFFFFFFFFFFFFFFFFFFFFFF AND MUL OR SWAP1 SSTORE POP POP POP PUSH2 0x49B JUMP JUMPDEST PUSH0 PUSH0 PUSH0 SWAP1 SLOAD SWAP1 PUSH2 0x100 EXP SWAP1 DIV PUSH20 0xFFFFFFFFFFFFFFFFFFFFFFFFFFFFFFFFFFFFFFFF AND SWAP1 POP DUP2 PUSH0 PUSH0 PUSH2 0x100 EXP DUP2 SLOAD DUP2 PUSH20 0xFFFFFFFFFFFFFFFFFFFFFFFFFFFFFFFFFFFFFFFF MUL NOT AND SWAP1 DUP4 PUSH20 0xFFFFFFFFFFFFFFFFFFFFFFFFFFFFFFFFFFFFFFFF AND MUL OR SWAP1 SSTORE POP DUP2 PUSH20 0xFFFFFFFFFFFFFFFFFFFFFFFFFFFFFFFFFFFFFFFF AND DUP2 PUSH20 0xFFFFFFFFFFFFFFFFFFFFFFFFFFFFFFFFFFFFFFFF AND PUSH32 0x8BE0079C531659141344CD1FD0A4F28419497F9722A3DAAFE3B4186F6B6457E0 PUSH1 0x40 MLOAD PUSH1 0x40 MLOAD DUP1 SWAP2 SUB SWAP1 LOG3 POP POP JUMP JUMPDEST PUSH0 PUSH0 REVERT JUMPDEST PUSH0 PUSH20 0xFFFFFFFFFFFFFFFFFFFFFFFFFFFFFFFFFFFFFFFF DUP3 AND SWAP1 POP SWAP2 SWAP1 POP JUMP JUMPDEST PUSH0 PUSH2 0x324 DUP3 PUSH2 0x2FB JUMP JUMPDEST SWAP1 POP SWAP2 SWAP1 POP JUMP JUMPDEST PUSH2 0x334 DUP2 PUSH2 0x31A JUMP JUMPDEST DUP2 EQ PUSH2 0x33E JUMPI PUSH0 PUSH0 REVERT JUMPDEST POP JUMP JUMPDEST PUSH0 DUP2 MLOAD SWAP1 POP PUSH2 0x34F DUP2 PUSH2 0x32B JUMP JUMPDEST SWAP3 SWAP2 POP POP JUMP JUMPDEST PUSH0 PUSH0 PUSH1 0x40 DUP4 DUP6 SUB SLT ISZERO PUSH2 0x36B JUMPI PUSH2 0x36A PUSH2 0x2F7 JUMP JUMPDEST JUMPDEST PUSH0 PUSH2 0x378 DUP6 DUP3 DUP7 ADD PUSH2 0x341 JUMP JUMPDEST SWAP3 POP POP PUSH1 0x20 PUSH2 0x389 DUP6 DUP3 DUP7 ADD PUSH2 0x341 JUMP JUMPDEST SWAP2 POP POP SWAP3 POP SWAP3 SWAP1 POP JUMP JUMPDEST PUSH2 0x39C DUP2 PUSH2 0x31A JUMP JUMPDEST DUP3 MSTORE POP POP JUMP JUMPDEST PUSH0 PUSH1 0x20 DUP3 ADD SWAP1 POP PUSH2 0x3B5 PUSH0 DUP4 ADD DUP5 PUSH2 0x393 JUMP JUMPDEST SWAP3 SWAP2 POP POP JUMP JUMPDEST PUSH0 DUP3 DUP3 MSTORE PUSH1 0x20 DUP3 ADD SWAP1 POP SWAP3 SWAP2 POP POP JUMP JUMPDEST PUSH32 0x496E76616C696420746F6B656E20616464726573730000000000000000000000 PUSH0 DUP3 ADD MSTORE POP JUMP JUMPDEST PUSH0 PUSH2 0x3FF PUSH1 0x15 DUP4 PUSH2 0x3BB JUMP JUMPDEST SWAP2 POP PUSH2 0x40A DUP3 PUSH2 0x3CB JUMP JUMPDEST PUSH1 0x20 DUP3 ADD SWAP1 POP SWAP2 SWAP1 POP JUMP JUMPDEST PUSH0 PUSH1 0x20 DUP3 ADD SWAP1 POP DUP2 DUP2 SUB PUSH0 DUP4 ADD MSTORE PUSH2 0x42C DUP2 PUSH2 0x3F3 JUMP JUMPDEST SWAP1 POP SWAP2 SWAP1 POP JUMP JUMPDEST PUSH32 0x496E76616C696420747265617375727920616464726573730000000000000000 PUSH0 DUP3 ADD MSTORE POP JUMP JUMPDEST PUSH0 PUSH2 0x467 PUSH1 0x18 DUP4 PUSH2 0x3BB JUMP JUMPDEST SWAP2 POP PUSH2 0x472 DUP3 PUSH2 0x433 JUMP JUMPDEST PUSH1 0x20 DUP3 ADD SWAP1 POP SWAP2 SWAP1 POP JUMP JUMPDEST PUSH0 PUSH1 0x20 DUP3 ADD SWAP1 POP DUP2 DUP2 SUB PUSH0 DUP4 ADD MSTORE PUSH2 0x494 DUP2 PUSH2 0x45B JUMP JUMPDEST SWAP1 POP SWAP2 SWAP1 POP JUMP JUMPDEST PUSH2 0xB87 DUP1 PUSH2 0x4A8 PUSH0 CODECOPY PUSH0 RETURN INVALID PUSH1 0x80 PUSH1 0x40 MSTORE CALLVALUE DUP1 ISZERO PUSH2 0xF JUMPI PUSH0 PUSH0 REVERT JUMPDEST POP PUSH1 0x4 CALLDATASIZE LT PUSH2 0x9C JUMPI PUSH0 CALLDATALOAD PUSH1 0xE0 SHR DUP1 PUSH4 0x8455D8D5 GT PUSH2 0x64 JUMPI DUP1 PUSH4 0x8455D8D5 EQ PUSH2 0x11E JUMPI DUP1 PUSH4 0x8DA5CB5B EQ PUSH2 0x13C JUMPI DUP1 PUSH4 0xAC6510BE EQ PUSH2 0x15A JUMPI DUP1 PUSH4 0xF0F44260 EQ PUSH2 0x178 JUMPI DUP1 PUSH4 0xF2FDE38B EQ PUSH2 0x194 JUMPI PUSH2 0x9C JUMP JUMPDEST DUP1 PUSH4 0x5FEFDA7 EQ PUSH2 0xA0 JUMPI DUP1 PUSH4 0xABC747C EQ PUSH2 0xBC JUMPI DUP1 PUSH4 0x21D7DC3D EQ PUSH2 0xDA JUMPI DUP1 PUSH4 0x61D027B3 EQ PUSH2 0xF6 JUMPI DUP1 PUSH4 0x715018A6 EQ PUSH2 0x114 JUMPI JUMPDEST PUSH0 PUSH0 REVERT JUMPDEST PUSH2 0xBA PUSH1 0x4 DUP1 CALLDATASIZE SUB DUP2 ADD SWAP1 PUSH2 0xB5 SWAP2 SWAP1 PUSH2 0x7ED JUMP JUMPDEST PUSH2 0x1B0 JUMP JUMPDEST STOP JUMPDEST PUSH2 0xC4 PUSH2 0x203 JUMP JUMPDEST PUSH1 0x40 MLOAD PUSH2 0xD1 SWAP2 SWAP1 PUSH2 0x83A JUMP JUMPDEST PUSH1 0x40 MLOAD DUP1 SWAP2 SUB SWAP1 RETURN JUMPDEST PUSH2 0xF4 PUSH1 0x4 DUP1 CALLDATASIZE SUB DUP2 ADD SWAP1 PUSH2 0xEF SWAP2 SWAP1 PUSH2 0x7ED JUMP JUMPDEST PUSH2 0x209 JUMP JUMPDEST STOP JUMPDEST PUSH2 0xFE PUSH2 0x354 JUMP JUMPDEST PUSH1 0x40 MLOAD PUSH2 0x10B SWAP2 SWAP1 PUSH2 0x892 JUMP JUMPDEST PUSH1 0x40 MLOAD DUP1 SWAP2 SUB SWAP1 RETURN JUMPDEST PUSH2 0x11C PUSH2 0x379 JUMP JUMPDEST STOP JUMPDEST PUSH2 0x126 PUSH2 0x38C JUMP JUMPDEST PUSH1 0x40 MLOAD PUSH2 0x133 SWAP2 SWAP1 PUSH2 0x906 JUMP JUMPDEST PUSH1 0x40 MLOAD DUP1 SWAP2 SUB SWAP1 RETURN JUMPDEST PUSH2 0x144 PUSH2 0x3B1 JUMP JUMPDEST PUSH1 0x40 MLOAD PUSH2 0x151 SWAP2 SWAP1 PUSH2 0x892 JUMP JUMPDEST PUSH1 0x40 MLOAD DUP1 SWAP2 SUB SWAP1 RETURN JUMPDEST PUSH2 0x162 PUSH2 0x3D8 JUMP JUMPDEST PUSH1 0x40 MLOAD PUSH2 0x16F SWAP2 SWAP1 PUSH2 0x83A JUMP JUMPDEST PUSH1 0x40 MLOAD DUP1 SWAP2 SUB SWAP1 RETURN JUMPDEST PUSH2 0x192 PUSH1 0x4 DUP1 CALLDATASIZE SUB DUP2 ADD SWAP1 PUSH2 0x18D SWAP2 SWAP1 PUSH2 0x949 JUMP JUMPDEST PUSH2 0x3DE JUMP JUMPDEST STOP JUMPDEST PUSH2 0x1AE PUSH1 0x4 DUP1 CALLDATASIZE SUB DUP2 ADD SWAP1 PUSH2 0x1A9 SWAP2 SWAP1 PUSH2 0x949 JUMP JUMPDEST PUSH2 0x4CE JUMP JUMPDEST STOP JUMPDEST PUSH2 0x1B8 PUSH2 0x552 JUMP JUMPDEST DUP2 PUSH1 0x4 DUP2 SWAP1 SSTORE POP DUP1 PUSH1 0x5 DUP2 SWAP1 SSTORE POP PUSH32 0x6546F60F34DF611FA42503098ACC39D5AB88BC73FEBE64B3CC14E5A92E3A66A7 DUP3 DUP3 PUSH1 0x40 MLOAD PUSH2 0x1F7 SWAP3 SWAP2 SWAP1 PUSH2 0x974 JUMP JUMPDEST PUSH1 0x40 MLOAD DUP1 SWAP2 SUB SWAP1 LOG1 POP POP JUMP JUMPDEST PUSH1 0x5 SLOAD DUP2 JUMP JUMPDEST PUSH2 0x211 PUSH2 0x5D9 JUMP JUMPDEST PUSH0 DUP3 GT DUP1 PUSH2 0x21E JUMPI POP PUSH0 DUP2 GT JUMPDEST PUSH2 0x25D JUMPI PUSH1 0x40 MLOAD PUSH32 0x8C379A000000000000000000000000000000000000000000000000000000000 DUP2 MSTORE PUSH1 0x4 ADD PUSH2 0x254 SWAP1 PUSH2 0x9F5 JUMP JUMPDEST PUSH1 0x40 MLOAD DUP1 SWAP2 SUB SWAP1 REVERT JUMPDEST PUSH0 PUSH1 0x5 SLOAD DUP3 PUSH2 0x26C SWAP2 SWAP1 PUSH2 0xA40 JUMP JUMPDEST PUSH1 0x4 SLOAD DUP5 PUSH2 0x27A SWAP2 SWAP1 PUSH2 0xA40 JUMP JUMPDEST PUSH2 0x284 SWAP2 SWAP1 PUSH2 0xA81 JUMP JUMPDEST SWAP1 POP PUSH2 0x2F5 CALLER PUSH1 0x3 PUSH0 SWAP1 SLOAD SWAP1 PUSH2 0x100 EXP SWAP1 DIV PUSH20 0xFFFFFFFFFFFFFFFFFFFFFFFFFFFFFFFFFFFFFFFF AND DUP4 PUSH1 0x2 PUSH0 SWAP1 SLOAD SWAP1 PUSH2 0x100 EXP SWAP1 DIV PUSH20 0xFFFFFFFFFFFFFFFFFFFFFFFFFFFFFFFFFFFFFFFF AND PUSH20 0xFFFFFFFFFFFFFFFFFFFFFFFFFFFFFFFFFFFFFFFF AND PUSH2 0x61F SWAP1 SWAP4 SWAP3 SWAP2 SWAP1 PUSH4 0xFFFFFFFF AND JUMP JUMPDEST CALLER PUSH20 0xFFFFFFFFFFFFFFFFFFFFFFFFFFFFFFFFFFFFFFFF AND PUSH32 0x9D357202C083CCB2D1379A9AF250503BB1CDA8E0402C1093FAB74B83DD8AF89B DUP5 DUP5 DUP5 PUSH1 0x40 MLOAD PUSH2 0x33F SWAP4 SWAP3 SWAP2 SWAP1 PUSH2 0xAB4 JUMP JUMPDEST PUSH1 0x40 MLOAD DUP1 SWAP2 SUB SWAP1 LOG2 POP PUSH2 0x350 PUSH2 0x674 JUMP JUMPDEST POP POP JUMP JUMPDEST PUSH1 0x3 PUSH0 SWAP1 SLOAD SWAP1 PUSH2 0x100 EXP SWAP1 DIV PUSH20 0xFFFFFFFFFFFFFFFFFFFFFFFFFFFFFFFFFFFFFFFF AND DUP2 JUMP JUMPDEST PUSH2 0x381 PUSH2 0x552 JUMP JUMPDEST PUSH2 0x38A PUSH0 PUSH2 0x67D JUMP JUMPDEST JUMP JUMPDEST PUSH1 0x2 PUSH0 SWAP1 SLOAD SWAP1 PUSH2 0x100 EXP SWAP1 DIV PUSH20 0xFFFFFFFFFFFFFFFFFFFFFFFFFFFFFFFFFFFFFFFF AND DUP2 JUMP JUMPDEST PUSH0 PUSH0 PUSH0 SWAP1 SLOAD SWAP1 PUSH2 0x100 EXP SWAP1 DIV PUSH20 0xFFFFFFFFFFFFFFFFFFFFFFFFFFFFFFFFFFFFFFFF AND SWAP1 POP SWAP1 JUMP JUMPDEST PUSH1 0x4 SLOAD DUP2 JUMP JUMPDEST PUSH2 0x3E6 PUSH2 0x552 JUMP JUMPDEST PUSH0 PUSH20 0xFFFFFFFFFFFFFFFFFFFFFFFFFFFFFFFFFFFFFFFF AND DUP2 PUSH20 0xFFFFFFFFFFFFFFFFFFFFFFFFFFFFFFFFFFFFFFFF AND SUB PUSH2 0x454 JUMPI PUSH1 0x40 MLOAD PUSH32 0x8C379A000000000000000000000000000000000000000000000000000000000 DUP2 MSTORE PUSH1 0x4 ADD PUSH2 0x44B SWAP1 PUSH2 0xB33 JUMP JUMPDEST PUSH1 0x40 MLOAD DUP1 SWAP2 SUB SWAP1 REVERT JUMPDEST DUP1 PUSH1 0x3 PUSH0 PUSH2 0x100 EXP DUP2 SLOAD DUP2 PUSH20 0xFFFFFFFFFFFFFFFFFFFFFFFFFFFFFFFFFFFFFFFF MUL NOT AND SWAP1 DUP4 PUSH20 0xFFFFFFFFFFFFFFFFFFFFFFFFFFFFFFFFFFFFFFFF AND MUL OR SWAP1 SSTORE POP PUSH32 0x7DAE230F18360D76A040C81F050AA14EB9D6DC7901B20FC5D855E2A20FE814D1 DUP2 PUSH1 0x40 MLOAD PUSH2 0x4C3 SWAP2 SWAP1 PUSH2 0x892 JUMP JUMPDEST PUSH1 0x40 MLOAD DUP1 SWAP2 SUB SWAP1 LOG1 POP JUMP JUMPDEST PUSH2 0x4D6 PUSH2 0x552 JUMP JUMPDEST PUSH0 PUSH20 0xFFFFFFFFFFFFFFFFFFFFFFFFFFFFFFFFFFFFFFFF AND DUP2 PUSH20 0xFFFFFFFFFFFFFFFFFFFFFFFFFFFFFFFFFFFFFFFF AND SUB PUSH2 0x546 JUMPI PUSH0 PUSH1 0x40 MLOAD PUSH32 0x1E4FBDF700000000000000000000000000000000000000000000000000000000 DUP2 MSTORE PUSH1 0x4 ADD PUSH2 0x53D SWAP2 SWAP1 PUSH2 0x892 JUMP JUMPDEST PUSH1 0x40 MLOAD DUP1 SWAP2 SUB SWAP1 REVERT JUMPDEST PUSH2 0x54F DUP2 PUSH2 0x67D JUMP JUMPDEST POP JUMP JUMPDEST PUSH2 0x55A PUSH2 0x73E JUMP JUMPDEST PUSH20 0xFFFFFFFFFFFFFFFFFFFFFFFFFFFFFFFFFFFFFFFF AND PUSH2 0x578 PUSH2 0x3B1 JUMP JUMPDEST PUSH20 0xFFFFFFFFFFFFFFFFFFFFFFFFFFFFFFFFFFFFFFFF AND EQ PUSH2 0x5D7 JUMPI PUSH2 0x59B PUSH2 0x73E JUMP JUMPDEST PUSH1 0x40 MLOAD PUSH32 0x118CDAA700000000000000000000000000000000000000000000000000000000 DUP2 MSTORE PUSH1 0x4 ADD PUSH2 0x5CE SWAP2 SWAP1 PUSH2 0x892 JUMP JUMPDEST PUSH1 0x40 MLOAD DUP1 SWAP2 SUB SWAP1 REVERT JUMPDEST JUMP JUMPDEST PUSH1 0x2 PUSH1 0x1 SLOAD SUB PUSH2 0x615 JUMPI PUSH1 0x40 MLOAD PUSH32 0x3EE5AEB500000000000000000000000000000000000000000000000000000000 DUP2 MSTORE PUSH1 0x4 ADD PUSH1 0x40 MLOAD DUP1 SWAP2 SUB SWAP1 REVERT JUMPDEST PUSH1 0x2 PUSH1 0x1 DUP2 SWAP1 SSTORE POP JUMP JUMPDEST PUSH2 0x62D DUP5 DUP5 DUP5 DUP5 PUSH1 0x1 PUSH2 0x745 JUMP JUMPDEST PUSH2 0x66E JUMPI DUP4 PUSH1 0x40 MLOAD PUSH32 0x5274AFE700000000000000000000000000000000000000000000000000000000 DUP2 MSTORE PUSH1 0x4 ADD PUSH2 0x665 SWAP2 SWAP1 PUSH2 0x892 JUMP JUMPDEST PUSH1 0x40 MLOAD DUP1 SWAP2 SUB SWAP1 REVERT JUMPDEST POP POP POP POP JUMP JUMPDEST PUSH1 0x1 DUP1 DUP2 SWAP1 SSTORE POP JUMP JUMPDEST PUSH0 PUSH0 PUSH0 SWAP1 SLOAD SWAP1 PUSH2 0x100 EXP SWAP1 DIV PUSH20 0xFFFFFFFFFFFFFFFFFFFFFFFFFFFFFFFFFFFFFFFF AND SWAP1 POP DUP2 PUSH0 PUSH0 PUSH2 0x100 EXP DUP2 SLOAD DUP2 PUSH20 0xFFFFFFFFFFFFFFFFFFFFFFFFFFFFFFFFFFFFFFFF MUL NOT AND SWAP1 DUP4 PUSH20 0xFFFFFFFFFFFFFFFFFFFFFFFFFFFFFFFFFFFFFFFF AND MUL OR SWAP1 SSTORE POP DUP2 PUSH20 0xFFFFFFFFFFFFFFFFFFFFFFFFFFFFFFFFFFFFFFFF AND DUP2 PUSH20 0xFFFFFFFFFFFFFFFFFFFFFFFFFFFFFFFFFFFFFFFF AND PUSH32 0x8BE0079C531659141344CD1FD0A4F28419497F9722A3DAAFE3B4186F6B6457E0 PUSH1 0x40 MLOAD PUSH1 0x40 MLOAD DUP1 SWAP2 SUB SWAP1 LOG3 POP POP JUMP JUMPDEST PUSH0 CALLER SWAP1 POP SWAP1 JUMP JUMPDEST PUSH0 PUSH0 PUSH4 0x23B872DD PUSH1 0xE0 SHL SWAP1 POP PUSH1 0x40 MLOAD DUP2 PUSH0 MSTORE PUSH0 NOT PUSH1 0x60 SHR DUP8 AND PUSH1 0x4 MSTORE PUSH0 NOT PUSH1 0x60 SHR DUP7 AND PUSH1 0x24 MSTORE DUP5 PUSH1 0x44 MSTORE PUSH1 0x20 PUSH0 PUSH1 0x64 PUSH0 PUSH0 DUP13 GAS CALL SWAP3 POP PUSH1 0x1 PUSH0 MLOAD EQ DUP4 AND PUSH2 0x7A3 JUMPI DUP4 DUP4 ISZERO AND ISZERO PUSH2 0x797 JUMPI RETURNDATASIZE PUSH0 DUP3 RETURNDATACOPY RETURNDATASIZE DUP2 REVERT JUMPDEST PUSH0 DUP9 EXTCODESIZE GT RETURNDATASIZE ISZERO AND DUP4 AND SWAP3 POP JUMPDEST DUP1 PUSH1 0x40 MSTORE PUSH0 PUSH1 0x60 MSTORE POP POP SWAP6 SWAP5 POP POP POP POP POP JUMP JUMPDEST PUSH0 PUSH0 REVERT JUMPDEST PUSH0 DUP2 SWAP1 POP SWAP2 SWAP1 POP JUMP JUMPDEST PUSH2 0x7CC DUP2 PUSH2 0x7BA JUMP JUMPDEST DUP2 EQ PUSH2 0x7D6 JUMPI PUSH0 PUSH0 REVERT JUMPDEST POP JUMP JUMPDEST PUSH0 DUP2 CALLDATALOAD SWAP1 POP PUSH2 0x7E7 DUP2 PUSH2 0x7C3 JUMP JUMPDEST SWAP3 SWAP2 POP POP JUMP JUMPDEST PUSH0 PUSH0 PUSH1 0x40 DUP4 DUP6 SUB SLT ISZERO PUSH2 0x803 JUMPI PUSH2 0x802 PUSH2 0x7B6 JUMP JUMPDEST JUMPDEST PUSH0 PUSH2 0x810 DUP6 DUP3 DUP7 ADD PUSH2 0x7D9 JUMP JUMPDEST SWAP3 POP POP PUSH1 0x20 PUSH2 0x821 DUP6 DUP3 DUP7 ADD PUSH2 0x7D9 JUMP JUMPDEST SWAP2 POP POP SWAP3 POP SWAP3 SWAP1 POP JUMP JUMPDEST PUSH2 0x834 DUP2 PUSH2 0x7BA JUMP JUMPDEST DUP3 MSTORE POP POP JUMP JUMPDEST PUSH0 PUSH1 0x20 DUP3 ADD SWAP1 POP PUSH2 0x84D PUSH0 DUP4 ADD DUP5 PUSH2 0x82B JUMP JUMPDEST SWAP3 SWAP2 POP POP JUMP JUMPDEST PUSH0 PUSH20 0xFFFFFFFFFFFFFFFFFFFFFFFFFFFFFFFFFFFFFFFF DUP3 AND SWAP1 POP SWAP2 SWAP1 POP JUMP JUMPDEST PUSH0 PUSH2 0x87C DUP3 PUSH2 0x853 JUMP JUMPDEST SWAP1 POP SWAP2 SWAP1 POP JUMP JUMPDEST PUSH2 0x88C DUP2 PUSH2 0x872 JUMP JUMPDEST DUP3 MSTORE POP POP JUMP JUMPDEST PUSH0 PUSH1 0x20 DUP3 ADD SWAP1 POP PUSH2 0x8A5 PUSH0 DUP4 ADD DUP5 PUSH2 0x883 JUMP JUMPDEST SWAP3 SWAP2 POP POP JUMP JUMPDEST PUSH0 DUP2 SWAP1 POP SWAP2 SWAP1 POP JUMP JUMPDEST PUSH0 PUSH2 0x8CE PUSH2 0x8C9 PUSH2 0x8C4 DUP5 PUSH2 0x853 JUMP JUMPDEST PUSH2 0x8AB JUMP JUMPDEST PUSH2 0x853 JUMP JUMPDEST SWAP1 POP SWAP2 SWAP1 POP JUMP JUMPDEST PUSH0 PUSH2 0x8DF DUP3 PUSH2 0x8B4 JUMP JUMPDEST SWAP1 POP SWAP2 SWAP1 POP JUMP JUMPDEST PUSH0 PUSH2 0x8F0 DUP3 PUSH2 0x8D5 JUMP JUMPDEST SWAP1 POP SWAP2 SWAP1 POP JUMP JUMPDEST PUSH2 0x900 DUP2 PUSH2 0x8E6 JUMP JUMPDEST DUP3 MSTORE POP POP JUMP JUMPDEST PUSH0 PUSH1 0x20 DUP3 ADD SWAP1 POP PUSH2 0x919 PUSH0 DUP4 ADD DUP5 PUSH2 0x8F7 JUMP JUMPDEST SWAP3 SWAP2 POP POP JUMP JUMPDEST PUSH2 0x928 DUP2 PUSH2 0x872 JUMP JUMPDEST DUP2 EQ PUSH2 0x932 JUMPI PUSH0 PUSH0 REVERT JUMPDEST POP JUMP JUMPDEST PUSH0 DUP2 CALLDATALOAD SWAP1 POP PUSH2 0x943 DUP2 PUSH2 0x91F JUMP JUMPDEST SWAP3 SWAP2 POP POP JUMP JUMPDEST PUSH0 PUSH1 0x20 DUP3 DUP5 SUB SLT ISZERO PUSH2 0x95E JUMPI PUSH2 0x95D PUSH2 0x7B6 JUMP JUMPDEST JUMPDEST PUSH0 PUSH2 0x96B DUP5 DUP3 DUP6 ADD PUSH2 0x935 JUMP JUMPDEST SWAP2 POP POP SWAP3 SWAP2 POP POP JUMP JUMPDEST PUSH0 PUSH1 0x40 DUP3 ADD SWAP1 POP PUSH2 0x987 PUSH0 DUP4 ADD DUP6 PUSH2 0x82B JUMP JUMPDEST PUSH2 0x994 PUSH1 0x20 DUP4 ADD DUP5 PUSH2 0x82B JUMP JUMPDEST SWAP4 SWAP3 POP POP POP JUMP JUMPDEST PUSH0 DUP3 DUP3 MSTORE PUSH1 0x20 DUP3 ADD SWAP1 POP SWAP3 SWAP2 POP POP JUMP JUMPDEST PUSH32 0x4D75737420627579206174206C65617374206F6E65206974656D000000000000 PUSH0 DUP3 ADD MSTORE POP JUMP JUMPDEST PUSH0 PUSH2 0x9DF PUSH1 0x1A DUP4 PUSH2 0x99B JUMP JUMPDEST SWAP2 POP PUSH2 0x9EA DUP3 PUSH2 0x9AB JUMP JUMPDEST PUSH1 0x20 DUP3 ADD SWAP1 POP SWAP2 SWAP1 POP JUMP JUMPDEST PUSH0 PUSH1 0x20 DUP3 ADD SWAP1 POP DUP2 DUP2 SUB PUSH0 DUP4 ADD MSTORE PUSH2 0xA0C DUP2 PUSH2 0x9D3 JUMP JUMPDEST SWAP1 POP SWAP2 SWAP1 POP JUMP JUMPDEST PUSH32 0x4E487B7100000000000000000000000000000000000000000000000000000000 PUSH0 MSTORE PUSH1 0x11 PUSH1 0x4 MSTORE PUSH1 0x24 PUSH0 REVERT JUMPDEST PUSH0 PUSH2 0xA4A DUP3 PUSH2 0x7BA JUMP JUMPDEST SWAP2 POP PUSH2 0xA55 DUP4 PUSH2 0x7BA JUMP JUMPDEST SWAP3 POP DUP3 DUP3 MUL PUSH2 0xA63 DUP2 PUSH2 0x7BA JUMP JUMPDEST SWAP2 POP DUP3 DUP3 DIV DUP5 EQ DUP4 ISZERO OR PUSH2 0xA7A JUMPI PUSH2 0xA79 PUSH2 0xA13 JUMP JUMPDEST JUMPDEST POP SWAP3 SWAP2 POP POP JUMP JUMPDEST PUSH0 PUSH2 0xA8B DUP3 PUSH2 0x7BA JUMP JUMPDEST SWAP2 POP PUSH2 0xA96 DUP4 PUSH2 0x7BA JUMP JUMPDEST SWAP3 POP DUP3 DUP3 ADD SWAP1 POP DUP1 DUP3 GT ISZERO PUSH2 0xAAE JUMPI PUSH2 0xAAD PUSH2 0xA13 JUMP JUMPDEST JUMPDEST SWAP3 SWAP2 POP POP JUMP JUMPDEST PUSH0 PUSH1 0x60 DUP3 ADD SWAP1 POP PUSH2 0xAC7 PUSH0 DUP4 ADD DUP7 PUSH2 0x82B JUMP JUMPDEST PUSH2 0xAD4 PUSH1 0x20 DUP4 ADD DUP6 PUSH2 0x82B JUMP JUMPDEST PUSH2 0xAE1 PUSH1 0x40 DUP4 ADD DUP5 PUSH2 0x82B JUMP JUMPDEST SWAP5 SWAP4 POP POP POP POP JUMP JUMPDEST PUSH32 0x496E76616C696420747265617375727920616464726573730000000000000000 PUSH0 DUP3 ADD MSTORE POP JUMP JUMPDEST PUSH0 PUSH2 0xB1D PUSH1 0x18 DUP4 PUSH2 0x99B JUMP JUMPDEST SWAP2 POP PUSH2 0xB28 DUP3 PUSH2 0xAE9 JUMP JUMPDEST PUSH1 0x20 DUP3 ADD SWAP1 POP SWAP2 SWAP1 POP JUMP JUMPDEST PUSH0 PUSH1 0x20 DUP3 ADD SWAP1 POP DUP2 DUP2 SUB PUSH0 DUP4 ADD MSTORE PUSH2 0xB4A DUP2 PUSH2 0xB11 JUMP JUMPDEST SWAP1 POP SWAP2 SWAP1 POP JUMP INVALID LOG2 PUSH5 0x6970667358 0x22 SLT KECCAK256 BLOBHASH DUP4 0x23 PUSH21 0x92EED9EC1E0887D7B59374302078E2619CFB3A662B TSTORE EXTCODECOPY 0xCB CLZ EOFCREATE 0x3F SWAP3 PUSH5 0x736F6C6343 STOP ADDMOD 0x1F STOP CALLER "
				},
				"gasEstimates": {
					"creation": {
						"codeDepositCost": "590200",
						"executionCost": "infinite",
						"totalCost": "infinite"
					},
					"external": {
						"buyItems(uint256,uint256)": "infinite",
						"chhToken()": "infinite",
						"elixirPrice()": "2448",
						"owner()": "2536",
						"potionPrice()": "2469",
						"renounceOwnership()": "infinite",
						"setPrices(uint256,uint256)": "infinite",
						"setTreasury(address)": "infinite",
						"transferOwnership(address)": "infinite",
						"treasury()": "2575"
					}
				},
				"methodIdentifiers": {
					"buyItems(uint256,uint256)": "21d7dc3d",
					"chhToken()": "8455d8d5",
					"elixirPrice()": "0abc747c",
					"owner()": "8da5cb5b",
					"potionPrice()": "ac6510be",
					"renounceOwnership()": "715018a6",
					"setPrices(uint256,uint256)": "05fefda7",
					"setTreasury(address)": "f0f44260",
					"transferOwnership(address)": "f2fde38b",
					"treasury()": "61d027b3"
				}
			},
			"storageLayout": {
				"storage": [
					{
						"astId": 8,
						"contract": "Script/MiningQuestShop.sol:ItemShop",
						"label": "_owner",
						"offset": 0,
						"slot": "0",
						"type": "t_address"
					},
					{
						"astId": 811,
						"contract": "Script/MiningQuestShop.sol:ItemShop",
						"label": "_status",
						"offset": 0,
						"slot": "1",
						"type": "t_uint256"
					},
					{
						"astId": 899,
						"contract": "Script/MiningQuestShop.sol:ItemShop",
						"label": "chhToken",
						"offset": 0,
						"slot": "2",
						"type": "t_contract(IERC20)315"
					},
					{
						"astId": 901,
						"contract": "Script/MiningQuestShop.sol:ItemShop",
						"label": "treasury",
						"offset": 0,
						"slot": "3",
						"type": "t_address"
					},
					{
						"astId": 908,
						"contract": "Script/MiningQuestShop.sol:ItemShop",
						"label": "potionPrice",
						"offset": 0,
						"slot": "4",
						"type": "t_uint256"
					},
					{
						"astId": 915,
						"contract": "Script/MiningQuestShop.sol:ItemShop",
						"label": "elixirPrice",
						"offset": 0,
						"slot": "5",
						"type": "t_uint256"
					}
				],
				"types": {
					"t_address": {
						"encoding": "inplace",
						"label": "address",
						"numberOfBytes": "20"
					},
					"t_contract(IERC20)315": {
						"encoding": "inplace",
						"label": "contract IERC20",
						"numberOfBytes": "20"
					},
					"t_uint256": {
						"encoding": "inplace",
						"label": "uint256",
						"numberOfBytes": "32"
					}
				}
			},
			"userdoc": {
				"kind": "user",
				"methods": {},
				"version": 1
			}
		}
	}
}