{
	"data": {
		"bytecode": {
			"linkReferences": {},
			"object": "60a060405273b6edacfc0dfc759e9ac5b9b8b6eb32310ac1bb4960015f6101000a81548173ffffffffffffffffffffffffffffffffffffffff021916908373ffffffffffffffffffffffffffffffffffffffff160217905550348015610063575f5ffd5b5060405161180c38038061180c83398181016040528101906100859190610170565b8073ffffffffffffffffffffffffffffffffffffffff1660808173ffffffffffffffffffffffffffffffffffffffff1681525050739eb566cc59e3e9d42209dd2d832740a6a74f5f235f5f6101000a81548173ffffffffffffffffffffffffffffffffffffffff021916908373ffffffffffffffffffffffffffffffffffffffff1602179055505061019b565b5f5ffd5b5f73ffffffffffffffffffffffffffffffffffffffff82169050919050565b5f61013f82610116565b9050919050565b61014f81610135565b8114610159575f5ffd5b50565b5f8151905061016a81610146565b92915050565b5f6020828403121561018557610184610112565b5b5f6101928482850161015c565b91505092915050565b60805161163d6101cf5f395f8181610324015281816107730152818161085e0152818161090701526109df015261163d5ff3fe608060405234801561000f575f5ffd5b5060043610610091575f3560e01c806399af1ee41161006457806399af1ee4146100f7578063dd9b08c114610113578063ed12e8ef14610131578063f0a3563c1461014f578063fc0c546a1461018057610091565b8063046dc166146100955780635b7633d0146100b15780638d8f2adb146100cf5780638da5cb5b146100d9575b5f5ffd5b6100af60048036038101906100aa9190610d1e565b61019e565b005b6100b961026f565b6040516100c69190610d58565b60405180910390f35b6100d7610294565b005b6100e16103e7565b6040516100ee9190610d58565b60405180910390f35b610111600480360381019061010c9190610e05565b61040b565b005b61011b610857565b6040516101289190610e71565b60405180910390f35b610139610904565b6040516101469190610e71565b60405180910390f35b61016960048036038101906101649190610d1e565b6109a2565b604051610177929190610ec3565b60405180910390f35b6101886109dd565b6040516101959190610f45565b60405180910390f35b5f5f9054906101000a900473ffffffffffffffffffffffffffffffffffffffff1673ffffffffffffffffffffffffffffffffffffffff163373ffffffffffffffffffffffffffffffffffffffff161461022c576040517f08c379a000000000000000000000000000000000000000000000000000000000815260040161022390610fb8565b60405180910390fd5b8060015f6101000a81548173ffffffffffffffffffffffffffffffffffffffff021916908373ffffffffffffffffffffffffffffffffffffffff16021790555050565b60015f9054906101000a900473ffffffffffffffffffffffffffffffffffffffff1681565b5f5f9054906101000a900473ffffffffffffffffffffffffffffffffffffffff1673ffffffffffffffffffffffffffffffffffffffff163373ffffffffffffffffffffffffffffffffffffffff1614610322576040517f08c379a000000000000000000000000000000000000000000000000000000000815260040161031990610fb8565b60405180910390fd5b7f000000000000000000000000000000000000000000000000000000000000000073ffffffffffffffffffffffffffffffffffffffff1663a9059cbb5f5f9054906101000a900473ffffffffffffffffffffffffffffffffffffffff16610387610904565b6040518363ffffffff1660e01b81526004016103a4929190610fd6565b6020604051808303815f875af11580156103c0573d5f5f3e3d5ffd5b505050506040513d601f19601f820116820180604052508101906103e49190611032565b50565b5f5f9054906101000a900473ffffffffffffffffffffffffffffffffffffffff1681565b5f338460405160200161041f9291906110c2565b6040516020818303038152906040528051906020012090505f81604051602001610449919061116a565b6040516020818303038152906040528051906020012090505f6104af8286868080601f0160208091040260200160405190810160405280939291908181526020018383808284375f81840152601f19601f82011690508083019250505050505050610a01565b905060015f9054906101000a900473ffffffffffffffffffffffffffffffffffffffff1673ffffffffffffffffffffffffffffffffffffffff168173ffffffffffffffffffffffffffffffffffffffff1614610540576040517f08c379a0000000000000000000000000000000000000000000000000000000008152600401610537906111d9565b60405180910390fd5b5f61ea609050808711156105b25761055787610aa1565b6040516020016105679190611289565b6040516020818303038152906040526040517f08c379a00000000000000000000000000000000000000000000000000000000081526004016105a991906112f2565b60405180910390fd5b5f62015180426105c2919061136c565b90505f60025f3373ffffffffffffffffffffffffffffffffffffffff1673ffffffffffffffffffffffffffffffffffffffff1681526020019081526020015f2090508163ffffffff16815f015f9054906101000a900463ffffffff1663ffffffff16101561066d5781815f015f6101000a81548163ffffffff021916908363ffffffff1602179055506001815f0160046101000a81548160ff021916908360ff1602179055506106fc565b600a815f0160049054906101000a900460ff1660ff16106106c3576040517f08c379a00000000000000000000000000000000000000000000000000000000081526004016106ba906113e6565b60405180910390fd5b6001815f0160048282829054906101000a900460ff166106e39190611404565b92506101000a81548160ff021916908360ff1602179055505b5f60646012600a60058d6107109190611438565b61071a9190611438565b18610725919061136c565b905080610730610904565b1015610771576040517f08c379a0000000000000000000000000000000000000000000000000000000008152600401610768906114c3565b60405180910390fd5b7f000000000000000000000000000000000000000000000000000000000000000073ffffffffffffffffffffffffffffffffffffffff1663a9059cbb33836040518363ffffffff1660e01b81526004016107cc929190610fd6565b6020604051808303815f875af11580156107e8573d5f5f3e3d5ffd5b505050506040513d601f19601f8201168201806040525081019061080c9190611032565b61084b576040517f08c379a00000000000000000000000000000000000000000000000000000000081526004016108429061152b565b60405180910390fd5b50505050505050505050565b5f6012600a7f000000000000000000000000000000000000000000000000000000000000000073ffffffffffffffffffffffffffffffffffffffff166370a08231306040518263ffffffff1660e01b81526004016108b59190610d58565b602060405180830381865afa1580156108d0573d5f5f3e3d5ffd5b505050506040513d601f19601f820116820180604052508101906108f4919061155d565b6108fe9190611438565b18905090565b5f7f000000000000000000000000000000000000000000000000000000000000000073ffffffffffffffffffffffffffffffffffffffff166370a08231306040518263ffffffff1660e01b815260040161095e9190610d58565b602060405180830381865afa158015610979573d5f5f3e3d5ffd5b505050506040513d601f19601f8201168201806040525081019061099d919061155d565b905090565b6002602052805f5260405f205f91509050805f015f9054906101000a900463ffffffff1690805f0160049054906101000a900460ff16905082565b7f000000000000000000000000000000000000000000000000000000000000000081565b5f6041825114610a13575f9050610a9b565b5f5f5f602085015192506040850151915060608501515f1a9050601b8160ff161015610a4957601b81610a469190611404565b90505b6001868285856040515f8152602001604052604051610a6b9493929190611597565b6020604051602081039080840390855afa158015610a8b573d5f5f3e3d5ffd5b5050506020604051035193505050505b92915050565b60605f6001610aaf84610b6b565b0190505f8167ffffffffffffffff811115610acd57610acc6115da565b5b6040519080825280601f01601f191660200182016040528015610aff5781602001600182028036833780820191505090505b5090505f82602083010190505b600115610b60578080600190039150507f3031323334353637383961626364656600000000000000000000000000000000600a86061a8153600a8581610b5557610b54611312565b5b0494505f8503610b0c575b819350505050919050565b5f5f5f90507a184f03e93ff9f4daa797ed6e38ed64bf6a1f0100000000000000008310610bc7577a184f03e93ff9f4daa797ed6e38ed64bf6a1f0100000000000000008381610bbd57610bbc611312565b5b0492506040810190505b6d04ee2d6d415b85acef81000000008310610c04576d04ee2d6d415b85acef81000000008381610bfa57610bf9611312565b5b0492506020810190505b662386f26fc100008310610c3357662386f26fc100008381610c2957610c28611312565b5b0492506010810190505b6305f5e1008310610c5c576305f5e1008381610c5257610c51611312565b5b0492506008810190505b6127108310610c81576127108381610c7757610c76611312565b5b0492506004810190505b60648310610ca45760648381610c9a57610c99611312565b5b0492506002810190505b600a8310610cb3576001810190505b80915050919050565b5f5ffd5b5f5ffd5b5f73ffffffffffffffffffffffffffffffffffffffff82169050919050565b5f610ced82610cc4565b9050919050565b610cfd81610ce3565b8114610d07575f5ffd5b50565b5f81359050610d1881610cf4565b92915050565b5f60208284031215610d3357610d32610cbc565b5b5f610d4084828501610d0a565b91505092915050565b610d5281610ce3565b82525050565b5f602082019050610d6b5f830184610d49565b92915050565b5f819050919050565b610d8381610d71565b8114610d8d575f5ffd5b50565b5f81359050610d9e81610d7a565b92915050565b5f5ffd5b5f5ffd5b5f5ffd5b5f5f83601f840112610dc557610dc4610da4565b5b8235905067ffffffffffffffff811115610de257610de1610da8565b5b602083019150836001820283011115610dfe57610dfd610dac565b5b9250929050565b5f5f5f60408486031215610e1c57610e1b610cbc565b5b5f610e2986828701610d90565b935050602084013567ffffffffffffffff811115610e4a57610e49610cc0565b5b610e5686828701610db0565b92509250509250925092565b610e6b81610d71565b82525050565b5f602082019050610e845f830184610e62565b92915050565b5f63ffffffff82169050919050565b610ea281610e8a565b82525050565b5f60ff82169050919050565b610ebd81610ea8565b82525050565b5f604082019050610ed65f830185610e99565b610ee36020830184610eb4565b9392505050565b5f819050919050565b5f610f0d610f08610f0384610cc4565b610eea565b610cc4565b9050919050565b5f610f1e82610ef3565b9050919050565b5f610f2f82610f14565b9050919050565b610f3f81610f25565b82525050565b5f602082019050610f585f830184610f36565b92915050565b5f82825260208201905092915050565b7f4e6f74206f776e657200000000000000000000000000000000000000000000005f82015250565b5f610fa2600983610f5e565b9150610fad82610f6e565b602082019050919050565b5f6020820190508181035f830152610fcf81610f96565b9050919050565b5f604082019050610fe95f830185610d49565b610ff66020830184610e62565b9392505050565b5f8115159050919050565b61101181610ffd565b811461101b575f5ffd5b50565b5f8151905061102c81611008565b92915050565b5f6020828403121561104757611046610cbc565b5b5f6110548482850161101e565b91505092915050565b5f8160601b9050919050565b5f6110738261105d565b9050919050565b5f61108482611069565b9050919050565b61109c61109782610ce3565b61107a565b82525050565b5f819050919050565b6110bc6110b782610d71565b6110a2565b82525050565b5f6110cd828561108b565b6014820191506110dd82846110ab565b6020820191508190509392505050565b5f81905092915050565b7f19457468657265756d205369676e6564204d6573736167653a0a3332000000005f82015250565b5f61112b601c836110ed565b9150611136826110f7565b601c82019050919050565b5f819050919050565b5f819050919050565b61116461115f82611141565b61114a565b82525050565b5f6111748261111f565b91506111808284611153565b60208201915081905092915050565b7f496e76616c6964207369676e61747572650000000000000000000000000000005f82015250565b5f6111c3601183610f5e565b91506111ce8261118f565b602082019050919050565b5f6020820190508181035f8301526111f0816111b7565b9050919050565b7f53636f7265206c696d69742065786365656465642e2052656365697665643a205f82015250565b5f61122b6020836110ed565b9150611236826111f7565b602082019050919050565b5f81519050919050565b8281835e5f83830152505050565b5f61126382611241565b61126d81856110ed565b935061127d81856020860161124b565b80840191505092915050565b5f6112938261121f565b915061129f8284611259565b915081905092915050565b5f601f19601f8301169050919050565b5f6112c482611241565b6112ce8185610f5e565b93506112de81856020860161124b565b6112e7816112aa565b840191505092915050565b5f6020820190508181035f83015261130a81846112ba565b905092915050565b7f4e487b71000000000000000000000000000000000000000000000000000000005f52601260045260245ffd5b7f4e487b71000000000000000000000000000000000000000000000000000000005f52601160045260245ffd5b5f61137682610d71565b915061138183610d71565b92508261139157611390611312565b5b828204905092915050565b7f4461696c79206c696d69742072656163686564000000000000000000000000005f82015250565b5f6113d0601383610f5e565b91506113db8261139c565b602082019050919050565b5f6020820190508181035f8301526113fd816113c4565b9050919050565b5f61140e82610ea8565b915061141983610ea8565b9250828201905060ff8111156114325761143161133f565b5b92915050565b5f61144282610d71565b915061144d83610d71565b925082820261145b81610d71565b915082820484148315176114725761147161133f565b5b5092915050565b7f496e73756666696369656e74207661756c742062616c616e63650000000000005f82015250565b5f6114ad601a83610f5e565b91506114b882611479565b602082019050919050565b5f6020820190508181035f8301526114da816114a1565b9050919050565b7f5472616e73666572206661696c656400000000000000000000000000000000005f82015250565b5f611515600f83610f5e565b9150611520826114e1565b602082019050919050565b5f6020820190508181035f83015261154281611509565b9050919050565b5f8151905061155781610d7a565b92915050565b5f6020828403121561157257611571610cbc565b5b5f61157f84828501611549565b91505092915050565b61159181611141565b82525050565b5f6080820190506115aa5f830187611588565b6115b76020830186610eb4565b6115c46040830185611588565b6115d16060830184611588565b95945050505050565b7f4e487b71000000000000000000000000000000000000000000000000000000005f52604160045260245ffdfea2646970667358221220800c82e29b9d096dcce42dd26cb05aba934f20bb41f14035ae57f85e9de73ed264736f6c634300081f0033",
			"opcodes": "PUSH1 0xA0 PUSH1 0x40 MSTORE PUSH20 0xB6EDACFC0DFC759E9AC5B9B8B6EB32310AC1BB49 PUSH1 0x1 PUSH0 PUSH2 0x100 EXP DUP2 SLOAD DUP2 PUSH20 0xFFFFFFFFFFFFFFFFFFFFFFFFFFFFFFFFFFFFFFFF MUL NOT AND SWAP1 DUP4 PUSH20 0xFFFFFFFFFFFFFFFFFFFFFFFFFFFFFFFFFFFFFFFF AND MUL OR SWAP1 SSTORE POP CALLVALUE DUP1 ISZERO PUSH2 0x63 JUMPI PUSH0 PUSH0 REVERT JUMPDEST POP PUSH1 0x40 MLOAD PUSH2 0x180C CODESIZE SUB DUP1 PUSH2 0x180C DUP4 CODECOPY DUP2 DUP2 ADD PUSH1 0x40 MSTORE DUP2 ADD SWAP1 PUSH2 0x85 SWAP2 SWAP1 PUSH2 0x170 JUMP JUMPDEST DUP1 PUSH20 0xFFFFFFFFFFFFFFFFFFFFFFFFFFFFFFFFFFFFFFFF AND PUSH1 0x80 DUP2 PUSH20 0xFFFFFFFFFFFFFFFFFFFFFFFFFFFFFFFFFFFFFFFF AND DUP2 MSTORE POP POP PUSH20 0x9EB566CC59E3E9D42209DD2D832740A6A74F5F23 PUSH0 PUSH0 PUSH2 0x100 EXP DUP2 SLOAD DUP2 PUSH20 0xFFFFFFFFFFFFFFFFFFFFFFFFFFFFFFFFFFFFFFFF MUL NOT AND SWAP1 DUP4 PUSH20 0xFFFFFFFFFFFFFFFFFFFFFFFFFFFFFFFFFFFFFFFF AND MUL OR SWAP1 SSTORE POP POP PUSH2 0x19B JUMP JUMPDEST PUSH0 PUSH0 REVERT JUMPDEST PUSH0 PUSH20 0xFFFFFFFFFFFFFFFFFFFFFFFFFFFFFFFFFFFFFFFF DUP3 AND SWAP1 POP SWAP2 SWAP1 POP JUMP JUMPDEST PUSH0 PUSH2 0x13F DUP3 PUSH2 0x116 JUMP JUMPDEST SWAP1 POP SWAP2 SWAP1 POP JUMP JUMPDEST PUSH2 0x14F DUP2 PUSH2 0x135 JUMP JUMPDEST DUP2 EQ PUSH2 0x159 JUMPI PUSH0 PUSH0 REVERT JUMPDEST POP JUMP JUMPDEST PUSH0 DUP2 MLOAD SWAP1 POP PUSH2 0x16A DUP2 PUSH2 0x146 JUMP JUMPDEST SWAP3 SWAP2 POP POP JUMP JUMPDEST PUSH0 PUSH1 0x20 DUP3 DUP5 SUB SLT ISZERO PUSH2 0x185 JUMPI PUSH2 0x184 PUSH2 0x112 JUMP JUMPDEST JUMPDEST PUSH0 PUSH2 0x192 DUP5 DUP3 DUP6 ADD PUSH2 0x15C JUMP JUMPDEST SWAP2 POP POP SWAP3 SWAP2 POP POP JUMP JUMPDEST PUSH1 0x80 MLOAD PUSH2 0x163D PUSH2 0x1CF PUSH0 CODECOPY PUSH0 DUP2 DUP2 PUSH2 0x324 ADD MSTORE DUP2 DUP2 PUSH2 0x773 ADD MSTORE DUP2 DUP2 PUSH2 0x85E ADD MSTORE DUP2 DUP2 PUSH2 0x907 ADD MSTORE PUSH2 0x9DF ADD MSTORE PUSH2 0x163D PUSH0 RETURN INVALID PUSH1 0x80 PUSH1 0x40 MSTORE CALLVALUE DUP1 ISZERO PUSH2 0xF JUMPI PUSH0 PUSH0 REVERT JUMPDEST POP PUSH1 0x4 CALLDATASIZE LT PUSH2 0x91 JUMPI PUSH0 CALLDATALOAD PUSH1 0xE0 SHR DUP1 PUSH4 0x99AF1EE4 GT PUSH2 0x64 JUMPI DUP1 PUSH4 0x99AF1EE4 EQ PUSH2 0xF7 JUMPI DUP1 PUSH4 0xDD9B08C1 EQ PUSH2 0x113 JUMPI DUP1 PUSH4 0xED12E8EF EQ PUSH2 0x131 JUMPI DUP1 PUSH4 0xF0A3563C EQ PUSH2 0x14F JUMPI DUP1 PUSH4 0xFC0C546A EQ PUSH2 0x180 JUMPI PUSH2 0x91 JUMP JUMPDEST DUP1 PUSH4 0x46DC166 EQ PUSH2 0x95 JUMPI DUP1 PUSH4 0x5B7633D0 EQ PUSH2 0xB1 JUMPI DUP1 PUSH4 0x8D8F2ADB EQ PUSH2 0xCF JUMPI DUP1 PUSH4 0x8DA5CB5B EQ PUSH2 0xD9 JUMPI JUMPDEST PUSH0 PUSH0 REVERT JUMPDEST PUSH2 0xAF PUSH1 0x4 DUP1 CALLDATASIZE SUB DUP2 ADD SWAP1 PUSH2 0xAA SWAP2 SWAP1 PUSH2 0xD1E JUMP JUMPDEST PUSH2 0x19E JUMP JUMPDEST STOP JUMPDEST PUSH2 0xB9 PUSH2 0x26F JUMP JUMPDEST PUSH1 0x40 MLOAD PUSH2 0xC6 SWAP2 SWAP1 PUSH2 0xD58 JUMP JUMPDEST PUSH1 0x40 MLOAD DUP1 SWAP2 SUB SWAP1 RETURN JUMPDEST PUSH2 0xD7 PUSH2 0x294 JUMP JUMPDEST STOP JUMPDEST PUSH2 0xE1 PUSH2 0x3E7 JUMP JUMPDEST PUSH1 0x40 MLOAD PUSH2 0xEE SWAP2 SWAP1 PUSH2 0xD58 JUMP JUMPDEST PUSH1 0x40 MLOAD DUP1 SWAP2 SUB SWAP1 RETURN JUMPDEST PUSH2 0x111 PUSH1 0x4 DUP1 CALLDATASIZE SUB DUP2 ADD SWAP1 PUSH2 0x10C SWAP2 SWAP1 PUSH2 0xE05 JUMP JUMPDEST PUSH2 0x40B JUMP JUMPDEST STOP JUMPDEST PUSH2 0x11B PUSH2 0x857 JUMP JUMPDEST PUSH1 0x40 MLOAD PUSH2 0x128 SWAP2 SWAP1 PUSH2 0xE71 JUMP JUMPDEST PUSH1 0x40 MLOAD DUP1 SWAP2 SUB SWAP1 RETURN JUMPDEST PUSH2 0x139 PUSH2 0x904 JUMP JUMPDEST PUSH1 0x40 MLOAD PUSH2 0x146 SWAP2 SWAP1 PUSH2 0xE71 JUMP JUMPDEST PUSH1 0x40 MLOAD DUP1 SWAP2 SUB SWAP1 RETURN JUMPDEST PUSH2 0x169 PUSH1 0x4 DUP1 CALLDATASIZE SUB DUP2 ADD SWAP1 PUSH2 0x164 SWAP2 SWAP1 PUSH2 0xD1E JUMP JUMPDEST PUSH2 0x9A2 JUMP JUMPDEST PUSH1 0x40 MLOAD PUSH2 0x177 SWAP3 SWAP2 SWAP1 PUSH2 0xEC3 JUMP JUMPDEST PUSH1 0x40 MLOAD DUP1 SWAP2 SUB SWAP1 RETURN JUMPDEST PUSH2 0x188 PUSH2 0x9DD JUMP JUMPDEST PUSH1 0x40 MLOAD PUSH2 0x195 SWAP2 SWAP1 PUSH2 0xF45 JUMP JUMPDEST PUSH1 0x40 MLOAD DUP1 SWAP2 SUB SWAP1 RETURN JUMPDEST PUSH0 PUSH0 SWAP1 SLOAD SWAP1 PUSH2 0x100 EXP SWAP1 DIV PUSH20 0xFFFFFFFFFFFFFFFFFFFFFFFFFFFFFFFFFFFFFFFF AND PUSH20 0xFFFFFFFFFFFFFFFFFFFFFFFFFFFFFFFFFFFFFFFF AND CALLER PUSH20 0xFFFFFFFFFFFFFFFFFFFFFFFFFFFFFFFFFFFFFFFF AND EQ PUSH2 0x22C JUMPI PUSH1 0x40 MLOAD PUSH32 0x8C379A000000000000000000000000000000000000000000000000000000000 DUP2 MSTORE PUSH1 0x4 ADD PUSH2 0x223 SWAP1 PUSH2 0xFB8 JUMP JUMPDEST PUSH1 0x40 MLOAD DUP1 SWAP2 SUB SWAP1 REVERT JUMPDEST DUP1 PUSH1 0x1 PUSH0 PUSH2 0x100 EXP DUP2 SLOAD DUP2 PUSH20 0xFFFFFFFFFFFFFFFFFFFFFFFFFFFFFFFFFFFFFFFF MUL NOT AND SWAP1 DUP4 PUSH20 0xFFFFFFFFFFFFFFFFFFFFFFFFFFFFFFFFFFFFFFFF AND MUL OR SWAP1 SSTORE POP POP JUMP JUMPDEST PUSH1 0x1 PUSH0 SWAP1 SLOAD SWAP1 PUSH2 0x100 EXP SWAP1 DIV PUSH20 0xFFFFFFFFFFFFFFFFFFFFFFFFFFFFFFFFFFFFFFFF AND DUP2 JUMP JUMPDEST PUSH0 PUSH0 SWAP1 SLOAD SWAP1 PUSH2 0x100 EXP SWAP1 DIV PUSH20 0xFFFFFFFFFFFFFFFFFFFFFFFFFFFFFFFFFFFFFFFF AND PUSH20 0xFFFFFFFFFFFFFFFFFFFFFFFFFFFFFFFFFFFFFFFF AND CALLER PUSH20 0xFFFFFFFFFFFFFFFFFFFFFFFFFFFFFFFFFFFFFFFF AND EQ PUSH2 0x322 JUMPI PUSH1 0x40 MLOAD PUSH32 0x8C379A000000000000000000000000000000000000000000000000000000000 DUP2 MSTORE PUSH1 0x4 ADD PUSH2 0x319 SWAP1 PUSH2 0xFB8 JUMP JUMPDEST PUSH1 0x40 MLOAD DUP1 SWAP2 SUB SWAP1 REVERT JUMPDEST PUSH32 0x0 PUSH20 0xFFFFFFFFFFFFFFFFFFFFFFFFFFFFFFFFFFFFFFFF AND PUSH4 0xA9059CBB PUSH0 PUSH0 SWAP1 SLOAD SWAP1 PUSH2 0x100 EXP SWAP1 DIV PUSH20 0xFFFFFFFFFFFFFFFFFFFFFFFFFFFFFFFFFFFFFFFF AND PUSH2 0x387 PUSH2 0x904 JUMP JUMPDEST PUSH1 0x40 MLOAD DUP4 PUSH4 0xFFFFFFFF AND PUSH1 0xE0 SHL DUP2 MSTORE PUSH1 0x4 ADD PUSH2 0x3A4 SWAP3 SWAP2 SWAP1 PUSH2 0xFD6 JUMP JUMPDEST PUSH1 0x20 PUSH1 0x40 MLOAD DUP1 DUP4 SUB DUP2 PUSH0 DUP8 GAS CALL ISZERO DUP1 ISZERO PUSH2 0x3C0 JUMPI RETURNDATASIZE PUSH0 PUSH0 RETURNDATACOPY RETURNDATASIZE PUSH0 REVERT JUMPDEST POP POP POP POP PUSH1 0x40 MLOAD RETURNDATASIZE PUSH1 0x1F NOT PUSH1 0x1F DUP3 ADD AND DUP3 ADD DUP1 PUSH1 0x40 MSTORE POP DUP2 ADD SWAP1 PUSH2 0x3E4 SWAP2 SWAP1 PUSH2 0x1032 JUMP JUMPDEST POP JUMP JUMPDEST PUSH0 PUSH0 SWAP1 SLOAD SWAP1 PUSH2 0x100 EXP SWAP1 DIV PUSH20 0xFFFFFFFFFFFFFFFFFFFFFFFFFFFFFFFFFFFFFFFF AND DUP2 JUMP JUMPDEST PUSH0 CALLER DUP5 PUSH1 0x40 MLOAD PUSH1 0x20 ADD PUSH2 0x41F SWAP3 SWAP2 SWAP1 PUSH2 0x10C2 JUMP JUMPDEST PUSH1 0x40 MLOAD PUSH1 0x20 DUP2 DUP4 SUB SUB DUP2 MSTORE SWAP1 PUSH1 0x40 MSTORE DUP1 MLOAD SWAP1 PUSH1 0x20 ADD KECCAK256 SWAP1 POP PUSH0 DUP2 PUSH1 0x40 MLOAD PUSH1 0x20 ADD PUSH2 0x449 SWAP2 SWAP1 PUSH2 0x116A JUMP JUMPDEST PUSH1 0x40 MLOAD PUSH1 0x20 DUP2 DUP4 SUB SUB DUP2 MSTORE SWAP1 PUSH1 0x40 MSTORE DUP1 MLOAD SWAP1 PUSH1 0x20 ADD KECCAK256 SWAP1 POP PUSH0 PUSH2 0x4AF DUP3 DUP7 DUP7 DUP1 DUP1 PUSH1 0x1F ADD PUSH1 0x20 DUP1 SWAP2 DIV MUL PUSH1 0x20 ADD PUSH1 0x40 MLOAD SWAP1 DUP2 ADD PUSH1 0x40 MSTORE DUP1 SWAP4 SWAP3 SWAP2 SWAP1 DUP2 DUP2 MSTORE PUSH1 0x20 ADD DUP4 DUP4 DUP1 DUP3 DUP5 CALLDATACOPY PUSH0 DUP2 DUP5 ADD MSTORE PUSH1 0x1F NOT PUSH1 0x1F DUP3 ADD AND SWAP1 POP DUP1 DUP4 ADD SWAP3 POP POP POP POP POP POP POP PUSH2 0xA01 JUMP JUMPDEST SWAP1 POP PUSH1 0x1 PUSH0 SWAP1 SLOAD SWAP1 PUSH2 0x100 EXP SWAP1 DIV PUSH20 0xFFFFFFFFFFFFFFFFFFFFFFFFFFFFFFFFFFFFFFFF AND PUSH20 0xFFFFFFFFFFFFFFFFFFFFFFFFFFFFFFFFFFFFFFFF AND DUP2 PUSH20 0xFFFFFFFFFFFFFFFFFFFFFFFFFFFFFFFFFFFFFFFF AND EQ PUSH2 0x540 JUMPI PUSH1 0x40 MLOAD PUSH32 0x8C379A000000000000000000000000000000000000000000000000000000000 DUP2 MSTORE PUSH1 0x4 ADD PUSH2 0x537 SWAP1 PUSH2 0x11D9 JUMP JUMPDEST PUSH1 0x40 MLOAD DUP1 SWAP2 SUB SWAP1 REVERT JUMPDEST PUSH0 PUSH2 0xEA60 SWAP1 POP DUP1 DUP8 GT ISZERO PUSH2 0x5B2 JUMPI PUSH2 0x557 DUP8 PUSH2 0xAA1 JUMP JUMPDEST PUSH1 0x40 MLOAD PUSH1 0x20 ADD PUSH2 0x567 SWAP2 SWAP1 PUSH2 0x1289 JUMP JUMPDEST PUSH1 0x40 MLOAD PUSH1 0x20 DUP2 DUP4 SUB SUB DUP2 MSTORE SWAP1 PUSH1 0x40 MSTORE PUSH1 0x40 MLOAD PUSH32 0x8C379A000000000000000000000000000000000000000000000000000000000 DUP2 MSTORE PUSH1 0x4 ADD PUSH2 0x5A9 SWAP2 SWAP1 PUSH2 0x12F2 JUMP JUMPDEST PUSH1 0x40 MLOAD DUP1 SWAP2 SUB SWAP1 REVERT JUMPDEST PUSH0 PUSH3 0x15180 TIMESTAMP PUSH2 0x5C2 SWAP2 SWAP1 PUSH2 0x136C JUMP JUMPDEST SWAP1 POP PUSH0 PUSH1 0x2 PUSH0 CALLER PUSH20 0xFFFFFFFFFFFFFFFFFFFFFFFFFFFFFFFFFFFFFFFF AND PUSH20 0xFFFFFFFFFFFFFFFFFFFFFFFFFFFFFFFFFFFFFFFF AND DUP2 MSTORE PUSH1 0x20 ADD SWAP1 DUP2 MSTORE PUSH1 0x20 ADD PUSH0 KECCAK256 SWAP1 POP DUP2 PUSH4 0xFFFFFFFF AND DUP2 PUSH0 ADD PUSH0 SWAP1 SLOAD SWAP1 PUSH2 0x100 EXP SWAP1 DIV PUSH4 0xFFFFFFFF AND PUSH4 0xFFFFFFFF AND LT ISZERO PUSH2 0x66D JUMPI DUP2 DUP2 PUSH0 ADD PUSH0 PUSH2 0x100 EXP DUP2 SLOAD DUP2 PUSH4 0xFFFFFFFF MUL NOT AND SWAP1 DUP4 PUSH4 0xFFFFFFFF AND MUL OR SWAP1 SSTORE POP PUSH1 0x1 DUP2 PUSH0 ADD PUSH1 0x4 PUSH2 0x100 EXP DUP2 SLOAD DUP2 PUSH1 0xFF MUL NOT AND SWAP1 DUP4 PUSH1 0xFF AND MUL OR SWAP1 SSTORE POP PUSH2 0x6FC JUMP JUMPDEST PUSH1 0xA DUP2 PUSH0 ADD PUSH1 0x4 SWAP1 SLOAD SWAP1 PUSH2 0x100 EXP SWAP1 DIV PUSH1 0xFF AND PUSH1 0xFF AND LT PUSH2 0x6C3 JUMPI PUSH1 0x40 MLOAD PUSH32 0x8C379A000000000000000000000000000000000000000000000000000000000 DUP2 MSTORE PUSH1 0x4 ADD PUSH2 0x6BA SWAP1 PUSH2 0x13E6 JUMP JUMPDEST PUSH1 0x40 MLOAD DUP1 SWAP2 SUB SWAP1 REVERT JUMPDEST PUSH1 0x1 DUP2 PUSH0 ADD PUSH1 0x4 DUP3 DUP3 DUP3 SWAP1 SLOAD SWAP1 PUSH2 0x100 EXP SWAP1 DIV PUSH1 0xFF AND PUSH2 0x6E3 SWAP2 SWAP1 PUSH2 0x1404 JUMP JUMPDEST SWAP3 POP PUSH2 0x100 EXP DUP2 SLOAD DUP2 PUSH1 0xFF MUL NOT AND SWAP1 DUP4 PUSH1 0xFF AND MUL OR SWAP1 SSTORE POP JUMPDEST PUSH0 PUSH1 0x64 PUSH1 0x12 PUSH1 0xA PUSH1 0x5 DUP14 PUSH2 0x710 SWAP2 SWAP1 PUSH2 0x1438 JUMP JUMPDEST PUSH2 0x71A SWAP2 SWAP1 PUSH2 0x1438 JUMP JUMPDEST XOR PUSH2 0x725 SWAP2 SWAP1 PUSH2 0x136C JUMP JUMPDEST SWAP1 POP DUP1 PUSH2 0x730 PUSH2 0x904 JUMP JUMPDEST LT ISZERO PUSH2 0x771 JUMPI PUSH1 0x40 MLOAD PUSH32 0x8C379A000000000000000000000000000000000000000000000000000000000 DUP2 MSTORE PUSH1 0x4 ADD PUSH2 0x768 SWAP1 PUSH2 0x14C3 JUMP JUMPDEST PUSH1 0x40 MLOAD DUP1 SWAP2 SUB SWAP1 REVERT JUMPDEST PUSH32 0x0 PUSH20 0xFFFFFFFFFFFFFFFFFFFFFFFFFFFFFFFFFFFFFFFF AND PUSH4 0xA9059CBB CALLER DUP4 PUSH1 0x40 MLOAD DUP4 PUSH4 0xFFFFFFFF AND PUSH1 0xE0 SHL DUP2 MSTORE PUSH1 0x4 ADD PUSH2 0x7CC SWAP3 SWAP2 SWAP1 PUSH2 0xFD6 JUMP JUMPDEST PUSH1 0x20 PUSH1 0x40 MLOAD DUP1 DUP4 SUB DUP2 PUSH0 DUP8 GAS CALL ISZERO DUP1 ISZERO PUSH2 0x7E8 JUMPI RETURNDATASIZE PUSH0 PUSH0 RETURNDATACOPY RETURNDATASIZE PUSH0 REVERT JUMPDEST POP POP POP POP PUSH1 0x40 MLOAD RETURNDATASIZE PUSH1 0x1F NOT PUSH1 0x1F DUP3 ADD AND DUP3 ADD DUP1 PUSH1 0x40 MSTORE POP DUP2 ADD SWAP1 PUSH2 0x80C SWAP2 SWAP1 PUSH2 0x1032 JUMP JUMPDEST PUSH2 0x84B JUMPI PUSH1 0x40 MLOAD PUSH32 0x8C379A000000000000000000000000000000000000000000000000000000000 DUP2 MSTORE PUSH1 0x4 ADD PUSH2 0x842 SWAP1 PUSH2 0x152B JUMP JUMPDEST PUSH1 0x40 MLOAD DUP1 SWAP2 SUB SWAP1 REVERT JUMPDEST POP POP POP POP POP POP POP POP POP POP JUMP JUMPDEST PUSH0 PUSH1 0x12 PUSH1 0xA PUSH32 0x0 PUSH20 0xFFFFFFFFFFFFFFFFFFFFFFFFFFFFFFFFFFFFFFFF AND PUSH4 0x70A08231 ADDRESS PUSH1 0x40 MLOAD DUP3 PUSH4 0xFFFFFFFF AND PUSH1 0xE0 SHL DUP2 MSTORE PUSH1 0x4 ADD PUSH2 0x8B5 SWAP2 SWAP1 PUSH2 0xD58 JUMP JUMPDEST PUSH1 0x20 PUSH1 0x40 MLOAD DUP1 DUP4 SUB DUP2 DUP7 GAS STATICCALL ISZERO DUP1 ISZERO PUSH2 0x8D0 JUMPI RETURNDATASIZE PUSH0 PUSH0 RETURNDATACOPY RETURNDATASIZE PUSH0 REVERT JUMPDEST POP POP POP POP PUSH1 0x40 MLOAD RETURNDATASIZE PUSH1 0x1F NOT PUSH1 0x1F DUP3 ADD AND DUP3 ADD DUP1 PUSH1 0x40 MSTORE POP DUP2 ADD SWAP1 PUSH2 0x8F4 SWAP2 SWAP1 PUSH2 0x155D JUMP JUMPDEST PUSH2 0x8FE SWAP2 SWAP1 PUSH2 0x1438 JUMP JUMPDEST XOR SWAP1 POP SWAP1 JUMP JUMPDEST PUSH0 PUSH32 0x0 PUSH20 0xFFFFFFFFFFFFFFFFFFFFFFFFFFFFFFFFFFFFFFFF AND PUSH4 0x70A08231 ADDRESS PUSH1 0x40 MLOAD DUP3 PUSH4 0xFFFFFFFF AND PUSH1 0xE0 SHL DUP2 MSTORE PUSH1 0x4 ADD PUSH2 0x95E SWAP2 SWAP1 PUSH2 0xD58 JUMP JUMPDEST PUSH1 0x20 PUSH1 0x40 MLOAD DUP1 DUP4 SUB DUP2 DUP7 GAS STATICCALL ISZERO DUP1 ISZERO PUSH2 0x979 JUMPI RETURNDATASIZE PUSH0 PUSH0 RETURNDATACOPY RETURNDATASIZE PUSH0 REVERT JUMPDEST POP POP POP POP PUSH1 0x40 MLOAD RETURNDATASIZE PUSH1 0x1F NOT PUSH1 0x1F DUP3 ADD AND DUP3 ADD DUP1 PUSH1 0x40 MSTORE POP DUP2 ADD SWAP1 PUSH2 0x99D SWAP2 SWAP1 PUSH2 0x155D JUMP JUMPDEST SWAP1 POP SWAP1 JUMP JUMPDEST PUSH1 0x2 PUSH1 0x20 MSTORE DUP1 PUSH0 MSTORE PUSH1 0x40 PUSH0 KECCAK256 PUSH0 SWAP2 POP SWAP1 POP DUP1 PUSH0 ADD PUSH0 SWAP1 SLOAD SWAP1 PUSH2 0x100 EXP SWAP1 DIV PUSH4 0xFFFFFFFF AND SWAP1 DUP1 PUSH0 ADD PUSH1 0x4 SWAP1 SLOAD SWAP1 PUSH2 0x100 EXP SWAP1 DIV PUSH1 0xFF AND SWAP1 POP DUP3 JUMP JUMPDEST PUSH32 0x0 DUP2 JUMP JUMPDEST PUSH0 PUSH1 0x41 DUP3 MLOAD EQ PUSH2 0xA13 JUMPI PUSH0 SWAP1 POP PUSH2 0xA9B JUMP JUMPDEST PUSH0 PUSH0 PUSH0 PUSH1 0x20 DUP6 ADD MLOAD SWAP3 POP PUSH1 0x40 DUP6 ADD MLOAD SWAP2 POP PUSH1 0x60 DUP6 ADD MLOAD PUSH0 BYTE SWAP1 POP PUSH1 0x1B DUP2 PUSH1 0xFF AND LT ISZERO PUSH2 0xA49 JUMPI PUSH1 0x1B DUP2 PUSH2 0xA46 SWAP2 SWAP1 PUSH2 0x1404 JUMP JUMPDEST SWAP1 POP JUMPDEST PUSH1 0x1 DUP7 DUP3 DUP6 DUP6 PUSH1 0x40 MLOAD PUSH0 DUP2 MSTORE PUSH1 0x20 ADD PUSH1 0x40 MSTORE PUSH1 0x40 MLOAD PUSH2 0xA6B SWAP5 SWAP4 SWAP3 SWAP2 SWAP1 PUSH2 0x1597 JUMP JUMPDEST PUSH1 0x20 PUSH1 0x40 MLOAD PUSH1 0x20 DUP2 SUB SWAP1 DUP1 DUP5 SUB SWAP1 DUP6 GAS STATICCALL ISZERO DUP1 ISZERO PUSH2 0xA8B JUMPI RETURNDATASIZE PUSH0 PUSH0 RETURNDATACOPY RETURNDATASIZE PUSH0 REVERT JUMPDEST POP POP POP PUSH1 0x20 PUSH1 0x40 MLOAD SUB MLOAD SWAP4 POP POP POP POP JUMPDEST SWAP3 SWAP2 POP POP JUMP JUMPDEST PUSH1 0x60 PUSH0 PUSH1 0x1 PUSH2 0xAAF DUP5 PUSH2 0xB6B JUMP JUMPDEST ADD SWAP1 POP PUSH0 DUP2 PUSH8 0xFFFFFFFFFFFFFFFF DUP2 GT ISZERO PUSH2 0xACD JUMPI PUSH2 0xACC PUSH2 0x15DA JUMP JUMPDEST JUMPDEST PUSH1 0x40 MLOAD SWAP1 DUP1 DUP3 MSTORE DUP1 PUSH1 0x1F ADD PUSH1 0x1F NOT AND PUSH1 0x20 ADD DUP3 ADD PUSH1 0x40 MSTORE DUP1 ISZERO PUSH2 0xAFF JUMPI DUP2 PUSH1 0x20 ADD PUSH1 0x1 DUP3 MUL DUP1 CALLDATASIZE DUP4 CALLDATACOPY DUP1 DUP3 ADD SWAP2 POP POP SWAP1 POP JUMPDEST POP SWAP1 POP PUSH0 DUP3 PUSH1 0x20 DUP4 ADD ADD SWAP1 POP JUMPDEST PUSH1 0x1 ISZERO PUSH2 0xB60 JUMPI DUP1 DUP1 PUSH1 0x1 SWAP1 SUB SWAP2 POP POP PUSH32 0x3031323334353637383961626364656600000000000000000000000000000000 PUSH1 0xA DUP7 MOD BYTE DUP2 MSTORE8 PUSH1 0xA DUP6 DUP2 PUSH2 0xB55 JUMPI PUSH2 0xB54 PUSH2 0x1312 JUMP JUMPDEST JUMPDEST DIV SWAP5 POP PUSH0 DUP6 SUB PUSH2 0xB0C JUMPI JUMPDEST DUP2 SWAP4 POP POP POP POP SWAP2 SWAP1 POP JUMP JUMPDEST PUSH0 PUSH0 PUSH0 SWAP1 POP PUSH27 0x184F03E93FF9F4DAA797ED6E38ED64BF6A1F010000000000000000 DUP4 LT PUSH2 0xBC7 JUMPI PUSH27 0x184F03E93FF9F4DAA797ED6E38ED64BF6A1F010000000000000000 DUP4 DUP2 PUSH2 0xBBD JUMPI PUSH2 0xBBC PUSH2 0x1312 JUMP JUMPDEST JUMPDEST DIV SWAP3 POP PUSH1 0x40 DUP2 ADD SWAP1 POP JUMPDEST PUSH14 0x4EE2D6D415B85ACEF8100000000 DUP4 LT PUSH2 0xC04 JUMPI PUSH14 0x4EE2D6D415B85ACEF8100000000 DUP4 DUP2 PUSH2 0xBFA JUMPI PUSH2 0xBF9 PUSH2 0x1312 JUMP JUMPDEST JUMPDEST DIV SWAP3 POP PUSH1 0x20 DUP2 ADD SWAP1 POP JUMPDEST PUSH7 0x2386F26FC10000 DUP4 LT PUSH2 0xC33 JUMPI PUSH7 0x2386F26FC10000 DUP4 DUP2 PUSH2 0xC29 JUMPI PUSH2 0xC28 PUSH2 0x1312 JUMP JUMPDEST JUMPDEST DIV SWAP3 POP PUSH1 0x10 DUP2 ADD SWAP1 POP JUMPDEST PUSH4 0x5F5E100 DUP4 LT PUSH2 0xC5C JUMPI PUSH4 0x5F5E100 DUP4 DUP2 PUSH2 0xC52 JUMPI PUSH2 0xC51 PUSH2 0x1312 JUMP JUMPDEST JUMPDEST DIV SWAP3 POP PUSH1 0x8 DUP2 ADD SWAP1 POP JUMPDEST PUSH2 0x2710 DUP4 LT PUSH2 0xC81 JUMPI PUSH2 0x2710 DUP4 DUP2 PUSH2 0xC77 JUMPI PUSH2 0xC76 PUSH2 0x1312 JUMP JUMPDEST JUMPDEST DIV SWAP3 POP PUSH1 0x4 DUP2 ADD SWAP1 POP JUMPDEST PUSH1 0x64 DUP4 LT PUSH2 0xCA4 JUMPI PUSH1 0x64 DUP4 DUP2 PUSH2 0xC9A JUMPI PUSH2 0xC99 PUSH2 0x1312 JUMP JUMPDEST JUMPDEST DIV SWAP3 POP PUSH1 0x2 DUP2 ADD SWAP1 POP JUMPDEST PUSH1 0xA DUP4 LT PUSH2 0xCB3 JUMPI PUSH1 0x1 DUP2 ADD SWAP1 POP JUMPDEST DUP1 SWAP2 POP POP SWAP2 SWAP1 POP JUMP JUMPDEST PUSH0 PUSH0 REVERT JUMPDEST PUSH0 PUSH0 REVERT JUMPDEST PUSH0 PUSH20 0xFFFFFFFFFFFFFFFFFFFFFFFFFFFFFFFFFFFFFFFF DUP3 AND SWAP1 POP SWAP2 SWAP1 POP JUMP JUMPDEST PUSH0 PUSH2 0xCED DUP3 PUSH2 0xCC4 JUMP JUMPDEST SWAP1 POP SWAP2 SWAP1 POP JUMP JUMPDEST PUSH2 0xCFD DUP2 PUSH2 0xCE3 JUMP JUMPDEST DUP2 EQ PUSH2 0xD07 JUMPI PUSH0 PUSH0 REVERT JUMPDEST POP JUMP JUMPDEST PUSH0 DUP2 CALLDATALOAD SWAP1 POP PUSH2 0xD18 DUP2 PUSH2 0xCF4 JUMP JUMPDEST SWAP3 SWAP2 POP POP JUMP JUMPDEST PUSH0 PUSH1 0x20 DUP3 DUP5 SUB SLT ISZERO PUSH2 0xD33 JUMPI PUSH2 0xD32 PUSH2 0xCBC JUMP JUMPDEST JUMPDEST PUSH0 PUSH2 0xD40 DUP5 DUP3 DUP6 ADD PUSH2 0xD0A JUMP JUMPDEST SWAP2 POP POP SWAP3 SWAP2 POP POP JUMP JUMPDEST PUSH2 0xD52 DUP2 PUSH2 0xCE3 JUMP JUMPDEST DUP3 MSTORE POP POP JUMP JUMPDEST PUSH0 PUSH1 0x20 DUP3 ADD SWAP1 POP PUSH2 0xD6B PUSH0 DUP4 ADD DUP5 PUSH2 0xD49 JUMP JUMPDEST SWAP3 SWAP2 POP POP JUMP JUMPDEST PUSH0 DUP2 SWAP1 POP SWAP2 SWAP1 POP JUMP JUMPDEST PUSH2 0xD83 DUP2 PUSH2 0xD71 JUMP JUMPDEST DUP2 EQ PUSH2 0xD8D JUMPI PUSH0 PUSH0 REVERT JUMPDEST POP JUMP JUMPDEST PUSH0 DUP2 CALLDATALOAD SWAP1 POP PUSH2 0xD9E DUP2 PUSH2 0xD7A JUMP JUMPDEST SWAP3 SWAP2 POP POP JUMP JUMPDEST PUSH0 PUSH0 REVERT JUMPDEST PUSH0 PUSH0 REVERT JUMPDEST PUSH0 PUSH0 REVERT JUMPDEST PUSH0 PUSH0 DUP4 PUSH1 0x1F DUP5 ADD SLT PUSH2 0xDC5 JUMPI PUSH2 0xDC4 PUSH2 0xDA4 JUMP JUMPDEST JUMPDEST DUP3 CALLDATALOAD SWAP1 POP PUSH8 0xFFFFFFFFFFFFFFFF DUP2 GT ISZERO PUSH2 0xDE2 JUMPI PUSH2 0xDE1 PUSH2 0xDA8 JUMP JUMPDEST JUMPDEST PUSH1 0x20 DUP4 ADD SWAP2 POP DUP4 PUSH1 0x1 DUP3 MUL DUP4 ADD GT ISZERO PUSH2 0xDFE JUMPI PUSH2 0xDFD PUSH2 0xDAC JUMP JUMPDEST JUMPDEST SWAP3 POP SWAP3 SWAP1 POP JUMP JUMPDEST PUSH0 PUSH0 PUSH0 PUSH1 0x40 DUP5 DUP7 SUB SLT ISZERO PUSH2 0xE1C JUMPI PUSH2 0xE1B PUSH2 0xCBC JUMP JUMPDEST JUMPDEST PUSH0 PUSH2 0xE29 DUP7 DUP3 DUP8 ADD PUSH2 0xD90 JUMP JUMPDEST SWAP4 POP POP PUSH1 0x20 DUP5 ADD CALLDATALOAD PUSH8 0xFFFFFFFFFFFFFFFF DUP2 GT ISZERO PUSH2 0xE4A JUMPI PUSH2 0xE49 PUSH2 0xCC0 JUMP JUMPDEST JUMPDEST PUSH2 0xE56 DUP7 DUP3 DUP8 ADD PUSH2 0xDB0 JUMP JUMPDEST SWAP3 POP SWAP3 POP POP SWAP3 POP SWAP3 POP SWAP3 JUMP JUMPDEST PUSH2 0xE6B DUP2 PUSH2 0xD71 JUMP JUMPDEST DUP3 MSTORE POP POP JUMP JUMPDEST PUSH0 PUSH1 0x20 DUP3 ADD SWAP1 POP PUSH2 0xE84 PUSH0 DUP4 ADD DUP5 PUSH2 0xE62 JUMP JUMPDEST SWAP3 SWAP2 POP POP JUMP JUMPDEST PUSH0 PUSH4 0xFFFFFFFF DUP3 AND SWAP1 POP SWAP2 SWAP1 POP JUMP JUMPDEST PUSH2 0xEA2 DUP2 PUSH2 0xE8A JUMP JUMPDEST DUP3 MSTORE POP POP JUMP JUMPDEST PUSH0 PUSH1 0xFF DUP3 AND SWAP1 POP SWAP2 SWAP1 POP JUMP JUMPDEST PUSH2 0xEBD DUP2 PUSH2 0xEA8 JUMP JUMPDEST DUP3 MSTORE POP POP JUMP JUMPDEST PUSH0 PUSH1 0x40 DUP3 ADD SWAP1 POP PUSH2 0xED6 PUSH0 DUP4 ADD DUP6 PUSH2 0xE99 JUMP JUMPDEST PUSH2 0xEE3 PUSH1 0x20 DUP4 ADD DUP5 PUSH2 0xEB4 JUMP JUMPDEST SWAP4 SWAP3 POP POP POP JUMP JUMPDEST PUSH0 DUP2 SWAP1 POP SWAP2 SWAP1 POP JUMP JUMPDEST PUSH0 PUSH2 0xF0D PUSH2 0xF08 PUSH2 0xF03 DUP5 PUSH2 0xCC4 JUMP JUMPDEST PUSH2 0xEEA JUMP JUMPDEST PUSH2 0xCC4 JUMP JUMPDEST SWAP1 POP SWAP2 SWAP1 POP JUMP JUMPDEST PUSH0 PUSH2 0xF1E DUP3 PUSH2 0xEF3 JUMP JUMPDEST SWAP1 POP SWAP2 SWAP1 POP JUMP JUMPDEST PUSH0 PUSH2 0xF2F DUP3 PUSH2 0xF14 JUMP JUMPDEST SWAP1 POP SWAP2 SWAP1 POP JUMP JUMPDEST PUSH2 0xF3F DUP2 PUSH2 0xF25 JUMP JUMPDEST DUP3 MSTORE POP POP JUMP JUMPDEST PUSH0 PUSH1 0x20 DUP3 ADD SWAP1 POP PUSH2 0xF58 PUSH0 DUP4 ADD DUP5 PUSH2 0xF36 JUMP JUMPDEST SWAP3 SWAP2 POP POP JUMP JUMPDEST PUSH0 DUP3 DUP3 MSTORE PUSH1 0x20 DUP3 ADD SWAP1 POP SWAP3 SWAP2 POP POP JUMP JUMPDEST PUSH32 0x4E6F74206F776E65720000000000000000000000000000000000000000000000 PUSH0 DUP3 ADD MSTORE POP JUMP JUMPDEST PUSH0 PUSH2 0xFA2 PUSH1 0x9 DUP4 PUSH2 0xF5E JUMP JUMPDEST SWAP2 POP PUSH2 0xFAD DUP3 PUSH2 0xF6E JUMP JUMPDEST PUSH1 0x20 DUP3 ADD SWAP1 POP SWAP2 SWAP1 POP JUMP JUMPDEST PUSH0 PUSH1 0x20 DUP3 ADD SWAP1 POP DUP2 DUP2 SUB PUSH0 DUP4 ADD MSTORE PUSH2 0xFCF DUP2 PUSH2 0xF96 JUMP JUMPDEST SWAP1 POP SWAP2 SWAP1 POP JUMP JUMPDEST PUSH0 PUSH1 0x40 DUP3 ADD SWAP1 POP PUSH2 0xFE9 PUSH0 DUP4 ADD DUP6 PUSH2 0xD49 JUMP JUMPDEST PUSH2 0xFF6 PUSH1 0x20 DUP4 ADD DUP5 PUSH2 0xE62 JUMP JUMPDEST SWAP4 SWAP3 POP POP POP JUMP JUMPDEST PUSH0 DUP2 ISZERO ISZERO SWAP1 POP SWAP2 SWAP1 POP JUMP JUMPDEST PUSH2 0x1011 DUP2 PUSH2 0xFFD JUMP JUMPDEST DUP2 EQ PUSH2 0x101B JUMPI PUSH0 PUSH0 REVERT JUMPDEST POP JUMP JUMPDEST PUSH0 DUP2 MLOAD SWAP1 POP PUSH2 0x102C DUP2 PUSH2 0x1008 JUMP JUMPDEST SWAP3 SWAP2 POP POP JUMP JUMPDEST PUSH0 PUSH1 0x20 DUP3 DUP5 SUB SLT ISZERO PUSH2 0x1047 JUMPI PUSH2 0x1046 PUSH2 0xCBC JUMP JUMPDEST JUMPDEST PUSH0 PUSH2 0x1054 DUP5 DUP3 DUP6 ADD PUSH2 0x101E JUMP JUMPDEST SWAP2 POP POP SWAP3 SWAP2 POP POP JUMP JUMPDEST PUSH0 DUP2 PUSH1 0x60 SHL SWAP1 POP SWAP2 SWAP1 POP JUMP JUMPDEST PUSH0 PUSH2 0x1073 DUP3 PUSH2 0x105D JUMP JUMPDEST SWAP1 POP SWAP2 SWAP1 POP JUMP JUMPDEST PUSH0 PUSH2 0x1084 DUP3 PUSH2 0x1069 JUMP JUMPDEST SWAP1 POP SWAP2 SWAP1 POP JUMP JUMPDEST PUSH2 0x109C PUSH2 0x1097 DUP3 PUSH2 0xCE3 JUMP JUMPDEST PUSH2 0x107A JUMP JUMPDEST DUP3 MSTORE POP POP JUMP JUMPDEST PUSH0 DUP2 SWAP1 POP SWAP2 SWAP1 POP JUMP JUMPDEST PUSH2 0x10BC PUSH2 0x10B7 DUP3 PUSH2 0xD71 JUMP JUMPDEST PUSH2 0x10A2 JUMP JUMPDEST DUP3 MSTORE POP POP JUMP JUMPDEST PUSH0 PUSH2 0x10CD DUP3 DUP6 PUSH2 0x108B JUMP JUMPDEST PUSH1 0x14 DUP3 ADD SWAP2 POP PUSH2 0x10DD DUP3 DUP5 PUSH2 0x10AB JUMP JUMPDEST PUSH1 0x20 DUP3 ADD SWAP2 POP DUP2 SWAP1 POP SWAP4 SWAP3 POP POP POP JUMP JUMPDEST PUSH0 DUP2 SWAP1 POP SWAP3 SWAP2 POP POP JUMP JUMPDEST PUSH32 0x19457468657265756D205369676E6564204D6573736167653A0A333200000000 PUSH0 DUP3 ADD MSTORE POP JUMP JUMPDEST PUSH0 PUSH2 0x112B PUSH1 0x1C DUP4 PUSH2 0x10ED JUMP JUMPDEST SWAP2 POP PUSH2 0x1136 DUP3 PUSH2 0x10F7 JUMP JUMPDEST PUSH1 0x1C DUP3 ADD SWAP1 POP SWAP2 SWAP1 POP JUMP JUMPDEST PUSH0 DUP2 SWAP1 POP SWAP2 SWAP1 POP JUMP JUMPDEST PUSH0 DUP2 SWAP1 POP SWAP2 SWAP1 POP JUMP JUMPDEST PUSH2 0x1164 PUSH2 0x115F DUP3 PUSH2 0x1141 JUMP JUMPDEST PUSH2 0x114A JUMP JUMPDEST DUP3 MSTORE POP POP JUMP JUMPDEST PUSH0 PUSH2 0x1174 DUP3 PUSH2 0x111F JUMP JUMPDEST SWAP2 POP PUSH2 0x1180 DUP3 DUP5 PUSH2 0x1153 JUMP JUMPDEST PUSH1 0x20 DUP3 ADD SWAP2 POP DUP2 SWAP1 POP SWAP3 SWAP2 POP POP JUMP JUMPDEST PUSH32 0x496E76616C6964207369676E6174757265000000000000000000000000000000 PUSH0 DUP3 ADD MSTORE POP JUMP JUMPDEST PUSH0 PUSH2 0x11C3 PUSH1 0x11 DUP4 PUSH2 0xF5E JUMP JUMPDEST SWAP2 POP PUSH2 0x11CE DUP3 PUSH2 0x118F JUMP JUMPDEST PUSH1 0x20 DUP3 ADD SWAP1 POP SWAP2 SWAP1 POP JUMP JUMPDEST PUSH0 PUSH1 0x20 DUP3 ADD SWAP1 POP DUP2 DUP2 SUB PUSH0 DUP4 ADD MSTORE PUSH2 0x11F0 DUP2 PUSH2 0x11B7 JUMP JUMPDEST SWAP1 POP SWAP2 SWAP1 POP JUMP JUMPDEST PUSH32 0x53636F7265206C696D69742065786365656465642E2052656365697665643A20 PUSH0 DUP3 ADD MSTORE POP JUMP JUMPDEST PUSH0 PUSH2 0x122B PUSH1 0x20 DUP4 PUSH2 0x10ED JUMP JUMPDEST SWAP2 POP PUSH2 0x1236 DUP3 PUSH2 0x11F7 JUMP JUMPDEST PUSH1 0x20 DUP3 ADD SWAP1 POP SWAP2 SWAP1 POP JUMP JUMPDEST PUSH0 DUP2 MLOAD SWAP1 POP SWAP2 SWAP1 POP JUMP JUMPDEST DUP3 DUP2 DUP4 MCOPY PUSH0 DUP4 DUP4 ADD MSTORE POP POP POP JUMP JUMPDEST PUSH0 PUSH2 0x1263 DUP3 PUSH2 0x1241 JUMP JUMPDEST PUSH2 0x126D DUP2 DUP6 PUSH2 0x10ED JUMP JUMPDEST SWAP4 POP PUSH2 0x127D DUP2 DUP6 PUSH1 0x20 DUP7 ADD PUSH2 0x124B JUMP JUMPDEST DUP1 DUP5 ADD SWAP2 POP POP SWAP3 SWAP2 POP POP JUMP JUMPDEST PUSH0 PUSH2 0x1293 DUP3 PUSH2 0x121F JUMP JUMPDEST SWAP2 POP PUSH2 0x129F DUP3 DUP5 PUSH2 0x1259 JUMP JUMPDEST SWAP2 POP DUP2 SWAP1 POP SWAP3 SWAP2 POP POP JUMP JUMPDEST PUSH0 PUSH1 0x1F NOT PUSH1 0x1F DUP4 ADD AND SWAP1 POP SWAP2 SWAP1 POP JUMP JUMPDEST PUSH0 PUSH2 0x12C4 DUP3 PUSH2 0x1241 JUMP JUMPDEST PUSH2 0x12CE DUP2 DUP6 PUSH2 0xF5E JUMP JUMPDEST SWAP4 POP PUSH2 0x12DE DUP2 DUP6 PUSH1 0x20 DUP7 ADD PUSH2 0x124B JUMP JUMPDEST PUSH2 0x12E7 DUP2 PUSH2 0x12AA JUMP JUMPDEST DUP5 ADD SWAP2 POP POP SWAP3 SWAP2 POP POP JUMP JUMPDEST PUSH0 PUSH1 0x20 DUP3 ADD SWAP1 POP DUP2 DUP2 SUB PUSH0 DUP4 ADD MSTORE PUSH2 0x130A DUP2 DUP5 PUSH2 0x12BA JUMP JUMPDEST SWAP1 POP SWAP3 SWAP2 POP POP JUMP JUMPDEST PUSH32 0x4E487B7100000000000000000000000000000000000000000000000000000000 PUSH0 MSTORE PUSH1 0x12 PUSH1 0x4 MSTORE PUSH1 0x24 PUSH0 REVERT JUMPDEST PUSH32 0x4E487B7100000000000000000000000000000000000000000000000000000000 PUSH0 MSTORE PUSH1 0x11 PUSH1 0x4 MSTORE PUSH1 0x24 PUSH0 REVERT JUMPDEST PUSH0 PUSH2 0x1376 DUP3 PUSH2 0xD71 JUMP JUMPDEST SWAP2 POP PUSH2 0x1381 DUP4 PUSH2 0xD71 JUMP JUMPDEST SWAP3 POP DUP3 PUSH2 0x1391 JUMPI PUSH2 0x1390 PUSH2 0x1312 JUMP JUMPDEST JUMPDEST DUP3 DUP3 DIV SWAP1 POP SWAP3 SWAP2 POP POP JUMP JUMPDEST PUSH32 0x4461696C79206C696D6974207265616368656400000000000000000000000000 PUSH0 DUP3 ADD MSTORE POP JUMP JUMPDEST PUSH0 PUSH2 0x13D0 PUSH1 0x13 DUP4 PUSH2 0xF5E JUMP JUMPDEST SWAP2 POP PUSH2 0x13DB DUP3 PUSH2 0x139C JUMP JUMPDEST PUSH1 0x20 DUP3 ADD SWAP1 POP SWAP2 SWAP1 POP JUMP JUMPDEST PUSH0 PUSH1 0x20 DUP3 ADD SWAP1 POP DUP2 DUP2 SUB PUSH0 DUP4 ADD MSTORE PUSH2 0x13FD DUP2 PUSH2 0x13C4 JUMP JUMPDEST SWAP1 POP SWAP2 SWAP1 POP JUMP JUMPDEST PUSH0 PUSH2 0x140E DUP3 PUSH2 0xEA8 JUMP JUMPDEST SWAP2 POP PUSH2 0x1419 DUP4 PUSH2 0xEA8 JUMP JUMPDEST SWAP3 POP DUP3 DUP3 ADD SWAP1 POP PUSH1 0xFF DUP2 GT ISZERO PUSH2 0x1432 JUMPI PUSH2 0x1431 PUSH2 0x133F JUMP JUMPDEST JUMPDEST SWAP3 SWAP2 POP POP JUMP JUMPDEST PUSH0 PUSH2 0x1442 DUP3 PUSH2 0xD71 JUMP JUMPDEST SWAP2 POP PUSH2 0x144D DUP4 PUSH2 0xD71 JUMP JUMPDEST SWAP3 POP DUP3 DUP3 MUL PUSH2 0x145B DUP2 PUSH2 0xD71 JUMP JUMPDEST SWAP2 POP DUP3 DUP3 DIV DUP5 EQ DUP4 ISZERO OR PUSH2 0x1472 JUMPI PUSH2 0x1471 PUSH2 0x133F JUMP JUMPDEST JUMPDEST POP SWAP3 SWAP2 POP POP JUMP JUMPDEST PUSH32 0x496E73756666696369656E74207661756C742062616C616E6365000000000000 PUSH0 DUP3 ADD MSTORE POP JUMP JUMPDEST PUSH0 PUSH2 0x14AD PUSH1 0x1A DUP4 PUSH2 0xF5E JUMP JUMPDEST SWAP2 POP PUSH2 0x14B8 DUP3 PUSH2 0x1479 JUMP JUMPDEST PUSH1 0x20 DUP3 ADD SWAP1 POP SWAP2 SWAP1 POP JUMP JUMPDEST PUSH0 PUSH1 0x20 DUP3 ADD SWAP1 POP DUP2 DUP2 SUB PUSH0 DUP4 ADD MSTORE PUSH2 0x14DA DUP2 PUSH2 0x14A1 JUMP JUMPDEST SWAP1 POP SWAP2 SWAP1 POP JUMP JUMPDEST PUSH32 0x5472616E73666572206661696C65640000000000000000000000000000000000 PUSH0 DUP3 ADD MSTORE POP JUMP JUMPDEST PUSH0 PUSH2 0x1515 PUSH1 0xF DUP4 PUSH2 0xF5E JUMP JUMPDEST SWAP2 POP PUSH2 0x1520 DUP3 PUSH2 0x14E1 JUMP JUMPDEST PUSH1 0x20 DUP3 ADD SWAP1 POP SWAP2 SWAP1 POP JUMP JUMPDEST PUSH0 PUSH1 0x20 DUP3 ADD SWAP1 POP DUP2 DUP2 SUB PUSH0 DUP4 ADD MSTORE PUSH2 0x1542 DUP2 PUSH2 0x1509 JUMP JUMPDEST SWAP1 POP SWAP2 SWAP1 POP JUMP JUMPDEST PUSH0 DUP2 MLOAD SWAP1 POP PUSH2 0x1557 DUP2 PUSH2 0xD7A JUMP JUMPDEST SWAP3 SWAP2 POP POP JUMP JUMPDEST PUSH0 PUSH1 0x20 DUP3 DUP5 SUB SLT ISZERO PUSH2 0x1572 JUMPI PUSH2 0x1571 PUSH2 0xCBC JUMP JUMPDEST JUMPDEST PUSH0 PUSH2 0x157F DUP5 DUP3 DUP6 ADD PUSH2 0x1549 JUMP JUMPDEST SWAP2 POP POP SWAP3 SWAP2 POP POP JUMP JUMPDEST PUSH2 0x1591 DUP2 PUSH2 0x1141 JUMP JUMPDEST DUP3 MSTORE POP POP JUMP JUMPDEST PUSH0 PUSH1 0x80 DUP3 ADD SWAP1 POP PUSH2 0x15AA PUSH0 DUP4 ADD DUP8 PUSH2 0x1588 JUMP JUMPDEST PUSH2 0x15B7 PUSH1 0x20 DUP4 ADD DUP7 PUSH2 0xEB4 JUMP JUMPDEST PUSH2 0x15C4 PUSH1 0x40 DUP4 ADD DUP6 PUSH2 0x1588 JUMP JUMPDEST PUSH2 0x15D1 PUSH1 0x60 DUP4 ADD DUP5 PUSH2 0x1588 JUMP JUMPDEST SWAP6 SWAP5 POP POP POP POP POP JUMP JUMPDEST PUSH32 0x4E487B7100000000000000000000000000000000000000000000000000000000 PUSH0 MSTORE PUSH1 0x41 PUSH1 0x4 MSTORE PUSH1 0x24 PUSH0 REVERT INVALID LOG2 PUSH5 0x6970667358 0x22 SLT KECCAK256 DUP1 0xC DUP3 0xE2 SWAP12 SWAP14 MULMOD PUSH14 0xCCE42DD26CB05ABA934F20BB41F1 BLOCKHASH CALLDATALOAD 0xAE JUMPI EXTCALL MCOPY SWAP14 SWAPN 0x3E 0xD2 PUSH5 0x736F6C6343 STOP ADDMOD 0x1F STOP CALLER "
		},
		"gasEstimates": {
			"creation": {
				"codeDepositCost": "1138600",
				"executionCost": "infinite",
				"totalCost": "infinite"
			},
			"external": {
				"claimScore(uint256,bytes)": "infinite",
				"getVaultBalance()": "infinite",
				"getVaultBalanceInteger()": "infinite",
				"owner()": "2574",
				"setSignerAddress(address)": "26884",
				"signerAddress()": "2531",
				"token()": "infinite",
				"userClaims(address)": "5224",
				"withdrawTokens()": "infinite"
			},
			"internal": {
				"_recover(bytes32,bytes memory)": "infinite"
			}
		},
		"methodIdentifiers": {
			"claimScore(uint256,bytes)": "99af1ee4",
			"getVaultBalance()": "ed12e8ef",
			"getVaultBalanceInteger()": "dd9b08c1",
			"owner()": "8da5cb5b",
			"setSignerAddress(address)": "046dc166",
			"signerAddress()": "5b7633d0",
			"token()": "fc0c546a",
			"userClaims(address)": "f0a3563c",
			"withdrawTokens()": "8d8f2adb"
		}
	},
	"abi": [
		{
			"inputs": [
				{
					"internalType": "address",
					"name": "_tokenAddress",
					"type": "address"
				}
			],
			"stateMutability": "nonpayable",
			"type": "constructor"
		},
		{
			"inputs": [
				{
					"internalType": "uint256",
					"name": "score",
					"type": "uint256"
				},
				{
					"internalType": "bytes",
					"name": "signature",
					"type": "bytes"
				}
			],
			"name": "claimScore",
			"outputs": [],
			"stateMutability": "nonpayable",
			"type": "function"
		},
		{
			"inputs": [],
			"name": "getVaultBalance",
			"outputs": [
				{
					"internalType": "uint256",
					"name": "",
					"type": "uint256"
				}
			],
			"stateMutability": "view",
			"type": "function"
		},
		{
			"inputs": [],
			"name": "getVaultBalanceInteger",
			"outputs": [
				{
					"internalType": "uint256",
					"name": "",
					"type": "uint256"
				}
			],
			"stateMutability": "view",
			"type": "function"
		},
		{
			"inputs": [],
			"name": "owner",
			"outputs": [
				{
					"internalType": "address",
					"name": "",
					"type": "address"
				}
			],
			"stateMutability": "view",
			"type": "function"
		},
		{
			"inputs": [
				{
					"internalType": "address",
					"name": "_newSigner",
					"type": "address"
				}
			],
			"name": "setSignerAddress",
			"outputs": [],
			"stateMutability": "nonpayable",
			"type": "function"
		},
		{
			"inputs": [],
			"name": "signerAddress",
			"outputs": [
				{
					"internalType": "address",
					"name": "",
					"type": "address"
				}
			],
			"stateMutability": "view",
			"type": "function"
		},
		{
			"inputs": [],
			"name": "token",
			"outputs": [
				{
					"internalType": "contract IERC20",
					"name": "",
					"type": "address"
				}
			],
			"stateMutability": "view",
			"type": "function"
		},
		{
			"inputs": [
				{
					"internalType": "address",
					"name": "",
					"type": "address"
				}
			],
			"name": "userClaims",
			"outputs": [
				{
					"internalType": "uint32",
					"name": "lastClaimDay",
					"type": "uint32"
				},
				{
					"internalType": "uint8",
					"name": "dailyCount",
					"type": "uint8"
				}
			],
			"stateMutability": "view",
			"type": "function"
		},
		{
			"inputs": [],
			"name": "withdrawTokens",
			"outputs": [],
			"stateMutability": "nonpayable",
			"type": "function"
		}
	]
}