{
	"data": {
		"bytecode": {
			"linkReferences": {},
			"object": "608060405273b6edacfc0dfc759e9ac5b9b8b6eb32310ac1bb4960015f6101000a81548173ffffffffffffffffffffffffffffffffffffffff021916908373ffffffffffffffffffffffffffffffffffffffff1602179055503480156062575f5ffd5b50739eb566cc59e3e9d42209dd2d832740a6a74f5f235f5f6101000a81548173ffffffffffffffffffffffffffffffffffffffff021916908373ffffffffffffffffffffffffffffffffffffffff16021790555061052f806100c35f395ff3fe608060405234801561000f575f5ffd5b5060043610610055575f3560e01c80634e71d92d146100595780635b7633d0146100635780638da5cb5b14610081578063b77cf9c61461009f578063bf3506c1146100cf575b5f5ffd5b6100616100ff565b005b61006b6101d9565b6040516100789190610328565b60405180910390f35b6100896101fe565b6040516100969190610328565b60405180910390f35b6100b960048036038101906100b4919061036f565b610222565b6040516100c691906103b2565b60405180910390f35b6100e960048036038101906100e4919061036f565b610237565b6040516100f691906103e5565b60405180910390f35b61010833610237565b610147576040517f08c379a000000000000000000000000000000000000000000000000000000000815260040161013e9061047e565b60405180910390fd5b4260025f3373ffffffffffffffffffffffffffffffffffffffff1673ffffffffffffffffffffffffffffffffffffffff1681526020019081526020015f20819055503373ffffffffffffffffffffffffffffffffffffffff167f4e69fdc49495bcab2b4375781457ba16653a90eb4ffb6588351bdc39071433e2426040516101cf91906103b2565b60405180910390a2565b60015f9054906101000a900473ffffffffffffffffffffffffffffffffffffffff1681565b5f5f9054906101000a900473ffffffffffffffffffffffffffffffffffffffff1681565b6002602052805f5260405f205f915090505481565b5f5f60025f8473ffffffffffffffffffffffffffffffffffffffff1673ffffffffffffffffffffffffffffffffffffffff1681526020019081526020015f20540361028557600190506102e4565b6201518060025f8473ffffffffffffffffffffffffffffffffffffffff1673ffffffffffffffffffffffffffffffffffffffff1681526020019081526020015f20546102d191906104c9565b62015180426102e091906104c9565b1190505b919050565b5f73ffffffffffffffffffffffffffffffffffffffff82169050919050565b5f610312826102e9565b9050919050565b61032281610308565b82525050565b5f60208201905061033b5f830184610319565b92915050565b5f5ffd5b61034e81610308565b8114610358575f5ffd5b50565b5f8135905061036981610345565b92915050565b5f6020828403121561038457610383610341565b5b5f6103918482850161035b565b91505092915050565b5f819050919050565b6103ac8161039a565b82525050565b5f6020820190506103c55f8301846103a3565b92915050565b5f8115159050919050565b6103df816103cb565b82525050565b5f6020820190506103f85f8301846103d6565b92915050565b5f82825260208201905092915050565b7f4e65787420636c61696d20617661696c61626c65206174204a535420393a30305f8201527f20414d0000000000000000000000000000000000000000000000000000000000602082015250565b5f6104686023836103fe565b91506104738261040e565b604082019050919050565b5f6020820190508181035f8301526104958161045c565b9050919050565b7f4e487b71000000000000000000000000000000000000000000000000000000005f52601260045260245ffd5b5f6104d38261039a565b91506104de8361039a565b9250826104ee576104ed61049c565b5b82820490509291505056fea2646970667358221220d0e71702c48574414ca67cb0d30f023777871f213399d98afc416000dee6730364736f6c634300081f0033",
			"opcodes": "PUSH1 0x80 PUSH1 0x40 MSTORE PUSH20 0xB6EDACFC0DFC759E9AC5B9B8B6EB32310AC1BB49 PUSH1 0x1 PUSH0 PUSH2 0x100 EXP DUP2 SLOAD DUP2 PUSH20 0xFFFFFFFFFFFFFFFFFFFFFFFFFFFFFFFFFFFFFFFF MUL NOT AND SWAP1 DUP4 PUSH20 0xFFFFFFFFFFFFFFFFFFFFFFFFFFFFFFFFFFFFFFFF AND MUL OR SWAP1 SSTORE POP CALLVALUE DUP1 ISZERO PUSH1 0x62 JUMPI PUSH0 PUSH0 REVERT JUMPDEST POP PUSH20 0x9EB566CC59E3E9D42209DD2D832740A6A74F5F23 PUSH0 PUSH0 PUSH2 0x100 EXP DUP2 SLOAD DUP2 PUSH20 0xFFFFFFFFFFFFFFFFFFFFFFFFFFFFFFFFFFFFFFFF MUL NOT AND SWAP1 DUP4 PUSH20 0xFFFFFFFFFFFFFFFFFFFFFFFFFFFFFFFFFFFFFFFF AND MUL OR SWAP1 SSTORE POP PUSH2 0x52F DUP1 PUSH2 0xC3 PUSH0 CODECOPY PUSH0 RETURN INVALID PUSH1 0x80 PUSH1 0x40 MSTORE CALLVALUE DUP1 ISZERO PUSH2 0xF JUMPI PUSH0 PUSH0 REVERT JUMPDEST POP PUSH1 0x4 CALLDATASIZE LT PUSH2 0x55 JUMPI PUSH0 CALLDATALOAD PUSH1 0xE0 SHR DUP1 PUSH4 0x4E71D92D EQ PUSH2 0x59 JUMPI DUP1 PUSH4 0x5B7633D0 EQ PUSH2 0x63 JUMPI DUP1 PUSH4 0x8DA5CB5B EQ PUSH2 0x81 JUMPI DUP1 PUSH4 0xB77CF9C6 EQ PUSH2 0x9F JUMPI DUP1 PUSH4 0xBF3506C1 EQ PUSH2 0xCF JUMPI JUMPDEST PUSH0 PUSH0 REVERT JUMPDEST PUSH2 0x61 PUSH2 0xFF JUMP JUMPDEST STOP JUMPDEST PUSH2 0x6B PUSH2 0x1D9 JUMP JUMPDEST PUSH1 0x40 MLOAD PUSH2 0x78 SWAP2 SWAP1 PUSH2 0x328 JUMP JUMPDEST PUSH1 0x40 MLOAD DUP1 SWAP2 SUB SWAP1 RETURN JUMPDEST PUSH2 0x89 PUSH2 0x1FE JUMP JUMPDEST PUSH1 0x40 MLOAD PUSH2 0x96 SWAP2 SWAP1 PUSH2 0x328 JUMP JUMPDEST PUSH1 0x40 MLOAD DUP1 SWAP2 SUB SWAP1 RETURN JUMPDEST PUSH2 0xB9 PUSH1 0x4 DUP1 CALLDATASIZE SUB DUP2 ADD SWAP1 PUSH2 0xB4 SWAP2 SWAP1 PUSH2 0x36F JUMP JUMPDEST PUSH2 0x222 JUMP JUMPDEST PUSH1 0x40 MLOAD PUSH2 0xC6 SWAP2 SWAP1 PUSH2 0x3B2 JUMP JUMPDEST PUSH1 0x40 MLOAD DUP1 SWAP2 SUB SWAP1 RETURN JUMPDEST PUSH2 0xE9 PUSH1 0x4 DUP1 CALLDATASIZE SUB DUP2 ADD SWAP1 PUSH2 0xE4 SWAP2 SWAP1 PUSH2 0x36F JUMP JUMPDEST PUSH2 0x237 JUMP JUMPDEST PUSH1 0x40 MLOAD PUSH2 0xF6 SWAP2 SWAP1 PUSH2 0x3E5 JUMP JUMPDEST PUSH1 0x40 MLOAD DUP1 SWAP2 SUB SWAP1 RETURN JUMPDEST PUSH2 0x108 CALLER PUSH2 0x237 JUMP JUMPDEST PUSH2 0x147 JUMPI PUSH1 0x40 MLOAD PUSH32 0x8C379A000000000000000000000000000000000000000000000000000000000 DUP2 MSTORE PUSH1 0x4 ADD PUSH2 0x13E SWAP1 PUSH2 0x47E JUMP JUMPDEST PUSH1 0x40 MLOAD DUP1 SWAP2 SUB SWAP1 REVERT JUMPDEST TIMESTAMP PUSH1 0x2 PUSH0 CALLER PUSH20 0xFFFFFFFFFFFFFFFFFFFFFFFFFFFFFFFFFFFFFFFF AND PUSH20 0xFFFFFFFFFFFFFFFFFFFFFFFFFFFFFFFFFFFFFFFF AND DUP2 MSTORE PUSH1 0x20 ADD SWAP1 DUP2 MSTORE PUSH1 0x20 ADD PUSH0 KECCAK256 DUP2 SWAP1 SSTORE POP CALLER PUSH20 0xFFFFFFFFFFFFFFFFFFFFFFFFFFFFFFFFFFFFFFFF AND PUSH32 0x4E69FDC49495BCAB2B4375781457BA16653A90EB4FFB6588351BDC39071433E2 TIMESTAMP PUSH1 0x40 MLOAD PUSH2 0x1CF SWAP2 SWAP1 PUSH2 0x3B2 JUMP JUMPDEST PUSH1 0x40 MLOAD DUP1 SWAP2 SUB SWAP1 LOG2 JUMP JUMPDEST PUSH1 0x1 PUSH0 SWAP1 SLOAD SWAP1 PUSH2 0x100 EXP SWAP1 DIV PUSH20 0xFFFFFFFFFFFFFFFFFFFFFFFFFFFFFFFFFFFFFFFF AND DUP2 JUMP JUMPDEST PUSH0 PUSH0 SWAP1 SLOAD SWAP1 PUSH2 0x100 EXP SWAP1 DIV PUSH20 0xFFFFFFFFFFFFFFFFFFFFFFFFFFFFFFFFFFFFFFFF AND DUP2 JUMP JUMPDEST PUSH1 0x2 PUSH1 0x20 MSTORE DUP1 PUSH0 MSTORE PUSH1 0x40 PUSH0 KECCAK256 PUSH0 SWAP2 POP SWAP1 POP SLOAD DUP2 JUMP JUMPDEST PUSH0 PUSH0 PUSH1 0x2 PUSH0 DUP5 PUSH20 0xFFFFFFFFFFFFFFFFFFFFFFFFFFFFFFFFFFFFFFFF AND PUSH20 0xFFFFFFFFFFFFFFFFFFFFFFFFFFFFFFFFFFFFFFFF AND DUP2 MSTORE PUSH1 0x20 ADD SWAP1 DUP2 MSTORE PUSH1 0x20 ADD PUSH0 KECCAK256 SLOAD SUB PUSH2 0x285 JUMPI PUSH1 0x1 SWAP1 POP PUSH2 0x2E4 JUMP JUMPDEST PUSH3 0x15180 PUSH1 0x2 PUSH0 DUP5 PUSH20 0xFFFFFFFFFFFFFFFFFFFFFFFFFFFFFFFFFFFFFFFF AND PUSH20 0xFFFFFFFFFFFFFFFFFFFFFFFFFFFFFFFFFFFFFFFF AND DUP2 MSTORE PUSH1 0x20 ADD SWAP1 DUP2 MSTORE PUSH1 0x20 ADD PUSH0 KECCAK256 SLOAD PUSH2 0x2D1 SWAP2 SWAP1 PUSH2 0x4C9 JUMP JUMPDEST PUSH3 0x15180 TIMESTAMP PUSH2 0x2E0 SWAP2 SWAP1 PUSH2 0x4C9 JUMP JUMPDEST GT SWAP1 POP JUMPDEST SWAP2 SWAP1 POP JUMP JUMPDEST PUSH0 PUSH20 0xFFFFFFFFFFFFFFFFFFFFFFFFFFFFFFFFFFFFFFFF DUP3 AND SWAP1 POP SWAP2 SWAP1 POP JUMP JUMPDEST PUSH0 PUSH2 0x312 DUP3 PUSH2 0x2E9 JUMP JUMPDEST SWAP1 POP SWAP2 SWAP1 POP JUMP JUMPDEST PUSH2 0x322 DUP2 PUSH2 0x308 JUMP JUMPDEST DUP3 MSTORE POP POP JUMP JUMPDEST PUSH0 PUSH1 0x20 DUP3 ADD SWAP1 POP PUSH2 0x33B PUSH0 DUP4 ADD DUP5 PUSH2 0x319 JUMP JUMPDEST SWAP3 SWAP2 POP POP JUMP JUMPDEST PUSH0 PUSH0 REVERT JUMPDEST PUSH2 0x34E DUP2 PUSH2 0x308 JUMP JUMPDEST DUP2 EQ PUSH2 0x358 JUMPI PUSH0 PUSH0 REVERT JUMPDEST POP JUMP JUMPDEST PUSH0 DUP2 CALLDATALOAD SWAP1 POP PUSH2 0x369 DUP2 PUSH2 0x345 JUMP JUMPDEST SWAP3 SWAP2 POP POP JUMP JUMPDEST PUSH0 PUSH1 0x20 DUP3 DUP5 SUB SLT ISZERO PUSH2 0x384 JUMPI PUSH2 0x383 PUSH2 0x341 JUMP JUMPDEST JUMPDEST PUSH0 PUSH2 0x391 DUP5 DUP3 DUP6 ADD PUSH2 0x35B JUMP JUMPDEST SWAP2 POP POP SWAP3 SWAP2 POP POP JUMP JUMPDEST PUSH0 DUP2 SWAP1 POP SWAP2 SWAP1 POP JUMP JUMPDEST PUSH2 0x3AC DUP2 PUSH2 0x39A JUMP JUMPDEST DUP3 MSTORE POP POP JUMP JUMPDEST PUSH0 PUSH1 0x20 DUP3 ADD SWAP1 POP PUSH2 0x3C5 PUSH0 DUP4 ADD DUP5 PUSH2 0x3A3 JUMP JUMPDEST SWAP3 SWAP2 POP POP JUMP JUMPDEST PUSH0 DUP2 ISZERO ISZERO SWAP1 POP SWAP2 SWAP1 POP JUMP JUMPDEST PUSH2 0x3DF DUP2 PUSH2 0x3CB JUMP JUMPDEST DUP3 MSTORE POP POP JUMP JUMPDEST PUSH0 PUSH1 0x20 DUP3 ADD SWAP1 POP PUSH2 0x3F8 PUSH0 DUP4 ADD DUP5 PUSH2 0x3D6 JUMP JUMPDEST SWAP3 SWAP2 POP POP JUMP JUMPDEST PUSH0 DUP3 DUP3 MSTORE PUSH1 0x20 DUP3 ADD SWAP1 POP SWAP3 SWAP2 POP POP JUMP JUMPDEST PUSH32 0x4E65787420636C61696D20617661696C61626C65206174204A535420393A3030 PUSH0 DUP3 ADD MSTORE PUSH32 0x20414D0000000000000000000000000000000000000000000000000000000000 PUSH1 0x20 DUP3 ADD MSTORE POP JUMP JUMPDEST PUSH0 PUSH2 0x468 PUSH1 0x23 DUP4 PUSH2 0x3FE JUMP JUMPDEST SWAP2 POP PUSH2 0x473 DUP3 PUSH2 0x40E JUMP JUMPDEST PUSH1 0x40 DUP3 ADD SWAP1 POP SWAP2 SWAP1 POP JUMP JUMPDEST PUSH0 PUSH1 0x20 DUP3 ADD SWAP1 POP DUP2 DUP2 SUB PUSH0 DUP4 ADD MSTORE PUSH2 0x495 DUP2 PUSH2 0x45C JUMP JUMPDEST SWAP1 POP SWAP2 SWAP1 POP JUMP JUMPDEST PUSH32 0x4E487B7100000000000000000000000000000000000000000000000000000000 PUSH0 MSTORE PUSH1 0x12 PUSH1 0x4 MSTORE PUSH1 0x24 PUSH0 REVERT JUMPDEST PUSH0 PUSH2 0x4D3 DUP3 PUSH2 0x39A JUMP JUMPDEST SWAP2 POP PUSH2 0x4DE DUP4 PUSH2 0x39A JUMP JUMPDEST SWAP3 POP DUP3 PUSH2 0x4EE JUMPI PUSH2 0x4ED PUSH2 0x49C JUMP JUMPDEST JUMPDEST DUP3 DUP3 DIV SWAP1 POP SWAP3 SWAP2 POP POP JUMP INVALID LOG2 PUSH5 0x6970667358 0x22 SLT KECCAK256 0xD0 SWAPN 0x17 MUL 0xC4 DUP6 PUSH21 0x414CA67CB0D30F023777871F213399D98AFC416000 0xDE DUPN 0x73 SUB PUSH5 0x736F6C6343 STOP ADDMOD 0x1F STOP CALLER "
		},
		"gasEstimates": {
			"creation": {
				"codeDepositCost": "265400",
				"executionCost": "48835",
				"totalCost": "314235"
			},
			"external": {
				"canClaim(address)": "infinite",
				"claim()": "infinite",
				"lastClaimTime(address)": "2846",
				"owner()": "2529",
				"signerAddress()": "2508"
			}
		},
		"methodIdentifiers": {
			"canClaim(address)": "bf3506c1",
			"claim()": "4e71d92d",
			"lastClaimTime(address)": "b77cf9c6",
			"owner()": "8da5cb5b",
			"signerAddress()": "5b7633d0"
		}
	},
	"abi": [
		{
			"inputs": [],
			"stateMutability": "nonpayable",
			"type": "constructor"
		},
		{
			"anonymous": false,
			"inputs": [
				{
					"indexed": true,
					"internalType": "address",
					"name": "user",
					"type": "address"
				},
				{
					"indexed": false,
					"internalType": "uint256",
					"name": "timestamp",
					"type": "uint256"
				}
			],
			"name": "BonusClaimed",
			"type": "event"
		},
		{
			"inputs": [
				{
					"internalType": "address",
					"name": "user",
					"type": "address"
				}
			],
			"name": "canClaim",
			"outputs": [
				{
					"internalType": "bool",
					"name": "",
					"type": "bool"
				}
			],
			"stateMutability": "view",
			"type": "function"
		},
		{
			"inputs": [],
			"name": "claim",
			"outputs": [],
			"stateMutability": "nonpayable",
			"type": "function"
		},
		{
			"inputs": [
				{
					"internalType": "address",
					"name": "",
					"type": "address"
				}
			],
			"name": "lastClaimTime",
			"outputs": [
				{
					"internalType": "uint256",
					"name": "",
					"type": "uint256"
				}
			],
			"stateMutability": "view",
			"type": "function"
		},
		{
			"inputs": [],
			"name": "owner",
			"outputs": [
				{
					"internalType": "address",
					"name": "",
					"type": "address"
				}
			],
			"stateMutability": "view",
			"type": "function"
		},
		{
			"inputs": [],
			"name": "signerAddress",
			"outputs": [
				{
					"internalType": "address",
					"name": "",
					"type": "address"
				}
			],
			"stateMutability": "view",
			"type": "function"
		}
	]
}