{
	"data": {
		"bytecode": {
			"linkReferences": {},
			"object": "60a060405234801561000f575f5ffd5b50335f73ffffffffffffffffffffffffffffffffffffffff168173ffffffffffffffffffffffffffffffffffffffff1603610081575f6040517f1e4fbdf700000000000000000000000000000000000000000000000000000000815260040161007891906102d8565b60405180910390fd5b6100908161017060201b60201c565b506001808190555073b0525542e3d818460546332e76e511562dff9b0773ffffffffffffffffffffffffffffffffffffffff1660808173ffffffffffffffffffffffffffffffffffffffff1681525050610103739eb566cc59e3e9d42209dd2d832740a6a74f5f2361017060201b60201c565b6101176001600260c861023160201b60201c565b61012c600260056101f461023160201b60201c565b6101416003600a6104b061023160201b60201c565b6101566004601e610bb861023160201b60201c565b61016b60056050611f4061023160201b60201c565b6102f1565b5f5f5f9054906101000a900473ffffffffffffffffffffffffffffffffffffffff169050815f5f6101000a81548173ffffffffffffffffffffffffffffffffffffffff021916908373ffffffffffffffffffffffffffffffffffffffff1602179055508173ffffffffffffffffffffffffffffffffffffffff168173ffffffffffffffffffffffffffffffffffffffff167f8be0079c531659141344cd1fd0a4f28419497f9722a3daafe3b4186f6b6457e060405160405180910390a35050565b60405180606001604052808381526020018281526020016001151581525060025f8581526020019081526020015f205f820151815f0155602082015181600101556040820151816002015f6101000a81548160ff021916908315150217905550905050505050565b5f73ffffffffffffffffffffffffffffffffffffffff82169050919050565b5f6102c282610299565b9050919050565b6102d2816102b8565b82525050565b5f6020820190506102eb5f8301846102c9565b92915050565b608051611ac86103255f395f8181610284015281816103290152818161081f015281816108f90152610aab0152611ac85ff3fe608060405234801561000f575f5ffd5b50600436106100b2575f3560e01c806377e73bae1161006f57806377e73bae1461017a57806386a29d3b146101965780638da5cb5b146101c6578063ed221d58146101e4578063f2fde38b14610200578063f7c618c11461021c576100b2565b8063077d92a8146100b65780632f32de90146100e85780632fba2c851461011857806350baa622146101365780635b7633d014610152578063715018a614610170575b5f5ffd5b6100d060048036038101906100cb9190611009565b61023a565b6040516100df9392919061105d565b60405180910390f35b61010260048036038101906100fd9190611009565b61026c565b60405161010f9190611092565b60405180910390f35b610120610281565b60405161012d9190611092565b60405180910390f35b610150600480360381019061014b9190611009565b61031f565b005b61015a610404565b60405161016791906110ea565b60405180910390f35b61017861041c565b005b610194600480360381019061018f9190611103565b61042f565b005b6101b060048036038101906101ab9190611153565b610447565b6040516101bd9190611191565b60405180910390f35b6101ce610471565b6040516101db91906110ea565b60405180910390f35b6101fe60048036038101906101f9919061120b565b610498565b005b61021a600480360381019061021591906112f2565b610a25565b005b610224610aa9565b6040516102319190611378565b60405180910390f35b6002602052805f5260405f205f91509050805f015490806001015490806002015f9054906101000a900460ff16905083565b6004602052805f5260405f205f915090505481565b5f7f000000000000000000000000000000000000000000000000000000000000000073ffffffffffffffffffffffffffffffffffffffff166370a08231306040518263ffffffff1660e01b81526004016102db91906110ea565b602060405180830381865afa1580156102f6573d5f5f3e3d5ffd5b505050506040513d601f19601f8201168201806040525081019061031a91906113a5565b905090565b610327610acd565b7f000000000000000000000000000000000000000000000000000000000000000073ffffffffffffffffffffffffffffffffffffffff1663a9059cbb33836040518363ffffffff1660e01b81526004016103829291906113d0565b6020604051808303815f875af115801561039e573d5f5f3e3d5ffd5b505050506040513d601f19601f820116820180604052508101906103c29190611421565b610401576040517f08c379a00000000000000000000000000000000000000000000000000000000081526004016103f8906114a6565b60405180910390fd5b50565b73b6edacfc0dfc759e9ac5b9b8b6eb32310ac1bb4981565b610424610acd565b61042d5f610b54565b565b610437610acd565b610442838383610c15565b505050565b6003602052815f5260405f20602052805f5260405f205f915091509054906101000a900460ff1681565b5f5f5f9054906101000a900473ffffffffffffffffffffffffffffffffffffffff16905090565b6104a0610c7d565b60035f8981526020019081526020015f205f8881526020019081526020015f205f9054906101000a900460ff161561050d576040517f08c379a000000000000000000000000000000000000000000000000000000000815260040161050490611534565b60405180910390fd5b5f60025f8881526020019081526020015f206040518060600160405290815f820154815260200160018201548152602001600282015f9054906101000a900460ff1615151515815250509050806040015161059d576040517f08c379a00000000000000000000000000000000000000000000000000000000081526004016105949061159c565b60405180910390fd5b805f01518610156105e3576040517f08c379a00000000000000000000000000000000000000000000000000000000081526004016105da90611604565b60405180910390fd5b806020015186111561062a576040517f08c379a00000000000000000000000000000000000000000000000000000000081526004016106219061166c565b60405180910390fd5b838560045f8c81526020019081526020015f205461064891906116b7565b1115610689576040517f08c379a00000000000000000000000000000000000000000000000000000000081526004016106809061175a565b60405180910390fd5b5f898989898989306040516020016106a797969594939291906117dd565b6040516020818303038152906040528051906020012090505f6106c982610cc3565b90505f61072286868080601f0160208091040260200160405190810160405280939291908181526020018383808284375f81840152601f19601f8201169050808301925050505050505083610cf690919063ffffffff16565b905073b6edacfc0dfc759e9ac5b9b8b6eb32310ac1bb4973ffffffffffffffffffffffffffffffffffffffff168173ffffffffffffffffffffffffffffffffffffffff16146107a6576040517f08c379a000000000000000000000000000000000000000000000000000000000815260040161079d906118a7565b60405180910390fd5b600160035f8e81526020019081526020015f205f8d81526020019081526020015f205f6101000a81548160ff0219169083151502179055508760045f8e81526020019081526020015f205f8282546107fe91906116b7565b925050819055505f670de0b6b3a76400008961081a91906118c5565b9050807f000000000000000000000000000000000000000000000000000000000000000073ffffffffffffffffffffffffffffffffffffffff166370a08231306040518263ffffffff1660e01b815260040161087691906110ea565b602060405180830381865afa158015610891573d5f5f3e3d5ffd5b505050506040513d601f19601f820116820180604052508101906108b591906113a5565b10156108f6576040517f08c379a00000000000000000000000000000000000000000000000000000000081526004016108ed90611950565b60405180910390fd5b5f7f000000000000000000000000000000000000000000000000000000000000000073ffffffffffffffffffffffffffffffffffffffff1663a9059cbb33846040518363ffffffff1660e01b81526004016109529291906113d0565b6020604051808303815f875af115801561096e573d5f5f3e3d5ffd5b505050506040513d601f19601f820116820180604052508101906109929190611421565b9050806109d4576040517f08c379a00000000000000000000000000000000000000000000000000000000081526004016109cb906119b8565b60405180910390fd5b8c8e7f64bc8e516eb66c9bd33c0d0f80b0e16a5bac9eb2bce20d6fdf7698a0d7ab6eba8e604051610a059190611092565b60405180910390a3505050505050610a1b610d20565b5050505050505050565b610a2d610acd565b5f73ffffffffffffffffffffffffffffffffffffffff168173ffffffffffffffffffffffffffffffffffffffff1603610a9d575f6040517f1e4fbdf7000000000000000000000000000000000000000000000000000000008152600401610a9491906110ea565b60405180910390fd5b610aa681610b54565b50565b7f000000000000000000000000000000000000000000000000000000000000000081565b610ad5610d29565b73ffffffffffffffffffffffffffffffffffffffff16610af3610471565b73ffffffffffffffffffffffffffffffffffffffff1614610b5257610b16610d29565b6040517f118cdaa7000000000000000000000000000000000000000000000000000000008152600401610b4991906110ea565b60405180910390fd5b565b5f5f5f9054906101000a900473ffffffffffffffffffffffffffffffffffffffff169050815f5f6101000a81548173ffffffffffffffffffffffffffffffffffffffff021916908373ffffffffffffffffffffffffffffffffffffffff1602179055508173ffffffffffffffffffffffffffffffffffffffff168173ffffffffffffffffffffffffffffffffffffffff167f8be0079c531659141344cd1fd0a4f28419497f9722a3daafe3b4186f6b6457e060405160405180910390a35050565b60405180606001604052808381526020018281526020016001151581525060025f8581526020019081526020015f205f820151815f0155602082015181600101556040820151816002015f6101000a81548160ff021916908315150217905550905050505050565b600260015403610cb9576040517f3ee5aeb500000000000000000000000000000000000000000000000000000000815260040160405180910390fd5b6002600181905550565b5f7f19457468657265756d205369676e6564204d6573736167653a0a3332000000005f5281601c52603c5f209050919050565b5f5f5f5f610d048686610d30565b925092509250610d148282610d85565b82935050505092915050565b60018081905550565b5f33905090565b5f5f5f6041845103610d70575f5f5f602087015192506040870151915060608701515f1a9050610d6288828585610ee7565b955095509550505050610d7e565b5f600285515f1b9250925092505b9250925092565b5f6003811115610d9857610d976119d6565b5b826003811115610dab57610daa6119d6565b5b0315610ee35760016003811115610dc557610dc46119d6565b5b826003811115610dd857610dd76119d6565b5b03610e0f576040517ff645eedf00000000000000000000000000000000000000000000000000000000815260040160405180910390fd5b60026003811115610e2357610e226119d6565b5b826003811115610e3657610e356119d6565b5b03610e7a57805f1c6040517ffce698f7000000000000000000000000000000000000000000000000000000008152600401610e719190611092565b60405180910390fd5b600380811115610e8d57610e8c6119d6565b5b826003811115610ea057610e9f6119d6565b5b03610ee257806040517fd78bce0c000000000000000000000000000000000000000000000000000000008152600401610ed99190611a1b565b60405180910390fd5b5b5050565b5f5f5f7f7fffffffffffffffffffffffffffffff5d576e7357a4501ddfe92f46681b20a0845f1c1115610f23575f600385925092509250610fc4565b5f6001888888886040515f8152602001604052604051610f469493929190611a4f565b6020604051602081039080840390855afa158015610f66573d5f5f3e3d5ffd5b5050506020604051035190505f73ffffffffffffffffffffffffffffffffffffffff168173ffffffffffffffffffffffffffffffffffffffff1603610fb7575f60015f5f1b93509350935050610fc4565b805f5f5f1b935093509350505b9450945094915050565b5f5ffd5b5f5ffd5b5f819050919050565b610fe881610fd6565b8114610ff2575f5ffd5b50565b5f8135905061100381610fdf565b92915050565b5f6020828403121561101e5761101d610fce565b5b5f61102b84828501610ff5565b91505092915050565b61103d81610fd6565b82525050565b5f8115159050919050565b61105781611043565b82525050565b5f6060820190506110705f830186611034565b61107d6020830185611034565b61108a604083018461104e565b949350505050565b5f6020820190506110a55f830184611034565b92915050565b5f73ffffffffffffffffffffffffffffffffffffffff82169050919050565b5f6110d4826110ab565b9050919050565b6110e4816110ca565b82525050565b5f6020820190506110fd5f8301846110db565b92915050565b5f5f5f6060848603121561111a57611119610fce565b5b5f61112786828701610ff5565b935050602061113886828701610ff5565b925050604061114986828701610ff5565b9150509250925092565b5f5f6040838503121561116957611168610fce565b5b5f61117685828601610ff5565b925050602061118785828601610ff5565b9150509250929050565b5f6020820190506111a45f83018461104e565b92915050565b5f5ffd5b5f5ffd5b5f5ffd5b5f5f83601f8401126111cb576111ca6111aa565b5b8235905067ffffffffffffffff8111156111e8576111e76111ae565b5b602083019150836001820283011115611204576112036111b2565b5b9250929050565b5f5f5f5f5f5f5f5f60e0898b03121561122757611226610fce565b5b5f6112348b828c01610ff5565b98505060206112458b828c01610ff5565b97505060406112568b828c01610ff5565b96505060606112678b828c01610ff5565b95505060806112788b828c01610ff5565b94505060a06112898b828c01610ff5565b93505060c089013567ffffffffffffffff8111156112aa576112a9610fd2565b5b6112b68b828c016111b6565b92509250509295985092959890939650565b6112d1816110ca565b81146112db575f5ffd5b50565b5f813590506112ec816112c8565b92915050565b5f6020828403121561130757611306610fce565b5b5f611314848285016112de565b91505092915050565b5f819050919050565b5f61134061133b611336846110ab565b61131d565b6110ab565b9050919050565b5f61135182611326565b9050919050565b5f61136282611347565b9050919050565b61137281611358565b82525050565b5f60208201905061138b5f830184611369565b92915050565b5f8151905061139f81610fdf565b92915050565b5f602082840312156113ba576113b9610fce565b5b5f6113c784828501611391565b91505092915050565b5f6040820190506113e35f8301856110db565b6113f06020830184611034565b9392505050565b61140081611043565b811461140a575f5ffd5b50565b5f8151905061141b816113f7565b92915050565b5f6020828403121561143657611435610fce565b5b5f6114438482850161140d565b91505092915050565b5f82825260208201905092915050565b7f5769746864726177206661696c656400000000000000000000000000000000005f82015250565b5f611490600f8361144c565b915061149b8261145c565b602082019050919050565b5f6020820190508181035f8301526114bd81611484565b9050919050565b7f51756573742050494420616c726561647920636c61696d6564206279207468695f8201527f7320464944000000000000000000000000000000000000000000000000000000602082015250565b5f61151e60258361144c565b9150611529826114c4565b604082019050919050565b5f6020820190508181035f83015261154b81611512565b9050919050565b7f496e76616c6964205175657374204944000000000000000000000000000000005f82015250565b5f61158660108361144c565b915061159182611552565b602082019050919050565b5f6020820190508181035f8301526115b38161157a565b9050919050565b7f416d6f756e742062656c6f77206d696e5f7265776172640000000000000000005f82015250565b5f6115ee60178361144c565b91506115f9826115ba565b602082019050919050565b5f6020820190508181035f83015261161b816115e2565b9050919050565b7f416d6f756e742065786365656473206d61785f726577617264000000000000005f82015250565b5f61165660198361144c565b915061166182611622565b602082019050919050565b5f6020820190508181035f8301526116838161164a565b9050919050565b7f4e487b71000000000000000000000000000000000000000000000000000000005f52601160045260245ffd5b5f6116c182610fd6565b91506116cc83610fd6565b92508282019050808211156116e4576116e361168a565b5b92915050565b7f43756d756c617469766520726577617264206578636565647320746f74616c5f5f8201527f726577617264206c696d69740000000000000000000000000000000000000000602082015250565b5f611744602c8361144c565b915061174f826116ea565b604082019050919050565b5f6020820190508181035f83015261177181611738565b9050919050565b5f819050919050565b61179261178d82610fd6565b611778565b82525050565b5f8160601b9050919050565b5f6117ae82611798565b9050919050565b5f6117bf826117a4565b9050919050565b6117d76117d2826110ca565b6117b5565b82525050565b5f6117e8828a611781565b6020820191506117f88289611781565b6020820191506118088288611781565b6020820191506118188287611781565b6020820191506118288286611781565b6020820191506118388285611781565b60208201915061184882846117c6565b60148201915081905098975050505050505050565b7f496e76616c696420736572766572207369676e617475726500000000000000005f82015250565b5f61189160188361144c565b915061189c8261185d565b602082019050919050565b5f6020820190508181035f8301526118be81611885565b9050919050565b5f6118cf82610fd6565b91506118da83610fd6565b92508282026118e881610fd6565b915082820484148315176118ff576118fe61168a565b5b5092915050565b7f436f6e74726163742062616c616e636520696e73756666696369656e740000005f82015250565b5f61193a601d8361144c565b915061194582611906565b602082019050919050565b5f6020820190508181035f8301526119678161192e565b9050919050565b7f546f6b656e207472616e73666572206661696c656400000000000000000000005f82015250565b5f6119a260158361144c565b91506119ad8261196e565b602082019050919050565b5f6020820190508181035f8301526119cf81611996565b9050919050565b7f4e487b71000000000000000000000000000000000000000000000000000000005f52602160045260245ffd5b5f819050919050565b611a1581611a03565b82525050565b5f602082019050611a2e5f830184611a0c565b92915050565b5f60ff82169050919050565b611a4981611a34565b82525050565b5f608082019050611a625f830187611a0c565b611a6f6020830186611a40565b611a7c6040830185611a0c565b611a896060830184611a0c565b9594505050505056fea264697066735822122016be44792813b9f8f45c37e991e5632a6cd072c9b51b38367a616bfe02a3a0f764736f6c634300081f0033",
			"opcodes": "PUSH1 0xA0 PUSH1 0x40 MSTORE CALLVALUE DUP1 ISZERO PUSH2 0xF JUMPI PUSH0 PUSH0 REVERT JUMPDEST POP CALLER PUSH0 PUSH20 0xFFFFFFFFFFFFFFFFFFFFFFFFFFFFFFFFFFFFFFFF AND DUP2 PUSH20 0xFFFFFFFFFFFFFFFFFFFFFFFFFFFFFFFFFFFFFFFF AND SUB PUSH2 0x81 JUMPI PUSH0 PUSH1 0x40 MLOAD PUSH32 0x1E4FBDF700000000000000000000000000000000000000000000000000000000 DUP2 MSTORE PUSH1 0x4 ADD PUSH2 0x78 SWAP2 SWAP1 PUSH2 0x2D8 JUMP JUMPDEST PUSH1 0x40 MLOAD DUP1 SWAP2 SUB SWAP1 REVERT JUMPDEST PUSH2 0x90 DUP2 PUSH2 0x170 PUSH1 0x20 SHL PUSH1 0x20 SHR JUMP JUMPDEST POP PUSH1 0x1 DUP1 DUP2 SWAP1 SSTORE POP PUSH20 0xB0525542E3D818460546332E76E511562DFF9B07 PUSH20 0xFFFFFFFFFFFFFFFFFFFFFFFFFFFFFFFFFFFFFFFF AND PUSH1 0x80 DUP2 PUSH20 0xFFFFFFFFFFFFFFFFFFFFFFFFFFFFFFFFFFFFFFFF AND DUP2 MSTORE POP POP PUSH2 0x103 PUSH20 0x9EB566CC59E3E9D42209DD2D832740A6A74F5F23 PUSH2 0x170 PUSH1 0x20 SHL PUSH1 0x20 SHR JUMP JUMPDEST PUSH2 0x117 PUSH1 0x1 PUSH1 0x2 PUSH1 0xC8 PUSH2 0x231 PUSH1 0x20 SHL PUSH1 0x20 SHR JUMP JUMPDEST PUSH2 0x12C PUSH1 0x2 PUSH1 0x5 PUSH2 0x1F4 PUSH2 0x231 PUSH1 0x20 SHL PUSH1 0x20 SHR JUMP JUMPDEST PUSH2 0x141 PUSH1 0x3 PUSH1 0xA PUSH2 0x4B0 PUSH2 0x231 PUSH1 0x20 SHL PUSH1 0x20 SHR JUMP JUMPDEST PUSH2 0x156 PUSH1 0x4 PUSH1 0x1E PUSH2 0xBB8 PUSH2 0x231 PUSH1 0x20 SHL PUSH1 0x20 SHR JUMP JUMPDEST PUSH2 0x16B PUSH1 0x5 PUSH1 0x50 PUSH2 0x1F40 PUSH2 0x231 PUSH1 0x20 SHL PUSH1 0x20 SHR JUMP JUMPDEST PUSH2 0x2F1 JUMP JUMPDEST PUSH0 PUSH0 PUSH0 SWAP1 SLOAD SWAP1 PUSH2 0x100 EXP SWAP1 DIV PUSH20 0xFFFFFFFFFFFFFFFFFFFFFFFFFFFFFFFFFFFFFFFF AND SWAP1 POP DUP2 PUSH0 PUSH0 PUSH2 0x100 EXP DUP2 SLOAD DUP2 PUSH20 0xFFFFFFFFFFFFFFFFFFFFFFFFFFFFFFFFFFFFFFFF MUL NOT AND SWAP1 DUP4 PUSH20 0xFFFFFFFFFFFFFFFFFFFFFFFFFFFFFFFFFFFFFFFF AND MUL OR SWAP1 SSTORE POP DUP2 PUSH20 0xFFFFFFFFFFFFFFFFFFFFFFFFFFFFFFFFFFFFFFFF AND DUP2 PUSH20 0xFFFFFFFFFFFFFFFFFFFFFFFFFFFFFFFFFFFFFFFF AND PUSH32 0x8BE0079C531659141344CD1FD0A4F28419497F9722A3DAAFE3B4186F6B6457E0 PUSH1 0x40 MLOAD PUSH1 0x40 MLOAD DUP1 SWAP2 SUB SWAP1 LOG3 POP POP JUMP JUMPDEST PUSH1 0x40 MLOAD DUP1 PUSH1 0x60 ADD PUSH1 0x40 MSTORE DUP1 DUP4 DUP2 MSTORE PUSH1 0x20 ADD DUP3 DUP2 MSTORE PUSH1 0x20 ADD PUSH1 0x1 ISZERO ISZERO DUP2 MSTORE POP PUSH1 0x2 PUSH0 DUP6 DUP2 MSTORE PUSH1 0x20 ADD SWAP1 DUP2 MSTORE PUSH1 0x20 ADD PUSH0 KECCAK256 PUSH0 DUP3 ADD MLOAD DUP2 PUSH0 ADD SSTORE PUSH1 0x20 DUP3 ADD MLOAD DUP2 PUSH1 0x1 ADD SSTORE PUSH1 0x40 DUP3 ADD MLOAD DUP2 PUSH1 0x2 ADD PUSH0 PUSH2 0x100 EXP DUP2 SLOAD DUP2 PUSH1 0xFF MUL NOT AND SWAP1 DUP4 ISZERO ISZERO MUL OR SWAP1 SSTORE POP SWAP1 POP POP POP POP POP JUMP JUMPDEST PUSH0 PUSH20 0xFFFFFFFFFFFFFFFFFFFFFFFFFFFFFFFFFFFFFFFF DUP3 AND SWAP1 POP SWAP2 SWAP1 POP JUMP JUMPDEST PUSH0 PUSH2 0x2C2 DUP3 PUSH2 0x299 JUMP JUMPDEST SWAP1 POP SWAP2 SWAP1 POP JUMP JUMPDEST PUSH2 0x2D2 DUP2 PUSH2 0x2B8 JUMP JUMPDEST DUP3 MSTORE POP POP JUMP JUMPDEST PUSH0 PUSH1 0x20 DUP3 ADD SWAP1 POP PUSH2 0x2EB PUSH0 DUP4 ADD DUP5 PUSH2 0x2C9 JUMP JUMPDEST SWAP3 SWAP2 POP POP JUMP JUMPDEST PUSH1 0x80 MLOAD PUSH2 0x1AC8 PUSH2 0x325 PUSH0 CODECOPY PUSH0 DUP2 DUP2 PUSH2 0x284 ADD MSTORE DUP2 DUP2 PUSH2 0x329 ADD MSTORE DUP2 DUP2 PUSH2 0x81F ADD MSTORE DUP2 DUP2 PUSH2 0x8F9 ADD MSTORE PUSH2 0xAAB ADD MSTORE PUSH2 0x1AC8 PUSH0 RETURN INVALID PUSH1 0x80 PUSH1 0x40 MSTORE CALLVALUE DUP1 ISZERO PUSH2 0xF JUMPI PUSH0 PUSH0 REVERT JUMPDEST POP PUSH1 0x4 CALLDATASIZE LT PUSH2 0xB2 JUMPI PUSH0 CALLDATALOAD PUSH1 0xE0 SHR DUP1 PUSH4 0x77E73BAE GT PUSH2 0x6F JUMPI DUP1 PUSH4 0x77E73BAE EQ PUSH2 0x17A JUMPI DUP1 PUSH4 0x86A29D3B EQ PUSH2 0x196 JUMPI DUP1 PUSH4 0x8DA5CB5B EQ PUSH2 0x1C6 JUMPI DUP1 PUSH4 0xED221D58 EQ PUSH2 0x1E4 JUMPI DUP1 PUSH4 0xF2FDE38B EQ PUSH2 0x200 JUMPI DUP1 PUSH4 0xF7C618C1 EQ PUSH2 0x21C JUMPI PUSH2 0xB2 JUMP JUMPDEST DUP1 PUSH4 0x77D92A8 EQ PUSH2 0xB6 JUMPI DUP1 PUSH4 0x2F32DE90 EQ PUSH2 0xE8 JUMPI DUP1 PUSH4 0x2FBA2C85 EQ PUSH2 0x118 JUMPI DUP1 PUSH4 0x50BAA622 EQ PUSH2 0x136 JUMPI DUP1 PUSH4 0x5B7633D0 EQ PUSH2 0x152 JUMPI DUP1 PUSH4 0x715018A6 EQ PUSH2 0x170 JUMPI JUMPDEST PUSH0 PUSH0 REVERT JUMPDEST PUSH2 0xD0 PUSH1 0x4 DUP1 CALLDATASIZE SUB DUP2 ADD SWAP1 PUSH2 0xCB SWAP2 SWAP1 PUSH2 0x1009 JUMP JUMPDEST PUSH2 0x23A JUMP JUMPDEST PUSH1 0x40 MLOAD PUSH2 0xDF SWAP4 SWAP3 SWAP2 SWAP1 PUSH2 0x105D JUMP JUMPDEST PUSH1 0x40 MLOAD DUP1 SWAP2 SUB SWAP1 RETURN JUMPDEST PUSH2 0x102 PUSH1 0x4 DUP1 CALLDATASIZE SUB DUP2 ADD SWAP1 PUSH2 0xFD SWAP2 SWAP1 PUSH2 0x1009 JUMP JUMPDEST PUSH2 0x26C JUMP JUMPDEST PUSH1 0x40 MLOAD PUSH2 0x10F SWAP2 SWAP1 PUSH2 0x1092 JUMP JUMPDEST PUSH1 0x40 MLOAD DUP1 SWAP2 SUB SWAP1 RETURN JUMPDEST PUSH2 0x120 PUSH2 0x281 JUMP JUMPDEST PUSH1 0x40 MLOAD PUSH2 0x12D SWAP2 SWAP1 PUSH2 0x1092 JUMP JUMPDEST PUSH1 0x40 MLOAD DUP1 SWAP2 SUB SWAP1 RETURN JUMPDEST PUSH2 0x150 PUSH1 0x4 DUP1 CALLDATASIZE SUB DUP2 ADD SWAP1 PUSH2 0x14B SWAP2 SWAP1 PUSH2 0x1009 JUMP JUMPDEST PUSH2 0x31F JUMP JUMPDEST STOP JUMPDEST PUSH2 0x15A PUSH2 0x404 JUMP JUMPDEST PUSH1 0x40 MLOAD PUSH2 0x167 SWAP2 SWAP1 PUSH2 0x10EA JUMP JUMPDEST PUSH1 0x40 MLOAD DUP1 SWAP2 SUB SWAP1 RETURN JUMPDEST PUSH2 0x178 PUSH2 0x41C JUMP JUMPDEST STOP JUMPDEST PUSH2 0x194 PUSH1 0x4 DUP1 CALLDATASIZE SUB DUP2 ADD SWAP1 PUSH2 0x18F SWAP2 SWAP1 PUSH2 0x1103 JUMP JUMPDEST PUSH2 0x42F JUMP JUMPDEST STOP JUMPDEST PUSH2 0x1B0 PUSH1 0x4 DUP1 CALLDATASIZE SUB DUP2 ADD SWAP1 PUSH2 0x1AB SWAP2 SWAP1 PUSH2 0x1153 JUMP JUMPDEST PUSH2 0x447 JUMP JUMPDEST PUSH1 0x40 MLOAD PUSH2 0x1BD SWAP2 SWAP1 PUSH2 0x1191 JUMP JUMPDEST PUSH1 0x40 MLOAD DUP1 SWAP2 SUB SWAP1 RETURN JUMPDEST PUSH2 0x1CE PUSH2 0x471 JUMP JUMPDEST PUSH1 0x40 MLOAD PUSH2 0x1DB SWAP2 SWAP1 PUSH2 0x10EA JUMP JUMPDEST PUSH1 0x40 MLOAD DUP1 SWAP2 SUB SWAP1 RETURN JUMPDEST PUSH2 0x1FE PUSH1 0x4 DUP1 CALLDATASIZE SUB DUP2 ADD SWAP1 PUSH2 0x1F9 SWAP2 SWAP1 PUSH2 0x120B JUMP JUMPDEST PUSH2 0x498 JUMP JUMPDEST STOP JUMPDEST PUSH2 0x21A PUSH1 0x4 DUP1 CALLDATASIZE SUB DUP2 ADD SWAP1 PUSH2 0x215 SWAP2 SWAP1 PUSH2 0x12F2 JUMP JUMPDEST PUSH2 0xA25 JUMP JUMPDEST STOP JUMPDEST PUSH2 0x224 PUSH2 0xAA9 JUMP JUMPDEST PUSH1 0x40 MLOAD PUSH2 0x231 SWAP2 SWAP1 PUSH2 0x1378 JUMP JUMPDEST PUSH1 0x40 MLOAD DUP1 SWAP2 SUB SWAP1 RETURN JUMPDEST PUSH1 0x2 PUSH1 0x20 MSTORE DUP1 PUSH0 MSTORE PUSH1 0x40 PUSH0 KECCAK256 PUSH0 SWAP2 POP SWAP1 POP DUP1 PUSH0 ADD SLOAD SWAP1 DUP1 PUSH1 0x1 ADD SLOAD SWAP1 DUP1 PUSH1 0x2 ADD PUSH0 SWAP1 SLOAD SWAP1 PUSH2 0x100 EXP SWAP1 DIV PUSH1 0xFF AND SWAP1 POP DUP4 JUMP JUMPDEST PUSH1 0x4 PUSH1 0x20 MSTORE DUP1 PUSH0 MSTORE PUSH1 0x40 PUSH0 KECCAK256 PUSH0 SWAP2 POP SWAP1 POP SLOAD DUP2 JUMP JUMPDEST PUSH0 PUSH32 0x0 PUSH20 0xFFFFFFFFFFFFFFFFFFFFFFFFFFFFFFFFFFFFFFFF AND PUSH4 0x70A08231 ADDRESS PUSH1 0x40 MLOAD DUP3 PUSH4 0xFFFFFFFF AND PUSH1 0xE0 SHL DUP2 MSTORE PUSH1 0x4 ADD PUSH2 0x2DB SWAP2 SWAP1 PUSH2 0x10EA JUMP JUMPDEST PUSH1 0x20 PUSH1 0x40 MLOAD DUP1 DUP4 SUB DUP2 DUP7 GAS STATICCALL ISZERO DUP1 ISZERO PUSH2 0x2F6 JUMPI RETURNDATASIZE PUSH0 PUSH0 RETURNDATACOPY RETURNDATASIZE PUSH0 REVERT JUMPDEST POP POP POP POP PUSH1 0x40 MLOAD RETURNDATASIZE PUSH1 0x1F NOT PUSH1 0x1F DUP3 ADD AND DUP3 ADD DUP1 PUSH1 0x40 MSTORE POP DUP2 ADD SWAP1 PUSH2 0x31A SWAP2 SWAP1 PUSH2 0x13A5 JUMP JUMPDEST SWAP1 POP SWAP1 JUMP JUMPDEST PUSH2 0x327 PUSH2 0xACD JUMP JUMPDEST PUSH32 0x0 PUSH20 0xFFFFFFFFFFFFFFFFFFFFFFFFFFFFFFFFFFFFFFFF AND PUSH4 0xA9059CBB CALLER DUP4 PUSH1 0x40 MLOAD DUP4 PUSH4 0xFFFFFFFF AND PUSH1 0xE0 SHL DUP2 MSTORE PUSH1 0x4 ADD PUSH2 0x382 SWAP3 SWAP2 SWAP1 PUSH2 0x13D0 JUMP JUMPDEST PUSH1 0x20 PUSH1 0x40 MLOAD DUP1 DUP4 SUB DUP2 PUSH0 DUP8 GAS CALL ISZERO DUP1 ISZERO PUSH2 0x39E JUMPI RETURNDATASIZE PUSH0 PUSH0 RETURNDATACOPY RETURNDATASIZE PUSH0 REVERT JUMPDEST POP POP POP POP PUSH1 0x40 MLOAD RETURNDATASIZE PUSH1 0x1F NOT PUSH1 0x1F DUP3 ADD AND DUP3 ADD DUP1 PUSH1 0x40 MSTORE POP DUP2 ADD SWAP1 PUSH2 0x3C2 SWAP2 SWAP1 PUSH2 0x1421 JUMP JUMPDEST PUSH2 0x401 JUMPI PUSH1 0x40 MLOAD PUSH32 0x8C379A000000000000000000000000000000000000000000000000000000000 DUP2 MSTORE PUSH1 0x4 ADD PUSH2 0x3F8 SWAP1 PUSH2 0x14A6 JUMP JUMPDEST PUSH1 0x40 MLOAD DUP1 SWAP2 SUB SWAP1 REVERT JUMPDEST POP JUMP JUMPDEST PUSH20 0xB6EDACFC0DFC759E9AC5B9B8B6EB32310AC1BB49 DUP2 JUMP JUMPDEST PUSH2 0x424 PUSH2 0xACD JUMP JUMPDEST PUSH2 0x42D PUSH0 PUSH2 0xB54 JUMP JUMPDEST JUMP JUMPDEST PUSH2 0x437 PUSH2 0xACD JUMP JUMPDEST PUSH2 0x442 DUP4 DUP4 DUP4 PUSH2 0xC15 JUMP JUMPDEST POP POP POP JUMP JUMPDEST PUSH1 0x3 PUSH1 0x20 MSTORE DUP2 PUSH0 MSTORE PUSH1 0x40 PUSH0 KECCAK256 PUSH1 0x20 MSTORE DUP1 PUSH0 MSTORE PUSH1 0x40 PUSH0 KECCAK256 PUSH0 SWAP2 POP SWAP2 POP SWAP1 SLOAD SWAP1 PUSH2 0x100 EXP SWAP1 DIV PUSH1 0xFF AND DUP2 JUMP JUMPDEST PUSH0 PUSH0 PUSH0 SWAP1 SLOAD SWAP1 PUSH2 0x100 EXP SWAP1 DIV PUSH20 0xFFFFFFFFFFFFFFFFFFFFFFFFFFFFFFFFFFFFFFFF AND SWAP1 POP SWAP1 JUMP JUMPDEST PUSH2 0x4A0 PUSH2 0xC7D JUMP JUMPDEST PUSH1 0x3 PUSH0 DUP10 DUP2 MSTORE PUSH1 0x20 ADD SWAP1 DUP2 MSTORE PUSH1 0x20 ADD PUSH0 KECCAK256 PUSH0 DUP9 DUP2 MSTORE PUSH1 0x20 ADD SWAP1 DUP2 MSTORE PUSH1 0x20 ADD PUSH0 KECCAK256 PUSH0 SWAP1 SLOAD SWAP1 PUSH2 0x100 EXP SWAP1 DIV PUSH1 0xFF AND ISZERO PUSH2 0x50D JUMPI PUSH1 0x40 MLOAD PUSH32 0x8C379A000000000000000000000000000000000000000000000000000000000 DUP2 MSTORE PUSH1 0x4 ADD PUSH2 0x504 SWAP1 PUSH2 0x1534 JUMP JUMPDEST PUSH1 0x40 MLOAD DUP1 SWAP2 SUB SWAP1 REVERT JUMPDEST PUSH0 PUSH1 0x2 PUSH0 DUP9 DUP2 MSTORE PUSH1 0x20 ADD SWAP1 DUP2 MSTORE PUSH1 0x20 ADD PUSH0 KECCAK256 PUSH1 0x40 MLOAD DUP1 PUSH1 0x60 ADD PUSH1 0x40 MSTORE SWAP1 DUP2 PUSH0 DUP3 ADD SLOAD DUP2 MSTORE PUSH1 0x20 ADD PUSH1 0x1 DUP3 ADD SLOAD DUP2 MSTORE PUSH1 0x20 ADD PUSH1 0x2 DUP3 ADD PUSH0 SWAP1 SLOAD SWAP1 PUSH2 0x100 EXP SWAP1 DIV PUSH1 0xFF AND ISZERO ISZERO ISZERO ISZERO DUP2 MSTORE POP POP SWAP1 POP DUP1 PUSH1 0x40 ADD MLOAD PUSH2 0x59D JUMPI PUSH1 0x40 MLOAD PUSH32 0x8C379A000000000000000000000000000000000000000000000000000000000 DUP2 MSTORE PUSH1 0x4 ADD PUSH2 0x594 SWAP1 PUSH2 0x159C JUMP JUMPDEST PUSH1 0x40 MLOAD DUP1 SWAP2 SUB SWAP1 REVERT JUMPDEST DUP1 PUSH0 ADD MLOAD DUP7 LT ISZERO PUSH2 0x5E3 JUMPI PUSH1 0x40 MLOAD PUSH32 0x8C379A000000000000000000000000000000000000000000000000000000000 DUP2 MSTORE PUSH1 0x4 ADD PUSH2 0x5DA SWAP1 PUSH2 0x1604 JUMP JUMPDEST PUSH1 0x40 MLOAD DUP1 SWAP2 SUB SWAP1 REVERT JUMPDEST DUP1 PUSH1 0x20 ADD MLOAD DUP7 GT ISZERO PUSH2 0x62A JUMPI PUSH1 0x40 MLOAD PUSH32 0x8C379A000000000000000000000000000000000000000000000000000000000 DUP2 MSTORE PUSH1 0x4 ADD PUSH2 0x621 SWAP1 PUSH2 0x166C JUMP JUMPDEST PUSH1 0x40 MLOAD DUP1 SWAP2 SUB SWAP1 REVERT JUMPDEST DUP4 DUP6 PUSH1 0x4 PUSH0 DUP13 DUP2 MSTORE PUSH1 0x20 ADD SWAP1 DUP2 MSTORE PUSH1 0x20 ADD PUSH0 KECCAK256 SLOAD PUSH2 0x648 SWAP2 SWAP1 PUSH2 0x16B7 JUMP JUMPDEST GT ISZERO PUSH2 0x689 JUMPI PUSH1 0x40 MLOAD PUSH32 0x8C379A000000000000000000000000000000000000000000000000000000000 DUP2 MSTORE PUSH1 0x4 ADD PUSH2 0x680 SWAP1 PUSH2 0x175A JUMP JUMPDEST PUSH1 0x40 MLOAD DUP1 SWAP2 SUB SWAP1 REVERT JUMPDEST PUSH0 DUP10 DUP10 DUP10 DUP10 DUP10 DUP10 ADDRESS PUSH1 0x40 MLOAD PUSH1 0x20 ADD PUSH2 0x6A7 SWAP8 SWAP7 SWAP6 SWAP5 SWAP4 SWAP3 SWAP2 SWAP1 PUSH2 0x17DD JUMP JUMPDEST PUSH1 0x40 MLOAD PUSH1 0x20 DUP2 DUP4 SUB SUB DUP2 MSTORE SWAP1 PUSH1 0x40 MSTORE DUP1 MLOAD SWAP1 PUSH1 0x20 ADD KECCAK256 SWAP1 POP PUSH0 PUSH2 0x6C9 DUP3 PUSH2 0xCC3 JUMP JUMPDEST SWAP1 POP PUSH0 PUSH2 0x722 DUP7 DUP7 DUP1 DUP1 PUSH1 0x1F ADD PUSH1 0x20 DUP1 SWAP2 DIV MUL PUSH1 0x20 ADD PUSH1 0x40 MLOAD SWAP1 DUP2 ADD PUSH1 0x40 MSTORE DUP1 SWAP4 SWAP3 SWAP2 SWAP1 DUP2 DUP2 MSTORE PUSH1 0x20 ADD DUP4 DUP4 DUP1 DUP3 DUP5 CALLDATACOPY PUSH0 DUP2 DUP5 ADD MSTORE PUSH1 0x1F NOT PUSH1 0x1F DUP3 ADD AND SWAP1 POP DUP1 DUP4 ADD SWAP3 POP POP POP POP POP POP POP DUP4 PUSH2 0xCF6 SWAP1 SWAP2 SWAP1 PUSH4 0xFFFFFFFF AND JUMP JUMPDEST SWAP1 POP PUSH20 0xB6EDACFC0DFC759E9AC5B9B8B6EB32310AC1BB49 PUSH20 0xFFFFFFFFFFFFFFFFFFFFFFFFFFFFFFFFFFFFFFFF AND DUP2 PUSH20 0xFFFFFFFFFFFFFFFFFFFFFFFFFFFFFFFFFFFFFFFF AND EQ PUSH2 0x7A6 JUMPI PUSH1 0x40 MLOAD PUSH32 0x8C379A000000000000000000000000000000000000000000000000000000000 DUP2 MSTORE PUSH1 0x4 ADD PUSH2 0x79D SWAP1 PUSH2 0x18A7 JUMP JUMPDEST PUSH1 0x40 MLOAD DUP1 SWAP2 SUB SWAP1 REVERT JUMPDEST PUSH1 0x1 PUSH1 0x3 PUSH0 DUP15 DUP2 MSTORE PUSH1 0x20 ADD SWAP1 DUP2 MSTORE PUSH1 0x20 ADD PUSH0 KECCAK256 PUSH0 DUP14 DUP2 MSTORE PUSH1 0x20 ADD SWAP1 DUP2 MSTORE PUSH1 0x20 ADD PUSH0 KECCAK256 PUSH0 PUSH2 0x100 EXP DUP2 SLOAD DUP2 PUSH1 0xFF MUL NOT AND SWAP1 DUP4 ISZERO ISZERO MUL OR SWAP1 SSTORE POP DUP8 PUSH1 0x4 PUSH0 DUP15 DUP2 MSTORE PUSH1 0x20 ADD SWAP1 DUP2 MSTORE PUSH1 0x20 ADD PUSH0 KECCAK256 PUSH0 DUP3 DUP3 SLOAD PUSH2 0x7FE SWAP2 SWAP1 PUSH2 0x16B7 JUMP JUMPDEST SWAP3 POP POP DUP2 SWAP1 SSTORE POP PUSH0 PUSH8 0xDE0B6B3A7640000 DUP10 PUSH2 0x81A SWAP2 SWAP1 PUSH2 0x18C5 JUMP JUMPDEST SWAP1 POP DUP1 PUSH32 0x0 PUSH20 0xFFFFFFFFFFFFFFFFFFFFFFFFFFFFFFFFFFFFFFFF AND PUSH4 0x70A08231 ADDRESS PUSH1 0x40 MLOAD DUP3 PUSH4 0xFFFFFFFF AND PUSH1 0xE0 SHL DUP2 MSTORE PUSH1 0x4 ADD PUSH2 0x876 SWAP2 SWAP1 PUSH2 0x10EA JUMP JUMPDEST PUSH1 0x20 PUSH1 0x40 MLOAD DUP1 DUP4 SUB DUP2 DUP7 GAS STATICCALL ISZERO DUP1 ISZERO PUSH2 0x891 JUMPI RETURNDATASIZE PUSH0 PUSH0 RETURNDATACOPY RETURNDATASIZE PUSH0 REVERT JUMPDEST POP POP POP POP PUSH1 0x40 MLOAD RETURNDATASIZE PUSH1 0x1F NOT PUSH1 0x1F DUP3 ADD AND DUP3 ADD DUP1 PUSH1 0x40 MSTORE POP DUP2 ADD SWAP1 PUSH2 0x8B5 SWAP2 SWAP1 PUSH2 0x13A5 JUMP JUMPDEST LT ISZERO PUSH2 0x8F6 JUMPI PUSH1 0x40 MLOAD PUSH32 0x8C379A000000000000000000000000000000000000000000000000000000000 DUP2 MSTORE PUSH1 0x4 ADD PUSH2 0x8ED SWAP1 PUSH2 0x1950 JUMP JUMPDEST PUSH1 0x40 MLOAD DUP1 SWAP2 SUB SWAP1 REVERT JUMPDEST PUSH0 PUSH32 0x0 PUSH20 0xFFFFFFFFFFFFFFFFFFFFFFFFFFFFFFFFFFFFFFFF AND PUSH4 0xA9059CBB CALLER DUP5 PUSH1 0x40 MLOAD DUP4 PUSH4 0xFFFFFFFF AND PUSH1 0xE0 SHL DUP2 MSTORE PUSH1 0x4 ADD PUSH2 0x952 SWAP3 SWAP2 SWAP1 PUSH2 0x13D0 JUMP JUMPDEST PUSH1 0x20 PUSH1 0x40 MLOAD DUP1 DUP4 SUB DUP2 PUSH0 DUP8 GAS CALL ISZERO DUP1 ISZERO PUSH2 0x96E JUMPI RETURNDATASIZE PUSH0 PUSH0 RETURNDATACOPY RETURNDATASIZE PUSH0 REVERT JUMPDEST POP POP POP POP PUSH1 0x40 MLOAD RETURNDATASIZE PUSH1 0x1F NOT PUSH1 0x1F DUP3 ADD AND DUP3 ADD DUP1 PUSH1 0x40 MSTORE POP DUP2 ADD SWAP1 PUSH2 0x992 SWAP2 SWAP1 PUSH2 0x1421 JUMP JUMPDEST SWAP1 POP DUP1 PUSH2 0x9D4 JUMPI PUSH1 0x40 MLOAD PUSH32 0x8C379A000000000000000000000000000000000000000000000000000000000 DUP2 MSTORE PUSH1 0x4 ADD PUSH2 0x9CB SWAP1 PUSH2 0x19B8 JUMP JUMPDEST PUSH1 0x40 MLOAD DUP1 SWAP2 SUB SWAP1 REVERT JUMPDEST DUP13 DUP15 PUSH32 0x64BC8E516EB66C9BD33C0D0F80B0E16A5BAC9EB2BCE20D6FDF7698A0D7AB6EBA DUP15 PUSH1 0x40 MLOAD PUSH2 0xA05 SWAP2 SWAP1 PUSH2 0x1092 JUMP JUMPDEST PUSH1 0x40 MLOAD DUP1 SWAP2 SUB SWAP1 LOG3 POP POP POP POP POP POP PUSH2 0xA1B PUSH2 0xD20 JUMP JUMPDEST POP POP POP POP POP POP POP POP JUMP JUMPDEST PUSH2 0xA2D PUSH2 0xACD JUMP JUMPDEST PUSH0 PUSH20 0xFFFFFFFFFFFFFFFFFFFFFFFFFFFFFFFFFFFFFFFF AND DUP2 PUSH20 0xFFFFFFFFFFFFFFFFFFFFFFFFFFFFFFFFFFFFFFFF AND SUB PUSH2 0xA9D JUMPI PUSH0 PUSH1 0x40 MLOAD PUSH32 0x1E4FBDF700000000000000000000000000000000000000000000000000000000 DUP2 MSTORE PUSH1 0x4 ADD PUSH2 0xA94 SWAP2 SWAP1 PUSH2 0x10EA JUMP JUMPDEST PUSH1 0x40 MLOAD DUP1 SWAP2 SUB SWAP1 REVERT JUMPDEST PUSH2 0xAA6 DUP2 PUSH2 0xB54 JUMP JUMPDEST POP JUMP JUMPDEST PUSH32 0x0 DUP2 JUMP JUMPDEST PUSH2 0xAD5 PUSH2 0xD29 JUMP JUMPDEST PUSH20 0xFFFFFFFFFFFFFFFFFFFFFFFFFFFFFFFFFFFFFFFF AND PUSH2 0xAF3 PUSH2 0x471 JUMP JUMPDEST PUSH20 0xFFFFFFFFFFFFFFFFFFFFFFFFFFFFFFFFFFFFFFFF AND EQ PUSH2 0xB52 JUMPI PUSH2 0xB16 PUSH2 0xD29 JUMP JUMPDEST PUSH1 0x40 MLOAD PUSH32 0x118CDAA700000000000000000000000000000000000000000000000000000000 DUP2 MSTORE PUSH1 0x4 ADD PUSH2 0xB49 SWAP2 SWAP1 PUSH2 0x10EA JUMP JUMPDEST PUSH1 0x40 MLOAD DUP1 SWAP2 SUB SWAP1 REVERT JUMPDEST JUMP JUMPDEST PUSH0 PUSH0 PUSH0 SWAP1 SLOAD SWAP1 PUSH2 0x100 EXP SWAP1 DIV PUSH20 0xFFFFFFFFFFFFFFFFFFFFFFFFFFFFFFFFFFFFFFFF AND SWAP1 POP DUP2 PUSH0 PUSH0 PUSH2 0x100 EXP DUP2 SLOAD DUP2 PUSH20 0xFFFFFFFFFFFFFFFFFFFFFFFFFFFFFFFFFFFFFFFF MUL NOT AND SWAP1 DUP4 PUSH20 0xFFFFFFFFFFFFFFFFFFFFFFFFFFFFFFFFFFFFFFFF AND MUL OR SWAP1 SSTORE POP DUP2 PUSH20 0xFFFFFFFFFFFFFFFFFFFFFFFFFFFFFFFFFFFFFFFF AND DUP2 PUSH20 0xFFFFFFFFFFFFFFFFFFFFFFFFFFFFFFFFFFFFFFFF AND PUSH32 0x8BE0079C531659141344CD1FD0A4F28419497F9722A3DAAFE3B4186F6B6457E0 PUSH1 0x40 MLOAD PUSH1 0x40 MLOAD DUP1 SWAP2 SUB SWAP1 LOG3 POP POP JUMP JUMPDEST PUSH1 0x40 MLOAD DUP1 PUSH1 0x60 ADD PUSH1 0x40 MSTORE DUP1 DUP4 DUP2 MSTORE PUSH1 0x20 ADD DUP3 DUP2 MSTORE PUSH1 0x20 ADD PUSH1 0x1 ISZERO ISZERO DUP2 MSTORE POP PUSH1 0x2 PUSH0 DUP6 DUP2 MSTORE PUSH1 0x20 ADD SWAP1 DUP2 MSTORE PUSH1 0x20 ADD PUSH0 KECCAK256 PUSH0 DUP3 ADD MLOAD DUP2 PUSH0 ADD SSTORE PUSH1 0x20 DUP3 ADD MLOAD DUP2 PUSH1 0x1 ADD SSTORE PUSH1 0x40 DUP3 ADD MLOAD DUP2 PUSH1 0x2 ADD PUSH0 PUSH2 0x100 EXP DUP2 SLOAD DUP2 PUSH1 0xFF MUL NOT AND SWAP1 DUP4 ISZERO ISZERO MUL OR SWAP1 SSTORE POP SWAP1 POP POP POP POP POP JUMP JUMPDEST PUSH1 0x2 PUSH1 0x1 SLOAD SUB PUSH2 0xCB9 JUMPI PUSH1 0x40 MLOAD PUSH32 0x3EE5AEB500000000000000000000000000000000000000000000000000000000 DUP2 MSTORE PUSH1 0x4 ADD PUSH1 0x40 MLOAD DUP1 SWAP2 SUB SWAP1 REVERT JUMPDEST PUSH1 0x2 PUSH1 0x1 DUP2 SWAP1 SSTORE POP JUMP JUMPDEST PUSH0 PUSH32 0x19457468657265756D205369676E6564204D6573736167653A0A333200000000 PUSH0 MSTORE DUP2 PUSH1 0x1C MSTORE PUSH1 0x3C PUSH0 KECCAK256 SWAP1 POP SWAP2 SWAP1 POP JUMP JUMPDEST PUSH0 PUSH0 PUSH0 PUSH0 PUSH2 0xD04 DUP7 DUP7 PUSH2 0xD30 JUMP JUMPDEST SWAP3 POP SWAP3 POP SWAP3 POP PUSH2 0xD14 DUP3 DUP3 PUSH2 0xD85 JUMP JUMPDEST DUP3 SWAP4 POP POP POP POP SWAP3 SWAP2 POP POP JUMP JUMPDEST PUSH1 0x1 DUP1 DUP2 SWAP1 SSTORE POP JUMP JUMPDEST PUSH0 CALLER SWAP1 POP SWAP1 JUMP JUMPDEST PUSH0 PUSH0 PUSH0 PUSH1 0x41 DUP5 MLOAD SUB PUSH2 0xD70 JUMPI PUSH0 PUSH0 PUSH0 PUSH1 0x20 DUP8 ADD MLOAD SWAP3 POP PUSH1 0x40 DUP8 ADD MLOAD SWAP2 POP PUSH1 0x60 DUP8 ADD MLOAD PUSH0 BYTE SWAP1 POP PUSH2 0xD62 DUP9 DUP3 DUP6 DUP6 PUSH2 0xEE7 JUMP JUMPDEST SWAP6 POP SWAP6 POP SWAP6 POP POP POP POP PUSH2 0xD7E JUMP JUMPDEST PUSH0 PUSH1 0x2 DUP6 MLOAD PUSH0 SHL SWAP3 POP SWAP3 POP SWAP3 POP JUMPDEST SWAP3 POP SWAP3 POP SWAP3 JUMP JUMPDEST PUSH0 PUSH1 0x3 DUP2 GT ISZERO PUSH2 0xD98 JUMPI PUSH2 0xD97 PUSH2 0x19D6 JUMP JUMPDEST JUMPDEST DUP3 PUSH1 0x3 DUP2 GT ISZERO PUSH2 0xDAB JUMPI PUSH2 0xDAA PUSH2 0x19D6 JUMP JUMPDEST JUMPDEST SUB ISZERO PUSH2 0xEE3 JUMPI PUSH1 0x1 PUSH1 0x3 DUP2 GT ISZERO PUSH2 0xDC5 JUMPI PUSH2 0xDC4 PUSH2 0x19D6 JUMP JUMPDEST JUMPDEST DUP3 PUSH1 0x3 DUP2 GT ISZERO PUSH2 0xDD8 JUMPI PUSH2 0xDD7 PUSH2 0x19D6 JUMP JUMPDEST JUMPDEST SUB PUSH2 0xE0F JUMPI PUSH1 0x40 MLOAD PUSH32 0xF645EEDF00000000000000000000000000000000000000000000000000000000 DUP2 MSTORE PUSH1 0x4 ADD PUSH1 0x40 MLOAD DUP1 SWAP2 SUB SWAP1 REVERT JUMPDEST PUSH1 0x2 PUSH1 0x3 DUP2 GT ISZERO PUSH2 0xE23 JUMPI PUSH2 0xE22 PUSH2 0x19D6 JUMP JUMPDEST JUMPDEST DUP3 PUSH1 0x3 DUP2 GT ISZERO PUSH2 0xE36 JUMPI PUSH2 0xE35 PUSH2 0x19D6 JUMP JUMPDEST JUMPDEST SUB PUSH2 0xE7A JUMPI DUP1 PUSH0 SHR PUSH1 0x40 MLOAD PUSH32 0xFCE698F700000000000000000000000000000000000000000000000000000000 DUP2 MSTORE PUSH1 0x4 ADD PUSH2 0xE71 SWAP2 SWAP1 PUSH2 0x1092 JUMP JUMPDEST PUSH1 0x40 MLOAD DUP1 SWAP2 SUB SWAP1 REVERT JUMPDEST PUSH1 0x3 DUP1 DUP2 GT ISZERO PUSH2 0xE8D JUMPI PUSH2 0xE8C PUSH2 0x19D6 JUMP JUMPDEST JUMPDEST DUP3 PUSH1 0x3 DUP2 GT ISZERO PUSH2 0xEA0 JUMPI PUSH2 0xE9F PUSH2 0x19D6 JUMP JUMPDEST JUMPDEST SUB PUSH2 0xEE2 JUMPI DUP1 PUSH1 0x40 MLOAD PUSH32 0xD78BCE0C00000000000000000000000000000000000000000000000000000000 DUP2 MSTORE PUSH1 0x4 ADD PUSH2 0xED9 SWAP2 SWAP1 PUSH2 0x1A1B JUMP JUMPDEST PUSH1 0x40 MLOAD DUP1 SWAP2 SUB SWAP1 REVERT JUMPDEST JUMPDEST POP POP JUMP JUMPDEST PUSH0 PUSH0 PUSH0 PUSH32 0x7FFFFFFFFFFFFFFFFFFFFFFFFFFFFFFF5D576E7357A4501DDFE92F46681B20A0 DUP5 PUSH0 SHR GT ISZERO PUSH2 0xF23 JUMPI PUSH0 PUSH1 0x3 DUP6 SWAP3 POP SWAP3 POP SWAP3 POP PUSH2 0xFC4 JUMP JUMPDEST PUSH0 PUSH1 0x1 DUP9 DUP9 DUP9 DUP9 PUSH1 0x40 MLOAD PUSH0 DUP2 MSTORE PUSH1 0x20 ADD PUSH1 0x40 MSTORE PUSH1 0x40 MLOAD PUSH2 0xF46 SWAP5 SWAP4 SWAP3 SWAP2 SWAP1 PUSH2 0x1A4F JUMP JUMPDEST PUSH1 0x20 PUSH1 0x40 MLOAD PUSH1 0x20 DUP2 SUB SWAP1 DUP1 DUP5 SUB SWAP1 DUP6 GAS STATICCALL ISZERO DUP1 ISZERO PUSH2 0xF66 JUMPI RETURNDATASIZE PUSH0 PUSH0 RETURNDATACOPY RETURNDATASIZE PUSH0 REVERT JUMPDEST POP POP POP PUSH1 0x20 PUSH1 0x40 MLOAD SUB MLOAD SWAP1 POP PUSH0 PUSH20 0xFFFFFFFFFFFFFFFFFFFFFFFFFFFFFFFFFFFFFFFF AND DUP2 PUSH20 0xFFFFFFFFFFFFFFFFFFFFFFFFFFFFFFFFFFFFFFFF AND SUB PUSH2 0xFB7 JUMPI PUSH0 PUSH1 0x1 PUSH0 PUSH0 SHL SWAP4 POP SWAP4 POP SWAP4 POP POP PUSH2 0xFC4 JUMP JUMPDEST DUP1 PUSH0 PUSH0 PUSH0 SHL SWAP4 POP SWAP4 POP SWAP4 POP POP JUMPDEST SWAP5 POP SWAP5 POP SWAP5 SWAP2 POP POP JUMP JUMPDEST PUSH0 PUSH0 REVERT JUMPDEST PUSH0 PUSH0 REVERT JUMPDEST PUSH0 DUP2 SWAP1 POP SWAP2 SWAP1 POP JUMP JUMPDEST PUSH2 0xFE8 DUP2 PUSH2 0xFD6 JUMP JUMPDEST DUP2 EQ PUSH2 0xFF2 JUMPI PUSH0 PUSH0 REVERT JUMPDEST POP JUMP JUMPDEST PUSH0 DUP2 CALLDATALOAD SWAP1 POP PUSH2 0x1003 DUP2 PUSH2 0xFDF JUMP JUMPDEST SWAP3 SWAP2 POP POP JUMP JUMPDEST PUSH0 PUSH1 0x20 DUP3 DUP5 SUB SLT ISZERO PUSH2 0x101E JUMPI PUSH2 0x101D PUSH2 0xFCE JUMP JUMPDEST JUMPDEST PUSH0 PUSH2 0x102B DUP5 DUP3 DUP6 ADD PUSH2 0xFF5 JUMP JUMPDEST SWAP2 POP POP SWAP3 SWAP2 POP POP JUMP JUMPDEST PUSH2 0x103D DUP2 PUSH2 0xFD6 JUMP JUMPDEST DUP3 MSTORE POP POP JUMP JUMPDEST PUSH0 DUP2 ISZERO ISZERO SWAP1 POP SWAP2 SWAP1 POP JUMP JUMPDEST PUSH2 0x1057 DUP2 PUSH2 0x1043 JUMP JUMPDEST DUP3 MSTORE POP POP JUMP JUMPDEST PUSH0 PUSH1 0x60 DUP3 ADD SWAP1 POP PUSH2 0x1070 PUSH0 DUP4 ADD DUP7 PUSH2 0x1034 JUMP JUMPDEST PUSH2 0x107D PUSH1 0x20 DUP4 ADD DUP6 PUSH2 0x1034 JUMP JUMPDEST PUSH2 0x108A PUSH1 0x40 DUP4 ADD DUP5 PUSH2 0x104E JUMP JUMPDEST SWAP5 SWAP4 POP POP POP POP JUMP JUMPDEST PUSH0 PUSH1 0x20 DUP3 ADD SWAP1 POP PUSH2 0x10A5 PUSH0 DUP4 ADD DUP5 PUSH2 0x1034 JUMP JUMPDEST SWAP3 SWAP2 POP POP JUMP JUMPDEST PUSH0 PUSH20 0xFFFFFFFFFFFFFFFFFFFFFFFFFFFFFFFFFFFFFFFF DUP3 AND SWAP1 POP SWAP2 SWAP1 POP JUMP JUMPDEST PUSH0 PUSH2 0x10D4 DUP3 PUSH2 0x10AB JUMP JUMPDEST SWAP1 POP SWAP2 SWAP1 POP JUMP JUMPDEST PUSH2 0x10E4 DUP2 PUSH2 0x10CA JUMP JUMPDEST DUP3 MSTORE POP POP JUMP JUMPDEST PUSH0 PUSH1 0x20 DUP3 ADD SWAP1 POP PUSH2 0x10FD PUSH0 DUP4 ADD DUP5 PUSH2 0x10DB JUMP JUMPDEST SWAP3 SWAP2 POP POP JUMP JUMPDEST PUSH0 PUSH0 PUSH0 PUSH1 0x60 DUP5 DUP7 SUB SLT ISZERO PUSH2 0x111A JUMPI PUSH2 0x1119 PUSH2 0xFCE JUMP JUMPDEST JUMPDEST PUSH0 PUSH2 0x1127 DUP7 DUP3 DUP8 ADD PUSH2 0xFF5 JUMP JUMPDEST SWAP4 POP POP PUSH1 0x20 PUSH2 0x1138 DUP7 DUP3 DUP8 ADD PUSH2 0xFF5 JUMP JUMPDEST SWAP3 POP POP PUSH1 0x40 PUSH2 0x1149 DUP7 DUP3 DUP8 ADD PUSH2 0xFF5 JUMP JUMPDEST SWAP2 POP POP SWAP3 POP SWAP3 POP SWAP3 JUMP JUMPDEST PUSH0 PUSH0 PUSH1 0x40 DUP4 DUP6 SUB SLT ISZERO PUSH2 0x1169 JUMPI PUSH2 0x1168 PUSH2 0xFCE JUMP JUMPDEST JUMPDEST PUSH0 PUSH2 0x1176 DUP6 DUP3 DUP7 ADD PUSH2 0xFF5 JUMP JUMPDEST SWAP3 POP POP PUSH1 0x20 PUSH2 0x1187 DUP6 DUP3 DUP7 ADD PUSH2 0xFF5 JUMP JUMPDEST SWAP2 POP POP SWAP3 POP SWAP3 SWAP1 POP JUMP JUMPDEST PUSH0 PUSH1 0x20 DUP3 ADD SWAP1 POP PUSH2 0x11A4 PUSH0 DUP4 ADD DUP5 PUSH2 0x104E JUMP JUMPDEST SWAP3 SWAP2 POP POP JUMP JUMPDEST PUSH0 PUSH0 REVERT JUMPDEST PUSH0 PUSH0 REVERT JUMPDEST PUSH0 PUSH0 REVERT JUMPDEST PUSH0 PUSH0 DUP4 PUSH1 0x1F DUP5 ADD SLT PUSH2 0x11CB JUMPI PUSH2 0x11CA PUSH2 0x11AA JUMP JUMPDEST JUMPDEST DUP3 CALLDATALOAD SWAP1 POP PUSH8 0xFFFFFFFFFFFFFFFF DUP2 GT ISZERO PUSH2 0x11E8 JUMPI PUSH2 0x11E7 PUSH2 0x11AE JUMP JUMPDEST JUMPDEST PUSH1 0x20 DUP4 ADD SWAP2 POP DUP4 PUSH1 0x1 DUP3 MUL DUP4 ADD GT ISZERO PUSH2 0x1204 JUMPI PUSH2 0x1203 PUSH2 0x11B2 JUMP JUMPDEST JUMPDEST SWAP3 POP SWAP3 SWAP1 POP JUMP JUMPDEST PUSH0 PUSH0 PUSH0 PUSH0 PUSH0 PUSH0 PUSH0 PUSH0 PUSH1 0xE0 DUP10 DUP12 SUB SLT ISZERO PUSH2 0x1227 JUMPI PUSH2 0x1226 PUSH2 0xFCE JUMP JUMPDEST JUMPDEST PUSH0 PUSH2 0x1234 DUP12 DUP3 DUP13 ADD PUSH2 0xFF5 JUMP JUMPDEST SWAP9 POP POP PUSH1 0x20 PUSH2 0x1245 DUP12 DUP3 DUP13 ADD PUSH2 0xFF5 JUMP JUMPDEST SWAP8 POP POP PUSH1 0x40 PUSH2 0x1256 DUP12 DUP3 DUP13 ADD PUSH2 0xFF5 JUMP JUMPDEST SWAP7 POP POP PUSH1 0x60 PUSH2 0x1267 DUP12 DUP3 DUP13 ADD PUSH2 0xFF5 JUMP JUMPDEST SWAP6 POP POP PUSH1 0x80 PUSH2 0x1278 DUP12 DUP3 DUP13 ADD PUSH2 0xFF5 JUMP JUMPDEST SWAP5 POP POP PUSH1 0xA0 PUSH2 0x1289 DUP12 DUP3 DUP13 ADD PUSH2 0xFF5 JUMP JUMPDEST SWAP4 POP POP PUSH1 0xC0 DUP10 ADD CALLDATALOAD PUSH8 0xFFFFFFFFFFFFFFFF DUP2 GT ISZERO PUSH2 0x12AA JUMPI PUSH2 0x12A9 PUSH2 0xFD2 JUMP JUMPDEST JUMPDEST PUSH2 0x12B6 DUP12 DUP3 DUP13 ADD PUSH2 0x11B6 JUMP JUMPDEST SWAP3 POP SWAP3 POP POP SWAP3 SWAP6 SWAP9 POP SWAP3 SWAP6 SWAP9 SWAP1 SWAP4 SWAP7 POP JUMP JUMPDEST PUSH2 0x12D1 DUP2 PUSH2 0x10CA JUMP JUMPDEST DUP2 EQ PUSH2 0x12DB JUMPI PUSH0 PUSH0 REVERT JUMPDEST POP JUMP JUMPDEST PUSH0 DUP2 CALLDATALOAD SWAP1 POP PUSH2 0x12EC DUP2 PUSH2 0x12C8 JUMP JUMPDEST SWAP3 SWAP2 POP POP JUMP JUMPDEST PUSH0 PUSH1 0x20 DUP3 DUP5 SUB SLT ISZERO PUSH2 0x1307 JUMPI PUSH2 0x1306 PUSH2 0xFCE JUMP JUMPDEST JUMPDEST PUSH0 PUSH2 0x1314 DUP5 DUP3 DUP6 ADD PUSH2 0x12DE JUMP JUMPDEST SWAP2 POP POP SWAP3 SWAP2 POP POP JUMP JUMPDEST PUSH0 DUP2 SWAP1 POP SWAP2 SWAP1 POP JUMP JUMPDEST PUSH0 PUSH2 0x1340 PUSH2 0x133B PUSH2 0x1336 DUP5 PUSH2 0x10AB JUMP JUMPDEST PUSH2 0x131D JUMP JUMPDEST PUSH2 0x10AB JUMP JUMPDEST SWAP1 POP SWAP2 SWAP1 POP JUMP JUMPDEST PUSH0 PUSH2 0x1351 DUP3 PUSH2 0x1326 JUMP JUMPDEST SWAP1 POP SWAP2 SWAP1 POP JUMP JUMPDEST PUSH0 PUSH2 0x1362 DUP3 PUSH2 0x1347 JUMP JUMPDEST SWAP1 POP SWAP2 SWAP1 POP JUMP JUMPDEST PUSH2 0x1372 DUP2 PUSH2 0x1358 JUMP JUMPDEST DUP3 MSTORE POP POP JUMP JUMPDEST PUSH0 PUSH1 0x20 DUP3 ADD SWAP1 POP PUSH2 0x138B PUSH0 DUP4 ADD DUP5 PUSH2 0x1369 JUMP JUMPDEST SWAP3 SWAP2 POP POP JUMP JUMPDEST PUSH0 DUP2 MLOAD SWAP1 POP PUSH2 0x139F DUP2 PUSH2 0xFDF JUMP JUMPDEST SWAP3 SWAP2 POP POP JUMP JUMPDEST PUSH0 PUSH1 0x20 DUP3 DUP5 SUB SLT ISZERO PUSH2 0x13BA JUMPI PUSH2 0x13B9 PUSH2 0xFCE JUMP JUMPDEST JUMPDEST PUSH0 PUSH2 0x13C7 DUP5 DUP3 DUP6 ADD PUSH2 0x1391 JUMP JUMPDEST SWAP2 POP POP SWAP3 SWAP2 POP POP JUMP JUMPDEST PUSH0 PUSH1 0x40 DUP3 ADD SWAP1 POP PUSH2 0x13E3 PUSH0 DUP4 ADD DUP6 PUSH2 0x10DB JUMP JUMPDEST PUSH2 0x13F0 PUSH1 0x20 DUP4 ADD DUP5 PUSH2 0x1034 JUMP JUMPDEST SWAP4 SWAP3 POP POP POP JUMP JUMPDEST PUSH2 0x1400 DUP2 PUSH2 0x1043 JUMP JUMPDEST DUP2 EQ PUSH2 0x140A JUMPI PUSH0 PUSH0 REVERT JUMPDEST POP JUMP JUMPDEST PUSH0 DUP2 MLOAD SWAP1 POP PUSH2 0x141B DUP2 PUSH2 0x13F7 JUMP JUMPDEST SWAP3 SWAP2 POP POP JUMP JUMPDEST PUSH0 PUSH1 0x20 DUP3 DUP5 SUB SLT ISZERO PUSH2 0x1436 JUMPI PUSH2 0x1435 PUSH2 0xFCE JUMP JUMPDEST JUMPDEST PUSH0 PUSH2 0x1443 DUP5 DUP3 DUP6 ADD PUSH2 0x140D JUMP JUMPDEST SWAP2 POP POP SWAP3 SWAP2 POP POP JUMP JUMPDEST PUSH0 DUP3 DUP3 MSTORE PUSH1 0x20 DUP3 ADD SWAP1 POP SWAP3 SWAP2 POP POP JUMP JUMPDEST PUSH32 0x5769746864726177206661696C65640000000000000000000000000000000000 PUSH0 DUP3 ADD MSTORE POP JUMP JUMPDEST PUSH0 PUSH2 0x1490 PUSH1 0xF DUP4 PUSH2 0x144C JUMP JUMPDEST SWAP2 POP PUSH2 0x149B DUP3 PUSH2 0x145C JUMP JUMPDEST PUSH1 0x20 DUP3 ADD SWAP1 POP SWAP2 SWAP1 POP JUMP JUMPDEST PUSH0 PUSH1 0x20 DUP3 ADD SWAP1 POP DUP2 DUP2 SUB PUSH0 DUP4 ADD MSTORE PUSH2 0x14BD DUP2 PUSH2 0x1484 JUMP JUMPDEST SWAP1 POP SWAP2 SWAP1 POP JUMP JUMPDEST PUSH32 0x51756573742050494420616C726561647920636C61696D656420627920746869 PUSH0 DUP3 ADD MSTORE PUSH32 0x7320464944000000000000000000000000000000000000000000000000000000 PUSH1 0x20 DUP3 ADD MSTORE POP JUMP JUMPDEST PUSH0 PUSH2 0x151E PUSH1 0x25 DUP4 PUSH2 0x144C JUMP JUMPDEST SWAP2 POP PUSH2 0x1529 DUP3 PUSH2 0x14C4 JUMP JUMPDEST PUSH1 0x40 DUP3 ADD SWAP1 POP SWAP2 SWAP1 POP JUMP JUMPDEST PUSH0 PUSH1 0x20 DUP3 ADD SWAP1 POP DUP2 DUP2 SUB PUSH0 DUP4 ADD MSTORE PUSH2 0x154B DUP2 PUSH2 0x1512 JUMP JUMPDEST SWAP1 POP SWAP2 SWAP1 POP JUMP JUMPDEST PUSH32 0x496E76616C696420517565737420494400000000000000000000000000000000 PUSH0 DUP3 ADD MSTORE POP JUMP JUMPDEST PUSH0 PUSH2 0x1586 PUSH1 0x10 DUP4 PUSH2 0x144C JUMP JUMPDEST SWAP2 POP PUSH2 0x1591 DUP3 PUSH2 0x1552 JUMP JUMPDEST PUSH1 0x20 DUP3 ADD SWAP1 POP SWAP2 SWAP1 POP JUMP JUMPDEST PUSH0 PUSH1 0x20 DUP3 ADD SWAP1 POP DUP2 DUP2 SUB PUSH0 DUP4 ADD MSTORE PUSH2 0x15B3 DUP2 PUSH2 0x157A JUMP JUMPDEST SWAP1 POP SWAP2 SWAP1 POP JUMP JUMPDEST PUSH32 0x416D6F756E742062656C6F77206D696E5F726577617264000000000000000000 PUSH0 DUP3 ADD MSTORE POP JUMP JUMPDEST PUSH0 PUSH2 0x15EE PUSH1 0x17 DUP4 PUSH2 0x144C JUMP JUMPDEST SWAP2 POP PUSH2 0x15F9 DUP3 PUSH2 0x15BA JUMP JUMPDEST PUSH1 0x20 DUP3 ADD SWAP1 POP SWAP2 SWAP1 POP JUMP JUMPDEST PUSH0 PUSH1 0x20 DUP3 ADD SWAP1 POP DUP2 DUP2 SUB PUSH0 DUP4 ADD MSTORE PUSH2 0x161B DUP2 PUSH2 0x15E2 JUMP JUMPDEST SWAP1 POP SWAP2 SWAP1 POP JUMP JUMPDEST PUSH32 0x416D6F756E742065786365656473206D61785F72657761726400000000000000 PUSH0 DUP3 ADD MSTORE POP JUMP JUMPDEST PUSH0 PUSH2 0x1656 PUSH1 0x19 DUP4 PUSH2 0x144C JUMP JUMPDEST SWAP2 POP PUSH2 0x1661 DUP3 PUSH2 0x1622 JUMP JUMPDEST PUSH1 0x20 DUP3 ADD SWAP1 POP SWAP2 SWAP1 POP JUMP JUMPDEST PUSH0 PUSH1 0x20 DUP3 ADD SWAP1 POP DUP2 DUP2 SUB PUSH0 DUP4 ADD MSTORE PUSH2 0x1683 DUP2 PUSH2 0x164A JUMP JUMPDEST SWAP1 POP SWAP2 SWAP1 POP JUMP JUMPDEST PUSH32 0x4E487B7100000000000000000000000000000000000000000000000000000000 PUSH0 MSTORE PUSH1 0x11 PUSH1 0x4 MSTORE PUSH1 0x24 PUSH0 REVERT JUMPDEST PUSH0 PUSH2 0x16C1 DUP3 PUSH2 0xFD6 JUMP JUMPDEST SWAP2 POP PUSH2 0x16CC DUP4 PUSH2 0xFD6 JUMP JUMPDEST SWAP3 POP DUP3 DUP3 ADD SWAP1 POP DUP1 DUP3 GT ISZERO PUSH2 0x16E4 JUMPI PUSH2 0x16E3 PUSH2 0x168A JUMP JUMPDEST JUMPDEST SWAP3 SWAP2 POP POP JUMP JUMPDEST PUSH32 0x43756D756C617469766520726577617264206578636565647320746F74616C5F PUSH0 DUP3 ADD MSTORE PUSH32 0x726577617264206C696D69740000000000000000000000000000000000000000 PUSH1 0x20 DUP3 ADD MSTORE POP JUMP JUMPDEST PUSH0 PUSH2 0x1744 PUSH1 0x2C DUP4 PUSH2 0x144C JUMP JUMPDEST SWAP2 POP PUSH2 0x174F DUP3 PUSH2 0x16EA JUMP JUMPDEST PUSH1 0x40 DUP3 ADD SWAP1 POP SWAP2 SWAP1 POP JUMP JUMPDEST PUSH0 PUSH1 0x20 DUP3 ADD SWAP1 POP DUP2 DUP2 SUB PUSH0 DUP4 ADD MSTORE PUSH2 0x1771 DUP2 PUSH2 0x1738 JUMP JUMPDEST SWAP1 POP SWAP2 SWAP1 POP JUMP JUMPDEST PUSH0 DUP2 SWAP1 POP SWAP2 SWAP1 POP JUMP JUMPDEST PUSH2 0x1792 PUSH2 0x178D DUP3 PUSH2 0xFD6 JUMP JUMPDEST PUSH2 0x1778 JUMP JUMPDEST DUP3 MSTORE POP POP JUMP JUMPDEST PUSH0 DUP2 PUSH1 0x60 SHL SWAP1 POP SWAP2 SWAP1 POP JUMP JUMPDEST PUSH0 PUSH2 0x17AE DUP3 PUSH2 0x1798 JUMP JUMPDEST SWAP1 POP SWAP2 SWAP1 POP JUMP JUMPDEST PUSH0 PUSH2 0x17BF DUP3 PUSH2 0x17A4 JUMP JUMPDEST SWAP1 POP SWAP2 SWAP1 POP JUMP JUMPDEST PUSH2 0x17D7 PUSH2 0x17D2 DUP3 PUSH2 0x10CA JUMP JUMPDEST PUSH2 0x17B5 JUMP JUMPDEST DUP3 MSTORE POP POP JUMP JUMPDEST PUSH0 PUSH2 0x17E8 DUP3 DUP11 PUSH2 0x1781 JUMP JUMPDEST PUSH1 0x20 DUP3 ADD SWAP2 POP PUSH2 0x17F8 DUP3 DUP10 PUSH2 0x1781 JUMP JUMPDEST PUSH1 0x20 DUP3 ADD SWAP2 POP PUSH2 0x1808 DUP3 DUP9 PUSH2 0x1781 JUMP JUMPDEST PUSH1 0x20 DUP3 ADD SWAP2 POP PUSH2 0x1818 DUP3 DUP8 PUSH2 0x1781 JUMP JUMPDEST PUSH1 0x20 DUP3 ADD SWAP2 POP PUSH2 0x1828 DUP3 DUP7 PUSH2 0x1781 JUMP JUMPDEST PUSH1 0x20 DUP3 ADD SWAP2 POP PUSH2 0x1838 DUP3 DUP6 PUSH2 0x1781 JUMP JUMPDEST PUSH1 0x20 DUP3 ADD SWAP2 POP PUSH2 0x1848 DUP3 DUP5 PUSH2 0x17C6 JUMP JUMPDEST PUSH1 0x14 DUP3 ADD SWAP2 POP DUP2 SWAP1 POP SWAP9 SWAP8 POP POP POP POP POP POP POP POP JUMP JUMPDEST PUSH32 0x496E76616C696420736572766572207369676E61747572650000000000000000 PUSH0 DUP3 ADD MSTORE POP JUMP JUMPDEST PUSH0 PUSH2 0x1891 PUSH1 0x18 DUP4 PUSH2 0x144C JUMP JUMPDEST SWAP2 POP PUSH2 0x189C DUP3 PUSH2 0x185D JUMP JUMPDEST PUSH1 0x20 DUP3 ADD SWAP1 POP SWAP2 SWAP1 POP JUMP JUMPDEST PUSH0 PUSH1 0x20 DUP3 ADD SWAP1 POP DUP2 DUP2 SUB PUSH0 DUP4 ADD MSTORE PUSH2 0x18BE DUP2 PUSH2 0x1885 JUMP JUMPDEST SWAP1 POP SWAP2 SWAP1 POP JUMP JUMPDEST PUSH0 PUSH2 0x18CF DUP3 PUSH2 0xFD6 JUMP JUMPDEST SWAP2 POP PUSH2 0x18DA DUP4 PUSH2 0xFD6 JUMP JUMPDEST SWAP3 POP DUP3 DUP3 MUL PUSH2 0x18E8 DUP2 PUSH2 0xFD6 JUMP JUMPDEST SWAP2 POP DUP3 DUP3 DIV DUP5 EQ DUP4 ISZERO OR PUSH2 0x18FF JUMPI PUSH2 0x18FE PUSH2 0x168A JUMP JUMPDEST JUMPDEST POP SWAP3 SWAP2 POP POP JUMP JUMPDEST PUSH32 0x436F6E74726163742062616C616E636520696E73756666696369656E74000000 PUSH0 DUP3 ADD MSTORE POP JUMP JUMPDEST PUSH0 PUSH2 0x193A PUSH1 0x1D DUP4 PUSH2 0x144C JUMP JUMPDEST SWAP2 POP PUSH2 0x1945 DUP3 PUSH2 0x1906 JUMP JUMPDEST PUSH1 0x20 DUP3 ADD SWAP1 POP SWAP2 SWAP1 POP JUMP JUMPDEST PUSH0 PUSH1 0x20 DUP3 ADD SWAP1 POP DUP2 DUP2 SUB PUSH0 DUP4 ADD MSTORE PUSH2 0x1967 DUP2 PUSH2 0x192E JUMP JUMPDEST SWAP1 POP SWAP2 SWAP1 POP JUMP JUMPDEST PUSH32 0x546F6B656E207472616E73666572206661696C65640000000000000000000000 PUSH0 DUP3 ADD MSTORE POP JUMP JUMPDEST PUSH0 PUSH2 0x19A2 PUSH1 0x15 DUP4 PUSH2 0x144C JUMP JUMPDEST SWAP2 POP PUSH2 0x19AD DUP3 PUSH2 0x196E JUMP JUMPDEST PUSH1 0x20 DUP3 ADD SWAP1 POP SWAP2 SWAP1 POP JUMP JUMPDEST PUSH0 PUSH1 0x20 DUP3 ADD SWAP1 POP DUP2 DUP2 SUB PUSH0 DUP4 ADD MSTORE PUSH2 0x19CF DUP2 PUSH2 0x1996 JUMP JUMPDEST SWAP1 POP SWAP2 SWAP1 POP JUMP JUMPDEST PUSH32 0x4E487B7100000000000000000000000000000000000000000000000000000000 PUSH0 MSTORE PUSH1 0x21 PUSH1 0x4 MSTORE PUSH1 0x24 PUSH0 REVERT JUMPDEST PUSH0 DUP2 SWAP1 POP SWAP2 SWAP1 POP JUMP JUMPDEST PUSH2 0x1A15 DUP2 PUSH2 0x1A03 JUMP JUMPDEST DUP3 MSTORE POP POP JUMP JUMPDEST PUSH0 PUSH1 0x20 DUP3 ADD SWAP1 POP PUSH2 0x1A2E PUSH0 DUP4 ADD DUP5 PUSH2 0x1A0C JUMP JUMPDEST SWAP3 SWAP2 POP POP JUMP JUMPDEST PUSH0 PUSH1 0xFF DUP3 AND SWAP1 POP SWAP2 SWAP1 POP JUMP JUMPDEST PUSH2 0x1A49 DUP2 PUSH2 0x1A34 JUMP JUMPDEST DUP3 MSTORE POP POP JUMP JUMPDEST PUSH0 PUSH1 0x80 DUP3 ADD SWAP1 POP PUSH2 0x1A62 PUSH0 DUP4 ADD DUP8 PUSH2 0x1A0C JUMP JUMPDEST PUSH2 0x1A6F PUSH1 0x20 DUP4 ADD DUP7 PUSH2 0x1A40 JUMP JUMPDEST PUSH2 0x1A7C PUSH1 0x40 DUP4 ADD DUP6 PUSH2 0x1A0C JUMP JUMPDEST PUSH2 0x1A89 PUSH1 0x60 DUP4 ADD DUP5 PUSH2 0x1A0C JUMP JUMPDEST SWAP6 SWAP5 POP POP POP POP POP JUMP INVALID LOG2 PUSH5 0x6970667358 0x22 SLT KECCAK256 AND 0xBE PREVRANDAO PUSH26 0x2813B9F8F45C37E991E5632A6CD072C9B51B38367A616BFE02A3 LOG0 0xF7 PUSH5 0x736F6C6343 STOP ADDMOD 0x1F STOP CALLER "
		},
		"gasEstimates": {
			"creation": {
				"codeDepositCost": "1371200",
				"executionCost": "infinite",
				"totalCost": "infinite"
			},
			"external": {
				"claimReward(uint256,uint256,uint256,uint256,uint256,uint256,bytes)": "infinite",
				"claimedQuests(uint256,uint256)": "infinite",
				"getRemainingBalance()": "infinite",
				"owner()": "2558",
				"questConfigs(uint256)": "infinite",
				"renounceOwnership()": "infinite",
				"rewardToken()": "infinite",
				"signerAddress()": "462",
				"totalClaimedPerUser(uint256)": "infinite",
				"transferOwnership(address)": "infinite",
				"updateQuestConfig(uint256,uint256,uint256)": "infinite",
				"withdrawToken(uint256)": "infinite"
			},
			"internal": {
				"_setQuestConfig(uint256,uint256,uint256)": "infinite"
			}
		},
		"methodIdentifiers": {
			"claimReward(uint256,uint256,uint256,uint256,uint256,uint256,bytes)": "ed221d58",
			"claimedQuests(uint256,uint256)": "86a29d3b",
			"getRemainingBalance()": "2fba2c85",
			"owner()": "8da5cb5b",
			"questConfigs(uint256)": "077d92a8",
			"renounceOwnership()": "715018a6",
			"rewardToken()": "f7c618c1",
			"signerAddress()": "5b7633d0",
			"totalClaimedPerUser(uint256)": "2f32de90",
			"transferOwnership(address)": "f2fde38b",
			"updateQuestConfig(uint256,uint256,uint256)": "77e73bae",
			"withdrawToken(uint256)": "50baa622"
		}
	},
	"abi": [
		{
			"inputs": [],
			"stateMutability": "nonpayable",
			"type": "constructor"
		},
		{
			"inputs": [],
			"name": "ECDSAInvalidSignature",
			"type": "error"
		},
		{
			"inputs": [
				{
					"internalType": "uint256",
					"name": "length",
					"type": "uint256"
				}
			],
			"name": "ECDSAInvalidSignatureLength",
			"type": "error"
		},
		{
			"inputs": [
				{
					"internalType": "bytes32",
					"name": "s",
					"type": "bytes32"
				}
			],
			"name": "ECDSAInvalidSignatureS",
			"type": "error"
		},
		{
			"inputs": [
				{
					"internalType": "address",
					"name": "owner",
					"type": "address"
				}
			],
			"name": "OwnableInvalidOwner",
			"type": "error"
		},
		{
			"inputs": [
				{
					"internalType": "address",
					"name": "account",
					"type": "address"
				}
			],
			"name": "OwnableUnauthorizedAccount",
			"type": "error"
		},
		{
			"inputs": [],
			"name": "ReentrancyGuardReentrantCall",
			"type": "error"
		},
		{
			"anonymous": false,
			"inputs": [
				{
					"indexed": true,
					"internalType": "address",
					"name": "previousOwner",
					"type": "address"
				},
				{
					"indexed": true,
					"internalType": "address",
					"name": "newOwner",
					"type": "address"
				}
			],
			"name": "OwnershipTransferred",
			"type": "event"
		},
		{
			"anonymous": false,
			"inputs": [
				{
					"indexed": true,
					"internalType": "uint256",
					"name": "fid",
					"type": "uint256"
				},
				{
					"indexed": true,
					"internalType": "uint256",
					"name": "questPid",
					"type": "uint256"
				},
				{
					"indexed": false,
					"internalType": "uint256",
					"name": "questId",
					"type": "uint256"
				}
			],
			"name": "RewardClaimed",
			"type": "event"
		},
		{
			"inputs": [
				{
					"internalType": "uint256",
					"name": "fid",
					"type": "uint256"
				},
				{
					"internalType": "uint256",
					"name": "questPid",
					"type": "uint256"
				},
				{
					"internalType": "uint256",
					"name": "questId",
					"type": "uint256"
				},
				{
					"internalType": "uint256",
					"name": "questReward",
					"type": "uint256"
				},
				{
					"internalType": "uint256",
					"name": "reward",
					"type": "uint256"
				},
				{
					"internalType": "uint256",
					"name": "totalReward",
					"type": "uint256"
				},
				{
					"internalType": "bytes",
					"name": "signature",
					"type": "bytes"
				}
			],
			"name": "claimReward",
			"outputs": [],
			"stateMutability": "nonpayable",
			"type": "function"
		},
		{
			"inputs": [
				{
					"internalType": "uint256",
					"name": "",
					"type": "uint256"
				},
				{
					"internalType": "uint256",
					"name": "",
					"type": "uint256"
				}
			],
			"name": "claimedQuests",
			"outputs": [
				{
					"internalType": "bool",
					"name": "",
					"type": "bool"
				}
			],
			"stateMutability": "view",
			"type": "function"
		},
		{
			"inputs": [],
			"name": "getRemainingBalance",
			"outputs": [
				{
					"internalType": "uint256",
					"name": "",
					"type": "uint256"
				}
			],
			"stateMutability": "view",
			"type": "function"
		},
		{
			"inputs": [],
			"name": "owner",
			"outputs": [
				{
					"internalType": "address",
					"name": "",
					"type": "address"
				}
			],
			"stateMutability": "view",
			"type": "function"
		},
		{
			"inputs": [
				{
					"internalType": "uint256",
					"name": "",
					"type": "uint256"
				}
			],
			"name": "questConfigs",
			"outputs": [
				{
					"internalType": "uint256",
					"name": "minReward",
					"type": "uint256"
				},
				{
					"internalType": "uint256",
					"name": "maxReward",
					"type": "uint256"
				},
				{
					"internalType": "bool",
					"name": "exists",
					"type": "bool"
				}
			],
			"stateMutability": "view",
			"type": "function"
		},
		{
			"inputs": [],
			"name": "renounceOwnership",
			"outputs": [],
			"stateMutability": "nonpayable",
			"type": "function"
		},
		{
			"inputs": [],
			"name": "rewardToken",
			"outputs": [
				{
					"internalType": "contract IERC20",
					"name": "",
					"type": "address"
				}
			],
			"stateMutability": "view",
			"type": "function"
		},
		{
			"inputs": [],
			"name": "signerAddress",
			"outputs": [
				{
					"internalType": "address",
					"name": "",
					"type": "address"
				}
			],
			"stateMutability": "view",
			"type": "function"
		},
		{
			"inputs": [
				{
					"internalType": "uint256",
					"name": "",
					"type": "uint256"
				}
			],
			"name": "totalClaimedPerUser",
			"outputs": [
				{
					"internalType": "uint256",
					"name": "",
					"type": "uint256"
				}
			],
			"stateMutability": "view",
			"type": "function"
		},
		{
			"inputs": [
				{
					"internalType": "address",
					"name": "newOwner",
					"type": "address"
				}
			],
			"name": "transferOwnership",
			"outputs": [],
			"stateMutability": "nonpayable",
			"type": "function"
		},
		{
			"inputs": [
				{
					"internalType": "uint256",
					"name": "id",
					"type": "uint256"
				},
				{
					"internalType": "uint256",
					"name": "min",
					"type": "uint256"
				},
				{
					"internalType": "uint256",
					"name": "max",
					"type": "uint256"
				}
			],
			"name": "updateQuestConfig",
			"outputs": [],
			"stateMutability": "nonpayable",
			"type": "function"
		},
		{
			"inputs": [
				{
					"internalType": "uint256",
					"name": "amount",
					"type": "uint256"
				}
			],
			"name": "withdrawToken",
			"outputs": [],
			"stateMutability": "nonpayable",
			"type": "function"
		}
	]
}