{
	"data": {
		"bytecode": {
			"linkReferences": {},
			"object": "608060405234801561000f575f5ffd5b5060405161095e38038061095e83398181016040528101906100319190610157565b33805f5f6101000a81548173ffffffffffffffffffffffffffffffffffffffff021916908373ffffffffffffffffffffffffffffffffffffffff160217905550508160015f6101000a81548173ffffffffffffffffffffffffffffffffffffffff021916908373ffffffffffffffffffffffffffffffffffffffff1602179055508060025f6101000a81548173ffffffffffffffffffffffffffffffffffffffff021916908373ffffffffffffffffffffffffffffffffffffffff1602179055505050610195565b5f5ffd5b5f73ffffffffffffffffffffffffffffffffffffffff82169050919050565b5f610126826100fd565b9050919050565b6101368161011c565b8114610140575f5ffd5b50565b5f815190506101518161012d565b92915050565b5f5f6040838503121561016d5761016c6100f9565b5b5f61017a85828601610143565b925050602061018b85828601610143565b9150509250929050565b6107bc806101a25f395ff3fe608060405234801561000f575f5ffd5b5060043610610055575f3560e01c80635ce7a2321461005957806361d027b3146100755780638455d8d5146100935780638da5cb5b146100b1578063f0f44260146100cf575b5f5ffd5b610073600480360381019061006e9190610414565b6100eb565b005b61007d610246565b60405161008a9190610491565b60405180910390f35b61009b61026b565b6040516100a89190610505565b60405180910390f35b6100b9610290565b6040516100c69190610491565b60405180910390f35b6100e960048036038101906100e49190610548565b6102b7565b005b5f8111156101f25760015f9054906101000a900473ffffffffffffffffffffffffffffffffffffffff1673ffffffffffffffffffffffffffffffffffffffff166323b872dd3360025f9054906101000a900473ffffffffffffffffffffffffffffffffffffffff16846040518463ffffffff1660e01b815260040161017293929190610582565b6020604051808303815f875af115801561018e573d5f5f3e3d5ffd5b505050506040513d601f19601f820116820180604052508101906101b291906105ec565b6101f1576040517f08c379a00000000000000000000000000000000000000000000000000000000081526004016101e890610671565b60405180910390fd5b5b3373ffffffffffffffffffffffffffffffffffffffff167f41f4bb04db5b73764c43be38dac542f46ed1308f136ce08344cd200885b6c6f2838360405161023a92919061068f565b60405180910390a25050565b60025f9054906101000a900473ffffffffffffffffffffffffffffffffffffffff1681565b60015f9054906101000a900473ffffffffffffffffffffffffffffffffffffffff1681565b5f5f5f9054906101000a900473ffffffffffffffffffffffffffffffffffffffff16905090565b3373ffffffffffffffffffffffffffffffffffffffff166102d6610290565b73ffffffffffffffffffffffffffffffffffffffff161461032c576040517f08c379a000000000000000000000000000000000000000000000000000000000815260040161032390610700565b60405180910390fd5b5f73ffffffffffffffffffffffffffffffffffffffff168173ffffffffffffffffffffffffffffffffffffffff160361039a576040517f08c379a000000000000000000000000000000000000000000000000000000000815260040161039190610768565b60405180910390fd5b8060025f6101000a81548173ffffffffffffffffffffffffffffffffffffffff021916908373ffffffffffffffffffffffffffffffffffffffff16021790555050565b5f5ffd5b5f819050919050565b6103f3816103e1565b81146103fd575f5ffd5b50565b5f8135905061040e816103ea565b92915050565b5f5f6040838503121561042a576104296103dd565b5b5f61043785828601610400565b925050602061044885828601610400565b9150509250929050565b5f73ffffffffffffffffffffffffffffffffffffffff82169050919050565b5f61047b82610452565b9050919050565b61048b81610471565b82525050565b5f6020820190506104a45f830184610482565b92915050565b5f819050919050565b5f6104cd6104c86104c384610452565b6104aa565b610452565b9050919050565b5f6104de826104b3565b9050919050565b5f6104ef826104d4565b9050919050565b6104ff816104e5565b82525050565b5f6020820190506105185f8301846104f6565b92915050565b61052781610471565b8114610531575f5ffd5b50565b5f813590506105428161051e565b92915050565b5f6020828403121561055d5761055c6103dd565b5b5f61056a84828501610534565b91505092915050565b61057c816103e1565b82525050565b5f6060820190506105955f830186610482565b6105a26020830185610482565b6105af6040830184610573565b949350505050565b5f8115159050919050565b6105cb816105b7565b81146105d5575f5ffd5b50565b5f815190506105e6816105c2565b92915050565b5f60208284031215610601576106006103dd565b5b5f61060e848285016105d8565b91505092915050565b5f82825260208201905092915050565b7f434848207472616e73666572206661696c6564000000000000000000000000005f82015250565b5f61065b601383610617565b915061066682610627565b602082019050919050565b5f6020820190508181035f8301526106888161064f565b9050919050565b5f6040820190506106a25f830185610573565b6106af6020830184610573565b9392505050565b7f4f776e61626c653a2063616c6c6572206973206e6f7420746865206f776e65725f82015250565b5f6106ea602083610617565b91506106f5826106b6565b602082019050919050565b5f6020820190508181035f830152610717816106de565b9050919050565b7f496e76616c6964207472656173757279000000000000000000000000000000005f82015250565b5f610752601083610617565b915061075d8261071e565b602082019050919050565b5f6020820190508181035f83015261077f81610746565b905091905056fea26469706673582212202b3dc5c0e3c7062a99144dc1c685bd96f2cbbc1b64f25e040a30286004adce9564736f6c634300081f0033",
			"opcodes": "PUSH1 0x80 PUSH1 0x40 MSTORE CALLVALUE DUP1 ISZERO PUSH2 0xF JUMPI PUSH0 PUSH0 REVERT JUMPDEST POP PUSH1 0x40 MLOAD PUSH2 0x95E CODESIZE SUB DUP1 PUSH2 0x95E DUP4 CODECOPY DUP2 DUP2 ADD PUSH1 0x40 MSTORE DUP2 ADD SWAP1 PUSH2 0x31 SWAP2 SWAP1 PUSH2 0x157 JUMP JUMPDEST CALLER DUP1 PUSH0 PUSH0 PUSH2 0x100 EXP DUP2 SLOAD DUP2 PUSH20 0xFFFFFFFFFFFFFFFFFFFFFFFFFFFFFFFFFFFFFFFF MUL NOT AND SWAP1 DUP4 PUSH20 0xFFFFFFFFFFFFFFFFFFFFFFFFFFFFFFFFFFFFFFFF AND MUL OR SWAP1 SSTORE POP POP DUP2 PUSH1 0x1 PUSH0 PUSH2 0x100 EXP DUP2 SLOAD DUP2 PUSH20 0xFFFFFFFFFFFFFFFFFFFFFFFFFFFFFFFFFFFFFFFF MUL NOT AND SWAP1 DUP4 PUSH20 0xFFFFFFFFFFFFFFFFFFFFFFFFFFFFFFFFFFFFFFFF AND MUL OR SWAP1 SSTORE POP DUP1 PUSH1 0x2 PUSH0 PUSH2 0x100 EXP DUP2 SLOAD DUP2 PUSH20 0xFFFFFFFFFFFFFFFFFFFFFFFFFFFFFFFFFFFFFFFF MUL NOT AND SWAP1 DUP4 PUSH20 0xFFFFFFFFFFFFFFFFFFFFFFFFFFFFFFFFFFFFFFFF AND MUL OR SWAP1 SSTORE POP POP POP PUSH2 0x195 JUMP JUMPDEST PUSH0 PUSH0 REVERT JUMPDEST PUSH0 PUSH20 0xFFFFFFFFFFFFFFFFFFFFFFFFFFFFFFFFFFFFFFFF DUP3 AND SWAP1 POP SWAP2 SWAP1 POP JUMP JUMPDEST PUSH0 PUSH2 0x126 DUP3 PUSH2 0xFD JUMP JUMPDEST SWAP1 POP SWAP2 SWAP1 POP JUMP JUMPDEST PUSH2 0x136 DUP2 PUSH2 0x11C JUMP JUMPDEST DUP2 EQ PUSH2 0x140 JUMPI PUSH0 PUSH0 REVERT JUMPDEST POP JUMP JUMPDEST PUSH0 DUP2 MLOAD SWAP1 POP PUSH2 0x151 DUP2 PUSH2 0x12D JUMP JUMPDEST SWAP3 SWAP2 POP POP JUMP JUMPDEST PUSH0 PUSH0 PUSH1 0x40 DUP4 DUP6 SUB SLT ISZERO PUSH2 0x16D JUMPI PUSH2 0x16C PUSH2 0xF9 JUMP JUMPDEST JUMPDEST PUSH0 PUSH2 0x17A DUP6 DUP3 DUP7 ADD PUSH2 0x143 JUMP JUMPDEST SWAP3 POP POP PUSH1 0x20 PUSH2 0x18B DUP6 DUP3 DUP7 ADD PUSH2 0x143 JUMP JUMPDEST SWAP2 POP POP SWAP3 POP SWAP3 SWAP1 POP JUMP JUMPDEST PUSH2 0x7BC DUP1 PUSH2 0x1A2 PUSH0 CODECOPY PUSH0 RETURN INVALID PUSH1 0x80 PUSH1 0x40 MSTORE CALLVALUE DUP1 ISZERO PUSH2 0xF JUMPI PUSH0 PUSH0 REVERT JUMPDEST POP PUSH1 0x4 CALLDATASIZE LT PUSH2 0x55 JUMPI PUSH0 CALLDATALOAD PUSH1 0xE0 SHR DUP1 PUSH4 0x5CE7A232 EQ PUSH2 0x59 JUMPI DUP1 PUSH4 0x61D027B3 EQ PUSH2 0x75 JUMPI DUP1 PUSH4 0x8455D8D5 EQ PUSH2 0x93 JUMPI DUP1 PUSH4 0x8DA5CB5B EQ PUSH2 0xB1 JUMPI DUP1 PUSH4 0xF0F44260 EQ PUSH2 0xCF JUMPI JUMPDEST PUSH0 PUSH0 REVERT JUMPDEST PUSH2 0x73 PUSH1 0x4 DUP1 CALLDATASIZE SUB DUP2 ADD SWAP1 PUSH2 0x6E SWAP2 SWAP1 PUSH2 0x414 JUMP JUMPDEST PUSH2 0xEB JUMP JUMPDEST STOP JUMPDEST PUSH2 0x7D PUSH2 0x246 JUMP JUMPDEST PUSH1 0x40 MLOAD PUSH2 0x8A SWAP2 SWAP1 PUSH2 0x491 JUMP JUMPDEST PUSH1 0x40 MLOAD DUP1 SWAP2 SUB SWAP1 RETURN JUMPDEST PUSH2 0x9B PUSH2 0x26B JUMP JUMPDEST PUSH1 0x40 MLOAD PUSH2 0xA8 SWAP2 SWAP1 PUSH2 0x505 JUMP JUMPDEST PUSH1 0x40 MLOAD DUP1 SWAP2 SUB SWAP1 RETURN JUMPDEST PUSH2 0xB9 PUSH2 0x290 JUMP JUMPDEST PUSH1 0x40 MLOAD PUSH2 0xC6 SWAP2 SWAP1 PUSH2 0x491 JUMP JUMPDEST PUSH1 0x40 MLOAD DUP1 SWAP2 SUB SWAP1 RETURN JUMPDEST PUSH2 0xE9 PUSH1 0x4 DUP1 CALLDATASIZE SUB DUP2 ADD SWAP1 PUSH2 0xE4 SWAP2 SWAP1 PUSH2 0x548 JUMP JUMPDEST PUSH2 0x2B7 JUMP JUMPDEST STOP JUMPDEST PUSH0 DUP2 GT ISZERO PUSH2 0x1F2 JUMPI PUSH1 0x1 PUSH0 SWAP1 SLOAD SWAP1 PUSH2 0x100 EXP SWAP1 DIV PUSH20 0xFFFFFFFFFFFFFFFFFFFFFFFFFFFFFFFFFFFFFFFF AND PUSH20 0xFFFFFFFFFFFFFFFFFFFFFFFFFFFFFFFFFFFFFFFF AND PUSH4 0x23B872DD CALLER PUSH1 0x2 PUSH0 SWAP1 SLOAD SWAP1 PUSH2 0x100 EXP SWAP1 DIV PUSH20 0xFFFFFFFFFFFFFFFFFFFFFFFFFFFFFFFFFFFFFFFF AND DUP5 PUSH1 0x40 MLOAD DUP5 PUSH4 0xFFFFFFFF AND PUSH1 0xE0 SHL DUP2 MSTORE PUSH1 0x4 ADD PUSH2 0x172 SWAP4 SWAP3 SWAP2 SWAP1 PUSH2 0x582 JUMP JUMPDEST PUSH1 0x20 PUSH1 0x40 MLOAD DUP1 DUP4 SUB DUP2 PUSH0 DUP8 GAS CALL ISZERO DUP1 ISZERO PUSH2 0x18E JUMPI RETURNDATASIZE PUSH0 PUSH0 RETURNDATACOPY RETURNDATASIZE PUSH0 REVERT JUMPDEST POP POP POP POP PUSH1 0x40 MLOAD RETURNDATASIZE PUSH1 0x1F NOT PUSH1 0x1F DUP3 ADD AND DUP3 ADD DUP1 PUSH1 0x40 MSTORE POP DUP2 ADD SWAP1 PUSH2 0x1B2 SWAP2 SWAP1 PUSH2 0x5EC JUMP JUMPDEST PUSH2 0x1F1 JUMPI PUSH1 0x40 MLOAD PUSH32 0x8C379A000000000000000000000000000000000000000000000000000000000 DUP2 MSTORE PUSH1 0x4 ADD PUSH2 0x1E8 SWAP1 PUSH2 0x671 JUMP JUMPDEST PUSH1 0x40 MLOAD DUP1 SWAP2 SUB SWAP1 REVERT JUMPDEST JUMPDEST CALLER PUSH20 0xFFFFFFFFFFFFFFFFFFFFFFFFFFFFFFFFFFFFFFFF AND PUSH32 0x41F4BB04DB5B73764C43BE38DAC542F46ED1308F136CE08344CD200885B6C6F2 DUP4 DUP4 PUSH1 0x40 MLOAD PUSH2 0x23A SWAP3 SWAP2 SWAP1 PUSH2 0x68F JUMP JUMPDEST PUSH1 0x40 MLOAD DUP1 SWAP2 SUB SWAP1 LOG2 POP POP JUMP JUMPDEST PUSH1 0x2 PUSH0 SWAP1 SLOAD SWAP1 PUSH2 0x100 EXP SWAP1 DIV PUSH20 0xFFFFFFFFFFFFFFFFFFFFFFFFFFFFFFFFFFFFFFFF AND DUP2 JUMP JUMPDEST PUSH1 0x1 PUSH0 SWAP1 SLOAD SWAP1 PUSH2 0x100 EXP SWAP1 DIV PUSH20 0xFFFFFFFFFFFFFFFFFFFFFFFFFFFFFFFFFFFFFFFF AND DUP2 JUMP JUMPDEST PUSH0 PUSH0 PUSH0 SWAP1 SLOAD SWAP1 PUSH2 0x100 EXP SWAP1 DIV PUSH20 0xFFFFFFFFFFFFFFFFFFFFFFFFFFFFFFFFFFFFFFFF AND SWAP1 POP SWAP1 JUMP JUMPDEST CALLER PUSH20 0xFFFFFFFFFFFFFFFFFFFFFFFFFFFFFFFFFFFFFFFF AND PUSH2 0x2D6 PUSH2 0x290 JUMP JUMPDEST PUSH20 0xFFFFFFFFFFFFFFFFFFFFFFFFFFFFFFFFFFFFFFFF AND EQ PUSH2 0x32C JUMPI PUSH1 0x40 MLOAD PUSH32 0x8C379A000000000000000000000000000000000000000000000000000000000 DUP2 MSTORE PUSH1 0x4 ADD PUSH2 0x323 SWAP1 PUSH2 0x700 JUMP JUMPDEST PUSH1 0x40 MLOAD DUP1 SWAP2 SUB SWAP1 REVERT JUMPDEST PUSH0 PUSH20 0xFFFFFFFFFFFFFFFFFFFFFFFFFFFFFFFFFFFFFFFF AND DUP2 PUSH20 0xFFFFFFFFFFFFFFFFFFFFFFFFFFFFFFFFFFFFFFFF AND SUB PUSH2 0x39A JUMPI PUSH1 0x40 MLOAD PUSH32 0x8C379A000000000000000000000000000000000000000000000000000000000 DUP2 MSTORE PUSH1 0x4 ADD PUSH2 0x391 SWAP1 PUSH2 0x768 JUMP JUMPDEST PUSH1 0x40 MLOAD DUP1 SWAP2 SUB SWAP1 REVERT JUMPDEST DUP1 PUSH1 0x2 PUSH0 PUSH2 0x100 EXP DUP2 SLOAD DUP2 PUSH20 0xFFFFFFFFFFFFFFFFFFFFFFFFFFFFFFFFFFFFFFFF MUL NOT AND SWAP1 DUP4 PUSH20 0xFFFFFFFFFFFFFFFFFFFFFFFFFFFFFFFFFFFFFFFF AND MUL OR SWAP1 SSTORE POP POP JUMP JUMPDEST PUSH0 PUSH0 REVERT JUMPDEST PUSH0 DUP2 SWAP1 POP SWAP2 SWAP1 POP JUMP JUMPDEST PUSH2 0x3F3 DUP2 PUSH2 0x3E1 JUMP JUMPDEST DUP2 EQ PUSH2 0x3FD JUMPI PUSH0 PUSH0 REVERT JUMPDEST POP JUMP JUMPDEST PUSH0 DUP2 CALLDATALOAD SWAP1 POP PUSH2 0x40E DUP2 PUSH2 0x3EA JUMP JUMPDEST SWAP3 SWAP2 POP POP JUMP JUMPDEST PUSH0 PUSH0 PUSH1 0x40 DUP4 DUP6 SUB SLT ISZERO PUSH2 0x42A JUMPI PUSH2 0x429 PUSH2 0x3DD JUMP JUMPDEST JUMPDEST PUSH0 PUSH2 0x437 DUP6 DUP3 DUP7 ADD PUSH2 0x400 JUMP JUMPDEST SWAP3 POP POP PUSH1 0x20 PUSH2 0x448 DUP6 DUP3 DUP7 ADD PUSH2 0x400 JUMP JUMPDEST SWAP2 POP POP SWAP3 POP SWAP3 SWAP1 POP JUMP JUMPDEST PUSH0 PUSH20 0xFFFFFFFFFFFFFFFFFFFFFFFFFFFFFFFFFFFFFFFF DUP3 AND SWAP1 POP SWAP2 SWAP1 POP JUMP JUMPDEST PUSH0 PUSH2 0x47B DUP3 PUSH2 0x452 JUMP JUMPDEST SWAP1 POP SWAP2 SWAP1 POP JUMP JUMPDEST PUSH2 0x48B DUP2 PUSH2 0x471 JUMP JUMPDEST DUP3 MSTORE POP POP JUMP JUMPDEST PUSH0 PUSH1 0x20 DUP3 ADD SWAP1 POP PUSH2 0x4A4 PUSH0 DUP4 ADD DUP5 PUSH2 0x482 JUMP JUMPDEST SWAP3 SWAP2 POP POP JUMP JUMPDEST PUSH0 DUP2 SWAP1 POP SWAP2 SWAP1 POP JUMP JUMPDEST PUSH0 PUSH2 0x4CD PUSH2 0x4C8 PUSH2 0x4C3 DUP5 PUSH2 0x452 JUMP JUMPDEST PUSH2 0x4AA JUMP JUMPDEST PUSH2 0x452 JUMP JUMPDEST SWAP1 POP SWAP2 SWAP1 POP JUMP JUMPDEST PUSH0 PUSH2 0x4DE DUP3 PUSH2 0x4B3 JUMP JUMPDEST SWAP1 POP SWAP2 SWAP1 POP JUMP JUMPDEST PUSH0 PUSH2 0x4EF DUP3 PUSH2 0x4D4 JUMP JUMPDEST SWAP1 POP SWAP2 SWAP1 POP JUMP JUMPDEST PUSH2 0x4FF DUP2 PUSH2 0x4E5 JUMP JUMPDEST DUP3 MSTORE POP POP JUMP JUMPDEST PUSH0 PUSH1 0x20 DUP3 ADD SWAP1 POP PUSH2 0x518 PUSH0 DUP4 ADD DUP5 PUSH2 0x4F6 JUMP JUMPDEST SWAP3 SWAP2 POP POP JUMP JUMPDEST PUSH2 0x527 DUP2 PUSH2 0x471 JUMP JUMPDEST DUP2 EQ PUSH2 0x531 JUMPI PUSH0 PUSH0 REVERT JUMPDEST POP JUMP JUMPDEST PUSH0 DUP2 CALLDATALOAD SWAP1 POP PUSH2 0x542 DUP2 PUSH2 0x51E JUMP JUMPDEST SWAP3 SWAP2 POP POP JUMP JUMPDEST PUSH0 PUSH1 0x20 DUP3 DUP5 SUB SLT ISZERO PUSH2 0x55D JUMPI PUSH2 0x55C PUSH2 0x3DD JUMP JUMPDEST JUMPDEST PUSH0 PUSH2 0x56A DUP5 DUP3 DUP6 ADD PUSH2 0x534 JUMP JUMPDEST SWAP2 POP POP SWAP3 SWAP2 POP POP JUMP JUMPDEST PUSH2 0x57C DUP2 PUSH2 0x3E1 JUMP JUMPDEST DUP3 MSTORE POP POP JUMP JUMPDEST PUSH0 PUSH1 0x60 DUP3 ADD SWAP1 POP PUSH2 0x595 PUSH0 DUP4 ADD DUP7 PUSH2 0x482 JUMP JUMPDEST PUSH2 0x5A2 PUSH1 0x20 DUP4 ADD DUP6 PUSH2 0x482 JUMP JUMPDEST PUSH2 0x5AF PUSH1 0x40 DUP4 ADD DUP5 PUSH2 0x573 JUMP JUMPDEST SWAP5 SWAP4 POP POP POP POP JUMP JUMPDEST PUSH0 DUP2 ISZERO ISZERO SWAP1 POP SWAP2 SWAP1 POP JUMP JUMPDEST PUSH2 0x5CB DUP2 PUSH2 0x5B7 JUMP JUMPDEST DUP2 EQ PUSH2 0x5D5 JUMPI PUSH0 PUSH0 REVERT JUMPDEST POP JUMP JUMPDEST PUSH0 DUP2 MLOAD SWAP1 POP PUSH2 0x5E6 DUP2 PUSH2 0x5C2 JUMP JUMPDEST SWAP3 SWAP2 POP POP JUMP JUMPDEST PUSH0 PUSH1 0x20 DUP3 DUP5 SUB SLT ISZERO PUSH2 0x601 JUMPI PUSH2 0x600 PUSH2 0x3DD JUMP JUMPDEST JUMPDEST PUSH0 PUSH2 0x60E DUP5 DUP3 DUP6 ADD PUSH2 0x5D8 JUMP JUMPDEST SWAP2 POP POP SWAP3 SWAP2 POP POP JUMP JUMPDEST PUSH0 DUP3 DUP3 MSTORE PUSH1 0x20 DUP3 ADD SWAP1 POP SWAP3 SWAP2 POP POP JUMP JUMPDEST PUSH32 0x434848207472616E73666572206661696C656400000000000000000000000000 PUSH0 DUP3 ADD MSTORE POP JUMP JUMPDEST PUSH0 PUSH2 0x65B PUSH1 0x13 DUP4 PUSH2 0x617 JUMP JUMPDEST SWAP2 POP PUSH2 0x666 DUP3 PUSH2 0x627 JUMP JUMPDEST PUSH1 0x20 DUP3 ADD SWAP1 POP SWAP2 SWAP1 POP JUMP JUMPDEST PUSH0 PUSH1 0x20 DUP3 ADD SWAP1 POP DUP2 DUP2 SUB PUSH0 DUP4 ADD MSTORE PUSH2 0x688 DUP2 PUSH2 0x64F JUMP JUMPDEST SWAP1 POP SWAP2 SWAP1 POP JUMP JUMPDEST PUSH0 PUSH1 0x40 DUP3 ADD SWAP1 POP PUSH2 0x6A2 PUSH0 DUP4 ADD DUP6 PUSH2 0x573 JUMP JUMPDEST PUSH2 0x6AF PUSH1 0x20 DUP4 ADD DUP5 PUSH2 0x573 JUMP JUMPDEST SWAP4 SWAP3 POP POP POP JUMP JUMPDEST PUSH32 0x4F776E61626C653A2063616C6C6572206973206E6F7420746865206F776E6572 PUSH0 DUP3 ADD MSTORE POP JUMP JUMPDEST PUSH0 PUSH2 0x6EA PUSH1 0x20 DUP4 PUSH2 0x617 JUMP JUMPDEST SWAP2 POP PUSH2 0x6F5 DUP3 PUSH2 0x6B6 JUMP JUMPDEST PUSH1 0x20 DUP3 ADD SWAP1 POP SWAP2 SWAP1 POP JUMP JUMPDEST PUSH0 PUSH1 0x20 DUP3 ADD SWAP1 POP DUP2 DUP2 SUB PUSH0 DUP4 ADD MSTORE PUSH2 0x717 DUP2 PUSH2 0x6DE JUMP JUMPDEST SWAP1 POP SWAP2 SWAP1 POP JUMP JUMPDEST PUSH32 0x496E76616C696420747265617375727900000000000000000000000000000000 PUSH0 DUP3 ADD MSTORE POP JUMP JUMPDEST PUSH0 PUSH2 0x752 PUSH1 0x10 DUP4 PUSH2 0x617 JUMP JUMPDEST SWAP2 POP PUSH2 0x75D DUP3 PUSH2 0x71E JUMP JUMPDEST PUSH1 0x20 DUP3 ADD SWAP1 POP SWAP2 SWAP1 POP JUMP JUMPDEST PUSH0 PUSH1 0x20 DUP3 ADD SWAP1 POP DUP2 DUP2 SUB PUSH0 DUP4 ADD MSTORE PUSH2 0x77F DUP2 PUSH2 0x746 JUMP JUMPDEST SWAP1 POP SWAP2 SWAP1 POP JUMP INVALID LOG2 PUSH5 0x6970667358 0x22 SLT KECCAK256 0x2B RETURNDATASIZE 0xC5 0xC0 CALLF 0xC706 0x2A SWAP10 EQ 0x4D 0xC1 0xC6 DUP6 0xBD SWAP7 CALLCODE 0xCB 0xBC SHL PUSH5 0xF25E040A30 0x28 PUSH1 0x4 0xAD 0xCE SWAP6 PUSH5 0x736F6C6343 STOP ADDMOD 0x1F STOP CALLER "
		},
		"gasEstimates": {
			"creation": {
				"codeDepositCost": "396000",
				"executionCost": "infinite",
				"totalCost": "infinite"
			},
			"external": {
				"chhToken()": "infinite",
				"departQuest(uint256,uint256)": "infinite",
				"owner()": "2558",
				"setTreasury(address)": "27017",
				"treasury()": "2508"
			}
		},
		"methodIdentifiers": {
			"chhToken()": "8455d8d5",
			"departQuest(uint256,uint256)": "5ce7a232",
			"owner()": "8da5cb5b",
			"setTreasury(address)": "f0f44260",
			"treasury()": "61d027b3"
		}
	},
	"abi": [
		{
			"inputs": [
				{
					"internalType": "address",
					"name": "_chhToken",
					"type": "address"
				},
				{
					"internalType": "address",
					"name": "_treasury",
					"type": "address"
				}
			],
			"stateMutability": "nonpayable",
			"type": "constructor"
		},
		{
			"anonymous": false,
			"inputs": [
				{
					"indexed": true,
					"internalType": "address",
					"name": "previousOwner",
					"type": "address"
				},
				{
					"indexed": true,
					"internalType": "address",
					"name": "newOwner",
					"type": "address"
				}
			],
			"name": "OwnershipTransferred",
			"type": "event"
		},
		{
			"anonymous": false,
			"inputs": [
				{
					"indexed": true,
					"internalType": "address",
					"name": "player",
					"type": "address"
				},
				{
					"indexed": false,
					"internalType": "uint256",
					"name": "questRank",
					"type": "uint256"
				},
				{
					"indexed": false,
					"internalType": "uint256",
					"name": "cost",
					"type": "uint256"
				}
			],
			"name": "QuestDeparted",
			"type": "event"
		},
		{
			"inputs": [],
			"name": "chhToken",
			"outputs": [
				{
					"internalType": "contract IERC20",
					"name": "",
					"type": "address"
				}
			],
			"stateMutability": "view",
			"type": "function"
		},
		{
			"inputs": [
				{
					"internalType": "uint256",
					"name": "questRank",
					"type": "uint256"
				},
				{
					"internalType": "uint256",
					"name": "cost",
					"type": "uint256"
				}
			],
			"name": "departQuest",
			"outputs": [],
			"stateMutability": "nonpayable",
			"type": "function"
		},
		{
			"inputs": [],
			"name": "owner",
			"outputs": [
				{
					"internalType": "address",
					"name": "",
					"type": "address"
				}
			],
			"stateMutability": "view",
			"type": "function"
		},
		{
			"inputs": [
				{
					"internalType": "address",
					"name": "_treasury",
					"type": "address"
				}
			],
			"name": "setTreasury",
			"outputs": [],
			"stateMutability": "nonpayable",
			"type": "function"
		},
		{
			"inputs": [],
			"name": "treasury",
			"outputs": [
				{
					"internalType": "address",
					"name": "",
					"type": "address"
				}
			],
			"stateMutability": "view",
			"type": "function"
		}
	]
}