{
	"data": {
		"bytecode": {
			"linkReferences": {},
			"object": "60a060405234801561000f575f5ffd5b50335f73ffffffffffffffffffffffffffffffffffffffff168173ffffffffffffffffffffffffffffffffffffffff1603610081575f6040517f1e4fbdf70000000000000000000000000000000000000000000000000000000081526004016100789190610201565b60405180910390fd5b6100908161010160201b60201c565b5073b0525542e3d818460546332e76e511562dff9b0773ffffffffffffffffffffffffffffffffffffffff1660808173ffffffffffffffffffffffffffffffffffffffff16815250506100fc739eb566cc59e3e9d42209dd2d832740a6a74f5f2361010160201b60201c565b61021a565b5f5f5f9054906101000a900473ffffffffffffffffffffffffffffffffffffffff169050815f5f6101000a81548173ffffffffffffffffffffffffffffffffffffffff021916908373ffffffffffffffffffffffffffffffffffffffff1602179055508173ffffffffffffffffffffffffffffffffffffffff168173ffffffffffffffffffffffffffffffffffffffff167f8be0079c531659141344cd1fd0a4f28419497f9722a3daafe3b4186f6b6457e060405160405180910390a35050565b5f73ffffffffffffffffffffffffffffffffffffffff82169050919050565b5f6101eb826101c2565b9050919050565b6101fb816101e1565b82525050565b5f6020820190506102145f8301846101f2565b92915050565b60805161164761024e5f395f81816101d9015281816104b20152818161058c015281816106c901526107d101526116475ff3fe608060405234801561000f575f5ffd5b506004361061009c575f3560e01c80638455d8d5116100645780638455d8d51461011e5780638da5cb5b1461013c5780639c6b85bb1461015a578063b77cf9c61461018a578063f2fde38b146101ba5761009c565b80632fba2c85146100a057806338926b6d146100be57806350baa622146100da5780635b7633d0146100f6578063715018a614610114575b5f5ffd5b6100a86101d6565b6040516100b59190610d83565b60405180910390f35b6100d860048036038101906100d39190610e2f565b610274565b005b6100f460048036038101906100ef9190610e8c565b6106bf565b005b6100fe6107a4565b60405161010b9190610ef6565b60405180910390f35b61011c6107bc565b005b6101266107cf565b6040516101339190610f6a565b60405180910390f35b6101446107f3565b6040516101519190610ef6565b60405180910390f35b610174600480360381019061016f9190610fad565b61081a565b6040516101819190610ff2565b60405180910390f35b6101a4600480360381019061019f9190610fad565b610888565b6040516101b19190610d83565b60405180910390f35b6101d460048036038101906101cf9190610fad565b61089d565b005b5f7f000000000000000000000000000000000000000000000000000000000000000073ffffffffffffffffffffffffffffffffffffffff166370a08231306040518263ffffffff1660e01b81526004016102309190610ef6565b602060405180830381865afa15801561024b573d5f5f3e3d5ffd5b505050506040513d601f19601f8201168201806040525081019061026f919061101f565b905090565b5f83116102b6576040517f08c379a00000000000000000000000000000000000000000000000000000000081526004016102ad906110a4565b60405180910390fd5b6105dc8311156102fb576040517f08c379a00000000000000000000000000000000000000000000000000000000081526004016102f29061110c565b60405180910390fd5b6103043361081a565b610343576040517f08c379a000000000000000000000000000000000000000000000000000000000815260040161033a9061119a565b60405180910390fd5b5f338460405160200161035792919061121d565b6040516020818303038152906040528051906020012090505f61037982610921565b90505f6103d285858080601f0160208091040260200160405190810160405280939291908181526020018383808284375f81840152601f19601f820116905080830192505050505050508361095490919063ffffffff16565b905073b6edacfc0dfc759e9ac5b9b8b6eb32310ac1bb4973ffffffffffffffffffffffffffffffffffffffff168173ffffffffffffffffffffffffffffffffffffffff1614610456576040517f08c379a000000000000000000000000000000000000000000000000000000000815260040161044d90611292565b60405180910390fd5b4260015f3373ffffffffffffffffffffffffffffffffffffffff1673ffffffffffffffffffffffffffffffffffffffff1681526020019081526020015f20819055505f670de0b6b3a7640000876104ad91906112dd565b9050807f000000000000000000000000000000000000000000000000000000000000000073ffffffffffffffffffffffffffffffffffffffff166370a08231306040518263ffffffff1660e01b81526004016105099190610ef6565b602060405180830381865afa158015610524573d5f5f3e3d5ffd5b505050506040513d601f19601f82011682018060405250810190610548919061101f565b1015610589576040517f08c379a00000000000000000000000000000000000000000000000000000000081526004016105809061138e565b60405180910390fd5b5f7f000000000000000000000000000000000000000000000000000000000000000073ffffffffffffffffffffffffffffffffffffffff1663a9059cbb33846040518363ffffffff1660e01b81526004016105e59291906113ac565b6020604051808303815f875af1158015610601573d5f5f3e3d5ffd5b505050506040513d601f19601f8201168201806040525081019061062591906113fd565b905080610667576040517f08c379a000000000000000000000000000000000000000000000000000000000815260040161065e90611472565b60405180910390fd5b3373ffffffffffffffffffffffffffffffffffffffff167fd8138f8a3f377c5259ca548e70e4c2de94f129f5a11036a15b69513cba2b426a836040516106ad9190610d83565b60405180910390a25050505050505050565b6106c761097e565b7f000000000000000000000000000000000000000000000000000000000000000073ffffffffffffffffffffffffffffffffffffffff1663a9059cbb33836040518363ffffffff1660e01b81526004016107229291906113ac565b6020604051808303815f875af115801561073e573d5f5f3e3d5ffd5b505050506040513d601f19601f8201168201806040525081019061076291906113fd565b6107a1576040517f08c379a0000000000000000000000000000000000000000000000000000000008152600401610798906114da565b60405180910390fd5b50565b73b6edacfc0dfc759e9ac5b9b8b6eb32310ac1bb4981565b6107c461097e565b6107cd5f610a05565b565b7f000000000000000000000000000000000000000000000000000000000000000081565b5f5f5f9054906101000a900473ffffffffffffffffffffffffffffffffffffffff16905090565b5f5f620151804261082b9190611525565b90505f6201518060015f8673ffffffffffffffffffffffffffffffffffffffff1673ffffffffffffffffffffffffffffffffffffffff1681526020019081526020015f205461087a9190611525565b905080821192505050919050565b6001602052805f5260405f205f915090505481565b6108a561097e565b5f73ffffffffffffffffffffffffffffffffffffffff168173ffffffffffffffffffffffffffffffffffffffff1603610915575f6040517f1e4fbdf700000000000000000000000000000000000000000000000000000000815260040161090c9190610ef6565b60405180910390fd5b61091e81610a05565b50565b5f7f19457468657265756d205369676e6564204d6573736167653a0a3332000000005f5281601c52603c5f209050919050565b5f5f5f5f6109628686610ac6565b9250925092506109728282610b1b565b82935050505092915050565b610986610c7d565b73ffffffffffffffffffffffffffffffffffffffff166109a46107f3565b73ffffffffffffffffffffffffffffffffffffffff1614610a03576109c7610c7d565b6040517f118cdaa70000000000000000000000000000000000000000000000000000000081526004016109fa9190610ef6565b60405180910390fd5b565b5f5f5f9054906101000a900473ffffffffffffffffffffffffffffffffffffffff169050815f5f6101000a81548173ffffffffffffffffffffffffffffffffffffffff021916908373ffffffffffffffffffffffffffffffffffffffff1602179055508173ffffffffffffffffffffffffffffffffffffffff168173ffffffffffffffffffffffffffffffffffffffff167f8be0079c531659141344cd1fd0a4f28419497f9722a3daafe3b4186f6b6457e060405160405180910390a35050565b5f5f5f6041845103610b06575f5f5f602087015192506040870151915060608701515f1a9050610af888828585610c84565b955095509550505050610b14565b5f600285515f1b9250925092505b9250925092565b5f6003811115610b2e57610b2d611555565b5b826003811115610b4157610b40611555565b5b0315610c795760016003811115610b5b57610b5a611555565b5b826003811115610b6e57610b6d611555565b5b03610ba5576040517ff645eedf00000000000000000000000000000000000000000000000000000000815260040160405180910390fd5b60026003811115610bb957610bb8611555565b5b826003811115610bcc57610bcb611555565b5b03610c1057805f1c6040517ffce698f7000000000000000000000000000000000000000000000000000000008152600401610c079190610d83565b60405180910390fd5b600380811115610c2357610c22611555565b5b826003811115610c3657610c35611555565b5b03610c7857806040517fd78bce0c000000000000000000000000000000000000000000000000000000008152600401610c6f919061159a565b60405180910390fd5b5b5050565b5f33905090565b5f5f5f7f7fffffffffffffffffffffffffffffff5d576e7357a4501ddfe92f46681b20a0845f1c1115610cc0575f600385925092509250610d61565b5f6001888888886040515f8152602001604052604051610ce394939291906115ce565b6020604051602081039080840390855afa158015610d03573d5f5f3e3d5ffd5b5050506020604051035190505f73ffffffffffffffffffffffffffffffffffffffff168173ffffffffffffffffffffffffffffffffffffffff1603610d54575f60015f5f1b93509350935050610d61565b805f5f5f1b935093509350505b9450945094915050565b5f819050919050565b610d7d81610d6b565b82525050565b5f602082019050610d965f830184610d74565b92915050565b5f5ffd5b5f5ffd5b610dad81610d6b565b8114610db7575f5ffd5b50565b5f81359050610dc881610da4565b92915050565b5f5ffd5b5f5ffd5b5f5ffd5b5f5f83601f840112610def57610dee610dce565b5b8235905067ffffffffffffffff811115610e0c57610e0b610dd2565b5b602083019150836001820283011115610e2857610e27610dd6565b5b9250929050565b5f5f5f60408486031215610e4657610e45610d9c565b5b5f610e5386828701610dba565b935050602084013567ffffffffffffffff811115610e7457610e73610da0565b5b610e8086828701610dda565b92509250509250925092565b5f60208284031215610ea157610ea0610d9c565b5b5f610eae84828501610dba565b91505092915050565b5f73ffffffffffffffffffffffffffffffffffffffff82169050919050565b5f610ee082610eb7565b9050919050565b610ef081610ed6565b82525050565b5f602082019050610f095f830184610ee7565b92915050565b5f819050919050565b5f610f32610f2d610f2884610eb7565b610f0f565b610eb7565b9050919050565b5f610f4382610f18565b9050919050565b5f610f5482610f39565b9050919050565b610f6481610f4a565b82525050565b5f602082019050610f7d5f830184610f5b565b92915050565b610f8c81610ed6565b8114610f96575f5ffd5b50565b5f81359050610fa781610f83565b92915050565b5f60208284031215610fc257610fc1610d9c565b5b5f610fcf84828501610f99565b91505092915050565b5f8115159050919050565b610fec81610fd8565b82525050565b5f6020820190506110055f830184610fe3565b92915050565b5f8151905061101981610da4565b92915050565b5f6020828403121561103457611033610d9c565b5b5f6110418482850161100b565b91505092915050565b5f82825260208201905092915050565b7f416d6f756e74206d757374206265203e203000000000000000000000000000005f82015250565b5f61108e60128361104a565b91506110998261105a565b602082019050919050565b5f6020820190508181035f8301526110bb81611082565b9050919050565b7f416d6f756e742065786365656473206c696d69742028313530302043484829005f82015250565b5f6110f6601f8361104a565b9150611101826110c2565b602082019050919050565b5f6020820190508181035f830152611123816110ea565b9050919050565b7f416c726561647920636c61696d656420746f64617920287265736574732061745f8201527f2055544320303a30302900000000000000000000000000000000000000000000602082015250565b5f611184602a8361104a565b915061118f8261112a565b604082019050919050565b5f6020820190508181035f8301526111b181611178565b9050919050565b5f8160601b9050919050565b5f6111ce826111b8565b9050919050565b5f6111df826111c4565b9050919050565b6111f76111f282610ed6565b6111d5565b82525050565b5f819050919050565b61121761121282610d6b565b6111fd565b82525050565b5f61122882856111e6565b6014820191506112388284611206565b6020820191508190509392505050565b7f496e76616c6964207369676e61747572650000000000000000000000000000005f82015250565b5f61127c60118361104a565b915061128782611248565b602082019050919050565b5f6020820190508181035f8301526112a981611270565b9050919050565b7f4e487b71000000000000000000000000000000000000000000000000000000005f52601160045260245ffd5b5f6112e782610d6b565b91506112f283610d6b565b925082820261130081610d6b565b91508282048414831517611317576113166112b0565b5b5092915050565b7f436f6e74726163742068617320696e73756666696369656e742062616c616e635f8201527f6500000000000000000000000000000000000000000000000000000000000000602082015250565b5f61137860218361104a565b91506113838261131e565b604082019050919050565b5f6020820190508181035f8301526113a58161136c565b9050919050565b5f6040820190506113bf5f830185610ee7565b6113cc6020830184610d74565b9392505050565b6113dc81610fd8565b81146113e6575f5ffd5b50565b5f815190506113f7816113d3565b92915050565b5f6020828403121561141257611411610d9c565b5b5f61141f848285016113e9565b91505092915050565b7f546f6b656e207472616e73666572206661696c656400000000000000000000005f82015250565b5f61145c60158361104a565b915061146782611428565b602082019050919050565b5f6020820190508181035f83015261148981611450565b9050919050565b7f5472616e73666572206661696c656400000000000000000000000000000000005f82015250565b5f6114c4600f8361104a565b91506114cf82611490565b602082019050919050565b5f6020820190508181035f8301526114f1816114b8565b9050919050565b7f4e487b71000000000000000000000000000000000000000000000000000000005f52601260045260245ffd5b5f61152f82610d6b565b915061153a83610d6b565b92508261154a576115496114f8565b5b828204905092915050565b7f4e487b71000000000000000000000000000000000000000000000000000000005f52602160045260245ffd5b5f819050919050565b61159481611582565b82525050565b5f6020820190506115ad5f83018461158b565b92915050565b5f60ff82169050919050565b6115c8816115b3565b82525050565b5f6080820190506115e15f83018761158b565b6115ee60208301866115bf565b6115fb604083018561158b565b611608606083018461158b565b9594505050505056fea2646970667358221220612432ec6d668a0242df1e97a1398ce1d7c50f44604287c4b629403591e4125264736f6c634300081f0033",
			"opcodes": "PUSH1 0xA0 PUSH1 0x40 MSTORE CALLVALUE DUP1 ISZERO PUSH2 0xF JUMPI PUSH0 PUSH0 REVERT JUMPDEST POP CALLER PUSH0 PUSH20 0xFFFFFFFFFFFFFFFFFFFFFFFFFFFFFFFFFFFFFFFF AND DUP2 PUSH20 0xFFFFFFFFFFFFFFFFFFFFFFFFFFFFFFFFFFFFFFFF AND SUB PUSH2 0x81 JUMPI PUSH0 PUSH1 0x40 MLOAD PUSH32 0x1E4FBDF700000000000000000000000000000000000000000000000000000000 DUP2 MSTORE PUSH1 0x4 ADD PUSH2 0x78 SWAP2 SWAP1 PUSH2 0x201 JUMP JUMPDEST PUSH1 0x40 MLOAD DUP1 SWAP2 SUB SWAP1 REVERT JUMPDEST PUSH2 0x90 DUP2 PUSH2 0x101 PUSH1 0x20 SHL PUSH1 0x20 SHR JUMP JUMPDEST POP PUSH20 0xB0525542E3D818460546332E76E511562DFF9B07 PUSH20 0xFFFFFFFFFFFFFFFFFFFFFFFFFFFFFFFFFFFFFFFF AND PUSH1 0x80 DUP2 PUSH20 0xFFFFFFFFFFFFFFFFFFFFFFFFFFFFFFFFFFFFFFFF AND DUP2 MSTORE POP POP PUSH2 0xFC PUSH20 0x9EB566CC59E3E9D42209DD2D832740A6A74F5F23 PUSH2 0x101 PUSH1 0x20 SHL PUSH1 0x20 SHR JUMP JUMPDEST PUSH2 0x21A JUMP JUMPDEST PUSH0 PUSH0 PUSH0 SWAP1 SLOAD SWAP1 PUSH2 0x100 EXP SWAP1 DIV PUSH20 0xFFFFFFFFFFFFFFFFFFFFFFFFFFFFFFFFFFFFFFFF AND SWAP1 POP DUP2 PUSH0 PUSH0 PUSH2 0x100 EXP DUP2 SLOAD DUP2 PUSH20 0xFFFFFFFFFFFFFFFFFFFFFFFFFFFFFFFFFFFFFFFF MUL NOT AND SWAP1 DUP4 PUSH20 0xFFFFFFFFFFFFFFFFFFFFFFFFFFFFFFFFFFFFFFFF AND MUL OR SWAP1 SSTORE POP DUP2 PUSH20 0xFFFFFFFFFFFFFFFFFFFFFFFFFFFFFFFFFFFFFFFF AND DUP2 PUSH20 0xFFFFFFFFFFFFFFFFFFFFFFFFFFFFFFFFFFFFFFFF AND PUSH32 0x8BE0079C531659141344CD1FD0A4F28419497F9722A3DAAFE3B4186F6B6457E0 PUSH1 0x40 MLOAD PUSH1 0x40 MLOAD DUP1 SWAP2 SUB SWAP1 LOG3 POP POP JUMP JUMPDEST PUSH0 PUSH20 0xFFFFFFFFFFFFFFFFFFFFFFFFFFFFFFFFFFFFFFFF DUP3 AND SWAP1 POP SWAP2 SWAP1 POP JUMP JUMPDEST PUSH0 PUSH2 0x1EB DUP3 PUSH2 0x1C2 JUMP JUMPDEST SWAP1 POP SWAP2 SWAP1 POP JUMP JUMPDEST PUSH2 0x1FB DUP2 PUSH2 0x1E1 JUMP JUMPDEST DUP3 MSTORE POP POP JUMP JUMPDEST PUSH0 PUSH1 0x20 DUP3 ADD SWAP1 POP PUSH2 0x214 PUSH0 DUP4 ADD DUP5 PUSH2 0x1F2 JUMP JUMPDEST SWAP3 SWAP2 POP POP JUMP JUMPDEST PUSH1 0x80 MLOAD PUSH2 0x1647 PUSH2 0x24E PUSH0 CODECOPY PUSH0 DUP2 DUP2 PUSH2 0x1D9 ADD MSTORE DUP2 DUP2 PUSH2 0x4B2 ADD MSTORE DUP2 DUP2 PUSH2 0x58C ADD MSTORE DUP2 DUP2 PUSH2 0x6C9 ADD MSTORE PUSH2 0x7D1 ADD MSTORE PUSH2 0x1647 PUSH0 RETURN INVALID PUSH1 0x80 PUSH1 0x40 MSTORE CALLVALUE DUP1 ISZERO PUSH2 0xF JUMPI PUSH0 PUSH0 REVERT JUMPDEST POP PUSH1 0x4 CALLDATASIZE LT PUSH2 0x9C JUMPI PUSH0 CALLDATALOAD PUSH1 0xE0 SHR DUP1 PUSH4 0x8455D8D5 GT PUSH2 0x64 JUMPI DUP1 PUSH4 0x8455D8D5 EQ PUSH2 0x11E JUMPI DUP1 PUSH4 0x8DA5CB5B EQ PUSH2 0x13C JUMPI DUP1 PUSH4 0x9C6B85BB EQ PUSH2 0x15A JUMPI DUP1 PUSH4 0xB77CF9C6 EQ PUSH2 0x18A JUMPI DUP1 PUSH4 0xF2FDE38B EQ PUSH2 0x1BA JUMPI PUSH2 0x9C JUMP JUMPDEST DUP1 PUSH4 0x2FBA2C85 EQ PUSH2 0xA0 JUMPI DUP1 PUSH4 0x38926B6D EQ PUSH2 0xBE JUMPI DUP1 PUSH4 0x50BAA622 EQ PUSH2 0xDA JUMPI DUP1 PUSH4 0x5B7633D0 EQ PUSH2 0xF6 JUMPI DUP1 PUSH4 0x715018A6 EQ PUSH2 0x114 JUMPI JUMPDEST PUSH0 PUSH0 REVERT JUMPDEST PUSH2 0xA8 PUSH2 0x1D6 JUMP JUMPDEST PUSH1 0x40 MLOAD PUSH2 0xB5 SWAP2 SWAP1 PUSH2 0xD83 JUMP JUMPDEST PUSH1 0x40 MLOAD DUP1 SWAP2 SUB SWAP1 RETURN JUMPDEST PUSH2 0xD8 PUSH1 0x4 DUP1 CALLDATASIZE SUB DUP2 ADD SWAP1 PUSH2 0xD3 SWAP2 SWAP1 PUSH2 0xE2F JUMP JUMPDEST PUSH2 0x274 JUMP JUMPDEST STOP JUMPDEST PUSH2 0xF4 PUSH1 0x4 DUP1 CALLDATASIZE SUB DUP2 ADD SWAP1 PUSH2 0xEF SWAP2 SWAP1 PUSH2 0xE8C JUMP JUMPDEST PUSH2 0x6BF JUMP JUMPDEST STOP JUMPDEST PUSH2 0xFE PUSH2 0x7A4 JUMP JUMPDEST PUSH1 0x40 MLOAD PUSH2 0x10B SWAP2 SWAP1 PUSH2 0xEF6 JUMP JUMPDEST PUSH1 0x40 MLOAD DUP1 SWAP2 SUB SWAP1 RETURN JUMPDEST PUSH2 0x11C PUSH2 0x7BC JUMP JUMPDEST STOP JUMPDEST PUSH2 0x126 PUSH2 0x7CF JUMP JUMPDEST PUSH1 0x40 MLOAD PUSH2 0x133 SWAP2 SWAP1 PUSH2 0xF6A JUMP JUMPDEST PUSH1 0x40 MLOAD DUP1 SWAP2 SUB SWAP1 RETURN JUMPDEST PUSH2 0x144 PUSH2 0x7F3 JUMP JUMPDEST PUSH1 0x40 MLOAD PUSH2 0x151 SWAP2 SWAP1 PUSH2 0xEF6 JUMP JUMPDEST PUSH1 0x40 MLOAD DUP1 SWAP2 SUB SWAP1 RETURN JUMPDEST PUSH2 0x174 PUSH1 0x4 DUP1 CALLDATASIZE SUB DUP2 ADD SWAP1 PUSH2 0x16F SWAP2 SWAP1 PUSH2 0xFAD JUMP JUMPDEST PUSH2 0x81A JUMP JUMPDEST PUSH1 0x40 MLOAD PUSH2 0x181 SWAP2 SWAP1 PUSH2 0xFF2 JUMP JUMPDEST PUSH1 0x40 MLOAD DUP1 SWAP2 SUB SWAP1 RETURN JUMPDEST PUSH2 0x1A4 PUSH1 0x4 DUP1 CALLDATASIZE SUB DUP2 ADD SWAP1 PUSH2 0x19F SWAP2 SWAP1 PUSH2 0xFAD JUMP JUMPDEST PUSH2 0x888 JUMP JUMPDEST PUSH1 0x40 MLOAD PUSH2 0x1B1 SWAP2 SWAP1 PUSH2 0xD83 JUMP JUMPDEST PUSH1 0x40 MLOAD DUP1 SWAP2 SUB SWAP1 RETURN JUMPDEST PUSH2 0x1D4 PUSH1 0x4 DUP1 CALLDATASIZE SUB DUP2 ADD SWAP1 PUSH2 0x1CF SWAP2 SWAP1 PUSH2 0xFAD JUMP JUMPDEST PUSH2 0x89D JUMP JUMPDEST STOP JUMPDEST PUSH0 PUSH32 0x0 PUSH20 0xFFFFFFFFFFFFFFFFFFFFFFFFFFFFFFFFFFFFFFFF AND PUSH4 0x70A08231 ADDRESS PUSH1 0x40 MLOAD DUP3 PUSH4 0xFFFFFFFF AND PUSH1 0xE0 SHL DUP2 MSTORE PUSH1 0x4 ADD PUSH2 0x230 SWAP2 SWAP1 PUSH2 0xEF6 JUMP JUMPDEST PUSH1 0x20 PUSH1 0x40 MLOAD DUP1 DUP4 SUB DUP2 DUP7 GAS STATICCALL ISZERO DUP1 ISZERO PUSH2 0x24B JUMPI RETURNDATASIZE PUSH0 PUSH0 RETURNDATACOPY RETURNDATASIZE PUSH0 REVERT JUMPDEST POP POP POP POP PUSH1 0x40 MLOAD RETURNDATASIZE PUSH1 0x1F NOT PUSH1 0x1F DUP3 ADD AND DUP3 ADD DUP1 PUSH1 0x40 MSTORE POP DUP2 ADD SWAP1 PUSH2 0x26F SWAP2 SWAP1 PUSH2 0x101F JUMP JUMPDEST SWAP1 POP SWAP1 JUMP JUMPDEST PUSH0 DUP4 GT PUSH2 0x2B6 JUMPI PUSH1 0x40 MLOAD PUSH32 0x8C379A000000000000000000000000000000000000000000000000000000000 DUP2 MSTORE PUSH1 0x4 ADD PUSH2 0x2AD SWAP1 PUSH2 0x10A4 JUMP JUMPDEST PUSH1 0x40 MLOAD DUP1 SWAP2 SUB SWAP1 REVERT JUMPDEST PUSH2 0x5DC DUP4 GT ISZERO PUSH2 0x2FB JUMPI PUSH1 0x40 MLOAD PUSH32 0x8C379A000000000000000000000000000000000000000000000000000000000 DUP2 MSTORE PUSH1 0x4 ADD PUSH2 0x2F2 SWAP1 PUSH2 0x110C JUMP JUMPDEST PUSH1 0x40 MLOAD DUP1 SWAP2 SUB SWAP1 REVERT JUMPDEST PUSH2 0x304 CALLER PUSH2 0x81A JUMP JUMPDEST PUSH2 0x343 JUMPI PUSH1 0x40 MLOAD PUSH32 0x8C379A000000000000000000000000000000000000000000000000000000000 DUP2 MSTORE PUSH1 0x4 ADD PUSH2 0x33A SWAP1 PUSH2 0x119A JUMP JUMPDEST PUSH1 0x40 MLOAD DUP1 SWAP2 SUB SWAP1 REVERT JUMPDEST PUSH0 CALLER DUP5 PUSH1 0x40 MLOAD PUSH1 0x20 ADD PUSH2 0x357 SWAP3 SWAP2 SWAP1 PUSH2 0x121D JUMP JUMPDEST PUSH1 0x40 MLOAD PUSH1 0x20 DUP2 DUP4 SUB SUB DUP2 MSTORE SWAP1 PUSH1 0x40 MSTORE DUP1 MLOAD SWAP1 PUSH1 0x20 ADD KECCAK256 SWAP1 POP PUSH0 PUSH2 0x379 DUP3 PUSH2 0x921 JUMP JUMPDEST SWAP1 POP PUSH0 PUSH2 0x3D2 DUP6 DUP6 DUP1 DUP1 PUSH1 0x1F ADD PUSH1 0x20 DUP1 SWAP2 DIV MUL PUSH1 0x20 ADD PUSH1 0x40 MLOAD SWAP1 DUP2 ADD PUSH1 0x40 MSTORE DUP1 SWAP4 SWAP3 SWAP2 SWAP1 DUP2 DUP2 MSTORE PUSH1 0x20 ADD DUP4 DUP4 DUP1 DUP3 DUP5 CALLDATACOPY PUSH0 DUP2 DUP5 ADD MSTORE PUSH1 0x1F NOT PUSH1 0x1F DUP3 ADD AND SWAP1 POP DUP1 DUP4 ADD SWAP3 POP POP POP POP POP POP POP DUP4 PUSH2 0x954 SWAP1 SWAP2 SWAP1 PUSH4 0xFFFFFFFF AND JUMP JUMPDEST SWAP1 POP PUSH20 0xB6EDACFC0DFC759E9AC5B9B8B6EB32310AC1BB49 PUSH20 0xFFFFFFFFFFFFFFFFFFFFFFFFFFFFFFFFFFFFFFFF AND DUP2 PUSH20 0xFFFFFFFFFFFFFFFFFFFFFFFFFFFFFFFFFFFFFFFF AND EQ PUSH2 0x456 JUMPI PUSH1 0x40 MLOAD PUSH32 0x8C379A000000000000000000000000000000000000000000000000000000000 DUP2 MSTORE PUSH1 0x4 ADD PUSH2 0x44D SWAP1 PUSH2 0x1292 JUMP JUMPDEST PUSH1 0x40 MLOAD DUP1 SWAP2 SUB SWAP1 REVERT JUMPDEST TIMESTAMP PUSH1 0x1 PUSH0 CALLER PUSH20 0xFFFFFFFFFFFFFFFFFFFFFFFFFFFFFFFFFFFFFFFF AND PUSH20 0xFFFFFFFFFFFFFFFFFFFFFFFFFFFFFFFFFFFFFFFF AND DUP2 MSTORE PUSH1 0x20 ADD SWAP1 DUP2 MSTORE PUSH1 0x20 ADD PUSH0 KECCAK256 DUP2 SWAP1 SSTORE POP PUSH0 PUSH8 0xDE0B6B3A7640000 DUP8 PUSH2 0x4AD SWAP2 SWAP1 PUSH2 0x12DD JUMP JUMPDEST SWAP1 POP DUP1 PUSH32 0x0 PUSH20 0xFFFFFFFFFFFFFFFFFFFFFFFFFFFFFFFFFFFFFFFF AND PUSH4 0x70A08231 ADDRESS PUSH1 0x40 MLOAD DUP3 PUSH4 0xFFFFFFFF AND PUSH1 0xE0 SHL DUP2 MSTORE PUSH1 0x4 ADD PUSH2 0x509 SWAP2 SWAP1 PUSH2 0xEF6 JUMP JUMPDEST PUSH1 0x20 PUSH1 0x40 MLOAD DUP1 DUP4 SUB DUP2 DUP7 GAS STATICCALL ISZERO DUP1 ISZERO PUSH2 0x524 JUMPI RETURNDATASIZE PUSH0 PUSH0 RETURNDATACOPY RETURNDATASIZE PUSH0 REVERT JUMPDEST POP POP POP POP PUSH1 0x40 MLOAD RETURNDATASIZE PUSH1 0x1F NOT PUSH1 0x1F DUP3 ADD AND DUP3 ADD DUP1 PUSH1 0x40 MSTORE POP DUP2 ADD SWAP1 PUSH2 0x548 SWAP2 SWAP1 PUSH2 0x101F JUMP JUMPDEST LT ISZERO PUSH2 0x589 JUMPI PUSH1 0x40 MLOAD PUSH32 0x8C379A000000000000000000000000000000000000000000000000000000000 DUP2 MSTORE PUSH1 0x4 ADD PUSH2 0x580 SWAP1 PUSH2 0x138E JUMP JUMPDEST PUSH1 0x40 MLOAD DUP1 SWAP2 SUB SWAP1 REVERT JUMPDEST PUSH0 PUSH32 0x0 PUSH20 0xFFFFFFFFFFFFFFFFFFFFFFFFFFFFFFFFFFFFFFFF AND PUSH4 0xA9059CBB CALLER DUP5 PUSH1 0x40 MLOAD DUP4 PUSH4 0xFFFFFFFF AND PUSH1 0xE0 SHL DUP2 MSTORE PUSH1 0x4 ADD PUSH2 0x5E5 SWAP3 SWAP2 SWAP1 PUSH2 0x13AC JUMP JUMPDEST PUSH1 0x20 PUSH1 0x40 MLOAD DUP1 DUP4 SUB DUP2 PUSH0 DUP8 GAS CALL ISZERO DUP1 ISZERO PUSH2 0x601 JUMPI RETURNDATASIZE PUSH0 PUSH0 RETURNDATACOPY RETURNDATASIZE PUSH0 REVERT JUMPDEST POP POP POP POP PUSH1 0x40 MLOAD RETURNDATASIZE PUSH1 0x1F NOT PUSH1 0x1F DUP3 ADD AND DUP3 ADD DUP1 PUSH1 0x40 MSTORE POP DUP2 ADD SWAP1 PUSH2 0x625 SWAP2 SWAP1 PUSH2 0x13FD JUMP JUMPDEST SWAP1 POP DUP1 PUSH2 0x667 JUMPI PUSH1 0x40 MLOAD PUSH32 0x8C379A000000000000000000000000000000000000000000000000000000000 DUP2 MSTORE PUSH1 0x4 ADD PUSH2 0x65E SWAP1 PUSH2 0x1472 JUMP JUMPDEST PUSH1 0x40 MLOAD DUP1 SWAP2 SUB SWAP1 REVERT JUMPDEST CALLER PUSH20 0xFFFFFFFFFFFFFFFFFFFFFFFFFFFFFFFFFFFFFFFF AND PUSH32 0xD8138F8A3F377C5259CA548E70E4C2DE94F129F5A11036A15B69513CBA2B426A DUP4 PUSH1 0x40 MLOAD PUSH2 0x6AD SWAP2 SWAP1 PUSH2 0xD83 JUMP JUMPDEST PUSH1 0x40 MLOAD DUP1 SWAP2 SUB SWAP1 LOG2 POP POP POP POP POP POP POP POP JUMP JUMPDEST PUSH2 0x6C7 PUSH2 0x97E JUMP JUMPDEST PUSH32 0x0 PUSH20 0xFFFFFFFFFFFFFFFFFFFFFFFFFFFFFFFFFFFFFFFF AND PUSH4 0xA9059CBB CALLER DUP4 PUSH1 0x40 MLOAD DUP4 PUSH4 0xFFFFFFFF AND PUSH1 0xE0 SHL DUP2 MSTORE PUSH1 0x4 ADD PUSH2 0x722 SWAP3 SWAP2 SWAP1 PUSH2 0x13AC JUMP JUMPDEST PUSH1 0x20 PUSH1 0x40 MLOAD DUP1 DUP4 SUB DUP2 PUSH0 DUP8 GAS CALL ISZERO DUP1 ISZERO PUSH2 0x73E JUMPI RETURNDATASIZE PUSH0 PUSH0 RETURNDATACOPY RETURNDATASIZE PUSH0 REVERT JUMPDEST POP POP POP POP PUSH1 0x40 MLOAD RETURNDATASIZE PUSH1 0x1F NOT PUSH1 0x1F DUP3 ADD AND DUP3 ADD DUP1 PUSH1 0x40 MSTORE POP DUP2 ADD SWAP1 PUSH2 0x762 SWAP2 SWAP1 PUSH2 0x13FD JUMP JUMPDEST PUSH2 0x7A1 JUMPI PUSH1 0x40 MLOAD PUSH32 0x8C379A000000000000000000000000000000000000000000000000000000000 DUP2 MSTORE PUSH1 0x4 ADD PUSH2 0x798 SWAP1 PUSH2 0x14DA JUMP JUMPDEST PUSH1 0x40 MLOAD DUP1 SWAP2 SUB SWAP1 REVERT JUMPDEST POP JUMP JUMPDEST PUSH20 0xB6EDACFC0DFC759E9AC5B9B8B6EB32310AC1BB49 DUP2 JUMP JUMPDEST PUSH2 0x7C4 PUSH2 0x97E JUMP JUMPDEST PUSH2 0x7CD PUSH0 PUSH2 0xA05 JUMP JUMPDEST JUMP JUMPDEST PUSH32 0x0 DUP2 JUMP JUMPDEST PUSH0 PUSH0 PUSH0 SWAP1 SLOAD SWAP1 PUSH2 0x100 EXP SWAP1 DIV PUSH20 0xFFFFFFFFFFFFFFFFFFFFFFFFFFFFFFFFFFFFFFFF AND SWAP1 POP SWAP1 JUMP JUMPDEST PUSH0 PUSH0 PUSH3 0x15180 TIMESTAMP PUSH2 0x82B SWAP2 SWAP1 PUSH2 0x1525 JUMP JUMPDEST SWAP1 POP PUSH0 PUSH3 0x15180 PUSH1 0x1 PUSH0 DUP7 PUSH20 0xFFFFFFFFFFFFFFFFFFFFFFFFFFFFFFFFFFFFFFFF AND PUSH20 0xFFFFFFFFFFFFFFFFFFFFFFFFFFFFFFFFFFFFFFFF AND DUP2 MSTORE PUSH1 0x20 ADD SWAP1 DUP2 MSTORE PUSH1 0x20 ADD PUSH0 KECCAK256 SLOAD PUSH2 0x87A SWAP2 SWAP1 PUSH2 0x1525 JUMP JUMPDEST SWAP1 POP DUP1 DUP3 GT SWAP3 POP POP POP SWAP2 SWAP1 POP JUMP JUMPDEST PUSH1 0x1 PUSH1 0x20 MSTORE DUP1 PUSH0 MSTORE PUSH1 0x40 PUSH0 KECCAK256 PUSH0 SWAP2 POP SWAP1 POP SLOAD DUP2 JUMP JUMPDEST PUSH2 0x8A5 PUSH2 0x97E JUMP JUMPDEST PUSH0 PUSH20 0xFFFFFFFFFFFFFFFFFFFFFFFFFFFFFFFFFFFFFFFF AND DUP2 PUSH20 0xFFFFFFFFFFFFFFFFFFFFFFFFFFFFFFFFFFFFFFFF AND SUB PUSH2 0x915 JUMPI PUSH0 PUSH1 0x40 MLOAD PUSH32 0x1E4FBDF700000000000000000000000000000000000000000000000000000000 DUP2 MSTORE PUSH1 0x4 ADD PUSH2 0x90C SWAP2 SWAP1 PUSH2 0xEF6 JUMP JUMPDEST PUSH1 0x40 MLOAD DUP1 SWAP2 SUB SWAP1 REVERT JUMPDEST PUSH2 0x91E DUP2 PUSH2 0xA05 JUMP JUMPDEST POP JUMP JUMPDEST PUSH0 PUSH32 0x19457468657265756D205369676E6564204D6573736167653A0A333200000000 PUSH0 MSTORE DUP2 PUSH1 0x1C MSTORE PUSH1 0x3C PUSH0 KECCAK256 SWAP1 POP SWAP2 SWAP1 POP JUMP JUMPDEST PUSH0 PUSH0 PUSH0 PUSH0 PUSH2 0x962 DUP7 DUP7 PUSH2 0xAC6 JUMP JUMPDEST SWAP3 POP SWAP3 POP SWAP3 POP PUSH2 0x972 DUP3 DUP3 PUSH2 0xB1B JUMP JUMPDEST DUP3 SWAP4 POP POP POP POP SWAP3 SWAP2 POP POP JUMP JUMPDEST PUSH2 0x986 PUSH2 0xC7D JUMP JUMPDEST PUSH20 0xFFFFFFFFFFFFFFFFFFFFFFFFFFFFFFFFFFFFFFFF AND PUSH2 0x9A4 PUSH2 0x7F3 JUMP JUMPDEST PUSH20 0xFFFFFFFFFFFFFFFFFFFFFFFFFFFFFFFFFFFFFFFF AND EQ PUSH2 0xA03 JUMPI PUSH2 0x9C7 PUSH2 0xC7D JUMP JUMPDEST PUSH1 0x40 MLOAD PUSH32 0x118CDAA700000000000000000000000000000000000000000000000000000000 DUP2 MSTORE PUSH1 0x4 ADD PUSH2 0x9FA SWAP2 SWAP1 PUSH2 0xEF6 JUMP JUMPDEST PUSH1 0x40 MLOAD DUP1 SWAP2 SUB SWAP1 REVERT JUMPDEST JUMP JUMPDEST PUSH0 PUSH0 PUSH0 SWAP1 SLOAD SWAP1 PUSH2 0x100 EXP SWAP1 DIV PUSH20 0xFFFFFFFFFFFFFFFFFFFFFFFFFFFFFFFFFFFFFFFF AND SWAP1 POP DUP2 PUSH0 PUSH0 PUSH2 0x100 EXP DUP2 SLOAD DUP2 PUSH20 0xFFFFFFFFFFFFFFFFFFFFFFFFFFFFFFFFFFFFFFFF MUL NOT AND SWAP1 DUP4 PUSH20 0xFFFFFFFFFFFFFFFFFFFFFFFFFFFFFFFFFFFFFFFF AND MUL OR SWAP1 SSTORE POP DUP2 PUSH20 0xFFFFFFFFFFFFFFFFFFFFFFFFFFFFFFFFFFFFFFFF AND DUP2 PUSH20 0xFFFFFFFFFFFFFFFFFFFFFFFFFFFFFFFFFFFFFFFF AND PUSH32 0x8BE0079C531659141344CD1FD0A4F28419497F9722A3DAAFE3B4186F6B6457E0 PUSH1 0x40 MLOAD PUSH1 0x40 MLOAD DUP1 SWAP2 SUB SWAP1 LOG3 POP POP JUMP JUMPDEST PUSH0 PUSH0 PUSH0 PUSH1 0x41 DUP5 MLOAD SUB PUSH2 0xB06 JUMPI PUSH0 PUSH0 PUSH0 PUSH1 0x20 DUP8 ADD MLOAD SWAP3 POP PUSH1 0x40 DUP8 ADD MLOAD SWAP2 POP PUSH1 0x60 DUP8 ADD MLOAD PUSH0 BYTE SWAP1 POP PUSH2 0xAF8 DUP9 DUP3 DUP6 DUP6 PUSH2 0xC84 JUMP JUMPDEST SWAP6 POP SWAP6 POP SWAP6 POP POP POP POP PUSH2 0xB14 JUMP JUMPDEST PUSH0 PUSH1 0x2 DUP6 MLOAD PUSH0 SHL SWAP3 POP SWAP3 POP SWAP3 POP JUMPDEST SWAP3 POP SWAP3 POP SWAP3 JUMP JUMPDEST PUSH0 PUSH1 0x3 DUP2 GT ISZERO PUSH2 0xB2E JUMPI PUSH2 0xB2D PUSH2 0x1555 JUMP JUMPDEST JUMPDEST DUP3 PUSH1 0x3 DUP2 GT ISZERO PUSH2 0xB41 JUMPI PUSH2 0xB40 PUSH2 0x1555 JUMP JUMPDEST JUMPDEST SUB ISZERO PUSH2 0xC79 JUMPI PUSH1 0x1 PUSH1 0x3 DUP2 GT ISZERO PUSH2 0xB5B JUMPI PUSH2 0xB5A PUSH2 0x1555 JUMP JUMPDEST JUMPDEST DUP3 PUSH1 0x3 DUP2 GT ISZERO PUSH2 0xB6E JUMPI PUSH2 0xB6D PUSH2 0x1555 JUMP JUMPDEST JUMPDEST SUB PUSH2 0xBA5 JUMPI PUSH1 0x40 MLOAD PUSH32 0xF645EEDF00000000000000000000000000000000000000000000000000000000 DUP2 MSTORE PUSH1 0x4 ADD PUSH1 0x40 MLOAD DUP1 SWAP2 SUB SWAP1 REVERT JUMPDEST PUSH1 0x2 PUSH1 0x3 DUP2 GT ISZERO PUSH2 0xBB9 JUMPI PUSH2 0xBB8 PUSH2 0x1555 JUMP JUMPDEST JUMPDEST DUP3 PUSH1 0x3 DUP2 GT ISZERO PUSH2 0xBCC JUMPI PUSH2 0xBCB PUSH2 0x1555 JUMP JUMPDEST JUMPDEST SUB PUSH2 0xC10 JUMPI DUP1 PUSH0 SHR PUSH1 0x40 MLOAD PUSH32 0xFCE698F700000000000000000000000000000000000000000000000000000000 DUP2 MSTORE PUSH1 0x4 ADD PUSH2 0xC07 SWAP2 SWAP1 PUSH2 0xD83 JUMP JUMPDEST PUSH1 0x40 MLOAD DUP1 SWAP2 SUB SWAP1 REVERT JUMPDEST PUSH1 0x3 DUP1 DUP2 GT ISZERO PUSH2 0xC23 JUMPI PUSH2 0xC22 PUSH2 0x1555 JUMP JUMPDEST JUMPDEST DUP3 PUSH1 0x3 DUP2 GT ISZERO PUSH2 0xC36 JUMPI PUSH2 0xC35 PUSH2 0x1555 JUMP JUMPDEST JUMPDEST SUB PUSH2 0xC78 JUMPI DUP1 PUSH1 0x40 MLOAD PUSH32 0xD78BCE0C00000000000000000000000000000000000000000000000000000000 DUP2 MSTORE PUSH1 0x4 ADD PUSH2 0xC6F SWAP2 SWAP1 PUSH2 0x159A JUMP JUMPDEST PUSH1 0x40 MLOAD DUP1 SWAP2 SUB SWAP1 REVERT JUMPDEST JUMPDEST POP POP JUMP JUMPDEST PUSH0 CALLER SWAP1 POP SWAP1 JUMP JUMPDEST PUSH0 PUSH0 PUSH0 PUSH32 0x7FFFFFFFFFFFFFFFFFFFFFFFFFFFFFFF5D576E7357A4501DDFE92F46681B20A0 DUP5 PUSH0 SHR GT ISZERO PUSH2 0xCC0 JUMPI PUSH0 PUSH1 0x3 DUP6 SWAP3 POP SWAP3 POP SWAP3 POP PUSH2 0xD61 JUMP JUMPDEST PUSH0 PUSH1 0x1 DUP9 DUP9 DUP9 DUP9 PUSH1 0x40 MLOAD PUSH0 DUP2 MSTORE PUSH1 0x20 ADD PUSH1 0x40 MSTORE PUSH1 0x40 MLOAD PUSH2 0xCE3 SWAP5 SWAP4 SWAP3 SWAP2 SWAP1 PUSH2 0x15CE JUMP JUMPDEST PUSH1 0x20 PUSH1 0x40 MLOAD PUSH1 0x20 DUP2 SUB SWAP1 DUP1 DUP5 SUB SWAP1 DUP6 GAS STATICCALL ISZERO DUP1 ISZERO PUSH2 0xD03 JUMPI RETURNDATASIZE PUSH0 PUSH0 RETURNDATACOPY RETURNDATASIZE PUSH0 REVERT JUMPDEST POP POP POP PUSH1 0x20 PUSH1 0x40 MLOAD SUB MLOAD SWAP1 POP PUSH0 PUSH20 0xFFFFFFFFFFFFFFFFFFFFFFFFFFFFFFFFFFFFFFFF AND DUP2 PUSH20 0xFFFFFFFFFFFFFFFFFFFFFFFFFFFFFFFFFFFFFFFF AND SUB PUSH2 0xD54 JUMPI PUSH0 PUSH1 0x1 PUSH0 PUSH0 SHL SWAP4 POP SWAP4 POP SWAP4 POP POP PUSH2 0xD61 JUMP JUMPDEST DUP1 PUSH0 PUSH0 PUSH0 SHL SWAP4 POP SWAP4 POP SWAP4 POP POP JUMPDEST SWAP5 POP SWAP5 POP SWAP5 SWAP2 POP POP JUMP JUMPDEST PUSH0 DUP2 SWAP1 POP SWAP2 SWAP1 POP JUMP JUMPDEST PUSH2 0xD7D DUP2 PUSH2 0xD6B JUMP JUMPDEST DUP3 MSTORE POP POP JUMP JUMPDEST PUSH0 PUSH1 0x20 DUP3 ADD SWAP1 POP PUSH2 0xD96 PUSH0 DUP4 ADD DUP5 PUSH2 0xD74 JUMP JUMPDEST SWAP3 SWAP2 POP POP JUMP JUMPDEST PUSH0 PUSH0 REVERT JUMPDEST PUSH0 PUSH0 REVERT JUMPDEST PUSH2 0xDAD DUP2 PUSH2 0xD6B JUMP JUMPDEST DUP2 EQ PUSH2 0xDB7 JUMPI PUSH0 PUSH0 REVERT JUMPDEST POP JUMP JUMPDEST PUSH0 DUP2 CALLDATALOAD SWAP1 POP PUSH2 0xDC8 DUP2 PUSH2 0xDA4 JUMP JUMPDEST SWAP3 SWAP2 POP POP JUMP JUMPDEST PUSH0 PUSH0 REVERT JUMPDEST PUSH0 PUSH0 REVERT JUMPDEST PUSH0 PUSH0 REVERT JUMPDEST PUSH0 PUSH0 DUP4 PUSH1 0x1F DUP5 ADD SLT PUSH2 0xDEF JUMPI PUSH2 0xDEE PUSH2 0xDCE JUMP JUMPDEST JUMPDEST DUP3 CALLDATALOAD SWAP1 POP PUSH8 0xFFFFFFFFFFFFFFFF DUP2 GT ISZERO PUSH2 0xE0C JUMPI PUSH2 0xE0B PUSH2 0xDD2 JUMP JUMPDEST JUMPDEST PUSH1 0x20 DUP4 ADD SWAP2 POP DUP4 PUSH1 0x1 DUP3 MUL DUP4 ADD GT ISZERO PUSH2 0xE28 JUMPI PUSH2 0xE27 PUSH2 0xDD6 JUMP JUMPDEST JUMPDEST SWAP3 POP SWAP3 SWAP1 POP JUMP JUMPDEST PUSH0 PUSH0 PUSH0 PUSH1 0x40 DUP5 DUP7 SUB SLT ISZERO PUSH2 0xE46 JUMPI PUSH2 0xE45 PUSH2 0xD9C JUMP JUMPDEST JUMPDEST PUSH0 PUSH2 0xE53 DUP7 DUP3 DUP8 ADD PUSH2 0xDBA JUMP JUMPDEST SWAP4 POP POP PUSH1 0x20 DUP5 ADD CALLDATALOAD PUSH8 0xFFFFFFFFFFFFFFFF DUP2 GT ISZERO PUSH2 0xE74 JUMPI PUSH2 0xE73 PUSH2 0xDA0 JUMP JUMPDEST JUMPDEST PUSH2 0xE80 DUP7 DUP3 DUP8 ADD PUSH2 0xDDA JUMP JUMPDEST SWAP3 POP SWAP3 POP POP SWAP3 POP SWAP3 POP SWAP3 JUMP JUMPDEST PUSH0 PUSH1 0x20 DUP3 DUP5 SUB SLT ISZERO PUSH2 0xEA1 JUMPI PUSH2 0xEA0 PUSH2 0xD9C JUMP JUMPDEST JUMPDEST PUSH0 PUSH2 0xEAE DUP5 DUP3 DUP6 ADD PUSH2 0xDBA JUMP JUMPDEST SWAP2 POP POP SWAP3 SWAP2 POP POP JUMP JUMPDEST PUSH0 PUSH20 0xFFFFFFFFFFFFFFFFFFFFFFFFFFFFFFFFFFFFFFFF DUP3 AND SWAP1 POP SWAP2 SWAP1 POP JUMP JUMPDEST PUSH0 PUSH2 0xEE0 DUP3 PUSH2 0xEB7 JUMP JUMPDEST SWAP1 POP SWAP2 SWAP1 POP JUMP JUMPDEST PUSH2 0xEF0 DUP2 PUSH2 0xED6 JUMP JUMPDEST DUP3 MSTORE POP POP JUMP JUMPDEST PUSH0 PUSH1 0x20 DUP3 ADD SWAP1 POP PUSH2 0xF09 PUSH0 DUP4 ADD DUP5 PUSH2 0xEE7 JUMP JUMPDEST SWAP3 SWAP2 POP POP JUMP JUMPDEST PUSH0 DUP2 SWAP1 POP SWAP2 SWAP1 POP JUMP JUMPDEST PUSH0 PUSH2 0xF32 PUSH2 0xF2D PUSH2 0xF28 DUP5 PUSH2 0xEB7 JUMP JUMPDEST PUSH2 0xF0F JUMP JUMPDEST PUSH2 0xEB7 JUMP JUMPDEST SWAP1 POP SWAP2 SWAP1 POP JUMP JUMPDEST PUSH0 PUSH2 0xF43 DUP3 PUSH2 0xF18 JUMP JUMPDEST SWAP1 POP SWAP2 SWAP1 POP JUMP JUMPDEST PUSH0 PUSH2 0xF54 DUP3 PUSH2 0xF39 JUMP JUMPDEST SWAP1 POP SWAP2 SWAP1 POP JUMP JUMPDEST PUSH2 0xF64 DUP2 PUSH2 0xF4A JUMP JUMPDEST DUP3 MSTORE POP POP JUMP JUMPDEST PUSH0 PUSH1 0x20 DUP3 ADD SWAP1 POP PUSH2 0xF7D PUSH0 DUP4 ADD DUP5 PUSH2 0xF5B JUMP JUMPDEST SWAP3 SWAP2 POP POP JUMP JUMPDEST PUSH2 0xF8C DUP2 PUSH2 0xED6 JUMP JUMPDEST DUP2 EQ PUSH2 0xF96 JUMPI PUSH0 PUSH0 REVERT JUMPDEST POP JUMP JUMPDEST PUSH0 DUP2 CALLDATALOAD SWAP1 POP PUSH2 0xFA7 DUP2 PUSH2 0xF83 JUMP JUMPDEST SWAP3 SWAP2 POP POP JUMP JUMPDEST PUSH0 PUSH1 0x20 DUP3 DUP5 SUB SLT ISZERO PUSH2 0xFC2 JUMPI PUSH2 0xFC1 PUSH2 0xD9C JUMP JUMPDEST JUMPDEST PUSH0 PUSH2 0xFCF DUP5 DUP3 DUP6 ADD PUSH2 0xF99 JUMP JUMPDEST SWAP2 POP POP SWAP3 SWAP2 POP POP JUMP JUMPDEST PUSH0 DUP2 ISZERO ISZERO SWAP1 POP SWAP2 SWAP1 POP JUMP JUMPDEST PUSH2 0xFEC DUP2 PUSH2 0xFD8 JUMP JUMPDEST DUP3 MSTORE POP POP JUMP JUMPDEST PUSH0 PUSH1 0x20 DUP3 ADD SWAP1 POP PUSH2 0x1005 PUSH0 DUP4 ADD DUP5 PUSH2 0xFE3 JUMP JUMPDEST SWAP3 SWAP2 POP POP JUMP JUMPDEST PUSH0 DUP2 MLOAD SWAP1 POP PUSH2 0x1019 DUP2 PUSH2 0xDA4 JUMP JUMPDEST SWAP3 SWAP2 POP POP JUMP JUMPDEST PUSH0 PUSH1 0x20 DUP3 DUP5 SUB SLT ISZERO PUSH2 0x1034 JUMPI PUSH2 0x1033 PUSH2 0xD9C JUMP JUMPDEST JUMPDEST PUSH0 PUSH2 0x1041 DUP5 DUP3 DUP6 ADD PUSH2 0x100B JUMP JUMPDEST SWAP2 POP POP SWAP3 SWAP2 POP POP JUMP JUMPDEST PUSH0 DUP3 DUP3 MSTORE PUSH1 0x20 DUP3 ADD SWAP1 POP SWAP3 SWAP2 POP POP JUMP JUMPDEST PUSH32 0x416D6F756E74206D757374206265203E20300000000000000000000000000000 PUSH0 DUP3 ADD MSTORE POP JUMP JUMPDEST PUSH0 PUSH2 0x108E PUSH1 0x12 DUP4 PUSH2 0x104A JUMP JUMPDEST SWAP2 POP PUSH2 0x1099 DUP3 PUSH2 0x105A JUMP JUMPDEST PUSH1 0x20 DUP3 ADD SWAP1 POP SWAP2 SWAP1 POP JUMP JUMPDEST PUSH0 PUSH1 0x20 DUP3 ADD SWAP1 POP DUP2 DUP2 SUB PUSH0 DUP4 ADD MSTORE PUSH2 0x10BB DUP2 PUSH2 0x1082 JUMP JUMPDEST SWAP1 POP SWAP2 SWAP1 POP JUMP JUMPDEST PUSH32 0x416D6F756E742065786365656473206C696D6974202831353030204348482900 PUSH0 DUP3 ADD MSTORE POP JUMP JUMPDEST PUSH0 PUSH2 0x10F6 PUSH1 0x1F DUP4 PUSH2 0x104A JUMP JUMPDEST SWAP2 POP PUSH2 0x1101 DUP3 PUSH2 0x10C2 JUMP JUMPDEST PUSH1 0x20 DUP3 ADD SWAP1 POP SWAP2 SWAP1 POP JUMP JUMPDEST PUSH0 PUSH1 0x20 DUP3 ADD SWAP1 POP DUP2 DUP2 SUB PUSH0 DUP4 ADD MSTORE PUSH2 0x1123 DUP2 PUSH2 0x10EA JUMP JUMPDEST SWAP1 POP SWAP2 SWAP1 POP JUMP JUMPDEST PUSH32 0x416C726561647920636C61696D656420746F6461792028726573657473206174 PUSH0 DUP3 ADD MSTORE PUSH32 0x2055544320303A30302900000000000000000000000000000000000000000000 PUSH1 0x20 DUP3 ADD MSTORE POP JUMP JUMPDEST PUSH0 PUSH2 0x1184 PUSH1 0x2A DUP4 PUSH2 0x104A JUMP JUMPDEST SWAP2 POP PUSH2 0x118F DUP3 PUSH2 0x112A JUMP JUMPDEST PUSH1 0x40 DUP3 ADD SWAP1 POP SWAP2 SWAP1 POP JUMP JUMPDEST PUSH0 PUSH1 0x20 DUP3 ADD SWAP1 POP DUP2 DUP2 SUB PUSH0 DUP4 ADD MSTORE PUSH2 0x11B1 DUP2 PUSH2 0x1178 JUMP JUMPDEST SWAP1 POP SWAP2 SWAP1 POP JUMP JUMPDEST PUSH0 DUP2 PUSH1 0x60 SHL SWAP1 POP SWAP2 SWAP1 POP JUMP JUMPDEST PUSH0 PUSH2 0x11CE DUP3 PUSH2 0x11B8 JUMP JUMPDEST SWAP1 POP SWAP2 SWAP1 POP JUMP JUMPDEST PUSH0 PUSH2 0x11DF DUP3 PUSH2 0x11C4 JUMP JUMPDEST SWAP1 POP SWAP2 SWAP1 POP JUMP JUMPDEST PUSH2 0x11F7 PUSH2 0x11F2 DUP3 PUSH2 0xED6 JUMP JUMPDEST PUSH2 0x11D5 JUMP JUMPDEST DUP3 MSTORE POP POP JUMP JUMPDEST PUSH0 DUP2 SWAP1 POP SWAP2 SWAP1 POP JUMP JUMPDEST PUSH2 0x1217 PUSH2 0x1212 DUP3 PUSH2 0xD6B JUMP JUMPDEST PUSH2 0x11FD JUMP JUMPDEST DUP3 MSTORE POP POP JUMP JUMPDEST PUSH0 PUSH2 0x1228 DUP3 DUP6 PUSH2 0x11E6 JUMP JUMPDEST PUSH1 0x14 DUP3 ADD SWAP2 POP PUSH2 0x1238 DUP3 DUP5 PUSH2 0x1206 JUMP JUMPDEST PUSH1 0x20 DUP3 ADD SWAP2 POP DUP2 SWAP1 POP SWAP4 SWAP3 POP POP POP JUMP JUMPDEST PUSH32 0x496E76616C6964207369676E6174757265000000000000000000000000000000 PUSH0 DUP3 ADD MSTORE POP JUMP JUMPDEST PUSH0 PUSH2 0x127C PUSH1 0x11 DUP4 PUSH2 0x104A JUMP JUMPDEST SWAP2 POP PUSH2 0x1287 DUP3 PUSH2 0x1248 JUMP JUMPDEST PUSH1 0x20 DUP3 ADD SWAP1 POP SWAP2 SWAP1 POP JUMP JUMPDEST PUSH0 PUSH1 0x20 DUP3 ADD SWAP1 POP DUP2 DUP2 SUB PUSH0 DUP4 ADD MSTORE PUSH2 0x12A9 DUP2 PUSH2 0x1270 JUMP JUMPDEST SWAP1 POP SWAP2 SWAP1 POP JUMP JUMPDEST PUSH32 0x4E487B7100000000000000000000000000000000000000000000000000000000 PUSH0 MSTORE PUSH1 0x11 PUSH1 0x4 MSTORE PUSH1 0x24 PUSH0 REVERT JUMPDEST PUSH0 PUSH2 0x12E7 DUP3 PUSH2 0xD6B JUMP JUMPDEST SWAP2 POP PUSH2 0x12F2 DUP4 PUSH2 0xD6B JUMP JUMPDEST SWAP3 POP DUP3 DUP3 MUL PUSH2 0x1300 DUP2 PUSH2 0xD6B JUMP JUMPDEST SWAP2 POP DUP3 DUP3 DIV DUP5 EQ DUP4 ISZERO OR PUSH2 0x1317 JUMPI PUSH2 0x1316 PUSH2 0x12B0 JUMP JUMPDEST JUMPDEST POP SWAP3 SWAP2 POP POP JUMP JUMPDEST PUSH32 0x436F6E74726163742068617320696E73756666696369656E742062616C616E63 PUSH0 DUP3 ADD MSTORE PUSH32 0x6500000000000000000000000000000000000000000000000000000000000000 PUSH1 0x20 DUP3 ADD MSTORE POP JUMP JUMPDEST PUSH0 PUSH2 0x1378 PUSH1 0x21 DUP4 PUSH2 0x104A JUMP JUMPDEST SWAP2 POP PUSH2 0x1383 DUP3 PUSH2 0x131E JUMP JUMPDEST PUSH1 0x40 DUP3 ADD SWAP1 POP SWAP2 SWAP1 POP JUMP JUMPDEST PUSH0 PUSH1 0x20 DUP3 ADD SWAP1 POP DUP2 DUP2 SUB PUSH0 DUP4 ADD MSTORE PUSH2 0x13A5 DUP2 PUSH2 0x136C JUMP JUMPDEST SWAP1 POP SWAP2 SWAP1 POP JUMP JUMPDEST PUSH0 PUSH1 0x40 DUP3 ADD SWAP1 POP PUSH2 0x13BF PUSH0 DUP4 ADD DUP6 PUSH2 0xEE7 JUMP JUMPDEST PUSH2 0x13CC PUSH1 0x20 DUP4 ADD DUP5 PUSH2 0xD74 JUMP JUMPDEST SWAP4 SWAP3 POP POP POP JUMP JUMPDEST PUSH2 0x13DC DUP2 PUSH2 0xFD8 JUMP JUMPDEST DUP2 EQ PUSH2 0x13E6 JUMPI PUSH0 PUSH0 REVERT JUMPDEST POP JUMP JUMPDEST PUSH0 DUP2 MLOAD SWAP1 POP PUSH2 0x13F7 DUP2 PUSH2 0x13D3 JUMP JUMPDEST SWAP3 SWAP2 POP POP JUMP JUMPDEST PUSH0 PUSH1 0x20 DUP3 DUP5 SUB SLT ISZERO PUSH2 0x1412 JUMPI PUSH2 0x1411 PUSH2 0xD9C JUMP JUMPDEST JUMPDEST PUSH0 PUSH2 0x141F DUP5 DUP3 DUP6 ADD PUSH2 0x13E9 JUMP JUMPDEST SWAP2 POP POP SWAP3 SWAP2 POP POP JUMP JUMPDEST PUSH32 0x546F6B656E207472616E73666572206661696C65640000000000000000000000 PUSH0 DUP3 ADD MSTORE POP JUMP JUMPDEST PUSH0 PUSH2 0x145C PUSH1 0x15 DUP4 PUSH2 0x104A JUMP JUMPDEST SWAP2 POP PUSH2 0x1467 DUP3 PUSH2 0x1428 JUMP JUMPDEST PUSH1 0x20 DUP3 ADD SWAP1 POP SWAP2 SWAP1 POP JUMP JUMPDEST PUSH0 PUSH1 0x20 DUP3 ADD SWAP1 POP DUP2 DUP2 SUB PUSH0 DUP4 ADD MSTORE PUSH2 0x1489 DUP2 PUSH2 0x1450 JUMP JUMPDEST SWAP1 POP SWAP2 SWAP1 POP JUMP JUMPDEST PUSH32 0x5472616E73666572206661696C65640000000000000000000000000000000000 PUSH0 DUP3 ADD MSTORE POP JUMP JUMPDEST PUSH0 PUSH2 0x14C4 PUSH1 0xF DUP4 PUSH2 0x104A JUMP JUMPDEST SWAP2 POP PUSH2 0x14CF DUP3 PUSH2 0x1490 JUMP JUMPDEST PUSH1 0x20 DUP3 ADD SWAP1 POP SWAP2 SWAP1 POP JUMP JUMPDEST PUSH0 PUSH1 0x20 DUP3 ADD SWAP1 POP DUP2 DUP2 SUB PUSH0 DUP4 ADD MSTORE PUSH2 0x14F1 DUP2 PUSH2 0x14B8 JUMP JUMPDEST SWAP1 POP SWAP2 SWAP1 POP JUMP JUMPDEST PUSH32 0x4E487B7100000000000000000000000000000000000000000000000000000000 PUSH0 MSTORE PUSH1 0x12 PUSH1 0x4 MSTORE PUSH1 0x24 PUSH0 REVERT JUMPDEST PUSH0 PUSH2 0x152F DUP3 PUSH2 0xD6B JUMP JUMPDEST SWAP2 POP PUSH2 0x153A DUP4 PUSH2 0xD6B JUMP JUMPDEST SWAP3 POP DUP3 PUSH2 0x154A JUMPI PUSH2 0x1549 PUSH2 0x14F8 JUMP JUMPDEST JUMPDEST DUP3 DUP3 DIV SWAP1 POP SWAP3 SWAP2 POP POP JUMP JUMPDEST PUSH32 0x4E487B7100000000000000000000000000000000000000000000000000000000 PUSH0 MSTORE PUSH1 0x21 PUSH1 0x4 MSTORE PUSH1 0x24 PUSH0 REVERT JUMPDEST PUSH0 DUP2 SWAP1 POP SWAP2 SWAP1 POP JUMP JUMPDEST PUSH2 0x1594 DUP2 PUSH2 0x1582 JUMP JUMPDEST DUP3 MSTORE POP POP JUMP JUMPDEST PUSH0 PUSH1 0x20 DUP3 ADD SWAP1 POP PUSH2 0x15AD PUSH0 DUP4 ADD DUP5 PUSH2 0x158B JUMP JUMPDEST SWAP3 SWAP2 POP POP JUMP JUMPDEST PUSH0 PUSH1 0xFF DUP3 AND SWAP1 POP SWAP2 SWAP1 POP JUMP JUMPDEST PUSH2 0x15C8 DUP2 PUSH2 0x15B3 JUMP JUMPDEST DUP3 MSTORE POP POP JUMP JUMPDEST PUSH0 PUSH1 0x80 DUP3 ADD SWAP1 POP PUSH2 0x15E1 PUSH0 DUP4 ADD DUP8 PUSH2 0x158B JUMP JUMPDEST PUSH2 0x15EE PUSH1 0x20 DUP4 ADD DUP7 PUSH2 0x15BF JUMP JUMPDEST PUSH2 0x15FB PUSH1 0x40 DUP4 ADD DUP6 PUSH2 0x158B JUMP JUMPDEST PUSH2 0x1608 PUSH1 0x60 DUP4 ADD DUP5 PUSH2 0x158B JUMP JUMPDEST SWAP6 SWAP5 POP POP POP POP POP JUMP INVALID LOG2 PUSH5 0x6970667358 0x22 SLT KECCAK256 PUSH2 0x2432 EOFCREATE 0x6D PUSH7 0x8A0242DF1E97A1 CODECOPY DUP13 RJUMPI 0xD7C5 0xF PREVRANDAO PUSH1 0x42 DUP8 0xC4 0xB6 0x29 BLOCKHASH CALLDATALOAD SWAP2 RETF SLT MSTORE PUSH5 0x736F6C6343 STOP ADDMOD 0x1F STOP CALLER "
		},
		"gasEstimates": {
			"creation": {
				"codeDepositCost": "1140600",
				"executionCost": "infinite",
				"totalCost": "infinite"
			},
			"external": {
				"checkDailyLimit(address)": "infinite",
				"chhToken()": "infinite",
				"claim(uint256,bytes)": "infinite",
				"getRemainingBalance()": "infinite",
				"lastClaimTime(address)": "2868",
				"owner()": "2536",
				"renounceOwnership()": "infinite",
				"signerAddress()": "440",
				"transferOwnership(address)": "infinite",
				"withdrawToken(uint256)": "infinite"
			}
		},
		"methodIdentifiers": {
			"checkDailyLimit(address)": "9c6b85bb",
			"chhToken()": "8455d8d5",
			"claim(uint256,bytes)": "38926b6d",
			"getRemainingBalance()": "2fba2c85",
			"lastClaimTime(address)": "b77cf9c6",
			"owner()": "8da5cb5b",
			"renounceOwnership()": "715018a6",
			"signerAddress()": "5b7633d0",
			"transferOwnership(address)": "f2fde38b",
			"withdrawToken(uint256)": "50baa622"
		}
	},
	"abi": [
		{
			"inputs": [],
			"stateMutability": "nonpayable",
			"type": "constructor"
		},
		{
			"inputs": [],
			"name": "ECDSAInvalidSignature",
			"type": "error"
		},
		{
			"inputs": [
				{
					"internalType": "uint256",
					"name": "length",
					"type": "uint256"
				}
			],
			"name": "ECDSAInvalidSignatureLength",
			"type": "error"
		},
		{
			"inputs": [
				{
					"internalType": "bytes32",
					"name": "s",
					"type": "bytes32"
				}
			],
			"name": "ECDSAInvalidSignatureS",
			"type": "error"
		},
		{
			"inputs": [
				{
					"internalType": "address",
					"name": "owner",
					"type": "address"
				}
			],
			"name": "OwnableInvalidOwner",
			"type": "error"
		},
		{
			"inputs": [
				{
					"internalType": "address",
					"name": "account",
					"type": "address"
				}
			],
			"name": "OwnableUnauthorizedAccount",
			"type": "error"
		},
		{
			"anonymous": false,
			"inputs": [
				{
					"indexed": true,
					"internalType": "address",
					"name": "user",
					"type": "address"
				},
				{
					"indexed": false,
					"internalType": "uint256",
					"name": "amount",
					"type": "uint256"
				}
			],
			"name": "Claimed",
			"type": "event"
		},
		{
			"anonymous": false,
			"inputs": [
				{
					"indexed": true,
					"internalType": "address",
					"name": "previousOwner",
					"type": "address"
				},
				{
					"indexed": true,
					"internalType": "address",
					"name": "newOwner",
					"type": "address"
				}
			],
			"name": "OwnershipTransferred",
			"type": "event"
		},
		{
			"inputs": [
				{
					"internalType": "address",
					"name": "user",
					"type": "address"
				}
			],
			"name": "checkDailyLimit",
			"outputs": [
				{
					"internalType": "bool",
					"name": "",
					"type": "bool"
				}
			],
			"stateMutability": "view",
			"type": "function"
		},
		{
			"inputs": [],
			"name": "chhToken",
			"outputs": [
				{
					"internalType": "contract IERC20",
					"name": "",
					"type": "address"
				}
			],
			"stateMutability": "view",
			"type": "function"
		},
		{
			"inputs": [
				{
					"internalType": "uint256",
					"name": "amount",
					"type": "uint256"
				},
				{
					"internalType": "bytes",
					"name": "signature",
					"type": "bytes"
				}
			],
			"name": "claim",
			"outputs": [],
			"stateMutability": "nonpayable",
			"type": "function"
		},
		{
			"inputs": [],
			"name": "getRemainingBalance",
			"outputs": [
				{
					"internalType": "uint256",
					"name": "",
					"type": "uint256"
				}
			],
			"stateMutability": "view",
			"type": "function"
		},
		{
			"inputs": [
				{
					"internalType": "address",
					"name": "",
					"type": "address"
				}
			],
			"name": "lastClaimTime",
			"outputs": [
				{
					"internalType": "uint256",
					"name": "",
					"type": "uint256"
				}
			],
			"stateMutability": "view",
			"type": "function"
		},
		{
			"inputs": [],
			"name": "owner",
			"outputs": [
				{
					"internalType": "address",
					"name": "",
					"type": "address"
				}
			],
			"stateMutability": "view",
			"type": "function"
		},
		{
			"inputs": [],
			"name": "renounceOwnership",
			"outputs": [],
			"stateMutability": "nonpayable",
			"type": "function"
		},
		{
			"inputs": [],
			"name": "signerAddress",
			"outputs": [
				{
					"internalType": "address",
					"name": "",
					"type": "address"
				}
			],
			"stateMutability": "view",
			"type": "function"
		},
		{
			"inputs": [
				{
					"internalType": "address",
					"name": "newOwner",
					"type": "address"
				}
			],
			"name": "transferOwnership",
			"outputs": [],
			"stateMutability": "nonpayable",
			"type": "function"
		},
		{
			"inputs": [
				{
					"internalType": "uint256",
					"name": "amount",
					"type": "uint256"
				}
			],
			"name": "withdrawToken",
			"outputs": [],
			"stateMutability": "nonpayable",
			"type": "function"
		}
	]
}